{
	"contracts/11_mapping_assignment.sol": {
		"Allowance": {
			"abi": [
				{
					"inputs": [
						{
							"internalType": "address",
							"name": "_addrOwner",
							"type": "address"
						},
						{
							"internalType": "address",
							"name": "_addrSpender",
							"type": "address"
						},
						{
							"internalType": "uint256",
							"name": "_id",
							"type": "uint256"
						}
					],
					"name": "addPair",
					"outputs": [],
					"stateMutability": "nonpayable",
					"type": "function"
				},
				{
					"inputs": [
						{
							"internalType": "address",
							"name": "_addrOwner",
							"type": "address"
						},
						{
							"internalType": "address",
							"name": "_addrSpender",
							"type": "address"
						}
					],
					"name": "remove",
					"outputs": [],
					"stateMutability": "nonpayable",
					"type": "function"
				}
			],
			"devdoc": {
				"kind": "dev",
				"methods": {},
				"version": 1
			},
			"evm": {
				"assembly": "    /* \"contracts/11_mapping_assignment.sol\":57:466  contract Allowance {... */\n  mstore(0x40, 0x80)\n  callvalue\n  dup1\n  iszero\n  tag_1\n  jumpi\n  0x00\n  dup1\n  revert\ntag_1:\n  pop\n  dataSize(sub_0)\n  dup1\n  dataOffset(sub_0)\n  0x00\n  codecopy\n  0x00\n  return\nstop\n\nsub_0: assembly {\n        /* \"contracts/11_mapping_assignment.sol\":57:466  contract Allowance {... */\n      mstore(0x40, 0x80)\n      callvalue\n      dup1\n      iszero\n      tag_1\n      jumpi\n      0x00\n      dup1\n      revert\n    tag_1:\n      pop\n      jumpi(tag_2, lt(calldatasize, 0x04))\n      shr(0xe0, calldataload(0x00))\n      dup1\n      0x7f7c1491\n      eq\n      tag_3\n      jumpi\n      dup1\n      0xb5acfa62\n      eq\n      tag_4\n      jumpi\n    tag_2:\n      0x00\n      dup1\n      revert\n        /* \"contracts/11_mapping_assignment.sol\":191:316  function remove (address _addrOwner, address _addrSpender) public {... */\n    tag_3:\n      tag_5\n      0x04\n      dup1\n      calldatasize\n      sub\n      dup2\n      add\n      swap1\n      tag_6\n      swap2\n      swap1\n      tag_7\n      jump\t// in\n    tag_6:\n      tag_8\n      jump\t// in\n    tag_5:\n      stop\n        /* \"contracts/11_mapping_assignment.sol\":322:457  function addPair (address _addrOwner, address _addrSpender, uint _id) public {... */\n    tag_4:\n      tag_9\n      0x04\n      dup1\n      calldatasize\n      sub\n      dup2\n      add\n      swap1\n      tag_10\n      swap2\n      swap1\n      tag_11\n      jump\t// in\n    tag_10:\n      tag_12\n      jump\t// in\n    tag_9:\n      stop\n        /* \"contracts/11_mapping_assignment.sol\":191:316  function remove (address _addrOwner, address _addrSpender) public {... */\n    tag_8:\n        /* \"contracts/11_mapping_assignment.sol\":274:283  allowance */\n      0x00\n        /* \"contracts/11_mapping_assignment.sol\":274:295  allowance[_addrOwner] */\n      dup1\n        /* \"contracts/11_mapping_assignment.sol\":284:294  _addrOwner */\n      dup4\n        /* \"contracts/11_mapping_assignment.sol\":274:295  allowance[_addrOwner] */\n      0xffffffffffffffffffffffffffffffffffffffff\n      and\n      0xffffffffffffffffffffffffffffffffffffffff\n      and\n      dup2\n      mstore\n      0x20\n      add\n      swap1\n      dup2\n      mstore\n      0x20\n      add\n      0x00\n      keccak256\n        /* \"contracts/11_mapping_assignment.sol\":274:309  allowance[_addrOwner][_addrSpender] */\n      0x00\n        /* \"contracts/11_mapping_assignment.sol\":296:308  _addrSpender */\n      dup3\n        /* \"contracts/11_mapping_assignment.sol\":274:309  allowance[_addrOwner][_addrSpender] */\n      0xffffffffffffffffffffffffffffffffffffffff\n      and\n      0xffffffffffffffffffffffffffffffffffffffff\n      and\n      dup2\n      mstore\n      0x20\n      add\n      swap1\n      dup2\n      mstore\n      0x20\n      add\n      0x00\n      keccak256\n        /* \"contracts/11_mapping_assignment.sol\":267:309  delete allowance[_addrOwner][_addrSpender] */\n      0x00\n      swap1\n      sstore\n        /* \"contracts/11_mapping_assignment.sol\":191:316  function remove (address _addrOwner, address _addrSpender) public {... */\n      pop\n      pop\n      jump\t// out\n        /* \"contracts/11_mapping_assignment.sol\":322:457  function addPair (address _addrOwner, address _addrSpender, uint _id) public {... */\n    tag_12:\n        /* \"contracts/11_mapping_assignment.sol\":447:450  _id */\n      dup1\n        /* \"contracts/11_mapping_assignment.sol\":409:418  allowance */\n      0x00\n        /* \"contracts/11_mapping_assignment.sol\":409:430  allowance[_addrOwner] */\n      dup1\n        /* \"contracts/11_mapping_assignment.sol\":419:429  _addrOwner */\n      dup6\n        /* \"contracts/11_mapping_assignment.sol\":409:430  allowance[_addrOwner] */\n      0xffffffffffffffffffffffffffffffffffffffff\n      and\n      0xffffffffffffffffffffffffffffffffffffffff\n      and\n      dup2\n      mstore\n      0x20\n      add\n      swap1\n      dup2\n      mstore\n      0x20\n      add\n      0x00\n      keccak256\n        /* \"contracts/11_mapping_assignment.sol\":409:444  allowance[_addrOwner][_addrSpender] */\n      0x00\n        /* \"contracts/11_mapping_assignment.sol\":431:443  _addrSpender */\n      dup5\n        /* \"contracts/11_mapping_assignment.sol\":409:444  allowance[_addrOwner][_addrSpender] */\n      0xffffffffffffffffffffffffffffffffffffffff\n      and\n      0xffffffffffffffffffffffffffffffffffffffff\n      and\n      dup2\n      mstore\n      0x20\n      add\n      swap1\n      dup2\n      mstore\n      0x20\n      add\n      0x00\n      keccak256\n        /* \"contracts/11_mapping_assignment.sol\":409:450  allowance[_addrOwner][_addrSpender] = _id */\n      dup2\n      swap1\n      sstore\n      pop\n        /* \"contracts/11_mapping_assignment.sol\":322:457  function addPair (address _addrOwner, address _addrSpender, uint _id) public {... */\n      pop\n      pop\n      pop\n      jump\t// out\n        /* \"#utility.yul\":7:146   */\n    tag_16:\n        /* \"#utility.yul\":53:58   */\n      0x00\n        /* \"#utility.yul\":91:97   */\n      dup2\n        /* \"#utility.yul\":78:98   */\n      calldataload\n        /* \"#utility.yul\":69:98   */\n      swap1\n      pop\n        /* \"#utility.yul\":107:140   */\n      tag_18\n        /* \"#utility.yul\":134:139   */\n      dup2\n        /* \"#utility.yul\":107:140   */\n      tag_19\n      jump\t// in\n    tag_18:\n        /* \"#utility.yul\":7:146   */\n      swap3\n      swap2\n      pop\n      pop\n      jump\t// out\n        /* \"#utility.yul\":152:291   */\n    tag_20:\n        /* \"#utility.yul\":198:203   */\n      0x00\n        /* \"#utility.yul\":236:242   */\n      dup2\n        /* \"#utility.yul\":223:243   */\n      calldataload\n        /* \"#utility.yul\":214:243   */\n      swap1\n      pop\n        /* \"#utility.yul\":252:285   */\n      tag_22\n        /* \"#utility.yul\":279:284   */\n      dup2\n        /* \"#utility.yul\":252:285   */\n      tag_23\n      jump\t// in\n    tag_22:\n        /* \"#utility.yul\":152:291   */\n      swap3\n      swap2\n      pop\n      pop\n      jump\t// out\n        /* \"#utility.yul\":297:771   */\n    tag_7:\n        /* \"#utility.yul\":365:371   */\n      0x00\n        /* \"#utility.yul\":373:379   */\n      dup1\n        /* \"#utility.yul\":422:424   */\n      0x40\n        /* \"#utility.yul\":410:419   */\n      dup4\n        /* \"#utility.yul\":401:408   */\n      dup6\n        /* \"#utility.yul\":397:420   */\n      sub\n        /* \"#utility.yul\":393:425   */\n      slt\n        /* \"#utility.yul\":390:509   */\n      iszero\n      tag_25\n      jumpi\n        /* \"#utility.yul\":428:507   */\n      tag_26\n      tag_27\n      jump\t// in\n    tag_26:\n        /* \"#utility.yul\":390:509   */\n    tag_25:\n        /* \"#utility.yul\":548:549   */\n      0x00\n        /* \"#utility.yul\":573:626   */\n      tag_28\n        /* \"#utility.yul\":618:625   */\n      dup6\n        /* \"#utility.yul\":609:615   */\n      dup3\n        /* \"#utility.yul\":598:607   */\n      dup7\n        /* \"#utility.yul\":594:616   */\n      add\n        /* \"#utility.yul\":573:626   */\n      tag_16\n      jump\t// in\n    tag_28:\n        /* \"#utility.yul\":563:626   */\n      swap3\n      pop\n        /* \"#utility.yul\":519:636   */\n      pop\n        /* \"#utility.yul\":675:677   */\n      0x20\n        /* \"#utility.yul\":701:754   */\n      tag_29\n        /* \"#utility.yul\":746:753   */\n      dup6\n        /* \"#utility.yul\":737:743   */\n      dup3\n        /* \"#utility.yul\":726:735   */\n      dup7\n        /* \"#utility.yul\":722:744   */\n      add\n        /* \"#utility.yul\":701:754   */\n      tag_16\n      jump\t// in\n    tag_29:\n        /* \"#utility.yul\":691:754   */\n      swap2\n      pop\n        /* \"#utility.yul\":646:764   */\n      pop\n        /* \"#utility.yul\":297:771   */\n      swap3\n      pop\n      swap3\n      swap1\n      pop\n      jump\t// out\n        /* \"#utility.yul\":777:1396   */\n    tag_11:\n        /* \"#utility.yul\":854:860   */\n      0x00\n        /* \"#utility.yul\":862:868   */\n      dup1\n        /* \"#utility.yul\":870:876   */\n      0x00\n        /* \"#utility.yul\":919:921   */\n      0x60\n        /* \"#utility.yul\":907:916   */\n      dup5\n        /* \"#utility.yul\":898:905   */\n      dup7\n        /* \"#utility.yul\":894:917   */\n      sub\n        /* \"#utility.yul\":890:922   */\n      slt\n        /* \"#utility.yul\":887:1006   */\n      iszero\n      tag_31\n      jumpi\n        /* \"#utility.yul\":925:1004   */\n      tag_32\n      tag_27\n      jump\t// in\n    tag_32:\n        /* \"#utility.yul\":887:1006   */\n    tag_31:\n        /* \"#utility.yul\":1045:1046   */\n      0x00\n        /* \"#utility.yul\":1070:1123   */\n      tag_33\n        /* \"#utility.yul\":1115:1122   */\n      dup7\n        /* \"#utility.yul\":1106:1112   */\n      dup3\n        /* \"#utility.yul\":1095:1104   */\n      dup8\n        /* \"#utility.yul\":1091:1113   */\n      add\n        /* \"#utility.yul\":1070:1123   */\n      tag_16\n      jump\t// in\n    tag_33:\n        /* \"#utility.yul\":1060:1123   */\n      swap4\n      pop\n        /* \"#utility.yul\":1016:1133   */\n      pop\n        /* \"#utility.yul\":1172:1174   */\n      0x20\n        /* \"#utility.yul\":1198:1251   */\n      tag_34\n        /* \"#utility.yul\":1243:1250   */\n      dup7\n        /* \"#utility.yul\":1234:1240   */\n      dup3\n        /* \"#utility.yul\":1223:1232   */\n      dup8\n        /* \"#utility.yul\":1219:1241   */\n      add\n        /* \"#utility.yul\":1198:1251   */\n      tag_16\n      jump\t// in\n    tag_34:\n        /* \"#utility.yul\":1188:1251   */\n      swap3\n      pop\n        /* \"#utility.yul\":1143:1261   */\n      pop\n        /* \"#utility.yul\":1300:1302   */\n      0x40\n        /* \"#utility.yul\":1326:1379   */\n      tag_35\n        /* \"#utility.yul\":1371:1378   */\n      dup7\n        /* \"#utility.yul\":1362:1368   */\n      dup3\n        /* \"#utility.yul\":1351:1360   */\n      dup8\n        /* \"#utility.yul\":1347:1369   */\n      add\n        /* \"#utility.yul\":1326:1379   */\n      tag_20\n      jump\t// in\n    tag_35:\n        /* \"#utility.yul\":1316:1379   */\n      swap2\n      pop\n        /* \"#utility.yul\":1271:1389   */\n      pop\n        /* \"#utility.yul\":777:1396   */\n      swap3\n      pop\n      swap3\n      pop\n      swap3\n      jump\t// out\n        /* \"#utility.yul\":1483:1579   */\n    tag_38:\n        /* \"#utility.yul\":1520:1527   */\n      0x00\n        /* \"#utility.yul\":1549:1573   */\n      tag_40\n        /* \"#utility.yul\":1567:1572   */\n      dup3\n        /* \"#utility.yul\":1549:1573   */\n      tag_41\n      jump\t// in\n    tag_40:\n        /* \"#utility.yul\":1538:1573   */\n      swap1\n      pop\n        /* \"#utility.yul\":1483:1579   */\n      swap2\n      swap1\n      pop\n      jump\t// out\n        /* \"#utility.yul\":1585:1711   */\n    tag_41:\n        /* \"#utility.yul\":1622:1629   */\n      0x00\n        /* \"#utility.yul\":1662:1704   */\n      0xffffffffffffffffffffffffffffffffffffffff\n        /* \"#utility.yul\":1655:1660   */\n      dup3\n        /* \"#utility.yul\":1651:1705   */\n      and\n        /* \"#utility.yul\":1640:1705   */\n      swap1\n      pop\n        /* \"#utility.yul\":1585:1711   */\n      swap2\n      swap1\n      pop\n      jump\t// out\n        /* \"#utility.yul\":1717:1794   */\n    tag_43:\n        /* \"#utility.yul\":1754:1761   */\n      0x00\n        /* \"#utility.yul\":1783:1788   */\n      dup2\n        /* \"#utility.yul\":1772:1788   */\n      swap1\n      pop\n        /* \"#utility.yul\":1717:1794   */\n      swap2\n      swap1\n      pop\n      jump\t// out\n        /* \"#utility.yul\":1923:2040   */\n    tag_27:\n        /* \"#utility.yul\":2032:2033   */\n      0x00\n        /* \"#utility.yul\":2029:2030   */\n      dup1\n        /* \"#utility.yul\":2022:2034   */\n      revert\n        /* \"#utility.yul\":2046:2168   */\n    tag_19:\n        /* \"#utility.yul\":2119:2143   */\n      tag_49\n        /* \"#utility.yul\":2137:2142   */\n      dup2\n        /* \"#utility.yul\":2119:2143   */\n      tag_38\n      jump\t// in\n    tag_49:\n        /* \"#utility.yul\":2112:2117   */\n      dup2\n        /* \"#utility.yul\":2109:2144   */\n      eq\n        /* \"#utility.yul\":2099:2162   */\n      tag_50\n      jumpi\n        /* \"#utility.yul\":2158:2159   */\n      0x00\n        /* \"#utility.yul\":2155:2156   */\n      dup1\n        /* \"#utility.yul\":2148:2160   */\n      revert\n        /* \"#utility.yul\":2099:2162   */\n    tag_50:\n        /* \"#utility.yul\":2046:2168   */\n      pop\n      jump\t// out\n        /* \"#utility.yul\":2174:2296   */\n    tag_23:\n        /* \"#utility.yul\":2247:2271   */\n      tag_52\n        /* \"#utility.yul\":2265:2270   */\n      dup2\n        /* \"#utility.yul\":2247:2271   */\n      tag_43\n      jump\t// in\n    tag_52:\n        /* \"#utility.yul\":2240:2245   */\n      dup2\n        /* \"#utility.yul\":2237:2272   */\n      eq\n        /* \"#utility.yul\":2227:2290   */\n      tag_53\n      jumpi\n        /* \"#utility.yul\":2286:2287   */\n      0x00\n        /* \"#utility.yul\":2283:2284   */\n      dup1\n        /* \"#utility.yul\":2276:2288   */\n      revert\n        /* \"#utility.yul\":2227:2290   */\n    tag_53:\n        /* \"#utility.yul\":2174:2296   */\n      pop\n      jump\t// out\n\n    auxdata: 0xa264697066735822122074bc1a4fdfa130a4395601d5c79b10d65d1669d90015cacdc6d9f147be6de8d164736f6c63430008070033\n}\n",
				"bytecode": {
					"linkReferences": {},
					"object": "608060405234801561001057600080fd5b506102dd806100206000396000f3fe608060405234801561001057600080fd5b50600436106100365760003560e01c80637f7c14911461003b578063b5acfa6214610057575b600080fd5b610055600480360381019061005091906101a5565b610073565b005b610071600480360381019061006c91906101e5565b6100f6565b005b6000808373ffffffffffffffffffffffffffffffffffffffff1673ffffffffffffffffffffffffffffffffffffffff16815260200190815260200160002060008273ffffffffffffffffffffffffffffffffffffffff1673ffffffffffffffffffffffffffffffffffffffff168152602001908152602001600020600090555050565b806000808573ffffffffffffffffffffffffffffffffffffffff1673ffffffffffffffffffffffffffffffffffffffff16815260200190815260200160002060008473ffffffffffffffffffffffffffffffffffffffff1673ffffffffffffffffffffffffffffffffffffffff16815260200190815260200160002081905550505050565b60008135905061018a81610279565b92915050565b60008135905061019f81610290565b92915050565b600080604083850312156101bc576101bb610274565b5b60006101ca8582860161017b565b92505060206101db8582860161017b565b9150509250929050565b6000806000606084860312156101fe576101fd610274565b5b600061020c8682870161017b565b935050602061021d8682870161017b565b925050604061022e86828701610190565b9150509250925092565b60006102438261024a565b9050919050565b600073ffffffffffffffffffffffffffffffffffffffff82169050919050565b6000819050919050565b600080fd5b61028281610238565b811461028d57600080fd5b50565b6102998161026a565b81146102a457600080fd5b5056fea264697066735822122074bc1a4fdfa130a4395601d5c79b10d65d1669d90015cacdc6d9f147be6de8d164736f6c63430008070033",
					"opcodes": "PUSH1 0x80 PUSH1 0x40 MSTORE CALLVALUE DUP1 ISZERO PUSH2 0x10 JUMPI PUSH1 0x0 DUP1 REVERT JUMPDEST POP PUSH2 0x2DD DUP1 PUSH2 0x20 PUSH1 0x0 CODECOPY PUSH1 0x0 RETURN INVALID PUSH1 0x80 PUSH1 0x40 MSTORE CALLVALUE DUP1 ISZERO PUSH2 0x10 JUMPI PUSH1 0x0 DUP1 REVERT JUMPDEST POP PUSH1 0x4 CALLDATASIZE LT PUSH2 0x36 JUMPI PUSH1 0x0 CALLDATALOAD PUSH1 0xE0 SHR DUP1 PUSH4 0x7F7C1491 EQ PUSH2 0x3B JUMPI DUP1 PUSH4 0xB5ACFA62 EQ PUSH2 0x57 JUMPI JUMPDEST PUSH1 0x0 DUP1 REVERT JUMPDEST PUSH2 0x55 PUSH1 0x4 DUP1 CALLDATASIZE SUB DUP2 ADD SWAP1 PUSH2 0x50 SWAP2 SWAP1 PUSH2 0x1A5 JUMP JUMPDEST PUSH2 0x73 JUMP JUMPDEST STOP JUMPDEST PUSH2 0x71 PUSH1 0x4 DUP1 CALLDATASIZE SUB DUP2 ADD SWAP1 PUSH2 0x6C SWAP2 SWAP1 PUSH2 0x1E5 JUMP JUMPDEST PUSH2 0xF6 JUMP JUMPDEST STOP JUMPDEST PUSH1 0x0 DUP1 DUP4 PUSH20 0xFFFFFFFFFFFFFFFFFFFFFFFFFFFFFFFFFFFFFFFF AND PUSH20 0xFFFFFFFFFFFFFFFFFFFFFFFFFFFFFFFFFFFFFFFF AND DUP2 MSTORE PUSH1 0x20 ADD SWAP1 DUP2 MSTORE PUSH1 0x20 ADD PUSH1 0x0 KECCAK256 PUSH1 0x0 DUP3 PUSH20 0xFFFFFFFFFFFFFFFFFFFFFFFFFFFFFFFFFFFFFFFF AND PUSH20 0xFFFFFFFFFFFFFFFFFFFFFFFFFFFFFFFFFFFFFFFF AND DUP2 MSTORE PUSH1 0x20 ADD SWAP1 DUP2 MSTORE PUSH1 0x20 ADD PUSH1 0x0 KECCAK256 PUSH1 0x0 SWAP1 SSTORE POP POP JUMP JUMPDEST DUP1 PUSH1 0x0 DUP1 DUP6 PUSH20 0xFFFFFFFFFFFFFFFFFFFFFFFFFFFFFFFFFFFFFFFF AND PUSH20 0xFFFFFFFFFFFFFFFFFFFFFFFFFFFFFFFFFFFFFFFF AND DUP2 MSTORE PUSH1 0x20 ADD SWAP1 DUP2 MSTORE PUSH1 0x20 ADD PUSH1 0x0 KECCAK256 PUSH1 0x0 DUP5 PUSH20 0xFFFFFFFFFFFFFFFFFFFFFFFFFFFFFFFFFFFFFFFF AND PUSH20 0xFFFFFFFFFFFFFFFFFFFFFFFFFFFFFFFFFFFFFFFF AND DUP2 MSTORE PUSH1 0x20 ADD SWAP1 DUP2 MSTORE PUSH1 0x20 ADD PUSH1 0x0 KECCAK256 DUP2 SWAP1 SSTORE POP POP POP POP JUMP JUMPDEST PUSH1 0x0 DUP2 CALLDATALOAD SWAP1 POP PUSH2 0x18A DUP2 PUSH2 0x279 JUMP JUMPDEST SWAP3 SWAP2 POP POP JUMP JUMPDEST PUSH1 0x0 DUP2 CALLDATALOAD SWAP1 POP PUSH2 0x19F DUP2 PUSH2 0x290 JUMP JUMPDEST SWAP3 SWAP2 POP POP JUMP JUMPDEST PUSH1 0x0 DUP1 PUSH1 0x40 DUP4 DUP6 SUB SLT ISZERO PUSH2 0x1BC JUMPI PUSH2 0x1BB PUSH2 0x274 JUMP JUMPDEST JUMPDEST PUSH1 0x0 PUSH2 0x1CA DUP6 DUP3 DUP7 ADD PUSH2 0x17B JUMP JUMPDEST SWAP3 POP POP PUSH1 0x20 PUSH2 0x1DB DUP6 DUP3 DUP7 ADD PUSH2 0x17B JUMP JUMPDEST SWAP2 POP POP SWAP3 POP SWAP3 SWAP1 POP JUMP JUMPDEST PUSH1 0x0 DUP1 PUSH1 0x0 PUSH1 0x60 DUP5 DUP7 SUB SLT ISZERO PUSH2 0x1FE JUMPI PUSH2 0x1FD PUSH2 0x274 JUMP JUMPDEST JUMPDEST PUSH1 0x0 PUSH2 0x20C DUP7 DUP3 DUP8 ADD PUSH2 0x17B JUMP JUMPDEST SWAP4 POP POP PUSH1 0x20 PUSH2 0x21D DUP7 DUP3 DUP8 ADD PUSH2 0x17B JUMP JUMPDEST SWAP3 POP POP PUSH1 0x40 PUSH2 0x22E DUP7 DUP3 DUP8 ADD PUSH2 0x190 JUMP JUMPDEST SWAP2 POP POP SWAP3 POP SWAP3 POP SWAP3 JUMP JUMPDEST PUSH1 0x0 PUSH2 0x243 DUP3 PUSH2 0x24A JUMP JUMPDEST SWAP1 POP SWAP2 SWAP1 POP JUMP JUMPDEST PUSH1 0x0 PUSH20 0xFFFFFFFFFFFFFFFFFFFFFFFFFFFFFFFFFFFFFFFF DUP3 AND SWAP1 POP SWAP2 SWAP1 POP JUMP JUMPDEST PUSH1 0x0 DUP2 SWAP1 POP SWAP2 SWAP1 POP JUMP JUMPDEST PUSH1 0x0 DUP1 REVERT JUMPDEST PUSH2 0x282 DUP2 PUSH2 0x238 JUMP JUMPDEST DUP2 EQ PUSH2 0x28D JUMPI PUSH1 0x0 DUP1 REVERT JUMPDEST POP JUMP JUMPDEST PUSH2 0x299 DUP2 PUSH2 0x26A JUMP JUMPDEST DUP2 EQ PUSH2 0x2A4 JUMPI PUSH1 0x0 DUP1 REVERT JUMPDEST POP JUMP INVALID LOG2 PUSH5 0x6970667358 0x22 SLT KECCAK256 PUSH21 0xBC1A4FDFA130A4395601D5C79B10D65D1669D90015 0xCA 0xCD 0xC6 0xD9 CALL SELFBALANCE 0xBE PUSH14 0xE8D164736F6C6343000807003300 "
				},
				"gasEstimates": {
					"creation": {
						"codeDepositCost": "146600",
						"executionCost": "190",
						"totalCost": "146790"
					},
					"external": {
						"addPair(address,address,uint256)": "infinite",
						"remove(address,address)": "infinite"
					}
				},
				"methodIdentifiers": {
					"addPair(address,address,uint256)": "b5acfa62",
					"remove(address,address)": "7f7c1491"
				}
			},
			"storageLayout": {
				"storage": [
					{
						"astId": 7,
						"contract": "contracts/11_mapping_assignment.sol:Allowance",
						"label": "allowance",
						"offset": 0,
						"slot": "0",
						"type": "t_mapping(t_address,t_mapping(t_address,t_uint256))"
					}
				],
				"types": {
					"t_address": {
						"encoding": "inplace",
						"label": "address",
						"numberOfBytes": "20"
					},
					"t_mapping(t_address,t_mapping(t_address,t_uint256))": {
						"encoding": "mapping",
						"key": "t_address",
						"label": "mapping(address => mapping(address => uint256))",
						"numberOfBytes": "32",
						"value": "t_mapping(t_address,t_uint256)"
					},
					"t_mapping(t_address,t_uint256)": {
						"encoding": "mapping",
						"key": "t_address",
						"label": "mapping(address => uint256)",
						"numberOfBytes": "32",
						"value": "t_uint256"
					},
					"t_uint256": {
						"encoding": "inplace",
						"label": "uint256",
						"numberOfBytes": "32"
					}
				}
			},
			"userdoc": {
				"kind": "user",
				"methods": {},
				"version": 1
			}
		}
	}
}