{
	"contracts/10_structs.sol": {
		"LearnStruct": {
			"abi": [
				{
					"inputs": [],
					"name": "getMovie",
					"outputs": [
						{
							"components": [
								{
									"internalType": "string",
									"name": "title",
									"type": "string"
								},
								{
									"internalType": "string",
									"name": "director",
									"type": "string"
								},
								{
									"internalType": "uint256",
									"name": "id",
									"type": "uint256"
								}
							],
							"internalType": "struct LearnStruct.Movie",
							"name": "",
							"type": "tuple"
						}
					],
					"stateMutability": "view",
					"type": "function"
				},
				{
					"inputs": [],
					"name": "getMovieId",
					"outputs": [
						{
							"components": [
								{
									"internalType": "string",
									"name": "title",
									"type": "string"
								},
								{
									"internalType": "string",
									"name": "director",
									"type": "string"
								},
								{
									"internalType": "uint256",
									"name": "id",
									"type": "uint256"
								}
							],
							"internalType": "struct LearnStruct.Movie",
							"name": "",
							"type": "tuple"
						}
					],
					"stateMutability": "view",
					"type": "function"
				},
				{
					"inputs": [],
					"name": "setMovie",
					"outputs": [],
					"stateMutability": "nonpayable",
					"type": "function"
				}
			],
			"devdoc": {
				"kind": "dev",
				"methods": {},
				"version": 1
			},
			"evm": {
				"assembly": "    /* \"contracts/10_structs.sol\":67:479  contract LearnStruct {... */\n  mstore(0x40, 0x80)\n  callvalue\n  dup1\n  iszero\n  tag_1\n  jumpi\n  0x00\n  dup1\n  revert\ntag_1:\n  pop\n  dataSize(sub_0)\n  dup1\n  dataOffset(sub_0)\n  0x00\n  codecopy\n  0x00\n  return\nstop\n\nsub_0: assembly {\n        /* \"contracts/10_structs.sol\":67:479  contract LearnStruct {... */\n      mstore(0x40, 0x80)\n      callvalue\n      dup1\n      iszero\n      tag_1\n      jumpi\n      0x00\n      dup1\n      revert\n    tag_1:\n      pop\n      jumpi(tag_2, lt(calldatasize, 0x04))\n      shr(0xe0, calldataload(0x00))\n      dup1\n      0x36dcabe0\n      eq\n      tag_3\n      jumpi\n      dup1\n      0x7b5f4eef\n      eq\n      tag_4\n      jumpi\n      dup1\n      0xf6bb33b1\n      eq\n      tag_5\n      jumpi\n    tag_2:\n      0x00\n      dup1\n      revert\n        /* \"contracts/10_structs.sol\":391:477  function getMovieId() public view returns (Movie memory) {... */\n    tag_3:\n      tag_6\n      tag_7\n      jump\t// in\n    tag_6:\n      mload(0x40)\n      tag_8\n      swap2\n      swap1\n      tag_9\n      jump\t// in\n    tag_8:\n      mload(0x40)\n      dup1\n      swap2\n      sub\n      swap1\n      return\n        /* \"contracts/10_structs.sol\":301:385  function getMovie() public view returns (Movie memory) {... */\n    tag_4:\n      tag_10\n      tag_11\n      jump\t// in\n    tag_10:\n      mload(0x40)\n      tag_12\n      swap2\n      swap1\n      tag_9\n      jump\t// in\n    tag_12:\n      mload(0x40)\n      dup1\n      swap2\n      sub\n      swap1\n      return\n        /* \"contracts/10_structs.sol\":202:295  function setMovie() public {... */\n    tag_5:\n      tag_13\n      tag_14\n      jump\t// in\n    tag_13:\n      stop\n        /* \"contracts/10_structs.sol\":391:477  function getMovieId() public view returns (Movie memory) {... */\n    tag_7:\n        /* \"contracts/10_structs.sol\":434:446  Movie memory */\n      tag_15\n      tag_16\n      jump\t// in\n    tag_15:\n        /* \"contracts/10_structs.sol\":465:470  movie */\n      0x00\n        /* \"contracts/10_structs.sol\":458:470  return movie */\n      mload(0x40)\n      dup1\n      0x60\n      add\n      0x40\n      mstore\n      swap1\n      dup2\n      0x00\n      dup3\n      add\n      dup1\n      sload\n      tag_18\n      swap1\n      tag_19\n      jump\t// in\n    tag_18:\n      dup1\n      0x1f\n      add\n      0x20\n      dup1\n      swap2\n      div\n      mul\n      0x20\n      add\n      mload(0x40)\n      swap1\n      dup2\n      add\n      0x40\n      mstore\n      dup1\n      swap3\n      swap2\n      swap1\n      dup2\n      dup2\n      mstore\n      0x20\n      add\n      dup3\n      dup1\n      sload\n      tag_20\n      swap1\n      tag_19\n      jump\t// in\n    tag_20:\n      dup1\n      iszero\n      tag_21\n      jumpi\n      dup1\n      0x1f\n      lt\n      tag_22\n      jumpi\n      0x0100\n      dup1\n      dup4\n      sload\n      div\n      mul\n      dup4\n      mstore\n      swap2\n      0x20\n      add\n      swap2\n      jump(tag_21)\n    tag_22:\n      dup3\n      add\n      swap2\n      swap1\n      0x00\n      mstore\n      keccak256(0x00, 0x20)\n      swap1\n    tag_23:\n      dup2\n      sload\n      dup2\n      mstore\n      swap1\n      0x01\n      add\n      swap1\n      0x20\n      add\n      dup1\n      dup4\n      gt\n      tag_23\n      jumpi\n      dup3\n      swap1\n      sub\n      0x1f\n      and\n      dup3\n      add\n      swap2\n    tag_21:\n      pop\n      pop\n      pop\n      pop\n      pop\n      dup2\n      mstore\n      0x20\n      add\n      0x01\n      dup3\n      add\n      dup1\n      sload\n      tag_24\n      swap1\n      tag_19\n      jump\t// in\n    tag_24:\n      dup1\n      0x1f\n      add\n      0x20\n      dup1\n      swap2\n      div\n      mul\n      0x20\n      add\n      mload(0x40)\n      swap1\n      dup2\n      add\n      0x40\n      mstore\n      dup1\n      swap3\n      swap2\n      swap1\n      dup2\n      dup2\n      mstore\n      0x20\n      add\n      dup3\n      dup1\n      sload\n      tag_25\n      swap1\n      tag_19\n      jump\t// in\n    tag_25:\n      dup1\n      iszero\n      tag_26\n      jumpi\n      dup1\n      0x1f\n      lt\n      tag_27\n      jumpi\n      0x0100\n      dup1\n      dup4\n      sload\n      div\n      mul\n      dup4\n      mstore\n      swap2\n      0x20\n      add\n      swap2\n      jump(tag_26)\n    tag_27:\n      dup3\n      add\n      swap2\n      swap1\n      0x00\n      mstore\n      keccak256(0x00, 0x20)\n      swap1\n    tag_28:\n      dup2\n      sload\n      dup2\n      mstore\n      swap1\n      0x01\n      add\n      swap1\n      0x20\n      add\n      dup1\n      dup4\n      gt\n      tag_28\n      jumpi\n      dup3\n      swap1\n      sub\n      0x1f\n      and\n      dup3\n      add\n      swap2\n    tag_26:\n      pop\n      pop\n      pop\n      pop\n      pop\n      dup2\n      mstore\n      0x20\n      add\n      0x02\n      dup3\n      add\n      sload\n      dup2\n      mstore\n      pop\n      pop\n      swap1\n      pop\n        /* \"contracts/10_structs.sol\":391:477  function getMovieId() public view returns (Movie memory) {... */\n      swap1\n      jump\t// out\n        /* \"contracts/10_structs.sol\":301:385  function getMovie() public view returns (Movie memory) {... */\n    tag_11:\n        /* \"contracts/10_structs.sol\":342:354  Movie memory */\n      tag_29\n      tag_16\n      jump\t// in\n    tag_29:\n        /* \"contracts/10_structs.sol\":373:378  movie */\n      0x00\n        /* \"contracts/10_structs.sol\":366:378  return movie */\n      mload(0x40)\n      dup1\n      0x60\n      add\n      0x40\n      mstore\n      swap1\n      dup2\n      0x00\n      dup3\n      add\n      dup1\n      sload\n      tag_31\n      swap1\n      tag_19\n      jump\t// in\n    tag_31:\n      dup1\n      0x1f\n      add\n      0x20\n      dup1\n      swap2\n      div\n      mul\n      0x20\n      add\n      mload(0x40)\n      swap1\n      dup2\n      add\n      0x40\n      mstore\n      dup1\n      swap3\n      swap2\n      swap1\n      dup2\n      dup2\n      mstore\n      0x20\n      add\n      dup3\n      dup1\n      sload\n      tag_32\n      swap1\n      tag_19\n      jump\t// in\n    tag_32:\n      dup1\n      iszero\n      tag_33\n      jumpi\n      dup1\n      0x1f\n      lt\n      tag_34\n      jumpi\n      0x0100\n      dup1\n      dup4\n      sload\n      div\n      mul\n      dup4\n      mstore\n      swap2\n      0x20\n      add\n      swap2\n      jump(tag_33)\n    tag_34:\n      dup3\n      add\n      swap2\n      swap1\n      0x00\n      mstore\n      keccak256(0x00, 0x20)\n      swap1\n    tag_35:\n      dup2\n      sload\n      dup2\n      mstore\n      swap1\n      0x01\n      add\n      swap1\n      0x20\n      add\n      dup1\n      dup4\n      gt\n      tag_35\n      jumpi\n      dup3\n      swap1\n      sub\n      0x1f\n      and\n      dup3\n      add\n      swap2\n    tag_33:\n      pop\n      pop\n      pop\n      pop\n      pop\n      dup2\n      mstore\n      0x20\n      add\n      0x01\n      dup3\n      add\n      dup1\n      sload\n      tag_36\n      swap1\n      tag_19\n      jump\t// in\n    tag_36:\n      dup1\n      0x1f\n      add\n      0x20\n      dup1\n      swap2\n      div\n      mul\n      0x20\n      add\n      mload(0x40)\n      swap1\n      dup2\n      add\n      0x40\n      mstore\n      dup1\n      swap3\n      swap2\n      swap1\n      dup2\n      dup2\n      mstore\n      0x20\n      add\n      dup3\n      dup1\n      sload\n      tag_37\n      swap1\n      tag_19\n      jump\t// in\n    tag_37:\n      dup1\n      iszero\n      tag_38\n      jumpi\n      dup1\n      0x1f\n      lt\n      tag_39\n      jumpi\n      0x0100\n      dup1\n      dup4\n      sload\n      div\n      mul\n      dup4\n      mstore\n      swap2\n      0x20\n      add\n      swap2\n      jump(tag_38)\n    tag_39:\n      dup3\n      add\n      swap2\n      swap1\n      0x00\n      mstore\n      keccak256(0x00, 0x20)\n      swap1\n    tag_40:\n      dup2\n      sload\n      dup2\n      mstore\n      swap1\n      0x01\n      add\n      swap1\n      0x20\n      add\n      dup1\n      dup4\n      gt\n      tag_40\n      jumpi\n      dup3\n      swap1\n      sub\n      0x1f\n      and\n      dup3\n      add\n      swap2\n    tag_38:\n      pop\n      pop\n      pop\n      pop\n      pop\n      dup2\n      mstore\n      0x20\n      add\n      0x02\n      dup3\n      add\n      sload\n      dup2\n      mstore\n      pop\n      pop\n      swap1\n      pop\n        /* \"contracts/10_structs.sol\":301:385  function getMovie() public view returns (Movie memory) {... */\n      swap1\n      jump\t// out\n        /* \"contracts/10_structs.sol\":202:295  function setMovie() public {... */\n    tag_14:\n        /* \"contracts/10_structs.sol\":247:288  Movie(\"Blade Runner\", \"Louie Foronda\", 1) */\n      mload(0x40)\n      dup1\n      0x60\n      add\n      0x40\n      mstore\n      dup1\n      mload(0x40)\n      dup1\n      0x40\n      add\n      0x40\n      mstore\n      dup1\n      0x0c\n      dup2\n      mstore\n      0x20\n      add\n      0x426c6164652052756e6e65720000000000000000000000000000000000000000\n      dup2\n      mstore\n      pop\n      dup2\n      mstore\n      0x20\n      add\n      mload(0x40)\n      dup1\n      0x40\n      add\n      0x40\n      mstore\n      dup1\n      0x0d\n      dup2\n      mstore\n      0x20\n      add\n      0x4c6f75696520466f726f6e646100000000000000000000000000000000000000\n      dup2\n      mstore\n      pop\n      dup2\n      mstore\n      0x20\n      add\n        /* \"contracts/10_structs.sol\":286:287  1 */\n      0x01\n        /* \"contracts/10_structs.sol\":247:288  Movie(\"Blade Runner\", \"Louie Foronda\", 1) */\n      dup2\n      mstore\n      pop\n        /* \"contracts/10_structs.sol\":239:244  movie */\n      0x00\n        /* \"contracts/10_structs.sol\":239:288  movie = Movie(\"Blade Runner\", \"Louie Foronda\", 1) */\n      dup1\n      dup3\n      add\n      mload\n      dup2\n      0x00\n      add\n      swap1\n      dup1\n      mload\n      swap1\n      0x20\n      add\n      swap1\n      tag_42\n      swap3\n      swap2\n      swap1\n      tag_43\n      jump\t// in\n    tag_42:\n      pop\n      0x20\n      dup3\n      add\n      mload\n      dup2\n      0x01\n      add\n      swap1\n      dup1\n      mload\n      swap1\n      0x20\n      add\n      swap1\n      tag_44\n      swap3\n      swap2\n      swap1\n      tag_43\n      jump\t// in\n    tag_44:\n      pop\n      0x40\n      dup3\n      add\n      mload\n      dup2\n      0x02\n      add\n      sstore\n      swap1\n      pop\n      pop\n        /* \"contracts/10_structs.sol\":202:295  function setMovie() public {... */\n      jump\t// out\n    tag_16:\n      mload(0x40)\n      dup1\n      0x60\n      add\n      0x40\n      mstore\n      dup1\n      0x60\n      dup2\n      mstore\n      0x20\n      add\n      0x60\n      dup2\n      mstore\n      0x20\n      add\n      0x00\n      dup2\n      mstore\n      pop\n      swap1\n      jump\t// out\n    tag_43:\n      dup3\n      dup1\n      sload\n      tag_45\n      swap1\n      tag_19\n      jump\t// in\n    tag_45:\n      swap1\n      0x00\n      mstore\n      keccak256(0x00, 0x20)\n      swap1\n      0x1f\n      add\n      0x20\n      swap1\n      div\n      dup2\n      add\n      swap3\n      dup3\n      tag_47\n      jumpi\n      0x00\n      dup6\n      sstore\n      jump(tag_46)\n    tag_47:\n      dup3\n      0x1f\n      lt\n      tag_48\n      jumpi\n      dup1\n      mload\n      not(0xff)\n      and\n      dup4\n      dup1\n      add\n      or\n      dup6\n      sstore\n      jump(tag_46)\n    tag_48:\n      dup3\n      dup1\n      add\n      0x01\n      add\n      dup6\n      sstore\n      dup3\n      iszero\n      tag_46\n      jumpi\n      swap2\n      dup3\n      add\n    tag_49:\n      dup3\n      dup2\n      gt\n      iszero\n      tag_50\n      jumpi\n      dup3\n      mload\n      dup3\n      sstore\n      swap2\n      0x20\n      add\n      swap2\n      swap1\n      0x01\n      add\n      swap1\n      jump(tag_49)\n    tag_50:\n    tag_46:\n      pop\n      swap1\n      pop\n      tag_51\n      swap2\n      swap1\n      tag_52\n      jump\t// in\n    tag_51:\n      pop\n      swap1\n      jump\t// out\n    tag_52:\n    tag_53:\n      dup1\n      dup3\n      gt\n      iszero\n      tag_54\n      jumpi\n      0x00\n      dup2\n      0x00\n      swap1\n      sstore\n      pop\n      0x01\n      add\n      jump(tag_53)\n    tag_54:\n      pop\n      swap1\n      jump\t// out\n        /* \"#utility.yul\":7:351   */\n    tag_56:\n        /* \"#utility.yul\":85:88   */\n      0x00\n        /* \"#utility.yul\":113:152   */\n      tag_58\n        /* \"#utility.yul\":146:151   */\n      dup3\n        /* \"#utility.yul\":113:152   */\n      tag_59\n      jump\t// in\n    tag_58:\n        /* \"#utility.yul\":168:229   */\n      tag_60\n        /* \"#utility.yul\":222:228   */\n      dup2\n        /* \"#utility.yul\":217:220   */\n      dup6\n        /* \"#utility.yul\":168:229   */\n      tag_61\n      jump\t// in\n    tag_60:\n        /* \"#utility.yul\":161:229   */\n      swap4\n      pop\n        /* \"#utility.yul\":238:290   */\n      tag_62\n        /* \"#utility.yul\":283:289   */\n      dup2\n        /* \"#utility.yul\":278:281   */\n      dup6\n        /* \"#utility.yul\":271:275   */\n      0x20\n        /* \"#utility.yul\":264:269   */\n      dup7\n        /* \"#utility.yul\":260:276   */\n      add\n        /* \"#utility.yul\":238:290   */\n      tag_63\n      jump\t// in\n    tag_62:\n        /* \"#utility.yul\":315:344   */\n      tag_64\n        /* \"#utility.yul\":337:343   */\n      dup2\n        /* \"#utility.yul\":315:344   */\n      tag_65\n      jump\t// in\n    tag_64:\n        /* \"#utility.yul\":310:313   */\n      dup5\n        /* \"#utility.yul\":306:345   */\n      add\n        /* \"#utility.yul\":299:345   */\n      swap2\n      pop\n        /* \"#utility.yul\":89:351   */\n      pop\n        /* \"#utility.yul\":7:351   */\n      swap3\n      swap2\n      pop\n      pop\n      jump\t// out\n        /* \"#utility.yul\":417:1261   */\n    tag_66:\n        /* \"#utility.yul\":526:529   */\n      0x00\n        /* \"#utility.yul\":562:566   */\n      0x60\n        /* \"#utility.yul\":557:560   */\n      dup4\n        /* \"#utility.yul\":553:567   */\n      add\n        /* \"#utility.yul\":650:654   */\n      0x00\n        /* \"#utility.yul\":643:648   */\n      dup4\n        /* \"#utility.yul\":639:655   */\n      add\n        /* \"#utility.yul\":633:656   */\n      mload\n        /* \"#utility.yul\":703:706   */\n      dup5\n        /* \"#utility.yul\":697:701   */\n      dup3\n        /* \"#utility.yul\":693:707   */\n      sub\n        /* \"#utility.yul\":686:690   */\n      0x00\n        /* \"#utility.yul\":681:684   */\n      dup7\n        /* \"#utility.yul\":677:691   */\n      add\n        /* \"#utility.yul\":670:708   */\n      mstore\n        /* \"#utility.yul\":729:802   */\n      tag_68\n        /* \"#utility.yul\":797:801   */\n      dup3\n        /* \"#utility.yul\":783:795   */\n      dup3\n        /* \"#utility.yul\":729:802   */\n      tag_56\n      jump\t// in\n    tag_68:\n        /* \"#utility.yul\":721:802   */\n      swap2\n      pop\n        /* \"#utility.yul\":577:813   */\n      pop\n        /* \"#utility.yul\":899:903   */\n      0x20\n        /* \"#utility.yul\":892:897   */\n      dup4\n        /* \"#utility.yul\":888:904   */\n      add\n        /* \"#utility.yul\":882:905   */\n      mload\n        /* \"#utility.yul\":952:955   */\n      dup5\n        /* \"#utility.yul\":946:950   */\n      dup3\n        /* \"#utility.yul\":942:956   */\n      sub\n        /* \"#utility.yul\":935:939   */\n      0x20\n        /* \"#utility.yul\":930:933   */\n      dup7\n        /* \"#utility.yul\":926:940   */\n      add\n        /* \"#utility.yul\":919:957   */\n      mstore\n        /* \"#utility.yul\":978:1051   */\n      tag_69\n        /* \"#utility.yul\":1046:1050   */\n      dup3\n        /* \"#utility.yul\":1032:1044   */\n      dup3\n        /* \"#utility.yul\":978:1051   */\n      tag_56\n      jump\t// in\n    tag_69:\n        /* \"#utility.yul\":970:1051   */\n      swap2\n      pop\n        /* \"#utility.yul\":823:1062   */\n      pop\n        /* \"#utility.yul\":1142:1146   */\n      0x40\n        /* \"#utility.yul\":1135:1140   */\n      dup4\n        /* \"#utility.yul\":1131:1147   */\n      add\n        /* \"#utility.yul\":1125:1148   */\n      mload\n        /* \"#utility.yul\":1161:1224   */\n      tag_70\n        /* \"#utility.yul\":1218:1222   */\n      0x40\n        /* \"#utility.yul\":1213:1216   */\n      dup7\n        /* \"#utility.yul\":1209:1223   */\n      add\n        /* \"#utility.yul\":1195:1207   */\n      dup3\n        /* \"#utility.yul\":1161:1224   */\n      tag_71\n      jump\t// in\n    tag_70:\n        /* \"#utility.yul\":1072:1234   */\n      pop\n        /* \"#utility.yul\":1251:1255   */\n      dup1\n        /* \"#utility.yul\":1244:1255   */\n      swap2\n      pop\n        /* \"#utility.yul\":531:1261   */\n      pop\n        /* \"#utility.yul\":417:1261   */\n      swap3\n      swap2\n      pop\n      pop\n      jump\t// out\n        /* \"#utility.yul\":1267:1375   */\n    tag_71:\n        /* \"#utility.yul\":1344:1368   */\n      tag_73\n        /* \"#utility.yul\":1362:1367   */\n      dup2\n        /* \"#utility.yul\":1344:1368   */\n      tag_74\n      jump\t// in\n    tag_73:\n        /* \"#utility.yul\":1339:1342   */\n      dup3\n        /* \"#utility.yul\":1332:1369   */\n      mstore\n        /* \"#utility.yul\":1267:1375   */\n      pop\n      pop\n      jump\t// out\n        /* \"#utility.yul\":1381:1734   */\n    tag_9:\n        /* \"#utility.yul\":1514:1518   */\n      0x00\n        /* \"#utility.yul\":1552:1554   */\n      0x20\n        /* \"#utility.yul\":1541:1550   */\n      dup3\n        /* \"#utility.yul\":1537:1555   */\n      add\n        /* \"#utility.yul\":1529:1555   */\n      swap1\n      pop\n        /* \"#utility.yul\":1601:1610   */\n      dup2\n        /* \"#utility.yul\":1595:1599   */\n      dup2\n        /* \"#utility.yul\":1591:1611   */\n      sub\n        /* \"#utility.yul\":1587:1588   */\n      0x00\n        /* \"#utility.yul\":1576:1585   */\n      dup4\n        /* \"#utility.yul\":1572:1589   */\n      add\n        /* \"#utility.yul\":1565:1612   */\n      mstore\n        /* \"#utility.yul\":1629:1727   */\n      tag_76\n        /* \"#utility.yul\":1722:1726   */\n      dup2\n        /* \"#utility.yul\":1713:1719   */\n      dup5\n        /* \"#utility.yul\":1629:1727   */\n      tag_66\n      jump\t// in\n    tag_76:\n        /* \"#utility.yul\":1621:1727   */\n      swap1\n      pop\n        /* \"#utility.yul\":1381:1734   */\n      swap3\n      swap2\n      pop\n      pop\n      jump\t// out\n        /* \"#utility.yul\":1740:1839   */\n    tag_59:\n        /* \"#utility.yul\":1792:1798   */\n      0x00\n        /* \"#utility.yul\":1826:1831   */\n      dup2\n        /* \"#utility.yul\":1820:1832   */\n      mload\n        /* \"#utility.yul\":1810:1832   */\n      swap1\n      pop\n        /* \"#utility.yul\":1740:1839   */\n      swap2\n      swap1\n      pop\n      jump\t// out\n        /* \"#utility.yul\":1845:2004   */\n    tag_61:\n        /* \"#utility.yul\":1919:1930   */\n      0x00\n        /* \"#utility.yul\":1953:1959   */\n      dup3\n        /* \"#utility.yul\":1948:1951   */\n      dup3\n        /* \"#utility.yul\":1941:1960   */\n      mstore\n        /* \"#utility.yul\":1993:1997   */\n      0x20\n        /* \"#utility.yul\":1988:1991   */\n      dup3\n        /* \"#utility.yul\":1984:1998   */\n      add\n        /* \"#utility.yul\":1969:1998   */\n      swap1\n      pop\n        /* \"#utility.yul\":1845:2004   */\n      swap3\n      swap2\n      pop\n      pop\n      jump\t// out\n        /* \"#utility.yul\":2010:2087   */\n    tag_74:\n        /* \"#utility.yul\":2047:2054   */\n      0x00\n        /* \"#utility.yul\":2076:2081   */\n      dup2\n        /* \"#utility.yul\":2065:2081   */\n      swap1\n      pop\n        /* \"#utility.yul\":2010:2087   */\n      swap2\n      swap1\n      pop\n      jump\t// out\n        /* \"#utility.yul\":2093:2400   */\n    tag_63:\n        /* \"#utility.yul\":2161:2162   */\n      0x00\n        /* \"#utility.yul\":2171:2284   */\n    tag_81:\n        /* \"#utility.yul\":2185:2191   */\n      dup4\n        /* \"#utility.yul\":2182:2183   */\n      dup2\n        /* \"#utility.yul\":2179:2192   */\n      lt\n        /* \"#utility.yul\":2171:2284   */\n      iszero\n      tag_83\n      jumpi\n        /* \"#utility.yul\":2270:2271   */\n      dup1\n        /* \"#utility.yul\":2265:2268   */\n      dup3\n        /* \"#utility.yul\":2261:2272   */\n      add\n        /* \"#utility.yul\":2255:2273   */\n      mload\n        /* \"#utility.yul\":2251:2252   */\n      dup2\n        /* \"#utility.yul\":2246:2249   */\n      dup5\n        /* \"#utility.yul\":2242:2253   */\n      add\n        /* \"#utility.yul\":2235:2274   */\n      mstore\n        /* \"#utility.yul\":2207:2209   */\n      0x20\n        /* \"#utility.yul\":2204:2205   */\n      dup2\n        /* \"#utility.yul\":2200:2210   */\n      add\n        /* \"#utility.yul\":2195:2210   */\n      swap1\n      pop\n        /* \"#utility.yul\":2171:2284   */\n      jump(tag_81)\n    tag_83:\n        /* \"#utility.yul\":2302:2308   */\n      dup4\n        /* \"#utility.yul\":2299:2300   */\n      dup2\n        /* \"#utility.yul\":2296:2309   */\n      gt\n        /* \"#utility.yul\":2293:2394   */\n      iszero\n      tag_84\n      jumpi\n        /* \"#utility.yul\":2382:2383   */\n      0x00\n        /* \"#utility.yul\":2373:2379   */\n      dup5\n        /* \"#utility.yul\":2368:2371   */\n      dup5\n        /* \"#utility.yul\":2364:2380   */\n      add\n        /* \"#utility.yul\":2357:2384   */\n      mstore\n        /* \"#utility.yul\":2293:2394   */\n    tag_84:\n        /* \"#utility.yul\":2142:2400   */\n      pop\n        /* \"#utility.yul\":2093:2400   */\n      pop\n      pop\n      pop\n      jump\t// out\n        /* \"#utility.yul\":2406:2726   */\n    tag_19:\n        /* \"#utility.yul\":2450:2456   */\n      0x00\n        /* \"#utility.yul\":2487:2488   */\n      0x02\n        /* \"#utility.yul\":2481:2485   */\n      dup3\n        /* \"#utility.yul\":2477:2489   */\n      div\n        /* \"#utility.yul\":2467:2489   */\n      swap1\n      pop\n        /* \"#utility.yul\":2534:2535   */\n      0x01\n        /* \"#utility.yul\":2528:2532   */\n      dup3\n        /* \"#utility.yul\":2524:2536   */\n      and\n        /* \"#utility.yul\":2555:2573   */\n      dup1\n        /* \"#utility.yul\":2545:2626   */\n      tag_86\n      jumpi\n        /* \"#utility.yul\":2611:2615   */\n      0x7f\n        /* \"#utility.yul\":2603:2609   */\n      dup3\n        /* \"#utility.yul\":2599:2616   */\n      and\n        /* \"#utility.yul\":2589:2616   */\n      swap2\n      pop\n        /* \"#utility.yul\":2545:2626   */\n    tag_86:\n        /* \"#utility.yul\":2673:2675   */\n      0x20\n        /* \"#utility.yul\":2665:2671   */\n      dup3\n        /* \"#utility.yul\":2662:2676   */\n      lt\n        /* \"#utility.yul\":2642:2660   */\n      dup2\n        /* \"#utility.yul\":2639:2677   */\n      eq\n        /* \"#utility.yul\":2636:2720   */\n      iszero\n      tag_87\n      jumpi\n        /* \"#utility.yul\":2692:2710   */\n      tag_88\n      tag_89\n      jump\t// in\n    tag_88:\n        /* \"#utility.yul\":2636:2720   */\n    tag_87:\n        /* \"#utility.yul\":2457:2726   */\n      pop\n        /* \"#utility.yul\":2406:2726   */\n      swap2\n      swap1\n      pop\n      jump\t// out\n        /* \"#utility.yul\":2732:2912   */\n    tag_89:\n        /* \"#utility.yul\":2780:2857   */\n      0x4e487b7100000000000000000000000000000000000000000000000000000000\n        /* \"#utility.yul\":2777:2778   */\n      0x00\n        /* \"#utility.yul\":2770:2858   */\n      mstore\n        /* \"#utility.yul\":2877:2881   */\n      0x22\n        /* \"#utility.yul\":2874:2875   */\n      0x04\n        /* \"#utility.yul\":2867:2882   */\n      mstore\n        /* \"#utility.yul\":2901:2905   */\n      0x24\n        /* \"#utility.yul\":2898:2899   */\n      0x00\n        /* \"#utility.yul\":2891:2906   */\n      revert\n        /* \"#utility.yul\":2918:3020   */\n    tag_65:\n        /* \"#utility.yul\":2959:2965   */\n      0x00\n        /* \"#utility.yul\":3010:3012   */\n      0x1f\n        /* \"#utility.yul\":3006:3013   */\n      not\n        /* \"#utility.yul\":3001:3003   */\n      0x1f\n        /* \"#utility.yul\":2994:2999   */\n      dup4\n        /* \"#utility.yul\":2990:3004   */\n      add\n        /* \"#utility.yul\":2986:3014   */\n      and\n        /* \"#utility.yul\":2976:3014   */\n      swap1\n      pop\n        /* \"#utility.yul\":2918:3020   */\n      swap2\n      swap1\n      pop\n      jump\t// out\n\n    auxdata: 0xa2646970667358221220d3e463a70dfeb90738b4dbc7bf85de46aabfc42c6fe601ae8a765c4903a0462264736f6c63430008070033\n}\n",
				"bytecode": {
					"linkReferences": {},
					"object": "608060405234801561001057600080fd5b50610672806100206000396000f3fe608060405234801561001057600080fd5b50600436106100415760003560e01c806336dcabe0146100465780637b5f4eef14610064578063f6bb33b114610082575b600080fd5b61004e61008c565b60405161005b919061054f565b60405180910390f35b61006c6101d4565b604051610079919061054f565b60405180910390f35b61008a61031c565b005b6100946103ec565b60006040518060600160405290816000820180546100b1906105ca565b80601f01602080910402602001604051908101604052809291908181526020018280546100dd906105ca565b801561012a5780601f106100ff5761010080835404028352916020019161012a565b820191906000526020600020905b81548152906001019060200180831161010d57829003601f168201915b50505050508152602001600182018054610143906105ca565b80601f016020809104026020016040519081016040528092919081815260200182805461016f906105ca565b80156101bc5780601f10610191576101008083540402835291602001916101bc565b820191906000526020600020905b81548152906001019060200180831161019f57829003601f168201915b50505050508152602001600282015481525050905090565b6101dc6103ec565b60006040518060600160405290816000820180546101f9906105ca565b80601f0160208091040260200160405190810160405280929190818152602001828054610225906105ca565b80156102725780601f1061024757610100808354040283529160200191610272565b820191906000526020600020905b81548152906001019060200180831161025557829003601f168201915b5050505050815260200160018201805461028b906105ca565b80601f01602080910402602001604051908101604052809291908181526020018280546102b7906105ca565b80156103045780601f106102d957610100808354040283529160200191610304565b820191906000526020600020905b8154815290600101906020018083116102e757829003601f168201915b50505050508152602001600282015481525050905090565b60405180606001604052806040518060400160405280600c81526020017f426c6164652052756e6e6572000000000000000000000000000000000000000081525081526020016040518060400160405280600d81526020017f4c6f75696520466f726f6e646100000000000000000000000000000000000000815250815260200160018152506000808201518160000190805190602001906103bf92919061040d565b5060208201518160010190805190602001906103dc92919061040d565b5060408201518160020155905050565b60405180606001604052806060815260200160608152602001600081525090565b828054610419906105ca565b90600052602060002090601f01602090048101928261043b5760008555610482565b82601f1061045457805160ff1916838001178555610482565b82800160010185558215610482579182015b82811115610481578251825591602001919060010190610466565b5b50905061048f9190610493565b5090565b5b808211156104ac576000816000905550600101610494565b5090565b60006104bb82610571565b6104c5818561057c565b93506104d5818560208601610597565b6104de8161062b565b840191505092915050565b6000606083016000830151848203600086015261050682826104b0565b9150506020830151848203602086015261052082826104b0565b91505060408301516105356040860182610540565b508091505092915050565b6105498161058d565b82525050565b6000602082019050818103600083015261056981846104e9565b905092915050565b600081519050919050565b600082825260208201905092915050565b6000819050919050565b60005b838110156105b557808201518184015260208101905061059a565b838111156105c4576000848401525b50505050565b600060028204905060018216806105e257607f821691505b602082108114156105f6576105f56105fc565b5b50919050565b7f4e487b7100000000000000000000000000000000000000000000000000000000600052602260045260246000fd5b6000601f19601f830116905091905056fea2646970667358221220d3e463a70dfeb90738b4dbc7bf85de46aabfc42c6fe601ae8a765c4903a0462264736f6c63430008070033",
					"opcodes": "PUSH1 0x80 PUSH1 0x40 MSTORE CALLVALUE DUP1 ISZERO PUSH2 0x10 JUMPI PUSH1 0x0 DUP1 REVERT JUMPDEST POP PUSH2 0x672 DUP1 PUSH2 0x20 PUSH1 0x0 CODECOPY PUSH1 0x0 RETURN INVALID PUSH1 0x80 PUSH1 0x40 MSTORE CALLVALUE DUP1 ISZERO PUSH2 0x10 JUMPI PUSH1 0x0 DUP1 REVERT JUMPDEST POP PUSH1 0x4 CALLDATASIZE LT PUSH2 0x41 JUMPI PUSH1 0x0 CALLDATALOAD PUSH1 0xE0 SHR DUP1 PUSH4 0x36DCABE0 EQ PUSH2 0x46 JUMPI DUP1 PUSH4 0x7B5F4EEF EQ PUSH2 0x64 JUMPI DUP1 PUSH4 0xF6BB33B1 EQ PUSH2 0x82 JUMPI JUMPDEST PUSH1 0x0 DUP1 REVERT JUMPDEST PUSH2 0x4E PUSH2 0x8C JUMP JUMPDEST PUSH1 0x40 MLOAD PUSH2 0x5B SWAP2 SWAP1 PUSH2 0x54F JUMP JUMPDEST PUSH1 0x40 MLOAD DUP1 SWAP2 SUB SWAP1 RETURN JUMPDEST PUSH2 0x6C PUSH2 0x1D4 JUMP JUMPDEST PUSH1 0x40 MLOAD PUSH2 0x79 SWAP2 SWAP1 PUSH2 0x54F JUMP JUMPDEST PUSH1 0x40 MLOAD DUP1 SWAP2 SUB SWAP1 RETURN JUMPDEST PUSH2 0x8A PUSH2 0x31C JUMP JUMPDEST STOP JUMPDEST PUSH2 0x94 PUSH2 0x3EC JUMP JUMPDEST PUSH1 0x0 PUSH1 0x40 MLOAD DUP1 PUSH1 0x60 ADD PUSH1 0x40 MSTORE SWAP1 DUP2 PUSH1 0x0 DUP3 ADD DUP1 SLOAD PUSH2 0xB1 SWAP1 PUSH2 0x5CA JUMP JUMPDEST DUP1 PUSH1 0x1F ADD PUSH1 0x20 DUP1 SWAP2 DIV MUL PUSH1 0x20 ADD PUSH1 0x40 MLOAD SWAP1 DUP2 ADD PUSH1 0x40 MSTORE DUP1 SWAP3 SWAP2 SWAP1 DUP2 DUP2 MSTORE PUSH1 0x20 ADD DUP3 DUP1 SLOAD PUSH2 0xDD SWAP1 PUSH2 0x5CA JUMP JUMPDEST DUP1 ISZERO PUSH2 0x12A JUMPI DUP1 PUSH1 0x1F LT PUSH2 0xFF JUMPI PUSH2 0x100 DUP1 DUP4 SLOAD DIV MUL DUP4 MSTORE SWAP2 PUSH1 0x20 ADD SWAP2 PUSH2 0x12A JUMP JUMPDEST DUP3 ADD SWAP2 SWAP1 PUSH1 0x0 MSTORE PUSH1 0x20 PUSH1 0x0 KECCAK256 SWAP1 JUMPDEST DUP2 SLOAD DUP2 MSTORE SWAP1 PUSH1 0x1 ADD SWAP1 PUSH1 0x20 ADD DUP1 DUP4 GT PUSH2 0x10D JUMPI DUP3 SWAP1 SUB PUSH1 0x1F AND DUP3 ADD SWAP2 JUMPDEST POP POP POP POP POP DUP2 MSTORE PUSH1 0x20 ADD PUSH1 0x1 DUP3 ADD DUP1 SLOAD PUSH2 0x143 SWAP1 PUSH2 0x5CA JUMP JUMPDEST DUP1 PUSH1 0x1F ADD PUSH1 0x20 DUP1 SWAP2 DIV MUL PUSH1 0x20 ADD PUSH1 0x40 MLOAD SWAP1 DUP2 ADD PUSH1 0x40 MSTORE DUP1 SWAP3 SWAP2 SWAP1 DUP2 DUP2 MSTORE PUSH1 0x20 ADD DUP3 DUP1 SLOAD PUSH2 0x16F SWAP1 PUSH2 0x5CA JUMP JUMPDEST DUP1 ISZERO PUSH2 0x1BC JUMPI DUP1 PUSH1 0x1F LT PUSH2 0x191 JUMPI PUSH2 0x100 DUP1 DUP4 SLOAD DIV MUL DUP4 MSTORE SWAP2 PUSH1 0x20 ADD SWAP2 PUSH2 0x1BC JUMP JUMPDEST DUP3 ADD SWAP2 SWAP1 PUSH1 0x0 MSTORE PUSH1 0x20 PUSH1 0x0 KECCAK256 SWAP1 JUMPDEST DUP2 SLOAD DUP2 MSTORE SWAP1 PUSH1 0x1 ADD SWAP1 PUSH1 0x20 ADD DUP1 DUP4 GT PUSH2 0x19F JUMPI DUP3 SWAP1 SUB PUSH1 0x1F AND DUP3 ADD SWAP2 JUMPDEST POP POP POP POP POP DUP2 MSTORE PUSH1 0x20 ADD PUSH1 0x2 DUP3 ADD SLOAD DUP2 MSTORE POP POP SWAP1 POP SWAP1 JUMP JUMPDEST PUSH2 0x1DC PUSH2 0x3EC JUMP JUMPDEST PUSH1 0x0 PUSH1 0x40 MLOAD DUP1 PUSH1 0x60 ADD PUSH1 0x40 MSTORE SWAP1 DUP2 PUSH1 0x0 DUP3 ADD DUP1 SLOAD PUSH2 0x1F9 SWAP1 PUSH2 0x5CA JUMP JUMPDEST DUP1 PUSH1 0x1F ADD PUSH1 0x20 DUP1 SWAP2 DIV MUL PUSH1 0x20 ADD PUSH1 0x40 MLOAD SWAP1 DUP2 ADD PUSH1 0x40 MSTORE DUP1 SWAP3 SWAP2 SWAP1 DUP2 DUP2 MSTORE PUSH1 0x20 ADD DUP3 DUP1 SLOAD PUSH2 0x225 SWAP1 PUSH2 0x5CA JUMP JUMPDEST DUP1 ISZERO PUSH2 0x272 JUMPI DUP1 PUSH1 0x1F LT PUSH2 0x247 JUMPI PUSH2 0x100 DUP1 DUP4 SLOAD DIV MUL DUP4 MSTORE SWAP2 PUSH1 0x20 ADD SWAP2 PUSH2 0x272 JUMP JUMPDEST DUP3 ADD SWAP2 SWAP1 PUSH1 0x0 MSTORE PUSH1 0x20 PUSH1 0x0 KECCAK256 SWAP1 JUMPDEST DUP2 SLOAD DUP2 MSTORE SWAP1 PUSH1 0x1 ADD SWAP1 PUSH1 0x20 ADD DUP1 DUP4 GT PUSH2 0x255 JUMPI DUP3 SWAP1 SUB PUSH1 0x1F AND DUP3 ADD SWAP2 JUMPDEST POP POP POP POP POP DUP2 MSTORE PUSH1 0x20 ADD PUSH1 0x1 DUP3 ADD DUP1 SLOAD PUSH2 0x28B SWAP1 PUSH2 0x5CA JUMP JUMPDEST DUP1 PUSH1 0x1F ADD PUSH1 0x20 DUP1 SWAP2 DIV MUL PUSH1 0x20 ADD PUSH1 0x40 MLOAD SWAP1 DUP2 ADD PUSH1 0x40 MSTORE DUP1 SWAP3 SWAP2 SWAP1 DUP2 DUP2 MSTORE PUSH1 0x20 ADD DUP3 DUP1 SLOAD PUSH2 0x2B7 SWAP1 PUSH2 0x5CA JUMP JUMPDEST DUP1 ISZERO PUSH2 0x304 JUMPI DUP1 PUSH1 0x1F LT PUSH2 0x2D9 JUMPI PUSH2 0x100 DUP1 DUP4 SLOAD DIV MUL DUP4 MSTORE SWAP2 PUSH1 0x20 ADD SWAP2 PUSH2 0x304 JUMP JUMPDEST DUP3 ADD SWAP2 SWAP1 PUSH1 0x0 MSTORE PUSH1 0x20 PUSH1 0x0 KECCAK256 SWAP1 JUMPDEST DUP2 SLOAD DUP2 MSTORE SWAP1 PUSH1 0x1 ADD SWAP1 PUSH1 0x20 ADD DUP1 DUP4 GT PUSH2 0x2E7 JUMPI DUP3 SWAP1 SUB PUSH1 0x1F AND DUP3 ADD SWAP2 JUMPDEST POP POP POP POP POP DUP2 MSTORE PUSH1 0x20 ADD PUSH1 0x2 DUP3 ADD SLOAD DUP2 MSTORE POP POP SWAP1 POP SWAP1 JUMP JUMPDEST PUSH1 0x40 MLOAD DUP1 PUSH1 0x60 ADD PUSH1 0x40 MSTORE DUP1 PUSH1 0x40 MLOAD DUP1 PUSH1 0x40 ADD PUSH1 0x40 MSTORE DUP1 PUSH1 0xC DUP2 MSTORE PUSH1 0x20 ADD PUSH32 0x426C6164652052756E6E65720000000000000000000000000000000000000000 DUP2 MSTORE POP DUP2 MSTORE PUSH1 0x20 ADD PUSH1 0x40 MLOAD DUP1 PUSH1 0x40 ADD PUSH1 0x40 MSTORE DUP1 PUSH1 0xD DUP2 MSTORE PUSH1 0x20 ADD PUSH32 0x4C6F75696520466F726F6E646100000000000000000000000000000000000000 DUP2 MSTORE POP DUP2 MSTORE PUSH1 0x20 ADD PUSH1 0x1 DUP2 MSTORE POP PUSH1 0x0 DUP1 DUP3 ADD MLOAD DUP2 PUSH1 0x0 ADD SWAP1 DUP1 MLOAD SWAP1 PUSH1 0x20 ADD SWAP1 PUSH2 0x3BF SWAP3 SWAP2 SWAP1 PUSH2 0x40D JUMP JUMPDEST POP PUSH1 0x20 DUP3 ADD MLOAD DUP2 PUSH1 0x1 ADD SWAP1 DUP1 MLOAD SWAP1 PUSH1 0x20 ADD SWAP1 PUSH2 0x3DC SWAP3 SWAP2 SWAP1 PUSH2 0x40D JUMP JUMPDEST POP PUSH1 0x40 DUP3 ADD MLOAD DUP2 PUSH1 0x2 ADD SSTORE SWAP1 POP POP JUMP JUMPDEST PUSH1 0x40 MLOAD DUP1 PUSH1 0x60 ADD PUSH1 0x40 MSTORE DUP1 PUSH1 0x60 DUP2 MSTORE PUSH1 0x20 ADD PUSH1 0x60 DUP2 MSTORE PUSH1 0x20 ADD PUSH1 0x0 DUP2 MSTORE POP SWAP1 JUMP JUMPDEST DUP3 DUP1 SLOAD PUSH2 0x419 SWAP1 PUSH2 0x5CA JUMP JUMPDEST SWAP1 PUSH1 0x0 MSTORE PUSH1 0x20 PUSH1 0x0 KECCAK256 SWAP1 PUSH1 0x1F ADD PUSH1 0x20 SWAP1 DIV DUP2 ADD SWAP3 DUP3 PUSH2 0x43B JUMPI PUSH1 0x0 DUP6 SSTORE PUSH2 0x482 JUMP JUMPDEST DUP3 PUSH1 0x1F LT PUSH2 0x454 JUMPI DUP1 MLOAD PUSH1 0xFF NOT AND DUP4 DUP1 ADD OR DUP6 SSTORE PUSH2 0x482 JUMP JUMPDEST DUP3 DUP1 ADD PUSH1 0x1 ADD DUP6 SSTORE DUP3 ISZERO PUSH2 0x482 JUMPI SWAP2 DUP3 ADD JUMPDEST DUP3 DUP2 GT ISZERO PUSH2 0x481 JUMPI DUP3 MLOAD DUP3 SSTORE SWAP2 PUSH1 0x20 ADD SWAP2 SWAP1 PUSH1 0x1 ADD SWAP1 PUSH2 0x466 JUMP JUMPDEST JUMPDEST POP SWAP1 POP PUSH2 0x48F SWAP2 SWAP1 PUSH2 0x493 JUMP JUMPDEST POP SWAP1 JUMP JUMPDEST JUMPDEST DUP1 DUP3 GT ISZERO PUSH2 0x4AC JUMPI PUSH1 0x0 DUP2 PUSH1 0x0 SWAP1 SSTORE POP PUSH1 0x1 ADD PUSH2 0x494 JUMP JUMPDEST POP SWAP1 JUMP JUMPDEST PUSH1 0x0 PUSH2 0x4BB DUP3 PUSH2 0x571 JUMP JUMPDEST PUSH2 0x4C5 DUP2 DUP6 PUSH2 0x57C JUMP JUMPDEST SWAP4 POP PUSH2 0x4D5 DUP2 DUP6 PUSH1 0x20 DUP7 ADD PUSH2 0x597 JUMP JUMPDEST PUSH2 0x4DE DUP2 PUSH2 0x62B JUMP JUMPDEST DUP5 ADD SWAP2 POP POP SWAP3 SWAP2 POP POP JUMP JUMPDEST PUSH1 0x0 PUSH1 0x60 DUP4 ADD PUSH1 0x0 DUP4 ADD MLOAD DUP5 DUP3 SUB PUSH1 0x0 DUP7 ADD MSTORE PUSH2 0x506 DUP3 DUP3 PUSH2 0x4B0 JUMP JUMPDEST SWAP2 POP POP PUSH1 0x20 DUP4 ADD MLOAD DUP5 DUP3 SUB PUSH1 0x20 DUP7 ADD MSTORE PUSH2 0x520 DUP3 DUP3 PUSH2 0x4B0 JUMP JUMPDEST SWAP2 POP POP PUSH1 0x40 DUP4 ADD MLOAD PUSH2 0x535 PUSH1 0x40 DUP7 ADD DUP3 PUSH2 0x540 JUMP JUMPDEST POP DUP1 SWAP2 POP POP SWAP3 SWAP2 POP POP JUMP JUMPDEST PUSH2 0x549 DUP2 PUSH2 0x58D JUMP JUMPDEST DUP3 MSTORE POP POP JUMP JUMPDEST PUSH1 0x0 PUSH1 0x20 DUP3 ADD SWAP1 POP DUP2 DUP2 SUB PUSH1 0x0 DUP4 ADD MSTORE PUSH2 0x569 DUP2 DUP5 PUSH2 0x4E9 JUMP JUMPDEST SWAP1 POP SWAP3 SWAP2 POP POP JUMP JUMPDEST PUSH1 0x0 DUP2 MLOAD SWAP1 POP SWAP2 SWAP1 POP JUMP JUMPDEST PUSH1 0x0 DUP3 DUP3 MSTORE PUSH1 0x20 DUP3 ADD SWAP1 POP SWAP3 SWAP2 POP POP JUMP JUMPDEST PUSH1 0x0 DUP2 SWAP1 POP SWAP2 SWAP1 POP JUMP JUMPDEST PUSH1 0x0 JUMPDEST DUP4 DUP2 LT ISZERO PUSH2 0x5B5 JUMPI DUP1 DUP3 ADD MLOAD DUP2 DUP5 ADD MSTORE PUSH1 0x20 DUP2 ADD SWAP1 POP PUSH2 0x59A JUMP JUMPDEST DUP4 DUP2 GT ISZERO PUSH2 0x5C4 JUMPI PUSH1 0x0 DUP5 DUP5 ADD MSTORE JUMPDEST POP POP POP POP JUMP JUMPDEST PUSH1 0x0 PUSH1 0x2 DUP3 DIV SWAP1 POP PUSH1 0x1 DUP3 AND DUP1 PUSH2 0x5E2 JUMPI PUSH1 0x7F DUP3 AND SWAP2 POP JUMPDEST PUSH1 0x20 DUP3 LT DUP2 EQ ISZERO PUSH2 0x5F6 JUMPI PUSH2 0x5F5 PUSH2 0x5FC JUMP JUMPDEST JUMPDEST POP SWAP2 SWAP1 POP JUMP JUMPDEST PUSH32 0x4E487B7100000000000000000000000000000000000000000000000000000000 PUSH1 0x0 MSTORE PUSH1 0x22 PUSH1 0x4 MSTORE PUSH1 0x24 PUSH1 0x0 REVERT JUMPDEST PUSH1 0x0 PUSH1 0x1F NOT PUSH1 0x1F DUP4 ADD AND SWAP1 POP SWAP2 SWAP1 POP JUMP INVALID LOG2 PUSH5 0x6970667358 0x22 SLT KECCAK256 0xD3 0xE4 PUSH4 0xA70DFEB9 SMOD CODESIZE 0xB4 0xDB 0xC7 0xBF DUP6 0xDE CHAINID 0xAA 0xBF 0xC4 0x2C PUSH16 0xE601AE8A765C4903A0462264736F6C63 NUMBER STOP ADDMOD SMOD STOP CALLER "
				},
				"gasEstimates": {
					"creation": {
						"codeDepositCost": "330000",
						"executionCost": "368",
						"totalCost": "330368"
					},
					"external": {
						"getMovie()": "infinite",
						"getMovieId()": "infinite",
						"setMovie()": "infinite"
					}
				},
				"methodIdentifiers": {
					"getMovie()": "7b5f4eef",
					"getMovieId()": "36dcabe0",
					"setMovie()": "f6bb33b1"
				}
			},
			"storageLayout": {
				"storage": [
					{
						"astId": 11,
						"contract": "contracts/10_structs.sol:LearnStruct",
						"label": "movie",
						"offset": 0,
						"slot": "0",
						"type": "t_struct(Movie)8_storage"
					}
				],
				"types": {
					"t_string_storage": {
						"encoding": "bytes",
						"label": "string",
						"numberOfBytes": "32"
					},
					"t_struct(Movie)8_storage": {
						"encoding": "inplace",
						"label": "struct LearnStruct.Movie",
						"members": [
							{
								"astId": 3,
								"contract": "contracts/10_structs.sol:LearnStruct",
								"label": "title",
								"offset": 0,
								"slot": "0",
								"type": "t_string_storage"
							},
							{
								"astId": 5,
								"contract": "contracts/10_structs.sol:LearnStruct",
								"label": "director",
								"offset": 0,
								"slot": "1",
								"type": "t_string_storage"
							},
							{
								"astId": 7,
								"contract": "contracts/10_structs.sol:LearnStruct",
								"label": "id",
								"offset": 0,
								"slot": "2",
								"type": "t_uint256"
							}
						],
						"numberOfBytes": "96"
					},
					"t_uint256": {
						"encoding": "inplace",
						"label": "uint256",
						"numberOfBytes": "32"
					}
				}
			},
			"userdoc": {
				"kind": "user",
				"methods": {},
				"version": 1
			}
		}
	}
}