{
	"contracts/9_enums.sol": {
		"LearnEnum": {
			"abi": [
				{
					"inputs": [],
					"name": "getSize",
					"outputs": [
						{
							"internalType": "enum LearnEnum.Sizes",
							"name": "",
							"type": "uint8"
						}
					],
					"stateMutability": "view",
					"type": "function"
				},
				{
					"inputs": [
						{
							"internalType": "enum LearnEnum.Sizes",
							"name": "_size",
							"type": "uint8"
						}
					],
					"name": "setSize",
					"outputs": [],
					"stateMutability": "nonpayable",
					"type": "function"
				}
			],
			"devdoc": {
				"kind": "dev",
				"methods": {},
				"version": 1
			},
			"evm": {
				"assembly": "    /* \"contracts/9_enums.sol\":67:297  contract LearnEnum {... */\n  mstore(0x40, 0x80)\n  callvalue\n  dup1\n  iszero\n  tag_1\n  jumpi\n  0x00\n  dup1\n  revert\ntag_1:\n  pop\n  dataSize(sub_0)\n  dup1\n  dataOffset(sub_0)\n  0x00\n  codecopy\n  0x00\n  return\nstop\n\nsub_0: assembly {\n        /* \"contracts/9_enums.sol\":67:297  contract LearnEnum {... */\n      mstore(0x40, 0x80)\n      callvalue\n      dup1\n      iszero\n      tag_1\n      jumpi\n      0x00\n      dup1\n      revert\n    tag_1:\n      pop\n      jumpi(tag_2, lt(calldatasize, 0x04))\n      shr(0xe0, calldataload(0x00))\n      dup1\n      0x99400a5a\n      eq\n      tag_3\n      jumpi\n      dup1\n      0xde8fa431\n      eq\n      tag_4\n      jumpi\n    tag_2:\n      0x00\n      dup1\n      revert\n        /* \"contracts/9_enums.sol\":148:214  function setSize(Sizes _size) public {... */\n    tag_3:\n      tag_5\n      0x04\n      dup1\n      calldatasize\n      sub\n      dup2\n      add\n      swap1\n      tag_6\n      swap2\n      swap1\n      tag_7\n      jump\t// in\n    tag_6:\n      tag_8\n      jump\t// in\n    tag_5:\n      stop\n        /* \"contracts/9_enums.sol\":220:295  function getSize() public view returns (Sizes) {... */\n    tag_4:\n      tag_9\n      tag_10\n      jump\t// in\n    tag_9:\n      mload(0x40)\n      tag_11\n      swap2\n      swap1\n      tag_12\n      jump\t// in\n    tag_11:\n      mload(0x40)\n      dup1\n      swap2\n      sub\n      swap1\n      return\n        /* \"contracts/9_enums.sol\":148:214  function setSize(Sizes _size) public {... */\n    tag_8:\n        /* \"contracts/9_enums.sol\":202:207  _size */\n      dup1\n        /* \"contracts/9_enums.sol\":195:199  size */\n      0x00\n      dup1\n        /* \"contracts/9_enums.sol\":195:207  size = _size */\n      0x0100\n      exp\n      dup2\n      sload\n      dup2\n      0xff\n      mul\n      not\n      and\n      swap1\n      dup4\n      0x02\n      dup2\n      gt\n      iszero\n      tag_14\n      jumpi\n      tag_15\n      tag_16\n      jump\t// in\n    tag_15:\n    tag_14:\n      mul\n      or\n      swap1\n      sstore\n      pop\n        /* \"contracts/9_enums.sol\":148:214  function setSize(Sizes _size) public {... */\n      pop\n      jump\t// out\n        /* \"contracts/9_enums.sol\":220:295  function getSize() public view returns (Sizes) {... */\n    tag_10:\n        /* \"contracts/9_enums.sol\":260:265  Sizes */\n      0x00\n        /* \"contracts/9_enums.sol\":284:288  size */\n      dup1\n      0x00\n      swap1\n      sload\n      swap1\n      0x0100\n      exp\n      swap1\n      div\n      0xff\n      and\n        /* \"contracts/9_enums.sol\":277:288  return size */\n      swap1\n      pop\n        /* \"contracts/9_enums.sol\":220:295  function getSize() public view returns (Sizes) {... */\n      swap1\n      jump\t// out\n        /* \"#utility.yul\":7:160   */\n    tag_19:\n        /* \"#utility.yul\":60:65   */\n      0x00\n        /* \"#utility.yul\":98:104   */\n      dup2\n        /* \"#utility.yul\":85:105   */\n      calldataload\n        /* \"#utility.yul\":76:105   */\n      swap1\n      pop\n        /* \"#utility.yul\":114:154   */\n      tag_21\n        /* \"#utility.yul\":148:153   */\n      dup2\n        /* \"#utility.yul\":114:154   */\n      tag_22\n      jump\t// in\n    tag_21:\n        /* \"#utility.yul\":7:160   */\n      swap3\n      swap2\n      pop\n      pop\n      jump\t// out\n        /* \"#utility.yul\":166:509   */\n    tag_7:\n        /* \"#utility.yul\":232:238   */\n      0x00\n        /* \"#utility.yul\":281:283   */\n      0x20\n        /* \"#utility.yul\":269:278   */\n      dup3\n        /* \"#utility.yul\":260:267   */\n      dup5\n        /* \"#utility.yul\":256:279   */\n      sub\n        /* \"#utility.yul\":252:284   */\n      slt\n        /* \"#utility.yul\":249:368   */\n      iszero\n      tag_24\n      jumpi\n        /* \"#utility.yul\":287:366   */\n      tag_25\n      tag_26\n      jump\t// in\n    tag_25:\n        /* \"#utility.yul\":249:368   */\n    tag_24:\n        /* \"#utility.yul\":407:408   */\n      0x00\n        /* \"#utility.yul\":432:492   */\n      tag_27\n        /* \"#utility.yul\":484:491   */\n      dup5\n        /* \"#utility.yul\":475:481   */\n      dup3\n        /* \"#utility.yul\":464:473   */\n      dup6\n        /* \"#utility.yul\":460:482   */\n      add\n        /* \"#utility.yul\":432:492   */\n      tag_19\n      jump\t// in\n    tag_27:\n        /* \"#utility.yul\":422:492   */\n      swap2\n      pop\n        /* \"#utility.yul\":378:502   */\n      pop\n        /* \"#utility.yul\":166:509   */\n      swap3\n      swap2\n      pop\n      pop\n      jump\t// out\n        /* \"#utility.yul\":515:656   */\n    tag_28:\n        /* \"#utility.yul\":607:649   */\n      tag_30\n        /* \"#utility.yul\":643:648   */\n      dup2\n        /* \"#utility.yul\":607:649   */\n      tag_31\n      jump\t// in\n    tag_30:\n        /* \"#utility.yul\":602:605   */\n      dup3\n        /* \"#utility.yul\":595:650   */\n      mstore\n        /* \"#utility.yul\":515:656   */\n      pop\n      pop\n      jump\t// out\n        /* \"#utility.yul\":662:894   */\n    tag_12:\n        /* \"#utility.yul\":760:764   */\n      0x00\n        /* \"#utility.yul\":798:800   */\n      0x20\n        /* \"#utility.yul\":787:796   */\n      dup3\n        /* \"#utility.yul\":783:801   */\n      add\n        /* \"#utility.yul\":775:801   */\n      swap1\n      pop\n        /* \"#utility.yul\":811:887   */\n      tag_33\n        /* \"#utility.yul\":884:885   */\n      0x00\n        /* \"#utility.yul\":873:882   */\n      dup4\n        /* \"#utility.yul\":869:886   */\n      add\n        /* \"#utility.yul\":860:866   */\n      dup5\n        /* \"#utility.yul\":811:887   */\n      tag_28\n      jump\t// in\n    tag_33:\n        /* \"#utility.yul\":662:894   */\n      swap3\n      swap2\n      pop\n      pop\n      jump\t// out\n        /* \"#utility.yul\":981:1106   */\n    tag_36:\n        /* \"#utility.yul\":1025:1032   */\n      0x00\n        /* \"#utility.yul\":1054:1059   */\n      dup2\n        /* \"#utility.yul\":1043:1059   */\n      swap1\n      pop\n        /* \"#utility.yul\":1060:1100   */\n      tag_38\n        /* \"#utility.yul\":1094:1099   */\n      dup3\n        /* \"#utility.yul\":1060:1100   */\n      tag_39\n      jump\t// in\n    tag_38:\n        /* \"#utility.yul\":981:1106   */\n      swap2\n      swap1\n      pop\n      jump\t// out\n        /* \"#utility.yul\":1112:1237   */\n    tag_31:\n        /* \"#utility.yul\":1167:1176   */\n      0x00\n        /* \"#utility.yul\":1200:1231   */\n      tag_41\n        /* \"#utility.yul\":1225:1230   */\n      dup3\n        /* \"#utility.yul\":1200:1231   */\n      tag_36\n      jump\t// in\n    tag_41:\n        /* \"#utility.yul\":1187:1231   */\n      swap1\n      pop\n        /* \"#utility.yul\":1112:1237   */\n      swap2\n      swap1\n      pop\n      jump\t// out\n        /* \"#utility.yul\":1243:1423   */\n    tag_16:\n        /* \"#utility.yul\":1291:1368   */\n      0x4e487b7100000000000000000000000000000000000000000000000000000000\n        /* \"#utility.yul\":1288:1289   */\n      0x00\n        /* \"#utility.yul\":1281:1369   */\n      mstore\n        /* \"#utility.yul\":1388:1392   */\n      0x21\n        /* \"#utility.yul\":1385:1386   */\n      0x04\n        /* \"#utility.yul\":1378:1393   */\n      mstore\n        /* \"#utility.yul\":1412:1416   */\n      0x24\n        /* \"#utility.yul\":1409:1410   */\n      0x00\n        /* \"#utility.yul\":1402:1417   */\n      revert\n        /* \"#utility.yul\":1552:1669   */\n    tag_26:\n        /* \"#utility.yul\":1661:1662   */\n      0x00\n        /* \"#utility.yul\":1658:1659   */\n      dup1\n        /* \"#utility.yul\":1651:1663   */\n      revert\n        /* \"#utility.yul\":1675:1787   */\n    tag_39:\n        /* \"#utility.yul\":1755:1756   */\n      0x03\n        /* \"#utility.yul\":1748:1753   */\n      dup2\n        /* \"#utility.yul\":1745:1757   */\n      lt\n        /* \"#utility.yul\":1735:1781   */\n      tag_47\n      jumpi\n        /* \"#utility.yul\":1761:1779   */\n      tag_48\n      tag_16\n      jump\t// in\n    tag_48:\n        /* \"#utility.yul\":1735:1781   */\n    tag_47:\n        /* \"#utility.yul\":1675:1787   */\n      pop\n      jump\t// out\n        /* \"#utility.yul\":1793:1899   */\n    tag_22:\n        /* \"#utility.yul\":1873:1874   */\n      0x03\n        /* \"#utility.yul\":1866:1871   */\n      dup2\n        /* \"#utility.yul\":1863:1875   */\n      lt\n        /* \"#utility.yul\":1853:1893   */\n      tag_50\n      jumpi\n        /* \"#utility.yul\":1889:1890   */\n      0x00\n        /* \"#utility.yul\":1886:1887   */\n      dup1\n        /* \"#utility.yul\":1879:1891   */\n      revert\n        /* \"#utility.yul\":1853:1893   */\n    tag_50:\n        /* \"#utility.yul\":1793:1899   */\n      pop\n      jump\t// out\n\n    auxdata: 0xa2646970667358221220afd9c91bc4f24f10045e15c468053cd96b6122493a8181710f914bda1b62b92b64736f6c63430008070033\n}\n",
				"bytecode": {
					"linkReferences": {},
					"object": "608060405234801561001057600080fd5b506101d6806100206000396000f3fe608060405234801561001057600080fd5b50600436106100365760003560e01c806399400a5a1461003b578063de8fa43114610057575b600080fd5b610055600480360381019061005091906100cc565b610075565b005b61005f6100a1565b60405161006c9190610108565b60405180910390f35b806000806101000a81548160ff0219169083600281111561009957610098610148565b5b021790555050565b60008060009054906101000a900460ff16905090565b6000813590506100c681610190565b92915050565b6000602082840312156100e2576100e1610177565b5b60006100f0848285016100b7565b91505092915050565b61010281610136565b82525050565b600060208201905061011d60008301846100f9565b92915050565b60008190506101318261017c565b919050565b600061014182610123565b9050919050565b7f4e487b7100000000000000000000000000000000000000000000000000000000600052602160045260246000fd5b600080fd5b6003811061018d5761018c610148565b5b50565b6003811061019d57600080fd5b5056fea2646970667358221220afd9c91bc4f24f10045e15c468053cd96b6122493a8181710f914bda1b62b92b64736f6c63430008070033",
					"opcodes": "PUSH1 0x80 PUSH1 0x40 MSTORE CALLVALUE DUP1 ISZERO PUSH2 0x10 JUMPI PUSH1 0x0 DUP1 REVERT JUMPDEST POP PUSH2 0x1D6 DUP1 PUSH2 0x20 PUSH1 0x0 CODECOPY PUSH1 0x0 RETURN INVALID PUSH1 0x80 PUSH1 0x40 MSTORE CALLVALUE DUP1 ISZERO PUSH2 0x10 JUMPI PUSH1 0x0 DUP1 REVERT JUMPDEST POP PUSH1 0x4 CALLDATASIZE LT PUSH2 0x36 JUMPI PUSH1 0x0 CALLDATALOAD PUSH1 0xE0 SHR DUP1 PUSH4 0x99400A5A EQ PUSH2 0x3B JUMPI DUP1 PUSH4 0xDE8FA431 EQ PUSH2 0x57 JUMPI JUMPDEST PUSH1 0x0 DUP1 REVERT JUMPDEST PUSH2 0x55 PUSH1 0x4 DUP1 CALLDATASIZE SUB DUP2 ADD SWAP1 PUSH2 0x50 SWAP2 SWAP1 PUSH2 0xCC JUMP JUMPDEST PUSH2 0x75 JUMP JUMPDEST STOP JUMPDEST PUSH2 0x5F PUSH2 0xA1 JUMP JUMPDEST PUSH1 0x40 MLOAD PUSH2 0x6C SWAP2 SWAP1 PUSH2 0x108 JUMP JUMPDEST PUSH1 0x40 MLOAD DUP1 SWAP2 SUB SWAP1 RETURN JUMPDEST DUP1 PUSH1 0x0 DUP1 PUSH2 0x100 EXP DUP2 SLOAD DUP2 PUSH1 0xFF MUL NOT AND SWAP1 DUP4 PUSH1 0x2 DUP2 GT ISZERO PUSH2 0x99 JUMPI PUSH2 0x98 PUSH2 0x148 JUMP JUMPDEST JUMPDEST MUL OR SWAP1 SSTORE POP POP JUMP JUMPDEST PUSH1 0x0 DUP1 PUSH1 0x0 SWAP1 SLOAD SWAP1 PUSH2 0x100 EXP SWAP1 DIV PUSH1 0xFF AND SWAP1 POP SWAP1 JUMP JUMPDEST PUSH1 0x0 DUP2 CALLDATALOAD SWAP1 POP PUSH2 0xC6 DUP2 PUSH2 0x190 JUMP JUMPDEST SWAP3 SWAP2 POP POP JUMP JUMPDEST PUSH1 0x0 PUSH1 0x20 DUP3 DUP5 SUB SLT ISZERO PUSH2 0xE2 JUMPI PUSH2 0xE1 PUSH2 0x177 JUMP JUMPDEST JUMPDEST PUSH1 0x0 PUSH2 0xF0 DUP5 DUP3 DUP6 ADD PUSH2 0xB7 JUMP JUMPDEST SWAP2 POP POP SWAP3 SWAP2 POP POP JUMP JUMPDEST PUSH2 0x102 DUP2 PUSH2 0x136 JUMP JUMPDEST DUP3 MSTORE POP POP JUMP JUMPDEST PUSH1 0x0 PUSH1 0x20 DUP3 ADD SWAP1 POP PUSH2 0x11D PUSH1 0x0 DUP4 ADD DUP5 PUSH2 0xF9 JUMP JUMPDEST SWAP3 SWAP2 POP POP JUMP JUMPDEST PUSH1 0x0 DUP2 SWAP1 POP PUSH2 0x131 DUP3 PUSH2 0x17C JUMP JUMPDEST SWAP2 SWAP1 POP JUMP JUMPDEST PUSH1 0x0 PUSH2 0x141 DUP3 PUSH2 0x123 JUMP JUMPDEST SWAP1 POP SWAP2 SWAP1 POP JUMP JUMPDEST PUSH32 0x4E487B7100000000000000000000000000000000000000000000000000000000 PUSH1 0x0 MSTORE PUSH1 0x21 PUSH1 0x4 MSTORE PUSH1 0x24 PUSH1 0x0 REVERT JUMPDEST PUSH1 0x0 DUP1 REVERT JUMPDEST PUSH1 0x3 DUP2 LT PUSH2 0x18D JUMPI PUSH2 0x18C PUSH2 0x148 JUMP JUMPDEST JUMPDEST POP JUMP JUMPDEST PUSH1 0x3 DUP2 LT PUSH2 0x19D JUMPI PUSH1 0x0 DUP1 REVERT JUMPDEST POP JUMP INVALID LOG2 PUSH5 0x6970667358 0x22 SLT KECCAK256 0xAF 0xD9 0xC9 SHL 0xC4 CALLCODE 0x4F LT DIV 0x5E ISZERO 0xC4 PUSH9 0x53CD96B6122493A81 DUP2 PUSH18 0xF914BDA1B62B92B64736F6C634300080700 CALLER "
				},
				"gasEstimates": {
					"creation": {
						"codeDepositCost": "94000",
						"executionCost": "141",
						"totalCost": "94141"
					},
					"external": {
						"getSize()": "2568",
						"setSize(uint8)": "24628"
					}
				},
				"methodIdentifiers": {
					"getSize()": "de8fa431",
					"setSize(uint8)": "99400a5a"
				}
			},
			"storageLayout": {
				"storage": [
					{
						"astId": 8,
						"contract": "contracts/9_enums.sol:LearnEnum",
						"label": "size",
						"offset": 0,
						"slot": "0",
						"type": "t_enum(Sizes)5"
					}
				],
				"types": {
					"t_enum(Sizes)5": {
						"encoding": "inplace",
						"label": "enum LearnEnum.Sizes",
						"numberOfBytes": "1"
					}
				}
			},
			"userdoc": {
				"kind": "user",
				"methods": {},
				"version": 1
			}
		}
	}
}