{
	"contracts/11_mapping.sol": {
		"LearnMapping": {
			"abi": [
				{
					"inputs": [
						{
							"internalType": "uint256",
							"name": "_id",
							"type": "uint256"
						},
						{
							"internalType": "string",
							"name": "_title",
							"type": "string"
						},
						{
							"internalType": "string",
							"name": "_director",
							"type": "string"
						}
					],
					"name": "addMovie",
					"outputs": [],
					"stateMutability": "nonpayable",
					"type": "function"
				},
				{
					"inputs": [
						{
							"internalType": "uint256",
							"name": "_id",
							"type": "uint256"
						}
					],
					"name": "getMovie",
					"outputs": [
						{
							"components": [
								{
									"internalType": "string",
									"name": "title",
									"type": "string"
								},
								{
									"internalType": "string",
									"name": "director",
									"type": "string"
								}
							],
							"internalType": "struct LearnMapping.Movie",
							"name": "",
							"type": "tuple"
						}
					],
					"stateMutability": "view",
					"type": "function"
				},
				{
					"inputs": [
						{
							"internalType": "uint256",
							"name": "",
							"type": "uint256"
						}
					],
					"name": "movies",
					"outputs": [
						{
							"internalType": "string",
							"name": "title",
							"type": "string"
						},
						{
							"internalType": "string",
							"name": "director",
							"type": "string"
						}
					],
					"stateMutability": "view",
					"type": "function"
				}
			],
			"devdoc": {
				"kind": "dev",
				"methods": {},
				"version": 1
			},
			"evm": {
				"assembly": "    /* \"contracts/11_mapping.sol\":67:432  contract LearnMapping {... */\n  mstore(0x40, 0x80)\n  callvalue\n  dup1\n  iszero\n  tag_1\n  jumpi\n  0x00\n  dup1\n  revert\ntag_1:\n  pop\n  dataSize(sub_0)\n  dup1\n  dataOffset(sub_0)\n  0x00\n  codecopy\n  0x00\n  return\nstop\n\nsub_0: assembly {\n        /* \"contracts/11_mapping.sol\":67:432  contract LearnMapping {... */\n      mstore(0x40, 0x80)\n      callvalue\n      dup1\n      iszero\n      tag_1\n      jumpi\n      0x00\n      dup1\n      revert\n    tag_1:\n      pop\n      jumpi(tag_2, lt(calldatasize, 0x04))\n      shr(0xe0, calldataload(0x00))\n      dup1\n      0x179ffe76\n      eq\n      tag_3\n      jumpi\n      dup1\n      0x404ebf6c\n      eq\n      tag_4\n      jumpi\n      dup1\n      0xf40f48c9\n      eq\n      tag_5\n      jumpi\n    tag_2:\n      0x00\n      dup1\n      revert\n        /* \"contracts/11_mapping.sol\":359:430  function getMovie(uint _id) public view returns (Movie memory) {... */\n    tag_3:\n      tag_6\n      0x04\n      dup1\n      calldatasize\n      sub\n      dup2\n      add\n      swap1\n      tag_7\n      swap2\n      swap1\n      tag_8\n      jump\t// in\n    tag_7:\n      tag_9\n      jump\t// in\n    tag_6:\n      mload(0x40)\n      tag_10\n      swap2\n      swap1\n      tag_11\n      jump\t// in\n    tag_10:\n      mload(0x40)\n      dup1\n      swap2\n      sub\n      swap1\n      return\n        /* \"contracts/11_mapping.sol\":169:205  mapping(uint => Movie) public movies */\n    tag_4:\n      tag_12\n      0x04\n      dup1\n      calldatasize\n      sub\n      dup2\n      add\n      swap1\n      tag_13\n      swap2\n      swap1\n      tag_8\n      jump\t// in\n    tag_13:\n      tag_14\n      jump\t// in\n    tag_12:\n      mload(0x40)\n      tag_15\n      swap3\n      swap2\n      swap1\n      tag_16\n      jump\t// in\n    tag_15:\n      mload(0x40)\n      dup1\n      swap2\n      sub\n      swap1\n      return\n        /* \"contracts/11_mapping.sol\":212:353  function addMovie(uint _id, string calldata _title, string calldata _director) public {... */\n    tag_5:\n      tag_17\n      0x04\n      dup1\n      calldatasize\n      sub\n      dup2\n      add\n      swap1\n      tag_18\n      swap2\n      swap1\n      tag_19\n      jump\t// in\n    tag_18:\n      tag_20\n      jump\t// in\n    tag_17:\n      stop\n        /* \"contracts/11_mapping.sol\":359:430  function getMovie(uint _id) public view returns (Movie memory) {... */\n    tag_9:\n        /* \"contracts/11_mapping.sol\":408:420  Movie memory */\n      tag_21\n      tag_22\n      jump\t// in\n    tag_21:\n        /* \"contracts/11_mapping.sol\":359:430  function getMovie(uint _id) public view returns (Movie memory) {... */\n      swap2\n      swap1\n      pop\n      jump\t// out\n        /* \"contracts/11_mapping.sol\":169:205  mapping(uint => Movie) public movies */\n    tag_14:\n      mstore(0x20, 0x00)\n      dup1\n      0x00\n      mstore\n      keccak256(0x00, 0x40)\n      0x00\n      swap2\n      pop\n      swap1\n      pop\n      dup1\n      0x00\n      add\n      dup1\n      sload\n      tag_24\n      swap1\n      tag_25\n      jump\t// in\n    tag_24:\n      dup1\n      0x1f\n      add\n      0x20\n      dup1\n      swap2\n      div\n      mul\n      0x20\n      add\n      mload(0x40)\n      swap1\n      dup2\n      add\n      0x40\n      mstore\n      dup1\n      swap3\n      swap2\n      swap1\n      dup2\n      dup2\n      mstore\n      0x20\n      add\n      dup3\n      dup1\n      sload\n      tag_26\n      swap1\n      tag_25\n      jump\t// in\n    tag_26:\n      dup1\n      iszero\n      tag_27\n      jumpi\n      dup1\n      0x1f\n      lt\n      tag_28\n      jumpi\n      0x0100\n      dup1\n      dup4\n      sload\n      div\n      mul\n      dup4\n      mstore\n      swap2\n      0x20\n      add\n      swap2\n      jump(tag_27)\n    tag_28:\n      dup3\n      add\n      swap2\n      swap1\n      0x00\n      mstore\n      keccak256(0x00, 0x20)\n      swap1\n    tag_29:\n      dup2\n      sload\n      dup2\n      mstore\n      swap1\n      0x01\n      add\n      swap1\n      0x20\n      add\n      dup1\n      dup4\n      gt\n      tag_29\n      jumpi\n      dup3\n      swap1\n      sub\n      0x1f\n      and\n      dup3\n      add\n      swap2\n    tag_27:\n      pop\n      pop\n      pop\n      pop\n      pop\n      swap1\n      dup1\n      0x01\n      add\n      dup1\n      sload\n      tag_30\n      swap1\n      tag_25\n      jump\t// in\n    tag_30:\n      dup1\n      0x1f\n      add\n      0x20\n      dup1\n      swap2\n      div\n      mul\n      0x20\n      add\n      mload(0x40)\n      swap1\n      dup2\n      add\n      0x40\n      mstore\n      dup1\n      swap3\n      swap2\n      swap1\n      dup2\n      dup2\n      mstore\n      0x20\n      add\n      dup3\n      dup1\n      sload\n      tag_31\n      swap1\n      tag_25\n      jump\t// in\n    tag_31:\n      dup1\n      iszero\n      tag_32\n      jumpi\n      dup1\n      0x1f\n      lt\n      tag_33\n      jumpi\n      0x0100\n      dup1\n      dup4\n      sload\n      div\n      mul\n      dup4\n      mstore\n      swap2\n      0x20\n      add\n      swap2\n      jump(tag_32)\n    tag_33:\n      dup3\n      add\n      swap2\n      swap1\n      0x00\n      mstore\n      keccak256(0x00, 0x20)\n      swap1\n    tag_34:\n      dup2\n      sload\n      dup2\n      mstore\n      swap1\n      0x01\n      add\n      swap1\n      0x20\n      add\n      dup1\n      dup4\n      gt\n      tag_34\n      jumpi\n      dup3\n      swap1\n      sub\n      0x1f\n      and\n      dup3\n      add\n      swap2\n    tag_32:\n      pop\n      pop\n      pop\n      pop\n      pop\n      swap1\n      pop\n      dup3\n      jump\t// out\n        /* \"contracts/11_mapping.sol\":212:353  function addMovie(uint _id, string calldata _title, string calldata _director) public {... */\n    tag_20:\n        /* \"contracts/11_mapping.sol\":322:346  Movie(_title, _director) */\n      mload(0x40)\n      dup1\n      0x40\n      add\n      0x40\n      mstore\n      dup1\n        /* \"contracts/11_mapping.sol\":328:334  _title */\n      dup6\n      dup6\n        /* \"contracts/11_mapping.sol\":322:346  Movie(_title, _director) */\n      dup1\n      dup1\n      0x1f\n      add\n      0x20\n      dup1\n      swap2\n      div\n      mul\n      0x20\n      add\n      mload(0x40)\n      swap1\n      dup2\n      add\n      0x40\n      mstore\n      dup1\n      swap4\n      swap3\n      swap2\n      swap1\n      dup2\n      dup2\n      mstore\n      0x20\n      add\n      dup4\n      dup4\n      dup1\n      dup3\n      dup5\n      calldatacopy\n      0x00\n      dup2\n      dup5\n      add\n      mstore\n      not(0x1f)\n      0x1f\n      dup3\n      add\n      and\n      swap1\n      pop\n      dup1\n      dup4\n      add\n      swap3\n      pop\n      pop\n      pop\n      pop\n      pop\n      pop\n      pop\n      dup2\n      mstore\n      0x20\n      add\n        /* \"contracts/11_mapping.sol\":336:345  _director */\n      dup4\n      dup4\n        /* \"contracts/11_mapping.sol\":322:346  Movie(_title, _director) */\n      dup1\n      dup1\n      0x1f\n      add\n      0x20\n      dup1\n      swap2\n      div\n      mul\n      0x20\n      add\n      mload(0x40)\n      swap1\n      dup2\n      add\n      0x40\n      mstore\n      dup1\n      swap4\n      swap3\n      swap2\n      swap1\n      dup2\n      dup2\n      mstore\n      0x20\n      add\n      dup4\n      dup4\n      dup1\n      dup3\n      dup5\n      calldatacopy\n      0x00\n      dup2\n      dup5\n      add\n      mstore\n      not(0x1f)\n      0x1f\n      dup3\n      add\n      and\n      swap1\n      pop\n      dup1\n      dup4\n      add\n      swap3\n      pop\n      pop\n      pop\n      pop\n      pop\n      pop\n      pop\n      dup2\n      mstore\n      pop\n        /* \"contracts/11_mapping.sol\":308:314  movies */\n      0x00\n        /* \"contracts/11_mapping.sol\":308:319  movies[_id] */\n      dup1\n        /* \"contracts/11_mapping.sol\":315:318  _id */\n      dup8\n        /* \"contracts/11_mapping.sol\":308:319  movies[_id] */\n      dup2\n      mstore\n      0x20\n      add\n      swap1\n      dup2\n      mstore\n      0x20\n      add\n      0x00\n      keccak256\n        /* \"contracts/11_mapping.sol\":308:346  movies[_id] = Movie(_title, _director) */\n      0x00\n      dup3\n      add\n      mload\n      dup2\n      0x00\n      add\n      swap1\n      dup1\n      mload\n      swap1\n      0x20\n      add\n      swap1\n      tag_36\n      swap3\n      swap2\n      swap1\n      tag_37\n      jump\t// in\n    tag_36:\n      pop\n      0x20\n      dup3\n      add\n      mload\n      dup2\n      0x01\n      add\n      swap1\n      dup1\n      mload\n      swap1\n      0x20\n      add\n      swap1\n      tag_38\n      swap3\n      swap2\n      swap1\n      tag_37\n      jump\t// in\n    tag_38:\n      pop\n      swap1\n      pop\n      pop\n        /* \"contracts/11_mapping.sol\":212:353  function addMovie(uint _id, string calldata _title, string calldata _director) public {... */\n      pop\n      pop\n      pop\n      pop\n      pop\n      jump\t// out\n    tag_22:\n      mload(0x40)\n      dup1\n      0x40\n      add\n      0x40\n      mstore\n      dup1\n      0x60\n      dup2\n      mstore\n      0x20\n      add\n      0x60\n      dup2\n      mstore\n      pop\n      swap1\n      jump\t// out\n    tag_37:\n      dup3\n      dup1\n      sload\n      tag_39\n      swap1\n      tag_25\n      jump\t// in\n    tag_39:\n      swap1\n      0x00\n      mstore\n      keccak256(0x00, 0x20)\n      swap1\n      0x1f\n      add\n      0x20\n      swap1\n      div\n      dup2\n      add\n      swap3\n      dup3\n      tag_41\n      jumpi\n      0x00\n      dup6\n      sstore\n      jump(tag_40)\n    tag_41:\n      dup3\n      0x1f\n      lt\n      tag_42\n      jumpi\n      dup1\n      mload\n      not(0xff)\n      and\n      dup4\n      dup1\n      add\n      or\n      dup6\n      sstore\n      jump(tag_40)\n    tag_42:\n      dup3\n      dup1\n      add\n      0x01\n      add\n      dup6\n      sstore\n      dup3\n      iszero\n      tag_40\n      jumpi\n      swap2\n      dup3\n      add\n    tag_43:\n      dup3\n      dup2\n      gt\n      iszero\n      tag_44\n      jumpi\n      dup3\n      mload\n      dup3\n      sstore\n      swap2\n      0x20\n      add\n      swap2\n      swap1\n      0x01\n      add\n      swap1\n      jump(tag_43)\n    tag_44:\n    tag_40:\n      pop\n      swap1\n      pop\n      tag_45\n      swap2\n      swap1\n      tag_46\n      jump\t// in\n    tag_45:\n      pop\n      swap1\n      jump\t// out\n    tag_46:\n    tag_47:\n      dup1\n      dup3\n      gt\n      iszero\n      tag_48\n      jumpi\n      0x00\n      dup2\n      0x00\n      swap1\n      sstore\n      pop\n      0x01\n      add\n      jump(tag_47)\n    tag_48:\n      pop\n      swap1\n      jump\t// out\n        /* \"#utility.yul\":21:574   */\n    tag_50:\n        /* \"#utility.yul\":79:87   */\n      0x00\n        /* \"#utility.yul\":89:95   */\n      dup1\n        /* \"#utility.yul\":139:142   */\n      dup4\n        /* \"#utility.yul\":132:136   */\n      0x1f\n        /* \"#utility.yul\":124:130   */\n      dup5\n        /* \"#utility.yul\":120:137   */\n      add\n        /* \"#utility.yul\":116:143   */\n      slt\n        /* \"#utility.yul\":106:228   */\n      tag_52\n      jumpi\n        /* \"#utility.yul\":147:226   */\n      tag_53\n      tag_54\n      jump\t// in\n    tag_53:\n        /* \"#utility.yul\":106:228   */\n    tag_52:\n        /* \"#utility.yul\":260:266   */\n      dup3\n        /* \"#utility.yul\":247:267   */\n      calldataload\n        /* \"#utility.yul\":237:267   */\n      swap1\n      pop\n        /* \"#utility.yul\":290:308   */\n      0xffffffffffffffff\n        /* \"#utility.yul\":282:288   */\n      dup2\n        /* \"#utility.yul\":279:309   */\n      gt\n        /* \"#utility.yul\":276:393   */\n      iszero\n      tag_55\n      jumpi\n        /* \"#utility.yul\":312:391   */\n      tag_56\n      tag_57\n      jump\t// in\n    tag_56:\n        /* \"#utility.yul\":276:393   */\n    tag_55:\n        /* \"#utility.yul\":426:430   */\n      0x20\n        /* \"#utility.yul\":418:424   */\n      dup4\n        /* \"#utility.yul\":414:431   */\n      add\n        /* \"#utility.yul\":402:431   */\n      swap2\n      pop\n        /* \"#utility.yul\":480:483   */\n      dup4\n        /* \"#utility.yul\":472:476   */\n      0x01\n        /* \"#utility.yul\":464:470   */\n      dup3\n        /* \"#utility.yul\":460:477   */\n      mul\n        /* \"#utility.yul\":450:458   */\n      dup4\n        /* \"#utility.yul\":446:478   */\n      add\n        /* \"#utility.yul\":443:484   */\n      gt\n        /* \"#utility.yul\":440:568   */\n      iszero\n      tag_58\n      jumpi\n        /* \"#utility.yul\":487:566   */\n      tag_59\n      tag_60\n      jump\t// in\n    tag_59:\n        /* \"#utility.yul\":440:568   */\n    tag_58:\n        /* \"#utility.yul\":21:574   */\n      swap3\n      pop\n      swap3\n      swap1\n      pop\n      jump\t// out\n        /* \"#utility.yul\":580:719   */\n    tag_61:\n        /* \"#utility.yul\":626:631   */\n      0x00\n        /* \"#utility.yul\":664:670   */\n      dup2\n        /* \"#utility.yul\":651:671   */\n      calldataload\n        /* \"#utility.yul\":642:671   */\n      swap1\n      pop\n        /* \"#utility.yul\":680:713   */\n      tag_63\n        /* \"#utility.yul\":707:712   */\n      dup2\n        /* \"#utility.yul\":680:713   */\n      tag_64\n      jump\t// in\n    tag_63:\n        /* \"#utility.yul\":580:719   */\n      swap3\n      swap2\n      pop\n      pop\n      jump\t// out\n        /* \"#utility.yul\":725:1054   */\n    tag_8:\n        /* \"#utility.yul\":784:790   */\n      0x00\n        /* \"#utility.yul\":833:835   */\n      0x20\n        /* \"#utility.yul\":821:830   */\n      dup3\n        /* \"#utility.yul\":812:819   */\n      dup5\n        /* \"#utility.yul\":808:831   */\n      sub\n        /* \"#utility.yul\":804:836   */\n      slt\n        /* \"#utility.yul\":801:920   */\n      iszero\n      tag_66\n      jumpi\n        /* \"#utility.yul\":839:918   */\n      tag_67\n      tag_68\n      jump\t// in\n    tag_67:\n        /* \"#utility.yul\":801:920   */\n    tag_66:\n        /* \"#utility.yul\":959:960   */\n      0x00\n        /* \"#utility.yul\":984:1037   */\n      tag_69\n        /* \"#utility.yul\":1029:1036   */\n      dup5\n        /* \"#utility.yul\":1020:1026   */\n      dup3\n        /* \"#utility.yul\":1009:1018   */\n      dup6\n        /* \"#utility.yul\":1005:1027   */\n      add\n        /* \"#utility.yul\":984:1037   */\n      tag_61\n      jump\t// in\n    tag_69:\n        /* \"#utility.yul\":974:1037   */\n      swap2\n      pop\n        /* \"#utility.yul\":930:1047   */\n      pop\n        /* \"#utility.yul\":725:1054   */\n      swap3\n      swap2\n      pop\n      pop\n      jump\t// out\n        /* \"#utility.yul\":1060:2079   */\n    tag_19:\n        /* \"#utility.yul\":1161:1167   */\n      0x00\n        /* \"#utility.yul\":1169:1175   */\n      dup1\n        /* \"#utility.yul\":1177:1183   */\n      0x00\n        /* \"#utility.yul\":1185:1191   */\n      dup1\n        /* \"#utility.yul\":1193:1199   */\n      0x00\n        /* \"#utility.yul\":1242:1244   */\n      0x60\n        /* \"#utility.yul\":1230:1239   */\n      dup7\n        /* \"#utility.yul\":1221:1228   */\n      dup9\n        /* \"#utility.yul\":1217:1240   */\n      sub\n        /* \"#utility.yul\":1213:1245   */\n      slt\n        /* \"#utility.yul\":1210:1329   */\n      iszero\n      tag_71\n      jumpi\n        /* \"#utility.yul\":1248:1327   */\n      tag_72\n      tag_68\n      jump\t// in\n    tag_72:\n        /* \"#utility.yul\":1210:1329   */\n    tag_71:\n        /* \"#utility.yul\":1368:1369   */\n      0x00\n        /* \"#utility.yul\":1393:1446   */\n      tag_73\n        /* \"#utility.yul\":1438:1445   */\n      dup9\n        /* \"#utility.yul\":1429:1435   */\n      dup3\n        /* \"#utility.yul\":1418:1427   */\n      dup10\n        /* \"#utility.yul\":1414:1436   */\n      add\n        /* \"#utility.yul\":1393:1446   */\n      tag_61\n      jump\t// in\n    tag_73:\n        /* \"#utility.yul\":1383:1446   */\n      swap6\n      pop\n        /* \"#utility.yul\":1339:1456   */\n      pop\n        /* \"#utility.yul\":1523:1525   */\n      0x20\n        /* \"#utility.yul\":1512:1521   */\n      dup7\n        /* \"#utility.yul\":1508:1526   */\n      add\n        /* \"#utility.yul\":1495:1527   */\n      calldataload\n        /* \"#utility.yul\":1554:1572   */\n      0xffffffffffffffff\n        /* \"#utility.yul\":1546:1552   */\n      dup2\n        /* \"#utility.yul\":1543:1573   */\n      gt\n        /* \"#utility.yul\":1540:1657   */\n      iszero\n      tag_74\n      jumpi\n        /* \"#utility.yul\":1576:1655   */\n      tag_75\n      tag_76\n      jump\t// in\n    tag_75:\n        /* \"#utility.yul\":1540:1657   */\n    tag_74:\n        /* \"#utility.yul\":1689:1754   */\n      tag_77\n        /* \"#utility.yul\":1746:1753   */\n      dup9\n        /* \"#utility.yul\":1737:1743   */\n      dup3\n        /* \"#utility.yul\":1726:1735   */\n      dup10\n        /* \"#utility.yul\":1722:1744   */\n      add\n        /* \"#utility.yul\":1689:1754   */\n      tag_50\n      jump\t// in\n    tag_77:\n        /* \"#utility.yul\":1671:1754   */\n      swap5\n      pop\n      swap5\n      pop\n        /* \"#utility.yul\":1466:1764   */\n      pop\n        /* \"#utility.yul\":1831:1833   */\n      0x40\n        /* \"#utility.yul\":1820:1829   */\n      dup7\n        /* \"#utility.yul\":1816:1834   */\n      add\n        /* \"#utility.yul\":1803:1835   */\n      calldataload\n        /* \"#utility.yul\":1862:1880   */\n      0xffffffffffffffff\n        /* \"#utility.yul\":1854:1860   */\n      dup2\n        /* \"#utility.yul\":1851:1881   */\n      gt\n        /* \"#utility.yul\":1848:1965   */\n      iszero\n      tag_78\n      jumpi\n        /* \"#utility.yul\":1884:1963   */\n      tag_79\n      tag_76\n      jump\t// in\n    tag_79:\n        /* \"#utility.yul\":1848:1965   */\n    tag_78:\n        /* \"#utility.yul\":1997:2062   */\n      tag_80\n        /* \"#utility.yul\":2054:2061   */\n      dup9\n        /* \"#utility.yul\":2045:2051   */\n      dup3\n        /* \"#utility.yul\":2034:2043   */\n      dup10\n        /* \"#utility.yul\":2030:2052   */\n      add\n        /* \"#utility.yul\":1997:2062   */\n      tag_50\n      jump\t// in\n    tag_80:\n        /* \"#utility.yul\":1979:2062   */\n      swap3\n      pop\n      swap3\n      pop\n        /* \"#utility.yul\":1774:2072   */\n      pop\n        /* \"#utility.yul\":1060:2079   */\n      swap3\n      swap6\n      pop\n      swap3\n      swap6\n      swap1\n      swap4\n      pop\n      jump\t// out\n        /* \"#utility.yul\":2085:2429   */\n    tag_81:\n        /* \"#utility.yul\":2163:2166   */\n      0x00\n        /* \"#utility.yul\":2191:2230   */\n      tag_83\n        /* \"#utility.yul\":2224:2229   */\n      dup3\n        /* \"#utility.yul\":2191:2230   */\n      tag_84\n      jump\t// in\n    tag_83:\n        /* \"#utility.yul\":2246:2307   */\n      tag_85\n        /* \"#utility.yul\":2300:2306   */\n      dup2\n        /* \"#utility.yul\":2295:2298   */\n      dup6\n        /* \"#utility.yul\":2246:2307   */\n      tag_86\n      jump\t// in\n    tag_85:\n        /* \"#utility.yul\":2239:2307   */\n      swap4\n      pop\n        /* \"#utility.yul\":2316:2368   */\n      tag_87\n        /* \"#utility.yul\":2361:2367   */\n      dup2\n        /* \"#utility.yul\":2356:2359   */\n      dup6\n        /* \"#utility.yul\":2349:2353   */\n      0x20\n        /* \"#utility.yul\":2342:2347   */\n      dup7\n        /* \"#utility.yul\":2338:2354   */\n      add\n        /* \"#utility.yul\":2316:2368   */\n      tag_88\n      jump\t// in\n    tag_87:\n        /* \"#utility.yul\":2393:2422   */\n      tag_89\n        /* \"#utility.yul\":2415:2421   */\n      dup2\n        /* \"#utility.yul\":2393:2422   */\n      tag_90\n      jump\t// in\n    tag_89:\n        /* \"#utility.yul\":2388:2391   */\n      dup5\n        /* \"#utility.yul\":2384:2423   */\n      add\n        /* \"#utility.yul\":2377:2423   */\n      swap2\n      pop\n        /* \"#utility.yul\":2167:2429   */\n      pop\n        /* \"#utility.yul\":2085:2429   */\n      swap3\n      swap2\n      pop\n      pop\n      jump\t// out\n        /* \"#utility.yul\":2435:2799   */\n    tag_91:\n        /* \"#utility.yul\":2523:2526   */\n      0x00\n        /* \"#utility.yul\":2551:2590   */\n      tag_93\n        /* \"#utility.yul\":2584:2589   */\n      dup3\n        /* \"#utility.yul\":2551:2590   */\n      tag_84\n      jump\t// in\n    tag_93:\n        /* \"#utility.yul\":2606:2677   */\n      tag_94\n        /* \"#utility.yul\":2670:2676   */\n      dup2\n        /* \"#utility.yul\":2665:2668   */\n      dup6\n        /* \"#utility.yul\":2606:2677   */\n      tag_95\n      jump\t// in\n    tag_94:\n        /* \"#utility.yul\":2599:2677   */\n      swap4\n      pop\n        /* \"#utility.yul\":2686:2738   */\n      tag_96\n        /* \"#utility.yul\":2731:2737   */\n      dup2\n        /* \"#utility.yul\":2726:2729   */\n      dup6\n        /* \"#utility.yul\":2719:2723   */\n      0x20\n        /* \"#utility.yul\":2712:2717   */\n      dup7\n        /* \"#utility.yul\":2708:2724   */\n      add\n        /* \"#utility.yul\":2686:2738   */\n      tag_88\n      jump\t// in\n    tag_96:\n        /* \"#utility.yul\":2763:2792   */\n      tag_97\n        /* \"#utility.yul\":2785:2791   */\n      dup2\n        /* \"#utility.yul\":2763:2792   */\n      tag_90\n      jump\t// in\n    tag_97:\n        /* \"#utility.yul\":2758:2761   */\n      dup5\n        /* \"#utility.yul\":2754:2793   */\n      add\n        /* \"#utility.yul\":2747:2793   */\n      swap2\n      pop\n        /* \"#utility.yul\":2527:2799   */\n      pop\n        /* \"#utility.yul\":2435:2799   */\n      swap3\n      swap2\n      pop\n      pop\n      jump\t// out\n        /* \"#utility.yul\":2867:3539   */\n    tag_98:\n        /* \"#utility.yul\":2976:2979   */\n      0x00\n        /* \"#utility.yul\":3012:3016   */\n      0x40\n        /* \"#utility.yul\":3007:3010   */\n      dup4\n        /* \"#utility.yul\":3003:3017   */\n      add\n        /* \"#utility.yul\":3100:3104   */\n      0x00\n        /* \"#utility.yul\":3093:3098   */\n      dup4\n        /* \"#utility.yul\":3089:3105   */\n      add\n        /* \"#utility.yul\":3083:3106   */\n      mload\n        /* \"#utility.yul\":3153:3156   */\n      dup5\n        /* \"#utility.yul\":3147:3151   */\n      dup3\n        /* \"#utility.yul\":3143:3157   */\n      sub\n        /* \"#utility.yul\":3136:3140   */\n      0x00\n        /* \"#utility.yul\":3131:3134   */\n      dup7\n        /* \"#utility.yul\":3127:3141   */\n      add\n        /* \"#utility.yul\":3120:3158   */\n      mstore\n        /* \"#utility.yul\":3179:3252   */\n      tag_100\n        /* \"#utility.yul\":3247:3251   */\n      dup3\n        /* \"#utility.yul\":3233:3245   */\n      dup3\n        /* \"#utility.yul\":3179:3252   */\n      tag_81\n      jump\t// in\n    tag_100:\n        /* \"#utility.yul\":3171:3252   */\n      swap2\n      pop\n        /* \"#utility.yul\":3027:3263   */\n      pop\n        /* \"#utility.yul\":3349:3353   */\n      0x20\n        /* \"#utility.yul\":3342:3347   */\n      dup4\n        /* \"#utility.yul\":3338:3354   */\n      add\n        /* \"#utility.yul\":3332:3355   */\n      mload\n        /* \"#utility.yul\":3402:3405   */\n      dup5\n        /* \"#utility.yul\":3396:3400   */\n      dup3\n        /* \"#utility.yul\":3392:3406   */\n      sub\n        /* \"#utility.yul\":3385:3389   */\n      0x20\n        /* \"#utility.yul\":3380:3383   */\n      dup7\n        /* \"#utility.yul\":3376:3390   */\n      add\n        /* \"#utility.yul\":3369:3407   */\n      mstore\n        /* \"#utility.yul\":3428:3501   */\n      tag_101\n        /* \"#utility.yul\":3496:3500   */\n      dup3\n        /* \"#utility.yul\":3482:3494   */\n      dup3\n        /* \"#utility.yul\":3428:3501   */\n      tag_81\n      jump\t// in\n    tag_101:\n        /* \"#utility.yul\":3420:3501   */\n      swap2\n      pop\n        /* \"#utility.yul\":3273:3512   */\n      pop\n        /* \"#utility.yul\":3529:3533   */\n      dup1\n        /* \"#utility.yul\":3522:3533   */\n      swap2\n      pop\n        /* \"#utility.yul\":2981:3539   */\n      pop\n        /* \"#utility.yul\":2867:3539   */\n      swap3\n      swap2\n      pop\n      pop\n      jump\t// out\n        /* \"#utility.yul\":3545:4059   */\n    tag_16:\n        /* \"#utility.yul\":3706:3710   */\n      0x00\n        /* \"#utility.yul\":3744:3746   */\n      0x40\n        /* \"#utility.yul\":3733:3742   */\n      dup3\n        /* \"#utility.yul\":3729:3747   */\n      add\n        /* \"#utility.yul\":3721:3747   */\n      swap1\n      pop\n        /* \"#utility.yul\":3793:3802   */\n      dup2\n        /* \"#utility.yul\":3787:3791   */\n      dup2\n        /* \"#utility.yul\":3783:3803   */\n      sub\n        /* \"#utility.yul\":3779:3780   */\n      0x00\n        /* \"#utility.yul\":3768:3777   */\n      dup4\n        /* \"#utility.yul\":3764:3781   */\n      add\n        /* \"#utility.yul\":3757:3804   */\n      mstore\n        /* \"#utility.yul\":3821:3899   */\n      tag_103\n        /* \"#utility.yul\":3894:3898   */\n      dup2\n        /* \"#utility.yul\":3885:3891   */\n      dup6\n        /* \"#utility.yul\":3821:3899   */\n      tag_91\n      jump\t// in\n    tag_103:\n        /* \"#utility.yul\":3813:3899   */\n      swap1\n      pop\n        /* \"#utility.yul\":3946:3955   */\n      dup2\n        /* \"#utility.yul\":3940:3944   */\n      dup2\n        /* \"#utility.yul\":3936:3956   */\n      sub\n        /* \"#utility.yul\":3931:3933   */\n      0x20\n        /* \"#utility.yul\":3920:3929   */\n      dup4\n        /* \"#utility.yul\":3916:3934   */\n      add\n        /* \"#utility.yul\":3909:3957   */\n      mstore\n        /* \"#utility.yul\":3974:4052   */\n      tag_104\n        /* \"#utility.yul\":4047:4051   */\n      dup2\n        /* \"#utility.yul\":4038:4044   */\n      dup5\n        /* \"#utility.yul\":3974:4052   */\n      tag_91\n      jump\t// in\n    tag_104:\n        /* \"#utility.yul\":3966:4052   */\n      swap1\n      pop\n        /* \"#utility.yul\":3545:4059   */\n      swap4\n      swap3\n      pop\n      pop\n      pop\n      jump\t// out\n        /* \"#utility.yul\":4065:4418   */\n    tag_11:\n        /* \"#utility.yul\":4198:4202   */\n      0x00\n        /* \"#utility.yul\":4236:4238   */\n      0x20\n        /* \"#utility.yul\":4225:4234   */\n      dup3\n        /* \"#utility.yul\":4221:4239   */\n      add\n        /* \"#utility.yul\":4213:4239   */\n      swap1\n      pop\n        /* \"#utility.yul\":4285:4294   */\n      dup2\n        /* \"#utility.yul\":4279:4283   */\n      dup2\n        /* \"#utility.yul\":4275:4295   */\n      sub\n        /* \"#utility.yul\":4271:4272   */\n      0x00\n        /* \"#utility.yul\":4260:4269   */\n      dup4\n        /* \"#utility.yul\":4256:4273   */\n      add\n        /* \"#utility.yul\":4249:4296   */\n      mstore\n        /* \"#utility.yul\":4313:4411   */\n      tag_106\n        /* \"#utility.yul\":4406:4410   */\n      dup2\n        /* \"#utility.yul\":4397:4403   */\n      dup5\n        /* \"#utility.yul\":4313:4411   */\n      tag_98\n      jump\t// in\n    tag_106:\n        /* \"#utility.yul\":4305:4411   */\n      swap1\n      pop\n        /* \"#utility.yul\":4065:4418   */\n      swap3\n      swap2\n      pop\n      pop\n      jump\t// out\n        /* \"#utility.yul\":4505:4604   */\n    tag_84:\n        /* \"#utility.yul\":4557:4563   */\n      0x00\n        /* \"#utility.yul\":4591:4596   */\n      dup2\n        /* \"#utility.yul\":4585:4597   */\n      mload\n        /* \"#utility.yul\":4575:4597   */\n      swap1\n      pop\n        /* \"#utility.yul\":4505:4604   */\n      swap2\n      swap1\n      pop\n      jump\t// out\n        /* \"#utility.yul\":4610:4769   */\n    tag_86:\n        /* \"#utility.yul\":4684:4695   */\n      0x00\n        /* \"#utility.yul\":4718:4724   */\n      dup3\n        /* \"#utility.yul\":4713:4716   */\n      dup3\n        /* \"#utility.yul\":4706:4725   */\n      mstore\n        /* \"#utility.yul\":4758:4762   */\n      0x20\n        /* \"#utility.yul\":4753:4756   */\n      dup3\n        /* \"#utility.yul\":4749:4763   */\n      add\n        /* \"#utility.yul\":4734:4763   */\n      swap1\n      pop\n        /* \"#utility.yul\":4610:4769   */\n      swap3\n      swap2\n      pop\n      pop\n      jump\t// out\n        /* \"#utility.yul\":4775:4944   */\n    tag_95:\n        /* \"#utility.yul\":4859:4870   */\n      0x00\n        /* \"#utility.yul\":4893:4899   */\n      dup3\n        /* \"#utility.yul\":4888:4891   */\n      dup3\n        /* \"#utility.yul\":4881:4900   */\n      mstore\n        /* \"#utility.yul\":4933:4937   */\n      0x20\n        /* \"#utility.yul\":4928:4931   */\n      dup3\n        /* \"#utility.yul\":4924:4938   */\n      add\n        /* \"#utility.yul\":4909:4938   */\n      swap1\n      pop\n        /* \"#utility.yul\":4775:4944   */\n      swap3\n      swap2\n      pop\n      pop\n      jump\t// out\n        /* \"#utility.yul\":4950:5027   */\n    tag_112:\n        /* \"#utility.yul\":4987:4994   */\n      0x00\n        /* \"#utility.yul\":5016:5021   */\n      dup2\n        /* \"#utility.yul\":5005:5021   */\n      swap1\n      pop\n        /* \"#utility.yul\":4950:5027   */\n      swap2\n      swap1\n      pop\n      jump\t// out\n        /* \"#utility.yul\":5033:5340   */\n    tag_88:\n        /* \"#utility.yul\":5101:5102   */\n      0x00\n        /* \"#utility.yul\":5111:5224   */\n    tag_115:\n        /* \"#utility.yul\":5125:5131   */\n      dup4\n        /* \"#utility.yul\":5122:5123   */\n      dup2\n        /* \"#utility.yul\":5119:5132   */\n      lt\n        /* \"#utility.yul\":5111:5224   */\n      iszero\n      tag_117\n      jumpi\n        /* \"#utility.yul\":5210:5211   */\n      dup1\n        /* \"#utility.yul\":5205:5208   */\n      dup3\n        /* \"#utility.yul\":5201:5212   */\n      add\n        /* \"#utility.yul\":5195:5213   */\n      mload\n        /* \"#utility.yul\":5191:5192   */\n      dup2\n        /* \"#utility.yul\":5186:5189   */\n      dup5\n        /* \"#utility.yul\":5182:5193   */\n      add\n        /* \"#utility.yul\":5175:5214   */\n      mstore\n        /* \"#utility.yul\":5147:5149   */\n      0x20\n        /* \"#utility.yul\":5144:5145   */\n      dup2\n        /* \"#utility.yul\":5140:5150   */\n      add\n        /* \"#utility.yul\":5135:5150   */\n      swap1\n      pop\n        /* \"#utility.yul\":5111:5224   */\n      jump(tag_115)\n    tag_117:\n        /* \"#utility.yul\":5242:5248   */\n      dup4\n        /* \"#utility.yul\":5239:5240   */\n      dup2\n        /* \"#utility.yul\":5236:5249   */\n      gt\n        /* \"#utility.yul\":5233:5334   */\n      iszero\n      tag_118\n      jumpi\n        /* \"#utility.yul\":5322:5323   */\n      0x00\n        /* \"#utility.yul\":5313:5319   */\n      dup5\n        /* \"#utility.yul\":5308:5311   */\n      dup5\n        /* \"#utility.yul\":5304:5320   */\n      add\n        /* \"#utility.yul\":5297:5324   */\n      mstore\n        /* \"#utility.yul\":5233:5334   */\n    tag_118:\n        /* \"#utility.yul\":5082:5340   */\n      pop\n        /* \"#utility.yul\":5033:5340   */\n      pop\n      pop\n      pop\n      jump\t// out\n        /* \"#utility.yul\":5346:5666   */\n    tag_25:\n        /* \"#utility.yul\":5390:5396   */\n      0x00\n        /* \"#utility.yul\":5427:5428   */\n      0x02\n        /* \"#utility.yul\":5421:5425   */\n      dup3\n        /* \"#utility.yul\":5417:5429   */\n      div\n        /* \"#utility.yul\":5407:5429   */\n      swap1\n      pop\n        /* \"#utility.yul\":5474:5475   */\n      0x01\n        /* \"#utility.yul\":5468:5472   */\n      dup3\n        /* \"#utility.yul\":5464:5476   */\n      and\n        /* \"#utility.yul\":5495:5513   */\n      dup1\n        /* \"#utility.yul\":5485:5566   */\n      tag_120\n      jumpi\n        /* \"#utility.yul\":5551:5555   */\n      0x7f\n        /* \"#utility.yul\":5543:5549   */\n      dup3\n        /* \"#utility.yul\":5539:5556   */\n      and\n        /* \"#utility.yul\":5529:5556   */\n      swap2\n      pop\n        /* \"#utility.yul\":5485:5566   */\n    tag_120:\n        /* \"#utility.yul\":5613:5615   */\n      0x20\n        /* \"#utility.yul\":5605:5611   */\n      dup3\n        /* \"#utility.yul\":5602:5616   */\n      lt\n        /* \"#utility.yul\":5582:5600   */\n      dup2\n        /* \"#utility.yul\":5579:5617   */\n      eq\n        /* \"#utility.yul\":5576:5660   */\n      iszero\n      tag_121\n      jumpi\n        /* \"#utility.yul\":5632:5650   */\n      tag_122\n      tag_123\n      jump\t// in\n    tag_122:\n        /* \"#utility.yul\":5576:5660   */\n    tag_121:\n        /* \"#utility.yul\":5397:5666   */\n      pop\n        /* \"#utility.yul\":5346:5666   */\n      swap2\n      swap1\n      pop\n      jump\t// out\n        /* \"#utility.yul\":5672:5852   */\n    tag_123:\n        /* \"#utility.yul\":5720:5797   */\n      0x4e487b7100000000000000000000000000000000000000000000000000000000\n        /* \"#utility.yul\":5717:5718   */\n      0x00\n        /* \"#utility.yul\":5710:5798   */\n      mstore\n        /* \"#utility.yul\":5817:5821   */\n      0x22\n        /* \"#utility.yul\":5814:5815   */\n      0x04\n        /* \"#utility.yul\":5807:5822   */\n      mstore\n        /* \"#utility.yul\":5841:5845   */\n      0x24\n        /* \"#utility.yul\":5838:5839   */\n      0x00\n        /* \"#utility.yul\":5831:5846   */\n      revert\n        /* \"#utility.yul\":5858:5975   */\n    tag_57:\n        /* \"#utility.yul\":5967:5968   */\n      0x00\n        /* \"#utility.yul\":5964:5965   */\n      dup1\n        /* \"#utility.yul\":5957:5969   */\n      revert\n        /* \"#utility.yul\":5981:6098   */\n    tag_54:\n        /* \"#utility.yul\":6090:6091   */\n      0x00\n        /* \"#utility.yul\":6087:6088   */\n      dup1\n        /* \"#utility.yul\":6080:6092   */\n      revert\n        /* \"#utility.yul\":6104:6221   */\n    tag_60:\n        /* \"#utility.yul\":6213:6214   */\n      0x00\n        /* \"#utility.yul\":6210:6211   */\n      dup1\n        /* \"#utility.yul\":6203:6215   */\n      revert\n        /* \"#utility.yul\":6227:6344   */\n    tag_76:\n        /* \"#utility.yul\":6336:6337   */\n      0x00\n        /* \"#utility.yul\":6333:6334   */\n      dup1\n        /* \"#utility.yul\":6326:6338   */\n      revert\n        /* \"#utility.yul\":6350:6467   */\n    tag_68:\n        /* \"#utility.yul\":6459:6460   */\n      0x00\n        /* \"#utility.yul\":6456:6457   */\n      dup1\n        /* \"#utility.yul\":6449:6461   */\n      revert\n        /* \"#utility.yul\":6473:6575   */\n    tag_90:\n        /* \"#utility.yul\":6514:6520   */\n      0x00\n        /* \"#utility.yul\":6565:6567   */\n      0x1f\n        /* \"#utility.yul\":6561:6568   */\n      not\n        /* \"#utility.yul\":6556:6558   */\n      0x1f\n        /* \"#utility.yul\":6549:6554   */\n      dup4\n        /* \"#utility.yul\":6545:6559   */\n      add\n        /* \"#utility.yul\":6541:6569   */\n      and\n        /* \"#utility.yul\":6531:6569   */\n      swap1\n      pop\n        /* \"#utility.yul\":6473:6575   */\n      swap2\n      swap1\n      pop\n      jump\t// out\n        /* \"#utility.yul\":6581:6703   */\n    tag_64:\n        /* \"#utility.yul\":6654:6678   */\n      tag_132\n        /* \"#utility.yul\":6672:6677   */\n      dup2\n        /* \"#utility.yul\":6654:6678   */\n      tag_112\n      jump\t// in\n    tag_132:\n        /* \"#utility.yul\":6647:6652   */\n      dup2\n        /* \"#utility.yul\":6644:6679   */\n      eq\n        /* \"#utility.yul\":6634:6697   */\n      tag_133\n      jumpi\n        /* \"#utility.yul\":6693:6694   */\n      0x00\n        /* \"#utility.yul\":6690:6691   */\n      dup1\n        /* \"#utility.yul\":6683:6695   */\n      revert\n        /* \"#utility.yul\":6634:6697   */\n    tag_133:\n        /* \"#utility.yul\":6581:6703   */\n      pop\n      jump\t// out\n\n    auxdata: 0xa2646970667358221220fa86a1c32397659d89ff35de7dae7bcae1acc96e098187cbea7e898288e128eb64736f6c63430008070033\n}\n",
				"bytecode": {
					"linkReferences": {},
					"object": "608060405234801561001057600080fd5b50610732806100206000396000f3fe608060405234801561001057600080fd5b50600436106100415760003560e01c8063179ffe7614610046578063404ebf6c14610076578063f40f48c9146100a7575b600080fd5b610060600480360381019061005b919061041f565b6100c3565b60405161006d91906105ce565b60405180910390f35b610090600480360381019061008b919061041f565b6100d0565b60405161009e929190610597565b60405180910390f35b6100c160048036038101906100bc919061044c565b610204565b005b6100cb6102f7565b919050565b60006020528060005260406000206000915090508060000180546100f39061065a565b80601f016020809104026020016040519081016040528092919081815260200182805461011f9061065a565b801561016c5780601f106101415761010080835404028352916020019161016c565b820191906000526020600020905b81548152906001019060200180831161014f57829003601f168201915b5050505050908060010180546101819061065a565b80601f01602080910402602001604051908101604052809291908181526020018280546101ad9061065a565b80156101fa5780601f106101cf576101008083540402835291602001916101fa565b820191906000526020600020905b8154815290600101906020018083116101dd57829003601f168201915b5050505050905082565b604051806040016040528085858080601f016020809104026020016040519081016040528093929190818152602001838380828437600081840152601f19601f82011690508083019250505050505050815260200183838080601f016020809104026020016040519081016040528093929190818152602001838380828437600081840152601f19601f8201169050808301925050505050505081525060008087815260200190815260200160002060008201518160000190805190602001906102cf929190610311565b5060208201518160010190805190602001906102ec929190610311565b509050505050505050565b604051806040016040528060608152602001606081525090565b82805461031d9061065a565b90600052602060002090601f01602090048101928261033f5760008555610386565b82601f1061035857805160ff1916838001178555610386565b82800160010185558215610386579182015b8281111561038557825182559160200191906001019061036a565b5b5090506103939190610397565b5090565b5b808211156103b0576000816000905550600101610398565b5090565b60008083601f8401126103ca576103c96106c0565b5b8235905067ffffffffffffffff8111156103e7576103e66106bb565b5b602083019150836001820283011115610403576104026106c5565b5b9250929050565b600081359050610419816106e5565b92915050565b600060208284031215610435576104346106cf565b5b60006104438482850161040a565b91505092915050565b600080600080600060608688031215610468576104676106cf565b5b60006104768882890161040a565b955050602086013567ffffffffffffffff811115610497576104966106ca565b5b6104a3888289016103b4565b9450945050604086013567ffffffffffffffff8111156104c6576104c56106ca565b5b6104d2888289016103b4565b92509250509295509295909350565b60006104ec826105f0565b6104f681856105fb565b9350610506818560208601610627565b61050f816106d4565b840191505092915050565b6000610525826105f0565b61052f818561060c565b935061053f818560208601610627565b610548816106d4565b840191505092915050565b6000604083016000830151848203600086015261057082826104e1565b9150506020830151848203602086015261058a82826104e1565b9150508091505092915050565b600060408201905081810360008301526105b1818561051a565b905081810360208301526105c5818461051a565b90509392505050565b600060208201905081810360008301526105e88184610553565b905092915050565b600081519050919050565b600082825260208201905092915050565b600082825260208201905092915050565b6000819050919050565b60005b8381101561064557808201518184015260208101905061062a565b83811115610654576000848401525b50505050565b6000600282049050600182168061067257607f821691505b602082108114156106865761068561068c565b5b50919050565b7f4e487b7100000000000000000000000000000000000000000000000000000000600052602260045260246000fd5b600080fd5b600080fd5b600080fd5b600080fd5b600080fd5b6000601f19601f8301169050919050565b6106ee8161061d565b81146106f957600080fd5b5056fea2646970667358221220fa86a1c32397659d89ff35de7dae7bcae1acc96e098187cbea7e898288e128eb64736f6c63430008070033",
					"opcodes": "PUSH1 0x80 PUSH1 0x40 MSTORE CALLVALUE DUP1 ISZERO PUSH2 0x10 JUMPI PUSH1 0x0 DUP1 REVERT JUMPDEST POP PUSH2 0x732 DUP1 PUSH2 0x20 PUSH1 0x0 CODECOPY PUSH1 0x0 RETURN INVALID PUSH1 0x80 PUSH1 0x40 MSTORE CALLVALUE DUP1 ISZERO PUSH2 0x10 JUMPI PUSH1 0x0 DUP1 REVERT JUMPDEST POP PUSH1 0x4 CALLDATASIZE LT PUSH2 0x41 JUMPI PUSH1 0x0 CALLDATALOAD PUSH1 0xE0 SHR DUP1 PUSH4 0x179FFE76 EQ PUSH2 0x46 JUMPI DUP1 PUSH4 0x404EBF6C EQ PUSH2 0x76 JUMPI DUP1 PUSH4 0xF40F48C9 EQ PUSH2 0xA7 JUMPI JUMPDEST PUSH1 0x0 DUP1 REVERT JUMPDEST PUSH2 0x60 PUSH1 0x4 DUP1 CALLDATASIZE SUB DUP2 ADD SWAP1 PUSH2 0x5B SWAP2 SWAP1 PUSH2 0x41F JUMP JUMPDEST PUSH2 0xC3 JUMP JUMPDEST PUSH1 0x40 MLOAD PUSH2 0x6D SWAP2 SWAP1 PUSH2 0x5CE JUMP JUMPDEST PUSH1 0x40 MLOAD DUP1 SWAP2 SUB SWAP1 RETURN JUMPDEST PUSH2 0x90 PUSH1 0x4 DUP1 CALLDATASIZE SUB DUP2 ADD SWAP1 PUSH2 0x8B SWAP2 SWAP1 PUSH2 0x41F JUMP JUMPDEST PUSH2 0xD0 JUMP JUMPDEST PUSH1 0x40 MLOAD PUSH2 0x9E SWAP3 SWAP2 SWAP1 PUSH2 0x597 JUMP JUMPDEST PUSH1 0x40 MLOAD DUP1 SWAP2 SUB SWAP1 RETURN JUMPDEST PUSH2 0xC1 PUSH1 0x4 DUP1 CALLDATASIZE SUB DUP2 ADD SWAP1 PUSH2 0xBC SWAP2 SWAP1 PUSH2 0x44C JUMP JUMPDEST PUSH2 0x204 JUMP JUMPDEST STOP JUMPDEST PUSH2 0xCB PUSH2 0x2F7 JUMP JUMPDEST SWAP2 SWAP1 POP JUMP JUMPDEST PUSH1 0x0 PUSH1 0x20 MSTORE DUP1 PUSH1 0x0 MSTORE PUSH1 0x40 PUSH1 0x0 KECCAK256 PUSH1 0x0 SWAP2 POP SWAP1 POP DUP1 PUSH1 0x0 ADD DUP1 SLOAD PUSH2 0xF3 SWAP1 PUSH2 0x65A JUMP JUMPDEST DUP1 PUSH1 0x1F ADD PUSH1 0x20 DUP1 SWAP2 DIV MUL PUSH1 0x20 ADD PUSH1 0x40 MLOAD SWAP1 DUP2 ADD PUSH1 0x40 MSTORE DUP1 SWAP3 SWAP2 SWAP1 DUP2 DUP2 MSTORE PUSH1 0x20 ADD DUP3 DUP1 SLOAD PUSH2 0x11F SWAP1 PUSH2 0x65A JUMP JUMPDEST DUP1 ISZERO PUSH2 0x16C JUMPI DUP1 PUSH1 0x1F LT PUSH2 0x141 JUMPI PUSH2 0x100 DUP1 DUP4 SLOAD DIV MUL DUP4 MSTORE SWAP2 PUSH1 0x20 ADD SWAP2 PUSH2 0x16C JUMP JUMPDEST DUP3 ADD SWAP2 SWAP1 PUSH1 0x0 MSTORE PUSH1 0x20 PUSH1 0x0 KECCAK256 SWAP1 JUMPDEST DUP2 SLOAD DUP2 MSTORE SWAP1 PUSH1 0x1 ADD SWAP1 PUSH1 0x20 ADD DUP1 DUP4 GT PUSH2 0x14F JUMPI DUP3 SWAP1 SUB PUSH1 0x1F AND DUP3 ADD SWAP2 JUMPDEST POP POP POP POP POP SWAP1 DUP1 PUSH1 0x1 ADD DUP1 SLOAD PUSH2 0x181 SWAP1 PUSH2 0x65A JUMP JUMPDEST DUP1 PUSH1 0x1F ADD PUSH1 0x20 DUP1 SWAP2 DIV MUL PUSH1 0x20 ADD PUSH1 0x40 MLOAD SWAP1 DUP2 ADD PUSH1 0x40 MSTORE DUP1 SWAP3 SWAP2 SWAP1 DUP2 DUP2 MSTORE PUSH1 0x20 ADD DUP3 DUP1 SLOAD PUSH2 0x1AD SWAP1 PUSH2 0x65A JUMP JUMPDEST DUP1 ISZERO PUSH2 0x1FA JUMPI DUP1 PUSH1 0x1F LT PUSH2 0x1CF JUMPI PUSH2 0x100 DUP1 DUP4 SLOAD DIV MUL DUP4 MSTORE SWAP2 PUSH1 0x20 ADD SWAP2 PUSH2 0x1FA JUMP JUMPDEST DUP3 ADD SWAP2 SWAP1 PUSH1 0x0 MSTORE PUSH1 0x20 PUSH1 0x0 KECCAK256 SWAP1 JUMPDEST DUP2 SLOAD DUP2 MSTORE SWAP1 PUSH1 0x1 ADD SWAP1 PUSH1 0x20 ADD DUP1 DUP4 GT PUSH2 0x1DD JUMPI DUP3 SWAP1 SUB PUSH1 0x1F AND DUP3 ADD SWAP2 JUMPDEST POP POP POP POP POP SWAP1 POP DUP3 JUMP JUMPDEST PUSH1 0x40 MLOAD DUP1 PUSH1 0x40 ADD PUSH1 0x40 MSTORE DUP1 DUP6 DUP6 DUP1 DUP1 PUSH1 0x1F ADD PUSH1 0x20 DUP1 SWAP2 DIV MUL PUSH1 0x20 ADD PUSH1 0x40 MLOAD SWAP1 DUP2 ADD PUSH1 0x40 MSTORE DUP1 SWAP4 SWAP3 SWAP2 SWAP1 DUP2 DUP2 MSTORE PUSH1 0x20 ADD DUP4 DUP4 DUP1 DUP3 DUP5 CALLDATACOPY PUSH1 0x0 DUP2 DUP5 ADD MSTORE PUSH1 0x1F NOT PUSH1 0x1F DUP3 ADD AND SWAP1 POP DUP1 DUP4 ADD SWAP3 POP POP POP POP POP POP POP DUP2 MSTORE PUSH1 0x20 ADD DUP4 DUP4 DUP1 DUP1 PUSH1 0x1F ADD PUSH1 0x20 DUP1 SWAP2 DIV MUL PUSH1 0x20 ADD PUSH1 0x40 MLOAD SWAP1 DUP2 ADD PUSH1 0x40 MSTORE DUP1 SWAP4 SWAP3 SWAP2 SWAP1 DUP2 DUP2 MSTORE PUSH1 0x20 ADD DUP4 DUP4 DUP1 DUP3 DUP5 CALLDATACOPY PUSH1 0x0 DUP2 DUP5 ADD MSTORE PUSH1 0x1F NOT PUSH1 0x1F DUP3 ADD AND SWAP1 POP DUP1 DUP4 ADD SWAP3 POP POP POP POP POP POP POP DUP2 MSTORE POP PUSH1 0x0 DUP1 DUP8 DUP2 MSTORE PUSH1 0x20 ADD SWAP1 DUP2 MSTORE PUSH1 0x20 ADD PUSH1 0x0 KECCAK256 PUSH1 0x0 DUP3 ADD MLOAD DUP2 PUSH1 0x0 ADD SWAP1 DUP1 MLOAD SWAP1 PUSH1 0x20 ADD SWAP1 PUSH2 0x2CF SWAP3 SWAP2 SWAP1 PUSH2 0x311 JUMP JUMPDEST POP PUSH1 0x20 DUP3 ADD MLOAD DUP2 PUSH1 0x1 ADD SWAP1 DUP1 MLOAD SWAP1 PUSH1 0x20 ADD SWAP1 PUSH2 0x2EC SWAP3 SWAP2 SWAP1 PUSH2 0x311 JUMP JUMPDEST POP SWAP1 POP POP POP POP POP POP POP JUMP JUMPDEST PUSH1 0x40 MLOAD DUP1 PUSH1 0x40 ADD PUSH1 0x40 MSTORE DUP1 PUSH1 0x60 DUP2 MSTORE PUSH1 0x20 ADD PUSH1 0x60 DUP2 MSTORE POP SWAP1 JUMP JUMPDEST DUP3 DUP1 SLOAD PUSH2 0x31D SWAP1 PUSH2 0x65A JUMP JUMPDEST SWAP1 PUSH1 0x0 MSTORE PUSH1 0x20 PUSH1 0x0 KECCAK256 SWAP1 PUSH1 0x1F ADD PUSH1 0x20 SWAP1 DIV DUP2 ADD SWAP3 DUP3 PUSH2 0x33F JUMPI PUSH1 0x0 DUP6 SSTORE PUSH2 0x386 JUMP JUMPDEST DUP3 PUSH1 0x1F LT PUSH2 0x358 JUMPI DUP1 MLOAD PUSH1 0xFF NOT AND DUP4 DUP1 ADD OR DUP6 SSTORE PUSH2 0x386 JUMP JUMPDEST DUP3 DUP1 ADD PUSH1 0x1 ADD DUP6 SSTORE DUP3 ISZERO PUSH2 0x386 JUMPI SWAP2 DUP3 ADD JUMPDEST DUP3 DUP2 GT ISZERO PUSH2 0x385 JUMPI DUP3 MLOAD DUP3 SSTORE SWAP2 PUSH1 0x20 ADD SWAP2 SWAP1 PUSH1 0x1 ADD SWAP1 PUSH2 0x36A JUMP JUMPDEST JUMPDEST POP SWAP1 POP PUSH2 0x393 SWAP2 SWAP1 PUSH2 0x397 JUMP JUMPDEST POP SWAP1 JUMP JUMPDEST JUMPDEST DUP1 DUP3 GT ISZERO PUSH2 0x3B0 JUMPI PUSH1 0x0 DUP2 PUSH1 0x0 SWAP1 SSTORE POP PUSH1 0x1 ADD PUSH2 0x398 JUMP JUMPDEST POP SWAP1 JUMP JUMPDEST PUSH1 0x0 DUP1 DUP4 PUSH1 0x1F DUP5 ADD SLT PUSH2 0x3CA JUMPI PUSH2 0x3C9 PUSH2 0x6C0 JUMP JUMPDEST JUMPDEST DUP3 CALLDATALOAD SWAP1 POP PUSH8 0xFFFFFFFFFFFFFFFF DUP2 GT ISZERO PUSH2 0x3E7 JUMPI PUSH2 0x3E6 PUSH2 0x6BB JUMP JUMPDEST JUMPDEST PUSH1 0x20 DUP4 ADD SWAP2 POP DUP4 PUSH1 0x1 DUP3 MUL DUP4 ADD GT ISZERO PUSH2 0x403 JUMPI PUSH2 0x402 PUSH2 0x6C5 JUMP JUMPDEST JUMPDEST SWAP3 POP SWAP3 SWAP1 POP JUMP JUMPDEST PUSH1 0x0 DUP2 CALLDATALOAD SWAP1 POP PUSH2 0x419 DUP2 PUSH2 0x6E5 JUMP JUMPDEST SWAP3 SWAP2 POP POP JUMP JUMPDEST PUSH1 0x0 PUSH1 0x20 DUP3 DUP5 SUB SLT ISZERO PUSH2 0x435 JUMPI PUSH2 0x434 PUSH2 0x6CF JUMP JUMPDEST JUMPDEST PUSH1 0x0 PUSH2 0x443 DUP5 DUP3 DUP6 ADD PUSH2 0x40A JUMP JUMPDEST SWAP2 POP POP SWAP3 SWAP2 POP POP JUMP JUMPDEST PUSH1 0x0 DUP1 PUSH1 0x0 DUP1 PUSH1 0x0 PUSH1 0x60 DUP7 DUP9 SUB SLT ISZERO PUSH2 0x468 JUMPI PUSH2 0x467 PUSH2 0x6CF JUMP JUMPDEST JUMPDEST PUSH1 0x0 PUSH2 0x476 DUP9 DUP3 DUP10 ADD PUSH2 0x40A JUMP JUMPDEST SWAP6 POP POP PUSH1 0x20 DUP7 ADD CALLDATALOAD PUSH8 0xFFFFFFFFFFFFFFFF DUP2 GT ISZERO PUSH2 0x497 JUMPI PUSH2 0x496 PUSH2 0x6CA JUMP JUMPDEST JUMPDEST PUSH2 0x4A3 DUP9 DUP3 DUP10 ADD PUSH2 0x3B4 JUMP JUMPDEST SWAP5 POP SWAP5 POP POP PUSH1 0x40 DUP7 ADD CALLDATALOAD PUSH8 0xFFFFFFFFFFFFFFFF DUP2 GT ISZERO PUSH2 0x4C6 JUMPI PUSH2 0x4C5 PUSH2 0x6CA JUMP JUMPDEST JUMPDEST PUSH2 0x4D2 DUP9 DUP3 DUP10 ADD PUSH2 0x3B4 JUMP JUMPDEST SWAP3 POP SWAP3 POP POP SWAP3 SWAP6 POP SWAP3 SWAP6 SWAP1 SWAP4 POP JUMP JUMPDEST PUSH1 0x0 PUSH2 0x4EC DUP3 PUSH2 0x5F0 JUMP JUMPDEST PUSH2 0x4F6 DUP2 DUP6 PUSH2 0x5FB JUMP JUMPDEST SWAP4 POP PUSH2 0x506 DUP2 DUP6 PUSH1 0x20 DUP7 ADD PUSH2 0x627 JUMP JUMPDEST PUSH2 0x50F DUP2 PUSH2 0x6D4 JUMP JUMPDEST DUP5 ADD SWAP2 POP POP SWAP3 SWAP2 POP POP JUMP JUMPDEST PUSH1 0x0 PUSH2 0x525 DUP3 PUSH2 0x5F0 JUMP JUMPDEST PUSH2 0x52F DUP2 DUP6 PUSH2 0x60C JUMP JUMPDEST SWAP4 POP PUSH2 0x53F DUP2 DUP6 PUSH1 0x20 DUP7 ADD PUSH2 0x627 JUMP JUMPDEST PUSH2 0x548 DUP2 PUSH2 0x6D4 JUMP JUMPDEST DUP5 ADD SWAP2 POP POP SWAP3 SWAP2 POP POP JUMP JUMPDEST PUSH1 0x0 PUSH1 0x40 DUP4 ADD PUSH1 0x0 DUP4 ADD MLOAD DUP5 DUP3 SUB PUSH1 0x0 DUP7 ADD MSTORE PUSH2 0x570 DUP3 DUP3 PUSH2 0x4E1 JUMP JUMPDEST SWAP2 POP POP PUSH1 0x20 DUP4 ADD MLOAD DUP5 DUP3 SUB PUSH1 0x20 DUP7 ADD MSTORE PUSH2 0x58A DUP3 DUP3 PUSH2 0x4E1 JUMP JUMPDEST SWAP2 POP POP DUP1 SWAP2 POP POP SWAP3 SWAP2 POP POP JUMP JUMPDEST PUSH1 0x0 PUSH1 0x40 DUP3 ADD SWAP1 POP DUP2 DUP2 SUB PUSH1 0x0 DUP4 ADD MSTORE PUSH2 0x5B1 DUP2 DUP6 PUSH2 0x51A JUMP JUMPDEST SWAP1 POP DUP2 DUP2 SUB PUSH1 0x20 DUP4 ADD MSTORE PUSH2 0x5C5 DUP2 DUP5 PUSH2 0x51A JUMP JUMPDEST SWAP1 POP SWAP4 SWAP3 POP POP POP JUMP JUMPDEST PUSH1 0x0 PUSH1 0x20 DUP3 ADD SWAP1 POP DUP2 DUP2 SUB PUSH1 0x0 DUP4 ADD MSTORE PUSH2 0x5E8 DUP2 DUP5 PUSH2 0x553 JUMP JUMPDEST SWAP1 POP SWAP3 SWAP2 POP POP JUMP JUMPDEST PUSH1 0x0 DUP2 MLOAD SWAP1 POP SWAP2 SWAP1 POP JUMP JUMPDEST PUSH1 0x0 DUP3 DUP3 MSTORE PUSH1 0x20 DUP3 ADD SWAP1 POP SWAP3 SWAP2 POP POP JUMP JUMPDEST PUSH1 0x0 DUP3 DUP3 MSTORE PUSH1 0x20 DUP3 ADD SWAP1 POP SWAP3 SWAP2 POP POP JUMP JUMPDEST PUSH1 0x0 DUP2 SWAP1 POP SWAP2 SWAP1 POP JUMP JUMPDEST PUSH1 0x0 JUMPDEST DUP4 DUP2 LT ISZERO PUSH2 0x645 JUMPI DUP1 DUP3 ADD MLOAD DUP2 DUP5 ADD MSTORE PUSH1 0x20 DUP2 ADD SWAP1 POP PUSH2 0x62A JUMP JUMPDEST DUP4 DUP2 GT ISZERO PUSH2 0x654 JUMPI PUSH1 0x0 DUP5 DUP5 ADD MSTORE JUMPDEST POP POP POP POP JUMP JUMPDEST PUSH1 0x0 PUSH1 0x2 DUP3 DIV SWAP1 POP PUSH1 0x1 DUP3 AND DUP1 PUSH2 0x672 JUMPI PUSH1 0x7F DUP3 AND SWAP2 POP JUMPDEST PUSH1 0x20 DUP3 LT DUP2 EQ ISZERO PUSH2 0x686 JUMPI PUSH2 0x685 PUSH2 0x68C JUMP JUMPDEST JUMPDEST POP SWAP2 SWAP1 POP JUMP JUMPDEST PUSH32 0x4E487B7100000000000000000000000000000000000000000000000000000000 PUSH1 0x0 MSTORE PUSH1 0x22 PUSH1 0x4 MSTORE PUSH1 0x24 PUSH1 0x0 REVERT JUMPDEST PUSH1 0x0 DUP1 REVERT JUMPDEST PUSH1 0x0 DUP1 REVERT JUMPDEST PUSH1 0x0 DUP1 REVERT JUMPDEST PUSH1 0x0 DUP1 REVERT JUMPDEST PUSH1 0x0 DUP1 REVERT JUMPDEST PUSH1 0x0 PUSH1 0x1F NOT PUSH1 0x1F DUP4 ADD AND SWAP1 POP SWAP2 SWAP1 POP JUMP JUMPDEST PUSH2 0x6EE DUP2 PUSH2 0x61D JUMP JUMPDEST DUP2 EQ PUSH2 0x6F9 JUMPI PUSH1 0x0 DUP1 REVERT JUMPDEST POP JUMP INVALID LOG2 PUSH5 0x6970667358 0x22 SLT KECCAK256 STATICCALL DUP7 LOG1 0xC3 0x23 SWAP8 PUSH6 0x9D89FF35DE7D 0xAE PUSH28 0xCAE1ACC96E098187CBEA7E898288E128EB64736F6C63430008070033 "
				},
				"gasEstimates": {
					"creation": {
						"codeDepositCost": "368400",
						"executionCost": "405",
						"totalCost": "368805"
					},
					"external": {
						"addMovie(uint256,string,string)": "infinite",
						"getMovie(uint256)": "infinite",
						"movies(uint256)": "infinite"
					}
				},
				"methodIdentifiers": {
					"addMovie(uint256,string,string)": "f40f48c9",
					"getMovie(uint256)": "179ffe76",
					"movies(uint256)": "404ebf6c"
				}
			},
			"storageLayout": {
				"storage": [
					{
						"astId": 11,
						"contract": "contracts/11_mapping.sol:LearnMapping",
						"label": "movies",
						"offset": 0,
						"slot": "0",
						"type": "t_mapping(t_uint256,t_struct(Movie)6_storage)"
					}
				],
				"types": {
					"t_mapping(t_uint256,t_struct(Movie)6_storage)": {
						"encoding": "mapping",
						"key": "t_uint256",
						"label": "mapping(uint256 => struct LearnMapping.Movie)",
						"numberOfBytes": "32",
						"value": "t_struct(Movie)6_storage"
					},
					"t_string_storage": {
						"encoding": "bytes",
						"label": "string",
						"numberOfBytes": "32"
					},
					"t_struct(Movie)6_storage": {
						"encoding": "inplace",
						"label": "struct LearnMapping.Movie",
						"members": [
							{
								"astId": 3,
								"contract": "contracts/11_mapping.sol:LearnMapping",
								"label": "title",
								"offset": 0,
								"slot": "0",
								"type": "t_string_storage"
							},
							{
								"astId": 5,
								"contract": "contracts/11_mapping.sol:LearnMapping",
								"label": "director",
								"offset": 0,
								"slot": "1",
								"type": "t_string_storage"
							}
						],
						"numberOfBytes": "64"
					},
					"t_uint256": {
						"encoding": "inplace",
						"label": "uint256",
						"numberOfBytes": "32"
					}
				}
			},
			"userdoc": {
				"kind": "user",
				"methods": {},
				"version": 1
			}
		}
	}
}