{
	"contracts/10_structs.sol": {
		"LearnStruct": {
			"abi": [
				{
					"inputs": [],
					"name": "getMovie",
					"outputs": [
						{
							"components": [
								{
									"internalType": "string",
									"name": "title",
									"type": "string"
								},
								{
									"internalType": "string",
									"name": "director",
									"type": "string"
								},
								{
									"internalType": "uint256",
									"name": "id",
									"type": "uint256"
								}
							],
							"internalType": "struct LearnStruct.Movie",
							"name": "",
							"type": "tuple"
						}
					],
					"stateMutability": "view",
					"type": "function"
				},
				{
					"inputs": [],
					"name": "getMovieId",
					"outputs": [
						{
							"internalType": "uint256",
							"name": "",
							"type": "uint256"
						}
					],
					"stateMutability": "view",
					"type": "function"
				},
				{
					"inputs": [],
					"name": "setMovie",
					"outputs": [],
					"stateMutability": "nonpayable",
					"type": "function"
				}
			],
			"devdoc": {
				"kind": "dev",
				"methods": {},
				"version": 1
			},
			"evm": {
				"assembly": "    /* \"contracts/10_structs.sol\":67:474  contract LearnStruct {... */\n  mstore(0x40, 0x80)\n  callvalue\n  dup1\n  iszero\n  tag_1\n  jumpi\n  0x00\n  dup1\n  revert\ntag_1:\n  pop\n  dataSize(sub_0)\n  dup1\n  dataOffset(sub_0)\n  0x00\n  codecopy\n  0x00\n  return\nstop\n\nsub_0: assembly {\n        /* \"contracts/10_structs.sol\":67:474  contract LearnStruct {... */\n      mstore(0x40, 0x80)\n      callvalue\n      dup1\n      iszero\n      tag_1\n      jumpi\n      0x00\n      dup1\n      revert\n    tag_1:\n      pop\n      jumpi(tag_2, lt(calldatasize, 0x04))\n      shr(0xe0, calldataload(0x00))\n      dup1\n      0x36dcabe0\n      eq\n      tag_3\n      jumpi\n      dup1\n      0x7b5f4eef\n      eq\n      tag_4\n      jumpi\n      dup1\n      0xf6bb33b1\n      eq\n      tag_5\n      jumpi\n    tag_2:\n      0x00\n      dup1\n      revert\n        /* \"contracts/10_structs.sol\":391:472  function getMovieId() public view returns (uint) {... */\n    tag_3:\n      tag_6\n      tag_7\n      jump\t// in\n    tag_6:\n      mload(0x40)\n      tag_8\n      swap2\n      swap1\n      tag_9\n      jump\t// in\n    tag_8:\n      mload(0x40)\n      dup1\n      swap2\n      sub\n      swap1\n      return\n        /* \"contracts/10_structs.sol\":301:385  function getMovie() public view returns (Movie memory) {... */\n    tag_4:\n      tag_10\n      tag_11\n      jump\t// in\n    tag_10:\n      mload(0x40)\n      tag_12\n      swap2\n      swap1\n      tag_13\n      jump\t// in\n    tag_12:\n      mload(0x40)\n      dup1\n      swap2\n      sub\n      swap1\n      return\n        /* \"contracts/10_structs.sol\":202:295  function setMovie() public {... */\n    tag_5:\n      tag_14\n      tag_15\n      jump\t// in\n    tag_14:\n      stop\n        /* \"contracts/10_structs.sol\":391:472  function getMovieId() public view returns (uint) {... */\n    tag_7:\n        /* \"contracts/10_structs.sol\":434:438  uint */\n      0x00\n        /* \"contracts/10_structs.sol\":457:462  movie */\n      dup1\n        /* \"contracts/10_structs.sol\":457:465  movie.id */\n      0x02\n      add\n      sload\n        /* \"contracts/10_structs.sol\":450:465  return movie.id */\n      swap1\n      pop\n        /* \"contracts/10_structs.sol\":391:472  function getMovieId() public view returns (uint) {... */\n      swap1\n      jump\t// out\n        /* \"contracts/10_structs.sol\":301:385  function getMovie() public view returns (Movie memory) {... */\n    tag_11:\n        /* \"contracts/10_structs.sol\":342:354  Movie memory */\n      tag_17\n      tag_18\n      jump\t// in\n    tag_17:\n        /* \"contracts/10_structs.sol\":373:378  movie */\n      0x00\n        /* \"contracts/10_structs.sol\":366:378  return movie */\n      mload(0x40)\n      dup1\n      0x60\n      add\n      0x40\n      mstore\n      swap1\n      dup2\n      0x00\n      dup3\n      add\n      dup1\n      sload\n      tag_20\n      swap1\n      tag_21\n      jump\t// in\n    tag_20:\n      dup1\n      0x1f\n      add\n      0x20\n      dup1\n      swap2\n      div\n      mul\n      0x20\n      add\n      mload(0x40)\n      swap1\n      dup2\n      add\n      0x40\n      mstore\n      dup1\n      swap3\n      swap2\n      swap1\n      dup2\n      dup2\n      mstore\n      0x20\n      add\n      dup3\n      dup1\n      sload\n      tag_22\n      swap1\n      tag_21\n      jump\t// in\n    tag_22:\n      dup1\n      iszero\n      tag_23\n      jumpi\n      dup1\n      0x1f\n      lt\n      tag_24\n      jumpi\n      0x0100\n      dup1\n      dup4\n      sload\n      div\n      mul\n      dup4\n      mstore\n      swap2\n      0x20\n      add\n      swap2\n      jump(tag_23)\n    tag_24:\n      dup3\n      add\n      swap2\n      swap1\n      0x00\n      mstore\n      keccak256(0x00, 0x20)\n      swap1\n    tag_25:\n      dup2\n      sload\n      dup2\n      mstore\n      swap1\n      0x01\n      add\n      swap1\n      0x20\n      add\n      dup1\n      dup4\n      gt\n      tag_25\n      jumpi\n      dup3\n      swap1\n      sub\n      0x1f\n      and\n      dup3\n      add\n      swap2\n    tag_23:\n      pop\n      pop\n      pop\n      pop\n      pop\n      dup2\n      mstore\n      0x20\n      add\n      0x01\n      dup3\n      add\n      dup1\n      sload\n      tag_26\n      swap1\n      tag_21\n      jump\t// in\n    tag_26:\n      dup1\n      0x1f\n      add\n      0x20\n      dup1\n      swap2\n      div\n      mul\n      0x20\n      add\n      mload(0x40)\n      swap1\n      dup2\n      add\n      0x40\n      mstore\n      dup1\n      swap3\n      swap2\n      swap1\n      dup2\n      dup2\n      mstore\n      0x20\n      add\n      dup3\n      dup1\n      sload\n      tag_27\n      swap1\n      tag_21\n      jump\t// in\n    tag_27:\n      dup1\n      iszero\n      tag_28\n      jumpi\n      dup1\n      0x1f\n      lt\n      tag_29\n      jumpi\n      0x0100\n      dup1\n      dup4\n      sload\n      div\n      mul\n      dup4\n      mstore\n      swap2\n      0x20\n      add\n      swap2\n      jump(tag_28)\n    tag_29:\n      dup3\n      add\n      swap2\n      swap1\n      0x00\n      mstore\n      keccak256(0x00, 0x20)\n      swap1\n    tag_30:\n      dup2\n      sload\n      dup2\n      mstore\n      swap1\n      0x01\n      add\n      swap1\n      0x20\n      add\n      dup1\n      dup4\n      gt\n      tag_30\n      jumpi\n      dup3\n      swap1\n      sub\n      0x1f\n      and\n      dup3\n      add\n      swap2\n    tag_28:\n      pop\n      pop\n      pop\n      pop\n      pop\n      dup2\n      mstore\n      0x20\n      add\n      0x02\n      dup3\n      add\n      sload\n      dup2\n      mstore\n      pop\n      pop\n      swap1\n      pop\n        /* \"contracts/10_structs.sol\":301:385  function getMovie() public view returns (Movie memory) {... */\n      swap1\n      jump\t// out\n        /* \"contracts/10_structs.sol\":202:295  function setMovie() public {... */\n    tag_15:\n        /* \"contracts/10_structs.sol\":247:288  Movie(\"Blade Runner\", \"Louie Foronda\", 1) */\n      mload(0x40)\n      dup1\n      0x60\n      add\n      0x40\n      mstore\n      dup1\n      mload(0x40)\n      dup1\n      0x40\n      add\n      0x40\n      mstore\n      dup1\n      0x0c\n      dup2\n      mstore\n      0x20\n      add\n      0x426c6164652052756e6e65720000000000000000000000000000000000000000\n      dup2\n      mstore\n      pop\n      dup2\n      mstore\n      0x20\n      add\n      mload(0x40)\n      dup1\n      0x40\n      add\n      0x40\n      mstore\n      dup1\n      0x0d\n      dup2\n      mstore\n      0x20\n      add\n      0x4c6f75696520466f726f6e646100000000000000000000000000000000000000\n      dup2\n      mstore\n      pop\n      dup2\n      mstore\n      0x20\n      add\n        /* \"contracts/10_structs.sol\":286:287  1 */\n      0x01\n        /* \"contracts/10_structs.sol\":247:288  Movie(\"Blade Runner\", \"Louie Foronda\", 1) */\n      dup2\n      mstore\n      pop\n        /* \"contracts/10_structs.sol\":239:244  movie */\n      0x00\n        /* \"contracts/10_structs.sol\":239:288  movie = Movie(\"Blade Runner\", \"Louie Foronda\", 1) */\n      dup1\n      dup3\n      add\n      mload\n      dup2\n      0x00\n      add\n      swap1\n      dup1\n      mload\n      swap1\n      0x20\n      add\n      swap1\n      tag_32\n      swap3\n      swap2\n      swap1\n      tag_33\n      jump\t// in\n    tag_32:\n      pop\n      0x20\n      dup3\n      add\n      mload\n      dup2\n      0x01\n      add\n      swap1\n      dup1\n      mload\n      swap1\n      0x20\n      add\n      swap1\n      tag_34\n      swap3\n      swap2\n      swap1\n      tag_33\n      jump\t// in\n    tag_34:\n      pop\n      0x40\n      dup3\n      add\n      mload\n      dup2\n      0x02\n      add\n      sstore\n      swap1\n      pop\n      pop\n        /* \"contracts/10_structs.sol\":202:295  function setMovie() public {... */\n      jump\t// out\n    tag_18:\n      mload(0x40)\n      dup1\n      0x60\n      add\n      0x40\n      mstore\n      dup1\n      0x60\n      dup2\n      mstore\n      0x20\n      add\n      0x60\n      dup2\n      mstore\n      0x20\n      add\n      0x00\n      dup2\n      mstore\n      pop\n      swap1\n      jump\t// out\n    tag_33:\n      dup3\n      dup1\n      sload\n      tag_35\n      swap1\n      tag_21\n      jump\t// in\n    tag_35:\n      swap1\n      0x00\n      mstore\n      keccak256(0x00, 0x20)\n      swap1\n      0x1f\n      add\n      0x20\n      swap1\n      div\n      dup2\n      add\n      swap3\n      dup3\n      tag_37\n      jumpi\n      0x00\n      dup6\n      sstore\n      jump(tag_36)\n    tag_37:\n      dup3\n      0x1f\n      lt\n      tag_38\n      jumpi\n      dup1\n      mload\n      not(0xff)\n      and\n      dup4\n      dup1\n      add\n      or\n      dup6\n      sstore\n      jump(tag_36)\n    tag_38:\n      dup3\n      dup1\n      add\n      0x01\n      add\n      dup6\n      sstore\n      dup3\n      iszero\n      tag_36\n      jumpi\n      swap2\n      dup3\n      add\n    tag_39:\n      dup3\n      dup2\n      gt\n      iszero\n      tag_40\n      jumpi\n      dup3\n      mload\n      dup3\n      sstore\n      swap2\n      0x20\n      add\n      swap2\n      swap1\n      0x01\n      add\n      swap1\n      jump(tag_39)\n    tag_40:\n    tag_36:\n      pop\n      swap1\n      pop\n      tag_41\n      swap2\n      swap1\n      tag_42\n      jump\t// in\n    tag_41:\n      pop\n      swap1\n      jump\t// out\n    tag_42:\n    tag_43:\n      dup1\n      dup3\n      gt\n      iszero\n      tag_44\n      jumpi\n      0x00\n      dup2\n      0x00\n      swap1\n      sstore\n      pop\n      0x01\n      add\n      jump(tag_43)\n    tag_44:\n      pop\n      swap1\n      jump\t// out\n        /* \"#utility.yul\":7:351   */\n    tag_46:\n        /* \"#utility.yul\":85:88   */\n      0x00\n        /* \"#utility.yul\":113:152   */\n      tag_48\n        /* \"#utility.yul\":146:151   */\n      dup3\n        /* \"#utility.yul\":113:152   */\n      tag_49\n      jump\t// in\n    tag_48:\n        /* \"#utility.yul\":168:229   */\n      tag_50\n        /* \"#utility.yul\":222:228   */\n      dup2\n        /* \"#utility.yul\":217:220   */\n      dup6\n        /* \"#utility.yul\":168:229   */\n      tag_51\n      jump\t// in\n    tag_50:\n        /* \"#utility.yul\":161:229   */\n      swap4\n      pop\n        /* \"#utility.yul\":238:290   */\n      tag_52\n        /* \"#utility.yul\":283:289   */\n      dup2\n        /* \"#utility.yul\":278:281   */\n      dup6\n        /* \"#utility.yul\":271:275   */\n      0x20\n        /* \"#utility.yul\":264:269   */\n      dup7\n        /* \"#utility.yul\":260:276   */\n      add\n        /* \"#utility.yul\":238:290   */\n      tag_53\n      jump\t// in\n    tag_52:\n        /* \"#utility.yul\":315:344   */\n      tag_54\n        /* \"#utility.yul\":337:343   */\n      dup2\n        /* \"#utility.yul\":315:344   */\n      tag_55\n      jump\t// in\n    tag_54:\n        /* \"#utility.yul\":310:313   */\n      dup5\n        /* \"#utility.yul\":306:345   */\n      add\n        /* \"#utility.yul\":299:345   */\n      swap2\n      pop\n        /* \"#utility.yul\":89:351   */\n      pop\n        /* \"#utility.yul\":7:351   */\n      swap3\n      swap2\n      pop\n      pop\n      jump\t// out\n        /* \"#utility.yul\":417:1261   */\n    tag_56:\n        /* \"#utility.yul\":526:529   */\n      0x00\n        /* \"#utility.yul\":562:566   */\n      0x60\n        /* \"#utility.yul\":557:560   */\n      dup4\n        /* \"#utility.yul\":553:567   */\n      add\n        /* \"#utility.yul\":650:654   */\n      0x00\n        /* \"#utility.yul\":643:648   */\n      dup4\n        /* \"#utility.yul\":639:655   */\n      add\n        /* \"#utility.yul\":633:656   */\n      mload\n        /* \"#utility.yul\":703:706   */\n      dup5\n        /* \"#utility.yul\":697:701   */\n      dup3\n        /* \"#utility.yul\":693:707   */\n      sub\n        /* \"#utility.yul\":686:690   */\n      0x00\n        /* \"#utility.yul\":681:684   */\n      dup7\n        /* \"#utility.yul\":677:691   */\n      add\n        /* \"#utility.yul\":670:708   */\n      mstore\n        /* \"#utility.yul\":729:802   */\n      tag_58\n        /* \"#utility.yul\":797:801   */\n      dup3\n        /* \"#utility.yul\":783:795   */\n      dup3\n        /* \"#utility.yul\":729:802   */\n      tag_46\n      jump\t// in\n    tag_58:\n        /* \"#utility.yul\":721:802   */\n      swap2\n      pop\n        /* \"#utility.yul\":577:813   */\n      pop\n        /* \"#utility.yul\":899:903   */\n      0x20\n        /* \"#utility.yul\":892:897   */\n      dup4\n        /* \"#utility.yul\":888:904   */\n      add\n        /* \"#utility.yul\":882:905   */\n      mload\n        /* \"#utility.yul\":952:955   */\n      dup5\n        /* \"#utility.yul\":946:950   */\n      dup3\n        /* \"#utility.yul\":942:956   */\n      sub\n        /* \"#utility.yul\":935:939   */\n      0x20\n        /* \"#utility.yul\":930:933   */\n      dup7\n        /* \"#utility.yul\":926:940   */\n      add\n        /* \"#utility.yul\":919:957   */\n      mstore\n        /* \"#utility.yul\":978:1051   */\n      tag_59\n        /* \"#utility.yul\":1046:1050   */\n      dup3\n        /* \"#utility.yul\":1032:1044   */\n      dup3\n        /* \"#utility.yul\":978:1051   */\n      tag_46\n      jump\t// in\n    tag_59:\n        /* \"#utility.yul\":970:1051   */\n      swap2\n      pop\n        /* \"#utility.yul\":823:1062   */\n      pop\n        /* \"#utility.yul\":1142:1146   */\n      0x40\n        /* \"#utility.yul\":1135:1140   */\n      dup4\n        /* \"#utility.yul\":1131:1147   */\n      add\n        /* \"#utility.yul\":1125:1148   */\n      mload\n        /* \"#utility.yul\":1161:1224   */\n      tag_60\n        /* \"#utility.yul\":1218:1222   */\n      0x40\n        /* \"#utility.yul\":1213:1216   */\n      dup7\n        /* \"#utility.yul\":1209:1223   */\n      add\n        /* \"#utility.yul\":1195:1207   */\n      dup3\n        /* \"#utility.yul\":1161:1224   */\n      tag_61\n      jump\t// in\n    tag_60:\n        /* \"#utility.yul\":1072:1234   */\n      pop\n        /* \"#utility.yul\":1251:1255   */\n      dup1\n        /* \"#utility.yul\":1244:1255   */\n      swap2\n      pop\n        /* \"#utility.yul\":531:1261   */\n      pop\n        /* \"#utility.yul\":417:1261   */\n      swap3\n      swap2\n      pop\n      pop\n      jump\t// out\n        /* \"#utility.yul\":1267:1375   */\n    tag_61:\n        /* \"#utility.yul\":1344:1368   */\n      tag_63\n        /* \"#utility.yul\":1362:1367   */\n      dup2\n        /* \"#utility.yul\":1344:1368   */\n      tag_64\n      jump\t// in\n    tag_63:\n        /* \"#utility.yul\":1339:1342   */\n      dup3\n        /* \"#utility.yul\":1332:1369   */\n      mstore\n        /* \"#utility.yul\":1267:1375   */\n      pop\n      pop\n      jump\t// out\n        /* \"#utility.yul\":1381:1499   */\n    tag_65:\n        /* \"#utility.yul\":1468:1492   */\n      tag_67\n        /* \"#utility.yul\":1486:1491   */\n      dup2\n        /* \"#utility.yul\":1468:1492   */\n      tag_64\n      jump\t// in\n    tag_67:\n        /* \"#utility.yul\":1463:1466   */\n      dup3\n        /* \"#utility.yul\":1456:1493   */\n      mstore\n        /* \"#utility.yul\":1381:1499   */\n      pop\n      pop\n      jump\t// out\n        /* \"#utility.yul\":1505:1858   */\n    tag_13:\n        /* \"#utility.yul\":1638:1642   */\n      0x00\n        /* \"#utility.yul\":1676:1678   */\n      0x20\n        /* \"#utility.yul\":1665:1674   */\n      dup3\n        /* \"#utility.yul\":1661:1679   */\n      add\n        /* \"#utility.yul\":1653:1679   */\n      swap1\n      pop\n        /* \"#utility.yul\":1725:1734   */\n      dup2\n        /* \"#utility.yul\":1719:1723   */\n      dup2\n        /* \"#utility.yul\":1715:1735   */\n      sub\n        /* \"#utility.yul\":1711:1712   */\n      0x00\n        /* \"#utility.yul\":1700:1709   */\n      dup4\n        /* \"#utility.yul\":1696:1713   */\n      add\n        /* \"#utility.yul\":1689:1736   */\n      mstore\n        /* \"#utility.yul\":1753:1851   */\n      tag_69\n        /* \"#utility.yul\":1846:1850   */\n      dup2\n        /* \"#utility.yul\":1837:1843   */\n      dup5\n        /* \"#utility.yul\":1753:1851   */\n      tag_56\n      jump\t// in\n    tag_69:\n        /* \"#utility.yul\":1745:1851   */\n      swap1\n      pop\n        /* \"#utility.yul\":1505:1858   */\n      swap3\n      swap2\n      pop\n      pop\n      jump\t// out\n        /* \"#utility.yul\":1864:2086   */\n    tag_9:\n        /* \"#utility.yul\":1957:1961   */\n      0x00\n        /* \"#utility.yul\":1995:1997   */\n      0x20\n        /* \"#utility.yul\":1984:1993   */\n      dup3\n        /* \"#utility.yul\":1980:1998   */\n      add\n        /* \"#utility.yul\":1972:1998   */\n      swap1\n      pop\n        /* \"#utility.yul\":2008:2079   */\n      tag_71\n        /* \"#utility.yul\":2076:2077   */\n      0x00\n        /* \"#utility.yul\":2065:2074   */\n      dup4\n        /* \"#utility.yul\":2061:2078   */\n      add\n        /* \"#utility.yul\":2052:2058   */\n      dup5\n        /* \"#utility.yul\":2008:2079   */\n      tag_65\n      jump\t// in\n    tag_71:\n        /* \"#utility.yul\":1864:2086   */\n      swap3\n      swap2\n      pop\n      pop\n      jump\t// out\n        /* \"#utility.yul\":2092:2191   */\n    tag_49:\n        /* \"#utility.yul\":2144:2150   */\n      0x00\n        /* \"#utility.yul\":2178:2183   */\n      dup2\n        /* \"#utility.yul\":2172:2184   */\n      mload\n        /* \"#utility.yul\":2162:2184   */\n      swap1\n      pop\n        /* \"#utility.yul\":2092:2191   */\n      swap2\n      swap1\n      pop\n      jump\t// out\n        /* \"#utility.yul\":2197:2356   */\n    tag_51:\n        /* \"#utility.yul\":2271:2282   */\n      0x00\n        /* \"#utility.yul\":2305:2311   */\n      dup3\n        /* \"#utility.yul\":2300:2303   */\n      dup3\n        /* \"#utility.yul\":2293:2312   */\n      mstore\n        /* \"#utility.yul\":2345:2349   */\n      0x20\n        /* \"#utility.yul\":2340:2343   */\n      dup3\n        /* \"#utility.yul\":2336:2350   */\n      add\n        /* \"#utility.yul\":2321:2350   */\n      swap1\n      pop\n        /* \"#utility.yul\":2197:2356   */\n      swap3\n      swap2\n      pop\n      pop\n      jump\t// out\n        /* \"#utility.yul\":2362:2439   */\n    tag_64:\n        /* \"#utility.yul\":2399:2406   */\n      0x00\n        /* \"#utility.yul\":2428:2433   */\n      dup2\n        /* \"#utility.yul\":2417:2433   */\n      swap1\n      pop\n        /* \"#utility.yul\":2362:2439   */\n      swap2\n      swap1\n      pop\n      jump\t// out\n        /* \"#utility.yul\":2445:2752   */\n    tag_53:\n        /* \"#utility.yul\":2513:2514   */\n      0x00\n        /* \"#utility.yul\":2523:2636   */\n    tag_76:\n        /* \"#utility.yul\":2537:2543   */\n      dup4\n        /* \"#utility.yul\":2534:2535   */\n      dup2\n        /* \"#utility.yul\":2531:2544   */\n      lt\n        /* \"#utility.yul\":2523:2636   */\n      iszero\n      tag_78\n      jumpi\n        /* \"#utility.yul\":2622:2623   */\n      dup1\n        /* \"#utility.yul\":2617:2620   */\n      dup3\n        /* \"#utility.yul\":2613:2624   */\n      add\n        /* \"#utility.yul\":2607:2625   */\n      mload\n        /* \"#utility.yul\":2603:2604   */\n      dup2\n        /* \"#utility.yul\":2598:2601   */\n      dup5\n        /* \"#utility.yul\":2594:2605   */\n      add\n        /* \"#utility.yul\":2587:2626   */\n      mstore\n        /* \"#utility.yul\":2559:2561   */\n      0x20\n        /* \"#utility.yul\":2556:2557   */\n      dup2\n        /* \"#utility.yul\":2552:2562   */\n      add\n        /* \"#utility.yul\":2547:2562   */\n      swap1\n      pop\n        /* \"#utility.yul\":2523:2636   */\n      jump(tag_76)\n    tag_78:\n        /* \"#utility.yul\":2654:2660   */\n      dup4\n        /* \"#utility.yul\":2651:2652   */\n      dup2\n        /* \"#utility.yul\":2648:2661   */\n      gt\n        /* \"#utility.yul\":2645:2746   */\n      iszero\n      tag_79\n      jumpi\n        /* \"#utility.yul\":2734:2735   */\n      0x00\n        /* \"#utility.yul\":2725:2731   */\n      dup5\n        /* \"#utility.yul\":2720:2723   */\n      dup5\n        /* \"#utility.yul\":2716:2732   */\n      add\n        /* \"#utility.yul\":2709:2736   */\n      mstore\n        /* \"#utility.yul\":2645:2746   */\n    tag_79:\n        /* \"#utility.yul\":2494:2752   */\n      pop\n        /* \"#utility.yul\":2445:2752   */\n      pop\n      pop\n      pop\n      jump\t// out\n        /* \"#utility.yul\":2758:3078   */\n    tag_21:\n        /* \"#utility.yul\":2802:2808   */\n      0x00\n        /* \"#utility.yul\":2839:2840   */\n      0x02\n        /* \"#utility.yul\":2833:2837   */\n      dup3\n        /* \"#utility.yul\":2829:2841   */\n      div\n        /* \"#utility.yul\":2819:2841   */\n      swap1\n      pop\n        /* \"#utility.yul\":2886:2887   */\n      0x01\n        /* \"#utility.yul\":2880:2884   */\n      dup3\n        /* \"#utility.yul\":2876:2888   */\n      and\n        /* \"#utility.yul\":2907:2925   */\n      dup1\n        /* \"#utility.yul\":2897:2978   */\n      tag_81\n      jumpi\n        /* \"#utility.yul\":2963:2967   */\n      0x7f\n        /* \"#utility.yul\":2955:2961   */\n      dup3\n        /* \"#utility.yul\":2951:2968   */\n      and\n        /* \"#utility.yul\":2941:2968   */\n      swap2\n      pop\n        /* \"#utility.yul\":2897:2978   */\n    tag_81:\n        /* \"#utility.yul\":3025:3027   */\n      0x20\n        /* \"#utility.yul\":3017:3023   */\n      dup3\n        /* \"#utility.yul\":3014:3028   */\n      lt\n        /* \"#utility.yul\":2994:3012   */\n      dup2\n        /* \"#utility.yul\":2991:3029   */\n      eq\n        /* \"#utility.yul\":2988:3072   */\n      iszero\n      tag_82\n      jumpi\n        /* \"#utility.yul\":3044:3062   */\n      tag_83\n      tag_84\n      jump\t// in\n    tag_83:\n        /* \"#utility.yul\":2988:3072   */\n    tag_82:\n        /* \"#utility.yul\":2809:3078   */\n      pop\n        /* \"#utility.yul\":2758:3078   */\n      swap2\n      swap1\n      pop\n      jump\t// out\n        /* \"#utility.yul\":3084:3264   */\n    tag_84:\n        /* \"#utility.yul\":3132:3209   */\n      0x4e487b7100000000000000000000000000000000000000000000000000000000\n        /* \"#utility.yul\":3129:3130   */\n      0x00\n        /* \"#utility.yul\":3122:3210   */\n      mstore\n        /* \"#utility.yul\":3229:3233   */\n      0x22\n        /* \"#utility.yul\":3226:3227   */\n      0x04\n        /* \"#utility.yul\":3219:3234   */\n      mstore\n        /* \"#utility.yul\":3253:3257   */\n      0x24\n        /* \"#utility.yul\":3250:3251   */\n      0x00\n        /* \"#utility.yul\":3243:3258   */\n      revert\n        /* \"#utility.yul\":3270:3372   */\n    tag_55:\n        /* \"#utility.yul\":3311:3317   */\n      0x00\n        /* \"#utility.yul\":3362:3364   */\n      0x1f\n        /* \"#utility.yul\":3358:3365   */\n      not\n        /* \"#utility.yul\":3353:3355   */\n      0x1f\n        /* \"#utility.yul\":3346:3351   */\n      dup4\n        /* \"#utility.yul\":3342:3356   */\n      add\n        /* \"#utility.yul\":3338:3366   */\n      and\n        /* \"#utility.yul\":3328:3366   */\n      swap1\n      pop\n        /* \"#utility.yul\":3270:3372   */\n      swap2\n      swap1\n      pop\n      jump\t// out\n\n    auxdata: 0xa2646970667358221220fdaf202ca49a9cc37b24a9d1217a10c288cbb4f61b9fdae2dbf1552943a00c8764736f6c63430008070033\n}\n",
				"bytecode": {
					"linkReferences": {},
					"object": "608060405234801561001057600080fd5b50610560806100206000396000f3fe608060405234801561001057600080fd5b50600436106100415760003560e01c806336dcabe0146100465780637b5f4eef14610064578063f6bb33b114610082575b600080fd5b61004e61008c565b60405161005b9190610444565b60405180910390f35b61006c610098565b6040516100799190610422565b60405180910390f35b61008a6101e0565b005b60008060020154905090565b6100a06102b0565b60006040518060600160405290816000820180546100bd906104b8565b80601f01602080910402602001604051908101604052809291908181526020018280546100e9906104b8565b80156101365780601f1061010b57610100808354040283529160200191610136565b820191906000526020600020905b81548152906001019060200180831161011957829003601f168201915b5050505050815260200160018201805461014f906104b8565b80601f016020809104026020016040519081016040528092919081815260200182805461017b906104b8565b80156101c85780601f1061019d576101008083540402835291602001916101c8565b820191906000526020600020905b8154815290600101906020018083116101ab57829003601f168201915b50505050508152602001600282015481525050905090565b60405180606001604052806040518060400160405280600c81526020017f426c6164652052756e6e6572000000000000000000000000000000000000000081525081526020016040518060400160405280600d81526020017f4c6f75696520466f726f6e646100000000000000000000000000000000000000815250815260200160018152506000808201518160000190805190602001906102839291906102d1565b5060208201518160010190805190602001906102a09291906102d1565b5060408201518160020155905050565b60405180606001604052806060815260200160608152602001600081525090565b8280546102dd906104b8565b90600052602060002090601f0160209004810192826102ff5760008555610346565b82601f1061031857805160ff1916838001178555610346565b82800160010185558215610346579182015b8281111561034557825182559160200191906001019061032a565b5b5090506103539190610357565b5090565b5b80821115610370576000816000905550600101610358565b5090565b600061037f8261045f565b610389818561046a565b9350610399818560208601610485565b6103a281610519565b840191505092915050565b600060608301600083015184820360008601526103ca8282610374565b915050602083015184820360208601526103e48282610374565b91505060408301516103f96040860182610404565b508091505092915050565b61040d8161047b565b82525050565b61041c8161047b565b82525050565b6000602082019050818103600083015261043c81846103ad565b905092915050565b60006020820190506104596000830184610413565b92915050565b600081519050919050565b600082825260208201905092915050565b6000819050919050565b60005b838110156104a3578082015181840152602081019050610488565b838111156104b2576000848401525b50505050565b600060028204905060018216806104d057607f821691505b602082108114156104e4576104e36104ea565b5b50919050565b7f4e487b7100000000000000000000000000000000000000000000000000000000600052602260045260246000fd5b6000601f19601f830116905091905056fea2646970667358221220fdaf202ca49a9cc37b24a9d1217a10c288cbb4f61b9fdae2dbf1552943a00c8764736f6c63430008070033",
					"opcodes": "PUSH1 0x80 PUSH1 0x40 MSTORE CALLVALUE DUP1 ISZERO PUSH2 0x10 JUMPI PUSH1 0x0 DUP1 REVERT JUMPDEST POP PUSH2 0x560 DUP1 PUSH2 0x20 PUSH1 0x0 CODECOPY PUSH1 0x0 RETURN INVALID PUSH1 0x80 PUSH1 0x40 MSTORE CALLVALUE DUP1 ISZERO PUSH2 0x10 JUMPI PUSH1 0x0 DUP1 REVERT JUMPDEST POP PUSH1 0x4 CALLDATASIZE LT PUSH2 0x41 JUMPI PUSH1 0x0 CALLDATALOAD PUSH1 0xE0 SHR DUP1 PUSH4 0x36DCABE0 EQ PUSH2 0x46 JUMPI DUP1 PUSH4 0x7B5F4EEF EQ PUSH2 0x64 JUMPI DUP1 PUSH4 0xF6BB33B1 EQ PUSH2 0x82 JUMPI JUMPDEST PUSH1 0x0 DUP1 REVERT JUMPDEST PUSH2 0x4E PUSH2 0x8C JUMP JUMPDEST PUSH1 0x40 MLOAD PUSH2 0x5B SWAP2 SWAP1 PUSH2 0x444 JUMP JUMPDEST PUSH1 0x40 MLOAD DUP1 SWAP2 SUB SWAP1 RETURN JUMPDEST PUSH2 0x6C PUSH2 0x98 JUMP JUMPDEST PUSH1 0x40 MLOAD PUSH2 0x79 SWAP2 SWAP1 PUSH2 0x422 JUMP JUMPDEST PUSH1 0x40 MLOAD DUP1 SWAP2 SUB SWAP1 RETURN JUMPDEST PUSH2 0x8A PUSH2 0x1E0 JUMP JUMPDEST STOP JUMPDEST PUSH1 0x0 DUP1 PUSH1 0x2 ADD SLOAD SWAP1 POP SWAP1 JUMP JUMPDEST PUSH2 0xA0 PUSH2 0x2B0 JUMP JUMPDEST PUSH1 0x0 PUSH1 0x40 MLOAD DUP1 PUSH1 0x60 ADD PUSH1 0x40 MSTORE SWAP1 DUP2 PUSH1 0x0 DUP3 ADD DUP1 SLOAD PUSH2 0xBD SWAP1 PUSH2 0x4B8 JUMP JUMPDEST DUP1 PUSH1 0x1F ADD PUSH1 0x20 DUP1 SWAP2 DIV MUL PUSH1 0x20 ADD PUSH1 0x40 MLOAD SWAP1 DUP2 ADD PUSH1 0x40 MSTORE DUP1 SWAP3 SWAP2 SWAP1 DUP2 DUP2 MSTORE PUSH1 0x20 ADD DUP3 DUP1 SLOAD PUSH2 0xE9 SWAP1 PUSH2 0x4B8 JUMP JUMPDEST DUP1 ISZERO PUSH2 0x136 JUMPI DUP1 PUSH1 0x1F LT PUSH2 0x10B JUMPI PUSH2 0x100 DUP1 DUP4 SLOAD DIV MUL DUP4 MSTORE SWAP2 PUSH1 0x20 ADD SWAP2 PUSH2 0x136 JUMP JUMPDEST DUP3 ADD SWAP2 SWAP1 PUSH1 0x0 MSTORE PUSH1 0x20 PUSH1 0x0 KECCAK256 SWAP1 JUMPDEST DUP2 SLOAD DUP2 MSTORE SWAP1 PUSH1 0x1 ADD SWAP1 PUSH1 0x20 ADD DUP1 DUP4 GT PUSH2 0x119 JUMPI DUP3 SWAP1 SUB PUSH1 0x1F AND DUP3 ADD SWAP2 JUMPDEST POP POP POP POP POP DUP2 MSTORE PUSH1 0x20 ADD PUSH1 0x1 DUP3 ADD DUP1 SLOAD PUSH2 0x14F SWAP1 PUSH2 0x4B8 JUMP JUMPDEST DUP1 PUSH1 0x1F ADD PUSH1 0x20 DUP1 SWAP2 DIV MUL PUSH1 0x20 ADD PUSH1 0x40 MLOAD SWAP1 DUP2 ADD PUSH1 0x40 MSTORE DUP1 SWAP3 SWAP2 SWAP1 DUP2 DUP2 MSTORE PUSH1 0x20 ADD DUP3 DUP1 SLOAD PUSH2 0x17B SWAP1 PUSH2 0x4B8 JUMP JUMPDEST DUP1 ISZERO PUSH2 0x1C8 JUMPI DUP1 PUSH1 0x1F LT PUSH2 0x19D JUMPI PUSH2 0x100 DUP1 DUP4 SLOAD DIV MUL DUP4 MSTORE SWAP2 PUSH1 0x20 ADD SWAP2 PUSH2 0x1C8 JUMP JUMPDEST DUP3 ADD SWAP2 SWAP1 PUSH1 0x0 MSTORE PUSH1 0x20 PUSH1 0x0 KECCAK256 SWAP1 JUMPDEST DUP2 SLOAD DUP2 MSTORE SWAP1 PUSH1 0x1 ADD SWAP1 PUSH1 0x20 ADD DUP1 DUP4 GT PUSH2 0x1AB JUMPI DUP3 SWAP1 SUB PUSH1 0x1F AND DUP3 ADD SWAP2 JUMPDEST POP POP POP POP POP DUP2 MSTORE PUSH1 0x20 ADD PUSH1 0x2 DUP3 ADD SLOAD DUP2 MSTORE POP POP SWAP1 POP SWAP1 JUMP JUMPDEST PUSH1 0x40 MLOAD DUP1 PUSH1 0x60 ADD PUSH1 0x40 MSTORE DUP1 PUSH1 0x40 MLOAD DUP1 PUSH1 0x40 ADD PUSH1 0x40 MSTORE DUP1 PUSH1 0xC DUP2 MSTORE PUSH1 0x20 ADD PUSH32 0x426C6164652052756E6E65720000000000000000000000000000000000000000 DUP2 MSTORE POP DUP2 MSTORE PUSH1 0x20 ADD PUSH1 0x40 MLOAD DUP1 PUSH1 0x40 ADD PUSH1 0x40 MSTORE DUP1 PUSH1 0xD DUP2 MSTORE PUSH1 0x20 ADD PUSH32 0x4C6F75696520466F726F6E646100000000000000000000000000000000000000 DUP2 MSTORE POP DUP2 MSTORE PUSH1 0x20 ADD PUSH1 0x1 DUP2 MSTORE POP PUSH1 0x0 DUP1 DUP3 ADD MLOAD DUP2 PUSH1 0x0 ADD SWAP1 DUP1 MLOAD SWAP1 PUSH1 0x20 ADD SWAP1 PUSH2 0x283 SWAP3 SWAP2 SWAP1 PUSH2 0x2D1 JUMP JUMPDEST POP PUSH1 0x20 DUP3 ADD MLOAD DUP2 PUSH1 0x1 ADD SWAP1 DUP1 MLOAD SWAP1 PUSH1 0x20 ADD SWAP1 PUSH2 0x2A0 SWAP3 SWAP2 SWAP1 PUSH2 0x2D1 JUMP JUMPDEST POP PUSH1 0x40 DUP3 ADD MLOAD DUP2 PUSH1 0x2 ADD SSTORE SWAP1 POP POP JUMP JUMPDEST PUSH1 0x40 MLOAD DUP1 PUSH1 0x60 ADD PUSH1 0x40 MSTORE DUP1 PUSH1 0x60 DUP2 MSTORE PUSH1 0x20 ADD PUSH1 0x60 DUP2 MSTORE PUSH1 0x20 ADD PUSH1 0x0 DUP2 MSTORE POP SWAP1 JUMP JUMPDEST DUP3 DUP1 SLOAD PUSH2 0x2DD SWAP1 PUSH2 0x4B8 JUMP JUMPDEST SWAP1 PUSH1 0x0 MSTORE PUSH1 0x20 PUSH1 0x0 KECCAK256 SWAP1 PUSH1 0x1F ADD PUSH1 0x20 SWAP1 DIV DUP2 ADD SWAP3 DUP3 PUSH2 0x2FF JUMPI PUSH1 0x0 DUP6 SSTORE PUSH2 0x346 JUMP JUMPDEST DUP3 PUSH1 0x1F LT PUSH2 0x318 JUMPI DUP1 MLOAD PUSH1 0xFF NOT AND DUP4 DUP1 ADD OR DUP6 SSTORE PUSH2 0x346 JUMP JUMPDEST DUP3 DUP1 ADD PUSH1 0x1 ADD DUP6 SSTORE DUP3 ISZERO PUSH2 0x346 JUMPI SWAP2 DUP3 ADD JUMPDEST DUP3 DUP2 GT ISZERO PUSH2 0x345 JUMPI DUP3 MLOAD DUP3 SSTORE SWAP2 PUSH1 0x20 ADD SWAP2 SWAP1 PUSH1 0x1 ADD SWAP1 PUSH2 0x32A JUMP JUMPDEST JUMPDEST POP SWAP1 POP PUSH2 0x353 SWAP2 SWAP1 PUSH2 0x357 JUMP JUMPDEST POP SWAP1 JUMP JUMPDEST JUMPDEST DUP1 DUP3 GT ISZERO PUSH2 0x370 JUMPI PUSH1 0x0 DUP2 PUSH1 0x0 SWAP1 SSTORE POP PUSH1 0x1 ADD PUSH2 0x358 JUMP JUMPDEST POP SWAP1 JUMP JUMPDEST PUSH1 0x0 PUSH2 0x37F DUP3 PUSH2 0x45F JUMP JUMPDEST PUSH2 0x389 DUP2 DUP6 PUSH2 0x46A JUMP JUMPDEST SWAP4 POP PUSH2 0x399 DUP2 DUP6 PUSH1 0x20 DUP7 ADD PUSH2 0x485 JUMP JUMPDEST PUSH2 0x3A2 DUP2 PUSH2 0x519 JUMP JUMPDEST DUP5 ADD SWAP2 POP POP SWAP3 SWAP2 POP POP JUMP JUMPDEST PUSH1 0x0 PUSH1 0x60 DUP4 ADD PUSH1 0x0 DUP4 ADD MLOAD DUP5 DUP3 SUB PUSH1 0x0 DUP7 ADD MSTORE PUSH2 0x3CA DUP3 DUP3 PUSH2 0x374 JUMP JUMPDEST SWAP2 POP POP PUSH1 0x20 DUP4 ADD MLOAD DUP5 DUP3 SUB PUSH1 0x20 DUP7 ADD MSTORE PUSH2 0x3E4 DUP3 DUP3 PUSH2 0x374 JUMP JUMPDEST SWAP2 POP POP PUSH1 0x40 DUP4 ADD MLOAD PUSH2 0x3F9 PUSH1 0x40 DUP7 ADD DUP3 PUSH2 0x404 JUMP JUMPDEST POP DUP1 SWAP2 POP POP SWAP3 SWAP2 POP POP JUMP JUMPDEST PUSH2 0x40D DUP2 PUSH2 0x47B JUMP JUMPDEST DUP3 MSTORE POP POP JUMP JUMPDEST PUSH2 0x41C DUP2 PUSH2 0x47B JUMP JUMPDEST DUP3 MSTORE POP POP JUMP JUMPDEST PUSH1 0x0 PUSH1 0x20 DUP3 ADD SWAP1 POP DUP2 DUP2 SUB PUSH1 0x0 DUP4 ADD MSTORE PUSH2 0x43C DUP2 DUP5 PUSH2 0x3AD JUMP JUMPDEST SWAP1 POP SWAP3 SWAP2 POP POP JUMP JUMPDEST PUSH1 0x0 PUSH1 0x20 DUP3 ADD SWAP1 POP PUSH2 0x459 PUSH1 0x0 DUP4 ADD DUP5 PUSH2 0x413 JUMP JUMPDEST SWAP3 SWAP2 POP POP JUMP JUMPDEST PUSH1 0x0 DUP2 MLOAD SWAP1 POP SWAP2 SWAP1 POP JUMP JUMPDEST PUSH1 0x0 DUP3 DUP3 MSTORE PUSH1 0x20 DUP3 ADD SWAP1 POP SWAP3 SWAP2 POP POP JUMP JUMPDEST PUSH1 0x0 DUP2 SWAP1 POP SWAP2 SWAP1 POP JUMP JUMPDEST PUSH1 0x0 JUMPDEST DUP4 DUP2 LT ISZERO PUSH2 0x4A3 JUMPI DUP1 DUP3 ADD MLOAD DUP2 DUP5 ADD MSTORE PUSH1 0x20 DUP2 ADD SWAP1 POP PUSH2 0x488 JUMP JUMPDEST DUP4 DUP2 GT ISZERO PUSH2 0x4B2 JUMPI PUSH1 0x0 DUP5 DUP5 ADD MSTORE JUMPDEST POP POP POP POP JUMP JUMPDEST PUSH1 0x0 PUSH1 0x2 DUP3 DIV SWAP1 POP PUSH1 0x1 DUP3 AND DUP1 PUSH2 0x4D0 JUMPI PUSH1 0x7F DUP3 AND SWAP2 POP JUMPDEST PUSH1 0x20 DUP3 LT DUP2 EQ ISZERO PUSH2 0x4E4 JUMPI PUSH2 0x4E3 PUSH2 0x4EA JUMP JUMPDEST JUMPDEST POP SWAP2 SWAP1 POP JUMP JUMPDEST PUSH32 0x4E487B7100000000000000000000000000000000000000000000000000000000 PUSH1 0x0 MSTORE PUSH1 0x22 PUSH1 0x4 MSTORE PUSH1 0x24 PUSH1 0x0 REVERT JUMPDEST PUSH1 0x0 PUSH1 0x1F NOT PUSH1 0x1F DUP4 ADD AND SWAP1 POP SWAP2 SWAP1 POP JUMP INVALID LOG2 PUSH5 0x6970667358 0x22 SLT KECCAK256 REVERT 0xAF KECCAK256 0x2C LOG4 SWAP11 SWAP13 0xC3 PUSH28 0x24A9D1217A10C288CBB4F61B9FDAE2DBF1552943A00C8764736F6C63 NUMBER STOP ADDMOD SMOD STOP CALLER "
				},
				"gasEstimates": {
					"creation": {
						"codeDepositCost": "275200",
						"executionCost": "312",
						"totalCost": "275512"
					},
					"external": {
						"getMovie()": "infinite",
						"getMovieId()": "2421",
						"setMovie()": "infinite"
					}
				},
				"methodIdentifiers": {
					"getMovie()": "7b5f4eef",
					"getMovieId()": "36dcabe0",
					"setMovie()": "f6bb33b1"
				}
			},
			"storageLayout": {
				"storage": [
					{
						"astId": 11,
						"contract": "contracts/10_structs.sol:LearnStruct",
						"label": "movie",
						"offset": 0,
						"slot": "0",
						"type": "t_struct(Movie)8_storage"
					}
				],
				"types": {
					"t_string_storage": {
						"encoding": "bytes",
						"label": "string",
						"numberOfBytes": "32"
					},
					"t_struct(Movie)8_storage": {
						"encoding": "inplace",
						"label": "struct LearnStruct.Movie",
						"members": [
							{
								"astId": 3,
								"contract": "contracts/10_structs.sol:LearnStruct",
								"label": "title",
								"offset": 0,
								"slot": "0",
								"type": "t_string_storage"
							},
							{
								"astId": 5,
								"contract": "contracts/10_structs.sol:LearnStruct",
								"label": "director",
								"offset": 0,
								"slot": "1",
								"type": "t_string_storage"
							},
							{
								"astId": 7,
								"contract": "contracts/10_structs.sol:LearnStruct",
								"label": "id",
								"offset": 0,
								"slot": "2",
								"type": "t_uint256"
							}
						],
						"numberOfBytes": "96"
					},
					"t_uint256": {
						"encoding": "inplace",
						"label": "uint256",
						"numberOfBytes": "32"
					}
				}
			},
			"userdoc": {
				"kind": "user",
				"methods": {},
				"version": 1
			}
		}
	}
}