{
	"contracts/11_mapping.sol": {
		"LearnMapping": {
			"abi": [
				{
					"inputs": [
						{
							"internalType": "address",
							"name": "",
							"type": "address"
						}
					],
					"name": "myMap",
					"outputs": [
						{
							"internalType": "string",
							"name": "",
							"type": "string"
						}
					],
					"stateMutability": "view",
					"type": "function"
				}
			],
			"devdoc": {
				"kind": "dev",
				"methods": {},
				"version": 1
			},
			"evm": {
				"assembly": "    /* \"contracts/11_mapping.sol\":33:103  contract LearnMapping {... */\n  mstore(0x40, 0x80)\n  callvalue\n  dup1\n  iszero\n  tag_1\n  jumpi\n  0x00\n  dup1\n  revert\ntag_1:\n  pop\n  dataSize(sub_0)\n  dup1\n  dataOffset(sub_0)\n  0x00\n  codecopy\n  0x00\n  return\nstop\n\nsub_0: assembly {\n        /* \"contracts/11_mapping.sol\":33:103  contract LearnMapping {... */\n      mstore(0x40, 0x80)\n      callvalue\n      dup1\n      iszero\n      tag_1\n      jumpi\n      0x00\n      dup1\n      revert\n    tag_1:\n      pop\n      jumpi(tag_2, lt(calldatasize, 0x04))\n      shr(0xe0, calldataload(0x00))\n      dup1\n      0x27cbd529\n      eq\n      tag_3\n      jumpi\n    tag_2:\n      0x00\n      dup1\n      revert\n        /* \"contracts/11_mapping.sol\":61:100  mapping(address => string) public myMap */\n    tag_3:\n      tag_4\n      0x04\n      dup1\n      calldatasize\n      sub\n      dup2\n      add\n      swap1\n      tag_5\n      swap2\n      swap1\n      tag_6\n      jump\t// in\n    tag_5:\n      tag_7\n      jump\t// in\n    tag_4:\n      mload(0x40)\n      tag_8\n      swap2\n      swap1\n      tag_9\n      jump\t// in\n    tag_8:\n      mload(0x40)\n      dup1\n      swap2\n      sub\n      swap1\n      return\n    tag_7:\n      mstore(0x20, 0x00)\n      dup1\n      0x00\n      mstore\n      keccak256(0x00, 0x40)\n      0x00\n      swap2\n      pop\n      swap1\n      pop\n      dup1\n      sload\n      tag_10\n      swap1\n      tag_11\n      jump\t// in\n    tag_10:\n      dup1\n      0x1f\n      add\n      0x20\n      dup1\n      swap2\n      div\n      mul\n      0x20\n      add\n      mload(0x40)\n      swap1\n      dup2\n      add\n      0x40\n      mstore\n      dup1\n      swap3\n      swap2\n      swap1\n      dup2\n      dup2\n      mstore\n      0x20\n      add\n      dup3\n      dup1\n      sload\n      tag_12\n      swap1\n      tag_11\n      jump\t// in\n    tag_12:\n      dup1\n      iszero\n      tag_13\n      jumpi\n      dup1\n      0x1f\n      lt\n      tag_14\n      jumpi\n      0x0100\n      dup1\n      dup4\n      sload\n      div\n      mul\n      dup4\n      mstore\n      swap2\n      0x20\n      add\n      swap2\n      jump(tag_13)\n    tag_14:\n      dup3\n      add\n      swap2\n      swap1\n      0x00\n      mstore\n      keccak256(0x00, 0x20)\n      swap1\n    tag_15:\n      dup2\n      sload\n      dup2\n      mstore\n      swap1\n      0x01\n      add\n      swap1\n      0x20\n      add\n      dup1\n      dup4\n      gt\n      tag_15\n      jumpi\n      dup3\n      swap1\n      sub\n      0x1f\n      and\n      dup3\n      add\n      swap2\n    tag_13:\n      pop\n      pop\n      pop\n      pop\n      pop\n      dup2\n      jump\t// out\n        /* \"#utility.yul\":7:146   */\n    tag_17:\n        /* \"#utility.yul\":53:58   */\n      0x00\n        /* \"#utility.yul\":91:97   */\n      dup2\n        /* \"#utility.yul\":78:98   */\n      calldataload\n        /* \"#utility.yul\":69:98   */\n      swap1\n      pop\n        /* \"#utility.yul\":107:140   */\n      tag_19\n        /* \"#utility.yul\":134:139   */\n      dup2\n        /* \"#utility.yul\":107:140   */\n      tag_20\n      jump\t// in\n    tag_19:\n        /* \"#utility.yul\":7:146   */\n      swap3\n      swap2\n      pop\n      pop\n      jump\t// out\n        /* \"#utility.yul\":152:481   */\n    tag_6:\n        /* \"#utility.yul\":211:217   */\n      0x00\n        /* \"#utility.yul\":260:262   */\n      0x20\n        /* \"#utility.yul\":248:257   */\n      dup3\n        /* \"#utility.yul\":239:246   */\n      dup5\n        /* \"#utility.yul\":235:258   */\n      sub\n        /* \"#utility.yul\":231:263   */\n      slt\n        /* \"#utility.yul\":228:347   */\n      iszero\n      tag_22\n      jumpi\n        /* \"#utility.yul\":266:345   */\n      tag_23\n      tag_24\n      jump\t// in\n    tag_23:\n        /* \"#utility.yul\":228:347   */\n    tag_22:\n        /* \"#utility.yul\":386:387   */\n      0x00\n        /* \"#utility.yul\":411:464   */\n      tag_25\n        /* \"#utility.yul\":456:463   */\n      dup5\n        /* \"#utility.yul\":447:453   */\n      dup3\n        /* \"#utility.yul\":436:445   */\n      dup6\n        /* \"#utility.yul\":432:454   */\n      add\n        /* \"#utility.yul\":411:464   */\n      tag_17\n      jump\t// in\n    tag_25:\n        /* \"#utility.yul\":401:464   */\n      swap2\n      pop\n        /* \"#utility.yul\":357:474   */\n      pop\n        /* \"#utility.yul\":152:481   */\n      swap3\n      swap2\n      pop\n      pop\n      jump\t// out\n        /* \"#utility.yul\":487:851   */\n    tag_26:\n        /* \"#utility.yul\":575:578   */\n      0x00\n        /* \"#utility.yul\":603:642   */\n      tag_28\n        /* \"#utility.yul\":636:641   */\n      dup3\n        /* \"#utility.yul\":603:642   */\n      tag_29\n      jump\t// in\n    tag_28:\n        /* \"#utility.yul\":658:729   */\n      tag_30\n        /* \"#utility.yul\":722:728   */\n      dup2\n        /* \"#utility.yul\":717:720   */\n      dup6\n        /* \"#utility.yul\":658:729   */\n      tag_31\n      jump\t// in\n    tag_30:\n        /* \"#utility.yul\":651:729   */\n      swap4\n      pop\n        /* \"#utility.yul\":738:790   */\n      tag_32\n        /* \"#utility.yul\":783:789   */\n      dup2\n        /* \"#utility.yul\":778:781   */\n      dup6\n        /* \"#utility.yul\":771:775   */\n      0x20\n        /* \"#utility.yul\":764:769   */\n      dup7\n        /* \"#utility.yul\":760:776   */\n      add\n        /* \"#utility.yul\":738:790   */\n      tag_33\n      jump\t// in\n    tag_32:\n        /* \"#utility.yul\":815:844   */\n      tag_34\n        /* \"#utility.yul\":837:843   */\n      dup2\n        /* \"#utility.yul\":815:844   */\n      tag_35\n      jump\t// in\n    tag_34:\n        /* \"#utility.yul\":810:813   */\n      dup5\n        /* \"#utility.yul\":806:845   */\n      add\n        /* \"#utility.yul\":799:845   */\n      swap2\n      pop\n        /* \"#utility.yul\":579:851   */\n      pop\n        /* \"#utility.yul\":487:851   */\n      swap3\n      swap2\n      pop\n      pop\n      jump\t// out\n        /* \"#utility.yul\":857:1170   */\n    tag_9:\n        /* \"#utility.yul\":970:974   */\n      0x00\n        /* \"#utility.yul\":1008:1010   */\n      0x20\n        /* \"#utility.yul\":997:1006   */\n      dup3\n        /* \"#utility.yul\":993:1011   */\n      add\n        /* \"#utility.yul\":985:1011   */\n      swap1\n      pop\n        /* \"#utility.yul\":1057:1066   */\n      dup2\n        /* \"#utility.yul\":1051:1055   */\n      dup2\n        /* \"#utility.yul\":1047:1067   */\n      sub\n        /* \"#utility.yul\":1043:1044   */\n      0x00\n        /* \"#utility.yul\":1032:1041   */\n      dup4\n        /* \"#utility.yul\":1028:1045   */\n      add\n        /* \"#utility.yul\":1021:1068   */\n      mstore\n        /* \"#utility.yul\":1085:1163   */\n      tag_37\n        /* \"#utility.yul\":1158:1162   */\n      dup2\n        /* \"#utility.yul\":1149:1155   */\n      dup5\n        /* \"#utility.yul\":1085:1163   */\n      tag_26\n      jump\t// in\n    tag_37:\n        /* \"#utility.yul\":1077:1163   */\n      swap1\n      pop\n        /* \"#utility.yul\":857:1170   */\n      swap3\n      swap2\n      pop\n      pop\n      jump\t// out\n        /* \"#utility.yul\":1257:1356   */\n    tag_29:\n        /* \"#utility.yul\":1309:1315   */\n      0x00\n        /* \"#utility.yul\":1343:1348   */\n      dup2\n        /* \"#utility.yul\":1337:1349   */\n      mload\n        /* \"#utility.yul\":1327:1349   */\n      swap1\n      pop\n        /* \"#utility.yul\":1257:1356   */\n      swap2\n      swap1\n      pop\n      jump\t// out\n        /* \"#utility.yul\":1362:1531   */\n    tag_31:\n        /* \"#utility.yul\":1446:1457   */\n      0x00\n        /* \"#utility.yul\":1480:1486   */\n      dup3\n        /* \"#utility.yul\":1475:1478   */\n      dup3\n        /* \"#utility.yul\":1468:1487   */\n      mstore\n        /* \"#utility.yul\":1520:1524   */\n      0x20\n        /* \"#utility.yul\":1515:1518   */\n      dup3\n        /* \"#utility.yul\":1511:1525   */\n      add\n        /* \"#utility.yul\":1496:1525   */\n      swap1\n      pop\n        /* \"#utility.yul\":1362:1531   */\n      swap3\n      swap2\n      pop\n      pop\n      jump\t// out\n        /* \"#utility.yul\":1537:1633   */\n    tag_42:\n        /* \"#utility.yul\":1574:1581   */\n      0x00\n        /* \"#utility.yul\":1603:1627   */\n      tag_44\n        /* \"#utility.yul\":1621:1626   */\n      dup3\n        /* \"#utility.yul\":1603:1627   */\n      tag_45\n      jump\t// in\n    tag_44:\n        /* \"#utility.yul\":1592:1627   */\n      swap1\n      pop\n        /* \"#utility.yul\":1537:1633   */\n      swap2\n      swap1\n      pop\n      jump\t// out\n        /* \"#utility.yul\":1639:1765   */\n    tag_45:\n        /* \"#utility.yul\":1676:1683   */\n      0x00\n        /* \"#utility.yul\":1716:1758   */\n      0xffffffffffffffffffffffffffffffffffffffff\n        /* \"#utility.yul\":1709:1714   */\n      dup3\n        /* \"#utility.yul\":1705:1759   */\n      and\n        /* \"#utility.yul\":1694:1759   */\n      swap1\n      pop\n        /* \"#utility.yul\":1639:1765   */\n      swap2\n      swap1\n      pop\n      jump\t// out\n        /* \"#utility.yul\":1771:2078   */\n    tag_33:\n        /* \"#utility.yul\":1839:1840   */\n      0x00\n        /* \"#utility.yul\":1849:1962   */\n    tag_48:\n        /* \"#utility.yul\":1863:1869   */\n      dup4\n        /* \"#utility.yul\":1860:1861   */\n      dup2\n        /* \"#utility.yul\":1857:1870   */\n      lt\n        /* \"#utility.yul\":1849:1962   */\n      iszero\n      tag_50\n      jumpi\n        /* \"#utility.yul\":1948:1949   */\n      dup1\n        /* \"#utility.yul\":1943:1946   */\n      dup3\n        /* \"#utility.yul\":1939:1950   */\n      add\n        /* \"#utility.yul\":1933:1951   */\n      mload\n        /* \"#utility.yul\":1929:1930   */\n      dup2\n        /* \"#utility.yul\":1924:1927   */\n      dup5\n        /* \"#utility.yul\":1920:1931   */\n      add\n        /* \"#utility.yul\":1913:1952   */\n      mstore\n        /* \"#utility.yul\":1885:1887   */\n      0x20\n        /* \"#utility.yul\":1882:1883   */\n      dup2\n        /* \"#utility.yul\":1878:1888   */\n      add\n        /* \"#utility.yul\":1873:1888   */\n      swap1\n      pop\n        /* \"#utility.yul\":1849:1962   */\n      jump(tag_48)\n    tag_50:\n        /* \"#utility.yul\":1980:1986   */\n      dup4\n        /* \"#utility.yul\":1977:1978   */\n      dup2\n        /* \"#utility.yul\":1974:1987   */\n      gt\n        /* \"#utility.yul\":1971:2072   */\n      iszero\n      tag_51\n      jumpi\n        /* \"#utility.yul\":2060:2061   */\n      0x00\n        /* \"#utility.yul\":2051:2057   */\n      dup5\n        /* \"#utility.yul\":2046:2049   */\n      dup5\n        /* \"#utility.yul\":2042:2058   */\n      add\n        /* \"#utility.yul\":2035:2062   */\n      mstore\n        /* \"#utility.yul\":1971:2072   */\n    tag_51:\n        /* \"#utility.yul\":1820:2078   */\n      pop\n        /* \"#utility.yul\":1771:2078   */\n      pop\n      pop\n      pop\n      jump\t// out\n        /* \"#utility.yul\":2084:2404   */\n    tag_11:\n        /* \"#utility.yul\":2128:2134   */\n      0x00\n        /* \"#utility.yul\":2165:2166   */\n      0x02\n        /* \"#utility.yul\":2159:2163   */\n      dup3\n        /* \"#utility.yul\":2155:2167   */\n      div\n        /* \"#utility.yul\":2145:2167   */\n      swap1\n      pop\n        /* \"#utility.yul\":2212:2213   */\n      0x01\n        /* \"#utility.yul\":2206:2210   */\n      dup3\n        /* \"#utility.yul\":2202:2214   */\n      and\n        /* \"#utility.yul\":2233:2251   */\n      dup1\n        /* \"#utility.yul\":2223:2304   */\n      tag_53\n      jumpi\n        /* \"#utility.yul\":2289:2293   */\n      0x7f\n        /* \"#utility.yul\":2281:2287   */\n      dup3\n        /* \"#utility.yul\":2277:2294   */\n      and\n        /* \"#utility.yul\":2267:2294   */\n      swap2\n      pop\n        /* \"#utility.yul\":2223:2304   */\n    tag_53:\n        /* \"#utility.yul\":2351:2353   */\n      0x20\n        /* \"#utility.yul\":2343:2349   */\n      dup3\n        /* \"#utility.yul\":2340:2354   */\n      lt\n        /* \"#utility.yul\":2320:2338   */\n      dup2\n        /* \"#utility.yul\":2317:2355   */\n      eq\n        /* \"#utility.yul\":2314:2398   */\n      iszero\n      tag_54\n      jumpi\n        /* \"#utility.yul\":2370:2388   */\n      tag_55\n      tag_56\n      jump\t// in\n    tag_55:\n        /* \"#utility.yul\":2314:2398   */\n    tag_54:\n        /* \"#utility.yul\":2135:2404   */\n      pop\n        /* \"#utility.yul\":2084:2404   */\n      swap2\n      swap1\n      pop\n      jump\t// out\n        /* \"#utility.yul\":2410:2590   */\n    tag_56:\n        /* \"#utility.yul\":2458:2535   */\n      0x4e487b7100000000000000000000000000000000000000000000000000000000\n        /* \"#utility.yul\":2455:2456   */\n      0x00\n        /* \"#utility.yul\":2448:2536   */\n      mstore\n        /* \"#utility.yul\":2555:2559   */\n      0x22\n        /* \"#utility.yul\":2552:2553   */\n      0x04\n        /* \"#utility.yul\":2545:2560   */\n      mstore\n        /* \"#utility.yul\":2579:2583   */\n      0x24\n        /* \"#utility.yul\":2576:2577   */\n      0x00\n        /* \"#utility.yul\":2569:2584   */\n      revert\n        /* \"#utility.yul\":2719:2836   */\n    tag_24:\n        /* \"#utility.yul\":2828:2829   */\n      0x00\n        /* \"#utility.yul\":2825:2826   */\n      dup1\n        /* \"#utility.yul\":2818:2830   */\n      revert\n        /* \"#utility.yul\":2842:2944   */\n    tag_35:\n        /* \"#utility.yul\":2883:2889   */\n      0x00\n        /* \"#utility.yul\":2934:2936   */\n      0x1f\n        /* \"#utility.yul\":2930:2937   */\n      not\n        /* \"#utility.yul\":2925:2927   */\n      0x1f\n        /* \"#utility.yul\":2918:2923   */\n      dup4\n        /* \"#utility.yul\":2914:2928   */\n      add\n        /* \"#utility.yul\":2910:2938   */\n      and\n        /* \"#utility.yul\":2900:2938   */\n      swap1\n      pop\n        /* \"#utility.yul\":2842:2944   */\n      swap2\n      swap1\n      pop\n      jump\t// out\n        /* \"#utility.yul\":2950:3072   */\n    tag_20:\n        /* \"#utility.yul\":3023:3047   */\n      tag_63\n        /* \"#utility.yul\":3041:3046   */\n      dup2\n        /* \"#utility.yul\":3023:3047   */\n      tag_42\n      jump\t// in\n    tag_63:\n        /* \"#utility.yul\":3016:3021   */\n      dup2\n        /* \"#utility.yul\":3013:3048   */\n      eq\n        /* \"#utility.yul\":3003:3066   */\n      tag_64\n      jumpi\n        /* \"#utility.yul\":3062:3063   */\n      0x00\n        /* \"#utility.yul\":3059:3060   */\n      dup1\n        /* \"#utility.yul\":3052:3064   */\n      revert\n        /* \"#utility.yul\":3003:3066   */\n    tag_64:\n        /* \"#utility.yul\":2950:3072   */\n      pop\n      jump\t// out\n\n    auxdata: 0xa26469706673582212205a80ce70187c6a2872d9b45d23ee7b9d01384c321aeb29844a95f888bf8aef0264736f6c63430008070033\n}\n",
				"bytecode": {
					"linkReferences": {},
					"object": "608060405234801561001057600080fd5b506102e2806100206000396000f3fe608060405234801561001057600080fd5b506004361061002b5760003560e01c806327cbd52914610030575b600080fd5b61004a60048036038101906100459190610115565b610060565b604051610057919061017b565b60405180910390f35b6000602052806000526040600020600091509050805461007f9061021e565b80601f01602080910402602001604051908101604052809291908181526020018280546100ab9061021e565b80156100f85780601f106100cd576101008083540402835291602001916100f8565b820191906000526020600020905b8154815290600101906020018083116100db57829003601f168201915b505050505081565b60008135905061010f81610295565b92915050565b60006020828403121561012b5761012a61027f565b5b600061013984828501610100565b91505092915050565b600061014d8261019d565b61015781856101a8565b93506101678185602086016101eb565b61017081610284565b840191505092915050565b600060208201905081810360008301526101958184610142565b905092915050565b600081519050919050565b600082825260208201905092915050565b60006101c4826101cb565b9050919050565b600073ffffffffffffffffffffffffffffffffffffffff82169050919050565b60005b838110156102095780820151818401526020810190506101ee565b83811115610218576000848401525b50505050565b6000600282049050600182168061023657607f821691505b6020821081141561024a57610249610250565b5b50919050565b7f4e487b7100000000000000000000000000000000000000000000000000000000600052602260045260246000fd5b600080fd5b6000601f19601f8301169050919050565b61029e816101b9565b81146102a957600080fd5b5056fea26469706673582212205a80ce70187c6a2872d9b45d23ee7b9d01384c321aeb29844a95f888bf8aef0264736f6c63430008070033",
					"opcodes": "PUSH1 0x80 PUSH1 0x40 MSTORE CALLVALUE DUP1 ISZERO PUSH2 0x10 JUMPI PUSH1 0x0 DUP1 REVERT JUMPDEST POP PUSH2 0x2E2 DUP1 PUSH2 0x20 PUSH1 0x0 CODECOPY PUSH1 0x0 RETURN INVALID PUSH1 0x80 PUSH1 0x40 MSTORE CALLVALUE DUP1 ISZERO PUSH2 0x10 JUMPI PUSH1 0x0 DUP1 REVERT JUMPDEST POP PUSH1 0x4 CALLDATASIZE LT PUSH2 0x2B JUMPI PUSH1 0x0 CALLDATALOAD PUSH1 0xE0 SHR DUP1 PUSH4 0x27CBD529 EQ PUSH2 0x30 JUMPI JUMPDEST PUSH1 0x0 DUP1 REVERT JUMPDEST PUSH2 0x4A PUSH1 0x4 DUP1 CALLDATASIZE SUB DUP2 ADD SWAP1 PUSH2 0x45 SWAP2 SWAP1 PUSH2 0x115 JUMP JUMPDEST PUSH2 0x60 JUMP JUMPDEST PUSH1 0x40 MLOAD PUSH2 0x57 SWAP2 SWAP1 PUSH2 0x17B JUMP JUMPDEST PUSH1 0x40 MLOAD DUP1 SWAP2 SUB SWAP1 RETURN JUMPDEST PUSH1 0x0 PUSH1 0x20 MSTORE DUP1 PUSH1 0x0 MSTORE PUSH1 0x40 PUSH1 0x0 KECCAK256 PUSH1 0x0 SWAP2 POP SWAP1 POP DUP1 SLOAD PUSH2 0x7F SWAP1 PUSH2 0x21E JUMP JUMPDEST DUP1 PUSH1 0x1F ADD PUSH1 0x20 DUP1 SWAP2 DIV MUL PUSH1 0x20 ADD PUSH1 0x40 MLOAD SWAP1 DUP2 ADD PUSH1 0x40 MSTORE DUP1 SWAP3 SWAP2 SWAP1 DUP2 DUP2 MSTORE PUSH1 0x20 ADD DUP3 DUP1 SLOAD PUSH2 0xAB SWAP1 PUSH2 0x21E JUMP JUMPDEST DUP1 ISZERO PUSH2 0xF8 JUMPI DUP1 PUSH1 0x1F LT PUSH2 0xCD JUMPI PUSH2 0x100 DUP1 DUP4 SLOAD DIV MUL DUP4 MSTORE SWAP2 PUSH1 0x20 ADD SWAP2 PUSH2 0xF8 JUMP JUMPDEST DUP3 ADD SWAP2 SWAP1 PUSH1 0x0 MSTORE PUSH1 0x20 PUSH1 0x0 KECCAK256 SWAP1 JUMPDEST DUP2 SLOAD DUP2 MSTORE SWAP1 PUSH1 0x1 ADD SWAP1 PUSH1 0x20 ADD DUP1 DUP4 GT PUSH2 0xDB JUMPI DUP3 SWAP1 SUB PUSH1 0x1F AND DUP3 ADD SWAP2 JUMPDEST POP POP POP POP POP DUP2 JUMP JUMPDEST PUSH1 0x0 DUP2 CALLDATALOAD SWAP1 POP PUSH2 0x10F DUP2 PUSH2 0x295 JUMP JUMPDEST SWAP3 SWAP2 POP POP JUMP JUMPDEST PUSH1 0x0 PUSH1 0x20 DUP3 DUP5 SUB SLT ISZERO PUSH2 0x12B JUMPI PUSH2 0x12A PUSH2 0x27F JUMP JUMPDEST JUMPDEST PUSH1 0x0 PUSH2 0x139 DUP5 DUP3 DUP6 ADD PUSH2 0x100 JUMP JUMPDEST SWAP2 POP POP SWAP3 SWAP2 POP POP JUMP JUMPDEST PUSH1 0x0 PUSH2 0x14D DUP3 PUSH2 0x19D JUMP JUMPDEST PUSH2 0x157 DUP2 DUP6 PUSH2 0x1A8 JUMP JUMPDEST SWAP4 POP PUSH2 0x167 DUP2 DUP6 PUSH1 0x20 DUP7 ADD PUSH2 0x1EB JUMP JUMPDEST PUSH2 0x170 DUP2 PUSH2 0x284 JUMP JUMPDEST DUP5 ADD SWAP2 POP POP SWAP3 SWAP2 POP POP JUMP JUMPDEST PUSH1 0x0 PUSH1 0x20 DUP3 ADD SWAP1 POP DUP2 DUP2 SUB PUSH1 0x0 DUP4 ADD MSTORE PUSH2 0x195 DUP2 DUP5 PUSH2 0x142 JUMP JUMPDEST SWAP1 POP SWAP3 SWAP2 POP POP JUMP JUMPDEST PUSH1 0x0 DUP2 MLOAD SWAP1 POP SWAP2 SWAP1 POP JUMP JUMPDEST PUSH1 0x0 DUP3 DUP3 MSTORE PUSH1 0x20 DUP3 ADD SWAP1 POP SWAP3 SWAP2 POP POP JUMP JUMPDEST PUSH1 0x0 PUSH2 0x1C4 DUP3 PUSH2 0x1CB JUMP JUMPDEST SWAP1 POP SWAP2 SWAP1 POP JUMP JUMPDEST PUSH1 0x0 PUSH20 0xFFFFFFFFFFFFFFFFFFFFFFFFFFFFFFFFFFFFFFFF DUP3 AND SWAP1 POP SWAP2 SWAP1 POP JUMP JUMPDEST PUSH1 0x0 JUMPDEST DUP4 DUP2 LT ISZERO PUSH2 0x209 JUMPI DUP1 DUP3 ADD MLOAD DUP2 DUP5 ADD MSTORE PUSH1 0x20 DUP2 ADD SWAP1 POP PUSH2 0x1EE JUMP JUMPDEST DUP4 DUP2 GT ISZERO PUSH2 0x218 JUMPI PUSH1 0x0 DUP5 DUP5 ADD MSTORE JUMPDEST POP POP POP POP JUMP JUMPDEST PUSH1 0x0 PUSH1 0x2 DUP3 DIV SWAP1 POP PUSH1 0x1 DUP3 AND DUP1 PUSH2 0x236 JUMPI PUSH1 0x7F DUP3 AND SWAP2 POP JUMPDEST PUSH1 0x20 DUP3 LT DUP2 EQ ISZERO PUSH2 0x24A JUMPI PUSH2 0x249 PUSH2 0x250 JUMP JUMPDEST JUMPDEST POP SWAP2 SWAP1 POP JUMP JUMPDEST PUSH32 0x4E487B7100000000000000000000000000000000000000000000000000000000 PUSH1 0x0 MSTORE PUSH1 0x22 PUSH1 0x4 MSTORE PUSH1 0x24 PUSH1 0x0 REVERT JUMPDEST PUSH1 0x0 DUP1 REVERT JUMPDEST PUSH1 0x0 PUSH1 0x1F NOT PUSH1 0x1F DUP4 ADD AND SWAP1 POP SWAP2 SWAP1 POP JUMP JUMPDEST PUSH2 0x29E DUP2 PUSH2 0x1B9 JUMP JUMPDEST DUP2 EQ PUSH2 0x2A9 JUMPI PUSH1 0x0 DUP1 REVERT JUMPDEST POP JUMP INVALID LOG2 PUSH5 0x6970667358 0x22 SLT KECCAK256 GAS DUP1 0xCE PUSH17 0x187C6A2872D9B45D23EE7B9D01384C321A 0xEB 0x29 DUP5 0x4A SWAP6 0xF8 DUP9 0xBF DUP11 0xEF MUL PUSH5 0x736F6C6343 STOP ADDMOD SMOD STOP CALLER "
				},
				"gasEstimates": {
					"creation": {
						"codeDepositCost": "147600",
						"executionCost": "196",
						"totalCost": "147796"
					},
					"external": {
						"myMap(address)": "infinite"
					}
				},
				"methodIdentifiers": {
					"myMap(address)": "27cbd529"
				}
			},
			"storageLayout": {
				"storage": [
					{
						"astId": 4,
						"contract": "contracts/11_mapping.sol:LearnMapping",
						"label": "myMap",
						"offset": 0,
						"slot": "0",
						"type": "t_mapping(t_address,t_string_storage)"
					}
				],
				"types": {
					"t_address": {
						"encoding": "inplace",
						"label": "address",
						"numberOfBytes": "20"
					},
					"t_mapping(t_address,t_string_storage)": {
						"encoding": "mapping",
						"key": "t_address",
						"label": "mapping(address => string)",
						"numberOfBytes": "32",
						"value": "t_string_storage"
					},
					"t_string_storage": {
						"encoding": "bytes",
						"label": "string",
						"numberOfBytes": "32"
					}
				}
			},
			"userdoc": {
				"kind": "user",
				"methods": {},
				"version": 1
			}
		}
	}
}