{
	"contracts/11_mapping.sol": {
		"LearnMapping": {
			"abi": [
				{
					"inputs": [
						{
							"internalType": "uint256",
							"name": "_id",
							"type": "uint256"
						},
						{
							"internalType": "string",
							"name": "_title",
							"type": "string"
						},
						{
							"internalType": "string",
							"name": "_director",
							"type": "string"
						}
					],
					"name": "addMovie",
					"outputs": [],
					"stateMutability": "nonpayable",
					"type": "function"
				},
				{
					"inputs": [
						{
							"internalType": "uint256",
							"name": "",
							"type": "uint256"
						}
					],
					"name": "movies",
					"outputs": [
						{
							"internalType": "string",
							"name": "title",
							"type": "string"
						},
						{
							"internalType": "string",
							"name": "director",
							"type": "string"
						}
					],
					"stateMutability": "view",
					"type": "function"
				}
			],
			"devdoc": {
				"kind": "dev",
				"methods": {},
				"version": 1
			},
			"evm": {
				"assembly": "    /* \"contracts/11_mapping.sol\":67:366  contract LearnMapping {... */\n  mstore(0x40, 0x80)\n  callvalue\n  dup1\n  iszero\n  tag_1\n  jumpi\n  0x00\n  dup1\n  revert\ntag_1:\n  pop\n  dataSize(sub_0)\n  dup1\n  dataOffset(sub_0)\n  0x00\n  codecopy\n  0x00\n  return\nstop\n\nsub_0: assembly {\n        /* \"contracts/11_mapping.sol\":67:366  contract LearnMapping {... */\n      mstore(0x40, 0x80)\n      callvalue\n      dup1\n      iszero\n      tag_1\n      jumpi\n      0x00\n      dup1\n      revert\n    tag_1:\n      pop\n      jumpi(tag_2, lt(calldatasize, 0x04))\n      shr(0xe0, calldataload(0x00))\n      dup1\n      0x404ebf6c\n      eq\n      tag_3\n      jumpi\n      dup1\n      0xf40f48c9\n      eq\n      tag_4\n      jumpi\n    tag_2:\n      0x00\n      dup1\n      revert\n        /* \"contracts/11_mapping.sol\":169:205  mapping(uint => Movie) public movies */\n    tag_3:\n      tag_5\n      0x04\n      dup1\n      calldatasize\n      sub\n      dup2\n      add\n      swap1\n      tag_6\n      swap2\n      swap1\n      tag_7\n      jump\t// in\n    tag_6:\n      tag_8\n      jump\t// in\n    tag_5:\n      mload(0x40)\n      tag_9\n      swap3\n      swap2\n      swap1\n      tag_10\n      jump\t// in\n    tag_9:\n      mload(0x40)\n      dup1\n      swap2\n      sub\n      swap1\n      return\n        /* \"contracts/11_mapping.sol\":212:363  function addMovie(uint _id, string calldata _title, string calldata _director) public {... */\n    tag_4:\n      tag_11\n      0x04\n      dup1\n      calldatasize\n      sub\n      dup2\n      add\n      swap1\n      tag_12\n      swap2\n      swap1\n      tag_13\n      jump\t// in\n    tag_12:\n      tag_14\n      jump\t// in\n    tag_11:\n      stop\n        /* \"contracts/11_mapping.sol\":169:205  mapping(uint => Movie) public movies */\n    tag_8:\n      mstore(0x20, 0x00)\n      dup1\n      0x00\n      mstore\n      keccak256(0x00, 0x40)\n      0x00\n      swap2\n      pop\n      swap1\n      pop\n      dup1\n      0x00\n      add\n      dup1\n      sload\n      tag_15\n      swap1\n      tag_16\n      jump\t// in\n    tag_15:\n      dup1\n      0x1f\n      add\n      0x20\n      dup1\n      swap2\n      div\n      mul\n      0x20\n      add\n      mload(0x40)\n      swap1\n      dup2\n      add\n      0x40\n      mstore\n      dup1\n      swap3\n      swap2\n      swap1\n      dup2\n      dup2\n      mstore\n      0x20\n      add\n      dup3\n      dup1\n      sload\n      tag_17\n      swap1\n      tag_16\n      jump\t// in\n    tag_17:\n      dup1\n      iszero\n      tag_18\n      jumpi\n      dup1\n      0x1f\n      lt\n      tag_19\n      jumpi\n      0x0100\n      dup1\n      dup4\n      sload\n      div\n      mul\n      dup4\n      mstore\n      swap2\n      0x20\n      add\n      swap2\n      jump(tag_18)\n    tag_19:\n      dup3\n      add\n      swap2\n      swap1\n      0x00\n      mstore\n      keccak256(0x00, 0x20)\n      swap1\n    tag_20:\n      dup2\n      sload\n      dup2\n      mstore\n      swap1\n      0x01\n      add\n      swap1\n      0x20\n      add\n      dup1\n      dup4\n      gt\n      tag_20\n      jumpi\n      dup3\n      swap1\n      sub\n      0x1f\n      and\n      dup3\n      add\n      swap2\n    tag_18:\n      pop\n      pop\n      pop\n      pop\n      pop\n      swap1\n      dup1\n      0x01\n      add\n      dup1\n      sload\n      tag_21\n      swap1\n      tag_16\n      jump\t// in\n    tag_21:\n      dup1\n      0x1f\n      add\n      0x20\n      dup1\n      swap2\n      div\n      mul\n      0x20\n      add\n      mload(0x40)\n      swap1\n      dup2\n      add\n      0x40\n      mstore\n      dup1\n      swap3\n      swap2\n      swap1\n      dup2\n      dup2\n      mstore\n      0x20\n      add\n      dup3\n      dup1\n      sload\n      tag_22\n      swap1\n      tag_16\n      jump\t// in\n    tag_22:\n      dup1\n      iszero\n      tag_23\n      jumpi\n      dup1\n      0x1f\n      lt\n      tag_24\n      jumpi\n      0x0100\n      dup1\n      dup4\n      sload\n      div\n      mul\n      dup4\n      mstore\n      swap2\n      0x20\n      add\n      swap2\n      jump(tag_23)\n    tag_24:\n      dup3\n      add\n      swap2\n      swap1\n      0x00\n      mstore\n      keccak256(0x00, 0x20)\n      swap1\n    tag_25:\n      dup2\n      sload\n      dup2\n      mstore\n      swap1\n      0x01\n      add\n      swap1\n      0x20\n      add\n      dup1\n      dup4\n      gt\n      tag_25\n      jumpi\n      dup3\n      swap1\n      sub\n      0x1f\n      and\n      dup3\n      add\n      swap2\n    tag_23:\n      pop\n      pop\n      pop\n      pop\n      pop\n      swap1\n      pop\n      dup3\n      jump\t// out\n        /* \"contracts/11_mapping.sol\":212:363  function addMovie(uint _id, string calldata _title, string calldata _director) public {... */\n    tag_14:\n        /* \"contracts/11_mapping.sol\":322:346  Movie(_title, _director) */\n      mload(0x40)\n      dup1\n      0x40\n      add\n      0x40\n      mstore\n      dup1\n        /* \"contracts/11_mapping.sol\":328:334  _title */\n      dup6\n      dup6\n        /* \"contracts/11_mapping.sol\":322:346  Movie(_title, _director) */\n      dup1\n      dup1\n      0x1f\n      add\n      0x20\n      dup1\n      swap2\n      div\n      mul\n      0x20\n      add\n      mload(0x40)\n      swap1\n      dup2\n      add\n      0x40\n      mstore\n      dup1\n      swap4\n      swap3\n      swap2\n      swap1\n      dup2\n      dup2\n      mstore\n      0x20\n      add\n      dup4\n      dup4\n      dup1\n      dup3\n      dup5\n      calldatacopy\n      0x00\n      dup2\n      dup5\n      add\n      mstore\n      not(0x1f)\n      0x1f\n      dup3\n      add\n      and\n      swap1\n      pop\n      dup1\n      dup4\n      add\n      swap3\n      pop\n      pop\n      pop\n      pop\n      pop\n      pop\n      pop\n      dup2\n      mstore\n      0x20\n      add\n        /* \"contracts/11_mapping.sol\":336:345  _director */\n      dup4\n      dup4\n        /* \"contracts/11_mapping.sol\":322:346  Movie(_title, _director) */\n      dup1\n      dup1\n      0x1f\n      add\n      0x20\n      dup1\n      swap2\n      div\n      mul\n      0x20\n      add\n      mload(0x40)\n      swap1\n      dup2\n      add\n      0x40\n      mstore\n      dup1\n      swap4\n      swap3\n      swap2\n      swap1\n      dup2\n      dup2\n      mstore\n      0x20\n      add\n      dup4\n      dup4\n      dup1\n      dup3\n      dup5\n      calldatacopy\n      0x00\n      dup2\n      dup5\n      add\n      mstore\n      not(0x1f)\n      0x1f\n      dup3\n      add\n      and\n      swap1\n      pop\n      dup1\n      dup4\n      add\n      swap3\n      pop\n      pop\n      pop\n      pop\n      pop\n      pop\n      pop\n      dup2\n      mstore\n      pop\n        /* \"contracts/11_mapping.sol\":308:314  movies */\n      0x00\n        /* \"contracts/11_mapping.sol\":308:319  movies[_id] */\n      dup1\n        /* \"contracts/11_mapping.sol\":315:318  _id */\n      dup8\n        /* \"contracts/11_mapping.sol\":308:319  movies[_id] */\n      dup2\n      mstore\n      0x20\n      add\n      swap1\n      dup2\n      mstore\n      0x20\n      add\n      0x00\n      keccak256\n        /* \"contracts/11_mapping.sol\":308:346  movies[_id] = Movie(_title, _director) */\n      0x00\n      dup3\n      add\n      mload\n      dup2\n      0x00\n      add\n      swap1\n      dup1\n      mload\n      swap1\n      0x20\n      add\n      swap1\n      tag_27\n      swap3\n      swap2\n      swap1\n      tag_28\n      jump\t// in\n    tag_27:\n      pop\n      0x20\n      dup3\n      add\n      mload\n      dup2\n      0x01\n      add\n      swap1\n      dup1\n      mload\n      swap1\n      0x20\n      add\n      swap1\n      tag_29\n      swap3\n      swap2\n      swap1\n      tag_28\n      jump\t// in\n    tag_29:\n      pop\n      swap1\n      pop\n      pop\n        /* \"contracts/11_mapping.sol\":212:363  function addMovie(uint _id, string calldata _title, string calldata _director) public {... */\n      pop\n      pop\n      pop\n      pop\n      pop\n      jump\t// out\n    tag_28:\n      dup3\n      dup1\n      sload\n      tag_30\n      swap1\n      tag_16\n      jump\t// in\n    tag_30:\n      swap1\n      0x00\n      mstore\n      keccak256(0x00, 0x20)\n      swap1\n      0x1f\n      add\n      0x20\n      swap1\n      div\n      dup2\n      add\n      swap3\n      dup3\n      tag_32\n      jumpi\n      0x00\n      dup6\n      sstore\n      jump(tag_31)\n    tag_32:\n      dup3\n      0x1f\n      lt\n      tag_33\n      jumpi\n      dup1\n      mload\n      not(0xff)\n      and\n      dup4\n      dup1\n      add\n      or\n      dup6\n      sstore\n      jump(tag_31)\n    tag_33:\n      dup3\n      dup1\n      add\n      0x01\n      add\n      dup6\n      sstore\n      dup3\n      iszero\n      tag_31\n      jumpi\n      swap2\n      dup3\n      add\n    tag_34:\n      dup3\n      dup2\n      gt\n      iszero\n      tag_35\n      jumpi\n      dup3\n      mload\n      dup3\n      sstore\n      swap2\n      0x20\n      add\n      swap2\n      swap1\n      0x01\n      add\n      swap1\n      jump(tag_34)\n    tag_35:\n    tag_31:\n      pop\n      swap1\n      pop\n      tag_36\n      swap2\n      swap1\n      tag_37\n      jump\t// in\n    tag_36:\n      pop\n      swap1\n      jump\t// out\n    tag_37:\n    tag_38:\n      dup1\n      dup3\n      gt\n      iszero\n      tag_39\n      jumpi\n      0x00\n      dup2\n      0x00\n      swap1\n      sstore\n      pop\n      0x01\n      add\n      jump(tag_38)\n    tag_39:\n      pop\n      swap1\n      jump\t// out\n        /* \"#utility.yul\":21:574   */\n    tag_41:\n        /* \"#utility.yul\":79:87   */\n      0x00\n        /* \"#utility.yul\":89:95   */\n      dup1\n        /* \"#utility.yul\":139:142   */\n      dup4\n        /* \"#utility.yul\":132:136   */\n      0x1f\n        /* \"#utility.yul\":124:130   */\n      dup5\n        /* \"#utility.yul\":120:137   */\n      add\n        /* \"#utility.yul\":116:143   */\n      slt\n        /* \"#utility.yul\":106:228   */\n      tag_43\n      jumpi\n        /* \"#utility.yul\":147:226   */\n      tag_44\n      tag_45\n      jump\t// in\n    tag_44:\n        /* \"#utility.yul\":106:228   */\n    tag_43:\n        /* \"#utility.yul\":260:266   */\n      dup3\n        /* \"#utility.yul\":247:267   */\n      calldataload\n        /* \"#utility.yul\":237:267   */\n      swap1\n      pop\n        /* \"#utility.yul\":290:308   */\n      0xffffffffffffffff\n        /* \"#utility.yul\":282:288   */\n      dup2\n        /* \"#utility.yul\":279:309   */\n      gt\n        /* \"#utility.yul\":276:393   */\n      iszero\n      tag_46\n      jumpi\n        /* \"#utility.yul\":312:391   */\n      tag_47\n      tag_48\n      jump\t// in\n    tag_47:\n        /* \"#utility.yul\":276:393   */\n    tag_46:\n        /* \"#utility.yul\":426:430   */\n      0x20\n        /* \"#utility.yul\":418:424   */\n      dup4\n        /* \"#utility.yul\":414:431   */\n      add\n        /* \"#utility.yul\":402:431   */\n      swap2\n      pop\n        /* \"#utility.yul\":480:483   */\n      dup4\n        /* \"#utility.yul\":472:476   */\n      0x01\n        /* \"#utility.yul\":464:470   */\n      dup3\n        /* \"#utility.yul\":460:477   */\n      mul\n        /* \"#utility.yul\":450:458   */\n      dup4\n        /* \"#utility.yul\":446:478   */\n      add\n        /* \"#utility.yul\":443:484   */\n      gt\n        /* \"#utility.yul\":440:568   */\n      iszero\n      tag_49\n      jumpi\n        /* \"#utility.yul\":487:566   */\n      tag_50\n      tag_51\n      jump\t// in\n    tag_50:\n        /* \"#utility.yul\":440:568   */\n    tag_49:\n        /* \"#utility.yul\":21:574   */\n      swap3\n      pop\n      swap3\n      swap1\n      pop\n      jump\t// out\n        /* \"#utility.yul\":580:719   */\n    tag_52:\n        /* \"#utility.yul\":626:631   */\n      0x00\n        /* \"#utility.yul\":664:670   */\n      dup2\n        /* \"#utility.yul\":651:671   */\n      calldataload\n        /* \"#utility.yul\":642:671   */\n      swap1\n      pop\n        /* \"#utility.yul\":680:713   */\n      tag_54\n        /* \"#utility.yul\":707:712   */\n      dup2\n        /* \"#utility.yul\":680:713   */\n      tag_55\n      jump\t// in\n    tag_54:\n        /* \"#utility.yul\":580:719   */\n      swap3\n      swap2\n      pop\n      pop\n      jump\t// out\n        /* \"#utility.yul\":725:1054   */\n    tag_7:\n        /* \"#utility.yul\":784:790   */\n      0x00\n        /* \"#utility.yul\":833:835   */\n      0x20\n        /* \"#utility.yul\":821:830   */\n      dup3\n        /* \"#utility.yul\":812:819   */\n      dup5\n        /* \"#utility.yul\":808:831   */\n      sub\n        /* \"#utility.yul\":804:836   */\n      slt\n        /* \"#utility.yul\":801:920   */\n      iszero\n      tag_57\n      jumpi\n        /* \"#utility.yul\":839:918   */\n      tag_58\n      tag_59\n      jump\t// in\n    tag_58:\n        /* \"#utility.yul\":801:920   */\n    tag_57:\n        /* \"#utility.yul\":959:960   */\n      0x00\n        /* \"#utility.yul\":984:1037   */\n      tag_60\n        /* \"#utility.yul\":1029:1036   */\n      dup5\n        /* \"#utility.yul\":1020:1026   */\n      dup3\n        /* \"#utility.yul\":1009:1018   */\n      dup6\n        /* \"#utility.yul\":1005:1027   */\n      add\n        /* \"#utility.yul\":984:1037   */\n      tag_52\n      jump\t// in\n    tag_60:\n        /* \"#utility.yul\":974:1037   */\n      swap2\n      pop\n        /* \"#utility.yul\":930:1047   */\n      pop\n        /* \"#utility.yul\":725:1054   */\n      swap3\n      swap2\n      pop\n      pop\n      jump\t// out\n        /* \"#utility.yul\":1060:2079   */\n    tag_13:\n        /* \"#utility.yul\":1161:1167   */\n      0x00\n        /* \"#utility.yul\":1169:1175   */\n      dup1\n        /* \"#utility.yul\":1177:1183   */\n      0x00\n        /* \"#utility.yul\":1185:1191   */\n      dup1\n        /* \"#utility.yul\":1193:1199   */\n      0x00\n        /* \"#utility.yul\":1242:1244   */\n      0x60\n        /* \"#utility.yul\":1230:1239   */\n      dup7\n        /* \"#utility.yul\":1221:1228   */\n      dup9\n        /* \"#utility.yul\":1217:1240   */\n      sub\n        /* \"#utility.yul\":1213:1245   */\n      slt\n        /* \"#utility.yul\":1210:1329   */\n      iszero\n      tag_62\n      jumpi\n        /* \"#utility.yul\":1248:1327   */\n      tag_63\n      tag_59\n      jump\t// in\n    tag_63:\n        /* \"#utility.yul\":1210:1329   */\n    tag_62:\n        /* \"#utility.yul\":1368:1369   */\n      0x00\n        /* \"#utility.yul\":1393:1446   */\n      tag_64\n        /* \"#utility.yul\":1438:1445   */\n      dup9\n        /* \"#utility.yul\":1429:1435   */\n      dup3\n        /* \"#utility.yul\":1418:1427   */\n      dup10\n        /* \"#utility.yul\":1414:1436   */\n      add\n        /* \"#utility.yul\":1393:1446   */\n      tag_52\n      jump\t// in\n    tag_64:\n        /* \"#utility.yul\":1383:1446   */\n      swap6\n      pop\n        /* \"#utility.yul\":1339:1456   */\n      pop\n        /* \"#utility.yul\":1523:1525   */\n      0x20\n        /* \"#utility.yul\":1512:1521   */\n      dup7\n        /* \"#utility.yul\":1508:1526   */\n      add\n        /* \"#utility.yul\":1495:1527   */\n      calldataload\n        /* \"#utility.yul\":1554:1572   */\n      0xffffffffffffffff\n        /* \"#utility.yul\":1546:1552   */\n      dup2\n        /* \"#utility.yul\":1543:1573   */\n      gt\n        /* \"#utility.yul\":1540:1657   */\n      iszero\n      tag_65\n      jumpi\n        /* \"#utility.yul\":1576:1655   */\n      tag_66\n      tag_67\n      jump\t// in\n    tag_66:\n        /* \"#utility.yul\":1540:1657   */\n    tag_65:\n        /* \"#utility.yul\":1689:1754   */\n      tag_68\n        /* \"#utility.yul\":1746:1753   */\n      dup9\n        /* \"#utility.yul\":1737:1743   */\n      dup3\n        /* \"#utility.yul\":1726:1735   */\n      dup10\n        /* \"#utility.yul\":1722:1744   */\n      add\n        /* \"#utility.yul\":1689:1754   */\n      tag_41\n      jump\t// in\n    tag_68:\n        /* \"#utility.yul\":1671:1754   */\n      swap5\n      pop\n      swap5\n      pop\n        /* \"#utility.yul\":1466:1764   */\n      pop\n        /* \"#utility.yul\":1831:1833   */\n      0x40\n        /* \"#utility.yul\":1820:1829   */\n      dup7\n        /* \"#utility.yul\":1816:1834   */\n      add\n        /* \"#utility.yul\":1803:1835   */\n      calldataload\n        /* \"#utility.yul\":1862:1880   */\n      0xffffffffffffffff\n        /* \"#utility.yul\":1854:1860   */\n      dup2\n        /* \"#utility.yul\":1851:1881   */\n      gt\n        /* \"#utility.yul\":1848:1965   */\n      iszero\n      tag_69\n      jumpi\n        /* \"#utility.yul\":1884:1963   */\n      tag_70\n      tag_67\n      jump\t// in\n    tag_70:\n        /* \"#utility.yul\":1848:1965   */\n    tag_69:\n        /* \"#utility.yul\":1997:2062   */\n      tag_71\n        /* \"#utility.yul\":2054:2061   */\n      dup9\n        /* \"#utility.yul\":2045:2051   */\n      dup3\n        /* \"#utility.yul\":2034:2043   */\n      dup10\n        /* \"#utility.yul\":2030:2052   */\n      add\n        /* \"#utility.yul\":1997:2062   */\n      tag_41\n      jump\t// in\n    tag_71:\n        /* \"#utility.yul\":1979:2062   */\n      swap3\n      pop\n      swap3\n      pop\n        /* \"#utility.yul\":1774:2072   */\n      pop\n        /* \"#utility.yul\":1060:2079   */\n      swap3\n      swap6\n      pop\n      swap3\n      swap6\n      swap1\n      swap4\n      pop\n      jump\t// out\n        /* \"#utility.yul\":2085:2449   */\n    tag_72:\n        /* \"#utility.yul\":2173:2176   */\n      0x00\n        /* \"#utility.yul\":2201:2240   */\n      tag_74\n        /* \"#utility.yul\":2234:2239   */\n      dup3\n        /* \"#utility.yul\":2201:2240   */\n      tag_75\n      jump\t// in\n    tag_74:\n        /* \"#utility.yul\":2256:2327   */\n      tag_76\n        /* \"#utility.yul\":2320:2326   */\n      dup2\n        /* \"#utility.yul\":2315:2318   */\n      dup6\n        /* \"#utility.yul\":2256:2327   */\n      tag_77\n      jump\t// in\n    tag_76:\n        /* \"#utility.yul\":2249:2327   */\n      swap4\n      pop\n        /* \"#utility.yul\":2336:2388   */\n      tag_78\n        /* \"#utility.yul\":2381:2387   */\n      dup2\n        /* \"#utility.yul\":2376:2379   */\n      dup6\n        /* \"#utility.yul\":2369:2373   */\n      0x20\n        /* \"#utility.yul\":2362:2367   */\n      dup7\n        /* \"#utility.yul\":2358:2374   */\n      add\n        /* \"#utility.yul\":2336:2388   */\n      tag_79\n      jump\t// in\n    tag_78:\n        /* \"#utility.yul\":2413:2442   */\n      tag_80\n        /* \"#utility.yul\":2435:2441   */\n      dup2\n        /* \"#utility.yul\":2413:2442   */\n      tag_81\n      jump\t// in\n    tag_80:\n        /* \"#utility.yul\":2408:2411   */\n      dup5\n        /* \"#utility.yul\":2404:2443   */\n      add\n        /* \"#utility.yul\":2397:2443   */\n      swap2\n      pop\n        /* \"#utility.yul\":2177:2449   */\n      pop\n        /* \"#utility.yul\":2085:2449   */\n      swap3\n      swap2\n      pop\n      pop\n      jump\t// out\n        /* \"#utility.yul\":2455:2969   */\n    tag_10:\n        /* \"#utility.yul\":2616:2620   */\n      0x00\n        /* \"#utility.yul\":2654:2656   */\n      0x40\n        /* \"#utility.yul\":2643:2652   */\n      dup3\n        /* \"#utility.yul\":2639:2657   */\n      add\n        /* \"#utility.yul\":2631:2657   */\n      swap1\n      pop\n        /* \"#utility.yul\":2703:2712   */\n      dup2\n        /* \"#utility.yul\":2697:2701   */\n      dup2\n        /* \"#utility.yul\":2693:2713   */\n      sub\n        /* \"#utility.yul\":2689:2690   */\n      0x00\n        /* \"#utility.yul\":2678:2687   */\n      dup4\n        /* \"#utility.yul\":2674:2691   */\n      add\n        /* \"#utility.yul\":2667:2714   */\n      mstore\n        /* \"#utility.yul\":2731:2809   */\n      tag_83\n        /* \"#utility.yul\":2804:2808   */\n      dup2\n        /* \"#utility.yul\":2795:2801   */\n      dup6\n        /* \"#utility.yul\":2731:2809   */\n      tag_72\n      jump\t// in\n    tag_83:\n        /* \"#utility.yul\":2723:2809   */\n      swap1\n      pop\n        /* \"#utility.yul\":2856:2865   */\n      dup2\n        /* \"#utility.yul\":2850:2854   */\n      dup2\n        /* \"#utility.yul\":2846:2866   */\n      sub\n        /* \"#utility.yul\":2841:2843   */\n      0x20\n        /* \"#utility.yul\":2830:2839   */\n      dup4\n        /* \"#utility.yul\":2826:2844   */\n      add\n        /* \"#utility.yul\":2819:2867   */\n      mstore\n        /* \"#utility.yul\":2884:2962   */\n      tag_84\n        /* \"#utility.yul\":2957:2961   */\n      dup2\n        /* \"#utility.yul\":2948:2954   */\n      dup5\n        /* \"#utility.yul\":2884:2962   */\n      tag_72\n      jump\t// in\n    tag_84:\n        /* \"#utility.yul\":2876:2962   */\n      swap1\n      pop\n        /* \"#utility.yul\":2455:2969   */\n      swap4\n      swap3\n      pop\n      pop\n      pop\n      jump\t// out\n        /* \"#utility.yul\":3056:3155   */\n    tag_75:\n        /* \"#utility.yul\":3108:3114   */\n      0x00\n        /* \"#utility.yul\":3142:3147   */\n      dup2\n        /* \"#utility.yul\":3136:3148   */\n      mload\n        /* \"#utility.yul\":3126:3148   */\n      swap1\n      pop\n        /* \"#utility.yul\":3056:3155   */\n      swap2\n      swap1\n      pop\n      jump\t// out\n        /* \"#utility.yul\":3161:3330   */\n    tag_77:\n        /* \"#utility.yul\":3245:3256   */\n      0x00\n        /* \"#utility.yul\":3279:3285   */\n      dup3\n        /* \"#utility.yul\":3274:3277   */\n      dup3\n        /* \"#utility.yul\":3267:3286   */\n      mstore\n        /* \"#utility.yul\":3319:3323   */\n      0x20\n        /* \"#utility.yul\":3314:3317   */\n      dup3\n        /* \"#utility.yul\":3310:3324   */\n      add\n        /* \"#utility.yul\":3295:3324   */\n      swap1\n      pop\n        /* \"#utility.yul\":3161:3330   */\n      swap3\n      swap2\n      pop\n      pop\n      jump\t// out\n        /* \"#utility.yul\":3336:3413   */\n    tag_89:\n        /* \"#utility.yul\":3373:3380   */\n      0x00\n        /* \"#utility.yul\":3402:3407   */\n      dup2\n        /* \"#utility.yul\":3391:3407   */\n      swap1\n      pop\n        /* \"#utility.yul\":3336:3413   */\n      swap2\n      swap1\n      pop\n      jump\t// out\n        /* \"#utility.yul\":3419:3726   */\n    tag_79:\n        /* \"#utility.yul\":3487:3488   */\n      0x00\n        /* \"#utility.yul\":3497:3610   */\n    tag_92:\n        /* \"#utility.yul\":3511:3517   */\n      dup4\n        /* \"#utility.yul\":3508:3509   */\n      dup2\n        /* \"#utility.yul\":3505:3518   */\n      lt\n        /* \"#utility.yul\":3497:3610   */\n      iszero\n      tag_94\n      jumpi\n        /* \"#utility.yul\":3596:3597   */\n      dup1\n        /* \"#utility.yul\":3591:3594   */\n      dup3\n        /* \"#utility.yul\":3587:3598   */\n      add\n        /* \"#utility.yul\":3581:3599   */\n      mload\n        /* \"#utility.yul\":3577:3578   */\n      dup2\n        /* \"#utility.yul\":3572:3575   */\n      dup5\n        /* \"#utility.yul\":3568:3579   */\n      add\n        /* \"#utility.yul\":3561:3600   */\n      mstore\n        /* \"#utility.yul\":3533:3535   */\n      0x20\n        /* \"#utility.yul\":3530:3531   */\n      dup2\n        /* \"#utility.yul\":3526:3536   */\n      add\n        /* \"#utility.yul\":3521:3536   */\n      swap1\n      pop\n        /* \"#utility.yul\":3497:3610   */\n      jump(tag_92)\n    tag_94:\n        /* \"#utility.yul\":3628:3634   */\n      dup4\n        /* \"#utility.yul\":3625:3626   */\n      dup2\n        /* \"#utility.yul\":3622:3635   */\n      gt\n        /* \"#utility.yul\":3619:3720   */\n      iszero\n      tag_95\n      jumpi\n        /* \"#utility.yul\":3708:3709   */\n      0x00\n        /* \"#utility.yul\":3699:3705   */\n      dup5\n        /* \"#utility.yul\":3694:3697   */\n      dup5\n        /* \"#utility.yul\":3690:3706   */\n      add\n        /* \"#utility.yul\":3683:3710   */\n      mstore\n        /* \"#utility.yul\":3619:3720   */\n    tag_95:\n        /* \"#utility.yul\":3468:3726   */\n      pop\n        /* \"#utility.yul\":3419:3726   */\n      pop\n      pop\n      pop\n      jump\t// out\n        /* \"#utility.yul\":3732:4052   */\n    tag_16:\n        /* \"#utility.yul\":3776:3782   */\n      0x00\n        /* \"#utility.yul\":3813:3814   */\n      0x02\n        /* \"#utility.yul\":3807:3811   */\n      dup3\n        /* \"#utility.yul\":3803:3815   */\n      div\n        /* \"#utility.yul\":3793:3815   */\n      swap1\n      pop\n        /* \"#utility.yul\":3860:3861   */\n      0x01\n        /* \"#utility.yul\":3854:3858   */\n      dup3\n        /* \"#utility.yul\":3850:3862   */\n      and\n        /* \"#utility.yul\":3881:3899   */\n      dup1\n        /* \"#utility.yul\":3871:3952   */\n      tag_97\n      jumpi\n        /* \"#utility.yul\":3937:3941   */\n      0x7f\n        /* \"#utility.yul\":3929:3935   */\n      dup3\n        /* \"#utility.yul\":3925:3942   */\n      and\n        /* \"#utility.yul\":3915:3942   */\n      swap2\n      pop\n        /* \"#utility.yul\":3871:3952   */\n    tag_97:\n        /* \"#utility.yul\":3999:4001   */\n      0x20\n        /* \"#utility.yul\":3991:3997   */\n      dup3\n        /* \"#utility.yul\":3988:4002   */\n      lt\n        /* \"#utility.yul\":3968:3986   */\n      dup2\n        /* \"#utility.yul\":3965:4003   */\n      eq\n        /* \"#utility.yul\":3962:4046   */\n      iszero\n      tag_98\n      jumpi\n        /* \"#utility.yul\":4018:4036   */\n      tag_99\n      tag_100\n      jump\t// in\n    tag_99:\n        /* \"#utility.yul\":3962:4046   */\n    tag_98:\n        /* \"#utility.yul\":3783:4052   */\n      pop\n        /* \"#utility.yul\":3732:4052   */\n      swap2\n      swap1\n      pop\n      jump\t// out\n        /* \"#utility.yul\":4058:4238   */\n    tag_100:\n        /* \"#utility.yul\":4106:4183   */\n      0x4e487b7100000000000000000000000000000000000000000000000000000000\n        /* \"#utility.yul\":4103:4104   */\n      0x00\n        /* \"#utility.yul\":4096:4184   */\n      mstore\n        /* \"#utility.yul\":4203:4207   */\n      0x22\n        /* \"#utility.yul\":4200:4201   */\n      0x04\n        /* \"#utility.yul\":4193:4208   */\n      mstore\n        /* \"#utility.yul\":4227:4231   */\n      0x24\n        /* \"#utility.yul\":4224:4225   */\n      0x00\n        /* \"#utility.yul\":4217:4232   */\n      revert\n        /* \"#utility.yul\":4244:4361   */\n    tag_48:\n        /* \"#utility.yul\":4353:4354   */\n      0x00\n        /* \"#utility.yul\":4350:4351   */\n      dup1\n        /* \"#utility.yul\":4343:4355   */\n      revert\n        /* \"#utility.yul\":4367:4484   */\n    tag_45:\n        /* \"#utility.yul\":4476:4477   */\n      0x00\n        /* \"#utility.yul\":4473:4474   */\n      dup1\n        /* \"#utility.yul\":4466:4478   */\n      revert\n        /* \"#utility.yul\":4490:4607   */\n    tag_51:\n        /* \"#utility.yul\":4599:4600   */\n      0x00\n        /* \"#utility.yul\":4596:4597   */\n      dup1\n        /* \"#utility.yul\":4589:4601   */\n      revert\n        /* \"#utility.yul\":4613:4730   */\n    tag_67:\n        /* \"#utility.yul\":4722:4723   */\n      0x00\n        /* \"#utility.yul\":4719:4720   */\n      dup1\n        /* \"#utility.yul\":4712:4724   */\n      revert\n        /* \"#utility.yul\":4736:4853   */\n    tag_59:\n        /* \"#utility.yul\":4845:4846   */\n      0x00\n        /* \"#utility.yul\":4842:4843   */\n      dup1\n        /* \"#utility.yul\":4835:4847   */\n      revert\n        /* \"#utility.yul\":4859:4961   */\n    tag_81:\n        /* \"#utility.yul\":4900:4906   */\n      0x00\n        /* \"#utility.yul\":4951:4953   */\n      0x1f\n        /* \"#utility.yul\":4947:4954   */\n      not\n        /* \"#utility.yul\":4942:4944   */\n      0x1f\n        /* \"#utility.yul\":4935:4940   */\n      dup4\n        /* \"#utility.yul\":4931:4945   */\n      add\n        /* \"#utility.yul\":4927:4955   */\n      and\n        /* \"#utility.yul\":4917:4955   */\n      swap1\n      pop\n        /* \"#utility.yul\":4859:4961   */\n      swap2\n      swap1\n      pop\n      jump\t// out\n        /* \"#utility.yul\":4967:5089   */\n    tag_55:\n        /* \"#utility.yul\":5040:5064   */\n      tag_109\n        /* \"#utility.yul\":5058:5063   */\n      dup2\n        /* \"#utility.yul\":5040:5064   */\n      tag_89\n      jump\t// in\n    tag_109:\n        /* \"#utility.yul\":5033:5038   */\n      dup2\n        /* \"#utility.yul\":5030:5065   */\n      eq\n        /* \"#utility.yul\":5020:5083   */\n      tag_110\n      jumpi\n        /* \"#utility.yul\":5079:5080   */\n      0x00\n        /* \"#utility.yul\":5076:5077   */\n      dup1\n        /* \"#utility.yul\":5069:5081   */\n      revert\n        /* \"#utility.yul\":5020:5083   */\n    tag_110:\n        /* \"#utility.yul\":4967:5089   */\n      pop\n      jump\t// out\n\n    auxdata: 0xa2646970667358221220548b677b6cc75127f4d19a7263ae15e2c3f11a72931223d507c8e9b6aa86e64f64736f6c63430008070033\n}\n",
				"bytecode": {
					"linkReferences": {},
					"object": "608060405234801561001057600080fd5b50610620806100206000396000f3fe608060405234801561001057600080fd5b50600436106100365760003560e01c8063404ebf6c1461003b578063f40f48c91461006c575b600080fd5b610055600480360381019061005091906103bd565b610088565b6040516100639291906104b8565b60405180910390f35b610086600480360381019061008191906103ea565b6101bc565b005b60006020528060005260406000206000915090508060000180546100ab90610548565b80601f01602080910402602001604051908101604052809291908181526020018280546100d790610548565b80156101245780601f106100f957610100808354040283529160200191610124565b820191906000526020600020905b81548152906001019060200180831161010757829003601f168201915b50505050509080600101805461013990610548565b80601f016020809104026020016040519081016040528092919081815260200182805461016590610548565b80156101b25780601f10610187576101008083540402835291602001916101b2565b820191906000526020600020905b81548152906001019060200180831161019557829003601f168201915b5050505050905082565b604051806040016040528085858080601f016020809104026020016040519081016040528093929190818152602001838380828437600081840152601f19601f82011690508083019250505050505050815260200183838080601f016020809104026020016040519081016040528093929190818152602001838380828437600081840152601f19601f8201169050808301925050505050505081525060008087815260200190815260200160002060008201518160000190805190602001906102879291906102af565b5060208201518160010190805190602001906102a49291906102af565b509050505050505050565b8280546102bb90610548565b90600052602060002090601f0160209004810192826102dd5760008555610324565b82601f106102f657805160ff1916838001178555610324565b82800160010185558215610324579182015b82811115610323578251825591602001919060010190610308565b5b5090506103319190610335565b5090565b5b8082111561034e576000816000905550600101610336565b5090565b60008083601f840112610368576103676105ae565b5b8235905067ffffffffffffffff811115610385576103846105a9565b5b6020830191508360018202830111156103a1576103a06105b3565b5b9250929050565b6000813590506103b7816105d3565b92915050565b6000602082840312156103d3576103d26105bd565b5b60006103e1848285016103a8565b91505092915050565b600080600080600060608688031215610406576104056105bd565b5b6000610414888289016103a8565b955050602086013567ffffffffffffffff811115610435576104346105b8565b5b61044188828901610352565b9450945050604086013567ffffffffffffffff811115610464576104636105b8565b5b61047088828901610352565b92509250509295509295909350565b600061048a826104ef565b61049481856104fa565b93506104a4818560208601610515565b6104ad816105c2565b840191505092915050565b600060408201905081810360008301526104d2818561047f565b905081810360208301526104e6818461047f565b90509392505050565b600081519050919050565b600082825260208201905092915050565b6000819050919050565b60005b83811015610533578082015181840152602081019050610518565b83811115610542576000848401525b50505050565b6000600282049050600182168061056057607f821691505b602082108114156105745761057361057a565b5b50919050565b7f4e487b7100000000000000000000000000000000000000000000000000000000600052602260045260246000fd5b600080fd5b600080fd5b600080fd5b600080fd5b600080fd5b6000601f19601f8301169050919050565b6105dc8161050b565b81146105e757600080fd5b5056fea2646970667358221220548b677b6cc75127f4d19a7263ae15e2c3f11a72931223d507c8e9b6aa86e64f64736f6c63430008070033",
					"opcodes": "PUSH1 0x80 PUSH1 0x40 MSTORE CALLVALUE DUP1 ISZERO PUSH2 0x10 JUMPI PUSH1 0x0 DUP1 REVERT JUMPDEST POP PUSH2 0x620 DUP1 PUSH2 0x20 PUSH1 0x0 CODECOPY PUSH1 0x0 RETURN INVALID PUSH1 0x80 PUSH1 0x40 MSTORE CALLVALUE DUP1 ISZERO PUSH2 0x10 JUMPI PUSH1 0x0 DUP1 REVERT JUMPDEST POP PUSH1 0x4 CALLDATASIZE LT PUSH2 0x36 JUMPI PUSH1 0x0 CALLDATALOAD PUSH1 0xE0 SHR DUP1 PUSH4 0x404EBF6C EQ PUSH2 0x3B JUMPI DUP1 PUSH4 0xF40F48C9 EQ PUSH2 0x6C JUMPI JUMPDEST PUSH1 0x0 DUP1 REVERT JUMPDEST PUSH2 0x55 PUSH1 0x4 DUP1 CALLDATASIZE SUB DUP2 ADD SWAP1 PUSH2 0x50 SWAP2 SWAP1 PUSH2 0x3BD JUMP JUMPDEST PUSH2 0x88 JUMP JUMPDEST PUSH1 0x40 MLOAD PUSH2 0x63 SWAP3 SWAP2 SWAP1 PUSH2 0x4B8 JUMP JUMPDEST PUSH1 0x40 MLOAD DUP1 SWAP2 SUB SWAP1 RETURN JUMPDEST PUSH2 0x86 PUSH1 0x4 DUP1 CALLDATASIZE SUB DUP2 ADD SWAP1 PUSH2 0x81 SWAP2 SWAP1 PUSH2 0x3EA JUMP JUMPDEST PUSH2 0x1BC JUMP JUMPDEST STOP JUMPDEST PUSH1 0x0 PUSH1 0x20 MSTORE DUP1 PUSH1 0x0 MSTORE PUSH1 0x40 PUSH1 0x0 KECCAK256 PUSH1 0x0 SWAP2 POP SWAP1 POP DUP1 PUSH1 0x0 ADD DUP1 SLOAD PUSH2 0xAB SWAP1 PUSH2 0x548 JUMP JUMPDEST DUP1 PUSH1 0x1F ADD PUSH1 0x20 DUP1 SWAP2 DIV MUL PUSH1 0x20 ADD PUSH1 0x40 MLOAD SWAP1 DUP2 ADD PUSH1 0x40 MSTORE DUP1 SWAP3 SWAP2 SWAP1 DUP2 DUP2 MSTORE PUSH1 0x20 ADD DUP3 DUP1 SLOAD PUSH2 0xD7 SWAP1 PUSH2 0x548 JUMP JUMPDEST DUP1 ISZERO PUSH2 0x124 JUMPI DUP1 PUSH1 0x1F LT PUSH2 0xF9 JUMPI PUSH2 0x100 DUP1 DUP4 SLOAD DIV MUL DUP4 MSTORE SWAP2 PUSH1 0x20 ADD SWAP2 PUSH2 0x124 JUMP JUMPDEST DUP3 ADD SWAP2 SWAP1 PUSH1 0x0 MSTORE PUSH1 0x20 PUSH1 0x0 KECCAK256 SWAP1 JUMPDEST DUP2 SLOAD DUP2 MSTORE SWAP1 PUSH1 0x1 ADD SWAP1 PUSH1 0x20 ADD DUP1 DUP4 GT PUSH2 0x107 JUMPI DUP3 SWAP1 SUB PUSH1 0x1F AND DUP3 ADD SWAP2 JUMPDEST POP POP POP POP POP SWAP1 DUP1 PUSH1 0x1 ADD DUP1 SLOAD PUSH2 0x139 SWAP1 PUSH2 0x548 JUMP JUMPDEST DUP1 PUSH1 0x1F ADD PUSH1 0x20 DUP1 SWAP2 DIV MUL PUSH1 0x20 ADD PUSH1 0x40 MLOAD SWAP1 DUP2 ADD PUSH1 0x40 MSTORE DUP1 SWAP3 SWAP2 SWAP1 DUP2 DUP2 MSTORE PUSH1 0x20 ADD DUP3 DUP1 SLOAD PUSH2 0x165 SWAP1 PUSH2 0x548 JUMP JUMPDEST DUP1 ISZERO PUSH2 0x1B2 JUMPI DUP1 PUSH1 0x1F LT PUSH2 0x187 JUMPI PUSH2 0x100 DUP1 DUP4 SLOAD DIV MUL DUP4 MSTORE SWAP2 PUSH1 0x20 ADD SWAP2 PUSH2 0x1B2 JUMP JUMPDEST DUP3 ADD SWAP2 SWAP1 PUSH1 0x0 MSTORE PUSH1 0x20 PUSH1 0x0 KECCAK256 SWAP1 JUMPDEST DUP2 SLOAD DUP2 MSTORE SWAP1 PUSH1 0x1 ADD SWAP1 PUSH1 0x20 ADD DUP1 DUP4 GT PUSH2 0x195 JUMPI DUP3 SWAP1 SUB PUSH1 0x1F AND DUP3 ADD SWAP2 JUMPDEST POP POP POP POP POP SWAP1 POP DUP3 JUMP JUMPDEST PUSH1 0x40 MLOAD DUP1 PUSH1 0x40 ADD PUSH1 0x40 MSTORE DUP1 DUP6 DUP6 DUP1 DUP1 PUSH1 0x1F ADD PUSH1 0x20 DUP1 SWAP2 DIV MUL PUSH1 0x20 ADD PUSH1 0x40 MLOAD SWAP1 DUP2 ADD PUSH1 0x40 MSTORE DUP1 SWAP4 SWAP3 SWAP2 SWAP1 DUP2 DUP2 MSTORE PUSH1 0x20 ADD DUP4 DUP4 DUP1 DUP3 DUP5 CALLDATACOPY PUSH1 0x0 DUP2 DUP5 ADD MSTORE PUSH1 0x1F NOT PUSH1 0x1F DUP3 ADD AND SWAP1 POP DUP1 DUP4 ADD SWAP3 POP POP POP POP POP POP POP DUP2 MSTORE PUSH1 0x20 ADD DUP4 DUP4 DUP1 DUP1 PUSH1 0x1F ADD PUSH1 0x20 DUP1 SWAP2 DIV MUL PUSH1 0x20 ADD PUSH1 0x40 MLOAD SWAP1 DUP2 ADD PUSH1 0x40 MSTORE DUP1 SWAP4 SWAP3 SWAP2 SWAP1 DUP2 DUP2 MSTORE PUSH1 0x20 ADD DUP4 DUP4 DUP1 DUP3 DUP5 CALLDATACOPY PUSH1 0x0 DUP2 DUP5 ADD MSTORE PUSH1 0x1F NOT PUSH1 0x1F DUP3 ADD AND SWAP1 POP DUP1 DUP4 ADD SWAP3 POP POP POP POP POP POP POP DUP2 MSTORE POP PUSH1 0x0 DUP1 DUP8 DUP2 MSTORE PUSH1 0x20 ADD SWAP1 DUP2 MSTORE PUSH1 0x20 ADD PUSH1 0x0 KECCAK256 PUSH1 0x0 DUP3 ADD MLOAD DUP2 PUSH1 0x0 ADD SWAP1 DUP1 MLOAD SWAP1 PUSH1 0x20 ADD SWAP1 PUSH2 0x287 SWAP3 SWAP2 SWAP1 PUSH2 0x2AF JUMP JUMPDEST POP PUSH1 0x20 DUP3 ADD MLOAD DUP2 PUSH1 0x1 ADD SWAP1 DUP1 MLOAD SWAP1 PUSH1 0x20 ADD SWAP1 PUSH2 0x2A4 SWAP3 SWAP2 SWAP1 PUSH2 0x2AF JUMP JUMPDEST POP SWAP1 POP POP POP POP POP POP POP JUMP JUMPDEST DUP3 DUP1 SLOAD PUSH2 0x2BB SWAP1 PUSH2 0x548 JUMP JUMPDEST SWAP1 PUSH1 0x0 MSTORE PUSH1 0x20 PUSH1 0x0 KECCAK256 SWAP1 PUSH1 0x1F ADD PUSH1 0x20 SWAP1 DIV DUP2 ADD SWAP3 DUP3 PUSH2 0x2DD JUMPI PUSH1 0x0 DUP6 SSTORE PUSH2 0x324 JUMP JUMPDEST DUP3 PUSH1 0x1F LT PUSH2 0x2F6 JUMPI DUP1 MLOAD PUSH1 0xFF NOT AND DUP4 DUP1 ADD OR DUP6 SSTORE PUSH2 0x324 JUMP JUMPDEST DUP3 DUP1 ADD PUSH1 0x1 ADD DUP6 SSTORE DUP3 ISZERO PUSH2 0x324 JUMPI SWAP2 DUP3 ADD JUMPDEST DUP3 DUP2 GT ISZERO PUSH2 0x323 JUMPI DUP3 MLOAD DUP3 SSTORE SWAP2 PUSH1 0x20 ADD SWAP2 SWAP1 PUSH1 0x1 ADD SWAP1 PUSH2 0x308 JUMP JUMPDEST JUMPDEST POP SWAP1 POP PUSH2 0x331 SWAP2 SWAP1 PUSH2 0x335 JUMP JUMPDEST POP SWAP1 JUMP JUMPDEST JUMPDEST DUP1 DUP3 GT ISZERO PUSH2 0x34E JUMPI PUSH1 0x0 DUP2 PUSH1 0x0 SWAP1 SSTORE POP PUSH1 0x1 ADD PUSH2 0x336 JUMP JUMPDEST POP SWAP1 JUMP JUMPDEST PUSH1 0x0 DUP1 DUP4 PUSH1 0x1F DUP5 ADD SLT PUSH2 0x368 JUMPI PUSH2 0x367 PUSH2 0x5AE JUMP JUMPDEST JUMPDEST DUP3 CALLDATALOAD SWAP1 POP PUSH8 0xFFFFFFFFFFFFFFFF DUP2 GT ISZERO PUSH2 0x385 JUMPI PUSH2 0x384 PUSH2 0x5A9 JUMP JUMPDEST JUMPDEST PUSH1 0x20 DUP4 ADD SWAP2 POP DUP4 PUSH1 0x1 DUP3 MUL DUP4 ADD GT ISZERO PUSH2 0x3A1 JUMPI PUSH2 0x3A0 PUSH2 0x5B3 JUMP JUMPDEST JUMPDEST SWAP3 POP SWAP3 SWAP1 POP JUMP JUMPDEST PUSH1 0x0 DUP2 CALLDATALOAD SWAP1 POP PUSH2 0x3B7 DUP2 PUSH2 0x5D3 JUMP JUMPDEST SWAP3 SWAP2 POP POP JUMP JUMPDEST PUSH1 0x0 PUSH1 0x20 DUP3 DUP5 SUB SLT ISZERO PUSH2 0x3D3 JUMPI PUSH2 0x3D2 PUSH2 0x5BD JUMP JUMPDEST JUMPDEST PUSH1 0x0 PUSH2 0x3E1 DUP5 DUP3 DUP6 ADD PUSH2 0x3A8 JUMP JUMPDEST SWAP2 POP POP SWAP3 SWAP2 POP POP JUMP JUMPDEST PUSH1 0x0 DUP1 PUSH1 0x0 DUP1 PUSH1 0x0 PUSH1 0x60 DUP7 DUP9 SUB SLT ISZERO PUSH2 0x406 JUMPI PUSH2 0x405 PUSH2 0x5BD JUMP JUMPDEST JUMPDEST PUSH1 0x0 PUSH2 0x414 DUP9 DUP3 DUP10 ADD PUSH2 0x3A8 JUMP JUMPDEST SWAP6 POP POP PUSH1 0x20 DUP7 ADD CALLDATALOAD PUSH8 0xFFFFFFFFFFFFFFFF DUP2 GT ISZERO PUSH2 0x435 JUMPI PUSH2 0x434 PUSH2 0x5B8 JUMP JUMPDEST JUMPDEST PUSH2 0x441 DUP9 DUP3 DUP10 ADD PUSH2 0x352 JUMP JUMPDEST SWAP5 POP SWAP5 POP POP PUSH1 0x40 DUP7 ADD CALLDATALOAD PUSH8 0xFFFFFFFFFFFFFFFF DUP2 GT ISZERO PUSH2 0x464 JUMPI PUSH2 0x463 PUSH2 0x5B8 JUMP JUMPDEST JUMPDEST PUSH2 0x470 DUP9 DUP3 DUP10 ADD PUSH2 0x352 JUMP JUMPDEST SWAP3 POP SWAP3 POP POP SWAP3 SWAP6 POP SWAP3 SWAP6 SWAP1 SWAP4 POP JUMP JUMPDEST PUSH1 0x0 PUSH2 0x48A DUP3 PUSH2 0x4EF JUMP JUMPDEST PUSH2 0x494 DUP2 DUP6 PUSH2 0x4FA JUMP JUMPDEST SWAP4 POP PUSH2 0x4A4 DUP2 DUP6 PUSH1 0x20 DUP7 ADD PUSH2 0x515 JUMP JUMPDEST PUSH2 0x4AD DUP2 PUSH2 0x5C2 JUMP JUMPDEST DUP5 ADD SWAP2 POP POP SWAP3 SWAP2 POP POP JUMP JUMPDEST PUSH1 0x0 PUSH1 0x40 DUP3 ADD SWAP1 POP DUP2 DUP2 SUB PUSH1 0x0 DUP4 ADD MSTORE PUSH2 0x4D2 DUP2 DUP6 PUSH2 0x47F JUMP JUMPDEST SWAP1 POP DUP2 DUP2 SUB PUSH1 0x20 DUP4 ADD MSTORE PUSH2 0x4E6 DUP2 DUP5 PUSH2 0x47F JUMP JUMPDEST SWAP1 POP SWAP4 SWAP3 POP POP POP JUMP JUMPDEST PUSH1 0x0 DUP2 MLOAD SWAP1 POP SWAP2 SWAP1 POP JUMP JUMPDEST PUSH1 0x0 DUP3 DUP3 MSTORE PUSH1 0x20 DUP3 ADD SWAP1 POP SWAP3 SWAP2 POP POP JUMP JUMPDEST PUSH1 0x0 DUP2 SWAP1 POP SWAP2 SWAP1 POP JUMP JUMPDEST PUSH1 0x0 JUMPDEST DUP4 DUP2 LT ISZERO PUSH2 0x533 JUMPI DUP1 DUP3 ADD MLOAD DUP2 DUP5 ADD MSTORE PUSH1 0x20 DUP2 ADD SWAP1 POP PUSH2 0x518 JUMP JUMPDEST DUP4 DUP2 GT ISZERO PUSH2 0x542 JUMPI PUSH1 0x0 DUP5 DUP5 ADD MSTORE JUMPDEST POP POP POP POP JUMP JUMPDEST PUSH1 0x0 PUSH1 0x2 DUP3 DIV SWAP1 POP PUSH1 0x1 DUP3 AND DUP1 PUSH2 0x560 JUMPI PUSH1 0x7F DUP3 AND SWAP2 POP JUMPDEST PUSH1 0x20 DUP3 LT DUP2 EQ ISZERO PUSH2 0x574 JUMPI PUSH2 0x573 PUSH2 0x57A JUMP JUMPDEST JUMPDEST POP SWAP2 SWAP1 POP JUMP JUMPDEST PUSH32 0x4E487B7100000000000000000000000000000000000000000000000000000000 PUSH1 0x0 MSTORE PUSH1 0x22 PUSH1 0x4 MSTORE PUSH1 0x24 PUSH1 0x0 REVERT JUMPDEST PUSH1 0x0 DUP1 REVERT JUMPDEST PUSH1 0x0 DUP1 REVERT JUMPDEST PUSH1 0x0 DUP1 REVERT JUMPDEST PUSH1 0x0 DUP1 REVERT JUMPDEST PUSH1 0x0 DUP1 REVERT JUMPDEST PUSH1 0x0 PUSH1 0x1F NOT PUSH1 0x1F DUP4 ADD AND SWAP1 POP SWAP2 SWAP1 POP JUMP JUMPDEST PUSH2 0x5DC DUP2 PUSH2 0x50B JUMP JUMPDEST DUP2 EQ PUSH2 0x5E7 JUMPI PUSH1 0x0 DUP1 REVERT JUMPDEST POP JUMP INVALID LOG2 PUSH5 0x6970667358 0x22 SLT KECCAK256 SLOAD DUP12 PUSH8 0x7B6CC75127F4D19A PUSH19 0x63AE15E2C3F11A72931223D507C8E9B6AA86E6 0x4F PUSH5 0x736F6C6343 STOP ADDMOD SMOD STOP CALLER "
				},
				"gasEstimates": {
					"creation": {
						"codeDepositCost": "313600",
						"executionCost": "349",
						"totalCost": "313949"
					},
					"external": {
						"addMovie(uint256,string,string)": "infinite",
						"movies(uint256)": "infinite"
					}
				},
				"methodIdentifiers": {
					"addMovie(uint256,string,string)": "f40f48c9",
					"movies(uint256)": "404ebf6c"
				}
			},
			"storageLayout": {
				"storage": [
					{
						"astId": 11,
						"contract": "contracts/11_mapping.sol:LearnMapping",
						"label": "movies",
						"offset": 0,
						"slot": "0",
						"type": "t_mapping(t_uint256,t_struct(Movie)6_storage)"
					}
				],
				"types": {
					"t_mapping(t_uint256,t_struct(Movie)6_storage)": {
						"encoding": "mapping",
						"key": "t_uint256",
						"label": "mapping(uint256 => struct LearnMapping.Movie)",
						"numberOfBytes": "32",
						"value": "t_struct(Movie)6_storage"
					},
					"t_string_storage": {
						"encoding": "bytes",
						"label": "string",
						"numberOfBytes": "32"
					},
					"t_struct(Movie)6_storage": {
						"encoding": "inplace",
						"label": "struct LearnMapping.Movie",
						"members": [
							{
								"astId": 3,
								"contract": "contracts/11_mapping.sol:LearnMapping",
								"label": "title",
								"offset": 0,
								"slot": "0",
								"type": "t_string_storage"
							},
							{
								"astId": 5,
								"contract": "contracts/11_mapping.sol:LearnMapping",
								"label": "director",
								"offset": 0,
								"slot": "1",
								"type": "t_string_storage"
							}
						],
						"numberOfBytes": "64"
					},
					"t_uint256": {
						"encoding": "inplace",
						"label": "uint256",
						"numberOfBytes": "32"
					}
				}
			},
			"userdoc": {
				"kind": "user",
				"methods": {},
				"version": 1
			}
		}
	}
}