{
	"contracts/11_mapping_assignment.sol": {
		"LearnMapping": {
			"abi": [
				{
					"inputs": [
						{
							"internalType": "uint256",
							"name": "_id",
							"type": "uint256"
						},
						{
							"internalType": "string",
							"name": "_title",
							"type": "string"
						},
						{
							"internalType": "string",
							"name": "_director",
							"type": "string"
						}
					],
					"name": "addMovie",
					"outputs": [],
					"stateMutability": "nonpayable",
					"type": "function"
				},
				{
					"inputs": [
						{
							"internalType": "uint256",
							"name": "_id",
							"type": "uint256"
						}
					],
					"name": "getMovie",
					"outputs": [
						{
							"components": [
								{
									"internalType": "string",
									"name": "title",
									"type": "string"
								},
								{
									"internalType": "string",
									"name": "director",
									"type": "string"
								}
							],
							"internalType": "struct LearnMapping.Movie",
							"name": "",
							"type": "tuple"
						}
					],
					"stateMutability": "view",
					"type": "function"
				}
			],
			"devdoc": {
				"kind": "dev",
				"methods": {},
				"version": 1
			},
			"evm": {
				"assembly": "    /* \"contracts/11_mapping_assignment.sol\":57:444  contract LearnMapping {... */\n  mstore(0x40, 0x80)\n  callvalue\n  dup1\n  iszero\n  tag_1\n  jumpi\n  0x00\n  dup1\n  revert\ntag_1:\n  pop\n  dataSize(sub_0)\n  dup1\n  dataOffset(sub_0)\n  0x00\n  codecopy\n  0x00\n  return\nstop\n\nsub_0: assembly {\n        /* \"contracts/11_mapping_assignment.sol\":57:444  contract LearnMapping {... */\n      mstore(0x40, 0x80)\n      callvalue\n      dup1\n      iszero\n      tag_1\n      jumpi\n      0x00\n      dup1\n      revert\n    tag_1:\n      pop\n      jumpi(tag_2, lt(calldatasize, 0x04))\n      shr(0xe0, calldataload(0x00))\n      dup1\n      0x179ffe76\n      eq\n      tag_3\n      jumpi\n      dup1\n      0xf40f48c9\n      eq\n      tag_4\n      jumpi\n    tag_2:\n      0x00\n      dup1\n      revert\n        /* \"contracts/11_mapping_assignment.sol\":338:436  function getMovie(uint _id) public view returns (Movie memory) {... */\n    tag_3:\n      tag_5\n      0x04\n      dup1\n      calldatasize\n      sub\n      dup2\n      add\n      swap1\n      tag_6\n      swap2\n      swap1\n      tag_7\n      jump\t// in\n    tag_6:\n      tag_8\n      jump\t// in\n    tag_5:\n      mload(0x40)\n      tag_9\n      swap2\n      swap1\n      tag_10\n      jump\t// in\n    tag_9:\n      mload(0x40)\n      dup1\n      swap2\n      sub\n      swap1\n      return\n        /* \"contracts/11_mapping_assignment.sol\":195:332  function addMovie(uint _id, string memory _title, string memory _director) public {... */\n    tag_4:\n      tag_11\n      0x04\n      dup1\n      calldatasize\n      sub\n      dup2\n      add\n      swap1\n      tag_12\n      swap2\n      swap1\n      tag_13\n      jump\t// in\n    tag_12:\n      tag_14\n      jump\t// in\n    tag_11:\n      stop\n        /* \"contracts/11_mapping_assignment.sol\":338:436  function getMovie(uint _id) public view returns (Movie memory) {... */\n    tag_8:\n        /* \"contracts/11_mapping_assignment.sol\":387:399  Movie memory */\n      tag_15\n      tag_16\n      jump\t// in\n    tag_15:\n        /* \"contracts/11_mapping_assignment.sol\":418:424  movies */\n      0x00\n        /* \"contracts/11_mapping_assignment.sol\":418:429  movies[_id] */\n      dup1\n        /* \"contracts/11_mapping_assignment.sol\":425:428  _id */\n      dup4\n        /* \"contracts/11_mapping_assignment.sol\":418:429  movies[_id] */\n      dup2\n      mstore\n      0x20\n      add\n      swap1\n      dup2\n      mstore\n      0x20\n      add\n      0x00\n      keccak256\n        /* \"contracts/11_mapping_assignment.sol\":411:429  return movies[_id] */\n      mload(0x40)\n      dup1\n      0x40\n      add\n      0x40\n      mstore\n      swap1\n      dup2\n      0x00\n      dup3\n      add\n      dup1\n      sload\n      tag_18\n      swap1\n      tag_19\n      jump\t// in\n    tag_18:\n      dup1\n      0x1f\n      add\n      0x20\n      dup1\n      swap2\n      div\n      mul\n      0x20\n      add\n      mload(0x40)\n      swap1\n      dup2\n      add\n      0x40\n      mstore\n      dup1\n      swap3\n      swap2\n      swap1\n      dup2\n      dup2\n      mstore\n      0x20\n      add\n      dup3\n      dup1\n      sload\n      tag_20\n      swap1\n      tag_19\n      jump\t// in\n    tag_20:\n      dup1\n      iszero\n      tag_21\n      jumpi\n      dup1\n      0x1f\n      lt\n      tag_22\n      jumpi\n      0x0100\n      dup1\n      dup4\n      sload\n      div\n      mul\n      dup4\n      mstore\n      swap2\n      0x20\n      add\n      swap2\n      jump(tag_21)\n    tag_22:\n      dup3\n      add\n      swap2\n      swap1\n      0x00\n      mstore\n      keccak256(0x00, 0x20)\n      swap1\n    tag_23:\n      dup2\n      sload\n      dup2\n      mstore\n      swap1\n      0x01\n      add\n      swap1\n      0x20\n      add\n      dup1\n      dup4\n      gt\n      tag_23\n      jumpi\n      dup3\n      swap1\n      sub\n      0x1f\n      and\n      dup3\n      add\n      swap2\n    tag_21:\n      pop\n      pop\n      pop\n      pop\n      pop\n      dup2\n      mstore\n      0x20\n      add\n      0x01\n      dup3\n      add\n      dup1\n      sload\n      tag_24\n      swap1\n      tag_19\n      jump\t// in\n    tag_24:\n      dup1\n      0x1f\n      add\n      0x20\n      dup1\n      swap2\n      div\n      mul\n      0x20\n      add\n      mload(0x40)\n      swap1\n      dup2\n      add\n      0x40\n      mstore\n      dup1\n      swap3\n      swap2\n      swap1\n      dup2\n      dup2\n      mstore\n      0x20\n      add\n      dup3\n      dup1\n      sload\n      tag_25\n      swap1\n      tag_19\n      jump\t// in\n    tag_25:\n      dup1\n      iszero\n      tag_26\n      jumpi\n      dup1\n      0x1f\n      lt\n      tag_27\n      jumpi\n      0x0100\n      dup1\n      dup4\n      sload\n      div\n      mul\n      dup4\n      mstore\n      swap2\n      0x20\n      add\n      swap2\n      jump(tag_26)\n    tag_27:\n      dup3\n      add\n      swap2\n      swap1\n      0x00\n      mstore\n      keccak256(0x00, 0x20)\n      swap1\n    tag_28:\n      dup2\n      sload\n      dup2\n      mstore\n      swap1\n      0x01\n      add\n      swap1\n      0x20\n      add\n      dup1\n      dup4\n      gt\n      tag_28\n      jumpi\n      dup3\n      swap1\n      sub\n      0x1f\n      and\n      dup3\n      add\n      swap2\n    tag_26:\n      pop\n      pop\n      pop\n      pop\n      pop\n      dup2\n      mstore\n      pop\n      pop\n      swap1\n      pop\n        /* \"contracts/11_mapping_assignment.sol\":338:436  function getMovie(uint _id) public view returns (Movie memory) {... */\n      swap2\n      swap1\n      pop\n      jump\t// out\n        /* \"contracts/11_mapping_assignment.sol\":195:332  function addMovie(uint _id, string memory _title, string memory _director) public {... */\n    tag_14:\n        /* \"contracts/11_mapping_assignment.sol\":301:325  Movie(_title, _director) */\n      mload(0x40)\n      dup1\n      0x40\n      add\n      0x40\n      mstore\n      dup1\n        /* \"contracts/11_mapping_assignment.sol\":307:313  _title */\n      dup4\n        /* \"contracts/11_mapping_assignment.sol\":301:325  Movie(_title, _director) */\n      dup2\n      mstore\n      0x20\n      add\n        /* \"contracts/11_mapping_assignment.sol\":315:324  _director */\n      dup3\n        /* \"contracts/11_mapping_assignment.sol\":301:325  Movie(_title, _director) */\n      dup2\n      mstore\n      pop\n        /* \"contracts/11_mapping_assignment.sol\":287:293  movies */\n      0x00\n        /* \"contracts/11_mapping_assignment.sol\":287:298  movies[_id] */\n      dup1\n        /* \"contracts/11_mapping_assignment.sol\":294:297  _id */\n      dup6\n        /* \"contracts/11_mapping_assignment.sol\":287:298  movies[_id] */\n      dup2\n      mstore\n      0x20\n      add\n      swap1\n      dup2\n      mstore\n      0x20\n      add\n      0x00\n      keccak256\n        /* \"contracts/11_mapping_assignment.sol\":287:325  movies[_id] = Movie(_title, _director) */\n      0x00\n      dup3\n      add\n      mload\n      dup2\n      0x00\n      add\n      swap1\n      dup1\n      mload\n      swap1\n      0x20\n      add\n      swap1\n      tag_30\n      swap3\n      swap2\n      swap1\n      tag_31\n      jump\t// in\n    tag_30:\n      pop\n      0x20\n      dup3\n      add\n      mload\n      dup2\n      0x01\n      add\n      swap1\n      dup1\n      mload\n      swap1\n      0x20\n      add\n      swap1\n      tag_32\n      swap3\n      swap2\n      swap1\n      tag_31\n      jump\t// in\n    tag_32:\n      pop\n      swap1\n      pop\n      pop\n        /* \"contracts/11_mapping_assignment.sol\":195:332  function addMovie(uint _id, string memory _title, string memory _director) public {... */\n      pop\n      pop\n      pop\n      jump\t// out\n    tag_16:\n      mload(0x40)\n      dup1\n      0x40\n      add\n      0x40\n      mstore\n      dup1\n      0x60\n      dup2\n      mstore\n      0x20\n      add\n      0x60\n      dup2\n      mstore\n      pop\n      swap1\n      jump\t// out\n    tag_31:\n      dup3\n      dup1\n      sload\n      tag_33\n      swap1\n      tag_19\n      jump\t// in\n    tag_33:\n      swap1\n      0x00\n      mstore\n      keccak256(0x00, 0x20)\n      swap1\n      0x1f\n      add\n      0x20\n      swap1\n      div\n      dup2\n      add\n      swap3\n      dup3\n      tag_35\n      jumpi\n      0x00\n      dup6\n      sstore\n      jump(tag_34)\n    tag_35:\n      dup3\n      0x1f\n      lt\n      tag_36\n      jumpi\n      dup1\n      mload\n      not(0xff)\n      and\n      dup4\n      dup1\n      add\n      or\n      dup6\n      sstore\n      jump(tag_34)\n    tag_36:\n      dup3\n      dup1\n      add\n      0x01\n      add\n      dup6\n      sstore\n      dup3\n      iszero\n      tag_34\n      jumpi\n      swap2\n      dup3\n      add\n    tag_37:\n      dup3\n      dup2\n      gt\n      iszero\n      tag_38\n      jumpi\n      dup3\n      mload\n      dup3\n      sstore\n      swap2\n      0x20\n      add\n      swap2\n      swap1\n      0x01\n      add\n      swap1\n      jump(tag_37)\n    tag_38:\n    tag_34:\n      pop\n      swap1\n      pop\n      tag_39\n      swap2\n      swap1\n      tag_40\n      jump\t// in\n    tag_39:\n      pop\n      swap1\n      jump\t// out\n    tag_40:\n    tag_41:\n      dup1\n      dup3\n      gt\n      iszero\n      tag_42\n      jumpi\n      0x00\n      dup2\n      0x00\n      swap1\n      sstore\n      pop\n      0x01\n      add\n      jump(tag_41)\n    tag_42:\n      pop\n      swap1\n      jump\t// out\n        /* \"#utility.yul\":7:419   */\n    tag_44:\n        /* \"#utility.yul\":85:90   */\n      0x00\n        /* \"#utility.yul\":110:176   */\n      tag_46\n        /* \"#utility.yul\":126:175   */\n      tag_47\n        /* \"#utility.yul\":168:174   */\n      dup5\n        /* \"#utility.yul\":126:175   */\n      tag_48\n      jump\t// in\n    tag_47:\n        /* \"#utility.yul\":110:176   */\n      tag_49\n      jump\t// in\n    tag_46:\n        /* \"#utility.yul\":101:176   */\n      swap1\n      pop\n        /* \"#utility.yul\":199:205   */\n      dup3\n        /* \"#utility.yul\":192:197   */\n      dup2\n        /* \"#utility.yul\":185:206   */\n      mstore\n        /* \"#utility.yul\":237:241   */\n      0x20\n        /* \"#utility.yul\":230:235   */\n      dup2\n        /* \"#utility.yul\":226:242   */\n      add\n        /* \"#utility.yul\":275:278   */\n      dup5\n        /* \"#utility.yul\":266:272   */\n      dup5\n        /* \"#utility.yul\":261:264   */\n      dup5\n        /* \"#utility.yul\":257:273   */\n      add\n        /* \"#utility.yul\":254:279   */\n      gt\n        /* \"#utility.yul\":251:363   */\n      iszero\n      tag_50\n      jumpi\n        /* \"#utility.yul\":282:361   */\n      tag_51\n      tag_52\n      jump\t// in\n    tag_51:\n        /* \"#utility.yul\":251:363   */\n    tag_50:\n        /* \"#utility.yul\":372:413   */\n      tag_53\n        /* \"#utility.yul\":406:412   */\n      dup5\n        /* \"#utility.yul\":401:404   */\n      dup3\n        /* \"#utility.yul\":396:399   */\n      dup6\n        /* \"#utility.yul\":372:413   */\n      tag_54\n      jump\t// in\n    tag_53:\n        /* \"#utility.yul\":91:419   */\n      pop\n        /* \"#utility.yul\":7:419   */\n      swap4\n      swap3\n      pop\n      pop\n      pop\n      jump\t// out\n        /* \"#utility.yul\":439:779   */\n    tag_55:\n        /* \"#utility.yul\":495:500   */\n      0x00\n        /* \"#utility.yul\":544:547   */\n      dup3\n        /* \"#utility.yul\":537:541   */\n      0x1f\n        /* \"#utility.yul\":529:535   */\n      dup4\n        /* \"#utility.yul\":525:542   */\n      add\n        /* \"#utility.yul\":521:548   */\n      slt\n        /* \"#utility.yul\":511:633   */\n      tag_57\n      jumpi\n        /* \"#utility.yul\":552:631   */\n      tag_58\n      tag_59\n      jump\t// in\n    tag_58:\n        /* \"#utility.yul\":511:633   */\n    tag_57:\n        /* \"#utility.yul\":669:675   */\n      dup2\n        /* \"#utility.yul\":656:676   */\n      calldataload\n        /* \"#utility.yul\":694:773   */\n      tag_60\n        /* \"#utility.yul\":769:772   */\n      dup5\n        /* \"#utility.yul\":761:767   */\n      dup3\n        /* \"#utility.yul\":754:758   */\n      0x20\n        /* \"#utility.yul\":746:752   */\n      dup7\n        /* \"#utility.yul\":742:759   */\n      add\n        /* \"#utility.yul\":694:773   */\n      tag_44\n      jump\t// in\n    tag_60:\n        /* \"#utility.yul\":685:773   */\n      swap2\n      pop\n        /* \"#utility.yul\":501:779   */\n      pop\n        /* \"#utility.yul\":439:779   */\n      swap3\n      swap2\n      pop\n      pop\n      jump\t// out\n        /* \"#utility.yul\":785:924   */\n    tag_61:\n        /* \"#utility.yul\":831:836   */\n      0x00\n        /* \"#utility.yul\":869:875   */\n      dup2\n        /* \"#utility.yul\":856:876   */\n      calldataload\n        /* \"#utility.yul\":847:876   */\n      swap1\n      pop\n        /* \"#utility.yul\":885:918   */\n      tag_63\n        /* \"#utility.yul\":912:917   */\n      dup2\n        /* \"#utility.yul\":885:918   */\n      tag_64\n      jump\t// in\n    tag_63:\n        /* \"#utility.yul\":785:924   */\n      swap3\n      swap2\n      pop\n      pop\n      jump\t// out\n        /* \"#utility.yul\":930:1259   */\n    tag_7:\n        /* \"#utility.yul\":989:995   */\n      0x00\n        /* \"#utility.yul\":1038:1040   */\n      0x20\n        /* \"#utility.yul\":1026:1035   */\n      dup3\n        /* \"#utility.yul\":1017:1024   */\n      dup5\n        /* \"#utility.yul\":1013:1036   */\n      sub\n        /* \"#utility.yul\":1009:1041   */\n      slt\n        /* \"#utility.yul\":1006:1125   */\n      iszero\n      tag_66\n      jumpi\n        /* \"#utility.yul\":1044:1123   */\n      tag_67\n      tag_68\n      jump\t// in\n    tag_67:\n        /* \"#utility.yul\":1006:1125   */\n    tag_66:\n        /* \"#utility.yul\":1164:1165   */\n      0x00\n        /* \"#utility.yul\":1189:1242   */\n      tag_69\n        /* \"#utility.yul\":1234:1241   */\n      dup5\n        /* \"#utility.yul\":1225:1231   */\n      dup3\n        /* \"#utility.yul\":1214:1223   */\n      dup6\n        /* \"#utility.yul\":1210:1232   */\n      add\n        /* \"#utility.yul\":1189:1242   */\n      tag_61\n      jump\t// in\n    tag_69:\n        /* \"#utility.yul\":1179:1242   */\n      swap2\n      pop\n        /* \"#utility.yul\":1135:1252   */\n      pop\n        /* \"#utility.yul\":930:1259   */\n      swap3\n      swap2\n      pop\n      pop\n      jump\t// out\n        /* \"#utility.yul\":1265:2244   */\n    tag_13:\n        /* \"#utility.yul\":1362:1368   */\n      0x00\n        /* \"#utility.yul\":1370:1376   */\n      dup1\n        /* \"#utility.yul\":1378:1384   */\n      0x00\n        /* \"#utility.yul\":1427:1429   */\n      0x60\n        /* \"#utility.yul\":1415:1424   */\n      dup5\n        /* \"#utility.yul\":1406:1413   */\n      dup7\n        /* \"#utility.yul\":1402:1425   */\n      sub\n        /* \"#utility.yul\":1398:1430   */\n      slt\n        /* \"#utility.yul\":1395:1514   */\n      iszero\n      tag_71\n      jumpi\n        /* \"#utility.yul\":1433:1512   */\n      tag_72\n      tag_68\n      jump\t// in\n    tag_72:\n        /* \"#utility.yul\":1395:1514   */\n    tag_71:\n        /* \"#utility.yul\":1553:1554   */\n      0x00\n        /* \"#utility.yul\":1578:1631   */\n      tag_73\n        /* \"#utility.yul\":1623:1630   */\n      dup7\n        /* \"#utility.yul\":1614:1620   */\n      dup3\n        /* \"#utility.yul\":1603:1612   */\n      dup8\n        /* \"#utility.yul\":1599:1621   */\n      add\n        /* \"#utility.yul\":1578:1631   */\n      tag_61\n      jump\t// in\n    tag_73:\n        /* \"#utility.yul\":1568:1631   */\n      swap4\n      pop\n        /* \"#utility.yul\":1524:1641   */\n      pop\n        /* \"#utility.yul\":1708:1710   */\n      0x20\n        /* \"#utility.yul\":1697:1706   */\n      dup5\n        /* \"#utility.yul\":1693:1711   */\n      add\n        /* \"#utility.yul\":1680:1712   */\n      calldataload\n        /* \"#utility.yul\":1739:1757   */\n      0xffffffffffffffff\n        /* \"#utility.yul\":1731:1737   */\n      dup2\n        /* \"#utility.yul\":1728:1758   */\n      gt\n        /* \"#utility.yul\":1725:1842   */\n      iszero\n      tag_74\n      jumpi\n        /* \"#utility.yul\":1761:1840   */\n      tag_75\n      tag_76\n      jump\t// in\n    tag_75:\n        /* \"#utility.yul\":1725:1842   */\n    tag_74:\n        /* \"#utility.yul\":1866:1929   */\n      tag_77\n        /* \"#utility.yul\":1921:1928   */\n      dup7\n        /* \"#utility.yul\":1912:1918   */\n      dup3\n        /* \"#utility.yul\":1901:1910   */\n      dup8\n        /* \"#utility.yul\":1897:1919   */\n      add\n        /* \"#utility.yul\":1866:1929   */\n      tag_55\n      jump\t// in\n    tag_77:\n        /* \"#utility.yul\":1856:1929   */\n      swap3\n      pop\n        /* \"#utility.yul\":1651:1939   */\n      pop\n        /* \"#utility.yul\":2006:2008   */\n      0x40\n        /* \"#utility.yul\":1995:2004   */\n      dup5\n        /* \"#utility.yul\":1991:2009   */\n      add\n        /* \"#utility.yul\":1978:2010   */\n      calldataload\n        /* \"#utility.yul\":2037:2055   */\n      0xffffffffffffffff\n        /* \"#utility.yul\":2029:2035   */\n      dup2\n        /* \"#utility.yul\":2026:2056   */\n      gt\n        /* \"#utility.yul\":2023:2140   */\n      iszero\n      tag_78\n      jumpi\n        /* \"#utility.yul\":2059:2138   */\n      tag_79\n      tag_76\n      jump\t// in\n    tag_79:\n        /* \"#utility.yul\":2023:2140   */\n    tag_78:\n        /* \"#utility.yul\":2164:2227   */\n      tag_80\n        /* \"#utility.yul\":2219:2226   */\n      dup7\n        /* \"#utility.yul\":2210:2216   */\n      dup3\n        /* \"#utility.yul\":2199:2208   */\n      dup8\n        /* \"#utility.yul\":2195:2217   */\n      add\n        /* \"#utility.yul\":2164:2227   */\n      tag_55\n      jump\t// in\n    tag_80:\n        /* \"#utility.yul\":2154:2227   */\n      swap2\n      pop\n        /* \"#utility.yul\":1949:2237   */\n      pop\n        /* \"#utility.yul\":1265:2244   */\n      swap3\n      pop\n      swap3\n      pop\n      swap3\n      jump\t// out\n        /* \"#utility.yul\":2250:2594   */\n    tag_81:\n        /* \"#utility.yul\":2328:2331   */\n      0x00\n        /* \"#utility.yul\":2356:2395   */\n      tag_83\n        /* \"#utility.yul\":2389:2394   */\n      dup3\n        /* \"#utility.yul\":2356:2395   */\n      tag_84\n      jump\t// in\n    tag_83:\n        /* \"#utility.yul\":2411:2472   */\n      tag_85\n        /* \"#utility.yul\":2465:2471   */\n      dup2\n        /* \"#utility.yul\":2460:2463   */\n      dup6\n        /* \"#utility.yul\":2411:2472   */\n      tag_86\n      jump\t// in\n    tag_85:\n        /* \"#utility.yul\":2404:2472   */\n      swap4\n      pop\n        /* \"#utility.yul\":2481:2533   */\n      tag_87\n        /* \"#utility.yul\":2526:2532   */\n      dup2\n        /* \"#utility.yul\":2521:2524   */\n      dup6\n        /* \"#utility.yul\":2514:2518   */\n      0x20\n        /* \"#utility.yul\":2507:2512   */\n      dup7\n        /* \"#utility.yul\":2503:2519   */\n      add\n        /* \"#utility.yul\":2481:2533   */\n      tag_88\n      jump\t// in\n    tag_87:\n        /* \"#utility.yul\":2558:2587   */\n      tag_89\n        /* \"#utility.yul\":2580:2586   */\n      dup2\n        /* \"#utility.yul\":2558:2587   */\n      tag_90\n      jump\t// in\n    tag_89:\n        /* \"#utility.yul\":2553:2556   */\n      dup5\n        /* \"#utility.yul\":2549:2588   */\n      add\n        /* \"#utility.yul\":2542:2588   */\n      swap2\n      pop\n        /* \"#utility.yul\":2332:2594   */\n      pop\n        /* \"#utility.yul\":2250:2594   */\n      swap3\n      swap2\n      pop\n      pop\n      jump\t// out\n        /* \"#utility.yul\":2662:3334   */\n    tag_91:\n        /* \"#utility.yul\":2771:2774   */\n      0x00\n        /* \"#utility.yul\":2807:2811   */\n      0x40\n        /* \"#utility.yul\":2802:2805   */\n      dup4\n        /* \"#utility.yul\":2798:2812   */\n      add\n        /* \"#utility.yul\":2895:2899   */\n      0x00\n        /* \"#utility.yul\":2888:2893   */\n      dup4\n        /* \"#utility.yul\":2884:2900   */\n      add\n        /* \"#utility.yul\":2878:2901   */\n      mload\n        /* \"#utility.yul\":2948:2951   */\n      dup5\n        /* \"#utility.yul\":2942:2946   */\n      dup3\n        /* \"#utility.yul\":2938:2952   */\n      sub\n        /* \"#utility.yul\":2931:2935   */\n      0x00\n        /* \"#utility.yul\":2926:2929   */\n      dup7\n        /* \"#utility.yul\":2922:2936   */\n      add\n        /* \"#utility.yul\":2915:2953   */\n      mstore\n        /* \"#utility.yul\":2974:3047   */\n      tag_93\n        /* \"#utility.yul\":3042:3046   */\n      dup3\n        /* \"#utility.yul\":3028:3040   */\n      dup3\n        /* \"#utility.yul\":2974:3047   */\n      tag_81\n      jump\t// in\n    tag_93:\n        /* \"#utility.yul\":2966:3047   */\n      swap2\n      pop\n        /* \"#utility.yul\":2822:3058   */\n      pop\n        /* \"#utility.yul\":3144:3148   */\n      0x20\n        /* \"#utility.yul\":3137:3142   */\n      dup4\n        /* \"#utility.yul\":3133:3149   */\n      add\n        /* \"#utility.yul\":3127:3150   */\n      mload\n        /* \"#utility.yul\":3197:3200   */\n      dup5\n        /* \"#utility.yul\":3191:3195   */\n      dup3\n        /* \"#utility.yul\":3187:3201   */\n      sub\n        /* \"#utility.yul\":3180:3184   */\n      0x20\n        /* \"#utility.yul\":3175:3178   */\n      dup7\n        /* \"#utility.yul\":3171:3185   */\n      add\n        /* \"#utility.yul\":3164:3202   */\n      mstore\n        /* \"#utility.yul\":3223:3296   */\n      tag_94\n        /* \"#utility.yul\":3291:3295   */\n      dup3\n        /* \"#utility.yul\":3277:3289   */\n      dup3\n        /* \"#utility.yul\":3223:3296   */\n      tag_81\n      jump\t// in\n    tag_94:\n        /* \"#utility.yul\":3215:3296   */\n      swap2\n      pop\n        /* \"#utility.yul\":3068:3307   */\n      pop\n        /* \"#utility.yul\":3324:3328   */\n      dup1\n        /* \"#utility.yul\":3317:3328   */\n      swap2\n      pop\n        /* \"#utility.yul\":2776:3334   */\n      pop\n        /* \"#utility.yul\":2662:3334   */\n      swap3\n      swap2\n      pop\n      pop\n      jump\t// out\n        /* \"#utility.yul\":3340:3693   */\n    tag_10:\n        /* \"#utility.yul\":3473:3477   */\n      0x00\n        /* \"#utility.yul\":3511:3513   */\n      0x20\n        /* \"#utility.yul\":3500:3509   */\n      dup3\n        /* \"#utility.yul\":3496:3514   */\n      add\n        /* \"#utility.yul\":3488:3514   */\n      swap1\n      pop\n        /* \"#utility.yul\":3560:3569   */\n      dup2\n        /* \"#utility.yul\":3554:3558   */\n      dup2\n        /* \"#utility.yul\":3550:3570   */\n      sub\n        /* \"#utility.yul\":3546:3547   */\n      0x00\n        /* \"#utility.yul\":3535:3544   */\n      dup4\n        /* \"#utility.yul\":3531:3548   */\n      add\n        /* \"#utility.yul\":3524:3571   */\n      mstore\n        /* \"#utility.yul\":3588:3686   */\n      tag_96\n        /* \"#utility.yul\":3681:3685   */\n      dup2\n        /* \"#utility.yul\":3672:3678   */\n      dup5\n        /* \"#utility.yul\":3588:3686   */\n      tag_91\n      jump\t// in\n    tag_96:\n        /* \"#utility.yul\":3580:3686   */\n      swap1\n      pop\n        /* \"#utility.yul\":3340:3693   */\n      swap3\n      swap2\n      pop\n      pop\n      jump\t// out\n        /* \"#utility.yul\":3699:3828   */\n    tag_49:\n        /* \"#utility.yul\":3733:3739   */\n      0x00\n        /* \"#utility.yul\":3760:3780   */\n      tag_98\n      tag_99\n      jump\t// in\n    tag_98:\n        /* \"#utility.yul\":3750:3780   */\n      swap1\n      pop\n        /* \"#utility.yul\":3789:3822   */\n      tag_100\n        /* \"#utility.yul\":3817:3821   */\n      dup3\n        /* \"#utility.yul\":3809:3815   */\n      dup3\n        /* \"#utility.yul\":3789:3822   */\n      tag_101\n      jump\t// in\n    tag_100:\n        /* \"#utility.yul\":3699:3828   */\n      swap2\n      swap1\n      pop\n      jump\t// out\n        /* \"#utility.yul\":3834:3909   */\n    tag_99:\n        /* \"#utility.yul\":3867:3873   */\n      0x00\n        /* \"#utility.yul\":3900:3902   */\n      0x40\n        /* \"#utility.yul\":3894:3903   */\n      mload\n        /* \"#utility.yul\":3884:3903   */\n      swap1\n      pop\n        /* \"#utility.yul\":3834:3909   */\n      swap1\n      jump\t// out\n        /* \"#utility.yul\":3915:4223   */\n    tag_48:\n        /* \"#utility.yul\":3977:3981   */\n      0x00\n        /* \"#utility.yul\":4067:4085   */\n      0xffffffffffffffff\n        /* \"#utility.yul\":4059:4065   */\n      dup3\n        /* \"#utility.yul\":4056:4086   */\n      gt\n        /* \"#utility.yul\":4053:4109   */\n      iszero\n      tag_104\n      jumpi\n        /* \"#utility.yul\":4089:4107   */\n      tag_105\n      tag_106\n      jump\t// in\n    tag_105:\n        /* \"#utility.yul\":4053:4109   */\n    tag_104:\n        /* \"#utility.yul\":4127:4156   */\n      tag_107\n        /* \"#utility.yul\":4149:4155   */\n      dup3\n        /* \"#utility.yul\":4127:4156   */\n      tag_90\n      jump\t// in\n    tag_107:\n        /* \"#utility.yul\":4119:4156   */\n      swap1\n      pop\n        /* \"#utility.yul\":4211:4215   */\n      0x20\n        /* \"#utility.yul\":4205:4209   */\n      dup2\n        /* \"#utility.yul\":4201:4216   */\n      add\n        /* \"#utility.yul\":4193:4216   */\n      swap1\n      pop\n        /* \"#utility.yul\":3915:4223   */\n      swap2\n      swap1\n      pop\n      jump\t// out\n        /* \"#utility.yul\":4229:4328   */\n    tag_84:\n        /* \"#utility.yul\":4281:4287   */\n      0x00\n        /* \"#utility.yul\":4315:4320   */\n      dup2\n        /* \"#utility.yul\":4309:4321   */\n      mload\n        /* \"#utility.yul\":4299:4321   */\n      swap1\n      pop\n        /* \"#utility.yul\":4229:4328   */\n      swap2\n      swap1\n      pop\n      jump\t// out\n        /* \"#utility.yul\":4334:4493   */\n    tag_86:\n        /* \"#utility.yul\":4408:4419   */\n      0x00\n        /* \"#utility.yul\":4442:4448   */\n      dup3\n        /* \"#utility.yul\":4437:4440   */\n      dup3\n        /* \"#utility.yul\":4430:4449   */\n      mstore\n        /* \"#utility.yul\":4482:4486   */\n      0x20\n        /* \"#utility.yul\":4477:4480   */\n      dup3\n        /* \"#utility.yul\":4473:4487   */\n      add\n        /* \"#utility.yul\":4458:4487   */\n      swap1\n      pop\n        /* \"#utility.yul\":4334:4493   */\n      swap3\n      swap2\n      pop\n      pop\n      jump\t// out\n        /* \"#utility.yul\":4499:4576   */\n    tag_110:\n        /* \"#utility.yul\":4536:4543   */\n      0x00\n        /* \"#utility.yul\":4565:4570   */\n      dup2\n        /* \"#utility.yul\":4554:4570   */\n      swap1\n      pop\n        /* \"#utility.yul\":4499:4576   */\n      swap2\n      swap1\n      pop\n      jump\t// out\n        /* \"#utility.yul\":4582:4736   */\n    tag_54:\n        /* \"#utility.yul\":4666:4672   */\n      dup3\n        /* \"#utility.yul\":4661:4664   */\n      dup2\n        /* \"#utility.yul\":4656:4659   */\n      dup4\n        /* \"#utility.yul\":4643:4673   */\n      calldatacopy\n        /* \"#utility.yul\":4728:4729   */\n      0x00\n        /* \"#utility.yul\":4719:4725   */\n      dup4\n        /* \"#utility.yul\":4714:4717   */\n      dup4\n        /* \"#utility.yul\":4710:4726   */\n      add\n        /* \"#utility.yul\":4703:4730   */\n      mstore\n        /* \"#utility.yul\":4582:4736   */\n      pop\n      pop\n      pop\n      jump\t// out\n        /* \"#utility.yul\":4742:5049   */\n    tag_88:\n        /* \"#utility.yul\":4810:4811   */\n      0x00\n        /* \"#utility.yul\":4820:4933   */\n    tag_114:\n        /* \"#utility.yul\":4834:4840   */\n      dup4\n        /* \"#utility.yul\":4831:4832   */\n      dup2\n        /* \"#utility.yul\":4828:4841   */\n      lt\n        /* \"#utility.yul\":4820:4933   */\n      iszero\n      tag_116\n      jumpi\n        /* \"#utility.yul\":4919:4920   */\n      dup1\n        /* \"#utility.yul\":4914:4917   */\n      dup3\n        /* \"#utility.yul\":4910:4921   */\n      add\n        /* \"#utility.yul\":4904:4922   */\n      mload\n        /* \"#utility.yul\":4900:4901   */\n      dup2\n        /* \"#utility.yul\":4895:4898   */\n      dup5\n        /* \"#utility.yul\":4891:4902   */\n      add\n        /* \"#utility.yul\":4884:4923   */\n      mstore\n        /* \"#utility.yul\":4856:4858   */\n      0x20\n        /* \"#utility.yul\":4853:4854   */\n      dup2\n        /* \"#utility.yul\":4849:4859   */\n      add\n        /* \"#utility.yul\":4844:4859   */\n      swap1\n      pop\n        /* \"#utility.yul\":4820:4933   */\n      jump(tag_114)\n    tag_116:\n        /* \"#utility.yul\":4951:4957   */\n      dup4\n        /* \"#utility.yul\":4948:4949   */\n      dup2\n        /* \"#utility.yul\":4945:4958   */\n      gt\n        /* \"#utility.yul\":4942:5043   */\n      iszero\n      tag_117\n      jumpi\n        /* \"#utility.yul\":5031:5032   */\n      0x00\n        /* \"#utility.yul\":5022:5028   */\n      dup5\n        /* \"#utility.yul\":5017:5020   */\n      dup5\n        /* \"#utility.yul\":5013:5029   */\n      add\n        /* \"#utility.yul\":5006:5033   */\n      mstore\n        /* \"#utility.yul\":4942:5043   */\n    tag_117:\n        /* \"#utility.yul\":4791:5049   */\n      pop\n        /* \"#utility.yul\":4742:5049   */\n      pop\n      pop\n      pop\n      jump\t// out\n        /* \"#utility.yul\":5055:5375   */\n    tag_19:\n        /* \"#utility.yul\":5099:5105   */\n      0x00\n        /* \"#utility.yul\":5136:5137   */\n      0x02\n        /* \"#utility.yul\":5130:5134   */\n      dup3\n        /* \"#utility.yul\":5126:5138   */\n      div\n        /* \"#utility.yul\":5116:5138   */\n      swap1\n      pop\n        /* \"#utility.yul\":5183:5184   */\n      0x01\n        /* \"#utility.yul\":5177:5181   */\n      dup3\n        /* \"#utility.yul\":5173:5185   */\n      and\n        /* \"#utility.yul\":5204:5222   */\n      dup1\n        /* \"#utility.yul\":5194:5275   */\n      tag_119\n      jumpi\n        /* \"#utility.yul\":5260:5264   */\n      0x7f\n        /* \"#utility.yul\":5252:5258   */\n      dup3\n        /* \"#utility.yul\":5248:5265   */\n      and\n        /* \"#utility.yul\":5238:5265   */\n      swap2\n      pop\n        /* \"#utility.yul\":5194:5275   */\n    tag_119:\n        /* \"#utility.yul\":5322:5324   */\n      0x20\n        /* \"#utility.yul\":5314:5320   */\n      dup3\n        /* \"#utility.yul\":5311:5325   */\n      lt\n        /* \"#utility.yul\":5291:5309   */\n      dup2\n        /* \"#utility.yul\":5288:5326   */\n      eq\n        /* \"#utility.yul\":5285:5369   */\n      iszero\n      tag_120\n      jumpi\n        /* \"#utility.yul\":5341:5359   */\n      tag_121\n      tag_122\n      jump\t// in\n    tag_121:\n        /* \"#utility.yul\":5285:5369   */\n    tag_120:\n        /* \"#utility.yul\":5106:5375   */\n      pop\n        /* \"#utility.yul\":5055:5375   */\n      swap2\n      swap1\n      pop\n      jump\t// out\n        /* \"#utility.yul\":5381:5662   */\n    tag_101:\n        /* \"#utility.yul\":5464:5491   */\n      tag_124\n        /* \"#utility.yul\":5486:5490   */\n      dup3\n        /* \"#utility.yul\":5464:5491   */\n      tag_90\n      jump\t// in\n    tag_124:\n        /* \"#utility.yul\":5456:5462   */\n      dup2\n        /* \"#utility.yul\":5452:5492   */\n      add\n        /* \"#utility.yul\":5594:5600   */\n      dup2\n        /* \"#utility.yul\":5582:5592   */\n      dup2\n        /* \"#utility.yul\":5579:5601   */\n      lt\n        /* \"#utility.yul\":5558:5576   */\n      0xffffffffffffffff\n        /* \"#utility.yul\":5546:5556   */\n      dup3\n        /* \"#utility.yul\":5543:5577   */\n      gt\n        /* \"#utility.yul\":5540:5602   */\n      or\n        /* \"#utility.yul\":5537:5625   */\n      iszero\n      tag_125\n      jumpi\n        /* \"#utility.yul\":5605:5623   */\n      tag_126\n      tag_106\n      jump\t// in\n    tag_126:\n        /* \"#utility.yul\":5537:5625   */\n    tag_125:\n        /* \"#utility.yul\":5645:5655   */\n      dup1\n        /* \"#utility.yul\":5641:5643   */\n      0x40\n        /* \"#utility.yul\":5634:5656   */\n      mstore\n        /* \"#utility.yul\":5424:5662   */\n      pop\n        /* \"#utility.yul\":5381:5662   */\n      pop\n      pop\n      jump\t// out\n        /* \"#utility.yul\":5668:5848   */\n    tag_122:\n        /* \"#utility.yul\":5716:5793   */\n      0x4e487b7100000000000000000000000000000000000000000000000000000000\n        /* \"#utility.yul\":5713:5714   */\n      0x00\n        /* \"#utility.yul\":5706:5794   */\n      mstore\n        /* \"#utility.yul\":5813:5817   */\n      0x22\n        /* \"#utility.yul\":5810:5811   */\n      0x04\n        /* \"#utility.yul\":5803:5818   */\n      mstore\n        /* \"#utility.yul\":5837:5841   */\n      0x24\n        /* \"#utility.yul\":5834:5835   */\n      0x00\n        /* \"#utility.yul\":5827:5842   */\n      revert\n        /* \"#utility.yul\":5854:6034   */\n    tag_106:\n        /* \"#utility.yul\":5902:5979   */\n      0x4e487b7100000000000000000000000000000000000000000000000000000000\n        /* \"#utility.yul\":5899:5900   */\n      0x00\n        /* \"#utility.yul\":5892:5980   */\n      mstore\n        /* \"#utility.yul\":5999:6003   */\n      0x41\n        /* \"#utility.yul\":5996:5997   */\n      0x04\n        /* \"#utility.yul\":5989:6004   */\n      mstore\n        /* \"#utility.yul\":6023:6027   */\n      0x24\n        /* \"#utility.yul\":6020:6021   */\n      0x00\n        /* \"#utility.yul\":6013:6028   */\n      revert\n        /* \"#utility.yul\":6040:6157   */\n    tag_59:\n        /* \"#utility.yul\":6149:6150   */\n      0x00\n        /* \"#utility.yul\":6146:6147   */\n      dup1\n        /* \"#utility.yul\":6139:6151   */\n      revert\n        /* \"#utility.yul\":6163:6280   */\n    tag_52:\n        /* \"#utility.yul\":6272:6273   */\n      0x00\n        /* \"#utility.yul\":6269:6270   */\n      dup1\n        /* \"#utility.yul\":6262:6274   */\n      revert\n        /* \"#utility.yul\":6286:6403   */\n    tag_76:\n        /* \"#utility.yul\":6395:6396   */\n      0x00\n        /* \"#utility.yul\":6392:6393   */\n      dup1\n        /* \"#utility.yul\":6385:6397   */\n      revert\n        /* \"#utility.yul\":6409:6526   */\n    tag_68:\n        /* \"#utility.yul\":6518:6519   */\n      0x00\n        /* \"#utility.yul\":6515:6516   */\n      dup1\n        /* \"#utility.yul\":6508:6520   */\n      revert\n        /* \"#utility.yul\":6532:6634   */\n    tag_90:\n        /* \"#utility.yul\":6573:6579   */\n      0x00\n        /* \"#utility.yul\":6624:6626   */\n      0x1f\n        /* \"#utility.yul\":6620:6627   */\n      not\n        /* \"#utility.yul\":6615:6617   */\n      0x1f\n        /* \"#utility.yul\":6608:6613   */\n      dup4\n        /* \"#utility.yul\":6604:6618   */\n      add\n        /* \"#utility.yul\":6600:6628   */\n      and\n        /* \"#utility.yul\":6590:6628   */\n      swap1\n      pop\n        /* \"#utility.yul\":6532:6634   */\n      swap2\n      swap1\n      pop\n      jump\t// out\n        /* \"#utility.yul\":6640:6762   */\n    tag_64:\n        /* \"#utility.yul\":6713:6737   */\n      tag_135\n        /* \"#utility.yul\":6731:6736   */\n      dup2\n        /* \"#utility.yul\":6713:6737   */\n      tag_110\n      jump\t// in\n    tag_135:\n        /* \"#utility.yul\":6706:6711   */\n      dup2\n        /* \"#utility.yul\":6703:6738   */\n      eq\n        /* \"#utility.yul\":6693:6756   */\n      tag_136\n      jumpi\n        /* \"#utility.yul\":6752:6753   */\n      0x00\n        /* \"#utility.yul\":6749:6750   */\n      dup1\n        /* \"#utility.yul\":6742:6754   */\n      revert\n        /* \"#utility.yul\":6693:6756   */\n    tag_136:\n        /* \"#utility.yul\":6640:6762   */\n      pop\n      jump\t// out\n\n    auxdata: 0xa26469706673582212205961a9a8ed8ef2c4841acccfe04f99e463789284866cfac8d3cf7c4a97c58dde64736f6c63430008070033\n}\n",
				"bytecode": {
					"linkReferences": {},
					"object": "608060405234801561001057600080fd5b506106ca806100206000396000f3fe608060405234801561001057600080fd5b50600436106100365760003560e01c8063179ffe761461003b578063f40f48c91461006b575b600080fd5b61005560048036038101906100509190610382565b610087565b60405161006291906104b7565b60405180910390f35b610085600480360381019061008091906103af565b6101d7565b005b61008f610240565b6000808381526020019081526020016000206040518060400160405290816000820180546100bc90610597565b80601f01602080910402602001604051908101604052809291908181526020018280546100e890610597565b80156101355780601f1061010a57610100808354040283529160200191610135565b820191906000526020600020905b81548152906001019060200180831161011857829003601f168201915b5050505050815260200160018201805461014e90610597565b80601f016020809104026020016040519081016040528092919081815260200182805461017a90610597565b80156101c75780601f1061019c576101008083540402835291602001916101c7565b820191906000526020600020905b8154815290600101906020018083116101aa57829003601f168201915b5050505050815250509050919050565b604051806040016040528083815260200182815250600080858152602001908152602001600020600082015181600001908051906020019061021a92919061025a565b50602082015181600101908051906020019061023792919061025a565b50905050505050565b604051806040016040528060608152602001606081525090565b82805461026690610597565b90600052602060002090601f01602090048101928261028857600085556102cf565b82601f106102a157805160ff19168380011785556102cf565b828001600101855582156102cf579182015b828111156102ce5782518255916020019190600101906102b3565b5b5090506102dc91906102e0565b5090565b5b808211156102f95760008160009055506001016102e1565b5090565b600061031061030b846104fe565b6104d9565b90508281526020810184848401111561032c5761032b61065d565b5b610337848285610555565b509392505050565b600082601f83011261035457610353610658565b5b81356103648482602086016102fd565b91505092915050565b60008135905061037c8161067d565b92915050565b60006020828403121561039857610397610667565b5b60006103a68482850161036d565b91505092915050565b6000806000606084860312156103c8576103c7610667565b5b60006103d68682870161036d565b935050602084013567ffffffffffffffff8111156103f7576103f6610662565b5b6104038682870161033f565b925050604084013567ffffffffffffffff81111561042457610423610662565b5b6104308682870161033f565b9150509250925092565b60006104458261052f565b61044f818561053a565b935061045f818560208601610564565b6104688161066c565b840191505092915050565b60006040830160008301518482036000860152610490828261043a565b915050602083015184820360208601526104aa828261043a565b9150508091505092915050565b600060208201905081810360008301526104d18184610473565b905092915050565b60006104e36104f4565b90506104ef82826105c9565b919050565b6000604051905090565b600067ffffffffffffffff82111561051957610518610629565b5b6105228261066c565b9050602081019050919050565b600081519050919050565b600082825260208201905092915050565b6000819050919050565b82818337600083830152505050565b60005b83811015610582578082015181840152602081019050610567565b83811115610591576000848401525b50505050565b600060028204905060018216806105af57607f821691505b602082108114156105c3576105c26105fa565b5b50919050565b6105d28261066c565b810181811067ffffffffffffffff821117156105f1576105f0610629565b5b80604052505050565b7f4e487b7100000000000000000000000000000000000000000000000000000000600052602260045260246000fd5b7f4e487b7100000000000000000000000000000000000000000000000000000000600052604160045260246000fd5b600080fd5b600080fd5b600080fd5b600080fd5b6000601f19601f8301169050919050565b6106868161054b565b811461069157600080fd5b5056fea26469706673582212205961a9a8ed8ef2c4841acccfe04f99e463789284866cfac8d3cf7c4a97c58dde64736f6c63430008070033",
					"opcodes": "PUSH1 0x80 PUSH1 0x40 MSTORE CALLVALUE DUP1 ISZERO PUSH2 0x10 JUMPI PUSH1 0x0 DUP1 REVERT JUMPDEST POP PUSH2 0x6CA DUP1 PUSH2 0x20 PUSH1 0x0 CODECOPY PUSH1 0x0 RETURN INVALID PUSH1 0x80 PUSH1 0x40 MSTORE CALLVALUE DUP1 ISZERO PUSH2 0x10 JUMPI PUSH1 0x0 DUP1 REVERT JUMPDEST POP PUSH1 0x4 CALLDATASIZE LT PUSH2 0x36 JUMPI PUSH1 0x0 CALLDATALOAD PUSH1 0xE0 SHR DUP1 PUSH4 0x179FFE76 EQ PUSH2 0x3B JUMPI DUP1 PUSH4 0xF40F48C9 EQ PUSH2 0x6B JUMPI JUMPDEST PUSH1 0x0 DUP1 REVERT JUMPDEST PUSH2 0x55 PUSH1 0x4 DUP1 CALLDATASIZE SUB DUP2 ADD SWAP1 PUSH2 0x50 SWAP2 SWAP1 PUSH2 0x382 JUMP JUMPDEST PUSH2 0x87 JUMP JUMPDEST PUSH1 0x40 MLOAD PUSH2 0x62 SWAP2 SWAP1 PUSH2 0x4B7 JUMP JUMPDEST PUSH1 0x40 MLOAD DUP1 SWAP2 SUB SWAP1 RETURN JUMPDEST PUSH2 0x85 PUSH1 0x4 DUP1 CALLDATASIZE SUB DUP2 ADD SWAP1 PUSH2 0x80 SWAP2 SWAP1 PUSH2 0x3AF JUMP JUMPDEST PUSH2 0x1D7 JUMP JUMPDEST STOP JUMPDEST PUSH2 0x8F PUSH2 0x240 JUMP JUMPDEST PUSH1 0x0 DUP1 DUP4 DUP2 MSTORE PUSH1 0x20 ADD SWAP1 DUP2 MSTORE PUSH1 0x20 ADD PUSH1 0x0 KECCAK256 PUSH1 0x40 MLOAD DUP1 PUSH1 0x40 ADD PUSH1 0x40 MSTORE SWAP1 DUP2 PUSH1 0x0 DUP3 ADD DUP1 SLOAD PUSH2 0xBC SWAP1 PUSH2 0x597 JUMP JUMPDEST DUP1 PUSH1 0x1F ADD PUSH1 0x20 DUP1 SWAP2 DIV MUL PUSH1 0x20 ADD PUSH1 0x40 MLOAD SWAP1 DUP2 ADD PUSH1 0x40 MSTORE DUP1 SWAP3 SWAP2 SWAP1 DUP2 DUP2 MSTORE PUSH1 0x20 ADD DUP3 DUP1 SLOAD PUSH2 0xE8 SWAP1 PUSH2 0x597 JUMP JUMPDEST DUP1 ISZERO PUSH2 0x135 JUMPI DUP1 PUSH1 0x1F LT PUSH2 0x10A JUMPI PUSH2 0x100 DUP1 DUP4 SLOAD DIV MUL DUP4 MSTORE SWAP2 PUSH1 0x20 ADD SWAP2 PUSH2 0x135 JUMP JUMPDEST DUP3 ADD SWAP2 SWAP1 PUSH1 0x0 MSTORE PUSH1 0x20 PUSH1 0x0 KECCAK256 SWAP1 JUMPDEST DUP2 SLOAD DUP2 MSTORE SWAP1 PUSH1 0x1 ADD SWAP1 PUSH1 0x20 ADD DUP1 DUP4 GT PUSH2 0x118 JUMPI DUP3 SWAP1 SUB PUSH1 0x1F AND DUP3 ADD SWAP2 JUMPDEST POP POP POP POP POP DUP2 MSTORE PUSH1 0x20 ADD PUSH1 0x1 DUP3 ADD DUP1 SLOAD PUSH2 0x14E SWAP1 PUSH2 0x597 JUMP JUMPDEST DUP1 PUSH1 0x1F ADD PUSH1 0x20 DUP1 SWAP2 DIV MUL PUSH1 0x20 ADD PUSH1 0x40 MLOAD SWAP1 DUP2 ADD PUSH1 0x40 MSTORE DUP1 SWAP3 SWAP2 SWAP1 DUP2 DUP2 MSTORE PUSH1 0x20 ADD DUP3 DUP1 SLOAD PUSH2 0x17A SWAP1 PUSH2 0x597 JUMP JUMPDEST DUP1 ISZERO PUSH2 0x1C7 JUMPI DUP1 PUSH1 0x1F LT PUSH2 0x19C JUMPI PUSH2 0x100 DUP1 DUP4 SLOAD DIV MUL DUP4 MSTORE SWAP2 PUSH1 0x20 ADD SWAP2 PUSH2 0x1C7 JUMP JUMPDEST DUP3 ADD SWAP2 SWAP1 PUSH1 0x0 MSTORE PUSH1 0x20 PUSH1 0x0 KECCAK256 SWAP1 JUMPDEST DUP2 SLOAD DUP2 MSTORE SWAP1 PUSH1 0x1 ADD SWAP1 PUSH1 0x20 ADD DUP1 DUP4 GT PUSH2 0x1AA JUMPI DUP3 SWAP1 SUB PUSH1 0x1F AND DUP3 ADD SWAP2 JUMPDEST POP POP POP POP POP DUP2 MSTORE POP POP SWAP1 POP SWAP2 SWAP1 POP JUMP JUMPDEST PUSH1 0x40 MLOAD DUP1 PUSH1 0x40 ADD PUSH1 0x40 MSTORE DUP1 DUP4 DUP2 MSTORE PUSH1 0x20 ADD DUP3 DUP2 MSTORE POP PUSH1 0x0 DUP1 DUP6 DUP2 MSTORE PUSH1 0x20 ADD SWAP1 DUP2 MSTORE PUSH1 0x20 ADD PUSH1 0x0 KECCAK256 PUSH1 0x0 DUP3 ADD MLOAD DUP2 PUSH1 0x0 ADD SWAP1 DUP1 MLOAD SWAP1 PUSH1 0x20 ADD SWAP1 PUSH2 0x21A SWAP3 SWAP2 SWAP1 PUSH2 0x25A JUMP JUMPDEST POP PUSH1 0x20 DUP3 ADD MLOAD DUP2 PUSH1 0x1 ADD SWAP1 DUP1 MLOAD SWAP1 PUSH1 0x20 ADD SWAP1 PUSH2 0x237 SWAP3 SWAP2 SWAP1 PUSH2 0x25A JUMP JUMPDEST POP SWAP1 POP POP POP POP POP JUMP JUMPDEST PUSH1 0x40 MLOAD DUP1 PUSH1 0x40 ADD PUSH1 0x40 MSTORE DUP1 PUSH1 0x60 DUP2 MSTORE PUSH1 0x20 ADD PUSH1 0x60 DUP2 MSTORE POP SWAP1 JUMP JUMPDEST DUP3 DUP1 SLOAD PUSH2 0x266 SWAP1 PUSH2 0x597 JUMP JUMPDEST SWAP1 PUSH1 0x0 MSTORE PUSH1 0x20 PUSH1 0x0 KECCAK256 SWAP1 PUSH1 0x1F ADD PUSH1 0x20 SWAP1 DIV DUP2 ADD SWAP3 DUP3 PUSH2 0x288 JUMPI PUSH1 0x0 DUP6 SSTORE PUSH2 0x2CF JUMP JUMPDEST DUP3 PUSH1 0x1F LT PUSH2 0x2A1 JUMPI DUP1 MLOAD PUSH1 0xFF NOT AND DUP4 DUP1 ADD OR DUP6 SSTORE PUSH2 0x2CF JUMP JUMPDEST DUP3 DUP1 ADD PUSH1 0x1 ADD DUP6 SSTORE DUP3 ISZERO PUSH2 0x2CF JUMPI SWAP2 DUP3 ADD JUMPDEST DUP3 DUP2 GT ISZERO PUSH2 0x2CE JUMPI DUP3 MLOAD DUP3 SSTORE SWAP2 PUSH1 0x20 ADD SWAP2 SWAP1 PUSH1 0x1 ADD SWAP1 PUSH2 0x2B3 JUMP JUMPDEST JUMPDEST POP SWAP1 POP PUSH2 0x2DC SWAP2 SWAP1 PUSH2 0x2E0 JUMP JUMPDEST POP SWAP1 JUMP JUMPDEST JUMPDEST DUP1 DUP3 GT ISZERO PUSH2 0x2F9 JUMPI PUSH1 0x0 DUP2 PUSH1 0x0 SWAP1 SSTORE POP PUSH1 0x1 ADD PUSH2 0x2E1 JUMP JUMPDEST POP SWAP1 JUMP JUMPDEST PUSH1 0x0 PUSH2 0x310 PUSH2 0x30B DUP5 PUSH2 0x4FE JUMP JUMPDEST PUSH2 0x4D9 JUMP JUMPDEST SWAP1 POP DUP3 DUP2 MSTORE PUSH1 0x20 DUP2 ADD DUP5 DUP5 DUP5 ADD GT ISZERO PUSH2 0x32C JUMPI PUSH2 0x32B PUSH2 0x65D JUMP JUMPDEST JUMPDEST PUSH2 0x337 DUP5 DUP3 DUP6 PUSH2 0x555 JUMP JUMPDEST POP SWAP4 SWAP3 POP POP POP JUMP JUMPDEST PUSH1 0x0 DUP3 PUSH1 0x1F DUP4 ADD SLT PUSH2 0x354 JUMPI PUSH2 0x353 PUSH2 0x658 JUMP JUMPDEST JUMPDEST DUP2 CALLDATALOAD PUSH2 0x364 DUP5 DUP3 PUSH1 0x20 DUP7 ADD PUSH2 0x2FD JUMP JUMPDEST SWAP2 POP POP SWAP3 SWAP2 POP POP JUMP JUMPDEST PUSH1 0x0 DUP2 CALLDATALOAD SWAP1 POP PUSH2 0x37C DUP2 PUSH2 0x67D JUMP JUMPDEST SWAP3 SWAP2 POP POP JUMP JUMPDEST PUSH1 0x0 PUSH1 0x20 DUP3 DUP5 SUB SLT ISZERO PUSH2 0x398 JUMPI PUSH2 0x397 PUSH2 0x667 JUMP JUMPDEST JUMPDEST PUSH1 0x0 PUSH2 0x3A6 DUP5 DUP3 DUP6 ADD PUSH2 0x36D JUMP JUMPDEST SWAP2 POP POP SWAP3 SWAP2 POP POP JUMP JUMPDEST PUSH1 0x0 DUP1 PUSH1 0x0 PUSH1 0x60 DUP5 DUP7 SUB SLT ISZERO PUSH2 0x3C8 JUMPI PUSH2 0x3C7 PUSH2 0x667 JUMP JUMPDEST JUMPDEST PUSH1 0x0 PUSH2 0x3D6 DUP7 DUP3 DUP8 ADD PUSH2 0x36D JUMP JUMPDEST SWAP4 POP POP PUSH1 0x20 DUP5 ADD CALLDATALOAD PUSH8 0xFFFFFFFFFFFFFFFF DUP2 GT ISZERO PUSH2 0x3F7 JUMPI PUSH2 0x3F6 PUSH2 0x662 JUMP JUMPDEST JUMPDEST PUSH2 0x403 DUP7 DUP3 DUP8 ADD PUSH2 0x33F JUMP JUMPDEST SWAP3 POP POP PUSH1 0x40 DUP5 ADD CALLDATALOAD PUSH8 0xFFFFFFFFFFFFFFFF DUP2 GT ISZERO PUSH2 0x424 JUMPI PUSH2 0x423 PUSH2 0x662 JUMP JUMPDEST JUMPDEST PUSH2 0x430 DUP7 DUP3 DUP8 ADD PUSH2 0x33F JUMP JUMPDEST SWAP2 POP POP SWAP3 POP SWAP3 POP SWAP3 JUMP JUMPDEST PUSH1 0x0 PUSH2 0x445 DUP3 PUSH2 0x52F JUMP JUMPDEST PUSH2 0x44F DUP2 DUP6 PUSH2 0x53A JUMP JUMPDEST SWAP4 POP PUSH2 0x45F DUP2 DUP6 PUSH1 0x20 DUP7 ADD PUSH2 0x564 JUMP JUMPDEST PUSH2 0x468 DUP2 PUSH2 0x66C JUMP JUMPDEST DUP5 ADD SWAP2 POP POP SWAP3 SWAP2 POP POP JUMP JUMPDEST PUSH1 0x0 PUSH1 0x40 DUP4 ADD PUSH1 0x0 DUP4 ADD MLOAD DUP5 DUP3 SUB PUSH1 0x0 DUP7 ADD MSTORE PUSH2 0x490 DUP3 DUP3 PUSH2 0x43A JUMP JUMPDEST SWAP2 POP POP PUSH1 0x20 DUP4 ADD MLOAD DUP5 DUP3 SUB PUSH1 0x20 DUP7 ADD MSTORE PUSH2 0x4AA DUP3 DUP3 PUSH2 0x43A JUMP JUMPDEST SWAP2 POP POP DUP1 SWAP2 POP POP SWAP3 SWAP2 POP POP JUMP JUMPDEST PUSH1 0x0 PUSH1 0x20 DUP3 ADD SWAP1 POP DUP2 DUP2 SUB PUSH1 0x0 DUP4 ADD MSTORE PUSH2 0x4D1 DUP2 DUP5 PUSH2 0x473 JUMP JUMPDEST SWAP1 POP SWAP3 SWAP2 POP POP JUMP JUMPDEST PUSH1 0x0 PUSH2 0x4E3 PUSH2 0x4F4 JUMP JUMPDEST SWAP1 POP PUSH2 0x4EF DUP3 DUP3 PUSH2 0x5C9 JUMP JUMPDEST SWAP2 SWAP1 POP JUMP JUMPDEST PUSH1 0x0 PUSH1 0x40 MLOAD SWAP1 POP SWAP1 JUMP JUMPDEST PUSH1 0x0 PUSH8 0xFFFFFFFFFFFFFFFF DUP3 GT ISZERO PUSH2 0x519 JUMPI PUSH2 0x518 PUSH2 0x629 JUMP JUMPDEST JUMPDEST PUSH2 0x522 DUP3 PUSH2 0x66C JUMP JUMPDEST SWAP1 POP PUSH1 0x20 DUP2 ADD SWAP1 POP SWAP2 SWAP1 POP JUMP JUMPDEST PUSH1 0x0 DUP2 MLOAD SWAP1 POP SWAP2 SWAP1 POP JUMP JUMPDEST PUSH1 0x0 DUP3 DUP3 MSTORE PUSH1 0x20 DUP3 ADD SWAP1 POP SWAP3 SWAP2 POP POP JUMP JUMPDEST PUSH1 0x0 DUP2 SWAP1 POP SWAP2 SWAP1 POP JUMP JUMPDEST DUP3 DUP2 DUP4 CALLDATACOPY PUSH1 0x0 DUP4 DUP4 ADD MSTORE POP POP POP JUMP JUMPDEST PUSH1 0x0 JUMPDEST DUP4 DUP2 LT ISZERO PUSH2 0x582 JUMPI DUP1 DUP3 ADD MLOAD DUP2 DUP5 ADD MSTORE PUSH1 0x20 DUP2 ADD SWAP1 POP PUSH2 0x567 JUMP JUMPDEST DUP4 DUP2 GT ISZERO PUSH2 0x591 JUMPI PUSH1 0x0 DUP5 DUP5 ADD MSTORE JUMPDEST POP POP POP POP JUMP JUMPDEST PUSH1 0x0 PUSH1 0x2 DUP3 DIV SWAP1 POP PUSH1 0x1 DUP3 AND DUP1 PUSH2 0x5AF JUMPI PUSH1 0x7F DUP3 AND SWAP2 POP JUMPDEST PUSH1 0x20 DUP3 LT DUP2 EQ ISZERO PUSH2 0x5C3 JUMPI PUSH2 0x5C2 PUSH2 0x5FA JUMP JUMPDEST JUMPDEST POP SWAP2 SWAP1 POP JUMP JUMPDEST PUSH2 0x5D2 DUP3 PUSH2 0x66C JUMP JUMPDEST DUP2 ADD DUP2 DUP2 LT PUSH8 0xFFFFFFFFFFFFFFFF DUP3 GT OR ISZERO PUSH2 0x5F1 JUMPI PUSH2 0x5F0 PUSH2 0x629 JUMP JUMPDEST JUMPDEST DUP1 PUSH1 0x40 MSTORE POP POP POP JUMP JUMPDEST PUSH32 0x4E487B7100000000000000000000000000000000000000000000000000000000 PUSH1 0x0 MSTORE PUSH1 0x22 PUSH1 0x4 MSTORE PUSH1 0x24 PUSH1 0x0 REVERT JUMPDEST PUSH32 0x4E487B7100000000000000000000000000000000000000000000000000000000 PUSH1 0x0 MSTORE PUSH1 0x41 PUSH1 0x4 MSTORE PUSH1 0x24 PUSH1 0x0 REVERT JUMPDEST PUSH1 0x0 DUP1 REVERT JUMPDEST PUSH1 0x0 DUP1 REVERT JUMPDEST PUSH1 0x0 DUP1 REVERT JUMPDEST PUSH1 0x0 DUP1 REVERT JUMPDEST PUSH1 0x0 PUSH1 0x1F NOT PUSH1 0x1F DUP4 ADD AND SWAP1 POP SWAP2 SWAP1 POP JUMP JUMPDEST PUSH2 0x686 DUP2 PUSH2 0x54B JUMP JUMPDEST DUP2 EQ PUSH2 0x691 JUMPI PUSH1 0x0 DUP1 REVERT JUMPDEST POP JUMP INVALID LOG2 PUSH5 0x6970667358 0x22 SLT KECCAK256 MSIZE PUSH2 0xA9A8 0xED DUP15 CALLCODE 0xC4 DUP5 BYTE 0xCC 0xCF 0xE0 0x4F SWAP10 0xE4 PUSH4 0x78928486 PUSH13 0xFAC8D3CF7C4A97C58DDE64736F PUSH13 0x63430008070033000000000000 "
				},
				"gasEstimates": {
					"creation": {
						"codeDepositCost": "347600",
						"executionCost": "386",
						"totalCost": "347986"
					},
					"external": {
						"addMovie(uint256,string,string)": "infinite",
						"getMovie(uint256)": "infinite"
					}
				},
				"methodIdentifiers": {
					"addMovie(uint256,string,string)": "f40f48c9",
					"getMovie(uint256)": "179ffe76"
				}
			},
			"storageLayout": {
				"storage": [
					{
						"astId": 11,
						"contract": "contracts/11_mapping_assignment.sol:LearnMapping",
						"label": "movies",
						"offset": 0,
						"slot": "0",
						"type": "t_mapping(t_uint256,t_struct(Movie)6_storage)"
					}
				],
				"types": {
					"t_mapping(t_uint256,t_struct(Movie)6_storage)": {
						"encoding": "mapping",
						"key": "t_uint256",
						"label": "mapping(uint256 => struct LearnMapping.Movie)",
						"numberOfBytes": "32",
						"value": "t_struct(Movie)6_storage"
					},
					"t_string_storage": {
						"encoding": "bytes",
						"label": "string",
						"numberOfBytes": "32"
					},
					"t_struct(Movie)6_storage": {
						"encoding": "inplace",
						"label": "struct LearnMapping.Movie",
						"members": [
							{
								"astId": 3,
								"contract": "contracts/11_mapping_assignment.sol:LearnMapping",
								"label": "title",
								"offset": 0,
								"slot": "0",
								"type": "t_string_storage"
							},
							{
								"astId": 5,
								"contract": "contracts/11_mapping_assignment.sol:LearnMapping",
								"label": "director",
								"offset": 0,
								"slot": "1",
								"type": "t_string_storage"
							}
						],
						"numberOfBytes": "64"
					},
					"t_uint256": {
						"encoding": "inplace",
						"label": "uint256",
						"numberOfBytes": "32"
					}
				}
			},
			"userdoc": {
				"kind": "user",
				"methods": {},
				"version": 1
			}
		}
	}
}