{
	"contracts/5_state.sol": {
		"States": {
			"abi": [
				{
					"inputs": [],
					"name": "airdrop",
					"outputs": [
						{
							"internalType": "uint256",
							"name": "",
							"type": "uint256"
						}
					],
					"stateMutability": "view",
					"type": "function"
				},
				{
					"inputs": [],
					"name": "validateOranges",
					"outputs": [
						{
							"internalType": "bool",
							"name": "",
							"type": "bool"
						}
					],
					"stateMutability": "view",
					"type": "function"
				}
			],
			"devdoc": {
				"kind": "dev",
				"methods": {},
				"version": 1
			},
			"evm": {
				"assembly": "    /* \"contracts/5_state.sol\":67:468  contract States {... */\n  mstore(0x40, 0x80)\n    /* \"contracts/5_state.sol\":104:105  5 */\n  0x05\n    /* \"contracts/5_state.sol\":89:105  uint oranges = 5 */\n  0x00\n  sstore\n    /* \"contracts/5_state.sol\":291:293  10 */\n  0x0a\n    /* \"contracts/5_state.sol\":269:293  uint staking_wallet = 10 */\n  0x01\n  sstore\n    /* \"contracts/5_state.sol\":67:468  contract States {... */\n  callvalue\n  dup1\n  iszero\n  tag_1\n  jumpi\n  0x00\n  dup1\n  revert\ntag_1:\n  pop\n  dataSize(sub_0)\n  dup1\n  dataOffset(sub_0)\n  0x00\n  codecopy\n  0x00\n  return\nstop\n\nsub_0: assembly {\n        /* \"contracts/5_state.sol\":67:468  contract States {... */\n      mstore(0x40, 0x80)\n      callvalue\n      dup1\n      iszero\n      tag_1\n      jumpi\n      0x00\n      dup1\n      revert\n    tag_1:\n      pop\n      jumpi(tag_2, lt(calldatasize, 0x04))\n      shr(0xe0, calldataload(0x00))\n      dup1\n      0x3884d635\n      eq\n      tag_3\n      jumpi\n      dup1\n      0xb4a4fad8\n      eq\n      tag_4\n      jumpi\n    tag_2:\n      0x00\n      dup1\n      revert\n        /* \"contracts/5_state.sol\":300:466  function airdrop() public view returns(uint){... */\n    tag_3:\n      tag_5\n      tag_6\n      jump\t// in\n    tag_5:\n      mload(0x40)\n      tag_7\n      swap2\n      swap1\n      tag_8\n      jump\t// in\n    tag_7:\n      mload(0x40)\n      dup1\n      swap2\n      sub\n      swap1\n      return\n        /* \"contracts/5_state.sol\":112:263  function validateOranges() public view returns(bool) {... */\n    tag_4:\n      tag_9\n      tag_10\n      jump\t// in\n    tag_9:\n      mload(0x40)\n      tag_11\n      swap2\n      swap1\n      tag_12\n      jump\t// in\n    tag_11:\n      mload(0x40)\n      dup1\n      swap2\n      sub\n      swap1\n      return\n        /* \"contracts/5_state.sol\":300:466  function airdrop() public view returns(uint){... */\n    tag_6:\n        /* \"contracts/5_state.sol\":339:343  uint */\n      0x00\n        /* \"contracts/5_state.sol\":375:377  10 */\n      0x0a\n        /* \"contracts/5_state.sol\":357:371  staking_wallet */\n      sload(0x01)\n        /* \"contracts/5_state.sol\":357:377  staking_wallet == 10 */\n      eq\n        /* \"contracts/5_state.sol\":354:427  if(staking_wallet == 10){... */\n      iszero\n      tag_14\n      jumpi\n        /* \"contracts/5_state.sol\":414:416  10 */\n      0x0a\n        /* \"contracts/5_state.sol\":399:413  staking_wallet */\n      sload(0x01)\n        /* \"contracts/5_state.sol\":399:416  staking_wallet+10 */\n      tag_15\n      swap2\n      swap1\n      tag_16\n      jump\t// in\n    tag_15:\n        /* \"contracts/5_state.sol\":392:416  return staking_wallet+10 */\n      swap1\n      pop\n      jump(tag_13)\n        /* \"contracts/5_state.sol\":354:427  if(staking_wallet == 10){... */\n    tag_14:\n        /* \"contracts/5_state.sol\":458:459  1 */\n      0x01\n        /* \"contracts/5_state.sol\":443:457  staking_wallet */\n      dup1\n      sload\n        /* \"contracts/5_state.sol\":443:459  staking_wallet+1 */\n      tag_17\n      swap2\n      swap1\n      tag_16\n      jump\t// in\n    tag_17:\n        /* \"contracts/5_state.sol\":436:459  return staking_wallet+1 */\n      swap1\n      pop\n        /* \"contracts/5_state.sol\":300:466  function airdrop() public view returns(uint){... */\n    tag_13:\n      swap1\n      jump\t// out\n        /* \"contracts/5_state.sol\":112:263  function validateOranges() public view returns(bool) {... */\n    tag_10:\n        /* \"contracts/5_state.sol\":159:163  bool */\n      0x00\n        /* \"contracts/5_state.sol\":189:190  5 */\n      0x05\n        /* \"contracts/5_state.sol\":178:185  oranges */\n      sload(0x00)\n        /* \"contracts/5_state.sol\":178:190  oranges == 5 */\n      eq\n        /* \"contracts/5_state.sol\":175:257  if(oranges == 5){... */\n      iszero\n      tag_19\n      jumpi\n        /* \"contracts/5_state.sol\":212:216  true */\n      0x01\n        /* \"contracts/5_state.sol\":205:216  return true */\n      swap1\n      pop\n      jump(tag_18)\n        /* \"contracts/5_state.sol\":175:257  if(oranges == 5){... */\n    tag_19:\n        /* \"contracts/5_state.sol\":249:254  false */\n      0x00\n        /* \"contracts/5_state.sol\":242:254  return false */\n      swap1\n      pop\n        /* \"contracts/5_state.sol\":112:263  function validateOranges() public view returns(bool) {... */\n    tag_18:\n      swap1\n      jump\t// out\n        /* \"#utility.yul\":7:116   */\n    tag_22:\n        /* \"#utility.yul\":88:109   */\n      tag_24\n        /* \"#utility.yul\":103:108   */\n      dup2\n        /* \"#utility.yul\":88:109   */\n      tag_25\n      jump\t// in\n    tag_24:\n        /* \"#utility.yul\":83:86   */\n      dup3\n        /* \"#utility.yul\":76:110   */\n      mstore\n        /* \"#utility.yul\":7:116   */\n      pop\n      pop\n      jump\t// out\n        /* \"#utility.yul\":122:240   */\n    tag_26:\n        /* \"#utility.yul\":209:233   */\n      tag_28\n        /* \"#utility.yul\":227:232   */\n      dup2\n        /* \"#utility.yul\":209:233   */\n      tag_29\n      jump\t// in\n    tag_28:\n        /* \"#utility.yul\":204:207   */\n      dup3\n        /* \"#utility.yul\":197:234   */\n      mstore\n        /* \"#utility.yul\":122:240   */\n      pop\n      pop\n      jump\t// out\n        /* \"#utility.yul\":246:456   */\n    tag_12:\n        /* \"#utility.yul\":333:337   */\n      0x00\n        /* \"#utility.yul\":371:373   */\n      0x20\n        /* \"#utility.yul\":360:369   */\n      dup3\n        /* \"#utility.yul\":356:374   */\n      add\n        /* \"#utility.yul\":348:374   */\n      swap1\n      pop\n        /* \"#utility.yul\":384:449   */\n      tag_31\n        /* \"#utility.yul\":446:447   */\n      0x00\n        /* \"#utility.yul\":435:444   */\n      dup4\n        /* \"#utility.yul\":431:448   */\n      add\n        /* \"#utility.yul\":422:428   */\n      dup5\n        /* \"#utility.yul\":384:449   */\n      tag_22\n      jump\t// in\n    tag_31:\n        /* \"#utility.yul\":246:456   */\n      swap3\n      swap2\n      pop\n      pop\n      jump\t// out\n        /* \"#utility.yul\":462:684   */\n    tag_8:\n        /* \"#utility.yul\":555:559   */\n      0x00\n        /* \"#utility.yul\":593:595   */\n      0x20\n        /* \"#utility.yul\":582:591   */\n      dup3\n        /* \"#utility.yul\":578:596   */\n      add\n        /* \"#utility.yul\":570:596   */\n      swap1\n      pop\n        /* \"#utility.yul\":606:677   */\n      tag_33\n        /* \"#utility.yul\":674:675   */\n      0x00\n        /* \"#utility.yul\":663:672   */\n      dup4\n        /* \"#utility.yul\":659:676   */\n      add\n        /* \"#utility.yul\":650:656   */\n      dup5\n        /* \"#utility.yul\":606:677   */\n      tag_26\n      jump\t// in\n    tag_33:\n        /* \"#utility.yul\":462:684   */\n      swap3\n      swap2\n      pop\n      pop\n      jump\t// out\n        /* \"#utility.yul\":690:995   */\n    tag_16:\n        /* \"#utility.yul\":730:733   */\n      0x00\n        /* \"#utility.yul\":749:769   */\n      tag_35\n        /* \"#utility.yul\":767:768   */\n      dup3\n        /* \"#utility.yul\":749:769   */\n      tag_29\n      jump\t// in\n    tag_35:\n        /* \"#utility.yul\":744:769   */\n      swap2\n      pop\n        /* \"#utility.yul\":783:803   */\n      tag_36\n        /* \"#utility.yul\":801:802   */\n      dup4\n        /* \"#utility.yul\":783:803   */\n      tag_29\n      jump\t// in\n    tag_36:\n        /* \"#utility.yul\":778:803   */\n      swap3\n      pop\n        /* \"#utility.yul\":937:938   */\n      dup3\n        /* \"#utility.yul\":869:935   */\n      0xffffffffffffffffffffffffffffffffffffffffffffffffffffffffffffffff\n        /* \"#utility.yul\":865:939   */\n      sub\n        /* \"#utility.yul\":862:863   */\n      dup3\n        /* \"#utility.yul\":859:940   */\n      gt\n        /* \"#utility.yul\":856:963   */\n      iszero\n      tag_37\n      jumpi\n        /* \"#utility.yul\":943:961   */\n      tag_38\n      tag_39\n      jump\t// in\n    tag_38:\n        /* \"#utility.yul\":856:963   */\n    tag_37:\n        /* \"#utility.yul\":987:988   */\n      dup3\n        /* \"#utility.yul\":984:985   */\n      dup3\n        /* \"#utility.yul\":980:989   */\n      add\n        /* \"#utility.yul\":973:989   */\n      swap1\n      pop\n        /* \"#utility.yul\":690:995   */\n      swap3\n      swap2\n      pop\n      pop\n      jump\t// out\n        /* \"#utility.yul\":1001:1091   */\n    tag_25:\n        /* \"#utility.yul\":1035:1042   */\n      0x00\n        /* \"#utility.yul\":1078:1083   */\n      dup2\n        /* \"#utility.yul\":1071:1084   */\n      iszero\n        /* \"#utility.yul\":1064:1085   */\n      iszero\n        /* \"#utility.yul\":1053:1085   */\n      swap1\n      pop\n        /* \"#utility.yul\":1001:1091   */\n      swap2\n      swap1\n      pop\n      jump\t// out\n        /* \"#utility.yul\":1097:1174   */\n    tag_29:\n        /* \"#utility.yul\":1134:1141   */\n      0x00\n        /* \"#utility.yul\":1163:1168   */\n      dup2\n        /* \"#utility.yul\":1152:1168   */\n      swap1\n      pop\n        /* \"#utility.yul\":1097:1174   */\n      swap2\n      swap1\n      pop\n      jump\t// out\n        /* \"#utility.yul\":1180:1360   */\n    tag_39:\n        /* \"#utility.yul\":1228:1305   */\n      0x4e487b7100000000000000000000000000000000000000000000000000000000\n        /* \"#utility.yul\":1225:1226   */\n      0x00\n        /* \"#utility.yul\":1218:1306   */\n      mstore\n        /* \"#utility.yul\":1325:1329   */\n      0x11\n        /* \"#utility.yul\":1322:1323   */\n      0x04\n        /* \"#utility.yul\":1315:1330   */\n      mstore\n        /* \"#utility.yul\":1349:1353   */\n      0x24\n        /* \"#utility.yul\":1346:1347   */\n      0x00\n        /* \"#utility.yul\":1339:1354   */\n      revert\n\n    auxdata: 0xa2646970667358221220a92bafc5e0660059bb0135c49c9eef32342a960a31b63dc9e77aaaceeb163ed264736f6c63430008070033\n}\n",
				"bytecode": {
					"linkReferences": {},
					"object": "60806040526005600055600a60015534801561001a57600080fd5b506101f18061002a6000396000f3fe608060405234801561001057600080fd5b50600436106100365760003560e01c80633884d6351461003b578063b4a4fad814610059575b600080fd5b610043610077565b6040516100509190610105565b60405180910390f35b6100616100ae565b60405161006e91906100ea565b60405180910390f35b6000600a600154141561009a57600a6001546100939190610120565b90506100ab565b600180546100a89190610120565b90505b90565b6000600560005414156100c457600190506100c9565b600090505b90565b6100d581610176565b82525050565b6100e481610182565b82525050565b60006020820190506100ff60008301846100cc565b92915050565b600060208201905061011a60008301846100db565b92915050565b600061012b82610182565b915061013683610182565b9250827fffffffffffffffffffffffffffffffffffffffffffffffffffffffffffffffff0382111561016b5761016a61018c565b5b828201905092915050565b60008115159050919050565b6000819050919050565b7f4e487b7100000000000000000000000000000000000000000000000000000000600052601160045260246000fdfea2646970667358221220a92bafc5e0660059bb0135c49c9eef32342a960a31b63dc9e77aaaceeb163ed264736f6c63430008070033",
					"opcodes": "PUSH1 0x80 PUSH1 0x40 MSTORE PUSH1 0x5 PUSH1 0x0 SSTORE PUSH1 0xA PUSH1 0x1 SSTORE CALLVALUE DUP1 ISZERO PUSH2 0x1A JUMPI PUSH1 0x0 DUP1 REVERT JUMPDEST POP PUSH2 0x1F1 DUP1 PUSH2 0x2A PUSH1 0x0 CODECOPY PUSH1 0x0 RETURN INVALID PUSH1 0x80 PUSH1 0x40 MSTORE CALLVALUE DUP1 ISZERO PUSH2 0x10 JUMPI PUSH1 0x0 DUP1 REVERT JUMPDEST POP PUSH1 0x4 CALLDATASIZE LT PUSH2 0x36 JUMPI PUSH1 0x0 CALLDATALOAD PUSH1 0xE0 SHR DUP1 PUSH4 0x3884D635 EQ PUSH2 0x3B JUMPI DUP1 PUSH4 0xB4A4FAD8 EQ PUSH2 0x59 JUMPI JUMPDEST PUSH1 0x0 DUP1 REVERT JUMPDEST PUSH2 0x43 PUSH2 0x77 JUMP JUMPDEST PUSH1 0x40 MLOAD PUSH2 0x50 SWAP2 SWAP1 PUSH2 0x105 JUMP JUMPDEST PUSH1 0x40 MLOAD DUP1 SWAP2 SUB SWAP1 RETURN JUMPDEST PUSH2 0x61 PUSH2 0xAE JUMP JUMPDEST PUSH1 0x40 MLOAD PUSH2 0x6E SWAP2 SWAP1 PUSH2 0xEA JUMP JUMPDEST PUSH1 0x40 MLOAD DUP1 SWAP2 SUB SWAP1 RETURN JUMPDEST PUSH1 0x0 PUSH1 0xA PUSH1 0x1 SLOAD EQ ISZERO PUSH2 0x9A JUMPI PUSH1 0xA PUSH1 0x1 SLOAD PUSH2 0x93 SWAP2 SWAP1 PUSH2 0x120 JUMP JUMPDEST SWAP1 POP PUSH2 0xAB JUMP JUMPDEST PUSH1 0x1 DUP1 SLOAD PUSH2 0xA8 SWAP2 SWAP1 PUSH2 0x120 JUMP JUMPDEST SWAP1 POP JUMPDEST SWAP1 JUMP JUMPDEST PUSH1 0x0 PUSH1 0x5 PUSH1 0x0 SLOAD EQ ISZERO PUSH2 0xC4 JUMPI PUSH1 0x1 SWAP1 POP PUSH2 0xC9 JUMP JUMPDEST PUSH1 0x0 SWAP1 POP JUMPDEST SWAP1 JUMP JUMPDEST PUSH2 0xD5 DUP2 PUSH2 0x176 JUMP JUMPDEST DUP3 MSTORE POP POP JUMP JUMPDEST PUSH2 0xE4 DUP2 PUSH2 0x182 JUMP JUMPDEST DUP3 MSTORE POP POP JUMP JUMPDEST PUSH1 0x0 PUSH1 0x20 DUP3 ADD SWAP1 POP PUSH2 0xFF PUSH1 0x0 DUP4 ADD DUP5 PUSH2 0xCC JUMP JUMPDEST SWAP3 SWAP2 POP POP JUMP JUMPDEST PUSH1 0x0 PUSH1 0x20 DUP3 ADD SWAP1 POP PUSH2 0x11A PUSH1 0x0 DUP4 ADD DUP5 PUSH2 0xDB JUMP JUMPDEST SWAP3 SWAP2 POP POP JUMP JUMPDEST PUSH1 0x0 PUSH2 0x12B DUP3 PUSH2 0x182 JUMP JUMPDEST SWAP2 POP PUSH2 0x136 DUP4 PUSH2 0x182 JUMP JUMPDEST SWAP3 POP DUP3 PUSH32 0xFFFFFFFFFFFFFFFFFFFFFFFFFFFFFFFFFFFFFFFFFFFFFFFFFFFFFFFFFFFFFFFF SUB DUP3 GT ISZERO PUSH2 0x16B JUMPI PUSH2 0x16A PUSH2 0x18C JUMP JUMPDEST JUMPDEST DUP3 DUP3 ADD SWAP1 POP SWAP3 SWAP2 POP POP JUMP JUMPDEST PUSH1 0x0 DUP2 ISZERO ISZERO SWAP1 POP SWAP2 SWAP1 POP JUMP JUMPDEST PUSH1 0x0 DUP2 SWAP1 POP SWAP2 SWAP1 POP JUMP JUMPDEST PUSH32 0x4E487B7100000000000000000000000000000000000000000000000000000000 PUSH1 0x0 MSTORE PUSH1 0x11 PUSH1 0x4 MSTORE PUSH1 0x24 PUSH1 0x0 REVERT INVALID LOG2 PUSH5 0x6970667358 0x22 SLT KECCAK256 0xA9 0x2B 0xAF 0xC5 0xE0 PUSH7 0x59BB0135C49C SWAP15 0xEF ORIGIN CALLVALUE 0x2A SWAP7 EXP BALANCE 0xB6 RETURNDATASIZE 0xC9 0xE7 PUSH27 0xAACEEB163ED264736F6C6343000807003300000000000000000000 "
				},
				"gasEstimates": {
					"creation": {
						"codeDepositCost": "99400",
						"executionCost": "44359",
						"totalCost": "143759"
					},
					"external": {
						"airdrop()": "infinite",
						"validateOranges()": "2480"
					}
				},
				"methodIdentifiers": {
					"airdrop()": "3884d635",
					"validateOranges()": "b4a4fad8"
				}
			},
			"storageLayout": {
				"storage": [
					{
						"astId": 4,
						"contract": "contracts/5_state.sol:States",
						"label": "oranges",
						"offset": 0,
						"slot": "0",
						"type": "t_uint256"
					},
					{
						"astId": 23,
						"contract": "contracts/5_state.sol:States",
						"label": "staking_wallet",
						"offset": 0,
						"slot": "1",
						"type": "t_uint256"
					}
				],
				"types": {
					"t_uint256": {
						"encoding": "inplace",
						"label": "uint256",
						"numberOfBytes": "32"
					}
				}
			},
			"userdoc": {
				"kind": "user",
				"methods": {},
				"version": 1
			}
		}
	}
}