{
	"contracts/18_hashes_random_number.sol": {
		"RandomNumberGenerator": {
			"abi": [
				{
					"inputs": [
						{
							"internalType": "address payable",
							"name": "_to",
							"type": "address"
						}
					],
					"name": "callToFallback",
					"outputs": [],
					"stateMutability": "payable",
					"type": "function"
				},
				{
					"inputs": [
						{
							"internalType": "address payable",
							"name": "_to",
							"type": "address"
						}
					],
					"name": "transferToFallback",
					"outputs": [],
					"stateMutability": "payable",
					"type": "function"
				}
			],
			"devdoc": {
				"kind": "dev",
				"methods": {},
				"version": 1
			},
			"evm": {
				"assembly": "    /* \"contracts/18_hashes_random_number.sol\":67:381  contract RandomNumberGenerator {... */\n  mstore(0x40, 0x80)\n  callvalue\n  dup1\n  iszero\n  tag_1\n  jumpi\n  0x00\n  dup1\n  revert\ntag_1:\n  pop\n  dataSize(sub_0)\n  dup1\n  dataOffset(sub_0)\n  0x00\n  codecopy\n  0x00\n  return\nstop\n\nsub_0: assembly {\n        /* \"contracts/18_hashes_random_number.sol\":67:381  contract RandomNumberGenerator {... */\n      mstore(0x40, 0x80)\n      jumpi(tag_1, lt(calldatasize, 0x04))\n      shr(0xe0, calldataload(0x00))\n      dup1\n      0x6ff0eedb\n      eq\n      tag_2\n      jumpi\n      dup1\n      0xcfc6cdaa\n      eq\n      tag_3\n      jumpi\n    tag_1:\n      0x00\n      dup1\n      revert\n        /* \"contracts/18_hashes_random_number.sol\":215:379  function callToFallback(address payable _to) public payable {... */\n    tag_2:\n      tag_4\n      0x04\n      dup1\n      calldatasize\n      sub\n      dup2\n      add\n      swap1\n      tag_5\n      swap2\n      swap1\n      tag_6\n      jump\t// in\n    tag_5:\n      tag_7\n      jump\t// in\n    tag_4:\n      stop\n        /* \"contracts/18_hashes_random_number.sol\":105:209  function transferToFallback(address payable _to) public payable {... */\n    tag_3:\n      tag_8\n      0x04\n      dup1\n      calldatasize\n      sub\n      dup2\n      add\n      swap1\n      tag_9\n      swap2\n      swap1\n      tag_6\n      jump\t// in\n    tag_9:\n      tag_10\n      jump\t// in\n    tag_8:\n      stop\n        /* \"contracts/18_hashes_random_number.sol\":215:379  function callToFallback(address payable _to) public payable {... */\n    tag_7:\n        /* \"contracts/18_hashes_random_number.sol\":286:295  bool sent */\n      0x00\n        /* \"contracts/18_hashes_random_number.sol\":301:304  _to */\n      dup2\n        /* \"contracts/18_hashes_random_number.sol\":301:309  _to.call */\n      0xffffffffffffffffffffffffffffffffffffffff\n      and\n        /* \"contracts/18_hashes_random_number.sol\":316:325  msg.value */\n      callvalue\n        /* \"contracts/18_hashes_random_number.sol\":301:330  _to.call{value:msg.value}(\"\") */\n      mload(0x40)\n      tag_12\n      swap1\n      tag_13\n      jump\t// in\n    tag_12:\n      0x00\n      mload(0x40)\n      dup1\n      dup4\n      sub\n      dup2\n      dup6\n      dup8\n      gas\n      call\n      swap3\n      pop\n      pop\n      pop\n      returndatasize\n      dup1\n      0x00\n      dup2\n      eq\n      tag_16\n      jumpi\n      mload(0x40)\n      swap2\n      pop\n      and(add(returndatasize, 0x3f), not(0x1f))\n      dup3\n      add\n      0x40\n      mstore\n      returndatasize\n      dup3\n      mstore\n      returndatasize\n      0x00\n      0x20\n      dup5\n      add\n      returndatacopy\n      jump(tag_15)\n    tag_16:\n      0x60\n      swap2\n      pop\n    tag_15:\n      pop\n        /* \"contracts/18_hashes_random_number.sol\":285:330  (bool sent, ) = _to.call{value:msg.value}(\"\") */\n      pop\n      swap1\n      pop\n        /* \"contracts/18_hashes_random_number.sol\":349:353  sent */\n      dup1\n        /* \"contracts/18_hashes_random_number.sol\":340:372  require (sent, \"failed to send\") */\n      tag_17\n      jumpi\n      mload(0x40)\n      0x08c379a000000000000000000000000000000000000000000000000000000000\n      dup2\n      mstore\n      0x04\n      add\n      tag_18\n      swap1\n      tag_19\n      jump\t// in\n    tag_18:\n      mload(0x40)\n      dup1\n      swap2\n      sub\n      swap1\n      revert\n    tag_17:\n        /* \"contracts/18_hashes_random_number.sol\":275:379  {... */\n      pop\n        /* \"contracts/18_hashes_random_number.sol\":215:379  function callToFallback(address payable _to) public payable {... */\n      pop\n      jump\t// out\n        /* \"contracts/18_hashes_random_number.sol\":105:209  function transferToFallback(address payable _to) public payable {... */\n    tag_10:\n        /* \"contracts/18_hashes_random_number.sol\":179:182  _to */\n      dup1\n        /* \"contracts/18_hashes_random_number.sol\":179:191  _to.transfer */\n      0xffffffffffffffffffffffffffffffffffffffff\n      and\n        /* \"contracts/18_hashes_random_number.sol\":179:202  _to.transfer(msg.value) */\n      0x08fc\n        /* \"contracts/18_hashes_random_number.sol\":192:201  msg.value */\n      callvalue\n        /* \"contracts/18_hashes_random_number.sol\":179:202  _to.transfer(msg.value) */\n      swap1\n      dup2\n      iszero\n      mul\n      swap1\n      mload(0x40)\n      0x00\n      mload(0x40)\n      dup1\n      dup4\n      sub\n      dup2\n      dup6\n      dup9\n      dup9\n      call\n      swap4\n      pop\n      pop\n      pop\n      pop\n      iszero\n      dup1\n      iszero\n      tag_22\n      jumpi\n      returndatasize\n      0x00\n      dup1\n      returndatacopy\n      revert(0x00, returndatasize)\n    tag_22:\n      pop\n        /* \"contracts/18_hashes_random_number.sol\":105:209  function transferToFallback(address payable _to) public payable {... */\n      pop\n      jump\t// out\n        /* \"#utility.yul\":7:162   */\n    tag_24:\n        /* \"#utility.yul\":61:66   */\n      0x00\n        /* \"#utility.yul\":99:105   */\n      dup2\n        /* \"#utility.yul\":86:106   */\n      calldataload\n        /* \"#utility.yul\":77:106   */\n      swap1\n      pop\n        /* \"#utility.yul\":115:156   */\n      tag_26\n        /* \"#utility.yul\":150:155   */\n      dup2\n        /* \"#utility.yul\":115:156   */\n      tag_27\n      jump\t// in\n    tag_26:\n        /* \"#utility.yul\":7:162   */\n      swap3\n      swap2\n      pop\n      pop\n      jump\t// out\n        /* \"#utility.yul\":168:513   */\n    tag_6:\n        /* \"#utility.yul\":235:241   */\n      0x00\n        /* \"#utility.yul\":284:286   */\n      0x20\n        /* \"#utility.yul\":272:281   */\n      dup3\n        /* \"#utility.yul\":263:270   */\n      dup5\n        /* \"#utility.yul\":259:282   */\n      sub\n        /* \"#utility.yul\":255:287   */\n      slt\n        /* \"#utility.yul\":252:371   */\n      iszero\n      tag_29\n      jumpi\n        /* \"#utility.yul\":290:369   */\n      tag_30\n      tag_31\n      jump\t// in\n    tag_30:\n        /* \"#utility.yul\":252:371   */\n    tag_29:\n        /* \"#utility.yul\":410:411   */\n      0x00\n        /* \"#utility.yul\":435:496   */\n      tag_32\n        /* \"#utility.yul\":488:495   */\n      dup5\n        /* \"#utility.yul\":479:485   */\n      dup3\n        /* \"#utility.yul\":468:477   */\n      dup6\n        /* \"#utility.yul\":464:486   */\n      add\n        /* \"#utility.yul\":435:496   */\n      tag_24\n      jump\t// in\n    tag_32:\n        /* \"#utility.yul\":425:496   */\n      swap2\n      pop\n        /* \"#utility.yul\":381:506   */\n      pop\n        /* \"#utility.yul\":168:513   */\n      swap3\n      swap2\n      pop\n      pop\n      jump\t// out\n        /* \"#utility.yul\":519:917   */\n    tag_33:\n        /* \"#utility.yul\":678:681   */\n      0x00\n        /* \"#utility.yul\":699:782   */\n      tag_35\n        /* \"#utility.yul\":780:781   */\n      0x00\n        /* \"#utility.yul\":775:778   */\n      dup4\n        /* \"#utility.yul\":699:782   */\n      tag_36\n      jump\t// in\n    tag_35:\n        /* \"#utility.yul\":692:782   */\n      swap2\n      pop\n        /* \"#utility.yul\":791:884   */\n      tag_37\n        /* \"#utility.yul\":880:883   */\n      dup3\n        /* \"#utility.yul\":791:884   */\n      tag_38\n      jump\t// in\n    tag_37:\n        /* \"#utility.yul\":909:910   */\n      0x00\n        /* \"#utility.yul\":904:907   */\n      dup3\n        /* \"#utility.yul\":900:911   */\n      add\n        /* \"#utility.yul\":893:911   */\n      swap1\n      pop\n        /* \"#utility.yul\":519:917   */\n      swap2\n      swap1\n      pop\n      jump\t// out\n        /* \"#utility.yul\":923:1289   */\n    tag_39:\n        /* \"#utility.yul\":1065:1068   */\n      0x00\n        /* \"#utility.yul\":1086:1153   */\n      tag_41\n        /* \"#utility.yul\":1150:1152   */\n      0x0e\n        /* \"#utility.yul\":1145:1148   */\n      dup4\n        /* \"#utility.yul\":1086:1153   */\n      tag_42\n      jump\t// in\n    tag_41:\n        /* \"#utility.yul\":1079:1153   */\n      swap2\n      pop\n        /* \"#utility.yul\":1162:1255   */\n      tag_43\n        /* \"#utility.yul\":1251:1254   */\n      dup3\n        /* \"#utility.yul\":1162:1255   */\n      tag_44\n      jump\t// in\n    tag_43:\n        /* \"#utility.yul\":1280:1282   */\n      0x20\n        /* \"#utility.yul\":1275:1278   */\n      dup3\n        /* \"#utility.yul\":1271:1283   */\n      add\n        /* \"#utility.yul\":1264:1283   */\n      swap1\n      pop\n        /* \"#utility.yul\":923:1289   */\n      swap2\n      swap1\n      pop\n      jump\t// out\n        /* \"#utility.yul\":1295:1674   */\n    tag_13:\n        /* \"#utility.yul\":1479:1482   */\n      0x00\n        /* \"#utility.yul\":1501:1648   */\n      tag_46\n        /* \"#utility.yul\":1644:1647   */\n      dup3\n        /* \"#utility.yul\":1501:1648   */\n      tag_33\n      jump\t// in\n    tag_46:\n        /* \"#utility.yul\":1494:1648   */\n      swap2\n      pop\n        /* \"#utility.yul\":1665:1668   */\n      dup2\n        /* \"#utility.yul\":1658:1668   */\n      swap1\n      pop\n        /* \"#utility.yul\":1295:1674   */\n      swap2\n      swap1\n      pop\n      jump\t// out\n        /* \"#utility.yul\":1680:2099   */\n    tag_19:\n        /* \"#utility.yul\":1846:1850   */\n      0x00\n        /* \"#utility.yul\":1884:1886   */\n      0x20\n        /* \"#utility.yul\":1873:1882   */\n      dup3\n        /* \"#utility.yul\":1869:1887   */\n      add\n        /* \"#utility.yul\":1861:1887   */\n      swap1\n      pop\n        /* \"#utility.yul\":1933:1942   */\n      dup2\n        /* \"#utility.yul\":1927:1931   */\n      dup2\n        /* \"#utility.yul\":1923:1943   */\n      sub\n        /* \"#utility.yul\":1919:1920   */\n      0x00\n        /* \"#utility.yul\":1908:1917   */\n      dup4\n        /* \"#utility.yul\":1904:1921   */\n      add\n        /* \"#utility.yul\":1897:1944   */\n      mstore\n        /* \"#utility.yul\":1961:2092   */\n      tag_48\n        /* \"#utility.yul\":2087:2091   */\n      dup2\n        /* \"#utility.yul\":1961:2092   */\n      tag_39\n      jump\t// in\n    tag_48:\n        /* \"#utility.yul\":1953:2092   */\n      swap1\n      pop\n        /* \"#utility.yul\":1680:2099   */\n      swap2\n      swap1\n      pop\n      jump\t// out\n        /* \"#utility.yul\":2186:2333   */\n    tag_36:\n        /* \"#utility.yul\":2287:2298   */\n      0x00\n        /* \"#utility.yul\":2324:2327   */\n      dup2\n        /* \"#utility.yul\":2309:2327   */\n      swap1\n      pop\n        /* \"#utility.yul\":2186:2333   */\n      swap3\n      swap2\n      pop\n      pop\n      jump\t// out\n        /* \"#utility.yul\":2339:2508   */\n    tag_42:\n        /* \"#utility.yul\":2423:2434   */\n      0x00\n        /* \"#utility.yul\":2457:2463   */\n      dup3\n        /* \"#utility.yul\":2452:2455   */\n      dup3\n        /* \"#utility.yul\":2445:2464   */\n      mstore\n        /* \"#utility.yul\":2497:2501   */\n      0x20\n        /* \"#utility.yul\":2492:2495   */\n      dup3\n        /* \"#utility.yul\":2488:2502   */\n      add\n        /* \"#utility.yul\":2473:2502   */\n      swap1\n      pop\n        /* \"#utility.yul\":2339:2508   */\n      swap3\n      swap2\n      pop\n      pop\n      jump\t// out\n        /* \"#utility.yul\":2514:2618   */\n    tag_53:\n        /* \"#utility.yul\":2559:2566   */\n      0x00\n        /* \"#utility.yul\":2588:2612   */\n      tag_55\n        /* \"#utility.yul\":2606:2611   */\n      dup3\n        /* \"#utility.yul\":2588:2612   */\n      tag_56\n      jump\t// in\n    tag_55:\n        /* \"#utility.yul\":2577:2612   */\n      swap1\n      pop\n        /* \"#utility.yul\":2514:2618   */\n      swap2\n      swap1\n      pop\n      jump\t// out\n        /* \"#utility.yul\":2624:2750   */\n    tag_56:\n        /* \"#utility.yul\":2661:2668   */\n      0x00\n        /* \"#utility.yul\":2701:2743   */\n      0xffffffffffffffffffffffffffffffffffffffff\n        /* \"#utility.yul\":2694:2699   */\n      dup3\n        /* \"#utility.yul\":2690:2744   */\n      and\n        /* \"#utility.yul\":2679:2744   */\n      swap1\n      pop\n        /* \"#utility.yul\":2624:2750   */\n      swap2\n      swap1\n      pop\n      jump\t// out\n        /* \"#utility.yul\":2879:2996   */\n    tag_31:\n        /* \"#utility.yul\":2988:2989   */\n      0x00\n        /* \"#utility.yul\":2985:2986   */\n      dup1\n        /* \"#utility.yul\":2978:2990   */\n      revert\n        /* \"#utility.yul\":3002:3116   */\n    tag_38:\n      pop\n      jump\t// out\n        /* \"#utility.yul\":3122:3286   */\n    tag_44:\n        /* \"#utility.yul\":3262:3278   */\n      0x6661696c656420746f2073656e64000000000000000000000000000000000000\n        /* \"#utility.yul\":3258:3259   */\n      0x00\n        /* \"#utility.yul\":3250:3256   */\n      dup3\n        /* \"#utility.yul\":3246:3260   */\n      add\n        /* \"#utility.yul\":3239:3279   */\n      mstore\n        /* \"#utility.yul\":3122:3286   */\n      pop\n      jump\t// out\n        /* \"#utility.yul\":3292:3430   */\n    tag_27:\n        /* \"#utility.yul\":3373:3405   */\n      tag_64\n        /* \"#utility.yul\":3399:3404   */\n      dup2\n        /* \"#utility.yul\":3373:3405   */\n      tag_53\n      jump\t// in\n    tag_64:\n        /* \"#utility.yul\":3366:3371   */\n      dup2\n        /* \"#utility.yul\":3363:3406   */\n      eq\n        /* \"#utility.yul\":3353:3424   */\n      tag_65\n      jumpi\n        /* \"#utility.yul\":3420:3421   */\n      0x00\n        /* \"#utility.yul\":3417:3418   */\n      dup1\n        /* \"#utility.yul\":3410:3422   */\n      revert\n        /* \"#utility.yul\":3353:3424   */\n    tag_65:\n        /* \"#utility.yul\":3292:3430   */\n      pop\n      jump\t// out\n\n    auxdata: 0xa2646970667358221220cf9adb6f0d8f70f6e7c406318080cdc81166c25c1876e0b259b65e00da928a6c64736f6c63430008070033\n}\n",
				"bytecode": {
					"linkReferences": {},
					"object": "608060405234801561001057600080fd5b506102e9806100206000396000f3fe6080604052600436106100295760003560e01c80636ff0eedb1461002e578063cfc6cdaa1461004a575b600080fd5b61004860048036038101906100439190610175565b610066565b005b610064600480360381019061005f9190610175565b610116565b005b60008173ffffffffffffffffffffffffffffffffffffffff163460405161008c906101e8565b60006040518083038185875af1925050503d80600081146100c9576040519150601f19603f3d011682016040523d82523d6000602084013e6100ce565b606091505b5050905080610112576040517f08c379a0000000000000000000000000000000000000000000000000000000008152600401610109906101fd565b60405180910390fd5b5050565b8073ffffffffffffffffffffffffffffffffffffffff166108fc349081150290604051600060405180830381858888f1935050505015801561015c573d6000803e3d6000fd5b5050565b60008135905061016f8161029c565b92915050565b60006020828403121561018b5761018a61026b565b5b600061019984828501610160565b91505092915050565b60006101af60008361021d565b91506101ba82610270565b600082019050919050565b60006101d2600e83610228565b91506101dd82610273565b602082019050919050565b60006101f3826101a2565b9150819050919050565b60006020820190508181036000830152610216816101c5565b9050919050565b600081905092915050565b600082825260208201905092915050565b60006102448261024b565b9050919050565b600073ffffffffffffffffffffffffffffffffffffffff82169050919050565b600080fd5b50565b7f6661696c656420746f2073656e64000000000000000000000000000000000000600082015250565b6102a581610239565b81146102b057600080fd5b5056fea2646970667358221220cf9adb6f0d8f70f6e7c406318080cdc81166c25c1876e0b259b65e00da928a6c64736f6c63430008070033",
					"opcodes": "PUSH1 0x80 PUSH1 0x40 MSTORE CALLVALUE DUP1 ISZERO PUSH2 0x10 JUMPI PUSH1 0x0 DUP1 REVERT JUMPDEST POP PUSH2 0x2E9 DUP1 PUSH2 0x20 PUSH1 0x0 CODECOPY PUSH1 0x0 RETURN INVALID PUSH1 0x80 PUSH1 0x40 MSTORE PUSH1 0x4 CALLDATASIZE LT PUSH2 0x29 JUMPI PUSH1 0x0 CALLDATALOAD PUSH1 0xE0 SHR DUP1 PUSH4 0x6FF0EEDB EQ PUSH2 0x2E JUMPI DUP1 PUSH4 0xCFC6CDAA EQ PUSH2 0x4A JUMPI JUMPDEST PUSH1 0x0 DUP1 REVERT JUMPDEST PUSH2 0x48 PUSH1 0x4 DUP1 CALLDATASIZE SUB DUP2 ADD SWAP1 PUSH2 0x43 SWAP2 SWAP1 PUSH2 0x175 JUMP JUMPDEST PUSH2 0x66 JUMP JUMPDEST STOP JUMPDEST PUSH2 0x64 PUSH1 0x4 DUP1 CALLDATASIZE SUB DUP2 ADD SWAP1 PUSH2 0x5F SWAP2 SWAP1 PUSH2 0x175 JUMP JUMPDEST PUSH2 0x116 JUMP JUMPDEST STOP JUMPDEST PUSH1 0x0 DUP2 PUSH20 0xFFFFFFFFFFFFFFFFFFFFFFFFFFFFFFFFFFFFFFFF AND CALLVALUE PUSH1 0x40 MLOAD PUSH2 0x8C SWAP1 PUSH2 0x1E8 JUMP JUMPDEST PUSH1 0x0 PUSH1 0x40 MLOAD DUP1 DUP4 SUB DUP2 DUP6 DUP8 GAS CALL SWAP3 POP POP POP RETURNDATASIZE DUP1 PUSH1 0x0 DUP2 EQ PUSH2 0xC9 JUMPI PUSH1 0x40 MLOAD SWAP2 POP PUSH1 0x1F NOT PUSH1 0x3F RETURNDATASIZE ADD AND DUP3 ADD PUSH1 0x40 MSTORE RETURNDATASIZE DUP3 MSTORE RETURNDATASIZE PUSH1 0x0 PUSH1 0x20 DUP5 ADD RETURNDATACOPY PUSH2 0xCE JUMP JUMPDEST PUSH1 0x60 SWAP2 POP JUMPDEST POP POP SWAP1 POP DUP1 PUSH2 0x112 JUMPI PUSH1 0x40 MLOAD PUSH32 0x8C379A000000000000000000000000000000000000000000000000000000000 DUP2 MSTORE PUSH1 0x4 ADD PUSH2 0x109 SWAP1 PUSH2 0x1FD JUMP JUMPDEST PUSH1 0x40 MLOAD DUP1 SWAP2 SUB SWAP1 REVERT JUMPDEST POP POP JUMP JUMPDEST DUP1 PUSH20 0xFFFFFFFFFFFFFFFFFFFFFFFFFFFFFFFFFFFFFFFF AND PUSH2 0x8FC CALLVALUE SWAP1 DUP2 ISZERO MUL SWAP1 PUSH1 0x40 MLOAD PUSH1 0x0 PUSH1 0x40 MLOAD DUP1 DUP4 SUB DUP2 DUP6 DUP9 DUP9 CALL SWAP4 POP POP POP POP ISZERO DUP1 ISZERO PUSH2 0x15C JUMPI RETURNDATASIZE PUSH1 0x0 DUP1 RETURNDATACOPY RETURNDATASIZE PUSH1 0x0 REVERT JUMPDEST POP POP JUMP JUMPDEST PUSH1 0x0 DUP2 CALLDATALOAD SWAP1 POP PUSH2 0x16F DUP2 PUSH2 0x29C JUMP JUMPDEST SWAP3 SWAP2 POP POP JUMP JUMPDEST PUSH1 0x0 PUSH1 0x20 DUP3 DUP5 SUB SLT ISZERO PUSH2 0x18B JUMPI PUSH2 0x18A PUSH2 0x26B JUMP JUMPDEST JUMPDEST PUSH1 0x0 PUSH2 0x199 DUP5 DUP3 DUP6 ADD PUSH2 0x160 JUMP JUMPDEST SWAP2 POP POP SWAP3 SWAP2 POP POP JUMP JUMPDEST PUSH1 0x0 PUSH2 0x1AF PUSH1 0x0 DUP4 PUSH2 0x21D JUMP JUMPDEST SWAP2 POP PUSH2 0x1BA DUP3 PUSH2 0x270 JUMP JUMPDEST PUSH1 0x0 DUP3 ADD SWAP1 POP SWAP2 SWAP1 POP JUMP JUMPDEST PUSH1 0x0 PUSH2 0x1D2 PUSH1 0xE DUP4 PUSH2 0x228 JUMP JUMPDEST SWAP2 POP PUSH2 0x1DD DUP3 PUSH2 0x273 JUMP JUMPDEST PUSH1 0x20 DUP3 ADD SWAP1 POP SWAP2 SWAP1 POP JUMP JUMPDEST PUSH1 0x0 PUSH2 0x1F3 DUP3 PUSH2 0x1A2 JUMP JUMPDEST SWAP2 POP DUP2 SWAP1 POP SWAP2 SWAP1 POP JUMP JUMPDEST PUSH1 0x0 PUSH1 0x20 DUP3 ADD SWAP1 POP DUP2 DUP2 SUB PUSH1 0x0 DUP4 ADD MSTORE PUSH2 0x216 DUP2 PUSH2 0x1C5 JUMP JUMPDEST SWAP1 POP SWAP2 SWAP1 POP JUMP JUMPDEST PUSH1 0x0 DUP2 SWAP1 POP SWAP3 SWAP2 POP POP JUMP JUMPDEST PUSH1 0x0 DUP3 DUP3 MSTORE PUSH1 0x20 DUP3 ADD SWAP1 POP SWAP3 SWAP2 POP POP JUMP JUMPDEST PUSH1 0x0 PUSH2 0x244 DUP3 PUSH2 0x24B JUMP JUMPDEST SWAP1 POP SWAP2 SWAP1 POP JUMP JUMPDEST PUSH1 0x0 PUSH20 0xFFFFFFFFFFFFFFFFFFFFFFFFFFFFFFFFFFFFFFFF DUP3 AND SWAP1 POP SWAP2 SWAP1 POP JUMP JUMPDEST PUSH1 0x0 DUP1 REVERT JUMPDEST POP JUMP JUMPDEST PUSH32 0x6661696C656420746F2073656E64000000000000000000000000000000000000 PUSH1 0x0 DUP3 ADD MSTORE POP JUMP JUMPDEST PUSH2 0x2A5 DUP2 PUSH2 0x239 JUMP JUMPDEST DUP2 EQ PUSH2 0x2B0 JUMPI PUSH1 0x0 DUP1 REVERT JUMPDEST POP JUMP INVALID LOG2 PUSH5 0x6970667358 0x22 SLT KECCAK256 0xCF SWAP11 0xDB PUSH16 0xD8F70F6E7C406318080CDC81166C25C XOR PUSH23 0xE0B259B65E00DA928A6C64736F6C634300080700330000 "
				},
				"gasEstimates": {
					"creation": {
						"codeDepositCost": "149000",
						"executionCost": "196",
						"totalCost": "149196"
					},
					"external": {
						"callToFallback(address)": "infinite",
						"transferToFallback(address)": "infinite"
					}
				},
				"methodIdentifiers": {
					"callToFallback(address)": "6ff0eedb",
					"transferToFallback(address)": "cfc6cdaa"
				}
			},
			"storageLayout": {
				"storage": [],
				"types": null
			},
			"userdoc": {
				"kind": "user",
				"methods": {},
				"version": 1
			}
		}
	}
}