{
	"contracts/11_mapping.sol": {
		"LearnMapping": {
			"abi": [
				{
					"inputs": [
						{
							"internalType": "uint256",
							"name": "_id",
							"type": "uint256"
						},
						{
							"internalType": "string",
							"name": "_title",
							"type": "string"
						},
						{
							"internalType": "string",
							"name": "_director",
							"type": "string"
						}
					],
					"name": "addMovie",
					"outputs": [],
					"stateMutability": "nonpayable",
					"type": "function"
				},
				{
					"inputs": [
						{
							"internalType": "uint256",
							"name": "",
							"type": "uint256"
						}
					],
					"name": "movies",
					"outputs": [
						{
							"internalType": "string",
							"name": "title",
							"type": "string"
						},
						{
							"internalType": "string",
							"name": "director",
							"type": "string"
						}
					],
					"stateMutability": "view",
					"type": "function"
				}
			],
			"devdoc": {
				"kind": "dev",
				"methods": {},
				"version": 1
			},
			"evm": {
				"assembly": "    /* \"contracts/11_mapping.sol\":67:315  contract LearnMapping {... */\n  mstore(0x40, 0x80)\n  callvalue\n  dup1\n  iszero\n  tag_1\n  jumpi\n  0x00\n  dup1\n  revert\ntag_1:\n  pop\n  dataSize(sub_0)\n  dup1\n  dataOffset(sub_0)\n  0x00\n  codecopy\n  0x00\n  return\nstop\n\nsub_0: assembly {\n        /* \"contracts/11_mapping.sol\":67:315  contract LearnMapping {... */\n      mstore(0x40, 0x80)\n      callvalue\n      dup1\n      iszero\n      tag_1\n      jumpi\n      0x00\n      dup1\n      revert\n    tag_1:\n      pop\n      jumpi(tag_2, lt(calldatasize, 0x04))\n      shr(0xe0, calldataload(0x00))\n      dup1\n      0x404ebf6c\n      eq\n      tag_3\n      jumpi\n      dup1\n      0xf40f48c9\n      eq\n      tag_4\n      jumpi\n    tag_2:\n      0x00\n      dup1\n      revert\n        /* \"contracts/11_mapping.sol\":169:205  mapping(uint => Movie) public movies */\n    tag_3:\n      tag_5\n      0x04\n      dup1\n      calldatasize\n      sub\n      dup2\n      add\n      swap1\n      tag_6\n      swap2\n      swap1\n      tag_7\n      jump\t// in\n    tag_6:\n      tag_8\n      jump\t// in\n    tag_5:\n      mload(0x40)\n      tag_9\n      swap3\n      swap2\n      swap1\n      tag_10\n      jump\t// in\n    tag_9:\n      mload(0x40)\n      dup1\n      swap2\n      sub\n      swap1\n      return\n        /* \"contracts/11_mapping.sol\":212:312  function addMovie(uint _id, string calldata _title, string memory _director) public {... */\n    tag_4:\n      tag_11\n      0x04\n      dup1\n      calldatasize\n      sub\n      dup2\n      add\n      swap1\n      tag_12\n      swap2\n      swap1\n      tag_13\n      jump\t// in\n    tag_12:\n      tag_14\n      jump\t// in\n    tag_11:\n      stop\n        /* \"contracts/11_mapping.sol\":169:205  mapping(uint => Movie) public movies */\n    tag_8:\n      mstore(0x20, 0x00)\n      dup1\n      0x00\n      mstore\n      keccak256(0x00, 0x40)\n      0x00\n      swap2\n      pop\n      swap1\n      pop\n      dup1\n      0x00\n      add\n      dup1\n      sload\n      tag_15\n      swap1\n      tag_16\n      jump\t// in\n    tag_15:\n      dup1\n      0x1f\n      add\n      0x20\n      dup1\n      swap2\n      div\n      mul\n      0x20\n      add\n      mload(0x40)\n      swap1\n      dup2\n      add\n      0x40\n      mstore\n      dup1\n      swap3\n      swap2\n      swap1\n      dup2\n      dup2\n      mstore\n      0x20\n      add\n      dup3\n      dup1\n      sload\n      tag_17\n      swap1\n      tag_16\n      jump\t// in\n    tag_17:\n      dup1\n      iszero\n      tag_18\n      jumpi\n      dup1\n      0x1f\n      lt\n      tag_19\n      jumpi\n      0x0100\n      dup1\n      dup4\n      sload\n      div\n      mul\n      dup4\n      mstore\n      swap2\n      0x20\n      add\n      swap2\n      jump(tag_18)\n    tag_19:\n      dup3\n      add\n      swap2\n      swap1\n      0x00\n      mstore\n      keccak256(0x00, 0x20)\n      swap1\n    tag_20:\n      dup2\n      sload\n      dup2\n      mstore\n      swap1\n      0x01\n      add\n      swap1\n      0x20\n      add\n      dup1\n      dup4\n      gt\n      tag_20\n      jumpi\n      dup3\n      swap1\n      sub\n      0x1f\n      and\n      dup3\n      add\n      swap2\n    tag_18:\n      pop\n      pop\n      pop\n      pop\n      pop\n      swap1\n      dup1\n      0x01\n      add\n      dup1\n      sload\n      tag_21\n      swap1\n      tag_16\n      jump\t// in\n    tag_21:\n      dup1\n      0x1f\n      add\n      0x20\n      dup1\n      swap2\n      div\n      mul\n      0x20\n      add\n      mload(0x40)\n      swap1\n      dup2\n      add\n      0x40\n      mstore\n      dup1\n      swap3\n      swap2\n      swap1\n      dup2\n      dup2\n      mstore\n      0x20\n      add\n      dup3\n      dup1\n      sload\n      tag_22\n      swap1\n      tag_16\n      jump\t// in\n    tag_22:\n      dup1\n      iszero\n      tag_23\n      jumpi\n      dup1\n      0x1f\n      lt\n      tag_24\n      jumpi\n      0x0100\n      dup1\n      dup4\n      sload\n      div\n      mul\n      dup4\n      mstore\n      swap2\n      0x20\n      add\n      swap2\n      jump(tag_23)\n    tag_24:\n      dup3\n      add\n      swap2\n      swap1\n      0x00\n      mstore\n      keccak256(0x00, 0x20)\n      swap1\n    tag_25:\n      dup2\n      sload\n      dup2\n      mstore\n      swap1\n      0x01\n      add\n      swap1\n      0x20\n      add\n      dup1\n      dup4\n      gt\n      tag_25\n      jumpi\n      dup3\n      swap1\n      sub\n      0x1f\n      and\n      dup3\n      add\n      swap2\n    tag_23:\n      pop\n      pop\n      pop\n      pop\n      pop\n      swap1\n      pop\n      dup3\n      jump\t// out\n        /* \"contracts/11_mapping.sol\":212:312  function addMovie(uint _id, string calldata _title, string memory _director) public {... */\n    tag_14:\n      pop\n      pop\n      pop\n      pop\n      jump\t// out\n        /* \"#utility.yul\":7:419   */\n    tag_28:\n        /* \"#utility.yul\":85:90   */\n      0x00\n        /* \"#utility.yul\":110:176   */\n      tag_30\n        /* \"#utility.yul\":126:175   */\n      tag_31\n        /* \"#utility.yul\":168:174   */\n      dup5\n        /* \"#utility.yul\":126:175   */\n      tag_32\n      jump\t// in\n    tag_31:\n        /* \"#utility.yul\":110:176   */\n      tag_33\n      jump\t// in\n    tag_30:\n        /* \"#utility.yul\":101:176   */\n      swap1\n      pop\n        /* \"#utility.yul\":199:205   */\n      dup3\n        /* \"#utility.yul\":192:197   */\n      dup2\n        /* \"#utility.yul\":185:206   */\n      mstore\n        /* \"#utility.yul\":237:241   */\n      0x20\n        /* \"#utility.yul\":230:235   */\n      dup2\n        /* \"#utility.yul\":226:242   */\n      add\n        /* \"#utility.yul\":275:278   */\n      dup5\n        /* \"#utility.yul\":266:272   */\n      dup5\n        /* \"#utility.yul\":261:264   */\n      dup5\n        /* \"#utility.yul\":257:273   */\n      add\n        /* \"#utility.yul\":254:279   */\n      gt\n        /* \"#utility.yul\":251:363   */\n      iszero\n      tag_34\n      jumpi\n        /* \"#utility.yul\":282:361   */\n      tag_35\n      tag_36\n      jump\t// in\n    tag_35:\n        /* \"#utility.yul\":251:363   */\n    tag_34:\n        /* \"#utility.yul\":372:413   */\n      tag_37\n        /* \"#utility.yul\":406:412   */\n      dup5\n        /* \"#utility.yul\":401:404   */\n      dup3\n        /* \"#utility.yul\":396:399   */\n      dup6\n        /* \"#utility.yul\":372:413   */\n      tag_38\n      jump\t// in\n    tag_37:\n        /* \"#utility.yul\":91:419   */\n      pop\n        /* \"#utility.yul\":7:419   */\n      swap4\n      swap3\n      pop\n      pop\n      pop\n      jump\t// out\n        /* \"#utility.yul\":439:992   */\n    tag_39:\n        /* \"#utility.yul\":497:505   */\n      0x00\n        /* \"#utility.yul\":507:513   */\n      dup1\n        /* \"#utility.yul\":557:560   */\n      dup4\n        /* \"#utility.yul\":550:554   */\n      0x1f\n        /* \"#utility.yul\":542:548   */\n      dup5\n        /* \"#utility.yul\":538:555   */\n      add\n        /* \"#utility.yul\":534:561   */\n      slt\n        /* \"#utility.yul\":524:646   */\n      tag_41\n      jumpi\n        /* \"#utility.yul\":565:644   */\n      tag_42\n      tag_43\n      jump\t// in\n    tag_42:\n        /* \"#utility.yul\":524:646   */\n    tag_41:\n        /* \"#utility.yul\":678:684   */\n      dup3\n        /* \"#utility.yul\":665:685   */\n      calldataload\n        /* \"#utility.yul\":655:685   */\n      swap1\n      pop\n        /* \"#utility.yul\":708:726   */\n      0xffffffffffffffff\n        /* \"#utility.yul\":700:706   */\n      dup2\n        /* \"#utility.yul\":697:727   */\n      gt\n        /* \"#utility.yul\":694:811   */\n      iszero\n      tag_44\n      jumpi\n        /* \"#utility.yul\":730:809   */\n      tag_45\n      tag_46\n      jump\t// in\n    tag_45:\n        /* \"#utility.yul\":694:811   */\n    tag_44:\n        /* \"#utility.yul\":844:848   */\n      0x20\n        /* \"#utility.yul\":836:842   */\n      dup4\n        /* \"#utility.yul\":832:849   */\n      add\n        /* \"#utility.yul\":820:849   */\n      swap2\n      pop\n        /* \"#utility.yul\":898:901   */\n      dup4\n        /* \"#utility.yul\":890:894   */\n      0x01\n        /* \"#utility.yul\":882:888   */\n      dup3\n        /* \"#utility.yul\":878:895   */\n      mul\n        /* \"#utility.yul\":868:876   */\n      dup4\n        /* \"#utility.yul\":864:896   */\n      add\n        /* \"#utility.yul\":861:902   */\n      gt\n        /* \"#utility.yul\":858:986   */\n      iszero\n      tag_47\n      jumpi\n        /* \"#utility.yul\":905:984   */\n      tag_48\n      tag_49\n      jump\t// in\n    tag_48:\n        /* \"#utility.yul\":858:986   */\n    tag_47:\n        /* \"#utility.yul\":439:992   */\n      swap3\n      pop\n      swap3\n      swap1\n      pop\n      jump\t// out\n        /* \"#utility.yul\":1012:1352   */\n    tag_50:\n        /* \"#utility.yul\":1068:1073   */\n      0x00\n        /* \"#utility.yul\":1117:1120   */\n      dup3\n        /* \"#utility.yul\":1110:1114   */\n      0x1f\n        /* \"#utility.yul\":1102:1108   */\n      dup4\n        /* \"#utility.yul\":1098:1115   */\n      add\n        /* \"#utility.yul\":1094:1121   */\n      slt\n        /* \"#utility.yul\":1084:1206   */\n      tag_52\n      jumpi\n        /* \"#utility.yul\":1125:1204   */\n      tag_53\n      tag_43\n      jump\t// in\n    tag_53:\n        /* \"#utility.yul\":1084:1206   */\n    tag_52:\n        /* \"#utility.yul\":1242:1248   */\n      dup2\n        /* \"#utility.yul\":1229:1249   */\n      calldataload\n        /* \"#utility.yul\":1267:1346   */\n      tag_54\n        /* \"#utility.yul\":1342:1345   */\n      dup5\n        /* \"#utility.yul\":1334:1340   */\n      dup3\n        /* \"#utility.yul\":1327:1331   */\n      0x20\n        /* \"#utility.yul\":1319:1325   */\n      dup7\n        /* \"#utility.yul\":1315:1332   */\n      add\n        /* \"#utility.yul\":1267:1346   */\n      tag_28\n      jump\t// in\n    tag_54:\n        /* \"#utility.yul\":1258:1346   */\n      swap2\n      pop\n        /* \"#utility.yul\":1074:1352   */\n      pop\n        /* \"#utility.yul\":1012:1352   */\n      swap3\n      swap2\n      pop\n      pop\n      jump\t// out\n        /* \"#utility.yul\":1358:1497   */\n    tag_55:\n        /* \"#utility.yul\":1404:1409   */\n      0x00\n        /* \"#utility.yul\":1442:1448   */\n      dup2\n        /* \"#utility.yul\":1429:1449   */\n      calldataload\n        /* \"#utility.yul\":1420:1449   */\n      swap1\n      pop\n        /* \"#utility.yul\":1458:1491   */\n      tag_57\n        /* \"#utility.yul\":1485:1490   */\n      dup2\n        /* \"#utility.yul\":1458:1491   */\n      tag_58\n      jump\t// in\n    tag_57:\n        /* \"#utility.yul\":1358:1497   */\n      swap3\n      swap2\n      pop\n      pop\n      jump\t// out\n        /* \"#utility.yul\":1503:1832   */\n    tag_7:\n        /* \"#utility.yul\":1562:1568   */\n      0x00\n        /* \"#utility.yul\":1611:1613   */\n      0x20\n        /* \"#utility.yul\":1599:1608   */\n      dup3\n        /* \"#utility.yul\":1590:1597   */\n      dup5\n        /* \"#utility.yul\":1586:1609   */\n      sub\n        /* \"#utility.yul\":1582:1614   */\n      slt\n        /* \"#utility.yul\":1579:1698   */\n      iszero\n      tag_60\n      jumpi\n        /* \"#utility.yul\":1617:1696   */\n      tag_61\n      tag_62\n      jump\t// in\n    tag_61:\n        /* \"#utility.yul\":1579:1698   */\n    tag_60:\n        /* \"#utility.yul\":1737:1738   */\n      0x00\n        /* \"#utility.yul\":1762:1815   */\n      tag_63\n        /* \"#utility.yul\":1807:1814   */\n      dup5\n        /* \"#utility.yul\":1798:1804   */\n      dup3\n        /* \"#utility.yul\":1787:1796   */\n      dup6\n        /* \"#utility.yul\":1783:1805   */\n      add\n        /* \"#utility.yul\":1762:1815   */\n      tag_55\n      jump\t// in\n    tag_63:\n        /* \"#utility.yul\":1752:1815   */\n      swap2\n      pop\n        /* \"#utility.yul\":1708:1825   */\n      pop\n        /* \"#utility.yul\":1503:1832   */\n      swap3\n      swap2\n      pop\n      pop\n      jump\t// out\n        /* \"#utility.yul\":1838:2837   */\n    tag_13:\n        /* \"#utility.yul\":1937:1943   */\n      0x00\n        /* \"#utility.yul\":1945:1951   */\n      dup1\n        /* \"#utility.yul\":1953:1959   */\n      0x00\n        /* \"#utility.yul\":1961:1967   */\n      dup1\n        /* \"#utility.yul\":2010:2012   */\n      0x60\n        /* \"#utility.yul\":1998:2007   */\n      dup6\n        /* \"#utility.yul\":1989:1996   */\n      dup8\n        /* \"#utility.yul\":1985:2008   */\n      sub\n        /* \"#utility.yul\":1981:2013   */\n      slt\n        /* \"#utility.yul\":1978:2097   */\n      iszero\n      tag_65\n      jumpi\n        /* \"#utility.yul\":2016:2095   */\n      tag_66\n      tag_62\n      jump\t// in\n    tag_66:\n        /* \"#utility.yul\":1978:2097   */\n    tag_65:\n        /* \"#utility.yul\":2136:2137   */\n      0x00\n        /* \"#utility.yul\":2161:2214   */\n      tag_67\n        /* \"#utility.yul\":2206:2213   */\n      dup8\n        /* \"#utility.yul\":2197:2203   */\n      dup3\n        /* \"#utility.yul\":2186:2195   */\n      dup9\n        /* \"#utility.yul\":2182:2204   */\n      add\n        /* \"#utility.yul\":2161:2214   */\n      tag_55\n      jump\t// in\n    tag_67:\n        /* \"#utility.yul\":2151:2214   */\n      swap5\n      pop\n        /* \"#utility.yul\":2107:2224   */\n      pop\n        /* \"#utility.yul\":2291:2293   */\n      0x20\n        /* \"#utility.yul\":2280:2289   */\n      dup6\n        /* \"#utility.yul\":2276:2294   */\n      add\n        /* \"#utility.yul\":2263:2295   */\n      calldataload\n        /* \"#utility.yul\":2322:2340   */\n      0xffffffffffffffff\n        /* \"#utility.yul\":2314:2320   */\n      dup2\n        /* \"#utility.yul\":2311:2341   */\n      gt\n        /* \"#utility.yul\":2308:2425   */\n      iszero\n      tag_68\n      jumpi\n        /* \"#utility.yul\":2344:2423   */\n      tag_69\n      tag_70\n      jump\t// in\n    tag_69:\n        /* \"#utility.yul\":2308:2425   */\n    tag_68:\n        /* \"#utility.yul\":2457:2522   */\n      tag_71\n        /* \"#utility.yul\":2514:2521   */\n      dup8\n        /* \"#utility.yul\":2505:2511   */\n      dup3\n        /* \"#utility.yul\":2494:2503   */\n      dup9\n        /* \"#utility.yul\":2490:2512   */\n      add\n        /* \"#utility.yul\":2457:2522   */\n      tag_39\n      jump\t// in\n    tag_71:\n        /* \"#utility.yul\":2439:2522   */\n      swap4\n      pop\n      swap4\n      pop\n        /* \"#utility.yul\":2234:2532   */\n      pop\n        /* \"#utility.yul\":2599:2601   */\n      0x40\n        /* \"#utility.yul\":2588:2597   */\n      dup6\n        /* \"#utility.yul\":2584:2602   */\n      add\n        /* \"#utility.yul\":2571:2603   */\n      calldataload\n        /* \"#utility.yul\":2630:2648   */\n      0xffffffffffffffff\n        /* \"#utility.yul\":2622:2628   */\n      dup2\n        /* \"#utility.yul\":2619:2649   */\n      gt\n        /* \"#utility.yul\":2616:2733   */\n      iszero\n      tag_72\n      jumpi\n        /* \"#utility.yul\":2652:2731   */\n      tag_73\n      tag_70\n      jump\t// in\n    tag_73:\n        /* \"#utility.yul\":2616:2733   */\n    tag_72:\n        /* \"#utility.yul\":2757:2820   */\n      tag_74\n        /* \"#utility.yul\":2812:2819   */\n      dup8\n        /* \"#utility.yul\":2803:2809   */\n      dup3\n        /* \"#utility.yul\":2792:2801   */\n      dup9\n        /* \"#utility.yul\":2788:2810   */\n      add\n        /* \"#utility.yul\":2757:2820   */\n      tag_50\n      jump\t// in\n    tag_74:\n        /* \"#utility.yul\":2747:2820   */\n      swap2\n      pop\n        /* \"#utility.yul\":2542:2830   */\n      pop\n        /* \"#utility.yul\":1838:2837   */\n      swap3\n      swap6\n      swap2\n      swap5\n      pop\n      swap3\n      pop\n      jump\t// out\n        /* \"#utility.yul\":2843:3207   */\n    tag_75:\n        /* \"#utility.yul\":2931:2934   */\n      0x00\n        /* \"#utility.yul\":2959:2998   */\n      tag_77\n        /* \"#utility.yul\":2992:2997   */\n      dup3\n        /* \"#utility.yul\":2959:2998   */\n      tag_78\n      jump\t// in\n    tag_77:\n        /* \"#utility.yul\":3014:3085   */\n      tag_79\n        /* \"#utility.yul\":3078:3084   */\n      dup2\n        /* \"#utility.yul\":3073:3076   */\n      dup6\n        /* \"#utility.yul\":3014:3085   */\n      tag_80\n      jump\t// in\n    tag_79:\n        /* \"#utility.yul\":3007:3085   */\n      swap4\n      pop\n        /* \"#utility.yul\":3094:3146   */\n      tag_81\n        /* \"#utility.yul\":3139:3145   */\n      dup2\n        /* \"#utility.yul\":3134:3137   */\n      dup6\n        /* \"#utility.yul\":3127:3131   */\n      0x20\n        /* \"#utility.yul\":3120:3125   */\n      dup7\n        /* \"#utility.yul\":3116:3132   */\n      add\n        /* \"#utility.yul\":3094:3146   */\n      tag_82\n      jump\t// in\n    tag_81:\n        /* \"#utility.yul\":3171:3200   */\n      tag_83\n        /* \"#utility.yul\":3193:3199   */\n      dup2\n        /* \"#utility.yul\":3171:3200   */\n      tag_84\n      jump\t// in\n    tag_83:\n        /* \"#utility.yul\":3166:3169   */\n      dup5\n        /* \"#utility.yul\":3162:3201   */\n      add\n        /* \"#utility.yul\":3155:3201   */\n      swap2\n      pop\n        /* \"#utility.yul\":2935:3207   */\n      pop\n        /* \"#utility.yul\":2843:3207   */\n      swap3\n      swap2\n      pop\n      pop\n      jump\t// out\n        /* \"#utility.yul\":3213:3727   */\n    tag_10:\n        /* \"#utility.yul\":3374:3378   */\n      0x00\n        /* \"#utility.yul\":3412:3414   */\n      0x40\n        /* \"#utility.yul\":3401:3410   */\n      dup3\n        /* \"#utility.yul\":3397:3415   */\n      add\n        /* \"#utility.yul\":3389:3415   */\n      swap1\n      pop\n        /* \"#utility.yul\":3461:3470   */\n      dup2\n        /* \"#utility.yul\":3455:3459   */\n      dup2\n        /* \"#utility.yul\":3451:3471   */\n      sub\n        /* \"#utility.yul\":3447:3448   */\n      0x00\n        /* \"#utility.yul\":3436:3445   */\n      dup4\n        /* \"#utility.yul\":3432:3449   */\n      add\n        /* \"#utility.yul\":3425:3472   */\n      mstore\n        /* \"#utility.yul\":3489:3567   */\n      tag_86\n        /* \"#utility.yul\":3562:3566   */\n      dup2\n        /* \"#utility.yul\":3553:3559   */\n      dup6\n        /* \"#utility.yul\":3489:3567   */\n      tag_75\n      jump\t// in\n    tag_86:\n        /* \"#utility.yul\":3481:3567   */\n      swap1\n      pop\n        /* \"#utility.yul\":3614:3623   */\n      dup2\n        /* \"#utility.yul\":3608:3612   */\n      dup2\n        /* \"#utility.yul\":3604:3624   */\n      sub\n        /* \"#utility.yul\":3599:3601   */\n      0x20\n        /* \"#utility.yul\":3588:3597   */\n      dup4\n        /* \"#utility.yul\":3584:3602   */\n      add\n        /* \"#utility.yul\":3577:3625   */\n      mstore\n        /* \"#utility.yul\":3642:3720   */\n      tag_87\n        /* \"#utility.yul\":3715:3719   */\n      dup2\n        /* \"#utility.yul\":3706:3712   */\n      dup5\n        /* \"#utility.yul\":3642:3720   */\n      tag_75\n      jump\t// in\n    tag_87:\n        /* \"#utility.yul\":3634:3720   */\n      swap1\n      pop\n        /* \"#utility.yul\":3213:3727   */\n      swap4\n      swap3\n      pop\n      pop\n      pop\n      jump\t// out\n        /* \"#utility.yul\":3733:3862   */\n    tag_33:\n        /* \"#utility.yul\":3767:3773   */\n      0x00\n        /* \"#utility.yul\":3794:3814   */\n      tag_89\n      tag_90\n      jump\t// in\n    tag_89:\n        /* \"#utility.yul\":3784:3814   */\n      swap1\n      pop\n        /* \"#utility.yul\":3823:3856   */\n      tag_91\n        /* \"#utility.yul\":3851:3855   */\n      dup3\n        /* \"#utility.yul\":3843:3849   */\n      dup3\n        /* \"#utility.yul\":3823:3856   */\n      tag_92\n      jump\t// in\n    tag_91:\n        /* \"#utility.yul\":3733:3862   */\n      swap2\n      swap1\n      pop\n      jump\t// out\n        /* \"#utility.yul\":3868:3943   */\n    tag_90:\n        /* \"#utility.yul\":3901:3907   */\n      0x00\n        /* \"#utility.yul\":3934:3936   */\n      0x40\n        /* \"#utility.yul\":3928:3937   */\n      mload\n        /* \"#utility.yul\":3918:3937   */\n      swap1\n      pop\n        /* \"#utility.yul\":3868:3943   */\n      swap1\n      jump\t// out\n        /* \"#utility.yul\":3949:4257   */\n    tag_32:\n        /* \"#utility.yul\":4011:4015   */\n      0x00\n        /* \"#utility.yul\":4101:4119   */\n      0xffffffffffffffff\n        /* \"#utility.yul\":4093:4099   */\n      dup3\n        /* \"#utility.yul\":4090:4120   */\n      gt\n        /* \"#utility.yul\":4087:4143   */\n      iszero\n      tag_95\n      jumpi\n        /* \"#utility.yul\":4123:4141   */\n      tag_96\n      tag_97\n      jump\t// in\n    tag_96:\n        /* \"#utility.yul\":4087:4143   */\n    tag_95:\n        /* \"#utility.yul\":4161:4190   */\n      tag_98\n        /* \"#utility.yul\":4183:4189   */\n      dup3\n        /* \"#utility.yul\":4161:4190   */\n      tag_84\n      jump\t// in\n    tag_98:\n        /* \"#utility.yul\":4153:4190   */\n      swap1\n      pop\n        /* \"#utility.yul\":4245:4249   */\n      0x20\n        /* \"#utility.yul\":4239:4243   */\n      dup2\n        /* \"#utility.yul\":4235:4250   */\n      add\n        /* \"#utility.yul\":4227:4250   */\n      swap1\n      pop\n        /* \"#utility.yul\":3949:4257   */\n      swap2\n      swap1\n      pop\n      jump\t// out\n        /* \"#utility.yul\":4263:4362   */\n    tag_78:\n        /* \"#utility.yul\":4315:4321   */\n      0x00\n        /* \"#utility.yul\":4349:4354   */\n      dup2\n        /* \"#utility.yul\":4343:4355   */\n      mload\n        /* \"#utility.yul\":4333:4355   */\n      swap1\n      pop\n        /* \"#utility.yul\":4263:4362   */\n      swap2\n      swap1\n      pop\n      jump\t// out\n        /* \"#utility.yul\":4368:4537   */\n    tag_80:\n        /* \"#utility.yul\":4452:4463   */\n      0x00\n        /* \"#utility.yul\":4486:4492   */\n      dup3\n        /* \"#utility.yul\":4481:4484   */\n      dup3\n        /* \"#utility.yul\":4474:4493   */\n      mstore\n        /* \"#utility.yul\":4526:4530   */\n      0x20\n        /* \"#utility.yul\":4521:4524   */\n      dup3\n        /* \"#utility.yul\":4517:4531   */\n      add\n        /* \"#utility.yul\":4502:4531   */\n      swap1\n      pop\n        /* \"#utility.yul\":4368:4537   */\n      swap3\n      swap2\n      pop\n      pop\n      jump\t// out\n        /* \"#utility.yul\":4543:4620   */\n    tag_101:\n        /* \"#utility.yul\":4580:4587   */\n      0x00\n        /* \"#utility.yul\":4609:4614   */\n      dup2\n        /* \"#utility.yul\":4598:4614   */\n      swap1\n      pop\n        /* \"#utility.yul\":4543:4620   */\n      swap2\n      swap1\n      pop\n      jump\t// out\n        /* \"#utility.yul\":4626:4780   */\n    tag_38:\n        /* \"#utility.yul\":4710:4716   */\n      dup3\n        /* \"#utility.yul\":4705:4708   */\n      dup2\n        /* \"#utility.yul\":4700:4703   */\n      dup4\n        /* \"#utility.yul\":4687:4717   */\n      calldatacopy\n        /* \"#utility.yul\":4772:4773   */\n      0x00\n        /* \"#utility.yul\":4763:4769   */\n      dup4\n        /* \"#utility.yul\":4758:4761   */\n      dup4\n        /* \"#utility.yul\":4754:4770   */\n      add\n        /* \"#utility.yul\":4747:4774   */\n      mstore\n        /* \"#utility.yul\":4626:4780   */\n      pop\n      pop\n      pop\n      jump\t// out\n        /* \"#utility.yul\":4786:5093   */\n    tag_82:\n        /* \"#utility.yul\":4854:4855   */\n      0x00\n        /* \"#utility.yul\":4864:4977   */\n    tag_105:\n        /* \"#utility.yul\":4878:4884   */\n      dup4\n        /* \"#utility.yul\":4875:4876   */\n      dup2\n        /* \"#utility.yul\":4872:4885   */\n      lt\n        /* \"#utility.yul\":4864:4977   */\n      iszero\n      tag_107\n      jumpi\n        /* \"#utility.yul\":4963:4964   */\n      dup1\n        /* \"#utility.yul\":4958:4961   */\n      dup3\n        /* \"#utility.yul\":4954:4965   */\n      add\n        /* \"#utility.yul\":4948:4966   */\n      mload\n        /* \"#utility.yul\":4944:4945   */\n      dup2\n        /* \"#utility.yul\":4939:4942   */\n      dup5\n        /* \"#utility.yul\":4935:4946   */\n      add\n        /* \"#utility.yul\":4928:4967   */\n      mstore\n        /* \"#utility.yul\":4900:4902   */\n      0x20\n        /* \"#utility.yul\":4897:4898   */\n      dup2\n        /* \"#utility.yul\":4893:4903   */\n      add\n        /* \"#utility.yul\":4888:4903   */\n      swap1\n      pop\n        /* \"#utility.yul\":4864:4977   */\n      jump(tag_105)\n    tag_107:\n        /* \"#utility.yul\":4995:5001   */\n      dup4\n        /* \"#utility.yul\":4992:4993   */\n      dup2\n        /* \"#utility.yul\":4989:5002   */\n      gt\n        /* \"#utility.yul\":4986:5087   */\n      iszero\n      tag_108\n      jumpi\n        /* \"#utility.yul\":5075:5076   */\n      0x00\n        /* \"#utility.yul\":5066:5072   */\n      dup5\n        /* \"#utility.yul\":5061:5064   */\n      dup5\n        /* \"#utility.yul\":5057:5073   */\n      add\n        /* \"#utility.yul\":5050:5077   */\n      mstore\n        /* \"#utility.yul\":4986:5087   */\n    tag_108:\n        /* \"#utility.yul\":4835:5093   */\n      pop\n        /* \"#utility.yul\":4786:5093   */\n      pop\n      pop\n      pop\n      jump\t// out\n        /* \"#utility.yul\":5099:5419   */\n    tag_16:\n        /* \"#utility.yul\":5143:5149   */\n      0x00\n        /* \"#utility.yul\":5180:5181   */\n      0x02\n        /* \"#utility.yul\":5174:5178   */\n      dup3\n        /* \"#utility.yul\":5170:5182   */\n      div\n        /* \"#utility.yul\":5160:5182   */\n      swap1\n      pop\n        /* \"#utility.yul\":5227:5228   */\n      0x01\n        /* \"#utility.yul\":5221:5225   */\n      dup3\n        /* \"#utility.yul\":5217:5229   */\n      and\n        /* \"#utility.yul\":5248:5266   */\n      dup1\n        /* \"#utility.yul\":5238:5319   */\n      tag_110\n      jumpi\n        /* \"#utility.yul\":5304:5308   */\n      0x7f\n        /* \"#utility.yul\":5296:5302   */\n      dup3\n        /* \"#utility.yul\":5292:5309   */\n      and\n        /* \"#utility.yul\":5282:5309   */\n      swap2\n      pop\n        /* \"#utility.yul\":5238:5319   */\n    tag_110:\n        /* \"#utility.yul\":5366:5368   */\n      0x20\n        /* \"#utility.yul\":5358:5364   */\n      dup3\n        /* \"#utility.yul\":5355:5369   */\n      lt\n        /* \"#utility.yul\":5335:5353   */\n      dup2\n        /* \"#utility.yul\":5332:5370   */\n      eq\n        /* \"#utility.yul\":5329:5413   */\n      iszero\n      tag_111\n      jumpi\n        /* \"#utility.yul\":5385:5403   */\n      tag_112\n      tag_113\n      jump\t// in\n    tag_112:\n        /* \"#utility.yul\":5329:5413   */\n    tag_111:\n        /* \"#utility.yul\":5150:5419   */\n      pop\n        /* \"#utility.yul\":5099:5419   */\n      swap2\n      swap1\n      pop\n      jump\t// out\n        /* \"#utility.yul\":5425:5706   */\n    tag_92:\n        /* \"#utility.yul\":5508:5535   */\n      tag_115\n        /* \"#utility.yul\":5530:5534   */\n      dup3\n        /* \"#utility.yul\":5508:5535   */\n      tag_84\n      jump\t// in\n    tag_115:\n        /* \"#utility.yul\":5500:5506   */\n      dup2\n        /* \"#utility.yul\":5496:5536   */\n      add\n        /* \"#utility.yul\":5638:5644   */\n      dup2\n        /* \"#utility.yul\":5626:5636   */\n      dup2\n        /* \"#utility.yul\":5623:5645   */\n      lt\n        /* \"#utility.yul\":5602:5620   */\n      0xffffffffffffffff\n        /* \"#utility.yul\":5590:5600   */\n      dup3\n        /* \"#utility.yul\":5587:5621   */\n      gt\n        /* \"#utility.yul\":5584:5646   */\n      or\n        /* \"#utility.yul\":5581:5669   */\n      iszero\n      tag_116\n      jumpi\n        /* \"#utility.yul\":5649:5667   */\n      tag_117\n      tag_97\n      jump\t// in\n    tag_117:\n        /* \"#utility.yul\":5581:5669   */\n    tag_116:\n        /* \"#utility.yul\":5689:5699   */\n      dup1\n        /* \"#utility.yul\":5685:5687   */\n      0x40\n        /* \"#utility.yul\":5678:5700   */\n      mstore\n        /* \"#utility.yul\":5468:5706   */\n      pop\n        /* \"#utility.yul\":5425:5706   */\n      pop\n      pop\n      jump\t// out\n        /* \"#utility.yul\":5712:5892   */\n    tag_113:\n        /* \"#utility.yul\":5760:5837   */\n      0x4e487b7100000000000000000000000000000000000000000000000000000000\n        /* \"#utility.yul\":5757:5758   */\n      0x00\n        /* \"#utility.yul\":5750:5838   */\n      mstore\n        /* \"#utility.yul\":5857:5861   */\n      0x22\n        /* \"#utility.yul\":5854:5855   */\n      0x04\n        /* \"#utility.yul\":5847:5862   */\n      mstore\n        /* \"#utility.yul\":5881:5885   */\n      0x24\n        /* \"#utility.yul\":5878:5879   */\n      0x00\n        /* \"#utility.yul\":5871:5886   */\n      revert\n        /* \"#utility.yul\":5898:6078   */\n    tag_97:\n        /* \"#utility.yul\":5946:6023   */\n      0x4e487b7100000000000000000000000000000000000000000000000000000000\n        /* \"#utility.yul\":5943:5944   */\n      0x00\n        /* \"#utility.yul\":5936:6024   */\n      mstore\n        /* \"#utility.yul\":6043:6047   */\n      0x41\n        /* \"#utility.yul\":6040:6041   */\n      0x04\n        /* \"#utility.yul\":6033:6048   */\n      mstore\n        /* \"#utility.yul\":6067:6071   */\n      0x24\n        /* \"#utility.yul\":6064:6065   */\n      0x00\n        /* \"#utility.yul\":6057:6072   */\n      revert\n        /* \"#utility.yul\":6084:6201   */\n    tag_46:\n        /* \"#utility.yul\":6193:6194   */\n      0x00\n        /* \"#utility.yul\":6190:6191   */\n      dup1\n        /* \"#utility.yul\":6183:6195   */\n      revert\n        /* \"#utility.yul\":6207:6324   */\n    tag_43:\n        /* \"#utility.yul\":6316:6317   */\n      0x00\n        /* \"#utility.yul\":6313:6314   */\n      dup1\n        /* \"#utility.yul\":6306:6318   */\n      revert\n        /* \"#utility.yul\":6330:6447   */\n    tag_49:\n        /* \"#utility.yul\":6439:6440   */\n      0x00\n        /* \"#utility.yul\":6436:6437   */\n      dup1\n        /* \"#utility.yul\":6429:6441   */\n      revert\n        /* \"#utility.yul\":6453:6570   */\n    tag_36:\n        /* \"#utility.yul\":6562:6563   */\n      0x00\n        /* \"#utility.yul\":6559:6560   */\n      dup1\n        /* \"#utility.yul\":6552:6564   */\n      revert\n        /* \"#utility.yul\":6576:6693   */\n    tag_70:\n        /* \"#utility.yul\":6685:6686   */\n      0x00\n        /* \"#utility.yul\":6682:6683   */\n      dup1\n        /* \"#utility.yul\":6675:6687   */\n      revert\n        /* \"#utility.yul\":6699:6816   */\n    tag_62:\n        /* \"#utility.yul\":6808:6809   */\n      0x00\n        /* \"#utility.yul\":6805:6806   */\n      dup1\n        /* \"#utility.yul\":6798:6810   */\n      revert\n        /* \"#utility.yul\":6822:6924   */\n    tag_84:\n        /* \"#utility.yul\":6863:6869   */\n      0x00\n        /* \"#utility.yul\":6914:6916   */\n      0x1f\n        /* \"#utility.yul\":6910:6917   */\n      not\n        /* \"#utility.yul\":6905:6907   */\n      0x1f\n        /* \"#utility.yul\":6898:6903   */\n      dup4\n        /* \"#utility.yul\":6894:6908   */\n      add\n        /* \"#utility.yul\":6890:6918   */\n      and\n        /* \"#utility.yul\":6880:6918   */\n      swap1\n      pop\n        /* \"#utility.yul\":6822:6924   */\n      swap2\n      swap1\n      pop\n      jump\t// out\n        /* \"#utility.yul\":6930:7052   */\n    tag_58:\n        /* \"#utility.yul\":7003:7027   */\n      tag_128\n        /* \"#utility.yul\":7021:7026   */\n      dup2\n        /* \"#utility.yul\":7003:7027   */\n      tag_101\n      jump\t// in\n    tag_128:\n        /* \"#utility.yul\":6996:7001   */\n      dup2\n        /* \"#utility.yul\":6993:7028   */\n      eq\n        /* \"#utility.yul\":6983:7046   */\n      tag_129\n      jumpi\n        /* \"#utility.yul\":7042:7043   */\n      0x00\n        /* \"#utility.yul\":7039:7040   */\n      dup1\n        /* \"#utility.yul\":7032:7044   */\n      revert\n        /* \"#utility.yul\":6983:7046   */\n    tag_129:\n        /* \"#utility.yul\":6930:7052   */\n      pop\n      jump\t// out\n\n    auxdata: 0xa26469706673582212205ecd7bc78ca3697d0df8079121477c7980228d8d19302f8f7c3bd018766ebcd764736f6c63430008070033\n}\n",
				"bytecode": {
					"linkReferences": {},
					"object": "608060405234801561001057600080fd5b506105c5806100206000396000f3fe608060405234801561001057600080fd5b50600436106100365760003560e01c8063404ebf6c1461003b578063f40f48c91461006c575b600080fd5b6100556004803603810190610050919061029d565b610088565b604051610063929190610393565b60405180910390f35b610086600480360381019061008191906102ca565b6101bc565b005b60006020528060005260406000206000915090508060000180546100ab90610488565b80601f01602080910402602001604051908101604052809291908181526020018280546100d790610488565b80156101245780601f106100f957610100808354040283529160200191610124565b820191906000526020600020905b81548152906001019060200180831161010757829003601f168201915b50505050509080600101805461013990610488565b80601f016020809104026020016040519081016040528092919081815260200182805461016590610488565b80156101b25780601f10610187576101008083540402835291602001916101b2565b820191906000526020600020905b81548152906001019060200180831161019557829003601f168201915b5050505050905082565b50505050565b60006101d56101d0846103ef565b6103ca565b9050828152602081018484840111156101f1576101f0610558565b5b6101fc848285610446565b509392505050565b60008083601f84011261021a5761021961054e565b5b8235905067ffffffffffffffff81111561023757610236610549565b5b60208301915083600182028301111561025357610252610553565b5b9250929050565b600082601f83011261026f5761026e61054e565b5b813561027f8482602086016101c2565b91505092915050565b60008135905061029781610578565b92915050565b6000602082840312156102b3576102b2610562565b5b60006102c184828501610288565b91505092915050565b600080600080606085870312156102e4576102e3610562565b5b60006102f287828801610288565b945050602085013567ffffffffffffffff8111156103135761031261055d565b5b61031f87828801610204565b9350935050604085013567ffffffffffffffff8111156103425761034161055d565b5b61034e8782880161025a565b91505092959194509250565b600061036582610420565b61036f818561042b565b935061037f818560208601610455565b61038881610567565b840191505092915050565b600060408201905081810360008301526103ad818561035a565b905081810360208301526103c1818461035a565b90509392505050565b60006103d46103e5565b90506103e082826104ba565b919050565b6000604051905090565b600067ffffffffffffffff82111561040a5761040961051a565b5b61041382610567565b9050602081019050919050565b600081519050919050565b600082825260208201905092915050565b6000819050919050565b82818337600083830152505050565b60005b83811015610473578082015181840152602081019050610458565b83811115610482576000848401525b50505050565b600060028204905060018216806104a057607f821691505b602082108114156104b4576104b36104eb565b5b50919050565b6104c382610567565b810181811067ffffffffffffffff821117156104e2576104e161051a565b5b80604052505050565b7f4e487b7100000000000000000000000000000000000000000000000000000000600052602260045260246000fd5b7f4e487b7100000000000000000000000000000000000000000000000000000000600052604160045260246000fd5b600080fd5b600080fd5b600080fd5b600080fd5b600080fd5b600080fd5b6000601f19601f8301169050919050565b6105818161043c565b811461058c57600080fd5b5056fea26469706673582212205ecd7bc78ca3697d0df8079121477c7980228d8d19302f8f7c3bd018766ebcd764736f6c63430008070033",
					"opcodes": "PUSH1 0x80 PUSH1 0x40 MSTORE CALLVALUE DUP1 ISZERO PUSH2 0x10 JUMPI PUSH1 0x0 DUP1 REVERT JUMPDEST POP PUSH2 0x5C5 DUP1 PUSH2 0x20 PUSH1 0x0 CODECOPY PUSH1 0x0 RETURN INVALID PUSH1 0x80 PUSH1 0x40 MSTORE CALLVALUE DUP1 ISZERO PUSH2 0x10 JUMPI PUSH1 0x0 DUP1 REVERT JUMPDEST POP PUSH1 0x4 CALLDATASIZE LT PUSH2 0x36 JUMPI PUSH1 0x0 CALLDATALOAD PUSH1 0xE0 SHR DUP1 PUSH4 0x404EBF6C EQ PUSH2 0x3B JUMPI DUP1 PUSH4 0xF40F48C9 EQ PUSH2 0x6C JUMPI JUMPDEST PUSH1 0x0 DUP1 REVERT JUMPDEST PUSH2 0x55 PUSH1 0x4 DUP1 CALLDATASIZE SUB DUP2 ADD SWAP1 PUSH2 0x50 SWAP2 SWAP1 PUSH2 0x29D JUMP JUMPDEST PUSH2 0x88 JUMP JUMPDEST PUSH1 0x40 MLOAD PUSH2 0x63 SWAP3 SWAP2 SWAP1 PUSH2 0x393 JUMP JUMPDEST PUSH1 0x40 MLOAD DUP1 SWAP2 SUB SWAP1 RETURN JUMPDEST PUSH2 0x86 PUSH1 0x4 DUP1 CALLDATASIZE SUB DUP2 ADD SWAP1 PUSH2 0x81 SWAP2 SWAP1 PUSH2 0x2CA JUMP JUMPDEST PUSH2 0x1BC JUMP JUMPDEST STOP JUMPDEST PUSH1 0x0 PUSH1 0x20 MSTORE DUP1 PUSH1 0x0 MSTORE PUSH1 0x40 PUSH1 0x0 KECCAK256 PUSH1 0x0 SWAP2 POP SWAP1 POP DUP1 PUSH1 0x0 ADD DUP1 SLOAD PUSH2 0xAB SWAP1 PUSH2 0x488 JUMP JUMPDEST DUP1 PUSH1 0x1F ADD PUSH1 0x20 DUP1 SWAP2 DIV MUL PUSH1 0x20 ADD PUSH1 0x40 MLOAD SWAP1 DUP2 ADD PUSH1 0x40 MSTORE DUP1 SWAP3 SWAP2 SWAP1 DUP2 DUP2 MSTORE PUSH1 0x20 ADD DUP3 DUP1 SLOAD PUSH2 0xD7 SWAP1 PUSH2 0x488 JUMP JUMPDEST DUP1 ISZERO PUSH2 0x124 JUMPI DUP1 PUSH1 0x1F LT PUSH2 0xF9 JUMPI PUSH2 0x100 DUP1 DUP4 SLOAD DIV MUL DUP4 MSTORE SWAP2 PUSH1 0x20 ADD SWAP2 PUSH2 0x124 JUMP JUMPDEST DUP3 ADD SWAP2 SWAP1 PUSH1 0x0 MSTORE PUSH1 0x20 PUSH1 0x0 KECCAK256 SWAP1 JUMPDEST DUP2 SLOAD DUP2 MSTORE SWAP1 PUSH1 0x1 ADD SWAP1 PUSH1 0x20 ADD DUP1 DUP4 GT PUSH2 0x107 JUMPI DUP3 SWAP1 SUB PUSH1 0x1F AND DUP3 ADD SWAP2 JUMPDEST POP POP POP POP POP SWAP1 DUP1 PUSH1 0x1 ADD DUP1 SLOAD PUSH2 0x139 SWAP1 PUSH2 0x488 JUMP JUMPDEST DUP1 PUSH1 0x1F ADD PUSH1 0x20 DUP1 SWAP2 DIV MUL PUSH1 0x20 ADD PUSH1 0x40 MLOAD SWAP1 DUP2 ADD PUSH1 0x40 MSTORE DUP1 SWAP3 SWAP2 SWAP1 DUP2 DUP2 MSTORE PUSH1 0x20 ADD DUP3 DUP1 SLOAD PUSH2 0x165 SWAP1 PUSH2 0x488 JUMP JUMPDEST DUP1 ISZERO PUSH2 0x1B2 JUMPI DUP1 PUSH1 0x1F LT PUSH2 0x187 JUMPI PUSH2 0x100 DUP1 DUP4 SLOAD DIV MUL DUP4 MSTORE SWAP2 PUSH1 0x20 ADD SWAP2 PUSH2 0x1B2 JUMP JUMPDEST DUP3 ADD SWAP2 SWAP1 PUSH1 0x0 MSTORE PUSH1 0x20 PUSH1 0x0 KECCAK256 SWAP1 JUMPDEST DUP2 SLOAD DUP2 MSTORE SWAP1 PUSH1 0x1 ADD SWAP1 PUSH1 0x20 ADD DUP1 DUP4 GT PUSH2 0x195 JUMPI DUP3 SWAP1 SUB PUSH1 0x1F AND DUP3 ADD SWAP2 JUMPDEST POP POP POP POP POP SWAP1 POP DUP3 JUMP JUMPDEST POP POP POP POP JUMP JUMPDEST PUSH1 0x0 PUSH2 0x1D5 PUSH2 0x1D0 DUP5 PUSH2 0x3EF JUMP JUMPDEST PUSH2 0x3CA JUMP JUMPDEST SWAP1 POP DUP3 DUP2 MSTORE PUSH1 0x20 DUP2 ADD DUP5 DUP5 DUP5 ADD GT ISZERO PUSH2 0x1F1 JUMPI PUSH2 0x1F0 PUSH2 0x558 JUMP JUMPDEST JUMPDEST PUSH2 0x1FC DUP5 DUP3 DUP6 PUSH2 0x446 JUMP JUMPDEST POP SWAP4 SWAP3 POP POP POP JUMP JUMPDEST PUSH1 0x0 DUP1 DUP4 PUSH1 0x1F DUP5 ADD SLT PUSH2 0x21A JUMPI PUSH2 0x219 PUSH2 0x54E JUMP JUMPDEST JUMPDEST DUP3 CALLDATALOAD SWAP1 POP PUSH8 0xFFFFFFFFFFFFFFFF DUP2 GT ISZERO PUSH2 0x237 JUMPI PUSH2 0x236 PUSH2 0x549 JUMP JUMPDEST JUMPDEST PUSH1 0x20 DUP4 ADD SWAP2 POP DUP4 PUSH1 0x1 DUP3 MUL DUP4 ADD GT ISZERO PUSH2 0x253 JUMPI PUSH2 0x252 PUSH2 0x553 JUMP JUMPDEST JUMPDEST SWAP3 POP SWAP3 SWAP1 POP JUMP JUMPDEST PUSH1 0x0 DUP3 PUSH1 0x1F DUP4 ADD SLT PUSH2 0x26F JUMPI PUSH2 0x26E PUSH2 0x54E JUMP JUMPDEST JUMPDEST DUP2 CALLDATALOAD PUSH2 0x27F DUP5 DUP3 PUSH1 0x20 DUP7 ADD PUSH2 0x1C2 JUMP JUMPDEST SWAP2 POP POP SWAP3 SWAP2 POP POP JUMP JUMPDEST PUSH1 0x0 DUP2 CALLDATALOAD SWAP1 POP PUSH2 0x297 DUP2 PUSH2 0x578 JUMP JUMPDEST SWAP3 SWAP2 POP POP JUMP JUMPDEST PUSH1 0x0 PUSH1 0x20 DUP3 DUP5 SUB SLT ISZERO PUSH2 0x2B3 JUMPI PUSH2 0x2B2 PUSH2 0x562 JUMP JUMPDEST JUMPDEST PUSH1 0x0 PUSH2 0x2C1 DUP5 DUP3 DUP6 ADD PUSH2 0x288 JUMP JUMPDEST SWAP2 POP POP SWAP3 SWAP2 POP POP JUMP JUMPDEST PUSH1 0x0 DUP1 PUSH1 0x0 DUP1 PUSH1 0x60 DUP6 DUP8 SUB SLT ISZERO PUSH2 0x2E4 JUMPI PUSH2 0x2E3 PUSH2 0x562 JUMP JUMPDEST JUMPDEST PUSH1 0x0 PUSH2 0x2F2 DUP8 DUP3 DUP9 ADD PUSH2 0x288 JUMP JUMPDEST SWAP5 POP POP PUSH1 0x20 DUP6 ADD CALLDATALOAD PUSH8 0xFFFFFFFFFFFFFFFF DUP2 GT ISZERO PUSH2 0x313 JUMPI PUSH2 0x312 PUSH2 0x55D JUMP JUMPDEST JUMPDEST PUSH2 0x31F DUP8 DUP3 DUP9 ADD PUSH2 0x204 JUMP JUMPDEST SWAP4 POP SWAP4 POP POP PUSH1 0x40 DUP6 ADD CALLDATALOAD PUSH8 0xFFFFFFFFFFFFFFFF DUP2 GT ISZERO PUSH2 0x342 JUMPI PUSH2 0x341 PUSH2 0x55D JUMP JUMPDEST JUMPDEST PUSH2 0x34E DUP8 DUP3 DUP9 ADD PUSH2 0x25A JUMP JUMPDEST SWAP2 POP POP SWAP3 SWAP6 SWAP2 SWAP5 POP SWAP3 POP JUMP JUMPDEST PUSH1 0x0 PUSH2 0x365 DUP3 PUSH2 0x420 JUMP JUMPDEST PUSH2 0x36F DUP2 DUP6 PUSH2 0x42B JUMP JUMPDEST SWAP4 POP PUSH2 0x37F DUP2 DUP6 PUSH1 0x20 DUP7 ADD PUSH2 0x455 JUMP JUMPDEST PUSH2 0x388 DUP2 PUSH2 0x567 JUMP JUMPDEST DUP5 ADD SWAP2 POP POP SWAP3 SWAP2 POP POP JUMP JUMPDEST PUSH1 0x0 PUSH1 0x40 DUP3 ADD SWAP1 POP DUP2 DUP2 SUB PUSH1 0x0 DUP4 ADD MSTORE PUSH2 0x3AD DUP2 DUP6 PUSH2 0x35A JUMP JUMPDEST SWAP1 POP DUP2 DUP2 SUB PUSH1 0x20 DUP4 ADD MSTORE PUSH2 0x3C1 DUP2 DUP5 PUSH2 0x35A JUMP JUMPDEST SWAP1 POP SWAP4 SWAP3 POP POP POP JUMP JUMPDEST PUSH1 0x0 PUSH2 0x3D4 PUSH2 0x3E5 JUMP JUMPDEST SWAP1 POP PUSH2 0x3E0 DUP3 DUP3 PUSH2 0x4BA JUMP JUMPDEST SWAP2 SWAP1 POP JUMP JUMPDEST PUSH1 0x0 PUSH1 0x40 MLOAD SWAP1 POP SWAP1 JUMP JUMPDEST PUSH1 0x0 PUSH8 0xFFFFFFFFFFFFFFFF DUP3 GT ISZERO PUSH2 0x40A JUMPI PUSH2 0x409 PUSH2 0x51A JUMP JUMPDEST JUMPDEST PUSH2 0x413 DUP3 PUSH2 0x567 JUMP JUMPDEST SWAP1 POP PUSH1 0x20 DUP2 ADD SWAP1 POP SWAP2 SWAP1 POP JUMP JUMPDEST PUSH1 0x0 DUP2 MLOAD SWAP1 POP SWAP2 SWAP1 POP JUMP JUMPDEST PUSH1 0x0 DUP3 DUP3 MSTORE PUSH1 0x20 DUP3 ADD SWAP1 POP SWAP3 SWAP2 POP POP JUMP JUMPDEST PUSH1 0x0 DUP2 SWAP1 POP SWAP2 SWAP1 POP JUMP JUMPDEST DUP3 DUP2 DUP4 CALLDATACOPY PUSH1 0x0 DUP4 DUP4 ADD MSTORE POP POP POP JUMP JUMPDEST PUSH1 0x0 JUMPDEST DUP4 DUP2 LT ISZERO PUSH2 0x473 JUMPI DUP1 DUP3 ADD MLOAD DUP2 DUP5 ADD MSTORE PUSH1 0x20 DUP2 ADD SWAP1 POP PUSH2 0x458 JUMP JUMPDEST DUP4 DUP2 GT ISZERO PUSH2 0x482 JUMPI PUSH1 0x0 DUP5 DUP5 ADD MSTORE JUMPDEST POP POP POP POP JUMP JUMPDEST PUSH1 0x0 PUSH1 0x2 DUP3 DIV SWAP1 POP PUSH1 0x1 DUP3 AND DUP1 PUSH2 0x4A0 JUMPI PUSH1 0x7F DUP3 AND SWAP2 POP JUMPDEST PUSH1 0x20 DUP3 LT DUP2 EQ ISZERO PUSH2 0x4B4 JUMPI PUSH2 0x4B3 PUSH2 0x4EB JUMP JUMPDEST JUMPDEST POP SWAP2 SWAP1 POP JUMP JUMPDEST PUSH2 0x4C3 DUP3 PUSH2 0x567 JUMP JUMPDEST DUP2 ADD DUP2 DUP2 LT PUSH8 0xFFFFFFFFFFFFFFFF DUP3 GT OR ISZERO PUSH2 0x4E2 JUMPI PUSH2 0x4E1 PUSH2 0x51A JUMP JUMPDEST JUMPDEST DUP1 PUSH1 0x40 MSTORE POP POP POP JUMP JUMPDEST PUSH32 0x4E487B7100000000000000000000000000000000000000000000000000000000 PUSH1 0x0 MSTORE PUSH1 0x22 PUSH1 0x4 MSTORE PUSH1 0x24 PUSH1 0x0 REVERT JUMPDEST PUSH32 0x4E487B7100000000000000000000000000000000000000000000000000000000 PUSH1 0x0 MSTORE PUSH1 0x41 PUSH1 0x4 MSTORE PUSH1 0x24 PUSH1 0x0 REVERT JUMPDEST PUSH1 0x0 DUP1 REVERT JUMPDEST PUSH1 0x0 DUP1 REVERT JUMPDEST PUSH1 0x0 DUP1 REVERT JUMPDEST PUSH1 0x0 DUP1 REVERT JUMPDEST PUSH1 0x0 DUP1 REVERT JUMPDEST PUSH1 0x0 DUP1 REVERT JUMPDEST PUSH1 0x0 PUSH1 0x1F NOT PUSH1 0x1F DUP4 ADD AND SWAP1 POP SWAP2 SWAP1 POP JUMP JUMPDEST PUSH2 0x581 DUP2 PUSH2 0x43C JUMP JUMPDEST DUP2 EQ PUSH2 0x58C JUMPI PUSH1 0x0 DUP1 REVERT JUMPDEST POP JUMP INVALID LOG2 PUSH5 0x6970667358 0x22 SLT KECCAK256 0x5E 0xCD PUSH28 0xC78CA3697D0DF8079121477C7980228D8D19302F8F7C3BD018766EBC 0xD7 PUSH5 0x736F6C6343 STOP ADDMOD SMOD STOP CALLER "
				},
				"gasEstimates": {
					"creation": {
						"codeDepositCost": "295400",
						"executionCost": "337",
						"totalCost": "295737"
					},
					"external": {
						"addMovie(uint256,string,string)": "infinite",
						"movies(uint256)": "infinite"
					}
				},
				"methodIdentifiers": {
					"addMovie(uint256,string,string)": "f40f48c9",
					"movies(uint256)": "404ebf6c"
				}
			},
			"storageLayout": {
				"storage": [
					{
						"astId": 11,
						"contract": "contracts/11_mapping.sol:LearnMapping",
						"label": "movies",
						"offset": 0,
						"slot": "0",
						"type": "t_mapping(t_uint256,t_struct(Movie)6_storage)"
					}
				],
				"types": {
					"t_mapping(t_uint256,t_struct(Movie)6_storage)": {
						"encoding": "mapping",
						"key": "t_uint256",
						"label": "mapping(uint256 => struct LearnMapping.Movie)",
						"numberOfBytes": "32",
						"value": "t_struct(Movie)6_storage"
					},
					"t_string_storage": {
						"encoding": "bytes",
						"label": "string",
						"numberOfBytes": "32"
					},
					"t_struct(Movie)6_storage": {
						"encoding": "inplace",
						"label": "struct LearnMapping.Movie",
						"members": [
							{
								"astId": 3,
								"contract": "contracts/11_mapping.sol:LearnMapping",
								"label": "title",
								"offset": 0,
								"slot": "0",
								"type": "t_string_storage"
							},
							{
								"astId": 5,
								"contract": "contracts/11_mapping.sol:LearnMapping",
								"label": "director",
								"offset": 0,
								"slot": "1",
								"type": "t_string_storage"
							}
						],
						"numberOfBytes": "64"
					},
					"t_uint256": {
						"encoding": "inplace",
						"label": "uint256",
						"numberOfBytes": "32"
					}
				}
			},
			"userdoc": {
				"kind": "user",
				"methods": {},
				"version": 1
			}
		}
	}
}