{
	"contracts/11_mapping.sol": {
		"LearnMapping": {
			"abi": [
				{
					"inputs": [
						{
							"internalType": "uint256",
							"name": "_id",
							"type": "uint256"
						},
						{
							"internalType": "string",
							"name": "_title",
							"type": "string"
						},
						{
							"internalType": "string",
							"name": "_director",
							"type": "string"
						}
					],
					"name": "addMovie",
					"outputs": [],
					"stateMutability": "nonpayable",
					"type": "function"
				},
				{
					"inputs": [
						{
							"internalType": "uint256",
							"name": "_id",
							"type": "uint256"
						}
					],
					"name": "getMovie",
					"outputs": [
						{
							"components": [
								{
									"internalType": "string",
									"name": "title",
									"type": "string"
								},
								{
									"internalType": "string",
									"name": "director",
									"type": "string"
								}
							],
							"internalType": "struct LearnMapping.Movie",
							"name": "",
							"type": "tuple"
						}
					],
					"stateMutability": "view",
					"type": "function"
				},
				{
					"inputs": [
						{
							"internalType": "uint256",
							"name": "",
							"type": "uint256"
						}
					],
					"name": "movies",
					"outputs": [
						{
							"internalType": "string",
							"name": "title",
							"type": "string"
						},
						{
							"internalType": "string",
							"name": "director",
							"type": "string"
						}
					],
					"stateMutability": "view",
					"type": "function"
				}
			],
			"devdoc": {
				"kind": "dev",
				"methods": {},
				"version": 1
			},
			"evm": {
				"assembly": "    /* \"contracts/11_mapping.sol\":67:457  contract LearnMapping {... */\n  mstore(0x40, 0x80)\n  callvalue\n  dup1\n  iszero\n  tag_1\n  jumpi\n  0x00\n  dup1\n  revert\ntag_1:\n  pop\n  dataSize(sub_0)\n  dup1\n  dataOffset(sub_0)\n  0x00\n  codecopy\n  0x00\n  return\nstop\n\nsub_0: assembly {\n        /* \"contracts/11_mapping.sol\":67:457  contract LearnMapping {... */\n      mstore(0x40, 0x80)\n      callvalue\n      dup1\n      iszero\n      tag_1\n      jumpi\n      0x00\n      dup1\n      revert\n    tag_1:\n      pop\n      jumpi(tag_2, lt(calldatasize, 0x04))\n      shr(0xe0, calldataload(0x00))\n      dup1\n      0x179ffe76\n      eq\n      tag_3\n      jumpi\n      dup1\n      0x404ebf6c\n      eq\n      tag_4\n      jumpi\n      dup1\n      0xf40f48c9\n      eq\n      tag_5\n      jumpi\n    tag_2:\n      0x00\n      dup1\n      revert\n        /* \"contracts/11_mapping.sol\":357:455  function getMovie(uint _id) public view returns (Movie memory) {... */\n    tag_3:\n      tag_6\n      0x04\n      dup1\n      calldatasize\n      sub\n      dup2\n      add\n      swap1\n      tag_7\n      swap2\n      swap1\n      tag_8\n      jump\t// in\n    tag_7:\n      tag_9\n      jump\t// in\n    tag_6:\n      mload(0x40)\n      tag_10\n      swap2\n      swap1\n      tag_11\n      jump\t// in\n    tag_10:\n      mload(0x40)\n      dup1\n      swap2\n      sub\n      swap1\n      return\n        /* \"contracts/11_mapping.sol\":169:205  mapping(uint => Movie) public movies */\n    tag_4:\n      tag_12\n      0x04\n      dup1\n      calldatasize\n      sub\n      dup2\n      add\n      swap1\n      tag_13\n      swap2\n      swap1\n      tag_8\n      jump\t// in\n    tag_13:\n      tag_14\n      jump\t// in\n    tag_12:\n      mload(0x40)\n      tag_15\n      swap3\n      swap2\n      swap1\n      tag_16\n      jump\t// in\n    tag_15:\n      mload(0x40)\n      dup1\n      swap2\n      sub\n      swap1\n      return\n        /* \"contracts/11_mapping.sol\":212:351  function addMovie(uint _id, string memory _title, string calldata _director) public {... */\n    tag_5:\n      tag_17\n      0x04\n      dup1\n      calldatasize\n      sub\n      dup2\n      add\n      swap1\n      tag_18\n      swap2\n      swap1\n      tag_19\n      jump\t// in\n    tag_18:\n      tag_20\n      jump\t// in\n    tag_17:\n      stop\n        /* \"contracts/11_mapping.sol\":357:455  function getMovie(uint _id) public view returns (Movie memory) {... */\n    tag_9:\n        /* \"contracts/11_mapping.sol\":406:418  Movie memory */\n      tag_21\n      tag_22\n      jump\t// in\n    tag_21:\n        /* \"contracts/11_mapping.sol\":437:443  movies */\n      0x00\n        /* \"contracts/11_mapping.sol\":437:448  movies[_id] */\n      dup1\n        /* \"contracts/11_mapping.sol\":444:447  _id */\n      dup4\n        /* \"contracts/11_mapping.sol\":437:448  movies[_id] */\n      dup2\n      mstore\n      0x20\n      add\n      swap1\n      dup2\n      mstore\n      0x20\n      add\n      0x00\n      keccak256\n        /* \"contracts/11_mapping.sol\":430:448  return movies[_id] */\n      mload(0x40)\n      dup1\n      0x40\n      add\n      0x40\n      mstore\n      swap1\n      dup2\n      0x00\n      dup3\n      add\n      dup1\n      sload\n      tag_24\n      swap1\n      tag_25\n      jump\t// in\n    tag_24:\n      dup1\n      0x1f\n      add\n      0x20\n      dup1\n      swap2\n      div\n      mul\n      0x20\n      add\n      mload(0x40)\n      swap1\n      dup2\n      add\n      0x40\n      mstore\n      dup1\n      swap3\n      swap2\n      swap1\n      dup2\n      dup2\n      mstore\n      0x20\n      add\n      dup3\n      dup1\n      sload\n      tag_26\n      swap1\n      tag_25\n      jump\t// in\n    tag_26:\n      dup1\n      iszero\n      tag_27\n      jumpi\n      dup1\n      0x1f\n      lt\n      tag_28\n      jumpi\n      0x0100\n      dup1\n      dup4\n      sload\n      div\n      mul\n      dup4\n      mstore\n      swap2\n      0x20\n      add\n      swap2\n      jump(tag_27)\n    tag_28:\n      dup3\n      add\n      swap2\n      swap1\n      0x00\n      mstore\n      keccak256(0x00, 0x20)\n      swap1\n    tag_29:\n      dup2\n      sload\n      dup2\n      mstore\n      swap1\n      0x01\n      add\n      swap1\n      0x20\n      add\n      dup1\n      dup4\n      gt\n      tag_29\n      jumpi\n      dup3\n      swap1\n      sub\n      0x1f\n      and\n      dup3\n      add\n      swap2\n    tag_27:\n      pop\n      pop\n      pop\n      pop\n      pop\n      dup2\n      mstore\n      0x20\n      add\n      0x01\n      dup3\n      add\n      dup1\n      sload\n      tag_30\n      swap1\n      tag_25\n      jump\t// in\n    tag_30:\n      dup1\n      0x1f\n      add\n      0x20\n      dup1\n      swap2\n      div\n      mul\n      0x20\n      add\n      mload(0x40)\n      swap1\n      dup2\n      add\n      0x40\n      mstore\n      dup1\n      swap3\n      swap2\n      swap1\n      dup2\n      dup2\n      mstore\n      0x20\n      add\n      dup3\n      dup1\n      sload\n      tag_31\n      swap1\n      tag_25\n      jump\t// in\n    tag_31:\n      dup1\n      iszero\n      tag_32\n      jumpi\n      dup1\n      0x1f\n      lt\n      tag_33\n      jumpi\n      0x0100\n      dup1\n      dup4\n      sload\n      div\n      mul\n      dup4\n      mstore\n      swap2\n      0x20\n      add\n      swap2\n      jump(tag_32)\n    tag_33:\n      dup3\n      add\n      swap2\n      swap1\n      0x00\n      mstore\n      keccak256(0x00, 0x20)\n      swap1\n    tag_34:\n      dup2\n      sload\n      dup2\n      mstore\n      swap1\n      0x01\n      add\n      swap1\n      0x20\n      add\n      dup1\n      dup4\n      gt\n      tag_34\n      jumpi\n      dup3\n      swap1\n      sub\n      0x1f\n      and\n      dup3\n      add\n      swap2\n    tag_32:\n      pop\n      pop\n      pop\n      pop\n      pop\n      dup2\n      mstore\n      pop\n      pop\n      swap1\n      pop\n        /* \"contracts/11_mapping.sol\":357:455  function getMovie(uint _id) public view returns (Movie memory) {... */\n      swap2\n      swap1\n      pop\n      jump\t// out\n        /* \"contracts/11_mapping.sol\":169:205  mapping(uint => Movie) public movies */\n    tag_14:\n      mstore(0x20, 0x00)\n      dup1\n      0x00\n      mstore\n      keccak256(0x00, 0x40)\n      0x00\n      swap2\n      pop\n      swap1\n      pop\n      dup1\n      0x00\n      add\n      dup1\n      sload\n      tag_35\n      swap1\n      tag_25\n      jump\t// in\n    tag_35:\n      dup1\n      0x1f\n      add\n      0x20\n      dup1\n      swap2\n      div\n      mul\n      0x20\n      add\n      mload(0x40)\n      swap1\n      dup2\n      add\n      0x40\n      mstore\n      dup1\n      swap3\n      swap2\n      swap1\n      dup2\n      dup2\n      mstore\n      0x20\n      add\n      dup3\n      dup1\n      sload\n      tag_36\n      swap1\n      tag_25\n      jump\t// in\n    tag_36:\n      dup1\n      iszero\n      tag_37\n      jumpi\n      dup1\n      0x1f\n      lt\n      tag_38\n      jumpi\n      0x0100\n      dup1\n      dup4\n      sload\n      div\n      mul\n      dup4\n      mstore\n      swap2\n      0x20\n      add\n      swap2\n      jump(tag_37)\n    tag_38:\n      dup3\n      add\n      swap2\n      swap1\n      0x00\n      mstore\n      keccak256(0x00, 0x20)\n      swap1\n    tag_39:\n      dup2\n      sload\n      dup2\n      mstore\n      swap1\n      0x01\n      add\n      swap1\n      0x20\n      add\n      dup1\n      dup4\n      gt\n      tag_39\n      jumpi\n      dup3\n      swap1\n      sub\n      0x1f\n      and\n      dup3\n      add\n      swap2\n    tag_37:\n      pop\n      pop\n      pop\n      pop\n      pop\n      swap1\n      dup1\n      0x01\n      add\n      dup1\n      sload\n      tag_40\n      swap1\n      tag_25\n      jump\t// in\n    tag_40:\n      dup1\n      0x1f\n      add\n      0x20\n      dup1\n      swap2\n      div\n      mul\n      0x20\n      add\n      mload(0x40)\n      swap1\n      dup2\n      add\n      0x40\n      mstore\n      dup1\n      swap3\n      swap2\n      swap1\n      dup2\n      dup2\n      mstore\n      0x20\n      add\n      dup3\n      dup1\n      sload\n      tag_41\n      swap1\n      tag_25\n      jump\t// in\n    tag_41:\n      dup1\n      iszero\n      tag_42\n      jumpi\n      dup1\n      0x1f\n      lt\n      tag_43\n      jumpi\n      0x0100\n      dup1\n      dup4\n      sload\n      div\n      mul\n      dup4\n      mstore\n      swap2\n      0x20\n      add\n      swap2\n      jump(tag_42)\n    tag_43:\n      dup3\n      add\n      swap2\n      swap1\n      0x00\n      mstore\n      keccak256(0x00, 0x20)\n      swap1\n    tag_44:\n      dup2\n      sload\n      dup2\n      mstore\n      swap1\n      0x01\n      add\n      swap1\n      0x20\n      add\n      dup1\n      dup4\n      gt\n      tag_44\n      jumpi\n      dup3\n      swap1\n      sub\n      0x1f\n      and\n      dup3\n      add\n      swap2\n    tag_42:\n      pop\n      pop\n      pop\n      pop\n      pop\n      swap1\n      pop\n      dup3\n      jump\t// out\n        /* \"contracts/11_mapping.sol\":212:351  function addMovie(uint _id, string memory _title, string calldata _director) public {... */\n    tag_20:\n        /* \"contracts/11_mapping.sol\":320:344  Movie(_title, _director) */\n      mload(0x40)\n      dup1\n      0x40\n      add\n      0x40\n      mstore\n      dup1\n        /* \"contracts/11_mapping.sol\":326:332  _title */\n      dup5\n        /* \"contracts/11_mapping.sol\":320:344  Movie(_title, _director) */\n      dup2\n      mstore\n      0x20\n      add\n        /* \"contracts/11_mapping.sol\":334:343  _director */\n      dup4\n      dup4\n        /* \"contracts/11_mapping.sol\":320:344  Movie(_title, _director) */\n      dup1\n      dup1\n      0x1f\n      add\n      0x20\n      dup1\n      swap2\n      div\n      mul\n      0x20\n      add\n      mload(0x40)\n      swap1\n      dup2\n      add\n      0x40\n      mstore\n      dup1\n      swap4\n      swap3\n      swap2\n      swap1\n      dup2\n      dup2\n      mstore\n      0x20\n      add\n      dup4\n      dup4\n      dup1\n      dup3\n      dup5\n      calldatacopy\n      0x00\n      dup2\n      dup5\n      add\n      mstore\n      not(0x1f)\n      0x1f\n      dup3\n      add\n      and\n      swap1\n      pop\n      dup1\n      dup4\n      add\n      swap3\n      pop\n      pop\n      pop\n      pop\n      pop\n      pop\n      pop\n      dup2\n      mstore\n      pop\n        /* \"contracts/11_mapping.sol\":306:312  movies */\n      0x00\n        /* \"contracts/11_mapping.sol\":306:317  movies[_id] */\n      dup1\n        /* \"contracts/11_mapping.sol\":313:316  _id */\n      dup7\n        /* \"contracts/11_mapping.sol\":306:317  movies[_id] */\n      dup2\n      mstore\n      0x20\n      add\n      swap1\n      dup2\n      mstore\n      0x20\n      add\n      0x00\n      keccak256\n        /* \"contracts/11_mapping.sol\":306:344  movies[_id] = Movie(_title, _director) */\n      0x00\n      dup3\n      add\n      mload\n      dup2\n      0x00\n      add\n      swap1\n      dup1\n      mload\n      swap1\n      0x20\n      add\n      swap1\n      tag_46\n      swap3\n      swap2\n      swap1\n      tag_47\n      jump\t// in\n    tag_46:\n      pop\n      0x20\n      dup3\n      add\n      mload\n      dup2\n      0x01\n      add\n      swap1\n      dup1\n      mload\n      swap1\n      0x20\n      add\n      swap1\n      tag_48\n      swap3\n      swap2\n      swap1\n      tag_47\n      jump\t// in\n    tag_48:\n      pop\n      swap1\n      pop\n      pop\n        /* \"contracts/11_mapping.sol\":212:351  function addMovie(uint _id, string memory _title, string calldata _director) public {... */\n      pop\n      pop\n      pop\n      pop\n      jump\t// out\n    tag_22:\n      mload(0x40)\n      dup1\n      0x40\n      add\n      0x40\n      mstore\n      dup1\n      0x60\n      dup2\n      mstore\n      0x20\n      add\n      0x60\n      dup2\n      mstore\n      pop\n      swap1\n      jump\t// out\n    tag_47:\n      dup3\n      dup1\n      sload\n      tag_49\n      swap1\n      tag_25\n      jump\t// in\n    tag_49:\n      swap1\n      0x00\n      mstore\n      keccak256(0x00, 0x20)\n      swap1\n      0x1f\n      add\n      0x20\n      swap1\n      div\n      dup2\n      add\n      swap3\n      dup3\n      tag_51\n      jumpi\n      0x00\n      dup6\n      sstore\n      jump(tag_50)\n    tag_51:\n      dup3\n      0x1f\n      lt\n      tag_52\n      jumpi\n      dup1\n      mload\n      not(0xff)\n      and\n      dup4\n      dup1\n      add\n      or\n      dup6\n      sstore\n      jump(tag_50)\n    tag_52:\n      dup3\n      dup1\n      add\n      0x01\n      add\n      dup6\n      sstore\n      dup3\n      iszero\n      tag_50\n      jumpi\n      swap2\n      dup3\n      add\n    tag_53:\n      dup3\n      dup2\n      gt\n      iszero\n      tag_54\n      jumpi\n      dup3\n      mload\n      dup3\n      sstore\n      swap2\n      0x20\n      add\n      swap2\n      swap1\n      0x01\n      add\n      swap1\n      jump(tag_53)\n    tag_54:\n    tag_50:\n      pop\n      swap1\n      pop\n      tag_55\n      swap2\n      swap1\n      tag_56\n      jump\t// in\n    tag_55:\n      pop\n      swap1\n      jump\t// out\n    tag_56:\n    tag_57:\n      dup1\n      dup3\n      gt\n      iszero\n      tag_58\n      jumpi\n      0x00\n      dup2\n      0x00\n      swap1\n      sstore\n      pop\n      0x01\n      add\n      jump(tag_57)\n    tag_58:\n      pop\n      swap1\n      jump\t// out\n        /* \"#utility.yul\":7:419   */\n    tag_60:\n        /* \"#utility.yul\":85:90   */\n      0x00\n        /* \"#utility.yul\":110:176   */\n      tag_62\n        /* \"#utility.yul\":126:175   */\n      tag_63\n        /* \"#utility.yul\":168:174   */\n      dup5\n        /* \"#utility.yul\":126:175   */\n      tag_64\n      jump\t// in\n    tag_63:\n        /* \"#utility.yul\":110:176   */\n      tag_65\n      jump\t// in\n    tag_62:\n        /* \"#utility.yul\":101:176   */\n      swap1\n      pop\n        /* \"#utility.yul\":199:205   */\n      dup3\n        /* \"#utility.yul\":192:197   */\n      dup2\n        /* \"#utility.yul\":185:206   */\n      mstore\n        /* \"#utility.yul\":237:241   */\n      0x20\n        /* \"#utility.yul\":230:235   */\n      dup2\n        /* \"#utility.yul\":226:242   */\n      add\n        /* \"#utility.yul\":275:278   */\n      dup5\n        /* \"#utility.yul\":266:272   */\n      dup5\n        /* \"#utility.yul\":261:264   */\n      dup5\n        /* \"#utility.yul\":257:273   */\n      add\n        /* \"#utility.yul\":254:279   */\n      gt\n        /* \"#utility.yul\":251:363   */\n      iszero\n      tag_66\n      jumpi\n        /* \"#utility.yul\":282:361   */\n      tag_67\n      tag_68\n      jump\t// in\n    tag_67:\n        /* \"#utility.yul\":251:363   */\n    tag_66:\n        /* \"#utility.yul\":372:413   */\n      tag_69\n        /* \"#utility.yul\":406:412   */\n      dup5\n        /* \"#utility.yul\":401:404   */\n      dup3\n        /* \"#utility.yul\":396:399   */\n      dup6\n        /* \"#utility.yul\":372:413   */\n      tag_70\n      jump\t// in\n    tag_69:\n        /* \"#utility.yul\":91:419   */\n      pop\n        /* \"#utility.yul\":7:419   */\n      swap4\n      swap3\n      pop\n      pop\n      pop\n      jump\t// out\n        /* \"#utility.yul\":439:992   */\n    tag_71:\n        /* \"#utility.yul\":497:505   */\n      0x00\n        /* \"#utility.yul\":507:513   */\n      dup1\n        /* \"#utility.yul\":557:560   */\n      dup4\n        /* \"#utility.yul\":550:554   */\n      0x1f\n        /* \"#utility.yul\":542:548   */\n      dup5\n        /* \"#utility.yul\":538:555   */\n      add\n        /* \"#utility.yul\":534:561   */\n      slt\n        /* \"#utility.yul\":524:646   */\n      tag_73\n      jumpi\n        /* \"#utility.yul\":565:644   */\n      tag_74\n      tag_75\n      jump\t// in\n    tag_74:\n        /* \"#utility.yul\":524:646   */\n    tag_73:\n        /* \"#utility.yul\":678:684   */\n      dup3\n        /* \"#utility.yul\":665:685   */\n      calldataload\n        /* \"#utility.yul\":655:685   */\n      swap1\n      pop\n        /* \"#utility.yul\":708:726   */\n      0xffffffffffffffff\n        /* \"#utility.yul\":700:706   */\n      dup2\n        /* \"#utility.yul\":697:727   */\n      gt\n        /* \"#utility.yul\":694:811   */\n      iszero\n      tag_76\n      jumpi\n        /* \"#utility.yul\":730:809   */\n      tag_77\n      tag_78\n      jump\t// in\n    tag_77:\n        /* \"#utility.yul\":694:811   */\n    tag_76:\n        /* \"#utility.yul\":844:848   */\n      0x20\n        /* \"#utility.yul\":836:842   */\n      dup4\n        /* \"#utility.yul\":832:849   */\n      add\n        /* \"#utility.yul\":820:849   */\n      swap2\n      pop\n        /* \"#utility.yul\":898:901   */\n      dup4\n        /* \"#utility.yul\":890:894   */\n      0x01\n        /* \"#utility.yul\":882:888   */\n      dup3\n        /* \"#utility.yul\":878:895   */\n      mul\n        /* \"#utility.yul\":868:876   */\n      dup4\n        /* \"#utility.yul\":864:896   */\n      add\n        /* \"#utility.yul\":861:902   */\n      gt\n        /* \"#utility.yul\":858:986   */\n      iszero\n      tag_79\n      jumpi\n        /* \"#utility.yul\":905:984   */\n      tag_80\n      tag_81\n      jump\t// in\n    tag_80:\n        /* \"#utility.yul\":858:986   */\n    tag_79:\n        /* \"#utility.yul\":439:992   */\n      swap3\n      pop\n      swap3\n      swap1\n      pop\n      jump\t// out\n        /* \"#utility.yul\":1012:1352   */\n    tag_82:\n        /* \"#utility.yul\":1068:1073   */\n      0x00\n        /* \"#utility.yul\":1117:1120   */\n      dup3\n        /* \"#utility.yul\":1110:1114   */\n      0x1f\n        /* \"#utility.yul\":1102:1108   */\n      dup4\n        /* \"#utility.yul\":1098:1115   */\n      add\n        /* \"#utility.yul\":1094:1121   */\n      slt\n        /* \"#utility.yul\":1084:1206   */\n      tag_84\n      jumpi\n        /* \"#utility.yul\":1125:1204   */\n      tag_85\n      tag_75\n      jump\t// in\n    tag_85:\n        /* \"#utility.yul\":1084:1206   */\n    tag_84:\n        /* \"#utility.yul\":1242:1248   */\n      dup2\n        /* \"#utility.yul\":1229:1249   */\n      calldataload\n        /* \"#utility.yul\":1267:1346   */\n      tag_86\n        /* \"#utility.yul\":1342:1345   */\n      dup5\n        /* \"#utility.yul\":1334:1340   */\n      dup3\n        /* \"#utility.yul\":1327:1331   */\n      0x20\n        /* \"#utility.yul\":1319:1325   */\n      dup7\n        /* \"#utility.yul\":1315:1332   */\n      add\n        /* \"#utility.yul\":1267:1346   */\n      tag_60\n      jump\t// in\n    tag_86:\n        /* \"#utility.yul\":1258:1346   */\n      swap2\n      pop\n        /* \"#utility.yul\":1074:1352   */\n      pop\n        /* \"#utility.yul\":1012:1352   */\n      swap3\n      swap2\n      pop\n      pop\n      jump\t// out\n        /* \"#utility.yul\":1358:1497   */\n    tag_87:\n        /* \"#utility.yul\":1404:1409   */\n      0x00\n        /* \"#utility.yul\":1442:1448   */\n      dup2\n        /* \"#utility.yul\":1429:1449   */\n      calldataload\n        /* \"#utility.yul\":1420:1449   */\n      swap1\n      pop\n        /* \"#utility.yul\":1458:1491   */\n      tag_89\n        /* \"#utility.yul\":1485:1490   */\n      dup2\n        /* \"#utility.yul\":1458:1491   */\n      tag_90\n      jump\t// in\n    tag_89:\n        /* \"#utility.yul\":1358:1497   */\n      swap3\n      swap2\n      pop\n      pop\n      jump\t// out\n        /* \"#utility.yul\":1503:1832   */\n    tag_8:\n        /* \"#utility.yul\":1562:1568   */\n      0x00\n        /* \"#utility.yul\":1611:1613   */\n      0x20\n        /* \"#utility.yul\":1599:1608   */\n      dup3\n        /* \"#utility.yul\":1590:1597   */\n      dup5\n        /* \"#utility.yul\":1586:1609   */\n      sub\n        /* \"#utility.yul\":1582:1614   */\n      slt\n        /* \"#utility.yul\":1579:1698   */\n      iszero\n      tag_92\n      jumpi\n        /* \"#utility.yul\":1617:1696   */\n      tag_93\n      tag_94\n      jump\t// in\n    tag_93:\n        /* \"#utility.yul\":1579:1698   */\n    tag_92:\n        /* \"#utility.yul\":1737:1738   */\n      0x00\n        /* \"#utility.yul\":1762:1815   */\n      tag_95\n        /* \"#utility.yul\":1807:1814   */\n      dup5\n        /* \"#utility.yul\":1798:1804   */\n      dup3\n        /* \"#utility.yul\":1787:1796   */\n      dup6\n        /* \"#utility.yul\":1783:1805   */\n      add\n        /* \"#utility.yul\":1762:1815   */\n      tag_87\n      jump\t// in\n    tag_95:\n        /* \"#utility.yul\":1752:1815   */\n      swap2\n      pop\n        /* \"#utility.yul\":1708:1825   */\n      pop\n        /* \"#utility.yul\":1503:1832   */\n      swap3\n      swap2\n      pop\n      pop\n      jump\t// out\n        /* \"#utility.yul\":1838:2837   */\n    tag_19:\n        /* \"#utility.yul\":1937:1943   */\n      0x00\n        /* \"#utility.yul\":1945:1951   */\n      dup1\n        /* \"#utility.yul\":1953:1959   */\n      0x00\n        /* \"#utility.yul\":1961:1967   */\n      dup1\n        /* \"#utility.yul\":2010:2012   */\n      0x60\n        /* \"#utility.yul\":1998:2007   */\n      dup6\n        /* \"#utility.yul\":1989:1996   */\n      dup8\n        /* \"#utility.yul\":1985:2008   */\n      sub\n        /* \"#utility.yul\":1981:2013   */\n      slt\n        /* \"#utility.yul\":1978:2097   */\n      iszero\n      tag_97\n      jumpi\n        /* \"#utility.yul\":2016:2095   */\n      tag_98\n      tag_94\n      jump\t// in\n    tag_98:\n        /* \"#utility.yul\":1978:2097   */\n    tag_97:\n        /* \"#utility.yul\":2136:2137   */\n      0x00\n        /* \"#utility.yul\":2161:2214   */\n      tag_99\n        /* \"#utility.yul\":2206:2213   */\n      dup8\n        /* \"#utility.yul\":2197:2203   */\n      dup3\n        /* \"#utility.yul\":2186:2195   */\n      dup9\n        /* \"#utility.yul\":2182:2204   */\n      add\n        /* \"#utility.yul\":2161:2214   */\n      tag_87\n      jump\t// in\n    tag_99:\n        /* \"#utility.yul\":2151:2214   */\n      swap5\n      pop\n        /* \"#utility.yul\":2107:2224   */\n      pop\n        /* \"#utility.yul\":2291:2293   */\n      0x20\n        /* \"#utility.yul\":2280:2289   */\n      dup6\n        /* \"#utility.yul\":2276:2294   */\n      add\n        /* \"#utility.yul\":2263:2295   */\n      calldataload\n        /* \"#utility.yul\":2322:2340   */\n      0xffffffffffffffff\n        /* \"#utility.yul\":2314:2320   */\n      dup2\n        /* \"#utility.yul\":2311:2341   */\n      gt\n        /* \"#utility.yul\":2308:2425   */\n      iszero\n      tag_100\n      jumpi\n        /* \"#utility.yul\":2344:2423   */\n      tag_101\n      tag_102\n      jump\t// in\n    tag_101:\n        /* \"#utility.yul\":2308:2425   */\n    tag_100:\n        /* \"#utility.yul\":2449:2512   */\n      tag_103\n        /* \"#utility.yul\":2504:2511   */\n      dup8\n        /* \"#utility.yul\":2495:2501   */\n      dup3\n        /* \"#utility.yul\":2484:2493   */\n      dup9\n        /* \"#utility.yul\":2480:2502   */\n      add\n        /* \"#utility.yul\":2449:2512   */\n      tag_82\n      jump\t// in\n    tag_103:\n        /* \"#utility.yul\":2439:2512   */\n      swap4\n      pop\n        /* \"#utility.yul\":2234:2522   */\n      pop\n        /* \"#utility.yul\":2589:2591   */\n      0x40\n        /* \"#utility.yul\":2578:2587   */\n      dup6\n        /* \"#utility.yul\":2574:2592   */\n      add\n        /* \"#utility.yul\":2561:2593   */\n      calldataload\n        /* \"#utility.yul\":2620:2638   */\n      0xffffffffffffffff\n        /* \"#utility.yul\":2612:2618   */\n      dup2\n        /* \"#utility.yul\":2609:2639   */\n      gt\n        /* \"#utility.yul\":2606:2723   */\n      iszero\n      tag_104\n      jumpi\n        /* \"#utility.yul\":2642:2721   */\n      tag_105\n      tag_102\n      jump\t// in\n    tag_105:\n        /* \"#utility.yul\":2606:2723   */\n    tag_104:\n        /* \"#utility.yul\":2755:2820   */\n      tag_106\n        /* \"#utility.yul\":2812:2819   */\n      dup8\n        /* \"#utility.yul\":2803:2809   */\n      dup3\n        /* \"#utility.yul\":2792:2801   */\n      dup9\n        /* \"#utility.yul\":2788:2810   */\n      add\n        /* \"#utility.yul\":2755:2820   */\n      tag_71\n      jump\t// in\n    tag_106:\n        /* \"#utility.yul\":2737:2820   */\n      swap3\n      pop\n      swap3\n      pop\n        /* \"#utility.yul\":2532:2830   */\n      pop\n        /* \"#utility.yul\":1838:2837   */\n      swap3\n      swap6\n      swap2\n      swap5\n      pop\n      swap3\n      pop\n      jump\t// out\n        /* \"#utility.yul\":2843:3187   */\n    tag_107:\n        /* \"#utility.yul\":2921:2924   */\n      0x00\n        /* \"#utility.yul\":2949:2988   */\n      tag_109\n        /* \"#utility.yul\":2982:2987   */\n      dup3\n        /* \"#utility.yul\":2949:2988   */\n      tag_110\n      jump\t// in\n    tag_109:\n        /* \"#utility.yul\":3004:3065   */\n      tag_111\n        /* \"#utility.yul\":3058:3064   */\n      dup2\n        /* \"#utility.yul\":3053:3056   */\n      dup6\n        /* \"#utility.yul\":3004:3065   */\n      tag_112\n      jump\t// in\n    tag_111:\n        /* \"#utility.yul\":2997:3065   */\n      swap4\n      pop\n        /* \"#utility.yul\":3074:3126   */\n      tag_113\n        /* \"#utility.yul\":3119:3125   */\n      dup2\n        /* \"#utility.yul\":3114:3117   */\n      dup6\n        /* \"#utility.yul\":3107:3111   */\n      0x20\n        /* \"#utility.yul\":3100:3105   */\n      dup7\n        /* \"#utility.yul\":3096:3112   */\n      add\n        /* \"#utility.yul\":3074:3126   */\n      tag_114\n      jump\t// in\n    tag_113:\n        /* \"#utility.yul\":3151:3180   */\n      tag_115\n        /* \"#utility.yul\":3173:3179   */\n      dup2\n        /* \"#utility.yul\":3151:3180   */\n      tag_116\n      jump\t// in\n    tag_115:\n        /* \"#utility.yul\":3146:3149   */\n      dup5\n        /* \"#utility.yul\":3142:3181   */\n      add\n        /* \"#utility.yul\":3135:3181   */\n      swap2\n      pop\n        /* \"#utility.yul\":2925:3187   */\n      pop\n        /* \"#utility.yul\":2843:3187   */\n      swap3\n      swap2\n      pop\n      pop\n      jump\t// out\n        /* \"#utility.yul\":3193:3557   */\n    tag_117:\n        /* \"#utility.yul\":3281:3284   */\n      0x00\n        /* \"#utility.yul\":3309:3348   */\n      tag_119\n        /* \"#utility.yul\":3342:3347   */\n      dup3\n        /* \"#utility.yul\":3309:3348   */\n      tag_110\n      jump\t// in\n    tag_119:\n        /* \"#utility.yul\":3364:3435   */\n      tag_120\n        /* \"#utility.yul\":3428:3434   */\n      dup2\n        /* \"#utility.yul\":3423:3426   */\n      dup6\n        /* \"#utility.yul\":3364:3435   */\n      tag_121\n      jump\t// in\n    tag_120:\n        /* \"#utility.yul\":3357:3435   */\n      swap4\n      pop\n        /* \"#utility.yul\":3444:3496   */\n      tag_122\n        /* \"#utility.yul\":3489:3495   */\n      dup2\n        /* \"#utility.yul\":3484:3487   */\n      dup6\n        /* \"#utility.yul\":3477:3481   */\n      0x20\n        /* \"#utility.yul\":3470:3475   */\n      dup7\n        /* \"#utility.yul\":3466:3482   */\n      add\n        /* \"#utility.yul\":3444:3496   */\n      tag_114\n      jump\t// in\n    tag_122:\n        /* \"#utility.yul\":3521:3550   */\n      tag_123\n        /* \"#utility.yul\":3543:3549   */\n      dup2\n        /* \"#utility.yul\":3521:3550   */\n      tag_116\n      jump\t// in\n    tag_123:\n        /* \"#utility.yul\":3516:3519   */\n      dup5\n        /* \"#utility.yul\":3512:3551   */\n      add\n        /* \"#utility.yul\":3505:3551   */\n      swap2\n      pop\n        /* \"#utility.yul\":3285:3557   */\n      pop\n        /* \"#utility.yul\":3193:3557   */\n      swap3\n      swap2\n      pop\n      pop\n      jump\t// out\n        /* \"#utility.yul\":3625:4297   */\n    tag_124:\n        /* \"#utility.yul\":3734:3737   */\n      0x00\n        /* \"#utility.yul\":3770:3774   */\n      0x40\n        /* \"#utility.yul\":3765:3768   */\n      dup4\n        /* \"#utility.yul\":3761:3775   */\n      add\n        /* \"#utility.yul\":3858:3862   */\n      0x00\n        /* \"#utility.yul\":3851:3856   */\n      dup4\n        /* \"#utility.yul\":3847:3863   */\n      add\n        /* \"#utility.yul\":3841:3864   */\n      mload\n        /* \"#utility.yul\":3911:3914   */\n      dup5\n        /* \"#utility.yul\":3905:3909   */\n      dup3\n        /* \"#utility.yul\":3901:3915   */\n      sub\n        /* \"#utility.yul\":3894:3898   */\n      0x00\n        /* \"#utility.yul\":3889:3892   */\n      dup7\n        /* \"#utility.yul\":3885:3899   */\n      add\n        /* \"#utility.yul\":3878:3916   */\n      mstore\n        /* \"#utility.yul\":3937:4010   */\n      tag_126\n        /* \"#utility.yul\":4005:4009   */\n      dup3\n        /* \"#utility.yul\":3991:4003   */\n      dup3\n        /* \"#utility.yul\":3937:4010   */\n      tag_107\n      jump\t// in\n    tag_126:\n        /* \"#utility.yul\":3929:4010   */\n      swap2\n      pop\n        /* \"#utility.yul\":3785:4021   */\n      pop\n        /* \"#utility.yul\":4107:4111   */\n      0x20\n        /* \"#utility.yul\":4100:4105   */\n      dup4\n        /* \"#utility.yul\":4096:4112   */\n      add\n        /* \"#utility.yul\":4090:4113   */\n      mload\n        /* \"#utility.yul\":4160:4163   */\n      dup5\n        /* \"#utility.yul\":4154:4158   */\n      dup3\n        /* \"#utility.yul\":4150:4164   */\n      sub\n        /* \"#utility.yul\":4143:4147   */\n      0x20\n        /* \"#utility.yul\":4138:4141   */\n      dup7\n        /* \"#utility.yul\":4134:4148   */\n      add\n        /* \"#utility.yul\":4127:4165   */\n      mstore\n        /* \"#utility.yul\":4186:4259   */\n      tag_127\n        /* \"#utility.yul\":4254:4258   */\n      dup3\n        /* \"#utility.yul\":4240:4252   */\n      dup3\n        /* \"#utility.yul\":4186:4259   */\n      tag_107\n      jump\t// in\n    tag_127:\n        /* \"#utility.yul\":4178:4259   */\n      swap2\n      pop\n        /* \"#utility.yul\":4031:4270   */\n      pop\n        /* \"#utility.yul\":4287:4291   */\n      dup1\n        /* \"#utility.yul\":4280:4291   */\n      swap2\n      pop\n        /* \"#utility.yul\":3739:4297   */\n      pop\n        /* \"#utility.yul\":3625:4297   */\n      swap3\n      swap2\n      pop\n      pop\n      jump\t// out\n        /* \"#utility.yul\":4303:4817   */\n    tag_16:\n        /* \"#utility.yul\":4464:4468   */\n      0x00\n        /* \"#utility.yul\":4502:4504   */\n      0x40\n        /* \"#utility.yul\":4491:4500   */\n      dup3\n        /* \"#utility.yul\":4487:4505   */\n      add\n        /* \"#utility.yul\":4479:4505   */\n      swap1\n      pop\n        /* \"#utility.yul\":4551:4560   */\n      dup2\n        /* \"#utility.yul\":4545:4549   */\n      dup2\n        /* \"#utility.yul\":4541:4561   */\n      sub\n        /* \"#utility.yul\":4537:4538   */\n      0x00\n        /* \"#utility.yul\":4526:4535   */\n      dup4\n        /* \"#utility.yul\":4522:4539   */\n      add\n        /* \"#utility.yul\":4515:4562   */\n      mstore\n        /* \"#utility.yul\":4579:4657   */\n      tag_129\n        /* \"#utility.yul\":4652:4656   */\n      dup2\n        /* \"#utility.yul\":4643:4649   */\n      dup6\n        /* \"#utility.yul\":4579:4657   */\n      tag_117\n      jump\t// in\n    tag_129:\n        /* \"#utility.yul\":4571:4657   */\n      swap1\n      pop\n        /* \"#utility.yul\":4704:4713   */\n      dup2\n        /* \"#utility.yul\":4698:4702   */\n      dup2\n        /* \"#utility.yul\":4694:4714   */\n      sub\n        /* \"#utility.yul\":4689:4691   */\n      0x20\n        /* \"#utility.yul\":4678:4687   */\n      dup4\n        /* \"#utility.yul\":4674:4692   */\n      add\n        /* \"#utility.yul\":4667:4715   */\n      mstore\n        /* \"#utility.yul\":4732:4810   */\n      tag_130\n        /* \"#utility.yul\":4805:4809   */\n      dup2\n        /* \"#utility.yul\":4796:4802   */\n      dup5\n        /* \"#utility.yul\":4732:4810   */\n      tag_117\n      jump\t// in\n    tag_130:\n        /* \"#utility.yul\":4724:4810   */\n      swap1\n      pop\n        /* \"#utility.yul\":4303:4817   */\n      swap4\n      swap3\n      pop\n      pop\n      pop\n      jump\t// out\n        /* \"#utility.yul\":4823:5176   */\n    tag_11:\n        /* \"#utility.yul\":4956:4960   */\n      0x00\n        /* \"#utility.yul\":4994:4996   */\n      0x20\n        /* \"#utility.yul\":4983:4992   */\n      dup3\n        /* \"#utility.yul\":4979:4997   */\n      add\n        /* \"#utility.yul\":4971:4997   */\n      swap1\n      pop\n        /* \"#utility.yul\":5043:5052   */\n      dup2\n        /* \"#utility.yul\":5037:5041   */\n      dup2\n        /* \"#utility.yul\":5033:5053   */\n      sub\n        /* \"#utility.yul\":5029:5030   */\n      0x00\n        /* \"#utility.yul\":5018:5027   */\n      dup4\n        /* \"#utility.yul\":5014:5031   */\n      add\n        /* \"#utility.yul\":5007:5054   */\n      mstore\n        /* \"#utility.yul\":5071:5169   */\n      tag_132\n        /* \"#utility.yul\":5164:5168   */\n      dup2\n        /* \"#utility.yul\":5155:5161   */\n      dup5\n        /* \"#utility.yul\":5071:5169   */\n      tag_124\n      jump\t// in\n    tag_132:\n        /* \"#utility.yul\":5063:5169   */\n      swap1\n      pop\n        /* \"#utility.yul\":4823:5176   */\n      swap3\n      swap2\n      pop\n      pop\n      jump\t// out\n        /* \"#utility.yul\":5182:5311   */\n    tag_65:\n        /* \"#utility.yul\":5216:5222   */\n      0x00\n        /* \"#utility.yul\":5243:5263   */\n      tag_134\n      tag_135\n      jump\t// in\n    tag_134:\n        /* \"#utility.yul\":5233:5263   */\n      swap1\n      pop\n        /* \"#utility.yul\":5272:5305   */\n      tag_136\n        /* \"#utility.yul\":5300:5304   */\n      dup3\n        /* \"#utility.yul\":5292:5298   */\n      dup3\n        /* \"#utility.yul\":5272:5305   */\n      tag_137\n      jump\t// in\n    tag_136:\n        /* \"#utility.yul\":5182:5311   */\n      swap2\n      swap1\n      pop\n      jump\t// out\n        /* \"#utility.yul\":5317:5392   */\n    tag_135:\n        /* \"#utility.yul\":5350:5356   */\n      0x00\n        /* \"#utility.yul\":5383:5385   */\n      0x40\n        /* \"#utility.yul\":5377:5386   */\n      mload\n        /* \"#utility.yul\":5367:5386   */\n      swap1\n      pop\n        /* \"#utility.yul\":5317:5392   */\n      swap1\n      jump\t// out\n        /* \"#utility.yul\":5398:5706   */\n    tag_64:\n        /* \"#utility.yul\":5460:5464   */\n      0x00\n        /* \"#utility.yul\":5550:5568   */\n      0xffffffffffffffff\n        /* \"#utility.yul\":5542:5548   */\n      dup3\n        /* \"#utility.yul\":5539:5569   */\n      gt\n        /* \"#utility.yul\":5536:5592   */\n      iszero\n      tag_140\n      jumpi\n        /* \"#utility.yul\":5572:5590   */\n      tag_141\n      tag_142\n      jump\t// in\n    tag_141:\n        /* \"#utility.yul\":5536:5592   */\n    tag_140:\n        /* \"#utility.yul\":5610:5639   */\n      tag_143\n        /* \"#utility.yul\":5632:5638   */\n      dup3\n        /* \"#utility.yul\":5610:5639   */\n      tag_116\n      jump\t// in\n    tag_143:\n        /* \"#utility.yul\":5602:5639   */\n      swap1\n      pop\n        /* \"#utility.yul\":5694:5698   */\n      0x20\n        /* \"#utility.yul\":5688:5692   */\n      dup2\n        /* \"#utility.yul\":5684:5699   */\n      add\n        /* \"#utility.yul\":5676:5699   */\n      swap1\n      pop\n        /* \"#utility.yul\":5398:5706   */\n      swap2\n      swap1\n      pop\n      jump\t// out\n        /* \"#utility.yul\":5712:5811   */\n    tag_110:\n        /* \"#utility.yul\":5764:5770   */\n      0x00\n        /* \"#utility.yul\":5798:5803   */\n      dup2\n        /* \"#utility.yul\":5792:5804   */\n      mload\n        /* \"#utility.yul\":5782:5804   */\n      swap1\n      pop\n        /* \"#utility.yul\":5712:5811   */\n      swap2\n      swap1\n      pop\n      jump\t// out\n        /* \"#utility.yul\":5817:5976   */\n    tag_112:\n        /* \"#utility.yul\":5891:5902   */\n      0x00\n        /* \"#utility.yul\":5925:5931   */\n      dup3\n        /* \"#utility.yul\":5920:5923   */\n      dup3\n        /* \"#utility.yul\":5913:5932   */\n      mstore\n        /* \"#utility.yul\":5965:5969   */\n      0x20\n        /* \"#utility.yul\":5960:5963   */\n      dup3\n        /* \"#utility.yul\":5956:5970   */\n      add\n        /* \"#utility.yul\":5941:5970   */\n      swap1\n      pop\n        /* \"#utility.yul\":5817:5976   */\n      swap3\n      swap2\n      pop\n      pop\n      jump\t// out\n        /* \"#utility.yul\":5982:6151   */\n    tag_121:\n        /* \"#utility.yul\":6066:6077   */\n      0x00\n        /* \"#utility.yul\":6100:6106   */\n      dup3\n        /* \"#utility.yul\":6095:6098   */\n      dup3\n        /* \"#utility.yul\":6088:6107   */\n      mstore\n        /* \"#utility.yul\":6140:6144   */\n      0x20\n        /* \"#utility.yul\":6135:6138   */\n      dup3\n        /* \"#utility.yul\":6131:6145   */\n      add\n        /* \"#utility.yul\":6116:6145   */\n      swap1\n      pop\n        /* \"#utility.yul\":5982:6151   */\n      swap3\n      swap2\n      pop\n      pop\n      jump\t// out\n        /* \"#utility.yul\":6157:6234   */\n    tag_147:\n        /* \"#utility.yul\":6194:6201   */\n      0x00\n        /* \"#utility.yul\":6223:6228   */\n      dup2\n        /* \"#utility.yul\":6212:6228   */\n      swap1\n      pop\n        /* \"#utility.yul\":6157:6234   */\n      swap2\n      swap1\n      pop\n      jump\t// out\n        /* \"#utility.yul\":6240:6394   */\n    tag_70:\n        /* \"#utility.yul\":6324:6330   */\n      dup3\n        /* \"#utility.yul\":6319:6322   */\n      dup2\n        /* \"#utility.yul\":6314:6317   */\n      dup4\n        /* \"#utility.yul\":6301:6331   */\n      calldatacopy\n        /* \"#utility.yul\":6386:6387   */\n      0x00\n        /* \"#utility.yul\":6377:6383   */\n      dup4\n        /* \"#utility.yul\":6372:6375   */\n      dup4\n        /* \"#utility.yul\":6368:6384   */\n      add\n        /* \"#utility.yul\":6361:6388   */\n      mstore\n        /* \"#utility.yul\":6240:6394   */\n      pop\n      pop\n      pop\n      jump\t// out\n        /* \"#utility.yul\":6400:6707   */\n    tag_114:\n        /* \"#utility.yul\":6468:6469   */\n      0x00\n        /* \"#utility.yul\":6478:6591   */\n    tag_151:\n        /* \"#utility.yul\":6492:6498   */\n      dup4\n        /* \"#utility.yul\":6489:6490   */\n      dup2\n        /* \"#utility.yul\":6486:6499   */\n      lt\n        /* \"#utility.yul\":6478:6591   */\n      iszero\n      tag_153\n      jumpi\n        /* \"#utility.yul\":6577:6578   */\n      dup1\n        /* \"#utility.yul\":6572:6575   */\n      dup3\n        /* \"#utility.yul\":6568:6579   */\n      add\n        /* \"#utility.yul\":6562:6580   */\n      mload\n        /* \"#utility.yul\":6558:6559   */\n      dup2\n        /* \"#utility.yul\":6553:6556   */\n      dup5\n        /* \"#utility.yul\":6549:6560   */\n      add\n        /* \"#utility.yul\":6542:6581   */\n      mstore\n        /* \"#utility.yul\":6514:6516   */\n      0x20\n        /* \"#utility.yul\":6511:6512   */\n      dup2\n        /* \"#utility.yul\":6507:6517   */\n      add\n        /* \"#utility.yul\":6502:6517   */\n      swap1\n      pop\n        /* \"#utility.yul\":6478:6591   */\n      jump(tag_151)\n    tag_153:\n        /* \"#utility.yul\":6609:6615   */\n      dup4\n        /* \"#utility.yul\":6606:6607   */\n      dup2\n        /* \"#utility.yul\":6603:6616   */\n      gt\n        /* \"#utility.yul\":6600:6701   */\n      iszero\n      tag_154\n      jumpi\n        /* \"#utility.yul\":6689:6690   */\n      0x00\n        /* \"#utility.yul\":6680:6686   */\n      dup5\n        /* \"#utility.yul\":6675:6678   */\n      dup5\n        /* \"#utility.yul\":6671:6687   */\n      add\n        /* \"#utility.yul\":6664:6691   */\n      mstore\n        /* \"#utility.yul\":6600:6701   */\n    tag_154:\n        /* \"#utility.yul\":6449:6707   */\n      pop\n        /* \"#utility.yul\":6400:6707   */\n      pop\n      pop\n      pop\n      jump\t// out\n        /* \"#utility.yul\":6713:7033   */\n    tag_25:\n        /* \"#utility.yul\":6757:6763   */\n      0x00\n        /* \"#utility.yul\":6794:6795   */\n      0x02\n        /* \"#utility.yul\":6788:6792   */\n      dup3\n        /* \"#utility.yul\":6784:6796   */\n      div\n        /* \"#utility.yul\":6774:6796   */\n      swap1\n      pop\n        /* \"#utility.yul\":6841:6842   */\n      0x01\n        /* \"#utility.yul\":6835:6839   */\n      dup3\n        /* \"#utility.yul\":6831:6843   */\n      and\n        /* \"#utility.yul\":6862:6880   */\n      dup1\n        /* \"#utility.yul\":6852:6933   */\n      tag_156\n      jumpi\n        /* \"#utility.yul\":6918:6922   */\n      0x7f\n        /* \"#utility.yul\":6910:6916   */\n      dup3\n        /* \"#utility.yul\":6906:6923   */\n      and\n        /* \"#utility.yul\":6896:6923   */\n      swap2\n      pop\n        /* \"#utility.yul\":6852:6933   */\n    tag_156:\n        /* \"#utility.yul\":6980:6982   */\n      0x20\n        /* \"#utility.yul\":6972:6978   */\n      dup3\n        /* \"#utility.yul\":6969:6983   */\n      lt\n        /* \"#utility.yul\":6949:6967   */\n      dup2\n        /* \"#utility.yul\":6946:6984   */\n      eq\n        /* \"#utility.yul\":6943:7027   */\n      iszero\n      tag_157\n      jumpi\n        /* \"#utility.yul\":6999:7017   */\n      tag_158\n      tag_159\n      jump\t// in\n    tag_158:\n        /* \"#utility.yul\":6943:7027   */\n    tag_157:\n        /* \"#utility.yul\":6764:7033   */\n      pop\n        /* \"#utility.yul\":6713:7033   */\n      swap2\n      swap1\n      pop\n      jump\t// out\n        /* \"#utility.yul\":7039:7320   */\n    tag_137:\n        /* \"#utility.yul\":7122:7149   */\n      tag_161\n        /* \"#utility.yul\":7144:7148   */\n      dup3\n        /* \"#utility.yul\":7122:7149   */\n      tag_116\n      jump\t// in\n    tag_161:\n        /* \"#utility.yul\":7114:7120   */\n      dup2\n        /* \"#utility.yul\":7110:7150   */\n      add\n        /* \"#utility.yul\":7252:7258   */\n      dup2\n        /* \"#utility.yul\":7240:7250   */\n      dup2\n        /* \"#utility.yul\":7237:7259   */\n      lt\n        /* \"#utility.yul\":7216:7234   */\n      0xffffffffffffffff\n        /* \"#utility.yul\":7204:7214   */\n      dup3\n        /* \"#utility.yul\":7201:7235   */\n      gt\n        /* \"#utility.yul\":7198:7260   */\n      or\n        /* \"#utility.yul\":7195:7283   */\n      iszero\n      tag_162\n      jumpi\n        /* \"#utility.yul\":7263:7281   */\n      tag_163\n      tag_142\n      jump\t// in\n    tag_163:\n        /* \"#utility.yul\":7195:7283   */\n    tag_162:\n        /* \"#utility.yul\":7303:7313   */\n      dup1\n        /* \"#utility.yul\":7299:7301   */\n      0x40\n        /* \"#utility.yul\":7292:7314   */\n      mstore\n        /* \"#utility.yul\":7082:7320   */\n      pop\n        /* \"#utility.yul\":7039:7320   */\n      pop\n      pop\n      jump\t// out\n        /* \"#utility.yul\":7326:7506   */\n    tag_159:\n        /* \"#utility.yul\":7374:7451   */\n      0x4e487b7100000000000000000000000000000000000000000000000000000000\n        /* \"#utility.yul\":7371:7372   */\n      0x00\n        /* \"#utility.yul\":7364:7452   */\n      mstore\n        /* \"#utility.yul\":7471:7475   */\n      0x22\n        /* \"#utility.yul\":7468:7469   */\n      0x04\n        /* \"#utility.yul\":7461:7476   */\n      mstore\n        /* \"#utility.yul\":7495:7499   */\n      0x24\n        /* \"#utility.yul\":7492:7493   */\n      0x00\n        /* \"#utility.yul\":7485:7500   */\n      revert\n        /* \"#utility.yul\":7512:7692   */\n    tag_142:\n        /* \"#utility.yul\":7560:7637   */\n      0x4e487b7100000000000000000000000000000000000000000000000000000000\n        /* \"#utility.yul\":7557:7558   */\n      0x00\n        /* \"#utility.yul\":7550:7638   */\n      mstore\n        /* \"#utility.yul\":7657:7661   */\n      0x41\n        /* \"#utility.yul\":7654:7655   */\n      0x04\n        /* \"#utility.yul\":7647:7662   */\n      mstore\n        /* \"#utility.yul\":7681:7685   */\n      0x24\n        /* \"#utility.yul\":7678:7679   */\n      0x00\n        /* \"#utility.yul\":7671:7686   */\n      revert\n        /* \"#utility.yul\":7698:7815   */\n    tag_78:\n        /* \"#utility.yul\":7807:7808   */\n      0x00\n        /* \"#utility.yul\":7804:7805   */\n      dup1\n        /* \"#utility.yul\":7797:7809   */\n      revert\n        /* \"#utility.yul\":7821:7938   */\n    tag_75:\n        /* \"#utility.yul\":7930:7931   */\n      0x00\n        /* \"#utility.yul\":7927:7928   */\n      dup1\n        /* \"#utility.yul\":7920:7932   */\n      revert\n        /* \"#utility.yul\":7944:8061   */\n    tag_81:\n        /* \"#utility.yul\":8053:8054   */\n      0x00\n        /* \"#utility.yul\":8050:8051   */\n      dup1\n        /* \"#utility.yul\":8043:8055   */\n      revert\n        /* \"#utility.yul\":8067:8184   */\n    tag_68:\n        /* \"#utility.yul\":8176:8177   */\n      0x00\n        /* \"#utility.yul\":8173:8174   */\n      dup1\n        /* \"#utility.yul\":8166:8178   */\n      revert\n        /* \"#utility.yul\":8190:8307   */\n    tag_102:\n        /* \"#utility.yul\":8299:8300   */\n      0x00\n        /* \"#utility.yul\":8296:8297   */\n      dup1\n        /* \"#utility.yul\":8289:8301   */\n      revert\n        /* \"#utility.yul\":8313:8430   */\n    tag_94:\n        /* \"#utility.yul\":8422:8423   */\n      0x00\n        /* \"#utility.yul\":8419:8420   */\n      dup1\n        /* \"#utility.yul\":8412:8424   */\n      revert\n        /* \"#utility.yul\":8436:8538   */\n    tag_116:\n        /* \"#utility.yul\":8477:8483   */\n      0x00\n        /* \"#utility.yul\":8528:8530   */\n      0x1f\n        /* \"#utility.yul\":8524:8531   */\n      not\n        /* \"#utility.yul\":8519:8521   */\n      0x1f\n        /* \"#utility.yul\":8512:8517   */\n      dup4\n        /* \"#utility.yul\":8508:8522   */\n      add\n        /* \"#utility.yul\":8504:8532   */\n      and\n        /* \"#utility.yul\":8494:8532   */\n      swap1\n      pop\n        /* \"#utility.yul\":8436:8538   */\n      swap2\n      swap1\n      pop\n      jump\t// out\n        /* \"#utility.yul\":8544:8666   */\n    tag_90:\n        /* \"#utility.yul\":8617:8641   */\n      tag_174\n        /* \"#utility.yul\":8635:8640   */\n      dup2\n        /* \"#utility.yul\":8617:8641   */\n      tag_147\n      jump\t// in\n    tag_174:\n        /* \"#utility.yul\":8610:8615   */\n      dup2\n        /* \"#utility.yul\":8607:8642   */\n      eq\n        /* \"#utility.yul\":8597:8660   */\n      tag_175\n      jumpi\n        /* \"#utility.yul\":8656:8657   */\n      0x00\n        /* \"#utility.yul\":8653:8654   */\n      dup1\n        /* \"#utility.yul\":8646:8658   */\n      revert\n        /* \"#utility.yul\":8597:8660   */\n    tag_175:\n        /* \"#utility.yul\":8544:8666   */\n      pop\n      jump\t// out\n\n    auxdata: 0xa2646970667358221220afeecfeb96b72d750da633bad6fc89e402581f40691adf678871c0e48f16b7ea64736f6c63430008070033\n}\n",
				"bytecode": {
					"linkReferences": {},
					"object": "608060405234801561001057600080fd5b50610965806100206000396000f3fe608060405234801561001057600080fd5b50600436106100415760003560e01c8063179ffe7614610046578063404ebf6c14610076578063f40f48c9146100a7575b600080fd5b610060600480360381019061005b919061058d565b6100c3565b60405161006d9190610737565b60405180910390f35b610090600480360381019061008b919061058d565b610213565b60405161009e929190610700565b60405180910390f35b6100c160048036038101906100bc91906105ba565b610347565b005b6100cb6103f5565b6000808381526020019081526020016000206040518060400160405290816000820180546100f890610828565b80601f016020809104026020016040519081016040528092919081815260200182805461012490610828565b80156101715780601f1061014657610100808354040283529160200191610171565b820191906000526020600020905b81548152906001019060200180831161015457829003601f168201915b5050505050815260200160018201805461018a90610828565b80601f01602080910402602001604051908101604052809291908181526020018280546101b690610828565b80156102035780601f106101d857610100808354040283529160200191610203565b820191906000526020600020905b8154815290600101906020018083116101e657829003601f168201915b5050505050815250509050919050565b600060205280600052604060002060009150905080600001805461023690610828565b80601f016020809104026020016040519081016040528092919081815260200182805461026290610828565b80156102af5780601f10610284576101008083540402835291602001916102af565b820191906000526020600020905b81548152906001019060200180831161029257829003601f168201915b5050505050908060010180546102c490610828565b80601f01602080910402602001604051908101604052809291908181526020018280546102f090610828565b801561033d5780601f106103125761010080835404028352916020019161033d565b820191906000526020600020905b81548152906001019060200180831161032057829003601f168201915b5050505050905082565b604051806040016040528084815260200183838080601f016020809104026020016040519081016040528093929190818152602001838380828437600081840152601f19601f8201169050808301925050505050505081525060008086815260200190815260200160002060008201518160000190805190602001906103ce92919061040f565b5060208201518160010190805190602001906103eb92919061040f565b5090505050505050565b604051806040016040528060608152602001606081525090565b82805461041b90610828565b90600052602060002090601f01602090048101928261043d5760008555610484565b82601f1061045657805160ff1916838001178555610484565b82800160010185558215610484579182015b82811115610483578251825591602001919060010190610468565b5b5090506104919190610495565b5090565b5b808211156104ae576000816000905550600101610496565b5090565b60006104c56104c08461077e565b610759565b9050828152602081018484840111156104e1576104e06108f8565b5b6104ec8482856107e6565b509392505050565b60008083601f84011261050a576105096108ee565b5b8235905067ffffffffffffffff811115610527576105266108e9565b5b602083019150836001820283011115610543576105426108f3565b5b9250929050565b600082601f83011261055f5761055e6108ee565b5b813561056f8482602086016104b2565b91505092915050565b60008135905061058781610918565b92915050565b6000602082840312156105a3576105a2610902565b5b60006105b184828501610578565b91505092915050565b600080600080606085870312156105d4576105d3610902565b5b60006105e287828801610578565b945050602085013567ffffffffffffffff811115610603576106026108fd565b5b61060f8782880161054a565b935050604085013567ffffffffffffffff8111156106305761062f6108fd565b5b61063c878288016104f4565b925092505092959194509250565b6000610655826107af565b61065f81856107ba565b935061066f8185602086016107f5565b61067881610907565b840191505092915050565b600061068e826107af565b61069881856107cb565b93506106a88185602086016107f5565b6106b181610907565b840191505092915050565b600060408301600083015184820360008601526106d9828261064a565b915050602083015184820360208601526106f3828261064a565b9150508091505092915050565b6000604082019050818103600083015261071a8185610683565b9050818103602083015261072e8184610683565b90509392505050565b6000602082019050818103600083015261075181846106bc565b905092915050565b6000610763610774565b905061076f828261085a565b919050565b6000604051905090565b600067ffffffffffffffff821115610799576107986108ba565b5b6107a282610907565b9050602081019050919050565b600081519050919050565b600082825260208201905092915050565b600082825260208201905092915050565b6000819050919050565b82818337600083830152505050565b60005b838110156108135780820151818401526020810190506107f8565b83811115610822576000848401525b50505050565b6000600282049050600182168061084057607f821691505b602082108114156108545761085361088b565b5b50919050565b61086382610907565b810181811067ffffffffffffffff82111715610882576108816108ba565b5b80604052505050565b7f4e487b7100000000000000000000000000000000000000000000000000000000600052602260045260246000fd5b7f4e487b7100000000000000000000000000000000000000000000000000000000600052604160045260246000fd5b600080fd5b600080fd5b600080fd5b600080fd5b600080fd5b600080fd5b6000601f19601f8301169050919050565b610921816107dc565b811461092c57600080fd5b5056fea2646970667358221220afeecfeb96b72d750da633bad6fc89e402581f40691adf678871c0e48f16b7ea64736f6c63430008070033",
					"opcodes": "PUSH1 0x80 PUSH1 0x40 MSTORE CALLVALUE DUP1 ISZERO PUSH2 0x10 JUMPI PUSH1 0x0 DUP1 REVERT JUMPDEST POP PUSH2 0x965 DUP1 PUSH2 0x20 PUSH1 0x0 CODECOPY PUSH1 0x0 RETURN INVALID PUSH1 0x80 PUSH1 0x40 MSTORE CALLVALUE DUP1 ISZERO PUSH2 0x10 JUMPI PUSH1 0x0 DUP1 REVERT JUMPDEST POP PUSH1 0x4 CALLDATASIZE LT PUSH2 0x41 JUMPI PUSH1 0x0 CALLDATALOAD PUSH1 0xE0 SHR DUP1 PUSH4 0x179FFE76 EQ PUSH2 0x46 JUMPI DUP1 PUSH4 0x404EBF6C EQ PUSH2 0x76 JUMPI DUP1 PUSH4 0xF40F48C9 EQ PUSH2 0xA7 JUMPI JUMPDEST PUSH1 0x0 DUP1 REVERT JUMPDEST PUSH2 0x60 PUSH1 0x4 DUP1 CALLDATASIZE SUB DUP2 ADD SWAP1 PUSH2 0x5B SWAP2 SWAP1 PUSH2 0x58D JUMP JUMPDEST PUSH2 0xC3 JUMP JUMPDEST PUSH1 0x40 MLOAD PUSH2 0x6D SWAP2 SWAP1 PUSH2 0x737 JUMP JUMPDEST PUSH1 0x40 MLOAD DUP1 SWAP2 SUB SWAP1 RETURN JUMPDEST PUSH2 0x90 PUSH1 0x4 DUP1 CALLDATASIZE SUB DUP2 ADD SWAP1 PUSH2 0x8B SWAP2 SWAP1 PUSH2 0x58D JUMP JUMPDEST PUSH2 0x213 JUMP JUMPDEST PUSH1 0x40 MLOAD PUSH2 0x9E SWAP3 SWAP2 SWAP1 PUSH2 0x700 JUMP JUMPDEST PUSH1 0x40 MLOAD DUP1 SWAP2 SUB SWAP1 RETURN JUMPDEST PUSH2 0xC1 PUSH1 0x4 DUP1 CALLDATASIZE SUB DUP2 ADD SWAP1 PUSH2 0xBC SWAP2 SWAP1 PUSH2 0x5BA JUMP JUMPDEST PUSH2 0x347 JUMP JUMPDEST STOP JUMPDEST PUSH2 0xCB PUSH2 0x3F5 JUMP JUMPDEST PUSH1 0x0 DUP1 DUP4 DUP2 MSTORE PUSH1 0x20 ADD SWAP1 DUP2 MSTORE PUSH1 0x20 ADD PUSH1 0x0 KECCAK256 PUSH1 0x40 MLOAD DUP1 PUSH1 0x40 ADD PUSH1 0x40 MSTORE SWAP1 DUP2 PUSH1 0x0 DUP3 ADD DUP1 SLOAD PUSH2 0xF8 SWAP1 PUSH2 0x828 JUMP JUMPDEST DUP1 PUSH1 0x1F ADD PUSH1 0x20 DUP1 SWAP2 DIV MUL PUSH1 0x20 ADD PUSH1 0x40 MLOAD SWAP1 DUP2 ADD PUSH1 0x40 MSTORE DUP1 SWAP3 SWAP2 SWAP1 DUP2 DUP2 MSTORE PUSH1 0x20 ADD DUP3 DUP1 SLOAD PUSH2 0x124 SWAP1 PUSH2 0x828 JUMP JUMPDEST DUP1 ISZERO PUSH2 0x171 JUMPI DUP1 PUSH1 0x1F LT PUSH2 0x146 JUMPI PUSH2 0x100 DUP1 DUP4 SLOAD DIV MUL DUP4 MSTORE SWAP2 PUSH1 0x20 ADD SWAP2 PUSH2 0x171 JUMP JUMPDEST DUP3 ADD SWAP2 SWAP1 PUSH1 0x0 MSTORE PUSH1 0x20 PUSH1 0x0 KECCAK256 SWAP1 JUMPDEST DUP2 SLOAD DUP2 MSTORE SWAP1 PUSH1 0x1 ADD SWAP1 PUSH1 0x20 ADD DUP1 DUP4 GT PUSH2 0x154 JUMPI DUP3 SWAP1 SUB PUSH1 0x1F AND DUP3 ADD SWAP2 JUMPDEST POP POP POP POP POP DUP2 MSTORE PUSH1 0x20 ADD PUSH1 0x1 DUP3 ADD DUP1 SLOAD PUSH2 0x18A SWAP1 PUSH2 0x828 JUMP JUMPDEST DUP1 PUSH1 0x1F ADD PUSH1 0x20 DUP1 SWAP2 DIV MUL PUSH1 0x20 ADD PUSH1 0x40 MLOAD SWAP1 DUP2 ADD PUSH1 0x40 MSTORE DUP1 SWAP3 SWAP2 SWAP1 DUP2 DUP2 MSTORE PUSH1 0x20 ADD DUP3 DUP1 SLOAD PUSH2 0x1B6 SWAP1 PUSH2 0x828 JUMP JUMPDEST DUP1 ISZERO PUSH2 0x203 JUMPI DUP1 PUSH1 0x1F LT PUSH2 0x1D8 JUMPI PUSH2 0x100 DUP1 DUP4 SLOAD DIV MUL DUP4 MSTORE SWAP2 PUSH1 0x20 ADD SWAP2 PUSH2 0x203 JUMP JUMPDEST DUP3 ADD SWAP2 SWAP1 PUSH1 0x0 MSTORE PUSH1 0x20 PUSH1 0x0 KECCAK256 SWAP1 JUMPDEST DUP2 SLOAD DUP2 MSTORE SWAP1 PUSH1 0x1 ADD SWAP1 PUSH1 0x20 ADD DUP1 DUP4 GT PUSH2 0x1E6 JUMPI DUP3 SWAP1 SUB PUSH1 0x1F AND DUP3 ADD SWAP2 JUMPDEST POP POP POP POP POP DUP2 MSTORE POP POP SWAP1 POP SWAP2 SWAP1 POP JUMP JUMPDEST PUSH1 0x0 PUSH1 0x20 MSTORE DUP1 PUSH1 0x0 MSTORE PUSH1 0x40 PUSH1 0x0 KECCAK256 PUSH1 0x0 SWAP2 POP SWAP1 POP DUP1 PUSH1 0x0 ADD DUP1 SLOAD PUSH2 0x236 SWAP1 PUSH2 0x828 JUMP JUMPDEST DUP1 PUSH1 0x1F ADD PUSH1 0x20 DUP1 SWAP2 DIV MUL PUSH1 0x20 ADD PUSH1 0x40 MLOAD SWAP1 DUP2 ADD PUSH1 0x40 MSTORE DUP1 SWAP3 SWAP2 SWAP1 DUP2 DUP2 MSTORE PUSH1 0x20 ADD DUP3 DUP1 SLOAD PUSH2 0x262 SWAP1 PUSH2 0x828 JUMP JUMPDEST DUP1 ISZERO PUSH2 0x2AF JUMPI DUP1 PUSH1 0x1F LT PUSH2 0x284 JUMPI PUSH2 0x100 DUP1 DUP4 SLOAD DIV MUL DUP4 MSTORE SWAP2 PUSH1 0x20 ADD SWAP2 PUSH2 0x2AF JUMP JUMPDEST DUP3 ADD SWAP2 SWAP1 PUSH1 0x0 MSTORE PUSH1 0x20 PUSH1 0x0 KECCAK256 SWAP1 JUMPDEST DUP2 SLOAD DUP2 MSTORE SWAP1 PUSH1 0x1 ADD SWAP1 PUSH1 0x20 ADD DUP1 DUP4 GT PUSH2 0x292 JUMPI DUP3 SWAP1 SUB PUSH1 0x1F AND DUP3 ADD SWAP2 JUMPDEST POP POP POP POP POP SWAP1 DUP1 PUSH1 0x1 ADD DUP1 SLOAD PUSH2 0x2C4 SWAP1 PUSH2 0x828 JUMP JUMPDEST DUP1 PUSH1 0x1F ADD PUSH1 0x20 DUP1 SWAP2 DIV MUL PUSH1 0x20 ADD PUSH1 0x40 MLOAD SWAP1 DUP2 ADD PUSH1 0x40 MSTORE DUP1 SWAP3 SWAP2 SWAP1 DUP2 DUP2 MSTORE PUSH1 0x20 ADD DUP3 DUP1 SLOAD PUSH2 0x2F0 SWAP1 PUSH2 0x828 JUMP JUMPDEST DUP1 ISZERO PUSH2 0x33D JUMPI DUP1 PUSH1 0x1F LT PUSH2 0x312 JUMPI PUSH2 0x100 DUP1 DUP4 SLOAD DIV MUL DUP4 MSTORE SWAP2 PUSH1 0x20 ADD SWAP2 PUSH2 0x33D JUMP JUMPDEST DUP3 ADD SWAP2 SWAP1 PUSH1 0x0 MSTORE PUSH1 0x20 PUSH1 0x0 KECCAK256 SWAP1 JUMPDEST DUP2 SLOAD DUP2 MSTORE SWAP1 PUSH1 0x1 ADD SWAP1 PUSH1 0x20 ADD DUP1 DUP4 GT PUSH2 0x320 JUMPI DUP3 SWAP1 SUB PUSH1 0x1F AND DUP3 ADD SWAP2 JUMPDEST POP POP POP POP POP SWAP1 POP DUP3 JUMP JUMPDEST PUSH1 0x40 MLOAD DUP1 PUSH1 0x40 ADD PUSH1 0x40 MSTORE DUP1 DUP5 DUP2 MSTORE PUSH1 0x20 ADD DUP4 DUP4 DUP1 DUP1 PUSH1 0x1F ADD PUSH1 0x20 DUP1 SWAP2 DIV MUL PUSH1 0x20 ADD PUSH1 0x40 MLOAD SWAP1 DUP2 ADD PUSH1 0x40 MSTORE DUP1 SWAP4 SWAP3 SWAP2 SWAP1 DUP2 DUP2 MSTORE PUSH1 0x20 ADD DUP4 DUP4 DUP1 DUP3 DUP5 CALLDATACOPY PUSH1 0x0 DUP2 DUP5 ADD MSTORE PUSH1 0x1F NOT PUSH1 0x1F DUP3 ADD AND SWAP1 POP DUP1 DUP4 ADD SWAP3 POP POP POP POP POP POP POP DUP2 MSTORE POP PUSH1 0x0 DUP1 DUP7 DUP2 MSTORE PUSH1 0x20 ADD SWAP1 DUP2 MSTORE PUSH1 0x20 ADD PUSH1 0x0 KECCAK256 PUSH1 0x0 DUP3 ADD MLOAD DUP2 PUSH1 0x0 ADD SWAP1 DUP1 MLOAD SWAP1 PUSH1 0x20 ADD SWAP1 PUSH2 0x3CE SWAP3 SWAP2 SWAP1 PUSH2 0x40F JUMP JUMPDEST POP PUSH1 0x20 DUP3 ADD MLOAD DUP2 PUSH1 0x1 ADD SWAP1 DUP1 MLOAD SWAP1 PUSH1 0x20 ADD SWAP1 PUSH2 0x3EB SWAP3 SWAP2 SWAP1 PUSH2 0x40F JUMP JUMPDEST POP SWAP1 POP POP POP POP POP POP JUMP JUMPDEST PUSH1 0x40 MLOAD DUP1 PUSH1 0x40 ADD PUSH1 0x40 MSTORE DUP1 PUSH1 0x60 DUP2 MSTORE PUSH1 0x20 ADD PUSH1 0x60 DUP2 MSTORE POP SWAP1 JUMP JUMPDEST DUP3 DUP1 SLOAD PUSH2 0x41B SWAP1 PUSH2 0x828 JUMP JUMPDEST SWAP1 PUSH1 0x0 MSTORE PUSH1 0x20 PUSH1 0x0 KECCAK256 SWAP1 PUSH1 0x1F ADD PUSH1 0x20 SWAP1 DIV DUP2 ADD SWAP3 DUP3 PUSH2 0x43D JUMPI PUSH1 0x0 DUP6 SSTORE PUSH2 0x484 JUMP JUMPDEST DUP3 PUSH1 0x1F LT PUSH2 0x456 JUMPI DUP1 MLOAD PUSH1 0xFF NOT AND DUP4 DUP1 ADD OR DUP6 SSTORE PUSH2 0x484 JUMP JUMPDEST DUP3 DUP1 ADD PUSH1 0x1 ADD DUP6 SSTORE DUP3 ISZERO PUSH2 0x484 JUMPI SWAP2 DUP3 ADD JUMPDEST DUP3 DUP2 GT ISZERO PUSH2 0x483 JUMPI DUP3 MLOAD DUP3 SSTORE SWAP2 PUSH1 0x20 ADD SWAP2 SWAP1 PUSH1 0x1 ADD SWAP1 PUSH2 0x468 JUMP JUMPDEST JUMPDEST POP SWAP1 POP PUSH2 0x491 SWAP2 SWAP1 PUSH2 0x495 JUMP JUMPDEST POP SWAP1 JUMP JUMPDEST JUMPDEST DUP1 DUP3 GT ISZERO PUSH2 0x4AE JUMPI PUSH1 0x0 DUP2 PUSH1 0x0 SWAP1 SSTORE POP PUSH1 0x1 ADD PUSH2 0x496 JUMP JUMPDEST POP SWAP1 JUMP JUMPDEST PUSH1 0x0 PUSH2 0x4C5 PUSH2 0x4C0 DUP5 PUSH2 0x77E JUMP JUMPDEST PUSH2 0x759 JUMP JUMPDEST SWAP1 POP DUP3 DUP2 MSTORE PUSH1 0x20 DUP2 ADD DUP5 DUP5 DUP5 ADD GT ISZERO PUSH2 0x4E1 JUMPI PUSH2 0x4E0 PUSH2 0x8F8 JUMP JUMPDEST JUMPDEST PUSH2 0x4EC DUP5 DUP3 DUP6 PUSH2 0x7E6 JUMP JUMPDEST POP SWAP4 SWAP3 POP POP POP JUMP JUMPDEST PUSH1 0x0 DUP1 DUP4 PUSH1 0x1F DUP5 ADD SLT PUSH2 0x50A JUMPI PUSH2 0x509 PUSH2 0x8EE JUMP JUMPDEST JUMPDEST DUP3 CALLDATALOAD SWAP1 POP PUSH8 0xFFFFFFFFFFFFFFFF DUP2 GT ISZERO PUSH2 0x527 JUMPI PUSH2 0x526 PUSH2 0x8E9 JUMP JUMPDEST JUMPDEST PUSH1 0x20 DUP4 ADD SWAP2 POP DUP4 PUSH1 0x1 DUP3 MUL DUP4 ADD GT ISZERO PUSH2 0x543 JUMPI PUSH2 0x542 PUSH2 0x8F3 JUMP JUMPDEST JUMPDEST SWAP3 POP SWAP3 SWAP1 POP JUMP JUMPDEST PUSH1 0x0 DUP3 PUSH1 0x1F DUP4 ADD SLT PUSH2 0x55F JUMPI PUSH2 0x55E PUSH2 0x8EE JUMP JUMPDEST JUMPDEST DUP2 CALLDATALOAD PUSH2 0x56F DUP5 DUP3 PUSH1 0x20 DUP7 ADD PUSH2 0x4B2 JUMP JUMPDEST SWAP2 POP POP SWAP3 SWAP2 POP POP JUMP JUMPDEST PUSH1 0x0 DUP2 CALLDATALOAD SWAP1 POP PUSH2 0x587 DUP2 PUSH2 0x918 JUMP JUMPDEST SWAP3 SWAP2 POP POP JUMP JUMPDEST PUSH1 0x0 PUSH1 0x20 DUP3 DUP5 SUB SLT ISZERO PUSH2 0x5A3 JUMPI PUSH2 0x5A2 PUSH2 0x902 JUMP JUMPDEST JUMPDEST PUSH1 0x0 PUSH2 0x5B1 DUP5 DUP3 DUP6 ADD PUSH2 0x578 JUMP JUMPDEST SWAP2 POP POP SWAP3 SWAP2 POP POP JUMP JUMPDEST PUSH1 0x0 DUP1 PUSH1 0x0 DUP1 PUSH1 0x60 DUP6 DUP8 SUB SLT ISZERO PUSH2 0x5D4 JUMPI PUSH2 0x5D3 PUSH2 0x902 JUMP JUMPDEST JUMPDEST PUSH1 0x0 PUSH2 0x5E2 DUP8 DUP3 DUP9 ADD PUSH2 0x578 JUMP JUMPDEST SWAP5 POP POP PUSH1 0x20 DUP6 ADD CALLDATALOAD PUSH8 0xFFFFFFFFFFFFFFFF DUP2 GT ISZERO PUSH2 0x603 JUMPI PUSH2 0x602 PUSH2 0x8FD JUMP JUMPDEST JUMPDEST PUSH2 0x60F DUP8 DUP3 DUP9 ADD PUSH2 0x54A JUMP JUMPDEST SWAP4 POP POP PUSH1 0x40 DUP6 ADD CALLDATALOAD PUSH8 0xFFFFFFFFFFFFFFFF DUP2 GT ISZERO PUSH2 0x630 JUMPI PUSH2 0x62F PUSH2 0x8FD JUMP JUMPDEST JUMPDEST PUSH2 0x63C DUP8 DUP3 DUP9 ADD PUSH2 0x4F4 JUMP JUMPDEST SWAP3 POP SWAP3 POP POP SWAP3 SWAP6 SWAP2 SWAP5 POP SWAP3 POP JUMP JUMPDEST PUSH1 0x0 PUSH2 0x655 DUP3 PUSH2 0x7AF JUMP JUMPDEST PUSH2 0x65F DUP2 DUP6 PUSH2 0x7BA JUMP JUMPDEST SWAP4 POP PUSH2 0x66F DUP2 DUP6 PUSH1 0x20 DUP7 ADD PUSH2 0x7F5 JUMP JUMPDEST PUSH2 0x678 DUP2 PUSH2 0x907 JUMP JUMPDEST DUP5 ADD SWAP2 POP POP SWAP3 SWAP2 POP POP JUMP JUMPDEST PUSH1 0x0 PUSH2 0x68E DUP3 PUSH2 0x7AF JUMP JUMPDEST PUSH2 0x698 DUP2 DUP6 PUSH2 0x7CB JUMP JUMPDEST SWAP4 POP PUSH2 0x6A8 DUP2 DUP6 PUSH1 0x20 DUP7 ADD PUSH2 0x7F5 JUMP JUMPDEST PUSH2 0x6B1 DUP2 PUSH2 0x907 JUMP JUMPDEST DUP5 ADD SWAP2 POP POP SWAP3 SWAP2 POP POP JUMP JUMPDEST PUSH1 0x0 PUSH1 0x40 DUP4 ADD PUSH1 0x0 DUP4 ADD MLOAD DUP5 DUP3 SUB PUSH1 0x0 DUP7 ADD MSTORE PUSH2 0x6D9 DUP3 DUP3 PUSH2 0x64A JUMP JUMPDEST SWAP2 POP POP PUSH1 0x20 DUP4 ADD MLOAD DUP5 DUP3 SUB PUSH1 0x20 DUP7 ADD MSTORE PUSH2 0x6F3 DUP3 DUP3 PUSH2 0x64A JUMP JUMPDEST SWAP2 POP POP DUP1 SWAP2 POP POP SWAP3 SWAP2 POP POP JUMP JUMPDEST PUSH1 0x0 PUSH1 0x40 DUP3 ADD SWAP1 POP DUP2 DUP2 SUB PUSH1 0x0 DUP4 ADD MSTORE PUSH2 0x71A DUP2 DUP6 PUSH2 0x683 JUMP JUMPDEST SWAP1 POP DUP2 DUP2 SUB PUSH1 0x20 DUP4 ADD MSTORE PUSH2 0x72E DUP2 DUP5 PUSH2 0x683 JUMP JUMPDEST SWAP1 POP SWAP4 SWAP3 POP POP POP JUMP JUMPDEST PUSH1 0x0 PUSH1 0x20 DUP3 ADD SWAP1 POP DUP2 DUP2 SUB PUSH1 0x0 DUP4 ADD MSTORE PUSH2 0x751 DUP2 DUP5 PUSH2 0x6BC JUMP JUMPDEST SWAP1 POP SWAP3 SWAP2 POP POP JUMP JUMPDEST PUSH1 0x0 PUSH2 0x763 PUSH2 0x774 JUMP JUMPDEST SWAP1 POP PUSH2 0x76F DUP3 DUP3 PUSH2 0x85A JUMP JUMPDEST SWAP2 SWAP1 POP JUMP JUMPDEST PUSH1 0x0 PUSH1 0x40 MLOAD SWAP1 POP SWAP1 JUMP JUMPDEST PUSH1 0x0 PUSH8 0xFFFFFFFFFFFFFFFF DUP3 GT ISZERO PUSH2 0x799 JUMPI PUSH2 0x798 PUSH2 0x8BA JUMP JUMPDEST JUMPDEST PUSH2 0x7A2 DUP3 PUSH2 0x907 JUMP JUMPDEST SWAP1 POP PUSH1 0x20 DUP2 ADD SWAP1 POP SWAP2 SWAP1 POP JUMP JUMPDEST PUSH1 0x0 DUP2 MLOAD SWAP1 POP SWAP2 SWAP1 POP JUMP JUMPDEST PUSH1 0x0 DUP3 DUP3 MSTORE PUSH1 0x20 DUP3 ADD SWAP1 POP SWAP3 SWAP2 POP POP JUMP JUMPDEST PUSH1 0x0 DUP3 DUP3 MSTORE PUSH1 0x20 DUP3 ADD SWAP1 POP SWAP3 SWAP2 POP POP JUMP JUMPDEST PUSH1 0x0 DUP2 SWAP1 POP SWAP2 SWAP1 POP JUMP JUMPDEST DUP3 DUP2 DUP4 CALLDATACOPY PUSH1 0x0 DUP4 DUP4 ADD MSTORE POP POP POP JUMP JUMPDEST PUSH1 0x0 JUMPDEST DUP4 DUP2 LT ISZERO PUSH2 0x813 JUMPI DUP1 DUP3 ADD MLOAD DUP2 DUP5 ADD MSTORE PUSH1 0x20 DUP2 ADD SWAP1 POP PUSH2 0x7F8 JUMP JUMPDEST DUP4 DUP2 GT ISZERO PUSH2 0x822 JUMPI PUSH1 0x0 DUP5 DUP5 ADD MSTORE JUMPDEST POP POP POP POP JUMP JUMPDEST PUSH1 0x0 PUSH1 0x2 DUP3 DIV SWAP1 POP PUSH1 0x1 DUP3 AND DUP1 PUSH2 0x840 JUMPI PUSH1 0x7F DUP3 AND SWAP2 POP JUMPDEST PUSH1 0x20 DUP3 LT DUP2 EQ ISZERO PUSH2 0x854 JUMPI PUSH2 0x853 PUSH2 0x88B JUMP JUMPDEST JUMPDEST POP SWAP2 SWAP1 POP JUMP JUMPDEST PUSH2 0x863 DUP3 PUSH2 0x907 JUMP JUMPDEST DUP2 ADD DUP2 DUP2 LT PUSH8 0xFFFFFFFFFFFFFFFF DUP3 GT OR ISZERO PUSH2 0x882 JUMPI PUSH2 0x881 PUSH2 0x8BA JUMP JUMPDEST JUMPDEST DUP1 PUSH1 0x40 MSTORE POP POP POP JUMP JUMPDEST PUSH32 0x4E487B7100000000000000000000000000000000000000000000000000000000 PUSH1 0x0 MSTORE PUSH1 0x22 PUSH1 0x4 MSTORE PUSH1 0x24 PUSH1 0x0 REVERT JUMPDEST PUSH32 0x4E487B7100000000000000000000000000000000000000000000000000000000 PUSH1 0x0 MSTORE PUSH1 0x41 PUSH1 0x4 MSTORE PUSH1 0x24 PUSH1 0x0 REVERT JUMPDEST PUSH1 0x0 DUP1 REVERT JUMPDEST PUSH1 0x0 DUP1 REVERT JUMPDEST PUSH1 0x0 DUP1 REVERT JUMPDEST PUSH1 0x0 DUP1 REVERT JUMPDEST PUSH1 0x0 DUP1 REVERT JUMPDEST PUSH1 0x0 DUP1 REVERT JUMPDEST PUSH1 0x0 PUSH1 0x1F NOT PUSH1 0x1F DUP4 ADD AND SWAP1 POP SWAP2 SWAP1 POP JUMP JUMPDEST PUSH2 0x921 DUP2 PUSH2 0x7DC JUMP JUMPDEST DUP2 EQ PUSH2 0x92C JUMPI PUSH1 0x0 DUP1 REVERT JUMPDEST POP JUMP INVALID LOG2 PUSH5 0x6970667358 0x22 SLT KECCAK256 0xAF 0xEE 0xCF 0xEB SWAP7 0xB7 0x2D PUSH22 0xDA633BAD6FC89E402581F40691ADF678871C0E48F16 0xB7 0xEA PUSH5 0x736F6C6343 STOP ADDMOD SMOD STOP CALLER "
				},
				"gasEstimates": {
					"creation": {
						"codeDepositCost": "481000",
						"executionCost": "518",
						"totalCost": "481518"
					},
					"external": {
						"addMovie(uint256,string,string)": "infinite",
						"getMovie(uint256)": "infinite",
						"movies(uint256)": "infinite"
					}
				},
				"methodIdentifiers": {
					"addMovie(uint256,string,string)": "f40f48c9",
					"getMovie(uint256)": "179ffe76",
					"movies(uint256)": "404ebf6c"
				}
			},
			"storageLayout": {
				"storage": [
					{
						"astId": 11,
						"contract": "contracts/11_mapping.sol:LearnMapping",
						"label": "movies",
						"offset": 0,
						"slot": "0",
						"type": "t_mapping(t_uint256,t_struct(Movie)6_storage)"
					}
				],
				"types": {
					"t_mapping(t_uint256,t_struct(Movie)6_storage)": {
						"encoding": "mapping",
						"key": "t_uint256",
						"label": "mapping(uint256 => struct LearnMapping.Movie)",
						"numberOfBytes": "32",
						"value": "t_struct(Movie)6_storage"
					},
					"t_string_storage": {
						"encoding": "bytes",
						"label": "string",
						"numberOfBytes": "32"
					},
					"t_struct(Movie)6_storage": {
						"encoding": "inplace",
						"label": "struct LearnMapping.Movie",
						"members": [
							{
								"astId": 3,
								"contract": "contracts/11_mapping.sol:LearnMapping",
								"label": "title",
								"offset": 0,
								"slot": "0",
								"type": "t_string_storage"
							},
							{
								"astId": 5,
								"contract": "contracts/11_mapping.sol:LearnMapping",
								"label": "director",
								"offset": 0,
								"slot": "1",
								"type": "t_string_storage"
							}
						],
						"numberOfBytes": "64"
					},
					"t_uint256": {
						"encoding": "inplace",
						"label": "uint256",
						"numberOfBytes": "32"
					}
				}
			},
			"userdoc": {
				"kind": "user",
				"methods": {},
				"version": 1
			}
		}
	}
}