{
	"contracts/3_debug_assignment,sol.sol": {
		"learnFunctions": {
			"abi": [
				{
					"inputs": [],
					"name": "addNewValues",
					"outputs": [
						{
							"internalType": "uint256",
							"name": "",
							"type": "uint256"
						}
					],
					"stateMutability": "view",
					"type": "function"
				},
				{
					"inputs": [],
					"name": "addValues",
					"outputs": [
						{
							"internalType": "uint256",
							"name": "",
							"type": "uint256"
						}
					],
					"stateMutability": "view",
					"type": "function"
				},
				{
					"inputs": [
						{
							"internalType": "uint256",
							"name": "a",
							"type": "uint256"
						}
					],
					"name": "divideCalculatorByFour",
					"outputs": [
						{
							"internalType": "uint256",
							"name": "",
							"type": "uint256"
						}
					],
					"stateMutability": "view",
					"type": "function"
				},
				{
					"inputs": [
						{
							"internalType": "uint256",
							"name": "a",
							"type": "uint256"
						}
					],
					"name": "multiplyCalculatorByFour",
					"outputs": [
						{
							"internalType": "uint256",
							"name": "",
							"type": "uint256"
						}
					],
					"stateMutability": "view",
					"type": "function"
				},
				{
					"inputs": [
						{
							"internalType": "bool",
							"name": "closedDoor",
							"type": "bool"
						},
						{
							"internalType": "bool",
							"name": "openDoor",
							"type": "bool"
						}
					],
					"name": "remoteControlOpen",
					"outputs": [
						{
							"internalType": "bool",
							"name": "",
							"type": "bool"
						}
					],
					"stateMutability": "view",
					"type": "function"
				}
			],
			"devdoc": {
				"kind": "dev",
				"methods": {},
				"version": 1
			},
			"evm": {
				"assembly": "    /* \"contracts/3_debug_assignment,sol.sol\":586:1287  contract learnFunctions {... */\n  mstore(0x40, 0x80)\n    /* \"contracts/3_debug_assignment,sol.sol\":723:725  45 */\n  0x2d\n    /* \"contracts/3_debug_assignment,sol.sol\":714:725  uint a = 45 */\n  0x00\n  sstore\n    /* \"contracts/3_debug_assignment,sol.sol\":1011:1012  4 */\n  0x04\n    /* \"contracts/3_debug_assignment,sol.sol\":1002:1012  uint b = 4 */\n  0x01\n  sstore\n    /* \"contracts/3_debug_assignment,sol.sol\":586:1287  contract learnFunctions {... */\n  callvalue\n  dup1\n  iszero\n  tag_1\n  jumpi\n  0x00\n  dup1\n  revert\ntag_1:\n  pop\n  dataSize(sub_0)\n  dup1\n  dataOffset(sub_0)\n  0x00\n  codecopy\n  0x00\n  return\nstop\n\nsub_0: assembly {\n        /* \"contracts/3_debug_assignment,sol.sol\":586:1287  contract learnFunctions {... */\n      mstore(0x40, 0x80)\n      callvalue\n      dup1\n      iszero\n      tag_1\n      jumpi\n      0x00\n      dup1\n      revert\n    tag_1:\n      pop\n      jumpi(tag_2, lt(calldatasize, 0x04))\n      shr(0xe0, calldataload(0x00))\n      dup1\n      0x166e7bdd\n      eq\n      tag_3\n      jumpi\n      dup1\n      0x8292888e\n      eq\n      tag_4\n      jumpi\n      dup1\n      0xb93c0937\n      eq\n      tag_5\n      jumpi\n      dup1\n      0xc5a79f70\n      eq\n      tag_6\n      jumpi\n      dup1\n      0xe581bdca\n      eq\n      tag_7\n      jumpi\n    tag_2:\n      0x00\n      dup1\n      revert\n        /* \"contracts/3_debug_assignment,sol.sol\":731:854  function addValues() public view returns (uint) {... */\n    tag_3:\n      tag_8\n      tag_9\n      jump\t// in\n    tag_8:\n      mload(0x40)\n      tag_10\n      swap2\n      swap1\n      tag_11\n      jump\t// in\n    tag_10:\n      mload(0x40)\n      dup1\n      swap2\n      sub\n      swap1\n      return\n        /* \"contracts/3_debug_assignment,sol.sol\":1157:1281  function divideCalculatorByFour(uint a) public view returns (uint) {... */\n    tag_4:\n      tag_12\n      0x04\n      dup1\n      calldatasize\n      sub\n      dup2\n      add\n      swap1\n      tag_13\n      swap2\n      swap1\n      tag_14\n      jump\t// in\n    tag_13:\n      tag_15\n      jump\t// in\n    tag_12:\n      mload(0x40)\n      tag_16\n      swap2\n      swap1\n      tag_11\n      jump\t// in\n    tag_16:\n      mload(0x40)\n      dup1\n      swap2\n      sub\n      swap1\n      return\n        /* \"contracts/3_debug_assignment,sol.sol\":620:709  function remoteControlOpen (bool closedDoor, bool openDoor ) public view returns(bool) {} */\n    tag_5:\n      tag_17\n      0x04\n      dup1\n      calldatasize\n      sub\n      dup2\n      add\n      swap1\n      tag_18\n      swap2\n      swap1\n      tag_19\n      jump\t// in\n    tag_18:\n      tag_20\n      jump\t// in\n    tag_17:\n      mload(0x40)\n      tag_21\n      swap2\n      swap1\n      tag_22\n      jump\t// in\n    tag_21:\n      mload(0x40)\n      dup1\n      swap2\n      sub\n      swap1\n      return\n        /* \"contracts/3_debug_assignment,sol.sol\":1019:1147  function multiplyCalculatorByFour(uint a) public view returns (uint) {... */\n    tag_6:\n      tag_23\n      0x04\n      dup1\n      calldatasize\n      sub\n      dup2\n      add\n      swap1\n      tag_24\n      swap2\n      swap1\n      tag_14\n      jump\t// in\n    tag_24:\n      tag_25\n      jump\t// in\n    tag_23:\n      mload(0x40)\n      tag_26\n      swap2\n      swap1\n      tag_11\n      jump\t// in\n    tag_26:\n      mload(0x40)\n      dup1\n      swap2\n      sub\n      swap1\n      return\n        /* \"contracts/3_debug_assignment,sol.sol\":866:993  function addNewValues() public view returns (uint) {... */\n    tag_7:\n      tag_27\n      tag_28\n      jump\t// in\n    tag_27:\n      mload(0x40)\n      tag_29\n      swap2\n      swap1\n      tag_11\n      jump\t// in\n    tag_29:\n      mload(0x40)\n      dup1\n      swap2\n      sub\n      swap1\n      return\n        /* \"contracts/3_debug_assignment,sol.sol\":731:854  function addValues() public view returns (uint) {... */\n    tag_9:\n        /* \"contracts/3_debug_assignment,sol.sol\":773:777  uint */\n      0x00\n        /* \"contracts/3_debug_assignment,sol.sol\":788:794  uint b */\n      dup1\n        /* \"contracts/3_debug_assignment,sol.sol\":797:798  3 */\n      0x03\n        /* \"contracts/3_debug_assignment,sol.sol\":788:798  uint b = 3 */\n      swap1\n      pop\n        /* \"contracts/3_debug_assignment,sol.sol\":807:818  uint result */\n      0x00\n        /* \"contracts/3_debug_assignment,sol.sol\":825:826  b */\n      dup2\n        /* \"contracts/3_debug_assignment,sol.sol\":821:822  a */\n      sload(0x00)\n        /* \"contracts/3_debug_assignment,sol.sol\":821:826  a + b */\n      tag_31\n      swap2\n      swap1\n      tag_32\n      jump\t// in\n    tag_31:\n        /* \"contracts/3_debug_assignment,sol.sol\":807:826  uint result = a + b */\n      swap1\n      pop\n        /* \"contracts/3_debug_assignment,sol.sol\":842:848  result */\n      dup1\n        /* \"contracts/3_debug_assignment,sol.sol\":835:848  return result */\n      swap3\n      pop\n      pop\n      pop\n        /* \"contracts/3_debug_assignment,sol.sol\":731:854  function addValues() public view returns (uint) {... */\n      swap1\n      jump\t// out\n        /* \"contracts/3_debug_assignment,sol.sol\":1157:1281  function divideCalculatorByFour(uint a) public view returns (uint) {... */\n    tag_15:\n        /* \"contracts/3_debug_assignment,sol.sol\":1218:1222  uint */\n      0x00\n        /* \"contracts/3_debug_assignment,sol.sol\":1234:1245  uint result */\n      dup1\n        /* \"contracts/3_debug_assignment,sol.sol\":1250:1251  b */\n      sload(0x01)\n        /* \"contracts/3_debug_assignment,sol.sol\":1248:1249  a */\n      dup4\n        /* \"contracts/3_debug_assignment,sol.sol\":1248:1251  a/b */\n      tag_34\n      swap2\n      swap1\n      tag_35\n      jump\t// in\n    tag_34:\n        /* \"contracts/3_debug_assignment,sol.sol\":1234:1251  uint result = a/b */\n      swap1\n      pop\n        /* \"contracts/3_debug_assignment,sol.sol\":1268:1274  result */\n      dup1\n        /* \"contracts/3_debug_assignment,sol.sol\":1261:1274  return result */\n      swap2\n      pop\n      pop\n        /* \"contracts/3_debug_assignment,sol.sol\":1157:1281  function divideCalculatorByFour(uint a) public view returns (uint) {... */\n      swap2\n      swap1\n      pop\n      jump\t// out\n        /* \"contracts/3_debug_assignment,sol.sol\":620:709  function remoteControlOpen (bool closedDoor, bool openDoor ) public view returns(bool) {} */\n    tag_20:\n        /* \"contracts/3_debug_assignment,sol.sol\":701:705  bool */\n      0x00\n        /* \"contracts/3_debug_assignment,sol.sol\":620:709  function remoteControlOpen (bool closedDoor, bool openDoor ) public view returns(bool) {} */\n      swap3\n      swap2\n      pop\n      pop\n      jump\t// out\n        /* \"contracts/3_debug_assignment,sol.sol\":1019:1147  function multiplyCalculatorByFour(uint a) public view returns (uint) {... */\n    tag_25:\n        /* \"contracts/3_debug_assignment,sol.sol\":1082:1086  uint */\n      0x00\n        /* \"contracts/3_debug_assignment,sol.sol\":1098:1109  uint result */\n      dup1\n        /* \"contracts/3_debug_assignment,sol.sol\":1116:1117  b */\n      sload(0x01)\n        /* \"contracts/3_debug_assignment,sol.sol\":1112:1113  a */\n      dup4\n        /* \"contracts/3_debug_assignment,sol.sol\":1112:1117  a * b */\n      tag_38\n      swap2\n      swap1\n      tag_39\n      jump\t// in\n    tag_38:\n        /* \"contracts/3_debug_assignment,sol.sol\":1098:1117  uint result = a * b */\n      swap1\n      pop\n        /* \"contracts/3_debug_assignment,sol.sol\":1134:1140  result */\n      dup1\n        /* \"contracts/3_debug_assignment,sol.sol\":1127:1140  return result */\n      swap2\n      pop\n      pop\n        /* \"contracts/3_debug_assignment,sol.sol\":1019:1147  function multiplyCalculatorByFour(uint a) public view returns (uint) {... */\n      swap2\n      swap1\n      pop\n      jump\t// out\n        /* \"contracts/3_debug_assignment,sol.sol\":866:993  function addNewValues() public view returns (uint) {... */\n    tag_28:\n        /* \"contracts/3_debug_assignment,sol.sol\":911:915  uint */\n      0x00\n        /* \"contracts/3_debug_assignment,sol.sol\":926:932  uint b */\n      dup1\n        /* \"contracts/3_debug_assignment,sol.sol\":935:936  5 */\n      0x05\n        /* \"contracts/3_debug_assignment,sol.sol\":926:936  uint b = 5 */\n      swap1\n      pop\n        /* \"contracts/3_debug_assignment,sol.sol\":945:956  uint result */\n      0x00\n        /* \"contracts/3_debug_assignment,sol.sol\":963:964  b */\n      dup2\n        /* \"contracts/3_debug_assignment,sol.sol\":959:960  a */\n      sload(0x00)\n        /* \"contracts/3_debug_assignment,sol.sol\":959:964  a + b */\n      tag_41\n      swap2\n      swap1\n      tag_32\n      jump\t// in\n    tag_41:\n        /* \"contracts/3_debug_assignment,sol.sol\":945:964  uint result = a + b */\n      swap1\n      pop\n        /* \"contracts/3_debug_assignment,sol.sol\":980:986  result */\n      dup1\n        /* \"contracts/3_debug_assignment,sol.sol\":973:986  return result */\n      swap3\n      pop\n      pop\n      pop\n        /* \"contracts/3_debug_assignment,sol.sol\":866:993  function addNewValues() public view returns (uint) {... */\n      swap1\n      jump\t// out\n        /* \"#utility.yul\":7:140   */\n    tag_43:\n        /* \"#utility.yul\":50:55   */\n      0x00\n        /* \"#utility.yul\":88:94   */\n      dup2\n        /* \"#utility.yul\":75:95   */\n      calldataload\n        /* \"#utility.yul\":66:95   */\n      swap1\n      pop\n        /* \"#utility.yul\":104:134   */\n      tag_45\n        /* \"#utility.yul\":128:133   */\n      dup2\n        /* \"#utility.yul\":104:134   */\n      tag_46\n      jump\t// in\n    tag_45:\n        /* \"#utility.yul\":7:140   */\n      swap3\n      swap2\n      pop\n      pop\n      jump\t// out\n        /* \"#utility.yul\":146:285   */\n    tag_47:\n        /* \"#utility.yul\":192:197   */\n      0x00\n        /* \"#utility.yul\":230:236   */\n      dup2\n        /* \"#utility.yul\":217:237   */\n      calldataload\n        /* \"#utility.yul\":208:237   */\n      swap1\n      pop\n        /* \"#utility.yul\":246:279   */\n      tag_49\n        /* \"#utility.yul\":273:278   */\n      dup2\n        /* \"#utility.yul\":246:279   */\n      tag_50\n      jump\t// in\n    tag_49:\n        /* \"#utility.yul\":146:285   */\n      swap3\n      swap2\n      pop\n      pop\n      jump\t// out\n        /* \"#utility.yul\":291:753   */\n    tag_19:\n        /* \"#utility.yul\":353:359   */\n      0x00\n        /* \"#utility.yul\":361:367   */\n      dup1\n        /* \"#utility.yul\":410:412   */\n      0x40\n        /* \"#utility.yul\":398:407   */\n      dup4\n        /* \"#utility.yul\":389:396   */\n      dup6\n        /* \"#utility.yul\":385:408   */\n      sub\n        /* \"#utility.yul\":381:413   */\n      slt\n        /* \"#utility.yul\":378:497   */\n      iszero\n      tag_52\n      jumpi\n        /* \"#utility.yul\":416:495   */\n      tag_53\n      tag_54\n      jump\t// in\n    tag_53:\n        /* \"#utility.yul\":378:497   */\n    tag_52:\n        /* \"#utility.yul\":536:537   */\n      0x00\n        /* \"#utility.yul\":561:611   */\n      tag_55\n        /* \"#utility.yul\":603:610   */\n      dup6\n        /* \"#utility.yul\":594:600   */\n      dup3\n        /* \"#utility.yul\":583:592   */\n      dup7\n        /* \"#utility.yul\":579:601   */\n      add\n        /* \"#utility.yul\":561:611   */\n      tag_43\n      jump\t// in\n    tag_55:\n        /* \"#utility.yul\":551:611   */\n      swap3\n      pop\n        /* \"#utility.yul\":507:621   */\n      pop\n        /* \"#utility.yul\":660:662   */\n      0x20\n        /* \"#utility.yul\":686:736   */\n      tag_56\n        /* \"#utility.yul\":728:735   */\n      dup6\n        /* \"#utility.yul\":719:725   */\n      dup3\n        /* \"#utility.yul\":708:717   */\n      dup7\n        /* \"#utility.yul\":704:726   */\n      add\n        /* \"#utility.yul\":686:736   */\n      tag_43\n      jump\t// in\n    tag_56:\n        /* \"#utility.yul\":676:736   */\n      swap2\n      pop\n        /* \"#utility.yul\":631:746   */\n      pop\n        /* \"#utility.yul\":291:753   */\n      swap3\n      pop\n      swap3\n      swap1\n      pop\n      jump\t// out\n        /* \"#utility.yul\":759:1088   */\n    tag_14:\n        /* \"#utility.yul\":818:824   */\n      0x00\n        /* \"#utility.yul\":867:869   */\n      0x20\n        /* \"#utility.yul\":855:864   */\n      dup3\n        /* \"#utility.yul\":846:853   */\n      dup5\n        /* \"#utility.yul\":842:865   */\n      sub\n        /* \"#utility.yul\":838:870   */\n      slt\n        /* \"#utility.yul\":835:954   */\n      iszero\n      tag_58\n      jumpi\n        /* \"#utility.yul\":873:952   */\n      tag_59\n      tag_54\n      jump\t// in\n    tag_59:\n        /* \"#utility.yul\":835:954   */\n    tag_58:\n        /* \"#utility.yul\":993:994   */\n      0x00\n        /* \"#utility.yul\":1018:1071   */\n      tag_60\n        /* \"#utility.yul\":1063:1070   */\n      dup5\n        /* \"#utility.yul\":1054:1060   */\n      dup3\n        /* \"#utility.yul\":1043:1052   */\n      dup6\n        /* \"#utility.yul\":1039:1061   */\n      add\n        /* \"#utility.yul\":1018:1071   */\n      tag_47\n      jump\t// in\n    tag_60:\n        /* \"#utility.yul\":1008:1071   */\n      swap2\n      pop\n        /* \"#utility.yul\":964:1081   */\n      pop\n        /* \"#utility.yul\":759:1088   */\n      swap3\n      swap2\n      pop\n      pop\n      jump\t// out\n        /* \"#utility.yul\":1094:1203   */\n    tag_61:\n        /* \"#utility.yul\":1175:1196   */\n      tag_63\n        /* \"#utility.yul\":1190:1195   */\n      dup2\n        /* \"#utility.yul\":1175:1196   */\n      tag_64\n      jump\t// in\n    tag_63:\n        /* \"#utility.yul\":1170:1173   */\n      dup3\n        /* \"#utility.yul\":1163:1197   */\n      mstore\n        /* \"#utility.yul\":1094:1203   */\n      pop\n      pop\n      jump\t// out\n        /* \"#utility.yul\":1209:1327   */\n    tag_65:\n        /* \"#utility.yul\":1296:1320   */\n      tag_67\n        /* \"#utility.yul\":1314:1319   */\n      dup2\n        /* \"#utility.yul\":1296:1320   */\n      tag_68\n      jump\t// in\n    tag_67:\n        /* \"#utility.yul\":1291:1294   */\n      dup3\n        /* \"#utility.yul\":1284:1321   */\n      mstore\n        /* \"#utility.yul\":1209:1327   */\n      pop\n      pop\n      jump\t// out\n        /* \"#utility.yul\":1333:1543   */\n    tag_22:\n        /* \"#utility.yul\":1420:1424   */\n      0x00\n        /* \"#utility.yul\":1458:1460   */\n      0x20\n        /* \"#utility.yul\":1447:1456   */\n      dup3\n        /* \"#utility.yul\":1443:1461   */\n      add\n        /* \"#utility.yul\":1435:1461   */\n      swap1\n      pop\n        /* \"#utility.yul\":1471:1536   */\n      tag_70\n        /* \"#utility.yul\":1533:1534   */\n      0x00\n        /* \"#utility.yul\":1522:1531   */\n      dup4\n        /* \"#utility.yul\":1518:1535   */\n      add\n        /* \"#utility.yul\":1509:1515   */\n      dup5\n        /* \"#utility.yul\":1471:1536   */\n      tag_61\n      jump\t// in\n    tag_70:\n        /* \"#utility.yul\":1333:1543   */\n      swap3\n      swap2\n      pop\n      pop\n      jump\t// out\n        /* \"#utility.yul\":1549:1771   */\n    tag_11:\n        /* \"#utility.yul\":1642:1646   */\n      0x00\n        /* \"#utility.yul\":1680:1682   */\n      0x20\n        /* \"#utility.yul\":1669:1678   */\n      dup3\n        /* \"#utility.yul\":1665:1683   */\n      add\n        /* \"#utility.yul\":1657:1683   */\n      swap1\n      pop\n        /* \"#utility.yul\":1693:1764   */\n      tag_72\n        /* \"#utility.yul\":1761:1762   */\n      0x00\n        /* \"#utility.yul\":1750:1759   */\n      dup4\n        /* \"#utility.yul\":1746:1763   */\n      add\n        /* \"#utility.yul\":1737:1743   */\n      dup5\n        /* \"#utility.yul\":1693:1764   */\n      tag_65\n      jump\t// in\n    tag_72:\n        /* \"#utility.yul\":1549:1771   */\n      swap3\n      swap2\n      pop\n      pop\n      jump\t// out\n        /* \"#utility.yul\":1858:2163   */\n    tag_32:\n        /* \"#utility.yul\":1898:1901   */\n      0x00\n        /* \"#utility.yul\":1917:1937   */\n      tag_76\n        /* \"#utility.yul\":1935:1936   */\n      dup3\n        /* \"#utility.yul\":1917:1937   */\n      tag_68\n      jump\t// in\n    tag_76:\n        /* \"#utility.yul\":1912:1937   */\n      swap2\n      pop\n        /* \"#utility.yul\":1951:1971   */\n      tag_77\n        /* \"#utility.yul\":1969:1970   */\n      dup4\n        /* \"#utility.yul\":1951:1971   */\n      tag_68\n      jump\t// in\n    tag_77:\n        /* \"#utility.yul\":1946:1971   */\n      swap3\n      pop\n        /* \"#utility.yul\":2105:2106   */\n      dup3\n        /* \"#utility.yul\":2037:2103   */\n      0xffffffffffffffffffffffffffffffffffffffffffffffffffffffffffffffff\n        /* \"#utility.yul\":2033:2107   */\n      sub\n        /* \"#utility.yul\":2030:2031   */\n      dup3\n        /* \"#utility.yul\":2027:2108   */\n      gt\n        /* \"#utility.yul\":2024:2131   */\n      iszero\n      tag_78\n      jumpi\n        /* \"#utility.yul\":2111:2129   */\n      tag_79\n      tag_80\n      jump\t// in\n    tag_79:\n        /* \"#utility.yul\":2024:2131   */\n    tag_78:\n        /* \"#utility.yul\":2155:2156   */\n      dup3\n        /* \"#utility.yul\":2152:2153   */\n      dup3\n        /* \"#utility.yul\":2148:2157   */\n      add\n        /* \"#utility.yul\":2141:2157   */\n      swap1\n      pop\n        /* \"#utility.yul\":1858:2163   */\n      swap3\n      swap2\n      pop\n      pop\n      jump\t// out\n        /* \"#utility.yul\":2169:2354   */\n    tag_35:\n        /* \"#utility.yul\":2209:2210   */\n      0x00\n        /* \"#utility.yul\":2226:2246   */\n      tag_82\n        /* \"#utility.yul\":2244:2245   */\n      dup3\n        /* \"#utility.yul\":2226:2246   */\n      tag_68\n      jump\t// in\n    tag_82:\n        /* \"#utility.yul\":2221:2246   */\n      swap2\n      pop\n        /* \"#utility.yul\":2260:2280   */\n      tag_83\n        /* \"#utility.yul\":2278:2279   */\n      dup4\n        /* \"#utility.yul\":2260:2280   */\n      tag_68\n      jump\t// in\n    tag_83:\n        /* \"#utility.yul\":2255:2280   */\n      swap3\n      pop\n        /* \"#utility.yul\":2299:2300   */\n      dup3\n        /* \"#utility.yul\":2289:2324   */\n      tag_84\n      jumpi\n        /* \"#utility.yul\":2304:2322   */\n      tag_85\n      tag_86\n      jump\t// in\n    tag_85:\n        /* \"#utility.yul\":2289:2324   */\n    tag_84:\n        /* \"#utility.yul\":2346:2347   */\n      dup3\n        /* \"#utility.yul\":2343:2344   */\n      dup3\n        /* \"#utility.yul\":2339:2348   */\n      div\n        /* \"#utility.yul\":2334:2348   */\n      swap1\n      pop\n        /* \"#utility.yul\":2169:2354   */\n      swap3\n      swap2\n      pop\n      pop\n      jump\t// out\n        /* \"#utility.yul\":2360:2708   */\n    tag_39:\n        /* \"#utility.yul\":2400:2407   */\n      0x00\n        /* \"#utility.yul\":2423:2443   */\n      tag_88\n        /* \"#utility.yul\":2441:2442   */\n      dup3\n        /* \"#utility.yul\":2423:2443   */\n      tag_68\n      jump\t// in\n    tag_88:\n        /* \"#utility.yul\":2418:2443   */\n      swap2\n      pop\n        /* \"#utility.yul\":2457:2477   */\n      tag_89\n        /* \"#utility.yul\":2475:2476   */\n      dup4\n        /* \"#utility.yul\":2457:2477   */\n      tag_68\n      jump\t// in\n    tag_89:\n        /* \"#utility.yul\":2452:2477   */\n      swap3\n      pop\n        /* \"#utility.yul\":2645:2646   */\n      dup2\n        /* \"#utility.yul\":2577:2643   */\n      0xffffffffffffffffffffffffffffffffffffffffffffffffffffffffffffffff\n        /* \"#utility.yul\":2573:2647   */\n      div\n        /* \"#utility.yul\":2570:2571   */\n      dup4\n        /* \"#utility.yul\":2567:2648   */\n      gt\n        /* \"#utility.yul\":2562:2563   */\n      dup3\n        /* \"#utility.yul\":2555:2564   */\n      iszero\n        /* \"#utility.yul\":2548:2565   */\n      iszero\n        /* \"#utility.yul\":2544:2649   */\n      and\n        /* \"#utility.yul\":2541:2672   */\n      iszero\n      tag_90\n      jumpi\n        /* \"#utility.yul\":2652:2670   */\n      tag_91\n      tag_80\n      jump\t// in\n    tag_91:\n        /* \"#utility.yul\":2541:2672   */\n    tag_90:\n        /* \"#utility.yul\":2700:2701   */\n      dup3\n        /* \"#utility.yul\":2697:2698   */\n      dup3\n        /* \"#utility.yul\":2693:2702   */\n      mul\n        /* \"#utility.yul\":2682:2702   */\n      swap1\n      pop\n        /* \"#utility.yul\":2360:2708   */\n      swap3\n      swap2\n      pop\n      pop\n      jump\t// out\n        /* \"#utility.yul\":2714:2804   */\n    tag_64:\n        /* \"#utility.yul\":2748:2755   */\n      0x00\n        /* \"#utility.yul\":2791:2796   */\n      dup2\n        /* \"#utility.yul\":2784:2797   */\n      iszero\n        /* \"#utility.yul\":2777:2798   */\n      iszero\n        /* \"#utility.yul\":2766:2798   */\n      swap1\n      pop\n        /* \"#utility.yul\":2714:2804   */\n      swap2\n      swap1\n      pop\n      jump\t// out\n        /* \"#utility.yul\":2810:2887   */\n    tag_68:\n        /* \"#utility.yul\":2847:2854   */\n      0x00\n        /* \"#utility.yul\":2876:2881   */\n      dup2\n        /* \"#utility.yul\":2865:2881   */\n      swap1\n      pop\n        /* \"#utility.yul\":2810:2887   */\n      swap2\n      swap1\n      pop\n      jump\t// out\n        /* \"#utility.yul\":2893:3073   */\n    tag_80:\n        /* \"#utility.yul\":2941:3018   */\n      0x4e487b7100000000000000000000000000000000000000000000000000000000\n        /* \"#utility.yul\":2938:2939   */\n      0x00\n        /* \"#utility.yul\":2931:3019   */\n      mstore\n        /* \"#utility.yul\":3038:3042   */\n      0x11\n        /* \"#utility.yul\":3035:3036   */\n      0x04\n        /* \"#utility.yul\":3028:3043   */\n      mstore\n        /* \"#utility.yul\":3062:3066   */\n      0x24\n        /* \"#utility.yul\":3059:3060   */\n      0x00\n        /* \"#utility.yul\":3052:3067   */\n      revert\n        /* \"#utility.yul\":3079:3259   */\n    tag_86:\n        /* \"#utility.yul\":3127:3204   */\n      0x4e487b7100000000000000000000000000000000000000000000000000000000\n        /* \"#utility.yul\":3124:3125   */\n      0x00\n        /* \"#utility.yul\":3117:3205   */\n      mstore\n        /* \"#utility.yul\":3224:3228   */\n      0x12\n        /* \"#utility.yul\":3221:3222   */\n      0x04\n        /* \"#utility.yul\":3214:3229   */\n      mstore\n        /* \"#utility.yul\":3248:3252   */\n      0x24\n        /* \"#utility.yul\":3245:3246   */\n      0x00\n        /* \"#utility.yul\":3238:3253   */\n      revert\n        /* \"#utility.yul\":3388:3505   */\n    tag_54:\n        /* \"#utility.yul\":3497:3498   */\n      0x00\n        /* \"#utility.yul\":3494:3495   */\n      dup1\n        /* \"#utility.yul\":3487:3499   */\n      revert\n        /* \"#utility.yul\":3511:3627   */\n    tag_46:\n        /* \"#utility.yul\":3581:3602   */\n      tag_100\n        /* \"#utility.yul\":3596:3601   */\n      dup2\n        /* \"#utility.yul\":3581:3602   */\n      tag_64\n      jump\t// in\n    tag_100:\n        /* \"#utility.yul\":3574:3579   */\n      dup2\n        /* \"#utility.yul\":3571:3603   */\n      eq\n        /* \"#utility.yul\":3561:3621   */\n      tag_101\n      jumpi\n        /* \"#utility.yul\":3617:3618   */\n      0x00\n        /* \"#utility.yul\":3614:3615   */\n      dup1\n        /* \"#utility.yul\":3607:3619   */\n      revert\n        /* \"#utility.yul\":3561:3621   */\n    tag_101:\n        /* \"#utility.yul\":3511:3627   */\n      pop\n      jump\t// out\n        /* \"#utility.yul\":3633:3755   */\n    tag_50:\n        /* \"#utility.yul\":3706:3730   */\n      tag_103\n        /* \"#utility.yul\":3724:3729   */\n      dup2\n        /* \"#utility.yul\":3706:3730   */\n      tag_68\n      jump\t// in\n    tag_103:\n        /* \"#utility.yul\":3699:3704   */\n      dup2\n        /* \"#utility.yul\":3696:3731   */\n      eq\n        /* \"#utility.yul\":3686:3749   */\n      tag_104\n      jumpi\n        /* \"#utility.yul\":3745:3746   */\n      0x00\n        /* \"#utility.yul\":3742:3743   */\n      dup1\n        /* \"#utility.yul\":3735:3747   */\n      revert\n        /* \"#utility.yul\":3686:3749   */\n    tag_104:\n        /* \"#utility.yul\":3633:3755   */\n      pop\n      jump\t// out\n\n    auxdata: 0xa26469706673582212202d14a99ce32659a6bf165b706022c2541007de7da164013565e9eef9fecfb05664736f6c63430008070033\n}\n",
				"bytecode": {
					"linkReferences": {},
					"object": "6080604052602d600055600460015534801561001a57600080fd5b506104538061002a6000396000f3fe608060405234801561001057600080fd5b50600436106100575760003560e01c8063166e7bdd1461005c5780638292888e1461007a578063b93c0937146100aa578063c5a79f70146100da578063e581bdca1461010a575b600080fd5b610064610128565b604051610071919061027a565b60405180910390f35b610094600480360381019061008f9190610214565b610149565b6040516100a1919061027a565b60405180910390f35b6100c460048036038101906100bf91906101d4565b610165565b6040516100d1919061025f565b60405180910390f35b6100f460048036038101906100ef9190610214565b61016d565b604051610101919061027a565b60405180910390f35b610112610189565b60405161011f919061027a565b60405180910390f35b6000806003905060008160005461013f9190610295565b9050809250505090565b6000806001548361015a91906102eb565b905080915050919050565b600092915050565b6000806001548361017e919061031c565b905080915050919050565b600080600590506000816000546101a09190610295565b9050809250505090565b6000813590506101b9816103ef565b92915050565b6000813590506101ce81610406565b92915050565b600080604083850312156101eb576101ea6103ea565b5b60006101f9858286016101aa565b925050602061020a858286016101aa565b9150509250929050565b60006020828403121561022a576102296103ea565b5b6000610238848285016101bf565b91505092915050565b61024a81610376565b82525050565b61025981610382565b82525050565b60006020820190506102746000830184610241565b92915050565b600060208201905061028f6000830184610250565b92915050565b60006102a082610382565b91506102ab83610382565b9250827fffffffffffffffffffffffffffffffffffffffffffffffffffffffffffffffff038211156102e0576102df61038c565b5b828201905092915050565b60006102f682610382565b915061030183610382565b925082610311576103106103bb565b5b828204905092915050565b600061032782610382565b915061033283610382565b9250817fffffffffffffffffffffffffffffffffffffffffffffffffffffffffffffffff048311821515161561036b5761036a61038c565b5b828202905092915050565b60008115159050919050565b6000819050919050565b7f4e487b7100000000000000000000000000000000000000000000000000000000600052601160045260246000fd5b7f4e487b7100000000000000000000000000000000000000000000000000000000600052601260045260246000fd5b600080fd5b6103f881610376565b811461040357600080fd5b50565b61040f81610382565b811461041a57600080fd5b5056fea26469706673582212202d14a99ce32659a6bf165b706022c2541007de7da164013565e9eef9fecfb05664736f6c63430008070033",
					"opcodes": "PUSH1 0x80 PUSH1 0x40 MSTORE PUSH1 0x2D PUSH1 0x0 SSTORE PUSH1 0x4 PUSH1 0x1 SSTORE CALLVALUE DUP1 ISZERO PUSH2 0x1A JUMPI PUSH1 0x0 DUP1 REVERT JUMPDEST POP PUSH2 0x453 DUP1 PUSH2 0x2A PUSH1 0x0 CODECOPY PUSH1 0x0 RETURN INVALID PUSH1 0x80 PUSH1 0x40 MSTORE CALLVALUE DUP1 ISZERO PUSH2 0x10 JUMPI PUSH1 0x0 DUP1 REVERT JUMPDEST POP PUSH1 0x4 CALLDATASIZE LT PUSH2 0x57 JUMPI PUSH1 0x0 CALLDATALOAD PUSH1 0xE0 SHR DUP1 PUSH4 0x166E7BDD EQ PUSH2 0x5C JUMPI DUP1 PUSH4 0x8292888E EQ PUSH2 0x7A JUMPI DUP1 PUSH4 0xB93C0937 EQ PUSH2 0xAA JUMPI DUP1 PUSH4 0xC5A79F70 EQ PUSH2 0xDA JUMPI DUP1 PUSH4 0xE581BDCA EQ PUSH2 0x10A JUMPI JUMPDEST PUSH1 0x0 DUP1 REVERT JUMPDEST PUSH2 0x64 PUSH2 0x128 JUMP JUMPDEST PUSH1 0x40 MLOAD PUSH2 0x71 SWAP2 SWAP1 PUSH2 0x27A JUMP JUMPDEST PUSH1 0x40 MLOAD DUP1 SWAP2 SUB SWAP1 RETURN JUMPDEST PUSH2 0x94 PUSH1 0x4 DUP1 CALLDATASIZE SUB DUP2 ADD SWAP1 PUSH2 0x8F SWAP2 SWAP1 PUSH2 0x214 JUMP JUMPDEST PUSH2 0x149 JUMP JUMPDEST PUSH1 0x40 MLOAD PUSH2 0xA1 SWAP2 SWAP1 PUSH2 0x27A JUMP JUMPDEST PUSH1 0x40 MLOAD DUP1 SWAP2 SUB SWAP1 RETURN JUMPDEST PUSH2 0xC4 PUSH1 0x4 DUP1 CALLDATASIZE SUB DUP2 ADD SWAP1 PUSH2 0xBF SWAP2 SWAP1 PUSH2 0x1D4 JUMP JUMPDEST PUSH2 0x165 JUMP JUMPDEST PUSH1 0x40 MLOAD PUSH2 0xD1 SWAP2 SWAP1 PUSH2 0x25F JUMP JUMPDEST PUSH1 0x40 MLOAD DUP1 SWAP2 SUB SWAP1 RETURN JUMPDEST PUSH2 0xF4 PUSH1 0x4 DUP1 CALLDATASIZE SUB DUP2 ADD SWAP1 PUSH2 0xEF SWAP2 SWAP1 PUSH2 0x214 JUMP JUMPDEST PUSH2 0x16D JUMP JUMPDEST PUSH1 0x40 MLOAD PUSH2 0x101 SWAP2 SWAP1 PUSH2 0x27A JUMP JUMPDEST PUSH1 0x40 MLOAD DUP1 SWAP2 SUB SWAP1 RETURN JUMPDEST PUSH2 0x112 PUSH2 0x189 JUMP JUMPDEST PUSH1 0x40 MLOAD PUSH2 0x11F SWAP2 SWAP1 PUSH2 0x27A JUMP JUMPDEST PUSH1 0x40 MLOAD DUP1 SWAP2 SUB SWAP1 RETURN JUMPDEST PUSH1 0x0 DUP1 PUSH1 0x3 SWAP1 POP PUSH1 0x0 DUP2 PUSH1 0x0 SLOAD PUSH2 0x13F SWAP2 SWAP1 PUSH2 0x295 JUMP JUMPDEST SWAP1 POP DUP1 SWAP3 POP POP POP SWAP1 JUMP JUMPDEST PUSH1 0x0 DUP1 PUSH1 0x1 SLOAD DUP4 PUSH2 0x15A SWAP2 SWAP1 PUSH2 0x2EB JUMP JUMPDEST SWAP1 POP DUP1 SWAP2 POP POP SWAP2 SWAP1 POP JUMP JUMPDEST PUSH1 0x0 SWAP3 SWAP2 POP POP JUMP JUMPDEST PUSH1 0x0 DUP1 PUSH1 0x1 SLOAD DUP4 PUSH2 0x17E SWAP2 SWAP1 PUSH2 0x31C JUMP JUMPDEST SWAP1 POP DUP1 SWAP2 POP POP SWAP2 SWAP1 POP JUMP JUMPDEST PUSH1 0x0 DUP1 PUSH1 0x5 SWAP1 POP PUSH1 0x0 DUP2 PUSH1 0x0 SLOAD PUSH2 0x1A0 SWAP2 SWAP1 PUSH2 0x295 JUMP JUMPDEST SWAP1 POP DUP1 SWAP3 POP POP POP SWAP1 JUMP JUMPDEST PUSH1 0x0 DUP2 CALLDATALOAD SWAP1 POP PUSH2 0x1B9 DUP2 PUSH2 0x3EF JUMP JUMPDEST SWAP3 SWAP2 POP POP JUMP JUMPDEST PUSH1 0x0 DUP2 CALLDATALOAD SWAP1 POP PUSH2 0x1CE DUP2 PUSH2 0x406 JUMP JUMPDEST SWAP3 SWAP2 POP POP JUMP JUMPDEST PUSH1 0x0 DUP1 PUSH1 0x40 DUP4 DUP6 SUB SLT ISZERO PUSH2 0x1EB JUMPI PUSH2 0x1EA PUSH2 0x3EA JUMP JUMPDEST JUMPDEST PUSH1 0x0 PUSH2 0x1F9 DUP6 DUP3 DUP7 ADD PUSH2 0x1AA JUMP JUMPDEST SWAP3 POP POP PUSH1 0x20 PUSH2 0x20A DUP6 DUP3 DUP7 ADD PUSH2 0x1AA JUMP JUMPDEST SWAP2 POP POP SWAP3 POP SWAP3 SWAP1 POP JUMP JUMPDEST PUSH1 0x0 PUSH1 0x20 DUP3 DUP5 SUB SLT ISZERO PUSH2 0x22A JUMPI PUSH2 0x229 PUSH2 0x3EA JUMP JUMPDEST JUMPDEST PUSH1 0x0 PUSH2 0x238 DUP5 DUP3 DUP6 ADD PUSH2 0x1BF JUMP JUMPDEST SWAP2 POP POP SWAP3 SWAP2 POP POP JUMP JUMPDEST PUSH2 0x24A DUP2 PUSH2 0x376 JUMP JUMPDEST DUP3 MSTORE POP POP JUMP JUMPDEST PUSH2 0x259 DUP2 PUSH2 0x382 JUMP JUMPDEST DUP3 MSTORE POP POP JUMP JUMPDEST PUSH1 0x0 PUSH1 0x20 DUP3 ADD SWAP1 POP PUSH2 0x274 PUSH1 0x0 DUP4 ADD DUP5 PUSH2 0x241 JUMP JUMPDEST SWAP3 SWAP2 POP POP JUMP JUMPDEST PUSH1 0x0 PUSH1 0x20 DUP3 ADD SWAP1 POP PUSH2 0x28F PUSH1 0x0 DUP4 ADD DUP5 PUSH2 0x250 JUMP JUMPDEST SWAP3 SWAP2 POP POP JUMP JUMPDEST PUSH1 0x0 PUSH2 0x2A0 DUP3 PUSH2 0x382 JUMP JUMPDEST SWAP2 POP PUSH2 0x2AB DUP4 PUSH2 0x382 JUMP JUMPDEST SWAP3 POP DUP3 PUSH32 0xFFFFFFFFFFFFFFFFFFFFFFFFFFFFFFFFFFFFFFFFFFFFFFFFFFFFFFFFFFFFFFFF SUB DUP3 GT ISZERO PUSH2 0x2E0 JUMPI PUSH2 0x2DF PUSH2 0x38C JUMP JUMPDEST JUMPDEST DUP3 DUP3 ADD SWAP1 POP SWAP3 SWAP2 POP POP JUMP JUMPDEST PUSH1 0x0 PUSH2 0x2F6 DUP3 PUSH2 0x382 JUMP JUMPDEST SWAP2 POP PUSH2 0x301 DUP4 PUSH2 0x382 JUMP JUMPDEST SWAP3 POP DUP3 PUSH2 0x311 JUMPI PUSH2 0x310 PUSH2 0x3BB JUMP JUMPDEST JUMPDEST DUP3 DUP3 DIV SWAP1 POP SWAP3 SWAP2 POP POP JUMP JUMPDEST PUSH1 0x0 PUSH2 0x327 DUP3 PUSH2 0x382 JUMP JUMPDEST SWAP2 POP PUSH2 0x332 DUP4 PUSH2 0x382 JUMP JUMPDEST SWAP3 POP DUP2 PUSH32 0xFFFFFFFFFFFFFFFFFFFFFFFFFFFFFFFFFFFFFFFFFFFFFFFFFFFFFFFFFFFFFFFF DIV DUP4 GT DUP3 ISZERO ISZERO AND ISZERO PUSH2 0x36B JUMPI PUSH2 0x36A PUSH2 0x38C JUMP JUMPDEST JUMPDEST DUP3 DUP3 MUL SWAP1 POP SWAP3 SWAP2 POP POP JUMP JUMPDEST PUSH1 0x0 DUP2 ISZERO ISZERO SWAP1 POP SWAP2 SWAP1 POP JUMP JUMPDEST PUSH1 0x0 DUP2 SWAP1 POP SWAP2 SWAP1 POP JUMP JUMPDEST PUSH32 0x4E487B7100000000000000000000000000000000000000000000000000000000 PUSH1 0x0 MSTORE PUSH1 0x11 PUSH1 0x4 MSTORE PUSH1 0x24 PUSH1 0x0 REVERT JUMPDEST PUSH32 0x4E487B7100000000000000000000000000000000000000000000000000000000 PUSH1 0x0 MSTORE PUSH1 0x12 PUSH1 0x4 MSTORE PUSH1 0x24 PUSH1 0x0 REVERT JUMPDEST PUSH1 0x0 DUP1 REVERT JUMPDEST PUSH2 0x3F8 DUP2 PUSH2 0x376 JUMP JUMPDEST DUP2 EQ PUSH2 0x403 JUMPI PUSH1 0x0 DUP1 REVERT JUMPDEST POP JUMP JUMPDEST PUSH2 0x40F DUP2 PUSH2 0x382 JUMP JUMPDEST DUP2 EQ PUSH2 0x41A JUMPI PUSH1 0x0 DUP1 REVERT JUMPDEST POP JUMP INVALID LOG2 PUSH5 0x6970667358 0x22 SLT KECCAK256 0x2D EQ 0xA9 SWAP13 0xE3 0x26 MSIZE 0xA6 0xBF AND JUMPDEST PUSH17 0x6022C2541007DE7DA164013565E9EEF9FE 0xCF 0xB0 JUMP PUSH5 0x736F6C6343 STOP ADDMOD SMOD STOP CALLER "
				},
				"gasEstimates": {
					"creation": {
						"codeDepositCost": "221400",
						"executionCost": "44475",
						"totalCost": "265875"
					},
					"external": {
						"addNewValues()": "infinite",
						"addValues()": "infinite",
						"divideCalculatorByFour(uint256)": "infinite",
						"multiplyCalculatorByFour(uint256)": "infinite",
						"remoteControlOpen(bool,bool)": "infinite"
					}
				},
				"methodIdentifiers": {
					"addNewValues()": "e581bdca",
					"addValues()": "166e7bdd",
					"divideCalculatorByFour(uint256)": "8292888e",
					"multiplyCalculatorByFour(uint256)": "c5a79f70",
					"remoteControlOpen(bool,bool)": "b93c0937"
				}
			},
			"storageLayout": {
				"storage": [
					{
						"astId": 14,
						"contract": "contracts/3_debug_assignment,sol.sol:learnFunctions",
						"label": "a",
						"offset": 0,
						"slot": "0",
						"type": "t_uint256"
					},
					{
						"astId": 53,
						"contract": "contracts/3_debug_assignment,sol.sol:learnFunctions",
						"label": "b",
						"offset": 0,
						"slot": "1",
						"type": "t_uint256"
					}
				],
				"types": {
					"t_uint256": {
						"encoding": "inplace",
						"label": "uint256",
						"numberOfBytes": "32"
					}
				}
			},
			"userdoc": {
				"kind": "user",
				"methods": {},
				"version": 1
			}
		}
	}
}