{
	"contracts/23_uniswap.sol": {
		"UniswapConnect": {
			"abi": [
				{
					"inputs": [],
					"name": "getReserveTokens",
					"outputs": [
						{
							"internalType": "uint256",
							"name": "",
							"type": "uint256"
						},
						{
							"internalType": "uint256",
							"name": "",
							"type": "uint256"
						}
					],
					"stateMutability": "view",
					"type": "function"
				}
			],
			"devdoc": {
				"kind": "dev",
				"methods": {},
				"version": 1
			},
			"evm": {
				"assembly": "    /* \"contracts/23_uniswap.sol\":334:820  contract UniswapConnect {... */\n  mstore(0x40, 0x80)\n    /* \"contracts/23_uniswap.sol\":390:432  0x5C69bEe701ef814a2B6a3EDD4B1652CB9cc5aA6f */\n  0x5c69bee701ef814a2b6a3edd4b1652cb9cc5aa6f\n    /* \"contracts/23_uniswap.sol\":364:432  address private factory = 0x5C69bEe701ef814a2B6a3EDD4B1652CB9cc5aA6f */\n  0x00\n  dup1\n  0x0100\n  exp\n  dup2\n  sload\n  dup2\n  0xffffffffffffffffffffffffffffffffffffffff\n  mul\n  not\n  and\n  swap1\n  dup4\n  0xffffffffffffffffffffffffffffffffffffffff\n  and\n  mul\n  or\n  swap1\n  sstore\n  pop\n    /* \"contracts/23_uniswap.sol\":460:502  0x6B175474E89094C44Da98b954EedeAC495271d0F */\n  0x6b175474e89094c44da98b954eedeac495271d0f\n    /* \"contracts/23_uniswap.sol\":438:502  address private dai = 0x6B175474E89094C44Da98b954EedeAC495271d0F */\n  0x01\n  exp(0x0100, 0x00)\n  dup2\n  sload\n  dup2\n  0xffffffffffffffffffffffffffffffffffffffff\n  mul\n  not\n  and\n  swap1\n  dup4\n  0xffffffffffffffffffffffffffffffffffffffff\n  and\n  mul\n  or\n  swap1\n  sstore\n  pop\n    /* \"contracts/23_uniswap.sol\":531:573  0xC02aaA39b223FE8D0A0e5C4F27eAD9083C756Cc2 */\n  0xc02aaa39b223fe8d0a0e5c4f27ead9083c756cc2\n    /* \"contracts/23_uniswap.sol\":508:573  address private weth = 0xC02aaA39b223FE8D0A0e5C4F27eAD9083C756Cc2 */\n  0x02\n  exp(0x0100, 0x00)\n  dup2\n  sload\n  dup2\n  0xffffffffffffffffffffffffffffffffffffffff\n  mul\n  not\n  and\n  swap1\n  dup4\n  0xffffffffffffffffffffffffffffffffffffffff\n  and\n  mul\n  or\n  swap1\n  sstore\n  pop\n    /* \"contracts/23_uniswap.sol\":334:820  contract UniswapConnect {... */\n  callvalue\n  dup1\n  iszero\n  tag_1\n  jumpi\n  0x00\n  dup1\n  revert\ntag_1:\n  pop\n  dataSize(sub_0)\n  dup1\n  dataOffset(sub_0)\n  0x00\n  codecopy\n  0x00\n  return\nstop\n\nsub_0: assembly {\n        /* \"contracts/23_uniswap.sol\":334:820  contract UniswapConnect {... */\n      mstore(0x40, 0x80)\n      callvalue\n      dup1\n      iszero\n      tag_1\n      jumpi\n      0x00\n      dup1\n      revert\n    tag_1:\n      pop\n      jumpi(tag_2, lt(calldatasize, 0x04))\n      shr(0xe0, calldataload(0x00))\n      dup1\n      0xd1f3ae1b\n      eq\n      tag_3\n      jumpi\n    tag_2:\n      0x00\n      dup1\n      revert\n        /* \"contracts/23_uniswap.sol\":580:818  function getReserveTokens() external view returns (uint, uint){... */\n    tag_3:\n      tag_4\n      tag_5\n      jump\t// in\n    tag_4:\n      mload(0x40)\n      tag_6\n      swap3\n      swap2\n      swap1\n      tag_7\n      jump\t// in\n    tag_6:\n      mload(0x40)\n      dup1\n      swap2\n      sub\n      swap1\n      return\n    tag_5:\n        /* \"contracts/23_uniswap.sol\":631:635  uint */\n      0x00\n        /* \"contracts/23_uniswap.sol\":637:641  uint */\n      dup1\n        /* \"contracts/23_uniswap.sol\":652:664  address pair */\n      0x00\n        /* \"contracts/23_uniswap.sol\":684:691  factory */\n      dup1\n      0x00\n      swap1\n      sload\n      swap1\n      0x0100\n      exp\n      swap1\n      div\n      0xffffffffffffffffffffffffffffffffffffffff\n      and\n        /* \"contracts/23_uniswap.sol\":667:700  UniswapV2Factory(factory).getPair */\n      0xffffffffffffffffffffffffffffffffffffffff\n      and\n      0xe6a43905\n        /* \"contracts/23_uniswap.sol\":701:704  dai */\n      0x01\n      0x00\n      swap1\n      sload\n      swap1\n      0x0100\n      exp\n      swap1\n      div\n      0xffffffffffffffffffffffffffffffffffffffff\n      and\n        /* \"contracts/23_uniswap.sol\":706:710  weth */\n      0x02\n      0x00\n      swap1\n      sload\n      swap1\n      0x0100\n      exp\n      swap1\n      div\n      0xffffffffffffffffffffffffffffffffffffffff\n      and\n        /* \"contracts/23_uniswap.sol\":667:711  UniswapV2Factory(factory).getPair(dai, weth) */\n      mload(0x40)\n      dup4\n      0xffffffff\n      and\n      0xe0\n      shl\n      dup2\n      mstore\n      0x04\n      add\n      tag_9\n      swap3\n      swap2\n      swap1\n      tag_10\n      jump\t// in\n    tag_9:\n      0x20\n      mload(0x40)\n      dup1\n      dup4\n      sub\n      dup2\n      dup7\n      dup1\n      extcodesize\n      iszero\n      dup1\n      iszero\n      tag_11\n      jumpi\n      0x00\n      dup1\n      revert\n    tag_11:\n      pop\n      gas\n      staticcall\n      iszero\n      dup1\n      iszero\n      tag_13\n      jumpi\n      returndatasize\n      0x00\n      dup1\n      returndatacopy\n      revert(0x00, returndatasize)\n    tag_13:\n      pop\n      pop\n      pop\n      pop\n      mload(0x40)\n      returndatasize\n      not(0x1f)\n      0x1f\n      dup3\n      add\n      and\n      dup3\n      add\n      dup1\n      0x40\n      mstore\n      pop\n      dup2\n      add\n      swap1\n      tag_14\n      swap2\n      swap1\n      tag_15\n      jump\t// in\n    tag_14:\n        /* \"contracts/23_uniswap.sol\":652:711  address pair = UniswapV2Factory(factory).getPair(dai, weth) */\n      swap1\n      pop\n        /* \"contracts/23_uniswap.sol\":722:728  uint a */\n      0x00\n        /* \"contracts/23_uniswap.sol\":730:736  uint b */\n      dup1\n        /* \"contracts/23_uniswap.sol\":738:752  uint timestamp */\n      0x00\n        /* \"contracts/23_uniswap.sol\":770:774  pair */\n      dup4\n        /* \"contracts/23_uniswap.sol\":756:787  UniswapV2Pair(pair).getReserves */\n      0xffffffffffffffffffffffffffffffffffffffff\n      and\n      0x0902f1ac\n        /* \"contracts/23_uniswap.sol\":756:789  UniswapV2Pair(pair).getReserves() */\n      mload(0x40)\n      dup2\n      0xffffffff\n      and\n      0xe0\n      shl\n      dup2\n      mstore\n      0x04\n      add\n      0x60\n      mload(0x40)\n      dup1\n      dup4\n      sub\n      dup2\n      dup7\n      dup1\n      extcodesize\n      iszero\n      dup1\n      iszero\n      tag_16\n      jumpi\n      0x00\n      dup1\n      revert\n    tag_16:\n      pop\n      gas\n      staticcall\n      iszero\n      dup1\n      iszero\n      tag_18\n      jumpi\n      returndatasize\n      0x00\n      dup1\n      returndatacopy\n      revert(0x00, returndatasize)\n    tag_18:\n      pop\n      pop\n      pop\n      pop\n      mload(0x40)\n      returndatasize\n      not(0x1f)\n      0x1f\n      dup3\n      add\n      and\n      dup3\n      add\n      dup1\n      0x40\n      mstore\n      pop\n      dup2\n      add\n      swap1\n      tag_19\n      swap2\n      swap1\n      tag_20\n      jump\t// in\n    tag_19:\n        /* \"contracts/23_uniswap.sol\":721:789  (uint a, uint b, uint timestamp) = UniswapV2Pair(pair).getReserves() */\n      0xffffffff\n      and\n      swap3\n      pop\n      0xffffffffffffffffffffffffffff\n      and\n      swap3\n      pop\n      0xffffffffffffffffffffffffffff\n      and\n      swap3\n      pop\n        /* \"contracts/23_uniswap.sol\":807:808  a */\n      dup3\n        /* \"contracts/23_uniswap.sol\":809:810  b */\n      dup3\n        /* \"contracts/23_uniswap.sol\":799:811  return (a,b) */\n      swap6\n      pop\n      swap6\n      pop\n      pop\n      pop\n      pop\n      pop\n        /* \"contracts/23_uniswap.sol\":580:818  function getReserveTokens() external view returns (uint, uint){... */\n      swap1\n      swap2\n      jump\t// out\n        /* \"#utility.yul\":7:150   */\n    tag_22:\n        /* \"#utility.yul\":64:69   */\n      0x00\n        /* \"#utility.yul\":95:101   */\n      dup2\n        /* \"#utility.yul\":89:102   */\n      mload\n        /* \"#utility.yul\":80:102   */\n      swap1\n      pop\n        /* \"#utility.yul\":111:144   */\n      tag_24\n        /* \"#utility.yul\":138:143   */\n      dup2\n        /* \"#utility.yul\":111:144   */\n      tag_25\n      jump\t// in\n    tag_24:\n        /* \"#utility.yul\":7:150   */\n      swap3\n      swap2\n      pop\n      pop\n      jump\t// out\n        /* \"#utility.yul\":156:299   */\n    tag_26:\n        /* \"#utility.yul\":213:218   */\n      0x00\n        /* \"#utility.yul\":244:250   */\n      dup2\n        /* \"#utility.yul\":238:251   */\n      mload\n        /* \"#utility.yul\":229:251   */\n      swap1\n      pop\n        /* \"#utility.yul\":260:293   */\n      tag_28\n        /* \"#utility.yul\":287:292   */\n      dup2\n        /* \"#utility.yul\":260:293   */\n      tag_29\n      jump\t// in\n    tag_28:\n        /* \"#utility.yul\":156:299   */\n      swap3\n      swap2\n      pop\n      pop\n      jump\t// out\n        /* \"#utility.yul\":305:446   */\n    tag_30:\n        /* \"#utility.yul\":361:366   */\n      0x00\n        /* \"#utility.yul\":392:398   */\n      dup2\n        /* \"#utility.yul\":386:399   */\n      mload\n        /* \"#utility.yul\":377:399   */\n      swap1\n      pop\n        /* \"#utility.yul\":408:440   */\n      tag_32\n        /* \"#utility.yul\":434:439   */\n      dup2\n        /* \"#utility.yul\":408:440   */\n      tag_33\n      jump\t// in\n    tag_32:\n        /* \"#utility.yul\":305:446   */\n      swap3\n      swap2\n      pop\n      pop\n      jump\t// out\n        /* \"#utility.yul\":452:803   */\n    tag_15:\n        /* \"#utility.yul\":522:528   */\n      0x00\n        /* \"#utility.yul\":571:573   */\n      0x20\n        /* \"#utility.yul\":559:568   */\n      dup3\n        /* \"#utility.yul\":550:557   */\n      dup5\n        /* \"#utility.yul\":546:569   */\n      sub\n        /* \"#utility.yul\":542:574   */\n      slt\n        /* \"#utility.yul\":539:658   */\n      iszero\n      tag_35\n      jumpi\n        /* \"#utility.yul\":577:656   */\n      tag_36\n      tag_37\n      jump\t// in\n    tag_36:\n        /* \"#utility.yul\":539:658   */\n    tag_35:\n        /* \"#utility.yul\":697:698   */\n      0x00\n        /* \"#utility.yul\":722:786   */\n      tag_38\n        /* \"#utility.yul\":778:785   */\n      dup5\n        /* \"#utility.yul\":769:775   */\n      dup3\n        /* \"#utility.yul\":758:767   */\n      dup6\n        /* \"#utility.yul\":754:776   */\n      add\n        /* \"#utility.yul\":722:786   */\n      tag_22\n      jump\t// in\n    tag_38:\n        /* \"#utility.yul\":712:786   */\n      swap2\n      pop\n        /* \"#utility.yul\":668:796   */\n      pop\n        /* \"#utility.yul\":452:803   */\n      swap3\n      swap2\n      pop\n      pop\n      jump\t// out\n        /* \"#utility.yul\":809:1470   */\n    tag_20:\n        /* \"#utility.yul\":896:902   */\n      0x00\n        /* \"#utility.yul\":904:910   */\n      dup1\n        /* \"#utility.yul\":912:918   */\n      0x00\n        /* \"#utility.yul\":961:963   */\n      0x60\n        /* \"#utility.yul\":949:958   */\n      dup5\n        /* \"#utility.yul\":940:947   */\n      dup7\n        /* \"#utility.yul\":936:959   */\n      sub\n        /* \"#utility.yul\":932:964   */\n      slt\n        /* \"#utility.yul\":929:1048   */\n      iszero\n      tag_40\n      jumpi\n        /* \"#utility.yul\":967:1046   */\n      tag_41\n      tag_37\n      jump\t// in\n    tag_41:\n        /* \"#utility.yul\":929:1048   */\n    tag_40:\n        /* \"#utility.yul\":1087:1088   */\n      0x00\n        /* \"#utility.yul\":1112:1176   */\n      tag_42\n        /* \"#utility.yul\":1168:1175   */\n      dup7\n        /* \"#utility.yul\":1159:1165   */\n      dup3\n        /* \"#utility.yul\":1148:1157   */\n      dup8\n        /* \"#utility.yul\":1144:1166   */\n      add\n        /* \"#utility.yul\":1112:1176   */\n      tag_26\n      jump\t// in\n    tag_42:\n        /* \"#utility.yul\":1102:1176   */\n      swap4\n      pop\n        /* \"#utility.yul\":1058:1186   */\n      pop\n        /* \"#utility.yul\":1225:1227   */\n      0x20\n        /* \"#utility.yul\":1251:1315   */\n      tag_43\n        /* \"#utility.yul\":1307:1314   */\n      dup7\n        /* \"#utility.yul\":1298:1304   */\n      dup3\n        /* \"#utility.yul\":1287:1296   */\n      dup8\n        /* \"#utility.yul\":1283:1305   */\n      add\n        /* \"#utility.yul\":1251:1315   */\n      tag_26\n      jump\t// in\n    tag_43:\n        /* \"#utility.yul\":1241:1315   */\n      swap3\n      pop\n        /* \"#utility.yul\":1196:1325   */\n      pop\n        /* \"#utility.yul\":1364:1366   */\n      0x40\n        /* \"#utility.yul\":1390:1453   */\n      tag_44\n        /* \"#utility.yul\":1445:1452   */\n      dup7\n        /* \"#utility.yul\":1436:1442   */\n      dup3\n        /* \"#utility.yul\":1425:1434   */\n      dup8\n        /* \"#utility.yul\":1421:1443   */\n      add\n        /* \"#utility.yul\":1390:1453   */\n      tag_30\n      jump\t// in\n    tag_44:\n        /* \"#utility.yul\":1380:1453   */\n      swap2\n      pop\n        /* \"#utility.yul\":1335:1463   */\n      pop\n        /* \"#utility.yul\":809:1470   */\n      swap3\n      pop\n      swap3\n      pop\n      swap3\n      jump\t// out\n        /* \"#utility.yul\":1476:1594   */\n    tag_45:\n        /* \"#utility.yul\":1563:1587   */\n      tag_47\n        /* \"#utility.yul\":1581:1586   */\n      dup2\n        /* \"#utility.yul\":1563:1587   */\n      tag_48\n      jump\t// in\n    tag_47:\n        /* \"#utility.yul\":1558:1561   */\n      dup3\n        /* \"#utility.yul\":1551:1588   */\n      mstore\n        /* \"#utility.yul\":1476:1594   */\n      pop\n      pop\n      jump\t// out\n        /* \"#utility.yul\":1600:1718   */\n    tag_49:\n        /* \"#utility.yul\":1687:1711   */\n      tag_51\n        /* \"#utility.yul\":1705:1710   */\n      dup2\n        /* \"#utility.yul\":1687:1711   */\n      tag_52\n      jump\t// in\n    tag_51:\n        /* \"#utility.yul\":1682:1685   */\n      dup3\n        /* \"#utility.yul\":1675:1712   */\n      mstore\n        /* \"#utility.yul\":1600:1718   */\n      pop\n      pop\n      jump\t// out\n        /* \"#utility.yul\":1724:2056   */\n    tag_10:\n        /* \"#utility.yul\":1845:1849   */\n      0x00\n        /* \"#utility.yul\":1883:1885   */\n      0x40\n        /* \"#utility.yul\":1872:1881   */\n      dup3\n        /* \"#utility.yul\":1868:1886   */\n      add\n        /* \"#utility.yul\":1860:1886   */\n      swap1\n      pop\n        /* \"#utility.yul\":1896:1967   */\n      tag_54\n        /* \"#utility.yul\":1964:1965   */\n      0x00\n        /* \"#utility.yul\":1953:1962   */\n      dup4\n        /* \"#utility.yul\":1949:1966   */\n      add\n        /* \"#utility.yul\":1940:1946   */\n      dup6\n        /* \"#utility.yul\":1896:1967   */\n      tag_45\n      jump\t// in\n    tag_54:\n        /* \"#utility.yul\":1977:2049   */\n      tag_55\n        /* \"#utility.yul\":2045:2047   */\n      0x20\n        /* \"#utility.yul\":2034:2043   */\n      dup4\n        /* \"#utility.yul\":2030:2048   */\n      add\n        /* \"#utility.yul\":2021:2027   */\n      dup5\n        /* \"#utility.yul\":1977:2049   */\n      tag_45\n      jump\t// in\n    tag_55:\n        /* \"#utility.yul\":1724:2056   */\n      swap4\n      swap3\n      pop\n      pop\n      pop\n      jump\t// out\n        /* \"#utility.yul\":2062:2394   */\n    tag_7:\n        /* \"#utility.yul\":2183:2187   */\n      0x00\n        /* \"#utility.yul\":2221:2223   */\n      0x40\n        /* \"#utility.yul\":2210:2219   */\n      dup3\n        /* \"#utility.yul\":2206:2224   */\n      add\n        /* \"#utility.yul\":2198:2224   */\n      swap1\n      pop\n        /* \"#utility.yul\":2234:2305   */\n      tag_57\n        /* \"#utility.yul\":2302:2303   */\n      0x00\n        /* \"#utility.yul\":2291:2300   */\n      dup4\n        /* \"#utility.yul\":2287:2304   */\n      add\n        /* \"#utility.yul\":2278:2284   */\n      dup6\n        /* \"#utility.yul\":2234:2305   */\n      tag_49\n      jump\t// in\n    tag_57:\n        /* \"#utility.yul\":2315:2387   */\n      tag_58\n        /* \"#utility.yul\":2383:2385   */\n      0x20\n        /* \"#utility.yul\":2372:2381   */\n      dup4\n        /* \"#utility.yul\":2368:2386   */\n      add\n        /* \"#utility.yul\":2359:2365   */\n      dup5\n        /* \"#utility.yul\":2315:2387   */\n      tag_49\n      jump\t// in\n    tag_58:\n        /* \"#utility.yul\":2062:2394   */\n      swap4\n      swap3\n      pop\n      pop\n      pop\n      jump\t// out\n        /* \"#utility.yul\":2481:2577   */\n    tag_48:\n        /* \"#utility.yul\":2518:2525   */\n      0x00\n        /* \"#utility.yul\":2547:2571   */\n      tag_62\n        /* \"#utility.yul\":2565:2570   */\n      dup3\n        /* \"#utility.yul\":2547:2571   */\n      tag_63\n      jump\t// in\n    tag_62:\n        /* \"#utility.yul\":2536:2571   */\n      swap1\n      pop\n        /* \"#utility.yul\":2481:2577   */\n      swap2\n      swap1\n      pop\n      jump\t// out\n        /* \"#utility.yul\":2583:2697   */\n    tag_64:\n        /* \"#utility.yul\":2620:2627   */\n      0x00\n        /* \"#utility.yul\":2660:2690   */\n      0xffffffffffffffffffffffffffff\n        /* \"#utility.yul\":2653:2658   */\n      dup3\n        /* \"#utility.yul\":2649:2691   */\n      and\n        /* \"#utility.yul\":2638:2691   */\n      swap1\n      pop\n        /* \"#utility.yul\":2583:2697   */\n      swap2\n      swap1\n      pop\n      jump\t// out\n        /* \"#utility.yul\":2703:2829   */\n    tag_63:\n        /* \"#utility.yul\":2740:2747   */\n      0x00\n        /* \"#utility.yul\":2780:2822   */\n      0xffffffffffffffffffffffffffffffffffffffff\n        /* \"#utility.yul\":2773:2778   */\n      dup3\n        /* \"#utility.yul\":2769:2823   */\n      and\n        /* \"#utility.yul\":2758:2823   */\n      swap1\n      pop\n        /* \"#utility.yul\":2703:2829   */\n      swap2\n      swap1\n      pop\n      jump\t// out\n        /* \"#utility.yul\":2835:2912   */\n    tag_52:\n        /* \"#utility.yul\":2872:2879   */\n      0x00\n        /* \"#utility.yul\":2901:2906   */\n      dup2\n        /* \"#utility.yul\":2890:2906   */\n      swap1\n      pop\n        /* \"#utility.yul\":2835:2912   */\n      swap2\n      swap1\n      pop\n      jump\t// out\n        /* \"#utility.yul\":2918:3011   */\n    tag_68:\n        /* \"#utility.yul\":2954:2961   */\n      0x00\n        /* \"#utility.yul\":2994:3004   */\n      0xffffffff\n        /* \"#utility.yul\":2987:2992   */\n      dup3\n        /* \"#utility.yul\":2983:3005   */\n      and\n        /* \"#utility.yul\":2972:3005   */\n      swap1\n      pop\n        /* \"#utility.yul\":2918:3011   */\n      swap2\n      swap1\n      pop\n      jump\t// out\n        /* \"#utility.yul\":3140:3257   */\n    tag_37:\n        /* \"#utility.yul\":3249:3250   */\n      0x00\n        /* \"#utility.yul\":3246:3247   */\n      dup1\n        /* \"#utility.yul\":3239:3251   */\n      revert\n        /* \"#utility.yul\":3263:3385   */\n    tag_25:\n        /* \"#utility.yul\":3336:3360   */\n      tag_74\n        /* \"#utility.yul\":3354:3359   */\n      dup2\n        /* \"#utility.yul\":3336:3360   */\n      tag_48\n      jump\t// in\n    tag_74:\n        /* \"#utility.yul\":3329:3334   */\n      dup2\n        /* \"#utility.yul\":3326:3361   */\n      eq\n        /* \"#utility.yul\":3316:3379   */\n      tag_75\n      jumpi\n        /* \"#utility.yul\":3375:3376   */\n      0x00\n        /* \"#utility.yul\":3372:3373   */\n      dup1\n        /* \"#utility.yul\":3365:3377   */\n      revert\n        /* \"#utility.yul\":3316:3379   */\n    tag_75:\n        /* \"#utility.yul\":3263:3385   */\n      pop\n      jump\t// out\n        /* \"#utility.yul\":3391:3513   */\n    tag_29:\n        /* \"#utility.yul\":3464:3488   */\n      tag_77\n        /* \"#utility.yul\":3482:3487   */\n      dup2\n        /* \"#utility.yul\":3464:3488   */\n      tag_64\n      jump\t// in\n    tag_77:\n        /* \"#utility.yul\":3457:3462   */\n      dup2\n        /* \"#utility.yul\":3454:3489   */\n      eq\n        /* \"#utility.yul\":3444:3507   */\n      tag_78\n      jumpi\n        /* \"#utility.yul\":3503:3504   */\n      0x00\n        /* \"#utility.yul\":3500:3501   */\n      dup1\n        /* \"#utility.yul\":3493:3505   */\n      revert\n        /* \"#utility.yul\":3444:3507   */\n    tag_78:\n        /* \"#utility.yul\":3391:3513   */\n      pop\n      jump\t// out\n        /* \"#utility.yul\":3519:3639   */\n    tag_33:\n        /* \"#utility.yul\":3591:3614   */\n      tag_80\n        /* \"#utility.yul\":3608:3613   */\n      dup2\n        /* \"#utility.yul\":3591:3614   */\n      tag_68\n      jump\t// in\n    tag_80:\n        /* \"#utility.yul\":3584:3589   */\n      dup2\n        /* \"#utility.yul\":3581:3615   */\n      eq\n        /* \"#utility.yul\":3571:3633   */\n      tag_81\n      jumpi\n        /* \"#utility.yul\":3629:3630   */\n      0x00\n        /* \"#utility.yul\":3626:3627   */\n      dup1\n        /* \"#utility.yul\":3619:3631   */\n      revert\n        /* \"#utility.yul\":3571:3633   */\n    tag_81:\n        /* \"#utility.yul\":3519:3639   */\n      pop\n      jump\t// out\n\n    auxdata: 0xa2646970667358221220ff1f83f8b82386c5d27628079a2e71a627098ab37919333a5a2cbeb938172e4964736f6c63430008070033\n}\n",
				"bytecode": {
					"linkReferences": {},
					"object": "6080604052735c69bee701ef814a2b6a3edd4b1652cb9cc5aa6f6000806101000a81548173ffffffffffffffffffffffffffffffffffffffff021916908373ffffffffffffffffffffffffffffffffffffffff160217905550736b175474e89094c44da98b954eedeac495271d0f600160006101000a81548173ffffffffffffffffffffffffffffffffffffffff021916908373ffffffffffffffffffffffffffffffffffffffff16021790555073c02aaa39b223fe8d0a0e5c4f27ead9083c756cc2600260006101000a81548173ffffffffffffffffffffffffffffffffffffffff021916908373ffffffffffffffffffffffffffffffffffffffff16021790555034801561010e57600080fd5b506104188061011e6000396000f3fe608060405234801561001057600080fd5b506004361061002b5760003560e01c8063d1f3ae1b14610030575b600080fd5b61003861004f565b604051610046929190610309565b60405180910390f35b60008060008060009054906101000a900473ffffffffffffffffffffffffffffffffffffffff1673ffffffffffffffffffffffffffffffffffffffff1663e6a43905600160009054906101000a900473ffffffffffffffffffffffffffffffffffffffff16600260009054906101000a900473ffffffffffffffffffffffffffffffffffffffff166040518363ffffffff1660e01b81526004016100f49291906102e0565b60206040518083038186803b15801561010c57600080fd5b505afa158015610120573d6000803e3d6000fd5b505050506040513d601f19601f820116820180604052508101906101449190610242565b905060008060008373ffffffffffffffffffffffffffffffffffffffff16630902f1ac6040518163ffffffff1660e01b815260040160606040518083038186803b15801561019157600080fd5b505afa1580156101a5573d6000803e3d6000fd5b505050506040513d601f19601f820116820180604052508101906101c9919061026f565b63ffffffff1692506dffffffffffffffffffffffffffff1692506dffffffffffffffffffffffffffff169250828295509550505050509091565b6000815190506102128161039d565b92915050565b600081519050610227816103b4565b92915050565b60008151905061023c816103cb565b92915050565b60006020828403121561025857610257610398565b5b600061026684828501610203565b91505092915050565b60008060006060848603121561028857610287610398565b5b600061029686828701610218565b93505060206102a786828701610218565b92505060406102b88682870161022d565b9150509250925092565b6102cb81610332565b82525050565b6102da8161037e565b82525050565b60006040820190506102f560008301856102c2565b61030260208301846102c2565b9392505050565b600060408201905061031e60008301856102d1565b61032b60208301846102d1565b9392505050565b600061033d8261035e565b9050919050565b60006dffffffffffffffffffffffffffff82169050919050565b600073ffffffffffffffffffffffffffffffffffffffff82169050919050565b6000819050919050565b600063ffffffff82169050919050565b600080fd5b6103a681610332565b81146103b157600080fd5b50565b6103bd81610344565b81146103c857600080fd5b50565b6103d481610388565b81146103df57600080fd5b5056fea2646970667358221220ff1f83f8b82386c5d27628079a2e71a627098ab37919333a5a2cbeb938172e4964736f6c63430008070033",
					"opcodes": "PUSH1 0x80 PUSH1 0x40 MSTORE PUSH20 0x5C69BEE701EF814A2B6A3EDD4B1652CB9CC5AA6F PUSH1 0x0 DUP1 PUSH2 0x100 EXP DUP2 SLOAD DUP2 PUSH20 0xFFFFFFFFFFFFFFFFFFFFFFFFFFFFFFFFFFFFFFFF MUL NOT AND SWAP1 DUP4 PUSH20 0xFFFFFFFFFFFFFFFFFFFFFFFFFFFFFFFFFFFFFFFF AND MUL OR SWAP1 SSTORE POP PUSH20 0x6B175474E89094C44DA98B954EEDEAC495271D0F PUSH1 0x1 PUSH1 0x0 PUSH2 0x100 EXP DUP2 SLOAD DUP2 PUSH20 0xFFFFFFFFFFFFFFFFFFFFFFFFFFFFFFFFFFFFFFFF MUL NOT AND SWAP1 DUP4 PUSH20 0xFFFFFFFFFFFFFFFFFFFFFFFFFFFFFFFFFFFFFFFF AND MUL OR SWAP1 SSTORE POP PUSH20 0xC02AAA39B223FE8D0A0E5C4F27EAD9083C756CC2 PUSH1 0x2 PUSH1 0x0 PUSH2 0x100 EXP DUP2 SLOAD DUP2 PUSH20 0xFFFFFFFFFFFFFFFFFFFFFFFFFFFFFFFFFFFFFFFF MUL NOT AND SWAP1 DUP4 PUSH20 0xFFFFFFFFFFFFFFFFFFFFFFFFFFFFFFFFFFFFFFFF AND MUL OR SWAP1 SSTORE POP CALLVALUE DUP1 ISZERO PUSH2 0x10E JUMPI PUSH1 0x0 DUP1 REVERT JUMPDEST POP PUSH2 0x418 DUP1 PUSH2 0x11E PUSH1 0x0 CODECOPY PUSH1 0x0 RETURN INVALID PUSH1 0x80 PUSH1 0x40 MSTORE CALLVALUE DUP1 ISZERO PUSH2 0x10 JUMPI PUSH1 0x0 DUP1 REVERT JUMPDEST POP PUSH1 0x4 CALLDATASIZE LT PUSH2 0x2B JUMPI PUSH1 0x0 CALLDATALOAD PUSH1 0xE0 SHR DUP1 PUSH4 0xD1F3AE1B EQ PUSH2 0x30 JUMPI JUMPDEST PUSH1 0x0 DUP1 REVERT JUMPDEST PUSH2 0x38 PUSH2 0x4F JUMP JUMPDEST PUSH1 0x40 MLOAD PUSH2 0x46 SWAP3 SWAP2 SWAP1 PUSH2 0x309 JUMP JUMPDEST PUSH1 0x40 MLOAD DUP1 SWAP2 SUB SWAP1 RETURN JUMPDEST PUSH1 0x0 DUP1 PUSH1 0x0 DUP1 PUSH1 0x0 SWAP1 SLOAD SWAP1 PUSH2 0x100 EXP SWAP1 DIV PUSH20 0xFFFFFFFFFFFFFFFFFFFFFFFFFFFFFFFFFFFFFFFF AND PUSH20 0xFFFFFFFFFFFFFFFFFFFFFFFFFFFFFFFFFFFFFFFF AND PUSH4 0xE6A43905 PUSH1 0x1 PUSH1 0x0 SWAP1 SLOAD SWAP1 PUSH2 0x100 EXP SWAP1 DIV PUSH20 0xFFFFFFFFFFFFFFFFFFFFFFFFFFFFFFFFFFFFFFFF AND PUSH1 0x2 PUSH1 0x0 SWAP1 SLOAD SWAP1 PUSH2 0x100 EXP SWAP1 DIV PUSH20 0xFFFFFFFFFFFFFFFFFFFFFFFFFFFFFFFFFFFFFFFF AND PUSH1 0x40 MLOAD DUP4 PUSH4 0xFFFFFFFF AND PUSH1 0xE0 SHL DUP2 MSTORE PUSH1 0x4 ADD PUSH2 0xF4 SWAP3 SWAP2 SWAP1 PUSH2 0x2E0 JUMP JUMPDEST PUSH1 0x20 PUSH1 0x40 MLOAD DUP1 DUP4 SUB DUP2 DUP7 DUP1 EXTCODESIZE ISZERO DUP1 ISZERO PUSH2 0x10C JUMPI PUSH1 0x0 DUP1 REVERT JUMPDEST POP GAS STATICCALL ISZERO DUP1 ISZERO PUSH2 0x120 JUMPI RETURNDATASIZE PUSH1 0x0 DUP1 RETURNDATACOPY RETURNDATASIZE PUSH1 0x0 REVERT JUMPDEST POP POP POP POP PUSH1 0x40 MLOAD RETURNDATASIZE PUSH1 0x1F NOT PUSH1 0x1F DUP3 ADD AND DUP3 ADD DUP1 PUSH1 0x40 MSTORE POP DUP2 ADD SWAP1 PUSH2 0x144 SWAP2 SWAP1 PUSH2 0x242 JUMP JUMPDEST SWAP1 POP PUSH1 0x0 DUP1 PUSH1 0x0 DUP4 PUSH20 0xFFFFFFFFFFFFFFFFFFFFFFFFFFFFFFFFFFFFFFFF AND PUSH4 0x902F1AC PUSH1 0x40 MLOAD DUP2 PUSH4 0xFFFFFFFF AND PUSH1 0xE0 SHL DUP2 MSTORE PUSH1 0x4 ADD PUSH1 0x60 PUSH1 0x40 MLOAD DUP1 DUP4 SUB DUP2 DUP7 DUP1 EXTCODESIZE ISZERO DUP1 ISZERO PUSH2 0x191 JUMPI PUSH1 0x0 DUP1 REVERT JUMPDEST POP GAS STATICCALL ISZERO DUP1 ISZERO PUSH2 0x1A5 JUMPI RETURNDATASIZE PUSH1 0x0 DUP1 RETURNDATACOPY RETURNDATASIZE PUSH1 0x0 REVERT JUMPDEST POP POP POP POP PUSH1 0x40 MLOAD RETURNDATASIZE PUSH1 0x1F NOT PUSH1 0x1F DUP3 ADD AND DUP3 ADD DUP1 PUSH1 0x40 MSTORE POP DUP2 ADD SWAP1 PUSH2 0x1C9 SWAP2 SWAP1 PUSH2 0x26F JUMP JUMPDEST PUSH4 0xFFFFFFFF AND SWAP3 POP PUSH14 0xFFFFFFFFFFFFFFFFFFFFFFFFFFFF AND SWAP3 POP PUSH14 0xFFFFFFFFFFFFFFFFFFFFFFFFFFFF AND SWAP3 POP DUP3 DUP3 SWAP6 POP SWAP6 POP POP POP POP POP SWAP1 SWAP2 JUMP JUMPDEST PUSH1 0x0 DUP2 MLOAD SWAP1 POP PUSH2 0x212 DUP2 PUSH2 0x39D JUMP JUMPDEST SWAP3 SWAP2 POP POP JUMP JUMPDEST PUSH1 0x0 DUP2 MLOAD SWAP1 POP PUSH2 0x227 DUP2 PUSH2 0x3B4 JUMP JUMPDEST SWAP3 SWAP2 POP POP JUMP JUMPDEST PUSH1 0x0 DUP2 MLOAD SWAP1 POP PUSH2 0x23C DUP2 PUSH2 0x3CB JUMP JUMPDEST SWAP3 SWAP2 POP POP JUMP JUMPDEST PUSH1 0x0 PUSH1 0x20 DUP3 DUP5 SUB SLT ISZERO PUSH2 0x258 JUMPI PUSH2 0x257 PUSH2 0x398 JUMP JUMPDEST JUMPDEST PUSH1 0x0 PUSH2 0x266 DUP5 DUP3 DUP6 ADD PUSH2 0x203 JUMP JUMPDEST SWAP2 POP POP SWAP3 SWAP2 POP POP JUMP JUMPDEST PUSH1 0x0 DUP1 PUSH1 0x0 PUSH1 0x60 DUP5 DUP7 SUB SLT ISZERO PUSH2 0x288 JUMPI PUSH2 0x287 PUSH2 0x398 JUMP JUMPDEST JUMPDEST PUSH1 0x0 PUSH2 0x296 DUP7 DUP3 DUP8 ADD PUSH2 0x218 JUMP JUMPDEST SWAP4 POP POP PUSH1 0x20 PUSH2 0x2A7 DUP7 DUP3 DUP8 ADD PUSH2 0x218 JUMP JUMPDEST SWAP3 POP POP PUSH1 0x40 PUSH2 0x2B8 DUP7 DUP3 DUP8 ADD PUSH2 0x22D JUMP JUMPDEST SWAP2 POP POP SWAP3 POP SWAP3 POP SWAP3 JUMP JUMPDEST PUSH2 0x2CB DUP2 PUSH2 0x332 JUMP JUMPDEST DUP3 MSTORE POP POP JUMP JUMPDEST PUSH2 0x2DA DUP2 PUSH2 0x37E JUMP JUMPDEST DUP3 MSTORE POP POP JUMP JUMPDEST PUSH1 0x0 PUSH1 0x40 DUP3 ADD SWAP1 POP PUSH2 0x2F5 PUSH1 0x0 DUP4 ADD DUP6 PUSH2 0x2C2 JUMP JUMPDEST PUSH2 0x302 PUSH1 0x20 DUP4 ADD DUP5 PUSH2 0x2C2 JUMP JUMPDEST SWAP4 SWAP3 POP POP POP JUMP JUMPDEST PUSH1 0x0 PUSH1 0x40 DUP3 ADD SWAP1 POP PUSH2 0x31E PUSH1 0x0 DUP4 ADD DUP6 PUSH2 0x2D1 JUMP JUMPDEST PUSH2 0x32B PUSH1 0x20 DUP4 ADD DUP5 PUSH2 0x2D1 JUMP JUMPDEST SWAP4 SWAP3 POP POP POP JUMP JUMPDEST PUSH1 0x0 PUSH2 0x33D DUP3 PUSH2 0x35E JUMP JUMPDEST SWAP1 POP SWAP2 SWAP1 POP JUMP JUMPDEST PUSH1 0x0 PUSH14 0xFFFFFFFFFFFFFFFFFFFFFFFFFFFF DUP3 AND SWAP1 POP SWAP2 SWAP1 POP JUMP JUMPDEST PUSH1 0x0 PUSH20 0xFFFFFFFFFFFFFFFFFFFFFFFFFFFFFFFFFFFFFFFF DUP3 AND SWAP1 POP SWAP2 SWAP1 POP JUMP JUMPDEST PUSH1 0x0 DUP2 SWAP1 POP SWAP2 SWAP1 POP JUMP JUMPDEST PUSH1 0x0 PUSH4 0xFFFFFFFF DUP3 AND SWAP1 POP SWAP2 SWAP1 POP JUMP JUMPDEST PUSH1 0x0 DUP1 REVERT JUMPDEST PUSH2 0x3A6 DUP2 PUSH2 0x332 JUMP JUMPDEST DUP2 EQ PUSH2 0x3B1 JUMPI PUSH1 0x0 DUP1 REVERT JUMPDEST POP JUMP JUMPDEST PUSH2 0x3BD DUP2 PUSH2 0x344 JUMP JUMPDEST DUP2 EQ PUSH2 0x3C8 JUMPI PUSH1 0x0 DUP1 REVERT JUMPDEST POP JUMP JUMPDEST PUSH2 0x3D4 DUP2 PUSH2 0x388 JUMP JUMPDEST DUP2 EQ PUSH2 0x3DF JUMPI PUSH1 0x0 DUP1 REVERT JUMPDEST POP JUMP INVALID LOG2 PUSH5 0x6970667358 0x22 SLT KECCAK256 SELFDESTRUCT 0x1F DUP4 0xF8 0xB8 0x23 DUP7 0xC5 0xD2 PUSH23 0x28079A2E71A627098AB37919333A5A2CBEB938172E4964 PUSH20 0x6F6C634300080700330000000000000000000000 "
				},
				"gasEstimates": {
					"creation": {
						"codeDepositCost": "209600",
						"executionCost": "73052",
						"totalCost": "282652"
					},
					"external": {
						"getReserveTokens()": "infinite"
					}
				},
				"methodIdentifiers": {
					"getReserveTokens()": "d1f3ae1b"
				}
			},
			"storageLayout": {
				"storage": [
					{
						"astId": 24,
						"contract": "contracts/23_uniswap.sol:UniswapConnect",
						"label": "factory",
						"offset": 0,
						"slot": "0",
						"type": "t_address"
					},
					{
						"astId": 27,
						"contract": "contracts/23_uniswap.sol:UniswapConnect",
						"label": "dai",
						"offset": 0,
						"slot": "1",
						"type": "t_address"
					},
					{
						"astId": 30,
						"contract": "contracts/23_uniswap.sol:UniswapConnect",
						"label": "weth",
						"offset": 0,
						"slot": "2",
						"type": "t_address"
					}
				],
				"types": {
					"t_address": {
						"encoding": "inplace",
						"label": "address",
						"numberOfBytes": "20"
					}
				}
			},
			"userdoc": {
				"kind": "user",
				"methods": {},
				"version": 1
			}
		}
	}
}