{
	"contracts/15_view_pure.sol": {
		"ViewPure": {
			"abi": [
				{
					"inputs": [],
					"name": "multiply",
					"outputs": [],
					"stateMutability": "nonpayable",
					"type": "function"
				}
			],
			"devdoc": {
				"kind": "dev",
				"methods": {},
				"version": 1
			},
			"evm": {
				"assembly": "    /* \"contracts/15_view_pure.sol\":67:172  contract ViewPure {... */\n  mstore(0x40, 0x80)\n  callvalue\n  dup1\n  iszero\n  tag_1\n  jumpi\n  0x00\n  dup1\n  revert\ntag_1:\n  pop\n  dataSize(sub_0)\n  dup1\n  dataOffset(sub_0)\n  0x00\n  codecopy\n  0x00\n  return\nstop\n\nsub_0: assembly {\n        /* \"contracts/15_view_pure.sol\":67:172  contract ViewPure {... */\n      mstore(0x40, 0x80)\n      callvalue\n      dup1\n      iszero\n      tag_1\n      jumpi\n      0x00\n      dup1\n      revert\n    tag_1:\n      pop\n      jumpi(tag_2, lt(calldatasize, 0x04))\n      shr(0xe0, calldataload(0x00))\n      dup1\n      0xf3593cd0\n      eq\n      tag_3\n      jumpi\n    tag_2:\n      0x00\n      dup1\n      revert\n        /* \"contracts/15_view_pure.sol\":110:168  function multiply() public{... */\n    tag_3:\n      tag_4\n      tag_5\n      jump\t// in\n    tag_4:\n      stop\n    tag_5:\n        /* \"contracts/15_view_pure.sol\":156:161  3 * 7 */\n      0x15\n        /* \"contracts/15_view_pure.sol\":146:153  product */\n      0x00\n        /* \"contracts/15_view_pure.sol\":146:161  product = 3 * 7 */\n      dup2\n      swap1\n      sstore\n      pop\n        /* \"contracts/15_view_pure.sol\":110:168  function multiply() public{... */\n      jump\t// out\n\n    auxdata: 0xa2646970667358221220f21a50b9e23ca0468ae535ebdc1e79ebd68d6162c7a5aaabf4d4f1806ffaa1cd64736f6c63430008070033\n}\n",
				"bytecode": {
					"linkReferences": {},
					"object": "6080604052348015600f57600080fd5b50607580601d6000396000f3fe6080604052348015600f57600080fd5b506004361060285760003560e01c8063f3593cd014602d575b600080fd5b60336035565b005b601560008190555056fea2646970667358221220f21a50b9e23ca0468ae535ebdc1e79ebd68d6162c7a5aaabf4d4f1806ffaa1cd64736f6c63430008070033",
					"opcodes": "PUSH1 0x80 PUSH1 0x40 MSTORE CALLVALUE DUP1 ISZERO PUSH1 0xF JUMPI PUSH1 0x0 DUP1 REVERT JUMPDEST POP PUSH1 0x75 DUP1 PUSH1 0x1D PUSH1 0x0 CODECOPY PUSH1 0x0 RETURN INVALID PUSH1 0x80 PUSH1 0x40 MSTORE CALLVALUE DUP1 ISZERO PUSH1 0xF JUMPI PUSH1 0x0 DUP1 REVERT JUMPDEST POP PUSH1 0x4 CALLDATASIZE LT PUSH1 0x28 JUMPI PUSH1 0x0 CALLDATALOAD PUSH1 0xE0 SHR DUP1 PUSH4 0xF3593CD0 EQ PUSH1 0x2D JUMPI JUMPDEST PUSH1 0x0 DUP1 REVERT JUMPDEST PUSH1 0x33 PUSH1 0x35 JUMP JUMPDEST STOP JUMPDEST PUSH1 0x15 PUSH1 0x0 DUP2 SWAP1 SSTORE POP JUMP INVALID LOG2 PUSH5 0x6970667358 0x22 SLT KECCAK256 CALLCODE BYTE POP 0xB9 0xE2 EXTCODECOPY LOG0 CHAINID DUP11 0xE5 CALLDATALOAD 0xEB 0xDC 0x1E PUSH26 0xEBD68D6162C7A5AAABF4D4F1806FFAA1CD64736F6C6343000807 STOP CALLER "
				},
				"gasEstimates": {
					"creation": {
						"codeDepositCost": "23400",
						"executionCost": "75",
						"totalCost": "23475"
					},
					"external": {
						"multiply()": "22236"
					}
				},
				"methodIdentifiers": {
					"multiply()": "f3593cd0"
				}
			},
			"storageLayout": {
				"storage": [
					{
						"astId": 3,
						"contract": "contracts/15_view_pure.sol:ViewPure",
						"label": "product",
						"offset": 0,
						"slot": "0",
						"type": "t_uint256"
					}
				],
				"types": {
					"t_uint256": {
						"encoding": "inplace",
						"label": "uint256",
						"numberOfBytes": "32"
					}
				}
			},
			"userdoc": {
				"kind": "user",
				"methods": {},
				"version": 1
			}
		}
	}
}