{
	"contracts/9_enums.sol": {
		"LearnEnum": {
			"abi": [
				{
					"inputs": [],
					"name": "getSize",
					"outputs": [
						{
							"internalType": "enum LearnEnum.Sizes",
							"name": "",
							"type": "uint8"
						}
					],
					"stateMutability": "view",
					"type": "function"
				},
				{
					"inputs": [],
					"name": "large",
					"outputs": [],
					"stateMutability": "nonpayable",
					"type": "function"
				},
				{
					"inputs": [],
					"name": "medium",
					"outputs": [],
					"stateMutability": "nonpayable",
					"type": "function"
				},
				{
					"inputs": [],
					"name": "small",
					"outputs": [],
					"stateMutability": "nonpayable",
					"type": "function"
				}
			],
			"devdoc": {
				"kind": "dev",
				"methods": {},
				"version": 1
			},
			"evm": {
				"assembly": "    /* \"contracts/9_enums.sol\":67:420  contract LearnEnum {... */\n  mstore(0x40, 0x80)\n  callvalue\n  dup1\n  iszero\n  tag_1\n  jumpi\n  0x00\n  dup1\n  revert\ntag_1:\n  pop\n  dataSize(sub_0)\n  dup1\n  dataOffset(sub_0)\n  0x00\n  codecopy\n  0x00\n  return\nstop\n\nsub_0: assembly {\n        /* \"contracts/9_enums.sol\":67:420  contract LearnEnum {... */\n      mstore(0x40, 0x80)\n      callvalue\n      dup1\n      iszero\n      tag_1\n      jumpi\n      0x00\n      dup1\n      revert\n    tag_1:\n      pop\n      jumpi(tag_2, lt(calldatasize, 0x04))\n      shr(0xe0, calldataload(0x00))\n      dup1\n      0x12987c98\n      eq\n      tag_3\n      jumpi\n      dup1\n      0x6cf3c25e\n      eq\n      tag_4\n      jumpi\n      dup1\n      0x97ccd07b\n      eq\n      tag_5\n      jumpi\n      dup1\n      0xde8fa431\n      eq\n      tag_6\n      jumpi\n    tag_2:\n      0x00\n      dup1\n      revert\n        /* \"contracts/9_enums.sol\":278:337  function large() public {... */\n    tag_3:\n      tag_7\n      tag_8\n      jump\t// in\n    tag_7:\n      stop\n        /* \"contracts/9_enums.sol\":148:207  function small() public {... */\n    tag_4:\n      tag_9\n      tag_10\n      jump\t// in\n    tag_9:\n      stop\n        /* \"contracts/9_enums.sol\":212:273  function medium() public {... */\n    tag_5:\n      tag_11\n      tag_12\n      jump\t// in\n    tag_11:\n      stop\n        /* \"contracts/9_enums.sol\":343:418  function getSize() public view returns (Sizes) {... */\n    tag_6:\n      tag_13\n      tag_14\n      jump\t// in\n    tag_13:\n      mload(0x40)\n      tag_15\n      swap2\n      swap1\n      tag_16\n      jump\t// in\n    tag_15:\n      mload(0x40)\n      dup1\n      swap2\n      sub\n      swap1\n      return\n        /* \"contracts/9_enums.sol\":278:337  function large() public {... */\n    tag_8:\n        /* \"contracts/9_enums.sol\":319:330  Sizes.LARGE */\n      0x02\n        /* \"contracts/9_enums.sol\":312:316  size */\n      0x00\n      dup1\n        /* \"contracts/9_enums.sol\":312:330  size = Sizes.LARGE */\n      0x0100\n      exp\n      dup2\n      sload\n      dup2\n      0xff\n      mul\n      not\n      and\n      swap1\n      dup4\n      0x02\n      dup2\n      gt\n      iszero\n      tag_18\n      jumpi\n      tag_19\n      tag_20\n      jump\t// in\n    tag_19:\n    tag_18:\n      mul\n      or\n      swap1\n      sstore\n      pop\n        /* \"contracts/9_enums.sol\":278:337  function large() public {... */\n      jump\t// out\n        /* \"contracts/9_enums.sol\":148:207  function small() public {... */\n    tag_10:\n        /* \"contracts/9_enums.sol\":189:200  Sizes.SMALL */\n      0x00\n        /* \"contracts/9_enums.sol\":182:186  size */\n      dup1\n      0x00\n        /* \"contracts/9_enums.sol\":182:200  size = Sizes.SMALL */\n      0x0100\n      exp\n      dup2\n      sload\n      dup2\n      0xff\n      mul\n      not\n      and\n      swap1\n      dup4\n      0x02\n      dup2\n      gt\n      iszero\n      tag_22\n      jumpi\n      tag_23\n      tag_20\n      jump\t// in\n    tag_23:\n    tag_22:\n      mul\n      or\n      swap1\n      sstore\n      pop\n        /* \"contracts/9_enums.sol\":148:207  function small() public {... */\n      jump\t// out\n        /* \"contracts/9_enums.sol\":212:273  function medium() public {... */\n    tag_12:\n        /* \"contracts/9_enums.sol\":254:266  Sizes.MEDIUM */\n      0x01\n        /* \"contracts/9_enums.sol\":247:251  size */\n      0x00\n      dup1\n        /* \"contracts/9_enums.sol\":247:266  size = Sizes.MEDIUM */\n      0x0100\n      exp\n      dup2\n      sload\n      dup2\n      0xff\n      mul\n      not\n      and\n      swap1\n      dup4\n      0x02\n      dup2\n      gt\n      iszero\n      tag_25\n      jumpi\n      tag_26\n      tag_20\n      jump\t// in\n    tag_26:\n    tag_25:\n      mul\n      or\n      swap1\n      sstore\n      pop\n        /* \"contracts/9_enums.sol\":212:273  function medium() public {... */\n      jump\t// out\n        /* \"contracts/9_enums.sol\":343:418  function getSize() public view returns (Sizes) {... */\n    tag_14:\n        /* \"contracts/9_enums.sol\":383:388  Sizes */\n      0x00\n        /* \"contracts/9_enums.sol\":407:411  size */\n      dup1\n      0x00\n      swap1\n      sload\n      swap1\n      0x0100\n      exp\n      swap1\n      div\n      0xff\n      and\n        /* \"contracts/9_enums.sol\":400:411  return size */\n      swap1\n      pop\n        /* \"contracts/9_enums.sol\":343:418  function getSize() public view returns (Sizes) {... */\n      swap1\n      jump\t// out\n        /* \"#utility.yul\":7:148   */\n    tag_29:\n        /* \"#utility.yul\":99:141   */\n      tag_31\n        /* \"#utility.yul\":135:140   */\n      dup2\n        /* \"#utility.yul\":99:141   */\n      tag_32\n      jump\t// in\n    tag_31:\n        /* \"#utility.yul\":94:97   */\n      dup3\n        /* \"#utility.yul\":87:142   */\n      mstore\n        /* \"#utility.yul\":7:148   */\n      pop\n      pop\n      jump\t// out\n        /* \"#utility.yul\":154:386   */\n    tag_16:\n        /* \"#utility.yul\":252:256   */\n      0x00\n        /* \"#utility.yul\":290:292   */\n      0x20\n        /* \"#utility.yul\":279:288   */\n      dup3\n        /* \"#utility.yul\":275:293   */\n      add\n        /* \"#utility.yul\":267:293   */\n      swap1\n      pop\n        /* \"#utility.yul\":303:379   */\n      tag_34\n        /* \"#utility.yul\":376:377   */\n      0x00\n        /* \"#utility.yul\":365:374   */\n      dup4\n        /* \"#utility.yul\":361:378   */\n      add\n        /* \"#utility.yul\":352:358   */\n      dup5\n        /* \"#utility.yul\":303:379   */\n      tag_29\n      jump\t// in\n    tag_34:\n        /* \"#utility.yul\":154:386   */\n      swap3\n      swap2\n      pop\n      pop\n      jump\t// out\n        /* \"#utility.yul\":392:517   */\n    tag_35:\n        /* \"#utility.yul\":436:443   */\n      0x00\n        /* \"#utility.yul\":465:470   */\n      dup2\n        /* \"#utility.yul\":454:470   */\n      swap1\n      pop\n        /* \"#utility.yul\":471:511   */\n      tag_37\n        /* \"#utility.yul\":505:510   */\n      dup3\n        /* \"#utility.yul\":471:511   */\n      tag_38\n      jump\t// in\n    tag_37:\n        /* \"#utility.yul\":392:517   */\n      swap2\n      swap1\n      pop\n      jump\t// out\n        /* \"#utility.yul\":523:648   */\n    tag_32:\n        /* \"#utility.yul\":578:587   */\n      0x00\n        /* \"#utility.yul\":611:642   */\n      tag_40\n        /* \"#utility.yul\":636:641   */\n      dup3\n        /* \"#utility.yul\":611:642   */\n      tag_35\n      jump\t// in\n    tag_40:\n        /* \"#utility.yul\":598:642   */\n      swap1\n      pop\n        /* \"#utility.yul\":523:648   */\n      swap2\n      swap1\n      pop\n      jump\t// out\n        /* \"#utility.yul\":654:834   */\n    tag_20:\n        /* \"#utility.yul\":702:779   */\n      0x4e487b7100000000000000000000000000000000000000000000000000000000\n        /* \"#utility.yul\":699:700   */\n      0x00\n        /* \"#utility.yul\":692:780   */\n      mstore\n        /* \"#utility.yul\":799:803   */\n      0x21\n        /* \"#utility.yul\":796:797   */\n      0x04\n        /* \"#utility.yul\":789:804   */\n      mstore\n        /* \"#utility.yul\":823:827   */\n      0x24\n        /* \"#utility.yul\":820:821   */\n      0x00\n        /* \"#utility.yul\":813:828   */\n      revert\n        /* \"#utility.yul\":840:952   */\n    tag_38:\n        /* \"#utility.yul\":920:921   */\n      0x03\n        /* \"#utility.yul\":913:918   */\n      dup2\n        /* \"#utility.yul\":910:922   */\n      lt\n        /* \"#utility.yul\":900:946   */\n      tag_43\n      jumpi\n        /* \"#utility.yul\":926:944   */\n      tag_44\n      tag_20\n      jump\t// in\n    tag_44:\n        /* \"#utility.yul\":900:946   */\n    tag_43:\n        /* \"#utility.yul\":840:952   */\n      pop\n      jump\t// out\n\n    auxdata: 0xa26469706673582212205cb452cff17adb47cabcc4431747bde9afdbd30a56457c078ea0e40f4a9073fd64736f6c63430008070033\n}\n",
				"bytecode": {
					"linkReferences": {},
					"object": "608060405234801561001057600080fd5b506101ef806100206000396000f3fe608060405234801561001057600080fd5b506004361061004c5760003560e01c806312987c98146100515780636cf3c25e1461005b57806397ccd07b14610065578063de8fa4311461006f575b600080fd5b61005961008d565b005b6100636100b9565b005b61006d6100e5565b005b610077610111565b6040516100849190610136565b60405180910390f35b60026000806101000a81548160ff021916908360028111156100b2576100b1610176565b5b0217905550565b60008060006101000a81548160ff021916908360028111156100de576100dd610176565b5b0217905550565b60016000806101000a81548160ff0219169083600281111561010a57610109610176565b5b0217905550565b60008060009054906101000a900460ff16905090565b61013081610164565b82525050565b600060208201905061014b6000830184610127565b92915050565b600081905061015f826101a5565b919050565b600061016f82610151565b9050919050565b7f4e487b7100000000000000000000000000000000000000000000000000000000600052602160045260246000fd5b600381106101b6576101b5610176565b5b5056fea26469706673582212205cb452cff17adb47cabcc4431747bde9afdbd30a56457c078ea0e40f4a9073fd64736f6c63430008070033",
					"opcodes": "PUSH1 0x80 PUSH1 0x40 MSTORE CALLVALUE DUP1 ISZERO PUSH2 0x10 JUMPI PUSH1 0x0 DUP1 REVERT JUMPDEST POP PUSH2 0x1EF DUP1 PUSH2 0x20 PUSH1 0x0 CODECOPY PUSH1 0x0 RETURN INVALID PUSH1 0x80 PUSH1 0x40 MSTORE CALLVALUE DUP1 ISZERO PUSH2 0x10 JUMPI PUSH1 0x0 DUP1 REVERT JUMPDEST POP PUSH1 0x4 CALLDATASIZE LT PUSH2 0x4C JUMPI PUSH1 0x0 CALLDATALOAD PUSH1 0xE0 SHR DUP1 PUSH4 0x12987C98 EQ PUSH2 0x51 JUMPI DUP1 PUSH4 0x6CF3C25E EQ PUSH2 0x5B JUMPI DUP1 PUSH4 0x97CCD07B EQ PUSH2 0x65 JUMPI DUP1 PUSH4 0xDE8FA431 EQ PUSH2 0x6F JUMPI JUMPDEST PUSH1 0x0 DUP1 REVERT JUMPDEST PUSH2 0x59 PUSH2 0x8D JUMP JUMPDEST STOP JUMPDEST PUSH2 0x63 PUSH2 0xB9 JUMP JUMPDEST STOP JUMPDEST PUSH2 0x6D PUSH2 0xE5 JUMP JUMPDEST STOP JUMPDEST PUSH2 0x77 PUSH2 0x111 JUMP JUMPDEST PUSH1 0x40 MLOAD PUSH2 0x84 SWAP2 SWAP1 PUSH2 0x136 JUMP JUMPDEST PUSH1 0x40 MLOAD DUP1 SWAP2 SUB SWAP1 RETURN JUMPDEST PUSH1 0x2 PUSH1 0x0 DUP1 PUSH2 0x100 EXP DUP2 SLOAD DUP2 PUSH1 0xFF MUL NOT AND SWAP1 DUP4 PUSH1 0x2 DUP2 GT ISZERO PUSH2 0xB2 JUMPI PUSH2 0xB1 PUSH2 0x176 JUMP JUMPDEST JUMPDEST MUL OR SWAP1 SSTORE POP JUMP JUMPDEST PUSH1 0x0 DUP1 PUSH1 0x0 PUSH2 0x100 EXP DUP2 SLOAD DUP2 PUSH1 0xFF MUL NOT AND SWAP1 DUP4 PUSH1 0x2 DUP2 GT ISZERO PUSH2 0xDE JUMPI PUSH2 0xDD PUSH2 0x176 JUMP JUMPDEST JUMPDEST MUL OR SWAP1 SSTORE POP JUMP JUMPDEST PUSH1 0x1 PUSH1 0x0 DUP1 PUSH2 0x100 EXP DUP2 SLOAD DUP2 PUSH1 0xFF MUL NOT AND SWAP1 DUP4 PUSH1 0x2 DUP2 GT ISZERO PUSH2 0x10A JUMPI PUSH2 0x109 PUSH2 0x176 JUMP JUMPDEST JUMPDEST MUL OR SWAP1 SSTORE POP JUMP JUMPDEST PUSH1 0x0 DUP1 PUSH1 0x0 SWAP1 SLOAD SWAP1 PUSH2 0x100 EXP SWAP1 DIV PUSH1 0xFF AND SWAP1 POP SWAP1 JUMP JUMPDEST PUSH2 0x130 DUP2 PUSH2 0x164 JUMP JUMPDEST DUP3 MSTORE POP POP JUMP JUMPDEST PUSH1 0x0 PUSH1 0x20 DUP3 ADD SWAP1 POP PUSH2 0x14B PUSH1 0x0 DUP4 ADD DUP5 PUSH2 0x127 JUMP JUMPDEST SWAP3 SWAP2 POP POP JUMP JUMPDEST PUSH1 0x0 DUP2 SWAP1 POP PUSH2 0x15F DUP3 PUSH2 0x1A5 JUMP JUMPDEST SWAP2 SWAP1 POP JUMP JUMPDEST PUSH1 0x0 PUSH2 0x16F DUP3 PUSH2 0x151 JUMP JUMPDEST SWAP1 POP SWAP2 SWAP1 POP JUMP JUMPDEST PUSH32 0x4E487B7100000000000000000000000000000000000000000000000000000000 PUSH1 0x0 MSTORE PUSH1 0x21 PUSH1 0x4 MSTORE PUSH1 0x24 PUSH1 0x0 REVERT JUMPDEST PUSH1 0x3 DUP2 LT PUSH2 0x1B6 JUMPI PUSH2 0x1B5 PUSH2 0x176 JUMP JUMPDEST JUMPDEST POP JUMP INVALID LOG2 PUSH5 0x6970667358 0x22 SLT KECCAK256 0x5C 0xB4 MSTORE 0xCF CALL PUSH27 0xDB47CABCC4431747BDE9AFDBD30A56457C078EA0E40F4A9073FD64 PUSH20 0x6F6C634300080700330000000000000000000000 "
				},
				"gasEstimates": {
					"creation": {
						"codeDepositCost": "99000",
						"executionCost": "147",
						"totalCost": "99147"
					},
					"external": {
						"getSize()": "2612",
						"large()": "24409",
						"medium()": "24453",
						"small()": "24431"
					}
				},
				"methodIdentifiers": {
					"getSize()": "de8fa431",
					"large()": "12987c98",
					"medium()": "97ccd07b",
					"small()": "6cf3c25e"
				}
			},
			"storageLayout": {
				"storage": [
					{
						"astId": 8,
						"contract": "contracts/9_enums.sol:LearnEnum",
						"label": "size",
						"offset": 0,
						"slot": "0",
						"type": "t_enum(Sizes)5"
					}
				],
				"types": {
					"t_enum(Sizes)5": {
						"encoding": "inplace",
						"label": "enum LearnEnum.Sizes",
						"numberOfBytes": "1"
					}
				}
			},
			"userdoc": {
				"kind": "user",
				"methods": {},
				"version": 1
			}
		}
	}
}