{
	"contracts/4_decision.sol": {
		"Functions": {
			"abi": [
				{
					"inputs": [],
					"name": "airdrop",
					"outputs": [
						{
							"internalType": "uint256",
							"name": "",
							"type": "uint256"
						}
					],
					"stateMutability": "view",
					"type": "function"
				},
				{
					"inputs": [],
					"name": "validateOranges",
					"outputs": [
						{
							"internalType": "bool",
							"name": "",
							"type": "bool"
						}
					],
					"stateMutability": "view",
					"type": "function"
				}
			],
			"devdoc": {
				"kind": "dev",
				"methods": {},
				"version": 1
			},
			"evm": {
				"assembly": "    /* \"contracts/4_decision.sol\":67:438  contract Functions {... */\n  mstore(0x40, 0x80)\n    /* \"contracts/4_decision.sol\":107:108  5 */\n  0x05\n    /* \"contracts/4_decision.sol\":92:108  uint oranges = 5 */\n  0x00\n  sstore\n    /* \"contracts/4_decision.sol\":294:296  10 */\n  0x0a\n    /* \"contracts/4_decision.sol\":272:296  uint staking_wallet = 10 */\n  0x01\n  sstore\n    /* \"contracts/4_decision.sol\":67:438  contract Functions {... */\n  callvalue\n  dup1\n  iszero\n  tag_1\n  jumpi\n  0x00\n  dup1\n  revert\ntag_1:\n  pop\n  dataSize(sub_0)\n  dup1\n  dataOffset(sub_0)\n  0x00\n  codecopy\n  0x00\n  return\nstop\n\nsub_0: assembly {\n        /* \"contracts/4_decision.sol\":67:438  contract Functions {... */\n      mstore(0x40, 0x80)\n      callvalue\n      dup1\n      iszero\n      tag_1\n      jumpi\n      0x00\n      dup1\n      revert\n    tag_1:\n      pop\n      jumpi(tag_2, lt(calldatasize, 0x04))\n      shr(0xe0, calldataload(0x00))\n      dup1\n      0x3884d635\n      eq\n      tag_3\n      jumpi\n      dup1\n      0xb4a4fad8\n      eq\n      tag_4\n      jumpi\n    tag_2:\n      0x00\n      dup1\n      revert\n        /* \"contracts/4_decision.sol\":303:436  function airdrop() public view returns(uint){... */\n    tag_3:\n      tag_5\n      tag_6\n      jump\t// in\n    tag_5:\n      mload(0x40)\n      tag_7\n      swap2\n      swap1\n      tag_8\n      jump\t// in\n    tag_7:\n      mload(0x40)\n      dup1\n      swap2\n      sub\n      swap1\n      return\n        /* \"contracts/4_decision.sol\":115:266  function validateOranges() public view returns(bool) {... */\n    tag_4:\n      tag_9\n      tag_10\n      jump\t// in\n    tag_9:\n      mload(0x40)\n      tag_11\n      swap2\n      swap1\n      tag_12\n      jump\t// in\n    tag_11:\n      mload(0x40)\n      dup1\n      swap2\n      sub\n      swap1\n      return\n        /* \"contracts/4_decision.sol\":303:436  function airdrop() public view returns(uint){... */\n    tag_6:\n        /* \"contracts/4_decision.sol\":342:346  uint */\n      0x00\n        /* \"contracts/4_decision.sol\":378:380  10 */\n      0x0a\n        /* \"contracts/4_decision.sol\":360:374  staking_wallet */\n      sload(0x01)\n        /* \"contracts/4_decision.sol\":360:380  staking_wallet == 10 */\n      eq\n        /* \"contracts/4_decision.sol\":357:430  if(staking_wallet == 10){... */\n      iszero\n      tag_14\n      jumpi\n        /* \"contracts/4_decision.sol\":417:419  10 */\n      0x0a\n        /* \"contracts/4_decision.sol\":402:416  staking_wallet */\n      sload(0x01)\n        /* \"contracts/4_decision.sol\":402:419  staking_wallet+10 */\n      tag_15\n      swap2\n      swap1\n      tag_16\n      jump\t// in\n    tag_15:\n        /* \"contracts/4_decision.sol\":395:419  return staking_wallet+10 */\n      swap1\n      pop\n      jump(tag_13)\n        /* \"contracts/4_decision.sol\":357:430  if(staking_wallet == 10){... */\n    tag_14:\n        /* \"contracts/4_decision.sol\":303:436  function airdrop() public view returns(uint){... */\n    tag_13:\n      swap1\n      jump\t// out\n        /* \"contracts/4_decision.sol\":115:266  function validateOranges() public view returns(bool) {... */\n    tag_10:\n        /* \"contracts/4_decision.sol\":162:166  bool */\n      0x00\n        /* \"contracts/4_decision.sol\":192:193  5 */\n      0x05\n        /* \"contracts/4_decision.sol\":181:188  oranges */\n      sload(0x00)\n        /* \"contracts/4_decision.sol\":181:193  oranges == 5 */\n      eq\n        /* \"contracts/4_decision.sol\":178:260  if(oranges == 5){... */\n      iszero\n      tag_18\n      jumpi\n        /* \"contracts/4_decision.sol\":215:219  true */\n      0x01\n        /* \"contracts/4_decision.sol\":208:219  return true */\n      swap1\n      pop\n      jump(tag_17)\n        /* \"contracts/4_decision.sol\":178:260  if(oranges == 5){... */\n    tag_18:\n        /* \"contracts/4_decision.sol\":252:257  false */\n      0x00\n        /* \"contracts/4_decision.sol\":245:257  return false */\n      swap1\n      pop\n        /* \"contracts/4_decision.sol\":115:266  function validateOranges() public view returns(bool) {... */\n    tag_17:\n      swap1\n      jump\t// out\n        /* \"#utility.yul\":7:116   */\n    tag_21:\n        /* \"#utility.yul\":88:109   */\n      tag_23\n        /* \"#utility.yul\":103:108   */\n      dup2\n        /* \"#utility.yul\":88:109   */\n      tag_24\n      jump\t// in\n    tag_23:\n        /* \"#utility.yul\":83:86   */\n      dup3\n        /* \"#utility.yul\":76:110   */\n      mstore\n        /* \"#utility.yul\":7:116   */\n      pop\n      pop\n      jump\t// out\n        /* \"#utility.yul\":122:240   */\n    tag_25:\n        /* \"#utility.yul\":209:233   */\n      tag_27\n        /* \"#utility.yul\":227:232   */\n      dup2\n        /* \"#utility.yul\":209:233   */\n      tag_28\n      jump\t// in\n    tag_27:\n        /* \"#utility.yul\":204:207   */\n      dup3\n        /* \"#utility.yul\":197:234   */\n      mstore\n        /* \"#utility.yul\":122:240   */\n      pop\n      pop\n      jump\t// out\n        /* \"#utility.yul\":246:456   */\n    tag_12:\n        /* \"#utility.yul\":333:337   */\n      0x00\n        /* \"#utility.yul\":371:373   */\n      0x20\n        /* \"#utility.yul\":360:369   */\n      dup3\n        /* \"#utility.yul\":356:374   */\n      add\n        /* \"#utility.yul\":348:374   */\n      swap1\n      pop\n        /* \"#utility.yul\":384:449   */\n      tag_30\n        /* \"#utility.yul\":446:447   */\n      0x00\n        /* \"#utility.yul\":435:444   */\n      dup4\n        /* \"#utility.yul\":431:448   */\n      add\n        /* \"#utility.yul\":422:428   */\n      dup5\n        /* \"#utility.yul\":384:449   */\n      tag_21\n      jump\t// in\n    tag_30:\n        /* \"#utility.yul\":246:456   */\n      swap3\n      swap2\n      pop\n      pop\n      jump\t// out\n        /* \"#utility.yul\":462:684   */\n    tag_8:\n        /* \"#utility.yul\":555:559   */\n      0x00\n        /* \"#utility.yul\":593:595   */\n      0x20\n        /* \"#utility.yul\":582:591   */\n      dup3\n        /* \"#utility.yul\":578:596   */\n      add\n        /* \"#utility.yul\":570:596   */\n      swap1\n      pop\n        /* \"#utility.yul\":606:677   */\n      tag_32\n        /* \"#utility.yul\":674:675   */\n      0x00\n        /* \"#utility.yul\":663:672   */\n      dup4\n        /* \"#utility.yul\":659:676   */\n      add\n        /* \"#utility.yul\":650:656   */\n      dup5\n        /* \"#utility.yul\":606:677   */\n      tag_25\n      jump\t// in\n    tag_32:\n        /* \"#utility.yul\":462:684   */\n      swap3\n      swap2\n      pop\n      pop\n      jump\t// out\n        /* \"#utility.yul\":690:995   */\n    tag_16:\n        /* \"#utility.yul\":730:733   */\n      0x00\n        /* \"#utility.yul\":749:769   */\n      tag_34\n        /* \"#utility.yul\":767:768   */\n      dup3\n        /* \"#utility.yul\":749:769   */\n      tag_28\n      jump\t// in\n    tag_34:\n        /* \"#utility.yul\":744:769   */\n      swap2\n      pop\n        /* \"#utility.yul\":783:803   */\n      tag_35\n        /* \"#utility.yul\":801:802   */\n      dup4\n        /* \"#utility.yul\":783:803   */\n      tag_28\n      jump\t// in\n    tag_35:\n        /* \"#utility.yul\":778:803   */\n      swap3\n      pop\n        /* \"#utility.yul\":937:938   */\n      dup3\n        /* \"#utility.yul\":869:935   */\n      0xffffffffffffffffffffffffffffffffffffffffffffffffffffffffffffffff\n        /* \"#utility.yul\":865:939   */\n      sub\n        /* \"#utility.yul\":862:863   */\n      dup3\n        /* \"#utility.yul\":859:940   */\n      gt\n        /* \"#utility.yul\":856:963   */\n      iszero\n      tag_36\n      jumpi\n        /* \"#utility.yul\":943:961   */\n      tag_37\n      tag_38\n      jump\t// in\n    tag_37:\n        /* \"#utility.yul\":856:963   */\n    tag_36:\n        /* \"#utility.yul\":987:988   */\n      dup3\n        /* \"#utility.yul\":984:985   */\n      dup3\n        /* \"#utility.yul\":980:989   */\n      add\n        /* \"#utility.yul\":973:989   */\n      swap1\n      pop\n        /* \"#utility.yul\":690:995   */\n      swap3\n      swap2\n      pop\n      pop\n      jump\t// out\n        /* \"#utility.yul\":1001:1091   */\n    tag_24:\n        /* \"#utility.yul\":1035:1042   */\n      0x00\n        /* \"#utility.yul\":1078:1083   */\n      dup2\n        /* \"#utility.yul\":1071:1084   */\n      iszero\n        /* \"#utility.yul\":1064:1085   */\n      iszero\n        /* \"#utility.yul\":1053:1085   */\n      swap1\n      pop\n        /* \"#utility.yul\":1001:1091   */\n      swap2\n      swap1\n      pop\n      jump\t// out\n        /* \"#utility.yul\":1097:1174   */\n    tag_28:\n        /* \"#utility.yul\":1134:1141   */\n      0x00\n        /* \"#utility.yul\":1163:1168   */\n      dup2\n        /* \"#utility.yul\":1152:1168   */\n      swap1\n      pop\n        /* \"#utility.yul\":1097:1174   */\n      swap2\n      swap1\n      pop\n      jump\t// out\n        /* \"#utility.yul\":1180:1360   */\n    tag_38:\n        /* \"#utility.yul\":1228:1305   */\n      0x4e487b7100000000000000000000000000000000000000000000000000000000\n        /* \"#utility.yul\":1225:1226   */\n      0x00\n        /* \"#utility.yul\":1218:1306   */\n      mstore\n        /* \"#utility.yul\":1325:1329   */\n      0x11\n        /* \"#utility.yul\":1322:1323   */\n      0x04\n        /* \"#utility.yul\":1315:1330   */\n      mstore\n        /* \"#utility.yul\":1349:1353   */\n      0x24\n        /* \"#utility.yul\":1346:1347   */\n      0x00\n        /* \"#utility.yul\":1339:1354   */\n      revert\n\n    auxdata: 0xa264697066735822122099f797836e254494f377a735b757c84a8049888f6dfc3479866d66a1b4dfc91664736f6c63430008070033\n}\n",
				"bytecode": {
					"linkReferences": {},
					"object": "60806040526005600055600a60015534801561001a57600080fd5b506101e18061002a6000396000f3fe608060405234801561001057600080fd5b50600436106100365760003560e01c80633884d6351461003b578063b4a4fad814610059575b600080fd5b610043610077565b60405161005091906100f5565b60405180910390f35b61006161009e565b60405161006e91906100da565b60405180910390f35b6000600a600154141561009a57600a6001546100939190610110565b905061009b565b5b90565b6000600560005414156100b457600190506100b9565b600090505b90565b6100c581610166565b82525050565b6100d481610172565b82525050565b60006020820190506100ef60008301846100bc565b92915050565b600060208201905061010a60008301846100cb565b92915050565b600061011b82610172565b915061012683610172565b9250827fffffffffffffffffffffffffffffffffffffffffffffffffffffffffffffffff0382111561015b5761015a61017c565b5b828201905092915050565b60008115159050919050565b6000819050919050565b7f4e487b7100000000000000000000000000000000000000000000000000000000600052601160045260246000fdfea264697066735822122099f797836e254494f377a735b757c84a8049888f6dfc3479866d66a1b4dfc91664736f6c63430008070033",
					"opcodes": "PUSH1 0x80 PUSH1 0x40 MSTORE PUSH1 0x5 PUSH1 0x0 SSTORE PUSH1 0xA PUSH1 0x1 SSTORE CALLVALUE DUP1 ISZERO PUSH2 0x1A JUMPI PUSH1 0x0 DUP1 REVERT JUMPDEST POP PUSH2 0x1E1 DUP1 PUSH2 0x2A PUSH1 0x0 CODECOPY PUSH1 0x0 RETURN INVALID PUSH1 0x80 PUSH1 0x40 MSTORE CALLVALUE DUP1 ISZERO PUSH2 0x10 JUMPI PUSH1 0x0 DUP1 REVERT JUMPDEST POP PUSH1 0x4 CALLDATASIZE LT PUSH2 0x36 JUMPI PUSH1 0x0 CALLDATALOAD PUSH1 0xE0 SHR DUP1 PUSH4 0x3884D635 EQ PUSH2 0x3B JUMPI DUP1 PUSH4 0xB4A4FAD8 EQ PUSH2 0x59 JUMPI JUMPDEST PUSH1 0x0 DUP1 REVERT JUMPDEST PUSH2 0x43 PUSH2 0x77 JUMP JUMPDEST PUSH1 0x40 MLOAD PUSH2 0x50 SWAP2 SWAP1 PUSH2 0xF5 JUMP JUMPDEST PUSH1 0x40 MLOAD DUP1 SWAP2 SUB SWAP1 RETURN JUMPDEST PUSH2 0x61 PUSH2 0x9E JUMP JUMPDEST PUSH1 0x40 MLOAD PUSH2 0x6E SWAP2 SWAP1 PUSH2 0xDA JUMP JUMPDEST PUSH1 0x40 MLOAD DUP1 SWAP2 SUB SWAP1 RETURN JUMPDEST PUSH1 0x0 PUSH1 0xA PUSH1 0x1 SLOAD EQ ISZERO PUSH2 0x9A JUMPI PUSH1 0xA PUSH1 0x1 SLOAD PUSH2 0x93 SWAP2 SWAP1 PUSH2 0x110 JUMP JUMPDEST SWAP1 POP PUSH2 0x9B JUMP JUMPDEST JUMPDEST SWAP1 JUMP JUMPDEST PUSH1 0x0 PUSH1 0x5 PUSH1 0x0 SLOAD EQ ISZERO PUSH2 0xB4 JUMPI PUSH1 0x1 SWAP1 POP PUSH2 0xB9 JUMP JUMPDEST PUSH1 0x0 SWAP1 POP JUMPDEST SWAP1 JUMP JUMPDEST PUSH2 0xC5 DUP2 PUSH2 0x166 JUMP JUMPDEST DUP3 MSTORE POP POP JUMP JUMPDEST PUSH2 0xD4 DUP2 PUSH2 0x172 JUMP JUMPDEST DUP3 MSTORE POP POP JUMP JUMPDEST PUSH1 0x0 PUSH1 0x20 DUP3 ADD SWAP1 POP PUSH2 0xEF PUSH1 0x0 DUP4 ADD DUP5 PUSH2 0xBC JUMP JUMPDEST SWAP3 SWAP2 POP POP JUMP JUMPDEST PUSH1 0x0 PUSH1 0x20 DUP3 ADD SWAP1 POP PUSH2 0x10A PUSH1 0x0 DUP4 ADD DUP5 PUSH2 0xCB JUMP JUMPDEST SWAP3 SWAP2 POP POP JUMP JUMPDEST PUSH1 0x0 PUSH2 0x11B DUP3 PUSH2 0x172 JUMP JUMPDEST SWAP2 POP PUSH2 0x126 DUP4 PUSH2 0x172 JUMP JUMPDEST SWAP3 POP DUP3 PUSH32 0xFFFFFFFFFFFFFFFFFFFFFFFFFFFFFFFFFFFFFFFFFFFFFFFFFFFFFFFFFFFFFFFF SUB DUP3 GT ISZERO PUSH2 0x15B JUMPI PUSH2 0x15A PUSH2 0x17C JUMP JUMPDEST JUMPDEST DUP3 DUP3 ADD SWAP1 POP SWAP3 SWAP2 POP POP JUMP JUMPDEST PUSH1 0x0 DUP2 ISZERO ISZERO SWAP1 POP SWAP2 SWAP1 POP JUMP JUMPDEST PUSH1 0x0 DUP2 SWAP1 POP SWAP2 SWAP1 POP JUMP JUMPDEST PUSH32 0x4E487B7100000000000000000000000000000000000000000000000000000000 PUSH1 0x0 MSTORE PUSH1 0x11 PUSH1 0x4 MSTORE PUSH1 0x24 PUSH1 0x0 REVERT INVALID LOG2 PUSH5 0x6970667358 0x22 SLT KECCAK256 SWAP10 0xF7 SWAP8 DUP4 PUSH15 0x254494F377A735B757C84A8049888F PUSH14 0xFC3479866D66A1B4DFC91664736F PUSH13 0x63430008070033000000000000 "
				},
				"gasEstimates": {
					"creation": {
						"codeDepositCost": "96200",
						"executionCost": "44359",
						"totalCost": "140559"
					},
					"external": {
						"airdrop()": "infinite",
						"validateOranges()": "2480"
					}
				},
				"methodIdentifiers": {
					"airdrop()": "3884d635",
					"validateOranges()": "b4a4fad8"
				}
			},
			"storageLayout": {
				"storage": [
					{
						"astId": 4,
						"contract": "contracts/4_decision.sol:Functions",
						"label": "oranges",
						"offset": 0,
						"slot": "0",
						"type": "t_uint256"
					},
					{
						"astId": 23,
						"contract": "contracts/4_decision.sol:Functions",
						"label": "staking_wallet",
						"offset": 0,
						"slot": "1",
						"type": "t_uint256"
					}
				],
				"types": {
					"t_uint256": {
						"encoding": "inplace",
						"label": "uint256",
						"numberOfBytes": "32"
					}
				}
			},
			"userdoc": {
				"kind": "user",
				"methods": {},
				"version": 1
			}
		}
	}
}