{
	"contracts/18_hashes_random_number.sol": {
		"RandomNumberGenerator": {
			"abi": [
				{
					"inputs": [
						{
							"internalType": "uint256",
							"name": "range",
							"type": "uint256"
						}
					],
					"name": "randMod",
					"outputs": [
						{
							"internalType": "uint256",
							"name": "",
							"type": "uint256"
						}
					],
					"stateMutability": "view",
					"type": "function"
				}
			],
			"devdoc": {
				"kind": "dev",
				"methods": {},
				"version": 1
			},
			"evm": {
				"assembly": "    /* \"contracts/18_hashes_random_number.sol\":67:268  contract RandomNumberGenerator {... */\n  mstore(0x40, 0x80)\n  callvalue\n  dup1\n  iszero\n  tag_1\n  jumpi\n  0x00\n  dup1\n  revert\ntag_1:\n  pop\n  dataSize(sub_0)\n  dup1\n  dataOffset(sub_0)\n  0x00\n  codecopy\n  0x00\n  return\nstop\n\nsub_0: assembly {\n        /* \"contracts/18_hashes_random_number.sol\":67:268  contract RandomNumberGenerator {... */\n      mstore(0x40, 0x80)\n      callvalue\n      dup1\n      iszero\n      tag_1\n      jumpi\n      0x00\n      dup1\n      revert\n    tag_1:\n      pop\n      jumpi(tag_2, lt(calldatasize, 0x04))\n      shr(0xe0, calldataload(0x00))\n      dup1\n      0x805553e8\n      eq\n      tag_3\n      jumpi\n    tag_2:\n      0x00\n      dup1\n      revert\n        /* \"contracts/18_hashes_random_number.sol\":105:266  function randMod(uint range) external view returns(uint) {... */\n    tag_3:\n      tag_4\n      0x04\n      dup1\n      calldatasize\n      sub\n      dup2\n      add\n      swap1\n      tag_5\n      swap2\n      swap1\n      tag_6\n      jump\t// in\n    tag_5:\n      tag_7\n      jump\t// in\n    tag_4:\n      mload(0x40)\n      tag_8\n      swap2\n      swap1\n      tag_9\n      jump\t// in\n    tag_8:\n      mload(0x40)\n      dup1\n      swap2\n      sub\n      swap1\n      return\n    tag_7:\n        /* \"contracts/18_hashes_random_number.sol\":156:160  uint */\n      0x00\n        /* \"contracts/18_hashes_random_number.sol\":211:226  block.timestamp */\n      timestamp\n        /* \"contracts/18_hashes_random_number.sol\":228:244  block.difficulty */\n      difficulty\n        /* \"contracts/18_hashes_random_number.sol\":246:256  msg.sender */\n      caller\n        /* \"contracts/18_hashes_random_number.sol\":194:257  abi.encodePacked(block.timestamp, block.difficulty, msg.sender) */\n      add(0x20, mload(0x40))\n      tag_11\n      swap4\n      swap3\n      swap2\n      swap1\n      tag_12\n      jump\t// in\n    tag_11:\n      mload(0x40)\n      0x20\n      dup2\n      dup4\n      sub\n      sub\n      dup2\n      mstore\n      swap1\n      0x40\n      mstore\n        /* \"contracts/18_hashes_random_number.sol\":184:258  keccak256(abi.encodePacked(block.timestamp, block.difficulty, msg.sender)) */\n      dup1\n      mload\n      swap1\n      0x20\n      add\n      keccak256\n        /* \"contracts/18_hashes_random_number.sol\":179:259  uint(keccak256(abi.encodePacked(block.timestamp, block.difficulty, msg.sender))) */\n      0x00\n      shr\n        /* \"contracts/18_hashes_random_number.sol\":172:259  return uint(keccak256(abi.encodePacked(block.timestamp, block.difficulty, msg.sender))) */\n      swap1\n      pop\n        /* \"contracts/18_hashes_random_number.sol\":105:266  function randMod(uint range) external view returns(uint) {... */\n      swap2\n      swap1\n      pop\n      jump\t// out\n        /* \"#utility.yul\":7:146   */\n    tag_14:\n        /* \"#utility.yul\":53:58   */\n      0x00\n        /* \"#utility.yul\":91:97   */\n      dup2\n        /* \"#utility.yul\":78:98   */\n      calldataload\n        /* \"#utility.yul\":69:98   */\n      swap1\n      pop\n        /* \"#utility.yul\":107:140   */\n      tag_16\n        /* \"#utility.yul\":134:139   */\n      dup2\n        /* \"#utility.yul\":107:140   */\n      tag_17\n      jump\t// in\n    tag_16:\n        /* \"#utility.yul\":7:146   */\n      swap3\n      swap2\n      pop\n      pop\n      jump\t// out\n        /* \"#utility.yul\":152:481   */\n    tag_6:\n        /* \"#utility.yul\":211:217   */\n      0x00\n        /* \"#utility.yul\":260:262   */\n      0x20\n        /* \"#utility.yul\":248:257   */\n      dup3\n        /* \"#utility.yul\":239:246   */\n      dup5\n        /* \"#utility.yul\":235:258   */\n      sub\n        /* \"#utility.yul\":231:263   */\n      slt\n        /* \"#utility.yul\":228:347   */\n      iszero\n      tag_19\n      jumpi\n        /* \"#utility.yul\":266:345   */\n      tag_20\n      tag_21\n      jump\t// in\n    tag_20:\n        /* \"#utility.yul\":228:347   */\n    tag_19:\n        /* \"#utility.yul\":386:387   */\n      0x00\n        /* \"#utility.yul\":411:464   */\n      tag_22\n        /* \"#utility.yul\":456:463   */\n      dup5\n        /* \"#utility.yul\":447:453   */\n      dup3\n        /* \"#utility.yul\":436:445   */\n      dup6\n        /* \"#utility.yul\":432:454   */\n      add\n        /* \"#utility.yul\":411:464   */\n      tag_14\n      jump\t// in\n    tag_22:\n        /* \"#utility.yul\":401:464   */\n      swap2\n      pop\n        /* \"#utility.yul\":357:474   */\n      pop\n        /* \"#utility.yul\":152:481   */\n      swap3\n      swap2\n      pop\n      pop\n      jump\t// out\n        /* \"#utility.yul\":487:644   */\n    tag_23:\n        /* \"#utility.yul\":592:637   */\n      tag_25\n        /* \"#utility.yul\":612:636   */\n      tag_26\n        /* \"#utility.yul\":630:635   */\n      dup3\n        /* \"#utility.yul\":612:636   */\n      tag_27\n      jump\t// in\n    tag_26:\n        /* \"#utility.yul\":592:637   */\n      tag_28\n      jump\t// in\n    tag_25:\n        /* \"#utility.yul\":587:590   */\n      dup3\n        /* \"#utility.yul\":580:638   */\n      mstore\n        /* \"#utility.yul\":487:644   */\n      pop\n      pop\n      jump\t// out\n        /* \"#utility.yul\":650:768   */\n    tag_29:\n        /* \"#utility.yul\":737:761   */\n      tag_31\n        /* \"#utility.yul\":755:760   */\n      dup2\n        /* \"#utility.yul\":737:761   */\n      tag_32\n      jump\t// in\n    tag_31:\n        /* \"#utility.yul\":732:735   */\n      dup3\n        /* \"#utility.yul\":725:762   */\n      mstore\n        /* \"#utility.yul\":650:768   */\n      pop\n      pop\n      jump\t// out\n        /* \"#utility.yul\":774:931   */\n    tag_33:\n        /* \"#utility.yul\":879:924   */\n      tag_35\n        /* \"#utility.yul\":899:923   */\n      tag_36\n        /* \"#utility.yul\":917:922   */\n      dup3\n        /* \"#utility.yul\":899:923   */\n      tag_32\n      jump\t// in\n    tag_36:\n        /* \"#utility.yul\":879:924   */\n      tag_37\n      jump\t// in\n    tag_35:\n        /* \"#utility.yul\":874:877   */\n      dup3\n        /* \"#utility.yul\":867:925   */\n      mstore\n        /* \"#utility.yul\":774:931   */\n      pop\n      pop\n      jump\t// out\n        /* \"#utility.yul\":937:1475   */\n    tag_12:\n        /* \"#utility.yul\":1105:1108   */\n      0x00\n        /* \"#utility.yul\":1120:1195   */\n      tag_39\n        /* \"#utility.yul\":1191:1194   */\n      dup3\n        /* \"#utility.yul\":1182:1188   */\n      dup7\n        /* \"#utility.yul\":1120:1195   */\n      tag_33\n      jump\t// in\n    tag_39:\n        /* \"#utility.yul\":1220:1222   */\n      0x20\n        /* \"#utility.yul\":1215:1218   */\n      dup3\n        /* \"#utility.yul\":1211:1223   */\n      add\n        /* \"#utility.yul\":1204:1223   */\n      swap2\n      pop\n        /* \"#utility.yul\":1233:1308   */\n      tag_40\n        /* \"#utility.yul\":1304:1307   */\n      dup3\n        /* \"#utility.yul\":1295:1301   */\n      dup6\n        /* \"#utility.yul\":1233:1308   */\n      tag_33\n      jump\t// in\n    tag_40:\n        /* \"#utility.yul\":1333:1335   */\n      0x20\n        /* \"#utility.yul\":1328:1331   */\n      dup3\n        /* \"#utility.yul\":1324:1336   */\n      add\n        /* \"#utility.yul\":1317:1336   */\n      swap2\n      pop\n        /* \"#utility.yul\":1346:1421   */\n      tag_41\n        /* \"#utility.yul\":1417:1420   */\n      dup3\n        /* \"#utility.yul\":1408:1414   */\n      dup5\n        /* \"#utility.yul\":1346:1421   */\n      tag_23\n      jump\t// in\n    tag_41:\n        /* \"#utility.yul\":1446:1448   */\n      0x14\n        /* \"#utility.yul\":1441:1444   */\n      dup3\n        /* \"#utility.yul\":1437:1449   */\n      add\n        /* \"#utility.yul\":1430:1449   */\n      swap2\n      pop\n        /* \"#utility.yul\":1466:1469   */\n      dup2\n        /* \"#utility.yul\":1459:1469   */\n      swap1\n      pop\n        /* \"#utility.yul\":937:1475   */\n      swap5\n      swap4\n      pop\n      pop\n      pop\n      pop\n      jump\t// out\n        /* \"#utility.yul\":1481:1703   */\n    tag_9:\n        /* \"#utility.yul\":1574:1578   */\n      0x00\n        /* \"#utility.yul\":1612:1614   */\n      0x20\n        /* \"#utility.yul\":1601:1610   */\n      dup3\n        /* \"#utility.yul\":1597:1615   */\n      add\n        /* \"#utility.yul\":1589:1615   */\n      swap1\n      pop\n        /* \"#utility.yul\":1625:1696   */\n      tag_43\n        /* \"#utility.yul\":1693:1694   */\n      0x00\n        /* \"#utility.yul\":1682:1691   */\n      dup4\n        /* \"#utility.yul\":1678:1695   */\n      add\n        /* \"#utility.yul\":1669:1675   */\n      dup5\n        /* \"#utility.yul\":1625:1696   */\n      tag_29\n      jump\t// in\n    tag_43:\n        /* \"#utility.yul\":1481:1703   */\n      swap3\n      swap2\n      pop\n      pop\n      jump\t// out\n        /* \"#utility.yul\":1790:1886   */\n    tag_27:\n        /* \"#utility.yul\":1827:1834   */\n      0x00\n        /* \"#utility.yul\":1856:1880   */\n      tag_47\n        /* \"#utility.yul\":1874:1879   */\n      dup3\n        /* \"#utility.yul\":1856:1880   */\n      tag_48\n      jump\t// in\n    tag_47:\n        /* \"#utility.yul\":1845:1880   */\n      swap1\n      pop\n        /* \"#utility.yul\":1790:1886   */\n      swap2\n      swap1\n      pop\n      jump\t// out\n        /* \"#utility.yul\":1892:2018   */\n    tag_48:\n        /* \"#utility.yul\":1929:1936   */\n      0x00\n        /* \"#utility.yul\":1969:2011   */\n      0xffffffffffffffffffffffffffffffffffffffff\n        /* \"#utility.yul\":1962:1967   */\n      dup3\n        /* \"#utility.yul\":1958:2012   */\n      and\n        /* \"#utility.yul\":1947:2012   */\n      swap1\n      pop\n        /* \"#utility.yul\":1892:2018   */\n      swap2\n      swap1\n      pop\n      jump\t// out\n        /* \"#utility.yul\":2024:2101   */\n    tag_32:\n        /* \"#utility.yul\":2061:2068   */\n      0x00\n        /* \"#utility.yul\":2090:2095   */\n      dup2\n        /* \"#utility.yul\":2079:2095   */\n      swap1\n      pop\n        /* \"#utility.yul\":2024:2101   */\n      swap2\n      swap1\n      pop\n      jump\t// out\n        /* \"#utility.yul\":2107:2207   */\n    tag_28:\n        /* \"#utility.yul\":2146:2153   */\n      0x00\n        /* \"#utility.yul\":2175:2201   */\n      tag_52\n        /* \"#utility.yul\":2195:2200   */\n      dup3\n        /* \"#utility.yul\":2175:2201   */\n      tag_53\n      jump\t// in\n    tag_52:\n        /* \"#utility.yul\":2164:2201   */\n      swap1\n      pop\n        /* \"#utility.yul\":2107:2207   */\n      swap2\n      swap1\n      pop\n      jump\t// out\n        /* \"#utility.yul\":2213:2307   */\n    tag_53:\n        /* \"#utility.yul\":2252:2259   */\n      0x00\n        /* \"#utility.yul\":2281:2301   */\n      tag_55\n        /* \"#utility.yul\":2295:2300   */\n      dup3\n        /* \"#utility.yul\":2281:2301   */\n      tag_56\n      jump\t// in\n    tag_55:\n        /* \"#utility.yul\":2270:2301   */\n      swap1\n      pop\n        /* \"#utility.yul\":2213:2307   */\n      swap2\n      swap1\n      pop\n      jump\t// out\n        /* \"#utility.yul\":2313:2392   */\n    tag_37:\n        /* \"#utility.yul\":2352:2359   */\n      0x00\n        /* \"#utility.yul\":2381:2386   */\n      dup2\n        /* \"#utility.yul\":2370:2386   */\n      swap1\n      pop\n        /* \"#utility.yul\":2313:2392   */\n      swap2\n      swap1\n      pop\n      jump\t// out\n        /* \"#utility.yul\":2521:2638   */\n    tag_21:\n        /* \"#utility.yul\":2630:2631   */\n      0x00\n        /* \"#utility.yul\":2627:2628   */\n      dup1\n        /* \"#utility.yul\":2620:2632   */\n      revert\n        /* \"#utility.yul\":2644:2738   */\n    tag_56:\n        /* \"#utility.yul\":2677:2685   */\n      0x00\n        /* \"#utility.yul\":2725:2730   */\n      dup2\n        /* \"#utility.yul\":2721:2723   */\n      0x60\n        /* \"#utility.yul\":2717:2731   */\n      shl\n        /* \"#utility.yul\":2696:2731   */\n      swap1\n      pop\n        /* \"#utility.yul\":2644:2738   */\n      swap2\n      swap1\n      pop\n      jump\t// out\n        /* \"#utility.yul\":2744:2866   */\n    tag_17:\n        /* \"#utility.yul\":2817:2841   */\n      tag_63\n        /* \"#utility.yul\":2835:2840   */\n      dup2\n        /* \"#utility.yul\":2817:2841   */\n      tag_32\n      jump\t// in\n    tag_63:\n        /* \"#utility.yul\":2810:2815   */\n      dup2\n        /* \"#utility.yul\":2807:2842   */\n      eq\n        /* \"#utility.yul\":2797:2860   */\n      tag_64\n      jumpi\n        /* \"#utility.yul\":2856:2857   */\n      0x00\n        /* \"#utility.yul\":2853:2854   */\n      dup1\n        /* \"#utility.yul\":2846:2858   */\n      revert\n        /* \"#utility.yul\":2797:2860   */\n    tag_64:\n        /* \"#utility.yul\":2744:2866   */\n      pop\n      jump\t// out\n\n    auxdata: 0xa26469706673582212201a11f41456d2c04ca3cf527eda8ab7cf6cac290264898aa99f89b4f4c9cdfdf164736f6c63430008070033\n}\n",
				"bytecode": {
					"linkReferences": {},
					"object": "608060405234801561001057600080fd5b50610237806100206000396000f3fe608060405234801561001057600080fd5b506004361061002b5760003560e01c8063805553e814610030575b600080fd5b61004a600480360381019061004591906100ac565b610060565b6040516100579190610153565b60405180910390f35b600042443360405160200161007793929190610116565b6040516020818303038152906040528051906020012060001c9050919050565b6000813590506100a6816101ea565b92915050565b6000602082840312156100c2576100c16101d8565b5b60006100d084828501610097565b91505092915050565b6100ea6100e58261016e565b6101aa565b82525050565b6100f9816101a0565b82525050565b61011061010b826101a0565b6101ce565b82525050565b600061012282866100ff565b60208201915061013282856100ff565b60208201915061014282846100d9565b601482019150819050949350505050565b600060208201905061016860008301846100f0565b92915050565b600061017982610180565b9050919050565b600073ffffffffffffffffffffffffffffffffffffffff82169050919050565b6000819050919050565b60006101b5826101bc565b9050919050565b60006101c7826101dd565b9050919050565b6000819050919050565b600080fd5b60008160601b9050919050565b6101f3816101a0565b81146101fe57600080fd5b5056fea26469706673582212201a11f41456d2c04ca3cf527eda8ab7cf6cac290264898aa99f89b4f4c9cdfdf164736f6c63430008070033",
					"opcodes": "PUSH1 0x80 PUSH1 0x40 MSTORE CALLVALUE DUP1 ISZERO PUSH2 0x10 JUMPI PUSH1 0x0 DUP1 REVERT JUMPDEST POP PUSH2 0x237 DUP1 PUSH2 0x20 PUSH1 0x0 CODECOPY PUSH1 0x0 RETURN INVALID PUSH1 0x80 PUSH1 0x40 MSTORE CALLVALUE DUP1 ISZERO PUSH2 0x10 JUMPI PUSH1 0x0 DUP1 REVERT JUMPDEST POP PUSH1 0x4 CALLDATASIZE LT PUSH2 0x2B JUMPI PUSH1 0x0 CALLDATALOAD PUSH1 0xE0 SHR DUP1 PUSH4 0x805553E8 EQ PUSH2 0x30 JUMPI JUMPDEST PUSH1 0x0 DUP1 REVERT JUMPDEST PUSH2 0x4A PUSH1 0x4 DUP1 CALLDATASIZE SUB DUP2 ADD SWAP1 PUSH2 0x45 SWAP2 SWAP1 PUSH2 0xAC JUMP JUMPDEST PUSH2 0x60 JUMP JUMPDEST PUSH1 0x40 MLOAD PUSH2 0x57 SWAP2 SWAP1 PUSH2 0x153 JUMP JUMPDEST PUSH1 0x40 MLOAD DUP1 SWAP2 SUB SWAP1 RETURN JUMPDEST PUSH1 0x0 TIMESTAMP DIFFICULTY CALLER PUSH1 0x40 MLOAD PUSH1 0x20 ADD PUSH2 0x77 SWAP4 SWAP3 SWAP2 SWAP1 PUSH2 0x116 JUMP JUMPDEST PUSH1 0x40 MLOAD PUSH1 0x20 DUP2 DUP4 SUB SUB DUP2 MSTORE SWAP1 PUSH1 0x40 MSTORE DUP1 MLOAD SWAP1 PUSH1 0x20 ADD KECCAK256 PUSH1 0x0 SHR SWAP1 POP SWAP2 SWAP1 POP JUMP JUMPDEST PUSH1 0x0 DUP2 CALLDATALOAD SWAP1 POP PUSH2 0xA6 DUP2 PUSH2 0x1EA JUMP JUMPDEST SWAP3 SWAP2 POP POP JUMP JUMPDEST PUSH1 0x0 PUSH1 0x20 DUP3 DUP5 SUB SLT ISZERO PUSH2 0xC2 JUMPI PUSH2 0xC1 PUSH2 0x1D8 JUMP JUMPDEST JUMPDEST PUSH1 0x0 PUSH2 0xD0 DUP5 DUP3 DUP6 ADD PUSH2 0x97 JUMP JUMPDEST SWAP2 POP POP SWAP3 SWAP2 POP POP JUMP JUMPDEST PUSH2 0xEA PUSH2 0xE5 DUP3 PUSH2 0x16E JUMP JUMPDEST PUSH2 0x1AA JUMP JUMPDEST DUP3 MSTORE POP POP JUMP JUMPDEST PUSH2 0xF9 DUP2 PUSH2 0x1A0 JUMP JUMPDEST DUP3 MSTORE POP POP JUMP JUMPDEST PUSH2 0x110 PUSH2 0x10B DUP3 PUSH2 0x1A0 JUMP JUMPDEST PUSH2 0x1CE JUMP JUMPDEST DUP3 MSTORE POP POP JUMP JUMPDEST PUSH1 0x0 PUSH2 0x122 DUP3 DUP7 PUSH2 0xFF JUMP JUMPDEST PUSH1 0x20 DUP3 ADD SWAP2 POP PUSH2 0x132 DUP3 DUP6 PUSH2 0xFF JUMP JUMPDEST PUSH1 0x20 DUP3 ADD SWAP2 POP PUSH2 0x142 DUP3 DUP5 PUSH2 0xD9 JUMP JUMPDEST PUSH1 0x14 DUP3 ADD SWAP2 POP DUP2 SWAP1 POP SWAP5 SWAP4 POP POP POP POP JUMP JUMPDEST PUSH1 0x0 PUSH1 0x20 DUP3 ADD SWAP1 POP PUSH2 0x168 PUSH1 0x0 DUP4 ADD DUP5 PUSH2 0xF0 JUMP JUMPDEST SWAP3 SWAP2 POP POP JUMP JUMPDEST PUSH1 0x0 PUSH2 0x179 DUP3 PUSH2 0x180 JUMP JUMPDEST SWAP1 POP SWAP2 SWAP1 POP JUMP JUMPDEST PUSH1 0x0 PUSH20 0xFFFFFFFFFFFFFFFFFFFFFFFFFFFFFFFFFFFFFFFF DUP3 AND SWAP1 POP SWAP2 SWAP1 POP JUMP JUMPDEST PUSH1 0x0 DUP2 SWAP1 POP SWAP2 SWAP1 POP JUMP JUMPDEST PUSH1 0x0 PUSH2 0x1B5 DUP3 PUSH2 0x1BC JUMP JUMPDEST SWAP1 POP SWAP2 SWAP1 POP JUMP JUMPDEST PUSH1 0x0 PUSH2 0x1C7 DUP3 PUSH2 0x1DD JUMP JUMPDEST SWAP1 POP SWAP2 SWAP1 POP JUMP JUMPDEST PUSH1 0x0 DUP2 SWAP1 POP SWAP2 SWAP1 POP JUMP JUMPDEST PUSH1 0x0 DUP1 REVERT JUMPDEST PUSH1 0x0 DUP2 PUSH1 0x60 SHL SWAP1 POP SWAP2 SWAP1 POP JUMP JUMPDEST PUSH2 0x1F3 DUP2 PUSH2 0x1A0 JUMP JUMPDEST DUP2 EQ PUSH2 0x1FE JUMPI PUSH1 0x0 DUP1 REVERT JUMPDEST POP JUMP INVALID LOG2 PUSH5 0x6970667358 0x22 SLT KECCAK256 BYTE GT DELEGATECALL EQ JUMP 0xD2 0xC0 0x4C LOG3 0xCF MSTORE PUSH31 0xDA8AB7CF6CAC290264898AA99F89B4F4C9CDFDF164736F6C63430008070033 "
				},
				"gasEstimates": {
					"creation": {
						"codeDepositCost": "113400",
						"executionCost": "159",
						"totalCost": "113559"
					},
					"external": {
						"randMod(uint256)": "infinite"
					}
				},
				"methodIdentifiers": {
					"randMod(uint256)": "805553e8"
				}
			},
			"storageLayout": {
				"storage": [],
				"types": null
			},
			"userdoc": {
				"kind": "user",
				"methods": {},
				"version": 1
			}
		}
	}
}