{
	"contracts/10_structs.sol": {
		"LearnStruct": {
			"abi": [
				{
					"inputs": [],
					"name": "getMovie",
					"outputs": [
						{
							"components": [
								{
									"internalType": "string",
									"name": "title",
									"type": "string"
								},
								{
									"internalType": "string",
									"name": "director",
									"type": "string"
								},
								{
									"internalType": "uint256",
									"name": "id",
									"type": "uint256"
								}
							],
							"internalType": "struct LearnStruct.Movie",
							"name": "",
							"type": "tuple"
						}
					],
					"stateMutability": "view",
					"type": "function"
				},
				{
					"inputs": [],
					"name": "getMovieId",
					"outputs": [
						{
							"internalType": "uint256",
							"name": "",
							"type": "uint256"
						}
					],
					"stateMutability": "view",
					"type": "function"
				},
				{
					"inputs": [
						{
							"internalType": "string",
							"name": "_title",
							"type": "string"
						},
						{
							"internalType": "string",
							"name": "_director",
							"type": "string"
						},
						{
							"internalType": "uint256",
							"name": "_id",
							"type": "uint256"
						}
					],
					"name": "setMovie",
					"outputs": [],
					"stateMutability": "nonpayable",
					"type": "function"
				}
			],
			"devdoc": {
				"kind": "dev",
				"methods": {},
				"version": 1
			},
			"evm": {
				"assembly": "    /* \"contracts/10_structs.sol\":67:518  contract LearnStruct {... */\n  mstore(0x40, 0x80)\n  callvalue\n  dup1\n  iszero\n  tag_1\n  jumpi\n  0x00\n  dup1\n  revert\ntag_1:\n  pop\n  dataSize(sub_0)\n  dup1\n  dataOffset(sub_0)\n  0x00\n  codecopy\n  0x00\n  return\nstop\n\nsub_0: assembly {\n        /* \"contracts/10_structs.sol\":67:518  contract LearnStruct {... */\n      mstore(0x40, 0x80)\n      callvalue\n      dup1\n      iszero\n      tag_1\n      jumpi\n      0x00\n      dup1\n      revert\n    tag_1:\n      pop\n      jumpi(tag_2, lt(calldatasize, 0x04))\n      shr(0xe0, calldataload(0x00))\n      dup1\n      0x092e9563\n      eq\n      tag_3\n      jumpi\n      dup1\n      0x36dcabe0\n      eq\n      tag_4\n      jumpi\n      dup1\n      0x7b5f4eef\n      eq\n      tag_5\n      jumpi\n    tag_2:\n      0x00\n      dup1\n      revert\n        /* \"contracts/10_structs.sol\":202:339  function setMovie(string memory _title, string memory _director, uint _id) public  {... */\n    tag_3:\n      tag_6\n      0x04\n      dup1\n      calldatasize\n      sub\n      dup2\n      add\n      swap1\n      tag_7\n      swap2\n      swap1\n      tag_8\n      jump\t// in\n    tag_7:\n      tag_9\n      jump\t// in\n    tag_6:\n      stop\n        /* \"contracts/10_structs.sol\":435:516  function getMovieId() public view returns (uint) {... */\n    tag_4:\n      tag_10\n      tag_11\n      jump\t// in\n    tag_10:\n      mload(0x40)\n      tag_12\n      swap2\n      swap1\n      tag_13\n      jump\t// in\n    tag_12:\n      mload(0x40)\n      dup1\n      swap2\n      sub\n      swap1\n      return\n        /* \"contracts/10_structs.sol\":345:429  function getMovie() public view returns (Movie memory) {... */\n    tag_5:\n      tag_14\n      tag_15\n      jump\t// in\n    tag_14:\n      mload(0x40)\n      tag_16\n      swap2\n      swap1\n      tag_17\n      jump\t// in\n    tag_16:\n      mload(0x40)\n      dup1\n      swap2\n      sub\n      swap1\n      return\n        /* \"contracts/10_structs.sol\":202:339  function setMovie(string memory _title, string memory _director, uint _id) public  {... */\n    tag_9:\n        /* \"contracts/10_structs.sol\":303:332  Movie(_title, _director, _id) */\n      mload(0x40)\n      dup1\n      0x60\n      add\n      0x40\n      mstore\n      dup1\n        /* \"contracts/10_structs.sol\":309:315  _title */\n      dup5\n        /* \"contracts/10_structs.sol\":303:332  Movie(_title, _director, _id) */\n      dup2\n      mstore\n      0x20\n      add\n        /* \"contracts/10_structs.sol\":317:326  _director */\n      dup4\n        /* \"contracts/10_structs.sol\":303:332  Movie(_title, _director, _id) */\n      dup2\n      mstore\n      0x20\n      add\n        /* \"contracts/10_structs.sol\":328:331  _id */\n      dup3\n        /* \"contracts/10_structs.sol\":303:332  Movie(_title, _director, _id) */\n      dup2\n      mstore\n      pop\n        /* \"contracts/10_structs.sol\":295:300  movie */\n      0x00\n        /* \"contracts/10_structs.sol\":295:332  movie = Movie(_title, _director, _id) */\n      dup1\n      dup3\n      add\n      mload\n      dup2\n      0x00\n      add\n      swap1\n      dup1\n      mload\n      swap1\n      0x20\n      add\n      swap1\n      tag_19\n      swap3\n      swap2\n      swap1\n      tag_20\n      jump\t// in\n    tag_19:\n      pop\n      0x20\n      dup3\n      add\n      mload\n      dup2\n      0x01\n      add\n      swap1\n      dup1\n      mload\n      swap1\n      0x20\n      add\n      swap1\n      tag_21\n      swap3\n      swap2\n      swap1\n      tag_20\n      jump\t// in\n    tag_21:\n      pop\n      0x40\n      dup3\n      add\n      mload\n      dup2\n      0x02\n      add\n      sstore\n      swap1\n      pop\n      pop\n        /* \"contracts/10_structs.sol\":202:339  function setMovie(string memory _title, string memory _director, uint _id) public  {... */\n      pop\n      pop\n      pop\n      jump\t// out\n        /* \"contracts/10_structs.sol\":435:516  function getMovieId() public view returns (uint) {... */\n    tag_11:\n        /* \"contracts/10_structs.sol\":478:482  uint */\n      0x00\n        /* \"contracts/10_structs.sol\":501:506  movie */\n      dup1\n        /* \"contracts/10_structs.sol\":501:509  movie.id */\n      0x02\n      add\n      sload\n        /* \"contracts/10_structs.sol\":494:509  return movie.id */\n      swap1\n      pop\n        /* \"contracts/10_structs.sol\":435:516  function getMovieId() public view returns (uint) {... */\n      swap1\n      jump\t// out\n        /* \"contracts/10_structs.sol\":345:429  function getMovie() public view returns (Movie memory) {... */\n    tag_15:\n        /* \"contracts/10_structs.sol\":386:398  Movie memory */\n      tag_23\n      tag_24\n      jump\t// in\n    tag_23:\n        /* \"contracts/10_structs.sol\":417:422  movie */\n      0x00\n        /* \"contracts/10_structs.sol\":410:422  return movie */\n      mload(0x40)\n      dup1\n      0x60\n      add\n      0x40\n      mstore\n      swap1\n      dup2\n      0x00\n      dup3\n      add\n      dup1\n      sload\n      tag_26\n      swap1\n      tag_27\n      jump\t// in\n    tag_26:\n      dup1\n      0x1f\n      add\n      0x20\n      dup1\n      swap2\n      div\n      mul\n      0x20\n      add\n      mload(0x40)\n      swap1\n      dup2\n      add\n      0x40\n      mstore\n      dup1\n      swap3\n      swap2\n      swap1\n      dup2\n      dup2\n      mstore\n      0x20\n      add\n      dup3\n      dup1\n      sload\n      tag_28\n      swap1\n      tag_27\n      jump\t// in\n    tag_28:\n      dup1\n      iszero\n      tag_29\n      jumpi\n      dup1\n      0x1f\n      lt\n      tag_30\n      jumpi\n      0x0100\n      dup1\n      dup4\n      sload\n      div\n      mul\n      dup4\n      mstore\n      swap2\n      0x20\n      add\n      swap2\n      jump(tag_29)\n    tag_30:\n      dup3\n      add\n      swap2\n      swap1\n      0x00\n      mstore\n      keccak256(0x00, 0x20)\n      swap1\n    tag_31:\n      dup2\n      sload\n      dup2\n      mstore\n      swap1\n      0x01\n      add\n      swap1\n      0x20\n      add\n      dup1\n      dup4\n      gt\n      tag_31\n      jumpi\n      dup3\n      swap1\n      sub\n      0x1f\n      and\n      dup3\n      add\n      swap2\n    tag_29:\n      pop\n      pop\n      pop\n      pop\n      pop\n      dup2\n      mstore\n      0x20\n      add\n      0x01\n      dup3\n      add\n      dup1\n      sload\n      tag_32\n      swap1\n      tag_27\n      jump\t// in\n    tag_32:\n      dup1\n      0x1f\n      add\n      0x20\n      dup1\n      swap2\n      div\n      mul\n      0x20\n      add\n      mload(0x40)\n      swap1\n      dup2\n      add\n      0x40\n      mstore\n      dup1\n      swap3\n      swap2\n      swap1\n      dup2\n      dup2\n      mstore\n      0x20\n      add\n      dup3\n      dup1\n      sload\n      tag_33\n      swap1\n      tag_27\n      jump\t// in\n    tag_33:\n      dup1\n      iszero\n      tag_34\n      jumpi\n      dup1\n      0x1f\n      lt\n      tag_35\n      jumpi\n      0x0100\n      dup1\n      dup4\n      sload\n      div\n      mul\n      dup4\n      mstore\n      swap2\n      0x20\n      add\n      swap2\n      jump(tag_34)\n    tag_35:\n      dup3\n      add\n      swap2\n      swap1\n      0x00\n      mstore\n      keccak256(0x00, 0x20)\n      swap1\n    tag_36:\n      dup2\n      sload\n      dup2\n      mstore\n      swap1\n      0x01\n      add\n      swap1\n      0x20\n      add\n      dup1\n      dup4\n      gt\n      tag_36\n      jumpi\n      dup3\n      swap1\n      sub\n      0x1f\n      and\n      dup3\n      add\n      swap2\n    tag_34:\n      pop\n      pop\n      pop\n      pop\n      pop\n      dup2\n      mstore\n      0x20\n      add\n      0x02\n      dup3\n      add\n      sload\n      dup2\n      mstore\n      pop\n      pop\n      swap1\n      pop\n        /* \"contracts/10_structs.sol\":345:429  function getMovie() public view returns (Movie memory) {... */\n      swap1\n      jump\t// out\n    tag_20:\n      dup3\n      dup1\n      sload\n      tag_37\n      swap1\n      tag_27\n      jump\t// in\n    tag_37:\n      swap1\n      0x00\n      mstore\n      keccak256(0x00, 0x20)\n      swap1\n      0x1f\n      add\n      0x20\n      swap1\n      div\n      dup2\n      add\n      swap3\n      dup3\n      tag_39\n      jumpi\n      0x00\n      dup6\n      sstore\n      jump(tag_38)\n    tag_39:\n      dup3\n      0x1f\n      lt\n      tag_40\n      jumpi\n      dup1\n      mload\n      not(0xff)\n      and\n      dup4\n      dup1\n      add\n      or\n      dup6\n      sstore\n      jump(tag_38)\n    tag_40:\n      dup3\n      dup1\n      add\n      0x01\n      add\n      dup6\n      sstore\n      dup3\n      iszero\n      tag_38\n      jumpi\n      swap2\n      dup3\n      add\n    tag_41:\n      dup3\n      dup2\n      gt\n      iszero\n      tag_42\n      jumpi\n      dup3\n      mload\n      dup3\n      sstore\n      swap2\n      0x20\n      add\n      swap2\n      swap1\n      0x01\n      add\n      swap1\n      jump(tag_41)\n    tag_42:\n    tag_38:\n      pop\n      swap1\n      pop\n      tag_43\n      swap2\n      swap1\n      tag_44\n      jump\t// in\n    tag_43:\n      pop\n      swap1\n      jump\t// out\n    tag_24:\n      mload(0x40)\n      dup1\n      0x60\n      add\n      0x40\n      mstore\n      dup1\n      0x60\n      dup2\n      mstore\n      0x20\n      add\n      0x60\n      dup2\n      mstore\n      0x20\n      add\n      0x00\n      dup2\n      mstore\n      pop\n      swap1\n      jump\t// out\n    tag_44:\n    tag_45:\n      dup1\n      dup3\n      gt\n      iszero\n      tag_46\n      jumpi\n      0x00\n      dup2\n      0x00\n      swap1\n      sstore\n      pop\n      0x01\n      add\n      jump(tag_45)\n    tag_46:\n      pop\n      swap1\n      jump\t// out\n        /* \"#utility.yul\":7:419   */\n    tag_48:\n        /* \"#utility.yul\":85:90   */\n      0x00\n        /* \"#utility.yul\":110:176   */\n      tag_50\n        /* \"#utility.yul\":126:175   */\n      tag_51\n        /* \"#utility.yul\":168:174   */\n      dup5\n        /* \"#utility.yul\":126:175   */\n      tag_52\n      jump\t// in\n    tag_51:\n        /* \"#utility.yul\":110:176   */\n      tag_53\n      jump\t// in\n    tag_50:\n        /* \"#utility.yul\":101:176   */\n      swap1\n      pop\n        /* \"#utility.yul\":199:205   */\n      dup3\n        /* \"#utility.yul\":192:197   */\n      dup2\n        /* \"#utility.yul\":185:206   */\n      mstore\n        /* \"#utility.yul\":237:241   */\n      0x20\n        /* \"#utility.yul\":230:235   */\n      dup2\n        /* \"#utility.yul\":226:242   */\n      add\n        /* \"#utility.yul\":275:278   */\n      dup5\n        /* \"#utility.yul\":266:272   */\n      dup5\n        /* \"#utility.yul\":261:264   */\n      dup5\n        /* \"#utility.yul\":257:273   */\n      add\n        /* \"#utility.yul\":254:279   */\n      gt\n        /* \"#utility.yul\":251:363   */\n      iszero\n      tag_54\n      jumpi\n        /* \"#utility.yul\":282:361   */\n      tag_55\n      tag_56\n      jump\t// in\n    tag_55:\n        /* \"#utility.yul\":251:363   */\n    tag_54:\n        /* \"#utility.yul\":372:413   */\n      tag_57\n        /* \"#utility.yul\":406:412   */\n      dup5\n        /* \"#utility.yul\":401:404   */\n      dup3\n        /* \"#utility.yul\":396:399   */\n      dup6\n        /* \"#utility.yul\":372:413   */\n      tag_58\n      jump\t// in\n    tag_57:\n        /* \"#utility.yul\":91:419   */\n      pop\n        /* \"#utility.yul\":7:419   */\n      swap4\n      swap3\n      pop\n      pop\n      pop\n      jump\t// out\n        /* \"#utility.yul\":439:779   */\n    tag_59:\n        /* \"#utility.yul\":495:500   */\n      0x00\n        /* \"#utility.yul\":544:547   */\n      dup3\n        /* \"#utility.yul\":537:541   */\n      0x1f\n        /* \"#utility.yul\":529:535   */\n      dup4\n        /* \"#utility.yul\":525:542   */\n      add\n        /* \"#utility.yul\":521:548   */\n      slt\n        /* \"#utility.yul\":511:633   */\n      tag_61\n      jumpi\n        /* \"#utility.yul\":552:631   */\n      tag_62\n      tag_63\n      jump\t// in\n    tag_62:\n        /* \"#utility.yul\":511:633   */\n    tag_61:\n        /* \"#utility.yul\":669:675   */\n      dup2\n        /* \"#utility.yul\":656:676   */\n      calldataload\n        /* \"#utility.yul\":694:773   */\n      tag_64\n        /* \"#utility.yul\":769:772   */\n      dup5\n        /* \"#utility.yul\":761:767   */\n      dup3\n        /* \"#utility.yul\":754:758   */\n      0x20\n        /* \"#utility.yul\":746:752   */\n      dup7\n        /* \"#utility.yul\":742:759   */\n      add\n        /* \"#utility.yul\":694:773   */\n      tag_48\n      jump\t// in\n    tag_64:\n        /* \"#utility.yul\":685:773   */\n      swap2\n      pop\n        /* \"#utility.yul\":501:779   */\n      pop\n        /* \"#utility.yul\":439:779   */\n      swap3\n      swap2\n      pop\n      pop\n      jump\t// out\n        /* \"#utility.yul\":785:924   */\n    tag_65:\n        /* \"#utility.yul\":831:836   */\n      0x00\n        /* \"#utility.yul\":869:875   */\n      dup2\n        /* \"#utility.yul\":856:876   */\n      calldataload\n        /* \"#utility.yul\":847:876   */\n      swap1\n      pop\n        /* \"#utility.yul\":885:918   */\n      tag_67\n        /* \"#utility.yul\":912:917   */\n      dup2\n        /* \"#utility.yul\":885:918   */\n      tag_68\n      jump\t// in\n    tag_67:\n        /* \"#utility.yul\":785:924   */\n      swap3\n      swap2\n      pop\n      pop\n      jump\t// out\n        /* \"#utility.yul\":930:1909   */\n    tag_8:\n        /* \"#utility.yul\":1027:1033   */\n      0x00\n        /* \"#utility.yul\":1035:1041   */\n      dup1\n        /* \"#utility.yul\":1043:1049   */\n      0x00\n        /* \"#utility.yul\":1092:1094   */\n      0x60\n        /* \"#utility.yul\":1080:1089   */\n      dup5\n        /* \"#utility.yul\":1071:1078   */\n      dup7\n        /* \"#utility.yul\":1067:1090   */\n      sub\n        /* \"#utility.yul\":1063:1095   */\n      slt\n        /* \"#utility.yul\":1060:1179   */\n      iszero\n      tag_70\n      jumpi\n        /* \"#utility.yul\":1098:1177   */\n      tag_71\n      tag_72\n      jump\t// in\n    tag_71:\n        /* \"#utility.yul\":1060:1179   */\n    tag_70:\n        /* \"#utility.yul\":1246:1247   */\n      0x00\n        /* \"#utility.yul\":1235:1244   */\n      dup5\n        /* \"#utility.yul\":1231:1248   */\n      add\n        /* \"#utility.yul\":1218:1249   */\n      calldataload\n        /* \"#utility.yul\":1276:1294   */\n      0xffffffffffffffff\n        /* \"#utility.yul\":1268:1274   */\n      dup2\n        /* \"#utility.yul\":1265:1295   */\n      gt\n        /* \"#utility.yul\":1262:1379   */\n      iszero\n      tag_73\n      jumpi\n        /* \"#utility.yul\":1298:1377   */\n      tag_74\n      tag_75\n      jump\t// in\n    tag_74:\n        /* \"#utility.yul\":1262:1379   */\n    tag_73:\n        /* \"#utility.yul\":1403:1466   */\n      tag_76\n        /* \"#utility.yul\":1458:1465   */\n      dup7\n        /* \"#utility.yul\":1449:1455   */\n      dup3\n        /* \"#utility.yul\":1438:1447   */\n      dup8\n        /* \"#utility.yul\":1434:1456   */\n      add\n        /* \"#utility.yul\":1403:1466   */\n      tag_59\n      jump\t// in\n    tag_76:\n        /* \"#utility.yul\":1393:1466   */\n      swap4\n      pop\n        /* \"#utility.yul\":1189:1476   */\n      pop\n        /* \"#utility.yul\":1543:1545   */\n      0x20\n        /* \"#utility.yul\":1532:1541   */\n      dup5\n        /* \"#utility.yul\":1528:1546   */\n      add\n        /* \"#utility.yul\":1515:1547   */\n      calldataload\n        /* \"#utility.yul\":1574:1592   */\n      0xffffffffffffffff\n        /* \"#utility.yul\":1566:1572   */\n      dup2\n        /* \"#utility.yul\":1563:1593   */\n      gt\n        /* \"#utility.yul\":1560:1677   */\n      iszero\n      tag_77\n      jumpi\n        /* \"#utility.yul\":1596:1675   */\n      tag_78\n      tag_75\n      jump\t// in\n    tag_78:\n        /* \"#utility.yul\":1560:1677   */\n    tag_77:\n        /* \"#utility.yul\":1701:1764   */\n      tag_79\n        /* \"#utility.yul\":1756:1763   */\n      dup7\n        /* \"#utility.yul\":1747:1753   */\n      dup3\n        /* \"#utility.yul\":1736:1745   */\n      dup8\n        /* \"#utility.yul\":1732:1754   */\n      add\n        /* \"#utility.yul\":1701:1764   */\n      tag_59\n      jump\t// in\n    tag_79:\n        /* \"#utility.yul\":1691:1764   */\n      swap3\n      pop\n        /* \"#utility.yul\":1486:1774   */\n      pop\n        /* \"#utility.yul\":1813:1815   */\n      0x40\n        /* \"#utility.yul\":1839:1892   */\n      tag_80\n        /* \"#utility.yul\":1884:1891   */\n      dup7\n        /* \"#utility.yul\":1875:1881   */\n      dup3\n        /* \"#utility.yul\":1864:1873   */\n      dup8\n        /* \"#utility.yul\":1860:1882   */\n      add\n        /* \"#utility.yul\":1839:1892   */\n      tag_65\n      jump\t// in\n    tag_80:\n        /* \"#utility.yul\":1829:1892   */\n      swap2\n      pop\n        /* \"#utility.yul\":1784:1902   */\n      pop\n        /* \"#utility.yul\":930:1909   */\n      swap3\n      pop\n      swap3\n      pop\n      swap3\n      jump\t// out\n        /* \"#utility.yul\":1915:2259   */\n    tag_81:\n        /* \"#utility.yul\":1993:1996   */\n      0x00\n        /* \"#utility.yul\":2021:2060   */\n      tag_83\n        /* \"#utility.yul\":2054:2059   */\n      dup3\n        /* \"#utility.yul\":2021:2060   */\n      tag_84\n      jump\t// in\n    tag_83:\n        /* \"#utility.yul\":2076:2137   */\n      tag_85\n        /* \"#utility.yul\":2130:2136   */\n      dup2\n        /* \"#utility.yul\":2125:2128   */\n      dup6\n        /* \"#utility.yul\":2076:2137   */\n      tag_86\n      jump\t// in\n    tag_85:\n        /* \"#utility.yul\":2069:2137   */\n      swap4\n      pop\n        /* \"#utility.yul\":2146:2198   */\n      tag_87\n        /* \"#utility.yul\":2191:2197   */\n      dup2\n        /* \"#utility.yul\":2186:2189   */\n      dup6\n        /* \"#utility.yul\":2179:2183   */\n      0x20\n        /* \"#utility.yul\":2172:2177   */\n      dup7\n        /* \"#utility.yul\":2168:2184   */\n      add\n        /* \"#utility.yul\":2146:2198   */\n      tag_88\n      jump\t// in\n    tag_87:\n        /* \"#utility.yul\":2223:2252   */\n      tag_89\n        /* \"#utility.yul\":2245:2251   */\n      dup2\n        /* \"#utility.yul\":2223:2252   */\n      tag_90\n      jump\t// in\n    tag_89:\n        /* \"#utility.yul\":2218:2221   */\n      dup5\n        /* \"#utility.yul\":2214:2253   */\n      add\n        /* \"#utility.yul\":2207:2253   */\n      swap2\n      pop\n        /* \"#utility.yul\":1997:2259   */\n      pop\n        /* \"#utility.yul\":1915:2259   */\n      swap3\n      swap2\n      pop\n      pop\n      jump\t// out\n        /* \"#utility.yul\":2325:3169   */\n    tag_91:\n        /* \"#utility.yul\":2434:2437   */\n      0x00\n        /* \"#utility.yul\":2470:2474   */\n      0x60\n        /* \"#utility.yul\":2465:2468   */\n      dup4\n        /* \"#utility.yul\":2461:2475   */\n      add\n        /* \"#utility.yul\":2558:2562   */\n      0x00\n        /* \"#utility.yul\":2551:2556   */\n      dup4\n        /* \"#utility.yul\":2547:2563   */\n      add\n        /* \"#utility.yul\":2541:2564   */\n      mload\n        /* \"#utility.yul\":2611:2614   */\n      dup5\n        /* \"#utility.yul\":2605:2609   */\n      dup3\n        /* \"#utility.yul\":2601:2615   */\n      sub\n        /* \"#utility.yul\":2594:2598   */\n      0x00\n        /* \"#utility.yul\":2589:2592   */\n      dup7\n        /* \"#utility.yul\":2585:2599   */\n      add\n        /* \"#utility.yul\":2578:2616   */\n      mstore\n        /* \"#utility.yul\":2637:2710   */\n      tag_93\n        /* \"#utility.yul\":2705:2709   */\n      dup3\n        /* \"#utility.yul\":2691:2703   */\n      dup3\n        /* \"#utility.yul\":2637:2710   */\n      tag_81\n      jump\t// in\n    tag_93:\n        /* \"#utility.yul\":2629:2710   */\n      swap2\n      pop\n        /* \"#utility.yul\":2485:2721   */\n      pop\n        /* \"#utility.yul\":2807:2811   */\n      0x20\n        /* \"#utility.yul\":2800:2805   */\n      dup4\n        /* \"#utility.yul\":2796:2812   */\n      add\n        /* \"#utility.yul\":2790:2813   */\n      mload\n        /* \"#utility.yul\":2860:2863   */\n      dup5\n        /* \"#utility.yul\":2854:2858   */\n      dup3\n        /* \"#utility.yul\":2850:2864   */\n      sub\n        /* \"#utility.yul\":2843:2847   */\n      0x20\n        /* \"#utility.yul\":2838:2841   */\n      dup7\n        /* \"#utility.yul\":2834:2848   */\n      add\n        /* \"#utility.yul\":2827:2865   */\n      mstore\n        /* \"#utility.yul\":2886:2959   */\n      tag_94\n        /* \"#utility.yul\":2954:2958   */\n      dup3\n        /* \"#utility.yul\":2940:2952   */\n      dup3\n        /* \"#utility.yul\":2886:2959   */\n      tag_81\n      jump\t// in\n    tag_94:\n        /* \"#utility.yul\":2878:2959   */\n      swap2\n      pop\n        /* \"#utility.yul\":2731:2970   */\n      pop\n        /* \"#utility.yul\":3050:3054   */\n      0x40\n        /* \"#utility.yul\":3043:3048   */\n      dup4\n        /* \"#utility.yul\":3039:3055   */\n      add\n        /* \"#utility.yul\":3033:3056   */\n      mload\n        /* \"#utility.yul\":3069:3132   */\n      tag_95\n        /* \"#utility.yul\":3126:3130   */\n      0x40\n        /* \"#utility.yul\":3121:3124   */\n      dup7\n        /* \"#utility.yul\":3117:3131   */\n      add\n        /* \"#utility.yul\":3103:3115   */\n      dup3\n        /* \"#utility.yul\":3069:3132   */\n      tag_96\n      jump\t// in\n    tag_95:\n        /* \"#utility.yul\":2980:3142   */\n      pop\n        /* \"#utility.yul\":3159:3163   */\n      dup1\n        /* \"#utility.yul\":3152:3163   */\n      swap2\n      pop\n        /* \"#utility.yul\":2439:3169   */\n      pop\n        /* \"#utility.yul\":2325:3169   */\n      swap3\n      swap2\n      pop\n      pop\n      jump\t// out\n        /* \"#utility.yul\":3175:3283   */\n    tag_96:\n        /* \"#utility.yul\":3252:3276   */\n      tag_98\n        /* \"#utility.yul\":3270:3275   */\n      dup2\n        /* \"#utility.yul\":3252:3276   */\n      tag_99\n      jump\t// in\n    tag_98:\n        /* \"#utility.yul\":3247:3250   */\n      dup3\n        /* \"#utility.yul\":3240:3277   */\n      mstore\n        /* \"#utility.yul\":3175:3283   */\n      pop\n      pop\n      jump\t// out\n        /* \"#utility.yul\":3289:3407   */\n    tag_100:\n        /* \"#utility.yul\":3376:3400   */\n      tag_102\n        /* \"#utility.yul\":3394:3399   */\n      dup2\n        /* \"#utility.yul\":3376:3400   */\n      tag_99\n      jump\t// in\n    tag_102:\n        /* \"#utility.yul\":3371:3374   */\n      dup3\n        /* \"#utility.yul\":3364:3401   */\n      mstore\n        /* \"#utility.yul\":3289:3407   */\n      pop\n      pop\n      jump\t// out\n        /* \"#utility.yul\":3413:3766   */\n    tag_17:\n        /* \"#utility.yul\":3546:3550   */\n      0x00\n        /* \"#utility.yul\":3584:3586   */\n      0x20\n        /* \"#utility.yul\":3573:3582   */\n      dup3\n        /* \"#utility.yul\":3569:3587   */\n      add\n        /* \"#utility.yul\":3561:3587   */\n      swap1\n      pop\n        /* \"#utility.yul\":3633:3642   */\n      dup2\n        /* \"#utility.yul\":3627:3631   */\n      dup2\n        /* \"#utility.yul\":3623:3643   */\n      sub\n        /* \"#utility.yul\":3619:3620   */\n      0x00\n        /* \"#utility.yul\":3608:3617   */\n      dup4\n        /* \"#utility.yul\":3604:3621   */\n      add\n        /* \"#utility.yul\":3597:3644   */\n      mstore\n        /* \"#utility.yul\":3661:3759   */\n      tag_104\n        /* \"#utility.yul\":3754:3758   */\n      dup2\n        /* \"#utility.yul\":3745:3751   */\n      dup5\n        /* \"#utility.yul\":3661:3759   */\n      tag_91\n      jump\t// in\n    tag_104:\n        /* \"#utility.yul\":3653:3759   */\n      swap1\n      pop\n        /* \"#utility.yul\":3413:3766   */\n      swap3\n      swap2\n      pop\n      pop\n      jump\t// out\n        /* \"#utility.yul\":3772:3994   */\n    tag_13:\n        /* \"#utility.yul\":3865:3869   */\n      0x00\n        /* \"#utility.yul\":3903:3905   */\n      0x20\n        /* \"#utility.yul\":3892:3901   */\n      dup3\n        /* \"#utility.yul\":3888:3906   */\n      add\n        /* \"#utility.yul\":3880:3906   */\n      swap1\n      pop\n        /* \"#utility.yul\":3916:3987   */\n      tag_106\n        /* \"#utility.yul\":3984:3985   */\n      0x00\n        /* \"#utility.yul\":3973:3982   */\n      dup4\n        /* \"#utility.yul\":3969:3986   */\n      add\n        /* \"#utility.yul\":3960:3966   */\n      dup5\n        /* \"#utility.yul\":3916:3987   */\n      tag_100\n      jump\t// in\n    tag_106:\n        /* \"#utility.yul\":3772:3994   */\n      swap3\n      swap2\n      pop\n      pop\n      jump\t// out\n        /* \"#utility.yul\":4000:4129   */\n    tag_53:\n        /* \"#utility.yul\":4034:4040   */\n      0x00\n        /* \"#utility.yul\":4061:4081   */\n      tag_108\n      tag_109\n      jump\t// in\n    tag_108:\n        /* \"#utility.yul\":4051:4081   */\n      swap1\n      pop\n        /* \"#utility.yul\":4090:4123   */\n      tag_110\n        /* \"#utility.yul\":4118:4122   */\n      dup3\n        /* \"#utility.yul\":4110:4116   */\n      dup3\n        /* \"#utility.yul\":4090:4123   */\n      tag_111\n      jump\t// in\n    tag_110:\n        /* \"#utility.yul\":4000:4129   */\n      swap2\n      swap1\n      pop\n      jump\t// out\n        /* \"#utility.yul\":4135:4210   */\n    tag_109:\n        /* \"#utility.yul\":4168:4174   */\n      0x00\n        /* \"#utility.yul\":4201:4203   */\n      0x40\n        /* \"#utility.yul\":4195:4204   */\n      mload\n        /* \"#utility.yul\":4185:4204   */\n      swap1\n      pop\n        /* \"#utility.yul\":4135:4210   */\n      swap1\n      jump\t// out\n        /* \"#utility.yul\":4216:4524   */\n    tag_52:\n        /* \"#utility.yul\":4278:4282   */\n      0x00\n        /* \"#utility.yul\":4368:4386   */\n      0xffffffffffffffff\n        /* \"#utility.yul\":4360:4366   */\n      dup3\n        /* \"#utility.yul\":4357:4387   */\n      gt\n        /* \"#utility.yul\":4354:4410   */\n      iszero\n      tag_114\n      jumpi\n        /* \"#utility.yul\":4390:4408   */\n      tag_115\n      tag_116\n      jump\t// in\n    tag_115:\n        /* \"#utility.yul\":4354:4410   */\n    tag_114:\n        /* \"#utility.yul\":4428:4457   */\n      tag_117\n        /* \"#utility.yul\":4450:4456   */\n      dup3\n        /* \"#utility.yul\":4428:4457   */\n      tag_90\n      jump\t// in\n    tag_117:\n        /* \"#utility.yul\":4420:4457   */\n      swap1\n      pop\n        /* \"#utility.yul\":4512:4516   */\n      0x20\n        /* \"#utility.yul\":4506:4510   */\n      dup2\n        /* \"#utility.yul\":4502:4517   */\n      add\n        /* \"#utility.yul\":4494:4517   */\n      swap1\n      pop\n        /* \"#utility.yul\":4216:4524   */\n      swap2\n      swap1\n      pop\n      jump\t// out\n        /* \"#utility.yul\":4530:4629   */\n    tag_84:\n        /* \"#utility.yul\":4582:4588   */\n      0x00\n        /* \"#utility.yul\":4616:4621   */\n      dup2\n        /* \"#utility.yul\":4610:4622   */\n      mload\n        /* \"#utility.yul\":4600:4622   */\n      swap1\n      pop\n        /* \"#utility.yul\":4530:4629   */\n      swap2\n      swap1\n      pop\n      jump\t// out\n        /* \"#utility.yul\":4635:4794   */\n    tag_86:\n        /* \"#utility.yul\":4709:4720   */\n      0x00\n        /* \"#utility.yul\":4743:4749   */\n      dup3\n        /* \"#utility.yul\":4738:4741   */\n      dup3\n        /* \"#utility.yul\":4731:4750   */\n      mstore\n        /* \"#utility.yul\":4783:4787   */\n      0x20\n        /* \"#utility.yul\":4778:4781   */\n      dup3\n        /* \"#utility.yul\":4774:4788   */\n      add\n        /* \"#utility.yul\":4759:4788   */\n      swap1\n      pop\n        /* \"#utility.yul\":4635:4794   */\n      swap3\n      swap2\n      pop\n      pop\n      jump\t// out\n        /* \"#utility.yul\":4800:4877   */\n    tag_99:\n        /* \"#utility.yul\":4837:4844   */\n      0x00\n        /* \"#utility.yul\":4866:4871   */\n      dup2\n        /* \"#utility.yul\":4855:4871   */\n      swap1\n      pop\n        /* \"#utility.yul\":4800:4877   */\n      swap2\n      swap1\n      pop\n      jump\t// out\n        /* \"#utility.yul\":4883:5037   */\n    tag_58:\n        /* \"#utility.yul\":4967:4973   */\n      dup3\n        /* \"#utility.yul\":4962:4965   */\n      dup2\n        /* \"#utility.yul\":4957:4960   */\n      dup4\n        /* \"#utility.yul\":4944:4974   */\n      calldatacopy\n        /* \"#utility.yul\":5029:5030   */\n      0x00\n        /* \"#utility.yul\":5020:5026   */\n      dup4\n        /* \"#utility.yul\":5015:5018   */\n      dup4\n        /* \"#utility.yul\":5011:5027   */\n      add\n        /* \"#utility.yul\":5004:5031   */\n      mstore\n        /* \"#utility.yul\":4883:5037   */\n      pop\n      pop\n      pop\n      jump\t// out\n        /* \"#utility.yul\":5043:5350   */\n    tag_88:\n        /* \"#utility.yul\":5111:5112   */\n      0x00\n        /* \"#utility.yul\":5121:5234   */\n    tag_123:\n        /* \"#utility.yul\":5135:5141   */\n      dup4\n        /* \"#utility.yul\":5132:5133   */\n      dup2\n        /* \"#utility.yul\":5129:5142   */\n      lt\n        /* \"#utility.yul\":5121:5234   */\n      iszero\n      tag_125\n      jumpi\n        /* \"#utility.yul\":5220:5221   */\n      dup1\n        /* \"#utility.yul\":5215:5218   */\n      dup3\n        /* \"#utility.yul\":5211:5222   */\n      add\n        /* \"#utility.yul\":5205:5223   */\n      mload\n        /* \"#utility.yul\":5201:5202   */\n      dup2\n        /* \"#utility.yul\":5196:5199   */\n      dup5\n        /* \"#utility.yul\":5192:5203   */\n      add\n        /* \"#utility.yul\":5185:5224   */\n      mstore\n        /* \"#utility.yul\":5157:5159   */\n      0x20\n        /* \"#utility.yul\":5154:5155   */\n      dup2\n        /* \"#utility.yul\":5150:5160   */\n      add\n        /* \"#utility.yul\":5145:5160   */\n      swap1\n      pop\n        /* \"#utility.yul\":5121:5234   */\n      jump(tag_123)\n    tag_125:\n        /* \"#utility.yul\":5252:5258   */\n      dup4\n        /* \"#utility.yul\":5249:5250   */\n      dup2\n        /* \"#utility.yul\":5246:5259   */\n      gt\n        /* \"#utility.yul\":5243:5344   */\n      iszero\n      tag_126\n      jumpi\n        /* \"#utility.yul\":5332:5333   */\n      0x00\n        /* \"#utility.yul\":5323:5329   */\n      dup5\n        /* \"#utility.yul\":5318:5321   */\n      dup5\n        /* \"#utility.yul\":5314:5330   */\n      add\n        /* \"#utility.yul\":5307:5334   */\n      mstore\n        /* \"#utility.yul\":5243:5344   */\n    tag_126:\n        /* \"#utility.yul\":5092:5350   */\n      pop\n        /* \"#utility.yul\":5043:5350   */\n      pop\n      pop\n      pop\n      jump\t// out\n        /* \"#utility.yul\":5356:5676   */\n    tag_27:\n        /* \"#utility.yul\":5400:5406   */\n      0x00\n        /* \"#utility.yul\":5437:5438   */\n      0x02\n        /* \"#utility.yul\":5431:5435   */\n      dup3\n        /* \"#utility.yul\":5427:5439   */\n      div\n        /* \"#utility.yul\":5417:5439   */\n      swap1\n      pop\n        /* \"#utility.yul\":5484:5485   */\n      0x01\n        /* \"#utility.yul\":5478:5482   */\n      dup3\n        /* \"#utility.yul\":5474:5486   */\n      and\n        /* \"#utility.yul\":5505:5523   */\n      dup1\n        /* \"#utility.yul\":5495:5576   */\n      tag_128\n      jumpi\n        /* \"#utility.yul\":5561:5565   */\n      0x7f\n        /* \"#utility.yul\":5553:5559   */\n      dup3\n        /* \"#utility.yul\":5549:5566   */\n      and\n        /* \"#utility.yul\":5539:5566   */\n      swap2\n      pop\n        /* \"#utility.yul\":5495:5576   */\n    tag_128:\n        /* \"#utility.yul\":5623:5625   */\n      0x20\n        /* \"#utility.yul\":5615:5621   */\n      dup3\n        /* \"#utility.yul\":5612:5626   */\n      lt\n        /* \"#utility.yul\":5592:5610   */\n      dup2\n        /* \"#utility.yul\":5589:5627   */\n      eq\n        /* \"#utility.yul\":5586:5670   */\n      iszero\n      tag_129\n      jumpi\n        /* \"#utility.yul\":5642:5660   */\n      tag_130\n      tag_131\n      jump\t// in\n    tag_130:\n        /* \"#utility.yul\":5586:5670   */\n    tag_129:\n        /* \"#utility.yul\":5407:5676   */\n      pop\n        /* \"#utility.yul\":5356:5676   */\n      swap2\n      swap1\n      pop\n      jump\t// out\n        /* \"#utility.yul\":5682:5963   */\n    tag_111:\n        /* \"#utility.yul\":5765:5792   */\n      tag_133\n        /* \"#utility.yul\":5787:5791   */\n      dup3\n        /* \"#utility.yul\":5765:5792   */\n      tag_90\n      jump\t// in\n    tag_133:\n        /* \"#utility.yul\":5757:5763   */\n      dup2\n        /* \"#utility.yul\":5753:5793   */\n      add\n        /* \"#utility.yul\":5895:5901   */\n      dup2\n        /* \"#utility.yul\":5883:5893   */\n      dup2\n        /* \"#utility.yul\":5880:5902   */\n      lt\n        /* \"#utility.yul\":5859:5877   */\n      0xffffffffffffffff\n        /* \"#utility.yul\":5847:5857   */\n      dup3\n        /* \"#utility.yul\":5844:5878   */\n      gt\n        /* \"#utility.yul\":5841:5903   */\n      or\n        /* \"#utility.yul\":5838:5926   */\n      iszero\n      tag_134\n      jumpi\n        /* \"#utility.yul\":5906:5924   */\n      tag_135\n      tag_116\n      jump\t// in\n    tag_135:\n        /* \"#utility.yul\":5838:5926   */\n    tag_134:\n        /* \"#utility.yul\":5946:5956   */\n      dup1\n        /* \"#utility.yul\":5942:5944   */\n      0x40\n        /* \"#utility.yul\":5935:5957   */\n      mstore\n        /* \"#utility.yul\":5725:5963   */\n      pop\n        /* \"#utility.yul\":5682:5963   */\n      pop\n      pop\n      jump\t// out\n        /* \"#utility.yul\":5969:6149   */\n    tag_131:\n        /* \"#utility.yul\":6017:6094   */\n      0x4e487b7100000000000000000000000000000000000000000000000000000000\n        /* \"#utility.yul\":6014:6015   */\n      0x00\n        /* \"#utility.yul\":6007:6095   */\n      mstore\n        /* \"#utility.yul\":6114:6118   */\n      0x22\n        /* \"#utility.yul\":6111:6112   */\n      0x04\n        /* \"#utility.yul\":6104:6119   */\n      mstore\n        /* \"#utility.yul\":6138:6142   */\n      0x24\n        /* \"#utility.yul\":6135:6136   */\n      0x00\n        /* \"#utility.yul\":6128:6143   */\n      revert\n        /* \"#utility.yul\":6155:6335   */\n    tag_116:\n        /* \"#utility.yul\":6203:6280   */\n      0x4e487b7100000000000000000000000000000000000000000000000000000000\n        /* \"#utility.yul\":6200:6201   */\n      0x00\n        /* \"#utility.yul\":6193:6281   */\n      mstore\n        /* \"#utility.yul\":6300:6304   */\n      0x41\n        /* \"#utility.yul\":6297:6298   */\n      0x04\n        /* \"#utility.yul\":6290:6305   */\n      mstore\n        /* \"#utility.yul\":6324:6328   */\n      0x24\n        /* \"#utility.yul\":6321:6322   */\n      0x00\n        /* \"#utility.yul\":6314:6329   */\n      revert\n        /* \"#utility.yul\":6341:6458   */\n    tag_63:\n        /* \"#utility.yul\":6450:6451   */\n      0x00\n        /* \"#utility.yul\":6447:6448   */\n      dup1\n        /* \"#utility.yul\":6440:6452   */\n      revert\n        /* \"#utility.yul\":6464:6581   */\n    tag_56:\n        /* \"#utility.yul\":6573:6574   */\n      0x00\n        /* \"#utility.yul\":6570:6571   */\n      dup1\n        /* \"#utility.yul\":6563:6575   */\n      revert\n        /* \"#utility.yul\":6587:6704   */\n    tag_75:\n        /* \"#utility.yul\":6696:6697   */\n      0x00\n        /* \"#utility.yul\":6693:6694   */\n      dup1\n        /* \"#utility.yul\":6686:6698   */\n      revert\n        /* \"#utility.yul\":6710:6827   */\n    tag_72:\n        /* \"#utility.yul\":6819:6820   */\n      0x00\n        /* \"#utility.yul\":6816:6817   */\n      dup1\n        /* \"#utility.yul\":6809:6821   */\n      revert\n        /* \"#utility.yul\":6833:6935   */\n    tag_90:\n        /* \"#utility.yul\":6874:6880   */\n      0x00\n        /* \"#utility.yul\":6925:6927   */\n      0x1f\n        /* \"#utility.yul\":6921:6928   */\n      not\n        /* \"#utility.yul\":6916:6918   */\n      0x1f\n        /* \"#utility.yul\":6909:6914   */\n      dup4\n        /* \"#utility.yul\":6905:6919   */\n      add\n        /* \"#utility.yul\":6901:6929   */\n      and\n        /* \"#utility.yul\":6891:6929   */\n      swap1\n      pop\n        /* \"#utility.yul\":6833:6935   */\n      swap2\n      swap1\n      pop\n      jump\t// out\n        /* \"#utility.yul\":6941:7063   */\n    tag_68:\n        /* \"#utility.yul\":7014:7038   */\n      tag_144\n        /* \"#utility.yul\":7032:7037   */\n      dup2\n        /* \"#utility.yul\":7014:7038   */\n      tag_99\n      jump\t// in\n    tag_144:\n        /* \"#utility.yul\":7007:7012   */\n      dup2\n        /* \"#utility.yul\":7004:7039   */\n      eq\n        /* \"#utility.yul\":6994:7057   */\n      tag_145\n      jumpi\n        /* \"#utility.yul\":7053:7054   */\n      0x00\n        /* \"#utility.yul\":7050:7051   */\n      dup1\n        /* \"#utility.yul\":7043:7055   */\n      revert\n        /* \"#utility.yul\":6994:7057   */\n    tag_145:\n        /* \"#utility.yul\":6941:7063   */\n      pop\n      jump\t// out\n\n    auxdata: 0xa26469706673582212201097df58a7cebcf5229fb96aae7e60753586322569fc3c21ab53ba7da13dd92e64736f6c63430008070033\n}\n",
				"bytecode": {
					"linkReferences": {},
					"object": "608060405234801561001057600080fd5b5061070a806100206000396000f3fe608060405234801561001057600080fd5b50600436106100415760003560e01c8063092e95631461004657806336dcabe0146100625780637b5f4eef14610080575b600080fd5b610060600480360381019061005b91906103a3565b61009e565b005b61006a610106565b60405161007791906104fe565b60405180910390f35b610088610112565b60405161009591906104dc565b60405180910390f35b6040518060600160405280848152602001838152602001828152506000808201518160000190805190602001906100d692919061025a565b5060208201518160010190805190602001906100f392919061025a565b5060408201518160020155905050505050565b60008060020154905090565b61011a6102e0565b6000604051806060016040529081600082018054610137906105d7565b80601f0160208091040260200160405190810160405280929190818152602001828054610163906105d7565b80156101b05780601f10610185576101008083540402835291602001916101b0565b820191906000526020600020905b81548152906001019060200180831161019357829003601f168201915b505050505081526020016001820180546101c9906105d7565b80601f01602080910402602001604051908101604052809291908181526020018280546101f5906105d7565b80156102425780601f1061021757610100808354040283529160200191610242565b820191906000526020600020905b81548152906001019060200180831161022557829003601f168201915b50505050508152602001600282015481525050905090565b828054610266906105d7565b90600052602060002090601f01602090048101928261028857600085556102cf565b82601f106102a157805160ff19168380011785556102cf565b828001600101855582156102cf579182015b828111156102ce5782518255916020019190600101906102b3565b5b5090506102dc9190610301565b5090565b60405180606001604052806060815260200160608152602001600081525090565b5b8082111561031a576000816000905550600101610302565b5090565b600061033161032c8461053e565b610519565b90508281526020810184848401111561034d5761034c61069d565b5b610358848285610595565b509392505050565b600082601f83011261037557610374610698565b5b813561038584826020860161031e565b91505092915050565b60008135905061039d816106bd565b92915050565b6000806000606084860312156103bc576103bb6106a7565b5b600084013567ffffffffffffffff8111156103da576103d96106a2565b5b6103e686828701610360565b935050602084013567ffffffffffffffff811115610407576104066106a2565b5b61041386828701610360565b92505060406104248682870161038e565b9150509250925092565b60006104398261056f565b610443818561057a565b93506104538185602086016105a4565b61045c816106ac565b840191505092915050565b60006060830160008301518482036000860152610484828261042e565b9150506020830151848203602086015261049e828261042e565b91505060408301516104b360408601826104be565b508091505092915050565b6104c78161058b565b82525050565b6104d68161058b565b82525050565b600060208201905081810360008301526104f68184610467565b905092915050565b600060208201905061051360008301846104cd565b92915050565b6000610523610534565b905061052f8282610609565b919050565b6000604051905090565b600067ffffffffffffffff82111561055957610558610669565b5b610562826106ac565b9050602081019050919050565b600081519050919050565b600082825260208201905092915050565b6000819050919050565b82818337600083830152505050565b60005b838110156105c25780820151818401526020810190506105a7565b838111156105d1576000848401525b50505050565b600060028204905060018216806105ef57607f821691505b602082108114156106035761060261063a565b5b50919050565b610612826106ac565b810181811067ffffffffffffffff8211171561063157610630610669565b5b80604052505050565b7f4e487b7100000000000000000000000000000000000000000000000000000000600052602260045260246000fd5b7f4e487b7100000000000000000000000000000000000000000000000000000000600052604160045260246000fd5b600080fd5b600080fd5b600080fd5b600080fd5b6000601f19601f8301169050919050565b6106c68161058b565b81146106d157600080fd5b5056fea26469706673582212201097df58a7cebcf5229fb96aae7e60753586322569fc3c21ab53ba7da13dd92e64736f6c63430008070033",
					"opcodes": "PUSH1 0x80 PUSH1 0x40 MSTORE CALLVALUE DUP1 ISZERO PUSH2 0x10 JUMPI PUSH1 0x0 DUP1 REVERT JUMPDEST POP PUSH2 0x70A DUP1 PUSH2 0x20 PUSH1 0x0 CODECOPY PUSH1 0x0 RETURN INVALID PUSH1 0x80 PUSH1 0x40 MSTORE CALLVALUE DUP1 ISZERO PUSH2 0x10 JUMPI PUSH1 0x0 DUP1 REVERT JUMPDEST POP PUSH1 0x4 CALLDATASIZE LT PUSH2 0x41 JUMPI PUSH1 0x0 CALLDATALOAD PUSH1 0xE0 SHR DUP1 PUSH4 0x92E9563 EQ PUSH2 0x46 JUMPI DUP1 PUSH4 0x36DCABE0 EQ PUSH2 0x62 JUMPI DUP1 PUSH4 0x7B5F4EEF EQ PUSH2 0x80 JUMPI JUMPDEST PUSH1 0x0 DUP1 REVERT JUMPDEST PUSH2 0x60 PUSH1 0x4 DUP1 CALLDATASIZE SUB DUP2 ADD SWAP1 PUSH2 0x5B SWAP2 SWAP1 PUSH2 0x3A3 JUMP JUMPDEST PUSH2 0x9E JUMP JUMPDEST STOP JUMPDEST PUSH2 0x6A PUSH2 0x106 JUMP JUMPDEST PUSH1 0x40 MLOAD PUSH2 0x77 SWAP2 SWAP1 PUSH2 0x4FE JUMP JUMPDEST PUSH1 0x40 MLOAD DUP1 SWAP2 SUB SWAP1 RETURN JUMPDEST PUSH2 0x88 PUSH2 0x112 JUMP JUMPDEST PUSH1 0x40 MLOAD PUSH2 0x95 SWAP2 SWAP1 PUSH2 0x4DC JUMP JUMPDEST PUSH1 0x40 MLOAD DUP1 SWAP2 SUB SWAP1 RETURN JUMPDEST PUSH1 0x40 MLOAD DUP1 PUSH1 0x60 ADD PUSH1 0x40 MSTORE DUP1 DUP5 DUP2 MSTORE PUSH1 0x20 ADD DUP4 DUP2 MSTORE PUSH1 0x20 ADD DUP3 DUP2 MSTORE POP PUSH1 0x0 DUP1 DUP3 ADD MLOAD DUP2 PUSH1 0x0 ADD SWAP1 DUP1 MLOAD SWAP1 PUSH1 0x20 ADD SWAP1 PUSH2 0xD6 SWAP3 SWAP2 SWAP1 PUSH2 0x25A JUMP JUMPDEST POP PUSH1 0x20 DUP3 ADD MLOAD DUP2 PUSH1 0x1 ADD SWAP1 DUP1 MLOAD SWAP1 PUSH1 0x20 ADD SWAP1 PUSH2 0xF3 SWAP3 SWAP2 SWAP1 PUSH2 0x25A JUMP JUMPDEST POP PUSH1 0x40 DUP3 ADD MLOAD DUP2 PUSH1 0x2 ADD SSTORE SWAP1 POP POP POP POP POP JUMP JUMPDEST PUSH1 0x0 DUP1 PUSH1 0x2 ADD SLOAD SWAP1 POP SWAP1 JUMP JUMPDEST PUSH2 0x11A PUSH2 0x2E0 JUMP JUMPDEST PUSH1 0x0 PUSH1 0x40 MLOAD DUP1 PUSH1 0x60 ADD PUSH1 0x40 MSTORE SWAP1 DUP2 PUSH1 0x0 DUP3 ADD DUP1 SLOAD PUSH2 0x137 SWAP1 PUSH2 0x5D7 JUMP JUMPDEST DUP1 PUSH1 0x1F ADD PUSH1 0x20 DUP1 SWAP2 DIV MUL PUSH1 0x20 ADD PUSH1 0x40 MLOAD SWAP1 DUP2 ADD PUSH1 0x40 MSTORE DUP1 SWAP3 SWAP2 SWAP1 DUP2 DUP2 MSTORE PUSH1 0x20 ADD DUP3 DUP1 SLOAD PUSH2 0x163 SWAP1 PUSH2 0x5D7 JUMP JUMPDEST DUP1 ISZERO PUSH2 0x1B0 JUMPI DUP1 PUSH1 0x1F LT PUSH2 0x185 JUMPI PUSH2 0x100 DUP1 DUP4 SLOAD DIV MUL DUP4 MSTORE SWAP2 PUSH1 0x20 ADD SWAP2 PUSH2 0x1B0 JUMP JUMPDEST DUP3 ADD SWAP2 SWAP1 PUSH1 0x0 MSTORE PUSH1 0x20 PUSH1 0x0 KECCAK256 SWAP1 JUMPDEST DUP2 SLOAD DUP2 MSTORE SWAP1 PUSH1 0x1 ADD SWAP1 PUSH1 0x20 ADD DUP1 DUP4 GT PUSH2 0x193 JUMPI DUP3 SWAP1 SUB PUSH1 0x1F AND DUP3 ADD SWAP2 JUMPDEST POP POP POP POP POP DUP2 MSTORE PUSH1 0x20 ADD PUSH1 0x1 DUP3 ADD DUP1 SLOAD PUSH2 0x1C9 SWAP1 PUSH2 0x5D7 JUMP JUMPDEST DUP1 PUSH1 0x1F ADD PUSH1 0x20 DUP1 SWAP2 DIV MUL PUSH1 0x20 ADD PUSH1 0x40 MLOAD SWAP1 DUP2 ADD PUSH1 0x40 MSTORE DUP1 SWAP3 SWAP2 SWAP1 DUP2 DUP2 MSTORE PUSH1 0x20 ADD DUP3 DUP1 SLOAD PUSH2 0x1F5 SWAP1 PUSH2 0x5D7 JUMP JUMPDEST DUP1 ISZERO PUSH2 0x242 JUMPI DUP1 PUSH1 0x1F LT PUSH2 0x217 JUMPI PUSH2 0x100 DUP1 DUP4 SLOAD DIV MUL DUP4 MSTORE SWAP2 PUSH1 0x20 ADD SWAP2 PUSH2 0x242 JUMP JUMPDEST DUP3 ADD SWAP2 SWAP1 PUSH1 0x0 MSTORE PUSH1 0x20 PUSH1 0x0 KECCAK256 SWAP1 JUMPDEST DUP2 SLOAD DUP2 MSTORE SWAP1 PUSH1 0x1 ADD SWAP1 PUSH1 0x20 ADD DUP1 DUP4 GT PUSH2 0x225 JUMPI DUP3 SWAP1 SUB PUSH1 0x1F AND DUP3 ADD SWAP2 JUMPDEST POP POP POP POP POP DUP2 MSTORE PUSH1 0x20 ADD PUSH1 0x2 DUP3 ADD SLOAD DUP2 MSTORE POP POP SWAP1 POP SWAP1 JUMP JUMPDEST DUP3 DUP1 SLOAD PUSH2 0x266 SWAP1 PUSH2 0x5D7 JUMP JUMPDEST SWAP1 PUSH1 0x0 MSTORE PUSH1 0x20 PUSH1 0x0 KECCAK256 SWAP1 PUSH1 0x1F ADD PUSH1 0x20 SWAP1 DIV DUP2 ADD SWAP3 DUP3 PUSH2 0x288 JUMPI PUSH1 0x0 DUP6 SSTORE PUSH2 0x2CF JUMP JUMPDEST DUP3 PUSH1 0x1F LT PUSH2 0x2A1 JUMPI DUP1 MLOAD PUSH1 0xFF NOT AND DUP4 DUP1 ADD OR DUP6 SSTORE PUSH2 0x2CF JUMP JUMPDEST DUP3 DUP1 ADD PUSH1 0x1 ADD DUP6 SSTORE DUP3 ISZERO PUSH2 0x2CF JUMPI SWAP2 DUP3 ADD JUMPDEST DUP3 DUP2 GT ISZERO PUSH2 0x2CE JUMPI DUP3 MLOAD DUP3 SSTORE SWAP2 PUSH1 0x20 ADD SWAP2 SWAP1 PUSH1 0x1 ADD SWAP1 PUSH2 0x2B3 JUMP JUMPDEST JUMPDEST POP SWAP1 POP PUSH2 0x2DC SWAP2 SWAP1 PUSH2 0x301 JUMP JUMPDEST POP SWAP1 JUMP JUMPDEST PUSH1 0x40 MLOAD DUP1 PUSH1 0x60 ADD PUSH1 0x40 MSTORE DUP1 PUSH1 0x60 DUP2 MSTORE PUSH1 0x20 ADD PUSH1 0x60 DUP2 MSTORE PUSH1 0x20 ADD PUSH1 0x0 DUP2 MSTORE POP SWAP1 JUMP JUMPDEST JUMPDEST DUP1 DUP3 GT ISZERO PUSH2 0x31A JUMPI PUSH1 0x0 DUP2 PUSH1 0x0 SWAP1 SSTORE POP PUSH1 0x1 ADD PUSH2 0x302 JUMP JUMPDEST POP SWAP1 JUMP JUMPDEST PUSH1 0x0 PUSH2 0x331 PUSH2 0x32C DUP5 PUSH2 0x53E JUMP JUMPDEST PUSH2 0x519 JUMP JUMPDEST SWAP1 POP DUP3 DUP2 MSTORE PUSH1 0x20 DUP2 ADD DUP5 DUP5 DUP5 ADD GT ISZERO PUSH2 0x34D JUMPI PUSH2 0x34C PUSH2 0x69D JUMP JUMPDEST JUMPDEST PUSH2 0x358 DUP5 DUP3 DUP6 PUSH2 0x595 JUMP JUMPDEST POP SWAP4 SWAP3 POP POP POP JUMP JUMPDEST PUSH1 0x0 DUP3 PUSH1 0x1F DUP4 ADD SLT PUSH2 0x375 JUMPI PUSH2 0x374 PUSH2 0x698 JUMP JUMPDEST JUMPDEST DUP2 CALLDATALOAD PUSH2 0x385 DUP5 DUP3 PUSH1 0x20 DUP7 ADD PUSH2 0x31E JUMP JUMPDEST SWAP2 POP POP SWAP3 SWAP2 POP POP JUMP JUMPDEST PUSH1 0x0 DUP2 CALLDATALOAD SWAP1 POP PUSH2 0x39D DUP2 PUSH2 0x6BD JUMP JUMPDEST SWAP3 SWAP2 POP POP JUMP JUMPDEST PUSH1 0x0 DUP1 PUSH1 0x0 PUSH1 0x60 DUP5 DUP7 SUB SLT ISZERO PUSH2 0x3BC JUMPI PUSH2 0x3BB PUSH2 0x6A7 JUMP JUMPDEST JUMPDEST PUSH1 0x0 DUP5 ADD CALLDATALOAD PUSH8 0xFFFFFFFFFFFFFFFF DUP2 GT ISZERO PUSH2 0x3DA JUMPI PUSH2 0x3D9 PUSH2 0x6A2 JUMP JUMPDEST JUMPDEST PUSH2 0x3E6 DUP7 DUP3 DUP8 ADD PUSH2 0x360 JUMP JUMPDEST SWAP4 POP POP PUSH1 0x20 DUP5 ADD CALLDATALOAD PUSH8 0xFFFFFFFFFFFFFFFF DUP2 GT ISZERO PUSH2 0x407 JUMPI PUSH2 0x406 PUSH2 0x6A2 JUMP JUMPDEST JUMPDEST PUSH2 0x413 DUP7 DUP3 DUP8 ADD PUSH2 0x360 JUMP JUMPDEST SWAP3 POP POP PUSH1 0x40 PUSH2 0x424 DUP7 DUP3 DUP8 ADD PUSH2 0x38E JUMP JUMPDEST SWAP2 POP POP SWAP3 POP SWAP3 POP SWAP3 JUMP JUMPDEST PUSH1 0x0 PUSH2 0x439 DUP3 PUSH2 0x56F JUMP JUMPDEST PUSH2 0x443 DUP2 DUP6 PUSH2 0x57A JUMP JUMPDEST SWAP4 POP PUSH2 0x453 DUP2 DUP6 PUSH1 0x20 DUP7 ADD PUSH2 0x5A4 JUMP JUMPDEST PUSH2 0x45C DUP2 PUSH2 0x6AC JUMP JUMPDEST DUP5 ADD SWAP2 POP POP SWAP3 SWAP2 POP POP JUMP JUMPDEST PUSH1 0x0 PUSH1 0x60 DUP4 ADD PUSH1 0x0 DUP4 ADD MLOAD DUP5 DUP3 SUB PUSH1 0x0 DUP7 ADD MSTORE PUSH2 0x484 DUP3 DUP3 PUSH2 0x42E JUMP JUMPDEST SWAP2 POP POP PUSH1 0x20 DUP4 ADD MLOAD DUP5 DUP3 SUB PUSH1 0x20 DUP7 ADD MSTORE PUSH2 0x49E DUP3 DUP3 PUSH2 0x42E JUMP JUMPDEST SWAP2 POP POP PUSH1 0x40 DUP4 ADD MLOAD PUSH2 0x4B3 PUSH1 0x40 DUP7 ADD DUP3 PUSH2 0x4BE JUMP JUMPDEST POP DUP1 SWAP2 POP POP SWAP3 SWAP2 POP POP JUMP JUMPDEST PUSH2 0x4C7 DUP2 PUSH2 0x58B JUMP JUMPDEST DUP3 MSTORE POP POP JUMP JUMPDEST PUSH2 0x4D6 DUP2 PUSH2 0x58B JUMP JUMPDEST DUP3 MSTORE POP POP JUMP JUMPDEST PUSH1 0x0 PUSH1 0x20 DUP3 ADD SWAP1 POP DUP2 DUP2 SUB PUSH1 0x0 DUP4 ADD MSTORE PUSH2 0x4F6 DUP2 DUP5 PUSH2 0x467 JUMP JUMPDEST SWAP1 POP SWAP3 SWAP2 POP POP JUMP JUMPDEST PUSH1 0x0 PUSH1 0x20 DUP3 ADD SWAP1 POP PUSH2 0x513 PUSH1 0x0 DUP4 ADD DUP5 PUSH2 0x4CD JUMP JUMPDEST SWAP3 SWAP2 POP POP JUMP JUMPDEST PUSH1 0x0 PUSH2 0x523 PUSH2 0x534 JUMP JUMPDEST SWAP1 POP PUSH2 0x52F DUP3 DUP3 PUSH2 0x609 JUMP JUMPDEST SWAP2 SWAP1 POP JUMP JUMPDEST PUSH1 0x0 PUSH1 0x40 MLOAD SWAP1 POP SWAP1 JUMP JUMPDEST PUSH1 0x0 PUSH8 0xFFFFFFFFFFFFFFFF DUP3 GT ISZERO PUSH2 0x559 JUMPI PUSH2 0x558 PUSH2 0x669 JUMP JUMPDEST JUMPDEST PUSH2 0x562 DUP3 PUSH2 0x6AC JUMP JUMPDEST SWAP1 POP PUSH1 0x20 DUP2 ADD SWAP1 POP SWAP2 SWAP1 POP JUMP JUMPDEST PUSH1 0x0 DUP2 MLOAD SWAP1 POP SWAP2 SWAP1 POP JUMP JUMPDEST PUSH1 0x0 DUP3 DUP3 MSTORE PUSH1 0x20 DUP3 ADD SWAP1 POP SWAP3 SWAP2 POP POP JUMP JUMPDEST PUSH1 0x0 DUP2 SWAP1 POP SWAP2 SWAP1 POP JUMP JUMPDEST DUP3 DUP2 DUP4 CALLDATACOPY PUSH1 0x0 DUP4 DUP4 ADD MSTORE POP POP POP JUMP JUMPDEST PUSH1 0x0 JUMPDEST DUP4 DUP2 LT ISZERO PUSH2 0x5C2 JUMPI DUP1 DUP3 ADD MLOAD DUP2 DUP5 ADD MSTORE PUSH1 0x20 DUP2 ADD SWAP1 POP PUSH2 0x5A7 JUMP JUMPDEST DUP4 DUP2 GT ISZERO PUSH2 0x5D1 JUMPI PUSH1 0x0 DUP5 DUP5 ADD MSTORE JUMPDEST POP POP POP POP JUMP JUMPDEST PUSH1 0x0 PUSH1 0x2 DUP3 DIV SWAP1 POP PUSH1 0x1 DUP3 AND DUP1 PUSH2 0x5EF JUMPI PUSH1 0x7F DUP3 AND SWAP2 POP JUMPDEST PUSH1 0x20 DUP3 LT DUP2 EQ ISZERO PUSH2 0x603 JUMPI PUSH2 0x602 PUSH2 0x63A JUMP JUMPDEST JUMPDEST POP SWAP2 SWAP1 POP JUMP JUMPDEST PUSH2 0x612 DUP3 PUSH2 0x6AC JUMP JUMPDEST DUP2 ADD DUP2 DUP2 LT PUSH8 0xFFFFFFFFFFFFFFFF DUP3 GT OR ISZERO PUSH2 0x631 JUMPI PUSH2 0x630 PUSH2 0x669 JUMP JUMPDEST JUMPDEST DUP1 PUSH1 0x40 MSTORE POP POP POP JUMP JUMPDEST PUSH32 0x4E487B7100000000000000000000000000000000000000000000000000000000 PUSH1 0x0 MSTORE PUSH1 0x22 PUSH1 0x4 MSTORE PUSH1 0x24 PUSH1 0x0 REVERT JUMPDEST PUSH32 0x4E487B7100000000000000000000000000000000000000000000000000000000 PUSH1 0x0 MSTORE PUSH1 0x41 PUSH1 0x4 MSTORE PUSH1 0x24 PUSH1 0x0 REVERT JUMPDEST PUSH1 0x0 DUP1 REVERT JUMPDEST PUSH1 0x0 DUP1 REVERT JUMPDEST PUSH1 0x0 DUP1 REVERT JUMPDEST PUSH1 0x0 DUP1 REVERT JUMPDEST PUSH1 0x0 PUSH1 0x1F NOT PUSH1 0x1F DUP4 ADD AND SWAP1 POP SWAP2 SWAP1 POP JUMP JUMPDEST PUSH2 0x6C6 DUP2 PUSH2 0x58B JUMP JUMPDEST DUP2 EQ PUSH2 0x6D1 JUMPI PUSH1 0x0 DUP1 REVERT JUMPDEST POP JUMP INVALID LOG2 PUSH5 0x6970667358 0x22 SLT KECCAK256 LT SWAP8 0xDF PC 0xA7 0xCE 0xBC CREATE2 0x22 SWAP16 0xB9 PUSH11 0xAE7E60753586322569FC3C 0x21 0xAB MSTORE8 0xBA PUSH30 0xA13DD92E64736F6C63430008070033000000000000000000000000000000 "
				},
				"gasEstimates": {
					"creation": {
						"codeDepositCost": "360400",
						"executionCost": "399",
						"totalCost": "360799"
					},
					"external": {
						"getMovie()": "infinite",
						"getMovieId()": "2443",
						"setMovie(string,string,uint256)": "infinite"
					}
				},
				"methodIdentifiers": {
					"getMovie()": "7b5f4eef",
					"getMovieId()": "36dcabe0",
					"setMovie(string,string,uint256)": "092e9563"
				}
			},
			"storageLayout": {
				"storage": [
					{
						"astId": 11,
						"contract": "contracts/10_structs.sol:LearnStruct",
						"label": "movie",
						"offset": 0,
						"slot": "0",
						"type": "t_struct(Movie)8_storage"
					}
				],
				"types": {
					"t_string_storage": {
						"encoding": "bytes",
						"label": "string",
						"numberOfBytes": "32"
					},
					"t_struct(Movie)8_storage": {
						"encoding": "inplace",
						"label": "struct LearnStruct.Movie",
						"members": [
							{
								"astId": 3,
								"contract": "contracts/10_structs.sol:LearnStruct",
								"label": "title",
								"offset": 0,
								"slot": "0",
								"type": "t_string_storage"
							},
							{
								"astId": 5,
								"contract": "contracts/10_structs.sol:LearnStruct",
								"label": "director",
								"offset": 0,
								"slot": "1",
								"type": "t_string_storage"
							},
							{
								"astId": 7,
								"contract": "contracts/10_structs.sol:LearnStruct",
								"label": "id",
								"offset": 0,
								"slot": "2",
								"type": "t_uint256"
							}
						],
						"numberOfBytes": "96"
					},
					"t_uint256": {
						"encoding": "inplace",
						"label": "uint256",
						"numberOfBytes": "32"
					}
				}
			},
			"userdoc": {
				"kind": "user",
				"methods": {},
				"version": 1
			}
		}
	}
}