{
	"contracts/23_uniswap.sol": {
		"UniswapConnect": {
			"abi": [
				{
					"inputs": [],
					"name": "getReserveTokens",
					"outputs": [
						{
							"internalType": "uint256",
							"name": "",
							"type": "uint256"
						},
						{
							"internalType": "uint256",
							"name": "",
							"type": "uint256"
						},
						{
							"internalType": "uint256",
							"name": "",
							"type": "uint256"
						}
					],
					"stateMutability": "view",
					"type": "function"
				}
			],
			"devdoc": {
				"kind": "dev",
				"methods": {},
				"version": 1
			},
			"evm": {
				"assembly": "    /* \"contracts/23_uniswap.sol\":334:864  contract UniswapConnect {... */\n  mstore(0x40, 0x80)\n    /* \"contracts/23_uniswap.sol\":390:432  0x5C69bEe701ef814a2B6a3EDD4B1652CB9cc5aA6f */\n  0x5c69bee701ef814a2b6a3edd4b1652cb9cc5aa6f\n    /* \"contracts/23_uniswap.sol\":364:432  address private factory = 0x5C69bEe701ef814a2B6a3EDD4B1652CB9cc5aA6f */\n  0x00\n  dup1\n  0x0100\n  exp\n  dup2\n  sload\n  dup2\n  0xffffffffffffffffffffffffffffffffffffffff\n  mul\n  not\n  and\n  swap1\n  dup4\n  0xffffffffffffffffffffffffffffffffffffffff\n  and\n  mul\n  or\n  swap1\n  sstore\n  pop\n    /* \"contracts/23_uniswap.sol\":460:502  0x6B175474E89094C44Da98b954EedeAC495271d0F */\n  0x6b175474e89094c44da98b954eedeac495271d0f\n    /* \"contracts/23_uniswap.sol\":438:502  address private dai = 0x6B175474E89094C44Da98b954EedeAC495271d0F */\n  0x01\n  exp(0x0100, 0x00)\n  dup2\n  sload\n  dup2\n  0xffffffffffffffffffffffffffffffffffffffff\n  mul\n  not\n  and\n  swap1\n  dup4\n  0xffffffffffffffffffffffffffffffffffffffff\n  and\n  mul\n  or\n  swap1\n  sstore\n  pop\n    /* \"contracts/23_uniswap.sol\":531:573  0xC02aaA39b223FE8D0A0e5C4F27eAD9083C756Cc2 */\n  0xc02aaa39b223fe8d0a0e5c4f27ead9083c756cc2\n    /* \"contracts/23_uniswap.sol\":508:573  address private weth = 0xC02aaA39b223FE8D0A0e5C4F27eAD9083C756Cc2 */\n  0x02\n  exp(0x0100, 0x00)\n  dup2\n  sload\n  dup2\n  0xffffffffffffffffffffffffffffffffffffffff\n  mul\n  not\n  and\n  swap1\n  dup4\n  0xffffffffffffffffffffffffffffffffffffffff\n  and\n  mul\n  or\n  swap1\n  sstore\n  pop\n    /* \"contracts/23_uniswap.sol\":334:864  contract UniswapConnect {... */\n  callvalue\n  dup1\n  iszero\n  tag_1\n  jumpi\n  0x00\n  dup1\n  revert\ntag_1:\n  pop\n  dataSize(sub_0)\n  dup1\n  dataOffset(sub_0)\n  0x00\n  codecopy\n  0x00\n  return\nstop\n\nsub_0: assembly {\n        /* \"contracts/23_uniswap.sol\":334:864  contract UniswapConnect {... */\n      mstore(0x40, 0x80)\n      callvalue\n      dup1\n      iszero\n      tag_1\n      jumpi\n      0x00\n      dup1\n      revert\n    tag_1:\n      pop\n      jumpi(tag_2, lt(calldatasize, 0x04))\n      shr(0xe0, calldataload(0x00))\n      dup1\n      0xd1f3ae1b\n      eq\n      tag_3\n      jumpi\n    tag_2:\n      0x00\n      dup1\n      revert\n        /* \"contracts/23_uniswap.sol\":580:862  function getReserveTokens() external view returns (uint, uint, uint){... */\n    tag_3:\n      tag_4\n      tag_5\n      jump\t// in\n    tag_4:\n      mload(0x40)\n      tag_6\n      swap4\n      swap3\n      swap2\n      swap1\n      tag_7\n      jump\t// in\n    tag_6:\n      mload(0x40)\n      dup1\n      swap2\n      sub\n      swap1\n      return\n    tag_5:\n        /* \"contracts/23_uniswap.sol\":631:635  uint */\n      0x00\n        /* \"contracts/23_uniswap.sol\":637:641  uint */\n      dup1\n        /* \"contracts/23_uniswap.sol\":643:647  uint */\n      0x00\n        /* \"contracts/23_uniswap.sol\":658:670  address pair */\n      dup1\n        /* \"contracts/23_uniswap.sol\":690:697  factory */\n      0x00\n      dup1\n      sload\n      swap1\n      0x0100\n      exp\n      swap1\n      div\n      0xffffffffffffffffffffffffffffffffffffffff\n      and\n        /* \"contracts/23_uniswap.sol\":673:706  UniswapV2Factory(factory).getPair */\n      0xffffffffffffffffffffffffffffffffffffffff\n      and\n      0xe6a43905\n        /* \"contracts/23_uniswap.sol\":707:710  dai */\n      0x01\n      0x00\n      swap1\n      sload\n      swap1\n      0x0100\n      exp\n      swap1\n      div\n      0xffffffffffffffffffffffffffffffffffffffff\n      and\n        /* \"contracts/23_uniswap.sol\":712:716  weth */\n      0x02\n      0x00\n      swap1\n      sload\n      swap1\n      0x0100\n      exp\n      swap1\n      div\n      0xffffffffffffffffffffffffffffffffffffffff\n      and\n        /* \"contracts/23_uniswap.sol\":673:717  UniswapV2Factory(factory).getPair(dai, weth) */\n      mload(0x40)\n      dup4\n      0xffffffff\n      and\n      0xe0\n      shl\n      dup2\n      mstore\n      0x04\n      add\n      tag_9\n      swap3\n      swap2\n      swap1\n      tag_10\n      jump\t// in\n    tag_9:\n      0x20\n      mload(0x40)\n      dup1\n      dup4\n      sub\n      dup2\n      dup7\n      dup1\n      extcodesize\n      iszero\n      dup1\n      iszero\n      tag_11\n      jumpi\n      0x00\n      dup1\n      revert\n    tag_11:\n      pop\n      gas\n      staticcall\n      iszero\n      dup1\n      iszero\n      tag_13\n      jumpi\n      returndatasize\n      0x00\n      dup1\n      returndatacopy\n      revert(0x00, returndatasize)\n    tag_13:\n      pop\n      pop\n      pop\n      pop\n      mload(0x40)\n      returndatasize\n      not(0x1f)\n      0x1f\n      dup3\n      add\n      and\n      dup3\n      add\n      dup1\n      0x40\n      mstore\n      pop\n      dup2\n      add\n      swap1\n      tag_14\n      swap2\n      swap1\n      tag_15\n      jump\t// in\n    tag_14:\n        /* \"contracts/23_uniswap.sol\":658:717  address pair = UniswapV2Factory(factory).getPair(dai, weth) */\n      swap1\n      pop\n        /* \"contracts/23_uniswap.sol\":728:741  uint reserve0 */\n      0x00\n        /* \"contracts/23_uniswap.sol\":743:756  uint reserve1 */\n      dup1\n        /* \"contracts/23_uniswap.sol\":758:772  uint timestamp */\n      0x00\n        /* \"contracts/23_uniswap.sol\":790:794  pair */\n      dup4\n        /* \"contracts/23_uniswap.sol\":776:807  UniswapV2Pair(pair).getReserves */\n      0xffffffffffffffffffffffffffffffffffffffff\n      and\n      0x0902f1ac\n        /* \"contracts/23_uniswap.sol\":776:809  UniswapV2Pair(pair).getReserves() */\n      mload(0x40)\n      dup2\n      0xffffffff\n      and\n      0xe0\n      shl\n      dup2\n      mstore\n      0x04\n      add\n      0x60\n      mload(0x40)\n      dup1\n      dup4\n      sub\n      dup2\n      dup7\n      dup1\n      extcodesize\n      iszero\n      dup1\n      iszero\n      tag_16\n      jumpi\n      0x00\n      dup1\n      revert\n    tag_16:\n      pop\n      gas\n      staticcall\n      iszero\n      dup1\n      iszero\n      tag_18\n      jumpi\n      returndatasize\n      0x00\n      dup1\n      returndatacopy\n      revert(0x00, returndatasize)\n    tag_18:\n      pop\n      pop\n      pop\n      pop\n      mload(0x40)\n      returndatasize\n      not(0x1f)\n      0x1f\n      dup3\n      add\n      and\n      dup3\n      add\n      dup1\n      0x40\n      mstore\n      pop\n      dup2\n      add\n      swap1\n      tag_19\n      swap2\n      swap1\n      tag_20\n      jump\t// in\n    tag_19:\n        /* \"contracts/23_uniswap.sol\":727:809  (uint reserve0, uint reserve1, uint timestamp) = UniswapV2Pair(pair).getReserves() */\n      0xffffffff\n      and\n      swap3\n      pop\n      0xffffffffffffffffffffffffffff\n      and\n      swap3\n      pop\n      0xffffffffffffffffffffffffffff\n      and\n      swap3\n      pop\n        /* \"contracts/23_uniswap.sol\":827:835  reserve0 */\n      dup3\n        /* \"contracts/23_uniswap.sol\":836:844  reserve1 */\n      dup3\n        /* \"contracts/23_uniswap.sol\":845:854  timestamp */\n      dup3\n        /* \"contracts/23_uniswap.sol\":819:855  return (reserve0,reserve1,timestamp) */\n      swap7\n      pop\n      swap7\n      pop\n      swap7\n      pop\n      pop\n      pop\n      pop\n      pop\n        /* \"contracts/23_uniswap.sol\":580:862  function getReserveTokens() external view returns (uint, uint, uint){... */\n      swap1\n      swap2\n      swap3\n      jump\t// out\n        /* \"#utility.yul\":7:150   */\n    tag_22:\n        /* \"#utility.yul\":64:69   */\n      0x00\n        /* \"#utility.yul\":95:101   */\n      dup2\n        /* \"#utility.yul\":89:102   */\n      mload\n        /* \"#utility.yul\":80:102   */\n      swap1\n      pop\n        /* \"#utility.yul\":111:144   */\n      tag_24\n        /* \"#utility.yul\":138:143   */\n      dup2\n        /* \"#utility.yul\":111:144   */\n      tag_25\n      jump\t// in\n    tag_24:\n        /* \"#utility.yul\":7:150   */\n      swap3\n      swap2\n      pop\n      pop\n      jump\t// out\n        /* \"#utility.yul\":156:299   */\n    tag_26:\n        /* \"#utility.yul\":213:218   */\n      0x00\n        /* \"#utility.yul\":244:250   */\n      dup2\n        /* \"#utility.yul\":238:251   */\n      mload\n        /* \"#utility.yul\":229:251   */\n      swap1\n      pop\n        /* \"#utility.yul\":260:293   */\n      tag_28\n        /* \"#utility.yul\":287:292   */\n      dup2\n        /* \"#utility.yul\":260:293   */\n      tag_29\n      jump\t// in\n    tag_28:\n        /* \"#utility.yul\":156:299   */\n      swap3\n      swap2\n      pop\n      pop\n      jump\t// out\n        /* \"#utility.yul\":305:446   */\n    tag_30:\n        /* \"#utility.yul\":361:366   */\n      0x00\n        /* \"#utility.yul\":392:398   */\n      dup2\n        /* \"#utility.yul\":386:399   */\n      mload\n        /* \"#utility.yul\":377:399   */\n      swap1\n      pop\n        /* \"#utility.yul\":408:440   */\n      tag_32\n        /* \"#utility.yul\":434:439   */\n      dup2\n        /* \"#utility.yul\":408:440   */\n      tag_33\n      jump\t// in\n    tag_32:\n        /* \"#utility.yul\":305:446   */\n      swap3\n      swap2\n      pop\n      pop\n      jump\t// out\n        /* \"#utility.yul\":452:803   */\n    tag_15:\n        /* \"#utility.yul\":522:528   */\n      0x00\n        /* \"#utility.yul\":571:573   */\n      0x20\n        /* \"#utility.yul\":559:568   */\n      dup3\n        /* \"#utility.yul\":550:557   */\n      dup5\n        /* \"#utility.yul\":546:569   */\n      sub\n        /* \"#utility.yul\":542:574   */\n      slt\n        /* \"#utility.yul\":539:658   */\n      iszero\n      tag_35\n      jumpi\n        /* \"#utility.yul\":577:656   */\n      tag_36\n      tag_37\n      jump\t// in\n    tag_36:\n        /* \"#utility.yul\":539:658   */\n    tag_35:\n        /* \"#utility.yul\":697:698   */\n      0x00\n        /* \"#utility.yul\":722:786   */\n      tag_38\n        /* \"#utility.yul\":778:785   */\n      dup5\n        /* \"#utility.yul\":769:775   */\n      dup3\n        /* \"#utility.yul\":758:767   */\n      dup6\n        /* \"#utility.yul\":754:776   */\n      add\n        /* \"#utility.yul\":722:786   */\n      tag_22\n      jump\t// in\n    tag_38:\n        /* \"#utility.yul\":712:786   */\n      swap2\n      pop\n        /* \"#utility.yul\":668:796   */\n      pop\n        /* \"#utility.yul\":452:803   */\n      swap3\n      swap2\n      pop\n      pop\n      jump\t// out\n        /* \"#utility.yul\":809:1470   */\n    tag_20:\n        /* \"#utility.yul\":896:902   */\n      0x00\n        /* \"#utility.yul\":904:910   */\n      dup1\n        /* \"#utility.yul\":912:918   */\n      0x00\n        /* \"#utility.yul\":961:963   */\n      0x60\n        /* \"#utility.yul\":949:958   */\n      dup5\n        /* \"#utility.yul\":940:947   */\n      dup7\n        /* \"#utility.yul\":936:959   */\n      sub\n        /* \"#utility.yul\":932:964   */\n      slt\n        /* \"#utility.yul\":929:1048   */\n      iszero\n      tag_40\n      jumpi\n        /* \"#utility.yul\":967:1046   */\n      tag_41\n      tag_37\n      jump\t// in\n    tag_41:\n        /* \"#utility.yul\":929:1048   */\n    tag_40:\n        /* \"#utility.yul\":1087:1088   */\n      0x00\n        /* \"#utility.yul\":1112:1176   */\n      tag_42\n        /* \"#utility.yul\":1168:1175   */\n      dup7\n        /* \"#utility.yul\":1159:1165   */\n      dup3\n        /* \"#utility.yul\":1148:1157   */\n      dup8\n        /* \"#utility.yul\":1144:1166   */\n      add\n        /* \"#utility.yul\":1112:1176   */\n      tag_26\n      jump\t// in\n    tag_42:\n        /* \"#utility.yul\":1102:1176   */\n      swap4\n      pop\n        /* \"#utility.yul\":1058:1186   */\n      pop\n        /* \"#utility.yul\":1225:1227   */\n      0x20\n        /* \"#utility.yul\":1251:1315   */\n      tag_43\n        /* \"#utility.yul\":1307:1314   */\n      dup7\n        /* \"#utility.yul\":1298:1304   */\n      dup3\n        /* \"#utility.yul\":1287:1296   */\n      dup8\n        /* \"#utility.yul\":1283:1305   */\n      add\n        /* \"#utility.yul\":1251:1315   */\n      tag_26\n      jump\t// in\n    tag_43:\n        /* \"#utility.yul\":1241:1315   */\n      swap3\n      pop\n        /* \"#utility.yul\":1196:1325   */\n      pop\n        /* \"#utility.yul\":1364:1366   */\n      0x40\n        /* \"#utility.yul\":1390:1453   */\n      tag_44\n        /* \"#utility.yul\":1445:1452   */\n      dup7\n        /* \"#utility.yul\":1436:1442   */\n      dup3\n        /* \"#utility.yul\":1425:1434   */\n      dup8\n        /* \"#utility.yul\":1421:1443   */\n      add\n        /* \"#utility.yul\":1390:1453   */\n      tag_30\n      jump\t// in\n    tag_44:\n        /* \"#utility.yul\":1380:1453   */\n      swap2\n      pop\n        /* \"#utility.yul\":1335:1463   */\n      pop\n        /* \"#utility.yul\":809:1470   */\n      swap3\n      pop\n      swap3\n      pop\n      swap3\n      jump\t// out\n        /* \"#utility.yul\":1476:1594   */\n    tag_45:\n        /* \"#utility.yul\":1563:1587   */\n      tag_47\n        /* \"#utility.yul\":1581:1586   */\n      dup2\n        /* \"#utility.yul\":1563:1587   */\n      tag_48\n      jump\t// in\n    tag_47:\n        /* \"#utility.yul\":1558:1561   */\n      dup3\n        /* \"#utility.yul\":1551:1588   */\n      mstore\n        /* \"#utility.yul\":1476:1594   */\n      pop\n      pop\n      jump\t// out\n        /* \"#utility.yul\":1600:1718   */\n    tag_49:\n        /* \"#utility.yul\":1687:1711   */\n      tag_51\n        /* \"#utility.yul\":1705:1710   */\n      dup2\n        /* \"#utility.yul\":1687:1711   */\n      tag_52\n      jump\t// in\n    tag_51:\n        /* \"#utility.yul\":1682:1685   */\n      dup3\n        /* \"#utility.yul\":1675:1712   */\n      mstore\n        /* \"#utility.yul\":1600:1718   */\n      pop\n      pop\n      jump\t// out\n        /* \"#utility.yul\":1724:2056   */\n    tag_10:\n        /* \"#utility.yul\":1845:1849   */\n      0x00\n        /* \"#utility.yul\":1883:1885   */\n      0x40\n        /* \"#utility.yul\":1872:1881   */\n      dup3\n        /* \"#utility.yul\":1868:1886   */\n      add\n        /* \"#utility.yul\":1860:1886   */\n      swap1\n      pop\n        /* \"#utility.yul\":1896:1967   */\n      tag_54\n        /* \"#utility.yul\":1964:1965   */\n      0x00\n        /* \"#utility.yul\":1953:1962   */\n      dup4\n        /* \"#utility.yul\":1949:1966   */\n      add\n        /* \"#utility.yul\":1940:1946   */\n      dup6\n        /* \"#utility.yul\":1896:1967   */\n      tag_45\n      jump\t// in\n    tag_54:\n        /* \"#utility.yul\":1977:2049   */\n      tag_55\n        /* \"#utility.yul\":2045:2047   */\n      0x20\n        /* \"#utility.yul\":2034:2043   */\n      dup4\n        /* \"#utility.yul\":2030:2048   */\n      add\n        /* \"#utility.yul\":2021:2027   */\n      dup5\n        /* \"#utility.yul\":1977:2049   */\n      tag_45\n      jump\t// in\n    tag_55:\n        /* \"#utility.yul\":1724:2056   */\n      swap4\n      swap3\n      pop\n      pop\n      pop\n      jump\t// out\n        /* \"#utility.yul\":2062:2504   */\n    tag_7:\n        /* \"#utility.yul\":2211:2215   */\n      0x00\n        /* \"#utility.yul\":2249:2251   */\n      0x60\n        /* \"#utility.yul\":2238:2247   */\n      dup3\n        /* \"#utility.yul\":2234:2252   */\n      add\n        /* \"#utility.yul\":2226:2252   */\n      swap1\n      pop\n        /* \"#utility.yul\":2262:2333   */\n      tag_57\n        /* \"#utility.yul\":2330:2331   */\n      0x00\n        /* \"#utility.yul\":2319:2328   */\n      dup4\n        /* \"#utility.yul\":2315:2332   */\n      add\n        /* \"#utility.yul\":2306:2312   */\n      dup7\n        /* \"#utility.yul\":2262:2333   */\n      tag_49\n      jump\t// in\n    tag_57:\n        /* \"#utility.yul\":2343:2415   */\n      tag_58\n        /* \"#utility.yul\":2411:2413   */\n      0x20\n        /* \"#utility.yul\":2400:2409   */\n      dup4\n        /* \"#utility.yul\":2396:2414   */\n      add\n        /* \"#utility.yul\":2387:2393   */\n      dup6\n        /* \"#utility.yul\":2343:2415   */\n      tag_49\n      jump\t// in\n    tag_58:\n        /* \"#utility.yul\":2425:2497   */\n      tag_59\n        /* \"#utility.yul\":2493:2495   */\n      0x40\n        /* \"#utility.yul\":2482:2491   */\n      dup4\n        /* \"#utility.yul\":2478:2496   */\n      add\n        /* \"#utility.yul\":2469:2475   */\n      dup5\n        /* \"#utility.yul\":2425:2497   */\n      tag_49\n      jump\t// in\n    tag_59:\n        /* \"#utility.yul\":2062:2504   */\n      swap5\n      swap4\n      pop\n      pop\n      pop\n      pop\n      jump\t// out\n        /* \"#utility.yul\":2591:2687   */\n    tag_48:\n        /* \"#utility.yul\":2628:2635   */\n      0x00\n        /* \"#utility.yul\":2657:2681   */\n      tag_63\n        /* \"#utility.yul\":2675:2680   */\n      dup3\n        /* \"#utility.yul\":2657:2681   */\n      tag_64\n      jump\t// in\n    tag_63:\n        /* \"#utility.yul\":2646:2681   */\n      swap1\n      pop\n        /* \"#utility.yul\":2591:2687   */\n      swap2\n      swap1\n      pop\n      jump\t// out\n        /* \"#utility.yul\":2693:2807   */\n    tag_65:\n        /* \"#utility.yul\":2730:2737   */\n      0x00\n        /* \"#utility.yul\":2770:2800   */\n      0xffffffffffffffffffffffffffff\n        /* \"#utility.yul\":2763:2768   */\n      dup3\n        /* \"#utility.yul\":2759:2801   */\n      and\n        /* \"#utility.yul\":2748:2801   */\n      swap1\n      pop\n        /* \"#utility.yul\":2693:2807   */\n      swap2\n      swap1\n      pop\n      jump\t// out\n        /* \"#utility.yul\":2813:2939   */\n    tag_64:\n        /* \"#utility.yul\":2850:2857   */\n      0x00\n        /* \"#utility.yul\":2890:2932   */\n      0xffffffffffffffffffffffffffffffffffffffff\n        /* \"#utility.yul\":2883:2888   */\n      dup3\n        /* \"#utility.yul\":2879:2933   */\n      and\n        /* \"#utility.yul\":2868:2933   */\n      swap1\n      pop\n        /* \"#utility.yul\":2813:2939   */\n      swap2\n      swap1\n      pop\n      jump\t// out\n        /* \"#utility.yul\":2945:3022   */\n    tag_52:\n        /* \"#utility.yul\":2982:2989   */\n      0x00\n        /* \"#utility.yul\":3011:3016   */\n      dup2\n        /* \"#utility.yul\":3000:3016   */\n      swap1\n      pop\n        /* \"#utility.yul\":2945:3022   */\n      swap2\n      swap1\n      pop\n      jump\t// out\n        /* \"#utility.yul\":3028:3121   */\n    tag_69:\n        /* \"#utility.yul\":3064:3071   */\n      0x00\n        /* \"#utility.yul\":3104:3114   */\n      0xffffffff\n        /* \"#utility.yul\":3097:3102   */\n      dup3\n        /* \"#utility.yul\":3093:3115   */\n      and\n        /* \"#utility.yul\":3082:3115   */\n      swap1\n      pop\n        /* \"#utility.yul\":3028:3121   */\n      swap2\n      swap1\n      pop\n      jump\t// out\n        /* \"#utility.yul\":3250:3367   */\n    tag_37:\n        /* \"#utility.yul\":3359:3360   */\n      0x00\n        /* \"#utility.yul\":3356:3357   */\n      dup1\n        /* \"#utility.yul\":3349:3361   */\n      revert\n        /* \"#utility.yul\":3373:3495   */\n    tag_25:\n        /* \"#utility.yul\":3446:3470   */\n      tag_75\n        /* \"#utility.yul\":3464:3469   */\n      dup2\n        /* \"#utility.yul\":3446:3470   */\n      tag_48\n      jump\t// in\n    tag_75:\n        /* \"#utility.yul\":3439:3444   */\n      dup2\n        /* \"#utility.yul\":3436:3471   */\n      eq\n        /* \"#utility.yul\":3426:3489   */\n      tag_76\n      jumpi\n        /* \"#utility.yul\":3485:3486   */\n      0x00\n        /* \"#utility.yul\":3482:3483   */\n      dup1\n        /* \"#utility.yul\":3475:3487   */\n      revert\n        /* \"#utility.yul\":3426:3489   */\n    tag_76:\n        /* \"#utility.yul\":3373:3495   */\n      pop\n      jump\t// out\n        /* \"#utility.yul\":3501:3623   */\n    tag_29:\n        /* \"#utility.yul\":3574:3598   */\n      tag_78\n        /* \"#utility.yul\":3592:3597   */\n      dup2\n        /* \"#utility.yul\":3574:3598   */\n      tag_65\n      jump\t// in\n    tag_78:\n        /* \"#utility.yul\":3567:3572   */\n      dup2\n        /* \"#utility.yul\":3564:3599   */\n      eq\n        /* \"#utility.yul\":3554:3617   */\n      tag_79\n      jumpi\n        /* \"#utility.yul\":3613:3614   */\n      0x00\n        /* \"#utility.yul\":3610:3611   */\n      dup1\n        /* \"#utility.yul\":3603:3615   */\n      revert\n        /* \"#utility.yul\":3554:3617   */\n    tag_79:\n        /* \"#utility.yul\":3501:3623   */\n      pop\n      jump\t// out\n        /* \"#utility.yul\":3629:3749   */\n    tag_33:\n        /* \"#utility.yul\":3701:3724   */\n      tag_81\n        /* \"#utility.yul\":3718:3723   */\n      dup2\n        /* \"#utility.yul\":3701:3724   */\n      tag_69\n      jump\t// in\n    tag_81:\n        /* \"#utility.yul\":3694:3699   */\n      dup2\n        /* \"#utility.yul\":3691:3725   */\n      eq\n        /* \"#utility.yul\":3681:3743   */\n      tag_82\n      jumpi\n        /* \"#utility.yul\":3739:3740   */\n      0x00\n        /* \"#utility.yul\":3736:3737   */\n      dup1\n        /* \"#utility.yul\":3729:3741   */\n      revert\n        /* \"#utility.yul\":3681:3743   */\n    tag_82:\n        /* \"#utility.yul\":3629:3749   */\n      pop\n      jump\t// out\n\n    auxdata: 0xa2646970667358221220e47854c94f8149410386b9e6b8df17c783e4ca50b600f93a5a078f144c3c588f64736f6c63430008070033\n}\n",
				"bytecode": {
					"linkReferences": {},
					"object": "6080604052735c69bee701ef814a2b6a3edd4b1652cb9cc5aa6f6000806101000a81548173ffffffffffffffffffffffffffffffffffffffff021916908373ffffffffffffffffffffffffffffffffffffffff160217905550736b175474e89094c44da98b954eedeac495271d0f600160006101000a81548173ffffffffffffffffffffffffffffffffffffffff021916908373ffffffffffffffffffffffffffffffffffffffff16021790555073c02aaa39b223fe8d0a0e5c4f27ead9083c756cc2600260006101000a81548173ffffffffffffffffffffffffffffffffffffffff021916908373ffffffffffffffffffffffffffffffffffffffff16021790555034801561010e57600080fd5b5061042b8061011e6000396000f3fe608060405234801561001057600080fd5b506004361061002b5760003560e01c8063d1f3ae1b14610030575b600080fd5b610038610050565b6040516100479392919061030e565b60405180910390f35b60008060008060008054906101000a900473ffffffffffffffffffffffffffffffffffffffff1673ffffffffffffffffffffffffffffffffffffffff1663e6a43905600160009054906101000a900473ffffffffffffffffffffffffffffffffffffffff16600260009054906101000a900473ffffffffffffffffffffffffffffffffffffffff166040518363ffffffff1660e01b81526004016100f59291906102e5565b60206040518083038186803b15801561010d57600080fd5b505afa158015610121573d6000803e3d6000fd5b505050506040513d601f19601f820116820180604052508101906101459190610247565b905060008060008373ffffffffffffffffffffffffffffffffffffffff16630902f1ac6040518163ffffffff1660e01b815260040160606040518083038186803b15801561019257600080fd5b505afa1580156101a6573d6000803e3d6000fd5b505050506040513d601f19601f820116820180604052508101906101ca9190610274565b63ffffffff1692506dffffffffffffffffffffffffffff1692506dffffffffffffffffffffffffffff16925082828296509650965050505050909192565b600081519050610217816103b0565b92915050565b60008151905061022c816103c7565b92915050565b600081519050610241816103de565b92915050565b60006020828403121561025d5761025c6103ab565b5b600061026b84828501610208565b91505092915050565b60008060006060848603121561028d5761028c6103ab565b5b600061029b8682870161021d565b93505060206102ac8682870161021d565b92505060406102bd86828701610232565b9150509250925092565b6102d081610345565b82525050565b6102df81610391565b82525050565b60006040820190506102fa60008301856102c7565b61030760208301846102c7565b9392505050565b600060608201905061032360008301866102d6565b61033060208301856102d6565b61033d60408301846102d6565b949350505050565b600061035082610371565b9050919050565b60006dffffffffffffffffffffffffffff82169050919050565b600073ffffffffffffffffffffffffffffffffffffffff82169050919050565b6000819050919050565b600063ffffffff82169050919050565b600080fd5b6103b981610345565b81146103c457600080fd5b50565b6103d081610357565b81146103db57600080fd5b50565b6103e78161039b565b81146103f257600080fd5b5056fea2646970667358221220e47854c94f8149410386b9e6b8df17c783e4ca50b600f93a5a078f144c3c588f64736f6c63430008070033",
					"opcodes": "PUSH1 0x80 PUSH1 0x40 MSTORE PUSH20 0x5C69BEE701EF814A2B6A3EDD4B1652CB9CC5AA6F PUSH1 0x0 DUP1 PUSH2 0x100 EXP DUP2 SLOAD DUP2 PUSH20 0xFFFFFFFFFFFFFFFFFFFFFFFFFFFFFFFFFFFFFFFF MUL NOT AND SWAP1 DUP4 PUSH20 0xFFFFFFFFFFFFFFFFFFFFFFFFFFFFFFFFFFFFFFFF AND MUL OR SWAP1 SSTORE POP PUSH20 0x6B175474E89094C44DA98B954EEDEAC495271D0F PUSH1 0x1 PUSH1 0x0 PUSH2 0x100 EXP DUP2 SLOAD DUP2 PUSH20 0xFFFFFFFFFFFFFFFFFFFFFFFFFFFFFFFFFFFFFFFF MUL NOT AND SWAP1 DUP4 PUSH20 0xFFFFFFFFFFFFFFFFFFFFFFFFFFFFFFFFFFFFFFFF AND MUL OR SWAP1 SSTORE POP PUSH20 0xC02AAA39B223FE8D0A0E5C4F27EAD9083C756CC2 PUSH1 0x2 PUSH1 0x0 PUSH2 0x100 EXP DUP2 SLOAD DUP2 PUSH20 0xFFFFFFFFFFFFFFFFFFFFFFFFFFFFFFFFFFFFFFFF MUL NOT AND SWAP1 DUP4 PUSH20 0xFFFFFFFFFFFFFFFFFFFFFFFFFFFFFFFFFFFFFFFF AND MUL OR SWAP1 SSTORE POP CALLVALUE DUP1 ISZERO PUSH2 0x10E JUMPI PUSH1 0x0 DUP1 REVERT JUMPDEST POP PUSH2 0x42B DUP1 PUSH2 0x11E PUSH1 0x0 CODECOPY PUSH1 0x0 RETURN INVALID PUSH1 0x80 PUSH1 0x40 MSTORE CALLVALUE DUP1 ISZERO PUSH2 0x10 JUMPI PUSH1 0x0 DUP1 REVERT JUMPDEST POP PUSH1 0x4 CALLDATASIZE LT PUSH2 0x2B JUMPI PUSH1 0x0 CALLDATALOAD PUSH1 0xE0 SHR DUP1 PUSH4 0xD1F3AE1B EQ PUSH2 0x30 JUMPI JUMPDEST PUSH1 0x0 DUP1 REVERT JUMPDEST PUSH2 0x38 PUSH2 0x50 JUMP JUMPDEST PUSH1 0x40 MLOAD PUSH2 0x47 SWAP4 SWAP3 SWAP2 SWAP1 PUSH2 0x30E JUMP JUMPDEST PUSH1 0x40 MLOAD DUP1 SWAP2 SUB SWAP1 RETURN JUMPDEST PUSH1 0x0 DUP1 PUSH1 0x0 DUP1 PUSH1 0x0 DUP1 SLOAD SWAP1 PUSH2 0x100 EXP SWAP1 DIV PUSH20 0xFFFFFFFFFFFFFFFFFFFFFFFFFFFFFFFFFFFFFFFF AND PUSH20 0xFFFFFFFFFFFFFFFFFFFFFFFFFFFFFFFFFFFFFFFF AND PUSH4 0xE6A43905 PUSH1 0x1 PUSH1 0x0 SWAP1 SLOAD SWAP1 PUSH2 0x100 EXP SWAP1 DIV PUSH20 0xFFFFFFFFFFFFFFFFFFFFFFFFFFFFFFFFFFFFFFFF AND PUSH1 0x2 PUSH1 0x0 SWAP1 SLOAD SWAP1 PUSH2 0x100 EXP SWAP1 DIV PUSH20 0xFFFFFFFFFFFFFFFFFFFFFFFFFFFFFFFFFFFFFFFF AND PUSH1 0x40 MLOAD DUP4 PUSH4 0xFFFFFFFF AND PUSH1 0xE0 SHL DUP2 MSTORE PUSH1 0x4 ADD PUSH2 0xF5 SWAP3 SWAP2 SWAP1 PUSH2 0x2E5 JUMP JUMPDEST PUSH1 0x20 PUSH1 0x40 MLOAD DUP1 DUP4 SUB DUP2 DUP7 DUP1 EXTCODESIZE ISZERO DUP1 ISZERO PUSH2 0x10D JUMPI PUSH1 0x0 DUP1 REVERT JUMPDEST POP GAS STATICCALL ISZERO DUP1 ISZERO PUSH2 0x121 JUMPI RETURNDATASIZE PUSH1 0x0 DUP1 RETURNDATACOPY RETURNDATASIZE PUSH1 0x0 REVERT JUMPDEST POP POP POP POP PUSH1 0x40 MLOAD RETURNDATASIZE PUSH1 0x1F NOT PUSH1 0x1F DUP3 ADD AND DUP3 ADD DUP1 PUSH1 0x40 MSTORE POP DUP2 ADD SWAP1 PUSH2 0x145 SWAP2 SWAP1 PUSH2 0x247 JUMP JUMPDEST SWAP1 POP PUSH1 0x0 DUP1 PUSH1 0x0 DUP4 PUSH20 0xFFFFFFFFFFFFFFFFFFFFFFFFFFFFFFFFFFFFFFFF AND PUSH4 0x902F1AC PUSH1 0x40 MLOAD DUP2 PUSH4 0xFFFFFFFF AND PUSH1 0xE0 SHL DUP2 MSTORE PUSH1 0x4 ADD PUSH1 0x60 PUSH1 0x40 MLOAD DUP1 DUP4 SUB DUP2 DUP7 DUP1 EXTCODESIZE ISZERO DUP1 ISZERO PUSH2 0x192 JUMPI PUSH1 0x0 DUP1 REVERT JUMPDEST POP GAS STATICCALL ISZERO DUP1 ISZERO PUSH2 0x1A6 JUMPI RETURNDATASIZE PUSH1 0x0 DUP1 RETURNDATACOPY RETURNDATASIZE PUSH1 0x0 REVERT JUMPDEST POP POP POP POP PUSH1 0x40 MLOAD RETURNDATASIZE PUSH1 0x1F NOT PUSH1 0x1F DUP3 ADD AND DUP3 ADD DUP1 PUSH1 0x40 MSTORE POP DUP2 ADD SWAP1 PUSH2 0x1CA SWAP2 SWAP1 PUSH2 0x274 JUMP JUMPDEST PUSH4 0xFFFFFFFF AND SWAP3 POP PUSH14 0xFFFFFFFFFFFFFFFFFFFFFFFFFFFF AND SWAP3 POP PUSH14 0xFFFFFFFFFFFFFFFFFFFFFFFFFFFF AND SWAP3 POP DUP3 DUP3 DUP3 SWAP7 POP SWAP7 POP SWAP7 POP POP POP POP POP SWAP1 SWAP2 SWAP3 JUMP JUMPDEST PUSH1 0x0 DUP2 MLOAD SWAP1 POP PUSH2 0x217 DUP2 PUSH2 0x3B0 JUMP JUMPDEST SWAP3 SWAP2 POP POP JUMP JUMPDEST PUSH1 0x0 DUP2 MLOAD SWAP1 POP PUSH2 0x22C DUP2 PUSH2 0x3C7 JUMP JUMPDEST SWAP3 SWAP2 POP POP JUMP JUMPDEST PUSH1 0x0 DUP2 MLOAD SWAP1 POP PUSH2 0x241 DUP2 PUSH2 0x3DE JUMP JUMPDEST SWAP3 SWAP2 POP POP JUMP JUMPDEST PUSH1 0x0 PUSH1 0x20 DUP3 DUP5 SUB SLT ISZERO PUSH2 0x25D JUMPI PUSH2 0x25C PUSH2 0x3AB JUMP JUMPDEST JUMPDEST PUSH1 0x0 PUSH2 0x26B DUP5 DUP3 DUP6 ADD PUSH2 0x208 JUMP JUMPDEST SWAP2 POP POP SWAP3 SWAP2 POP POP JUMP JUMPDEST PUSH1 0x0 DUP1 PUSH1 0x0 PUSH1 0x60 DUP5 DUP7 SUB SLT ISZERO PUSH2 0x28D JUMPI PUSH2 0x28C PUSH2 0x3AB JUMP JUMPDEST JUMPDEST PUSH1 0x0 PUSH2 0x29B DUP7 DUP3 DUP8 ADD PUSH2 0x21D JUMP JUMPDEST SWAP4 POP POP PUSH1 0x20 PUSH2 0x2AC DUP7 DUP3 DUP8 ADD PUSH2 0x21D JUMP JUMPDEST SWAP3 POP POP PUSH1 0x40 PUSH2 0x2BD DUP7 DUP3 DUP8 ADD PUSH2 0x232 JUMP JUMPDEST SWAP2 POP POP SWAP3 POP SWAP3 POP SWAP3 JUMP JUMPDEST PUSH2 0x2D0 DUP2 PUSH2 0x345 JUMP JUMPDEST DUP3 MSTORE POP POP JUMP JUMPDEST PUSH2 0x2DF DUP2 PUSH2 0x391 JUMP JUMPDEST DUP3 MSTORE POP POP JUMP JUMPDEST PUSH1 0x0 PUSH1 0x40 DUP3 ADD SWAP1 POP PUSH2 0x2FA PUSH1 0x0 DUP4 ADD DUP6 PUSH2 0x2C7 JUMP JUMPDEST PUSH2 0x307 PUSH1 0x20 DUP4 ADD DUP5 PUSH2 0x2C7 JUMP JUMPDEST SWAP4 SWAP3 POP POP POP JUMP JUMPDEST PUSH1 0x0 PUSH1 0x60 DUP3 ADD SWAP1 POP PUSH2 0x323 PUSH1 0x0 DUP4 ADD DUP7 PUSH2 0x2D6 JUMP JUMPDEST PUSH2 0x330 PUSH1 0x20 DUP4 ADD DUP6 PUSH2 0x2D6 JUMP JUMPDEST PUSH2 0x33D PUSH1 0x40 DUP4 ADD DUP5 PUSH2 0x2D6 JUMP JUMPDEST SWAP5 SWAP4 POP POP POP POP JUMP JUMPDEST PUSH1 0x0 PUSH2 0x350 DUP3 PUSH2 0x371 JUMP JUMPDEST SWAP1 POP SWAP2 SWAP1 POP JUMP JUMPDEST PUSH1 0x0 PUSH14 0xFFFFFFFFFFFFFFFFFFFFFFFFFFFF DUP3 AND SWAP1 POP SWAP2 SWAP1 POP JUMP JUMPDEST PUSH1 0x0 PUSH20 0xFFFFFFFFFFFFFFFFFFFFFFFFFFFFFFFFFFFFFFFF DUP3 AND SWAP1 POP SWAP2 SWAP1 POP JUMP JUMPDEST PUSH1 0x0 DUP2 SWAP1 POP SWAP2 SWAP1 POP JUMP JUMPDEST PUSH1 0x0 PUSH4 0xFFFFFFFF DUP3 AND SWAP1 POP SWAP2 SWAP1 POP JUMP JUMPDEST PUSH1 0x0 DUP1 REVERT JUMPDEST PUSH2 0x3B9 DUP2 PUSH2 0x345 JUMP JUMPDEST DUP2 EQ PUSH2 0x3C4 JUMPI PUSH1 0x0 DUP1 REVERT JUMPDEST POP JUMP JUMPDEST PUSH2 0x3D0 DUP2 PUSH2 0x357 JUMP JUMPDEST DUP2 EQ PUSH2 0x3DB JUMPI PUSH1 0x0 DUP1 REVERT JUMPDEST POP JUMP JUMPDEST PUSH2 0x3E7 DUP2 PUSH2 0x39B JUMP JUMPDEST DUP2 EQ PUSH2 0x3F2 JUMPI PUSH1 0x0 DUP1 REVERT JUMPDEST POP JUMP INVALID LOG2 PUSH5 0x6970667358 0x22 SLT KECCAK256 0xE4 PUSH25 0x54C94F8149410386B9E6B8DF17C783E4CA50B600F93A5A078F EQ 0x4C EXTCODECOPY PC DUP16 PUSH5 0x736F6C6343 STOP ADDMOD SMOD STOP CALLER "
				},
				"gasEstimates": {
					"creation": {
						"codeDepositCost": "213400",
						"executionCost": "73058",
						"totalCost": "286458"
					},
					"external": {
						"getReserveTokens()": "infinite"
					}
				},
				"methodIdentifiers": {
					"getReserveTokens()": "d1f3ae1b"
				}
			},
			"storageLayout": {
				"storage": [
					{
						"astId": 24,
						"contract": "contracts/23_uniswap.sol:UniswapConnect",
						"label": "factory",
						"offset": 0,
						"slot": "0",
						"type": "t_address"
					},
					{
						"astId": 27,
						"contract": "contracts/23_uniswap.sol:UniswapConnect",
						"label": "dai",
						"offset": 0,
						"slot": "1",
						"type": "t_address"
					},
					{
						"astId": 30,
						"contract": "contracts/23_uniswap.sol:UniswapConnect",
						"label": "weth",
						"offset": 0,
						"slot": "2",
						"type": "t_address"
					}
				],
				"types": {
					"t_address": {
						"encoding": "inplace",
						"label": "address",
						"numberOfBytes": "20"
					}
				}
			},
			"userdoc": {
				"kind": "user",
				"methods": {},
				"version": 1
			}
		}
	}
}