{
	"contracts/10_structs.sol": {
		"LearnStruct": {
			"abi": [
				{
					"inputs": [],
					"name": "setMovie",
					"outputs": [],
					"stateMutability": "nonpayable",
					"type": "function"
				}
			],
			"devdoc": {
				"kind": "dev",
				"methods": {},
				"version": 1
			},
			"evm": {
				"assembly": "    /* \"contracts/10_structs.sol\":67:297  contract LearnStruct {... */\n  mstore(0x40, 0x80)\n  callvalue\n  dup1\n  iszero\n  tag_1\n  jumpi\n  0x00\n  dup1\n  revert\ntag_1:\n  pop\n  dataSize(sub_0)\n  dup1\n  dataOffset(sub_0)\n  0x00\n  codecopy\n  0x00\n  return\nstop\n\nsub_0: assembly {\n        /* \"contracts/10_structs.sol\":67:297  contract LearnStruct {... */\n      mstore(0x40, 0x80)\n      callvalue\n      dup1\n      iszero\n      tag_1\n      jumpi\n      0x00\n      dup1\n      revert\n    tag_1:\n      pop\n      jumpi(tag_2, lt(calldatasize, 0x04))\n      shr(0xe0, calldataload(0x00))\n      dup1\n      0xf6bb33b1\n      eq\n      tag_3\n      jumpi\n    tag_2:\n      0x00\n      dup1\n      revert\n        /* \"contracts/10_structs.sol\":202:295  function setMovie() public {... */\n    tag_3:\n      tag_4\n      tag_5\n      jump\t// in\n    tag_4:\n      stop\n    tag_5:\n        /* \"contracts/10_structs.sol\":247:288  Movie(\"Blade Runner\", \"Louie Foronda\", 1) */\n      mload(0x40)\n      dup1\n      0x60\n      add\n      0x40\n      mstore\n      dup1\n      mload(0x40)\n      dup1\n      0x40\n      add\n      0x40\n      mstore\n      dup1\n      0x0c\n      dup2\n      mstore\n      0x20\n      add\n      0x426c6164652052756e6e65720000000000000000000000000000000000000000\n      dup2\n      mstore\n      pop\n      dup2\n      mstore\n      0x20\n      add\n      mload(0x40)\n      dup1\n      0x40\n      add\n      0x40\n      mstore\n      dup1\n      0x0d\n      dup2\n      mstore\n      0x20\n      add\n      0x4c6f75696520466f726f6e646100000000000000000000000000000000000000\n      dup2\n      mstore\n      pop\n      dup2\n      mstore\n      0x20\n      add\n        /* \"contracts/10_structs.sol\":286:287  1 */\n      0x01\n        /* \"contracts/10_structs.sol\":247:288  Movie(\"Blade Runner\", \"Louie Foronda\", 1) */\n      dup2\n      mstore\n      pop\n        /* \"contracts/10_structs.sol\":239:244  movie */\n      0x00\n        /* \"contracts/10_structs.sol\":239:288  movie = Movie(\"Blade Runner\", \"Louie Foronda\", 1) */\n      dup1\n      dup3\n      add\n      mload\n      dup2\n      0x00\n      add\n      swap1\n      dup1\n      mload\n      swap1\n      0x20\n      add\n      swap1\n      tag_7\n      swap3\n      swap2\n      swap1\n      tag_8\n      jump\t// in\n    tag_7:\n      pop\n      0x20\n      dup3\n      add\n      mload\n      dup2\n      0x01\n      add\n      swap1\n      dup1\n      mload\n      swap1\n      0x20\n      add\n      swap1\n      tag_9\n      swap3\n      swap2\n      swap1\n      tag_8\n      jump\t// in\n    tag_9:\n      pop\n      0x40\n      dup3\n      add\n      mload\n      dup2\n      0x02\n      add\n      sstore\n      swap1\n      pop\n      pop\n        /* \"contracts/10_structs.sol\":202:295  function setMovie() public {... */\n      jump\t// out\n    tag_8:\n      dup3\n      dup1\n      sload\n      tag_10\n      swap1\n      tag_11\n      jump\t// in\n    tag_10:\n      swap1\n      0x00\n      mstore\n      keccak256(0x00, 0x20)\n      swap1\n      0x1f\n      add\n      0x20\n      swap1\n      div\n      dup2\n      add\n      swap3\n      dup3\n      tag_13\n      jumpi\n      0x00\n      dup6\n      sstore\n      jump(tag_12)\n    tag_13:\n      dup3\n      0x1f\n      lt\n      tag_14\n      jumpi\n      dup1\n      mload\n      not(0xff)\n      and\n      dup4\n      dup1\n      add\n      or\n      dup6\n      sstore\n      jump(tag_12)\n    tag_14:\n      dup3\n      dup1\n      add\n      0x01\n      add\n      dup6\n      sstore\n      dup3\n      iszero\n      tag_12\n      jumpi\n      swap2\n      dup3\n      add\n    tag_15:\n      dup3\n      dup2\n      gt\n      iszero\n      tag_16\n      jumpi\n      dup3\n      mload\n      dup3\n      sstore\n      swap2\n      0x20\n      add\n      swap2\n      swap1\n      0x01\n      add\n      swap1\n      jump(tag_15)\n    tag_16:\n    tag_12:\n      pop\n      swap1\n      pop\n      tag_17\n      swap2\n      swap1\n      tag_18\n      jump\t// in\n    tag_17:\n      pop\n      swap1\n      jump\t// out\n    tag_18:\n    tag_19:\n      dup1\n      dup3\n      gt\n      iszero\n      tag_20\n      jumpi\n      0x00\n      dup2\n      0x00\n      swap1\n      sstore\n      pop\n      0x01\n      add\n      jump(tag_19)\n    tag_20:\n      pop\n      swap1\n      jump\t// out\n        /* \"#utility.yul\":7:327   */\n    tag_11:\n        /* \"#utility.yul\":51:57   */\n      0x00\n        /* \"#utility.yul\":88:89   */\n      0x02\n        /* \"#utility.yul\":82:86   */\n      dup3\n        /* \"#utility.yul\":78:90   */\n      div\n        /* \"#utility.yul\":68:90   */\n      swap1\n      pop\n        /* \"#utility.yul\":135:136   */\n      0x01\n        /* \"#utility.yul\":129:133   */\n      dup3\n        /* \"#utility.yul\":125:137   */\n      and\n        /* \"#utility.yul\":156:174   */\n      dup1\n        /* \"#utility.yul\":146:227   */\n      tag_23\n      jumpi\n        /* \"#utility.yul\":212:216   */\n      0x7f\n        /* \"#utility.yul\":204:210   */\n      dup3\n        /* \"#utility.yul\":200:217   */\n      and\n        /* \"#utility.yul\":190:217   */\n      swap2\n      pop\n        /* \"#utility.yul\":146:227   */\n    tag_23:\n        /* \"#utility.yul\":274:276   */\n      0x20\n        /* \"#utility.yul\":266:272   */\n      dup3\n        /* \"#utility.yul\":263:277   */\n      lt\n        /* \"#utility.yul\":243:261   */\n      dup2\n        /* \"#utility.yul\":240:278   */\n      eq\n        /* \"#utility.yul\":237:321   */\n      iszero\n      tag_24\n      jumpi\n        /* \"#utility.yul\":293:311   */\n      tag_25\n      tag_26\n      jump\t// in\n    tag_25:\n        /* \"#utility.yul\":237:321   */\n    tag_24:\n        /* \"#utility.yul\":58:327   */\n      pop\n        /* \"#utility.yul\":7:327   */\n      swap2\n      swap1\n      pop\n      jump\t// out\n        /* \"#utility.yul\":333:513   */\n    tag_26:\n        /* \"#utility.yul\":381:458   */\n      0x4e487b7100000000000000000000000000000000000000000000000000000000\n        /* \"#utility.yul\":378:379   */\n      0x00\n        /* \"#utility.yul\":371:459   */\n      mstore\n        /* \"#utility.yul\":478:482   */\n      0x22\n        /* \"#utility.yul\":475:476   */\n      0x04\n        /* \"#utility.yul\":468:483   */\n      mstore\n        /* \"#utility.yul\":502:506   */\n      0x24\n        /* \"#utility.yul\":499:500   */\n      0x00\n        /* \"#utility.yul\":492:507   */\n      revert\n\n    auxdata: 0xa264697066735822122066a05cdea6182aff028f472cbe4043f5c473bdc11ca82eaed7b0d02781ea136164736f6c63430008070033\n}\n",
				"bytecode": {
					"linkReferences": {},
					"object": "608060405234801561001057600080fd5b50610244806100206000396000f3fe608060405234801561001057600080fd5b506004361061002b5760003560e01c8063f6bb33b114610030575b600080fd5b61003861003a565b005b60405180606001604052806040518060400160405280600c81526020017f426c6164652052756e6e6572000000000000000000000000000000000000000081525081526020016040518060400160405280600d81526020017f4c6f75696520466f726f6e646100000000000000000000000000000000000000815250815260200160018152506000808201518160000190805190602001906100dd92919061010a565b5060208201518160010190805190602001906100fa92919061010a565b5060408201518160020155905050565b828054610116906101ad565b90600052602060002090601f016020900481019282610138576000855561017f565b82601f1061015157805160ff191683800117855561017f565b8280016001018555821561017f579182015b8281111561017e578251825591602001919060010190610163565b5b50905061018c9190610190565b5090565b5b808211156101a9576000816000905550600101610191565b5090565b600060028204905060018216806101c557607f821691505b602082108114156101d9576101d86101df565b5b50919050565b7f4e487b7100000000000000000000000000000000000000000000000000000000600052602260045260246000fdfea264697066735822122066a05cdea6182aff028f472cbe4043f5c473bdc11ca82eaed7b0d02781ea136164736f6c63430008070033",
					"opcodes": "PUSH1 0x80 PUSH1 0x40 MSTORE CALLVALUE DUP1 ISZERO PUSH2 0x10 JUMPI PUSH1 0x0 DUP1 REVERT JUMPDEST POP PUSH2 0x244 DUP1 PUSH2 0x20 PUSH1 0x0 CODECOPY PUSH1 0x0 RETURN INVALID PUSH1 0x80 PUSH1 0x40 MSTORE CALLVALUE DUP1 ISZERO PUSH2 0x10 JUMPI PUSH1 0x0 DUP1 REVERT JUMPDEST POP PUSH1 0x4 CALLDATASIZE LT PUSH2 0x2B JUMPI PUSH1 0x0 CALLDATALOAD PUSH1 0xE0 SHR DUP1 PUSH4 0xF6BB33B1 EQ PUSH2 0x30 JUMPI JUMPDEST PUSH1 0x0 DUP1 REVERT JUMPDEST PUSH2 0x38 PUSH2 0x3A JUMP JUMPDEST STOP JUMPDEST PUSH1 0x40 MLOAD DUP1 PUSH1 0x60 ADD PUSH1 0x40 MSTORE DUP1 PUSH1 0x40 MLOAD DUP1 PUSH1 0x40 ADD PUSH1 0x40 MSTORE DUP1 PUSH1 0xC DUP2 MSTORE PUSH1 0x20 ADD PUSH32 0x426C6164652052756E6E65720000000000000000000000000000000000000000 DUP2 MSTORE POP DUP2 MSTORE PUSH1 0x20 ADD PUSH1 0x40 MLOAD DUP1 PUSH1 0x40 ADD PUSH1 0x40 MSTORE DUP1 PUSH1 0xD DUP2 MSTORE PUSH1 0x20 ADD PUSH32 0x4C6F75696520466F726F6E646100000000000000000000000000000000000000 DUP2 MSTORE POP DUP2 MSTORE PUSH1 0x20 ADD PUSH1 0x1 DUP2 MSTORE POP PUSH1 0x0 DUP1 DUP3 ADD MLOAD DUP2 PUSH1 0x0 ADD SWAP1 DUP1 MLOAD SWAP1 PUSH1 0x20 ADD SWAP1 PUSH2 0xDD SWAP3 SWAP2 SWAP1 PUSH2 0x10A JUMP JUMPDEST POP PUSH1 0x20 DUP3 ADD MLOAD DUP2 PUSH1 0x1 ADD SWAP1 DUP1 MLOAD SWAP1 PUSH1 0x20 ADD SWAP1 PUSH2 0xFA SWAP3 SWAP2 SWAP1 PUSH2 0x10A JUMP JUMPDEST POP PUSH1 0x40 DUP3 ADD MLOAD DUP2 PUSH1 0x2 ADD SSTORE SWAP1 POP POP JUMP JUMPDEST DUP3 DUP1 SLOAD PUSH2 0x116 SWAP1 PUSH2 0x1AD JUMP JUMPDEST SWAP1 PUSH1 0x0 MSTORE PUSH1 0x20 PUSH1 0x0 KECCAK256 SWAP1 PUSH1 0x1F ADD PUSH1 0x20 SWAP1 DIV DUP2 ADD SWAP3 DUP3 PUSH2 0x138 JUMPI PUSH1 0x0 DUP6 SSTORE PUSH2 0x17F JUMP JUMPDEST DUP3 PUSH1 0x1F LT PUSH2 0x151 JUMPI DUP1 MLOAD PUSH1 0xFF NOT AND DUP4 DUP1 ADD OR DUP6 SSTORE PUSH2 0x17F JUMP JUMPDEST DUP3 DUP1 ADD PUSH1 0x1 ADD DUP6 SSTORE DUP3 ISZERO PUSH2 0x17F JUMPI SWAP2 DUP3 ADD JUMPDEST DUP3 DUP2 GT ISZERO PUSH2 0x17E JUMPI DUP3 MLOAD DUP3 SSTORE SWAP2 PUSH1 0x20 ADD SWAP2 SWAP1 PUSH1 0x1 ADD SWAP1 PUSH2 0x163 JUMP JUMPDEST JUMPDEST POP SWAP1 POP PUSH2 0x18C SWAP2 SWAP1 PUSH2 0x190 JUMP JUMPDEST POP SWAP1 JUMP JUMPDEST JUMPDEST DUP1 DUP3 GT ISZERO PUSH2 0x1A9 JUMPI PUSH1 0x0 DUP2 PUSH1 0x0 SWAP1 SSTORE POP PUSH1 0x1 ADD PUSH2 0x191 JUMP JUMPDEST POP SWAP1 JUMP JUMPDEST PUSH1 0x0 PUSH1 0x2 DUP3 DIV SWAP1 POP PUSH1 0x1 DUP3 AND DUP1 PUSH2 0x1C5 JUMPI PUSH1 0x7F DUP3 AND SWAP2 POP JUMPDEST PUSH1 0x20 DUP3 LT DUP2 EQ ISZERO PUSH2 0x1D9 JUMPI PUSH2 0x1D8 PUSH2 0x1DF JUMP JUMPDEST JUMPDEST POP SWAP2 SWAP1 POP JUMP JUMPDEST PUSH32 0x4E487B7100000000000000000000000000000000000000000000000000000000 PUSH1 0x0 MSTORE PUSH1 0x22 PUSH1 0x4 MSTORE PUSH1 0x24 PUSH1 0x0 REVERT INVALID LOG2 PUSH5 0x6970667358 0x22 SLT KECCAK256 PUSH7 0xA05CDEA6182AFF MUL DUP16 SELFBALANCE 0x2C 0xBE BLOCKHASH NUMBER CREATE2 0xC4 PUSH20 0xBDC11CA82EAED7B0D02781EA136164736F6C6343 STOP ADDMOD SMOD STOP CALLER "
				},
				"gasEstimates": {
					"creation": {
						"codeDepositCost": "116000",
						"executionCost": "165",
						"totalCost": "116165"
					},
					"external": {
						"setMovie()": "infinite"
					}
				},
				"methodIdentifiers": {
					"setMovie()": "f6bb33b1"
				}
			},
			"storageLayout": {
				"storage": [
					{
						"astId": 11,
						"contract": "contracts/10_structs.sol:LearnStruct",
						"label": "movie",
						"offset": 0,
						"slot": "0",
						"type": "t_struct(Movie)8_storage"
					}
				],
				"types": {
					"t_string_storage": {
						"encoding": "bytes",
						"label": "string",
						"numberOfBytes": "32"
					},
					"t_struct(Movie)8_storage": {
						"encoding": "inplace",
						"label": "struct LearnStruct.Movie",
						"members": [
							{
								"astId": 3,
								"contract": "contracts/10_structs.sol:LearnStruct",
								"label": "title",
								"offset": 0,
								"slot": "0",
								"type": "t_string_storage"
							},
							{
								"astId": 5,
								"contract": "contracts/10_structs.sol:LearnStruct",
								"label": "director",
								"offset": 0,
								"slot": "1",
								"type": "t_string_storage"
							},
							{
								"astId": 7,
								"contract": "contracts/10_structs.sol:LearnStruct",
								"label": "id",
								"offset": 0,
								"slot": "2",
								"type": "t_uint256"
							}
						],
						"numberOfBytes": "96"
					},
					"t_uint256": {
						"encoding": "inplace",
						"label": "uint256",
						"numberOfBytes": "32"
					}
				}
			},
			"userdoc": {
				"kind": "user",
				"methods": {},
				"version": 1
			}
		}
	}
}