{
	"contracts/11_mapping_assignment.sol": {
		"Allowance": {
			"abi": [
				{
					"inputs": [
						{
							"internalType": "address",
							"name": "_addrOwner",
							"type": "address"
						},
						{
							"internalType": "address",
							"name": "_addrSpender",
							"type": "address"
						}
					],
					"name": "remove",
					"outputs": [],
					"stateMutability": "nonpayable",
					"type": "function"
				}
			],
			"devdoc": {
				"kind": "dev",
				"methods": {},
				"version": 1
			},
			"evm": {
				"assembly": "    /* \"contracts/11_mapping_assignment.sol\":57:211  contract Allowance {... */\n  mstore(0x40, 0x80)\n  callvalue\n  dup1\n  iszero\n  tag_1\n  jumpi\n  0x00\n  dup1\n  revert\ntag_1:\n  pop\n  dataSize(sub_0)\n  dup1\n  dataOffset(sub_0)\n  0x00\n  codecopy\n  0x00\n  return\nstop\n\nsub_0: assembly {\n        /* \"contracts/11_mapping_assignment.sol\":57:211  contract Allowance {... */\n      mstore(0x40, 0x80)\n      callvalue\n      dup1\n      iszero\n      tag_1\n      jumpi\n      0x00\n      dup1\n      revert\n    tag_1:\n      pop\n      jumpi(tag_2, lt(calldatasize, 0x04))\n      shr(0xe0, calldataload(0x00))\n      dup1\n      0x7f7c1491\n      eq\n      tag_3\n      jumpi\n    tag_2:\n      0x00\n      dup1\n      revert\n        /* \"contracts/11_mapping_assignment.sol\":130:204  function remove (address _addrOwner, address _addrSpender) public {... */\n    tag_3:\n      tag_4\n      0x04\n      dup1\n      calldatasize\n      sub\n      dup2\n      add\n      swap1\n      tag_5\n      swap2\n      swap1\n      tag_6\n      jump\t// in\n    tag_5:\n      tag_7\n      jump\t// in\n    tag_4:\n      stop\n    tag_7:\n      pop\n      pop\n      jump\t// out\n        /* \"#utility.yul\":7:146   */\n    tag_10:\n        /* \"#utility.yul\":53:58   */\n      0x00\n        /* \"#utility.yul\":91:97   */\n      dup2\n        /* \"#utility.yul\":78:98   */\n      calldataload\n        /* \"#utility.yul\":69:98   */\n      swap1\n      pop\n        /* \"#utility.yul\":107:140   */\n      tag_12\n        /* \"#utility.yul\":134:139   */\n      dup2\n        /* \"#utility.yul\":107:140   */\n      tag_13\n      jump\t// in\n    tag_12:\n        /* \"#utility.yul\":7:146   */\n      swap3\n      swap2\n      pop\n      pop\n      jump\t// out\n        /* \"#utility.yul\":152:626   */\n    tag_6:\n        /* \"#utility.yul\":220:226   */\n      0x00\n        /* \"#utility.yul\":228:234   */\n      dup1\n        /* \"#utility.yul\":277:279   */\n      0x40\n        /* \"#utility.yul\":265:274   */\n      dup4\n        /* \"#utility.yul\":256:263   */\n      dup6\n        /* \"#utility.yul\":252:275   */\n      sub\n        /* \"#utility.yul\":248:280   */\n      slt\n        /* \"#utility.yul\":245:364   */\n      iszero\n      tag_15\n      jumpi\n        /* \"#utility.yul\":283:362   */\n      tag_16\n      tag_17\n      jump\t// in\n    tag_16:\n        /* \"#utility.yul\":245:364   */\n    tag_15:\n        /* \"#utility.yul\":403:404   */\n      0x00\n        /* \"#utility.yul\":428:481   */\n      tag_18\n        /* \"#utility.yul\":473:480   */\n      dup6\n        /* \"#utility.yul\":464:470   */\n      dup3\n        /* \"#utility.yul\":453:462   */\n      dup7\n        /* \"#utility.yul\":449:471   */\n      add\n        /* \"#utility.yul\":428:481   */\n      tag_10\n      jump\t// in\n    tag_18:\n        /* \"#utility.yul\":418:481   */\n      swap3\n      pop\n        /* \"#utility.yul\":374:491   */\n      pop\n        /* \"#utility.yul\":530:532   */\n      0x20\n        /* \"#utility.yul\":556:609   */\n      tag_19\n        /* \"#utility.yul\":601:608   */\n      dup6\n        /* \"#utility.yul\":592:598   */\n      dup3\n        /* \"#utility.yul\":581:590   */\n      dup7\n        /* \"#utility.yul\":577:599   */\n      add\n        /* \"#utility.yul\":556:609   */\n      tag_10\n      jump\t// in\n    tag_19:\n        /* \"#utility.yul\":546:609   */\n      swap2\n      pop\n        /* \"#utility.yul\":501:619   */\n      pop\n        /* \"#utility.yul\":152:626   */\n      swap3\n      pop\n      swap3\n      swap1\n      pop\n      jump\t// out\n        /* \"#utility.yul\":713:809   */\n    tag_22:\n        /* \"#utility.yul\":750:757   */\n      0x00\n        /* \"#utility.yul\":779:803   */\n      tag_24\n        /* \"#utility.yul\":797:802   */\n      dup3\n        /* \"#utility.yul\":779:803   */\n      tag_25\n      jump\t// in\n    tag_24:\n        /* \"#utility.yul\":768:803   */\n      swap1\n      pop\n        /* \"#utility.yul\":713:809   */\n      swap2\n      swap1\n      pop\n      jump\t// out\n        /* \"#utility.yul\":815:941   */\n    tag_25:\n        /* \"#utility.yul\":852:859   */\n      0x00\n        /* \"#utility.yul\":892:934   */\n      0xffffffffffffffffffffffffffffffffffffffff\n        /* \"#utility.yul\":885:890   */\n      dup3\n        /* \"#utility.yul\":881:935   */\n      and\n        /* \"#utility.yul\":870:935   */\n      swap1\n      pop\n        /* \"#utility.yul\":815:941   */\n      swap2\n      swap1\n      pop\n      jump\t// out\n        /* \"#utility.yul\":1070:1187   */\n    tag_17:\n        /* \"#utility.yul\":1179:1180   */\n      0x00\n        /* \"#utility.yul\":1176:1177   */\n      dup1\n        /* \"#utility.yul\":1169:1181   */\n      revert\n        /* \"#utility.yul\":1193:1315   */\n    tag_13:\n        /* \"#utility.yul\":1266:1290   */\n      tag_31\n        /* \"#utility.yul\":1284:1289   */\n      dup2\n        /* \"#utility.yul\":1266:1290   */\n      tag_22\n      jump\t// in\n    tag_31:\n        /* \"#utility.yul\":1259:1264   */\n      dup2\n        /* \"#utility.yul\":1256:1291   */\n      eq\n        /* \"#utility.yul\":1246:1309   */\n      tag_32\n      jumpi\n        /* \"#utility.yul\":1305:1306   */\n      0x00\n        /* \"#utility.yul\":1302:1303   */\n      dup1\n        /* \"#utility.yul\":1295:1307   */\n      revert\n        /* \"#utility.yul\":1246:1309   */\n    tag_32:\n        /* \"#utility.yul\":1193:1315   */\n      pop\n      jump\t// out\n\n    auxdata: 0xa26469706673582212206f3d8d509898a2466b961a09698ec9466f275536e4a262cb2303ad3f57ba1be964736f6c63430008070033\n}\n",
				"bytecode": {
					"linkReferences": {},
					"object": "608060405234801561001057600080fd5b50610114806100206000396000f3fe6080604052348015600f57600080fd5b506004361060285760003560e01c80637f7c149114602d575b600080fd5b60436004803603810190603f9190605c565b6045565b005b5050565b60008135905060568160ca565b92915050565b60008060408385031215607057606f60c5565b5b6000607c858286016049565b9250506020608b858286016049565b9150509250929050565b6000609e8260a5565b9050919050565b600073ffffffffffffffffffffffffffffffffffffffff82169050919050565b600080fd5b60d1816095565b811460db57600080fd5b5056fea26469706673582212206f3d8d509898a2466b961a09698ec9466f275536e4a262cb2303ad3f57ba1be964736f6c63430008070033",
					"opcodes": "PUSH1 0x80 PUSH1 0x40 MSTORE CALLVALUE DUP1 ISZERO PUSH2 0x10 JUMPI PUSH1 0x0 DUP1 REVERT JUMPDEST POP PUSH2 0x114 DUP1 PUSH2 0x20 PUSH1 0x0 CODECOPY PUSH1 0x0 RETURN INVALID PUSH1 0x80 PUSH1 0x40 MSTORE CALLVALUE DUP1 ISZERO PUSH1 0xF JUMPI PUSH1 0x0 DUP1 REVERT JUMPDEST POP PUSH1 0x4 CALLDATASIZE LT PUSH1 0x28 JUMPI PUSH1 0x0 CALLDATALOAD PUSH1 0xE0 SHR DUP1 PUSH4 0x7F7C1491 EQ PUSH1 0x2D JUMPI JUMPDEST PUSH1 0x0 DUP1 REVERT JUMPDEST PUSH1 0x43 PUSH1 0x4 DUP1 CALLDATASIZE SUB DUP2 ADD SWAP1 PUSH1 0x3F SWAP2 SWAP1 PUSH1 0x5C JUMP JUMPDEST PUSH1 0x45 JUMP JUMPDEST STOP JUMPDEST POP POP JUMP JUMPDEST PUSH1 0x0 DUP2 CALLDATALOAD SWAP1 POP PUSH1 0x56 DUP2 PUSH1 0xCA JUMP JUMPDEST SWAP3 SWAP2 POP POP JUMP JUMPDEST PUSH1 0x0 DUP1 PUSH1 0x40 DUP4 DUP6 SUB SLT ISZERO PUSH1 0x70 JUMPI PUSH1 0x6F PUSH1 0xC5 JUMP JUMPDEST JUMPDEST PUSH1 0x0 PUSH1 0x7C DUP6 DUP3 DUP7 ADD PUSH1 0x49 JUMP JUMPDEST SWAP3 POP POP PUSH1 0x20 PUSH1 0x8B DUP6 DUP3 DUP7 ADD PUSH1 0x49 JUMP JUMPDEST SWAP2 POP POP SWAP3 POP SWAP3 SWAP1 POP JUMP JUMPDEST PUSH1 0x0 PUSH1 0x9E DUP3 PUSH1 0xA5 JUMP JUMPDEST SWAP1 POP SWAP2 SWAP1 POP JUMP JUMPDEST PUSH1 0x0 PUSH20 0xFFFFFFFFFFFFFFFFFFFFFFFFFFFFFFFFFFFFFFFF DUP3 AND SWAP1 POP SWAP2 SWAP1 POP JUMP JUMPDEST PUSH1 0x0 DUP1 REVERT JUMPDEST PUSH1 0xD1 DUP2 PUSH1 0x95 JUMP JUMPDEST DUP2 EQ PUSH1 0xDB JUMPI PUSH1 0x0 DUP1 REVERT JUMPDEST POP JUMP INVALID LOG2 PUSH5 0x6970667358 0x22 SLT KECCAK256 PUSH16 0x3D8D509898A2466B961A09698EC9466F 0x27 SSTORE CALLDATASIZE 0xE4 LOG2 PUSH3 0xCB2303 0xAD EXTCODEHASH JUMPI 0xBA SHL 0xE9 PUSH5 0x736F6C6343 STOP ADDMOD SMOD STOP CALLER "
				},
				"gasEstimates": {
					"creation": {
						"codeDepositCost": "55200",
						"executionCost": "105",
						"totalCost": "55305"
					},
					"external": {
						"remove(address,address)": "infinite"
					}
				},
				"methodIdentifiers": {
					"remove(address,address)": "7f7c1491"
				}
			},
			"storageLayout": {
				"storage": [],
				"types": null
			},
			"userdoc": {
				"kind": "user",
				"methods": {},
				"version": 1
			}
		}
	}
}