{
	"contracts/9_enums.sol": {
		"LearnEnum": {
			"abi": [
				{
					"inputs": [],
					"name": "getSize",
					"outputs": [
						{
							"internalType": "enum LearnEnum.Sizes",
							"name": "",
							"type": "uint8"
						}
					],
					"stateMutability": "view",
					"type": "function"
				},
				{
					"inputs": [],
					"name": "setSize",
					"outputs": [],
					"stateMutability": "nonpayable",
					"type": "function"
				}
			],
			"devdoc": {
				"kind": "dev",
				"methods": {},
				"version": 1
			},
			"evm": {
				"assembly": "    /* \"contracts/9_enums.sol\":67:292  contract LearnEnum {... */\n  mstore(0x40, 0x80)\n  callvalue\n  dup1\n  iszero\n  tag_1\n  jumpi\n  0x00\n  dup1\n  revert\ntag_1:\n  pop\n  dataSize(sub_0)\n  dup1\n  dataOffset(sub_0)\n  0x00\n  codecopy\n  0x00\n  return\nstop\n\nsub_0: assembly {\n        /* \"contracts/9_enums.sol\":67:292  contract LearnEnum {... */\n      mstore(0x40, 0x80)\n      callvalue\n      dup1\n      iszero\n      tag_1\n      jumpi\n      0x00\n      dup1\n      revert\n    tag_1:\n      pop\n      jumpi(tag_2, lt(calldatasize, 0x04))\n      shr(0xe0, calldataload(0x00))\n      dup1\n      0xde8fa431\n      eq\n      tag_3\n      jumpi\n      dup1\n      0xee90c99f\n      eq\n      tag_4\n      jumpi\n    tag_2:\n      0x00\n      dup1\n      revert\n        /* \"contracts/9_enums.sol\":215:290  function getSize() public view returns (Sizes) {... */\n    tag_3:\n      tag_5\n      tag_6\n      jump\t// in\n    tag_5:\n      mload(0x40)\n      tag_7\n      swap2\n      swap1\n      tag_8\n      jump\t// in\n    tag_7:\n      mload(0x40)\n      dup1\n      swap2\n      sub\n      swap1\n      return\n        /* \"contracts/9_enums.sol\":148:209  function setSize() public {... */\n    tag_4:\n      tag_9\n      tag_10\n      jump\t// in\n    tag_9:\n      stop\n        /* \"contracts/9_enums.sol\":215:290  function getSize() public view returns (Sizes) {... */\n    tag_6:\n        /* \"contracts/9_enums.sol\":255:260  Sizes */\n      0x00\n        /* \"contracts/9_enums.sol\":279:283  size */\n      dup1\n      0x00\n      swap1\n      sload\n      swap1\n      0x0100\n      exp\n      swap1\n      div\n      0xff\n      and\n        /* \"contracts/9_enums.sol\":272:283  return size */\n      swap1\n      pop\n        /* \"contracts/9_enums.sol\":215:290  function getSize() public view returns (Sizes) {... */\n      swap1\n      jump\t// out\n        /* \"contracts/9_enums.sol\":148:209  function setSize() public {... */\n    tag_10:\n        /* \"contracts/9_enums.sol\":191:202  Sizes.SMALL */\n      0x00\n        /* \"contracts/9_enums.sol\":184:188  size */\n      dup1\n      0x00\n        /* \"contracts/9_enums.sol\":184:202  size = Sizes.SMALL */\n      0x0100\n      exp\n      dup2\n      sload\n      dup2\n      0xff\n      mul\n      not\n      and\n      swap1\n      dup4\n      0x02\n      dup2\n      gt\n      iszero\n      tag_13\n      jumpi\n      tag_14\n      tag_15\n      jump\t// in\n    tag_14:\n    tag_13:\n      mul\n      or\n      swap1\n      sstore\n      pop\n        /* \"contracts/9_enums.sol\":148:209  function setSize() public {... */\n      jump\t// out\n        /* \"#utility.yul\":7:148   */\n    tag_17:\n        /* \"#utility.yul\":99:141   */\n      tag_19\n        /* \"#utility.yul\":135:140   */\n      dup2\n        /* \"#utility.yul\":99:141   */\n      tag_20\n      jump\t// in\n    tag_19:\n        /* \"#utility.yul\":94:97   */\n      dup3\n        /* \"#utility.yul\":87:142   */\n      mstore\n        /* \"#utility.yul\":7:148   */\n      pop\n      pop\n      jump\t// out\n        /* \"#utility.yul\":154:386   */\n    tag_8:\n        /* \"#utility.yul\":252:256   */\n      0x00\n        /* \"#utility.yul\":290:292   */\n      0x20\n        /* \"#utility.yul\":279:288   */\n      dup3\n        /* \"#utility.yul\":275:293   */\n      add\n        /* \"#utility.yul\":267:293   */\n      swap1\n      pop\n        /* \"#utility.yul\":303:379   */\n      tag_22\n        /* \"#utility.yul\":376:377   */\n      0x00\n        /* \"#utility.yul\":365:374   */\n      dup4\n        /* \"#utility.yul\":361:378   */\n      add\n        /* \"#utility.yul\":352:358   */\n      dup5\n        /* \"#utility.yul\":303:379   */\n      tag_17\n      jump\t// in\n    tag_22:\n        /* \"#utility.yul\":154:386   */\n      swap3\n      swap2\n      pop\n      pop\n      jump\t// out\n        /* \"#utility.yul\":392:517   */\n    tag_23:\n        /* \"#utility.yul\":436:443   */\n      0x00\n        /* \"#utility.yul\":465:470   */\n      dup2\n        /* \"#utility.yul\":454:470   */\n      swap1\n      pop\n        /* \"#utility.yul\":471:511   */\n      tag_25\n        /* \"#utility.yul\":505:510   */\n      dup3\n        /* \"#utility.yul\":471:511   */\n      tag_26\n      jump\t// in\n    tag_25:\n        /* \"#utility.yul\":392:517   */\n      swap2\n      swap1\n      pop\n      jump\t// out\n        /* \"#utility.yul\":523:648   */\n    tag_20:\n        /* \"#utility.yul\":578:587   */\n      0x00\n        /* \"#utility.yul\":611:642   */\n      tag_28\n        /* \"#utility.yul\":636:641   */\n      dup3\n        /* \"#utility.yul\":611:642   */\n      tag_23\n      jump\t// in\n    tag_28:\n        /* \"#utility.yul\":598:642   */\n      swap1\n      pop\n        /* \"#utility.yul\":523:648   */\n      swap2\n      swap1\n      pop\n      jump\t// out\n        /* \"#utility.yul\":654:834   */\n    tag_15:\n        /* \"#utility.yul\":702:779   */\n      0x4e487b7100000000000000000000000000000000000000000000000000000000\n        /* \"#utility.yul\":699:700   */\n      0x00\n        /* \"#utility.yul\":692:780   */\n      mstore\n        /* \"#utility.yul\":799:803   */\n      0x21\n        /* \"#utility.yul\":796:797   */\n      0x04\n        /* \"#utility.yul\":789:804   */\n      mstore\n        /* \"#utility.yul\":823:827   */\n      0x24\n        /* \"#utility.yul\":820:821   */\n      0x00\n        /* \"#utility.yul\":813:828   */\n      revert\n        /* \"#utility.yul\":840:952   */\n    tag_26:\n        /* \"#utility.yul\":920:921   */\n      0x03\n        /* \"#utility.yul\":913:918   */\n      dup2\n        /* \"#utility.yul\":910:922   */\n      lt\n        /* \"#utility.yul\":900:946   */\n      tag_31\n      jumpi\n        /* \"#utility.yul\":926:944   */\n      tag_32\n      tag_15\n      jump\t// in\n    tag_32:\n        /* \"#utility.yul\":900:946   */\n    tag_31:\n        /* \"#utility.yul\":840:952   */\n      pop\n      jump\t// out\n\n    auxdata: 0xa2646970667358221220d40fd4bb82caa70172c52b841e8f932a4bea03129376a1d00954b1384af7c3c664736f6c63430008070033\n}\n",
				"bytecode": {
					"linkReferences": {},
					"object": "608060405234801561001057600080fd5b5061016d806100206000396000f3fe608060405234801561001057600080fd5b50600436106100365760003560e01c8063de8fa4311461003b578063ee90c99f14610059575b600080fd5b610043610063565b60405161005091906100b4565b60405180910390f35b610061610079565b005b60008060009054906101000a900460ff16905090565b60008060006101000a81548160ff0219169083600281111561009e5761009d6100f4565b5b0217905550565b6100ae816100e2565b82525050565b60006020820190506100c960008301846100a5565b92915050565b60008190506100dd82610123565b919050565b60006100ed826100cf565b9050919050565b7f4e487b7100000000000000000000000000000000000000000000000000000000600052602160045260246000fd5b60038110610134576101336100f4565b5b5056fea2646970667358221220d40fd4bb82caa70172c52b841e8f932a4bea03129376a1d00954b1384af7c3c664736f6c63430008070033",
					"opcodes": "PUSH1 0x80 PUSH1 0x40 MSTORE CALLVALUE DUP1 ISZERO PUSH2 0x10 JUMPI PUSH1 0x0 DUP1 REVERT JUMPDEST POP PUSH2 0x16D DUP1 PUSH2 0x20 PUSH1 0x0 CODECOPY PUSH1 0x0 RETURN INVALID PUSH1 0x80 PUSH1 0x40 MSTORE CALLVALUE DUP1 ISZERO PUSH2 0x10 JUMPI PUSH1 0x0 DUP1 REVERT JUMPDEST POP PUSH1 0x4 CALLDATASIZE LT PUSH2 0x36 JUMPI PUSH1 0x0 CALLDATALOAD PUSH1 0xE0 SHR DUP1 PUSH4 0xDE8FA431 EQ PUSH2 0x3B JUMPI DUP1 PUSH4 0xEE90C99F EQ PUSH2 0x59 JUMPI JUMPDEST PUSH1 0x0 DUP1 REVERT JUMPDEST PUSH2 0x43 PUSH2 0x63 JUMP JUMPDEST PUSH1 0x40 MLOAD PUSH2 0x50 SWAP2 SWAP1 PUSH2 0xB4 JUMP JUMPDEST PUSH1 0x40 MLOAD DUP1 SWAP2 SUB SWAP1 RETURN JUMPDEST PUSH2 0x61 PUSH2 0x79 JUMP JUMPDEST STOP JUMPDEST PUSH1 0x0 DUP1 PUSH1 0x0 SWAP1 SLOAD SWAP1 PUSH2 0x100 EXP SWAP1 DIV PUSH1 0xFF AND SWAP1 POP SWAP1 JUMP JUMPDEST PUSH1 0x0 DUP1 PUSH1 0x0 PUSH2 0x100 EXP DUP2 SLOAD DUP2 PUSH1 0xFF MUL NOT AND SWAP1 DUP4 PUSH1 0x2 DUP2 GT ISZERO PUSH2 0x9E JUMPI PUSH2 0x9D PUSH2 0xF4 JUMP JUMPDEST JUMPDEST MUL OR SWAP1 SSTORE POP JUMP JUMPDEST PUSH2 0xAE DUP2 PUSH2 0xE2 JUMP JUMPDEST DUP3 MSTORE POP POP JUMP JUMPDEST PUSH1 0x0 PUSH1 0x20 DUP3 ADD SWAP1 POP PUSH2 0xC9 PUSH1 0x0 DUP4 ADD DUP5 PUSH2 0xA5 JUMP JUMPDEST SWAP3 SWAP2 POP POP JUMP JUMPDEST PUSH1 0x0 DUP2 SWAP1 POP PUSH2 0xDD DUP3 PUSH2 0x123 JUMP JUMPDEST SWAP2 SWAP1 POP JUMP JUMPDEST PUSH1 0x0 PUSH2 0xED DUP3 PUSH2 0xCF JUMP JUMPDEST SWAP1 POP SWAP2 SWAP1 POP JUMP JUMPDEST PUSH32 0x4E487B7100000000000000000000000000000000000000000000000000000000 PUSH1 0x0 MSTORE PUSH1 0x21 PUSH1 0x4 MSTORE PUSH1 0x24 PUSH1 0x0 REVERT JUMPDEST PUSH1 0x3 DUP2 LT PUSH2 0x134 JUMPI PUSH2 0x133 PUSH2 0xF4 JUMP JUMPDEST JUMPDEST POP JUMP INVALID LOG2 PUSH5 0x6970667358 0x22 SLT KECCAK256 0xD4 0xF 0xD4 0xBB DUP3 0xCA 0xA7 ADD PUSH19 0xC52B841E8F932A4BEA03129376A1D00954B138 0x4A 0xF7 0xC3 0xC6 PUSH5 0x736F6C6343 STOP ADDMOD SMOD STOP CALLER "
				},
				"gasEstimates": {
					"creation": {
						"codeDepositCost": "73000",
						"executionCost": "123",
						"totalCost": "73123"
					},
					"external": {
						"getSize()": "2546",
						"setSize()": "24431"
					}
				},
				"methodIdentifiers": {
					"getSize()": "de8fa431",
					"setSize()": "ee90c99f"
				}
			},
			"storageLayout": {
				"storage": [
					{
						"astId": 8,
						"contract": "contracts/9_enums.sol:LearnEnum",
						"label": "size",
						"offset": 0,
						"slot": "0",
						"type": "t_enum(Sizes)5"
					}
				],
				"types": {
					"t_enum(Sizes)5": {
						"encoding": "inplace",
						"label": "enum LearnEnum.Sizes",
						"numberOfBytes": "1"
					}
				}
			},
			"userdoc": {
				"kind": "user",
				"methods": {},
				"version": 1
			}
		}
	}
}