{
	"data": {
		"bytecode": {
			"linkReferences": {},
			"object": "6080604052602d600055600460015534801561001a57600080fd5b506104538061002a6000396000f3fe608060405234801561001057600080fd5b50600436106100575760003560e01c8063166e7bdd1461005c5780638292888e1461007a578063b93c0937146100aa578063c5a79f70146100da578063e581bdca1461010a575b600080fd5b610064610128565b604051610071919061027a565b60405180910390f35b610094600480360381019061008f9190610214565b610149565b6040516100a1919061027a565b60405180910390f35b6100c460048036038101906100bf91906101d4565b610165565b6040516100d1919061025f565b60405180910390f35b6100f460048036038101906100ef9190610214565b61016d565b604051610101919061027a565b60405180910390f35b610112610189565b60405161011f919061027a565b60405180910390f35b6000806003905060008160005461013f9190610295565b9050809250505090565b6000806001548361015a91906102eb565b905080915050919050565b600092915050565b6000806001548361017e919061031c565b905080915050919050565b600080600590506000816000546101a09190610295565b9050809250505090565b6000813590506101b9816103ef565b92915050565b6000813590506101ce81610406565b92915050565b600080604083850312156101eb576101ea6103ea565b5b60006101f9858286016101aa565b925050602061020a858286016101aa565b9150509250929050565b60006020828403121561022a576102296103ea565b5b6000610238848285016101bf565b91505092915050565b61024a81610376565b82525050565b61025981610382565b82525050565b60006020820190506102746000830184610241565b92915050565b600060208201905061028f6000830184610250565b92915050565b60006102a082610382565b91506102ab83610382565b9250827fffffffffffffffffffffffffffffffffffffffffffffffffffffffffffffffff038211156102e0576102df61038c565b5b828201905092915050565b60006102f682610382565b915061030183610382565b925082610311576103106103bb565b5b828204905092915050565b600061032782610382565b915061033283610382565b9250817fffffffffffffffffffffffffffffffffffffffffffffffffffffffffffffffff048311821515161561036b5761036a61038c565b5b828202905092915050565b60008115159050919050565b6000819050919050565b7f4e487b7100000000000000000000000000000000000000000000000000000000600052601160045260246000fd5b7f4e487b7100000000000000000000000000000000000000000000000000000000600052601260045260246000fd5b600080fd5b6103f881610376565b811461040357600080fd5b50565b61040f81610382565b811461041a57600080fd5b5056fea2646970667358221220fbdf6c5dd079c546257b756755448084d2e7a9e5a4f7097f27492faa2ccb9f7b64736f6c63430008070033",
			"opcodes": "PUSH1 0x80 PUSH1 0x40 MSTORE PUSH1 0x2D PUSH1 0x0 SSTORE PUSH1 0x4 PUSH1 0x1 SSTORE CALLVALUE DUP1 ISZERO PUSH2 0x1A JUMPI PUSH1 0x0 DUP1 REVERT JUMPDEST POP PUSH2 0x453 DUP1 PUSH2 0x2A PUSH1 0x0 CODECOPY PUSH1 0x0 RETURN INVALID PUSH1 0x80 PUSH1 0x40 MSTORE CALLVALUE DUP1 ISZERO PUSH2 0x10 JUMPI PUSH1 0x0 DUP1 REVERT JUMPDEST POP PUSH1 0x4 CALLDATASIZE LT PUSH2 0x57 JUMPI PUSH1 0x0 CALLDATALOAD PUSH1 0xE0 SHR DUP1 PUSH4 0x166E7BDD EQ PUSH2 0x5C JUMPI DUP1 PUSH4 0x8292888E EQ PUSH2 0x7A JUMPI DUP1 PUSH4 0xB93C0937 EQ PUSH2 0xAA JUMPI DUP1 PUSH4 0xC5A79F70 EQ PUSH2 0xDA JUMPI DUP1 PUSH4 0xE581BDCA EQ PUSH2 0x10A JUMPI JUMPDEST PUSH1 0x0 DUP1 REVERT JUMPDEST PUSH2 0x64 PUSH2 0x128 JUMP JUMPDEST PUSH1 0x40 MLOAD PUSH2 0x71 SWAP2 SWAP1 PUSH2 0x27A JUMP JUMPDEST PUSH1 0x40 MLOAD DUP1 SWAP2 SUB SWAP1 RETURN JUMPDEST PUSH2 0x94 PUSH1 0x4 DUP1 CALLDATASIZE SUB DUP2 ADD SWAP1 PUSH2 0x8F SWAP2 SWAP1 PUSH2 0x214 JUMP JUMPDEST PUSH2 0x149 JUMP JUMPDEST PUSH1 0x40 MLOAD PUSH2 0xA1 SWAP2 SWAP1 PUSH2 0x27A JUMP JUMPDEST PUSH1 0x40 MLOAD DUP1 SWAP2 SUB SWAP1 RETURN JUMPDEST PUSH2 0xC4 PUSH1 0x4 DUP1 CALLDATASIZE SUB DUP2 ADD SWAP1 PUSH2 0xBF SWAP2 SWAP1 PUSH2 0x1D4 JUMP JUMPDEST PUSH2 0x165 JUMP JUMPDEST PUSH1 0x40 MLOAD PUSH2 0xD1 SWAP2 SWAP1 PUSH2 0x25F JUMP JUMPDEST PUSH1 0x40 MLOAD DUP1 SWAP2 SUB SWAP1 RETURN JUMPDEST PUSH2 0xF4 PUSH1 0x4 DUP1 CALLDATASIZE SUB DUP2 ADD SWAP1 PUSH2 0xEF SWAP2 SWAP1 PUSH2 0x214 JUMP JUMPDEST PUSH2 0x16D JUMP JUMPDEST PUSH1 0x40 MLOAD PUSH2 0x101 SWAP2 SWAP1 PUSH2 0x27A JUMP JUMPDEST PUSH1 0x40 MLOAD DUP1 SWAP2 SUB SWAP1 RETURN JUMPDEST PUSH2 0x112 PUSH2 0x189 JUMP JUMPDEST PUSH1 0x40 MLOAD PUSH2 0x11F SWAP2 SWAP1 PUSH2 0x27A JUMP JUMPDEST PUSH1 0x40 MLOAD DUP1 SWAP2 SUB SWAP1 RETURN JUMPDEST PUSH1 0x0 DUP1 PUSH1 0x3 SWAP1 POP PUSH1 0x0 DUP2 PUSH1 0x0 SLOAD PUSH2 0x13F SWAP2 SWAP1 PUSH2 0x295 JUMP JUMPDEST SWAP1 POP DUP1 SWAP3 POP POP POP SWAP1 JUMP JUMPDEST PUSH1 0x0 DUP1 PUSH1 0x1 SLOAD DUP4 PUSH2 0x15A SWAP2 SWAP1 PUSH2 0x2EB JUMP JUMPDEST SWAP1 POP DUP1 SWAP2 POP POP SWAP2 SWAP1 POP JUMP JUMPDEST PUSH1 0x0 SWAP3 SWAP2 POP POP JUMP JUMPDEST PUSH1 0x0 DUP1 PUSH1 0x1 SLOAD DUP4 PUSH2 0x17E SWAP2 SWAP1 PUSH2 0x31C JUMP JUMPDEST SWAP1 POP DUP1 SWAP2 POP POP SWAP2 SWAP1 POP JUMP JUMPDEST PUSH1 0x0 DUP1 PUSH1 0x5 SWAP1 POP PUSH1 0x0 DUP2 PUSH1 0x0 SLOAD PUSH2 0x1A0 SWAP2 SWAP1 PUSH2 0x295 JUMP JUMPDEST SWAP1 POP DUP1 SWAP3 POP POP POP SWAP1 JUMP JUMPDEST PUSH1 0x0 DUP2 CALLDATALOAD SWAP1 POP PUSH2 0x1B9 DUP2 PUSH2 0x3EF JUMP JUMPDEST SWAP3 SWAP2 POP POP JUMP JUMPDEST PUSH1 0x0 DUP2 CALLDATALOAD SWAP1 POP PUSH2 0x1CE DUP2 PUSH2 0x406 JUMP JUMPDEST SWAP3 SWAP2 POP POP JUMP JUMPDEST PUSH1 0x0 DUP1 PUSH1 0x40 DUP4 DUP6 SUB SLT ISZERO PUSH2 0x1EB JUMPI PUSH2 0x1EA PUSH2 0x3EA JUMP JUMPDEST JUMPDEST PUSH1 0x0 PUSH2 0x1F9 DUP6 DUP3 DUP7 ADD PUSH2 0x1AA JUMP JUMPDEST SWAP3 POP POP PUSH1 0x20 PUSH2 0x20A DUP6 DUP3 DUP7 ADD PUSH2 0x1AA JUMP JUMPDEST SWAP2 POP POP SWAP3 POP SWAP3 SWAP1 POP JUMP JUMPDEST PUSH1 0x0 PUSH1 0x20 DUP3 DUP5 SUB SLT ISZERO PUSH2 0x22A JUMPI PUSH2 0x229 PUSH2 0x3EA JUMP JUMPDEST JUMPDEST PUSH1 0x0 PUSH2 0x238 DUP5 DUP3 DUP6 ADD PUSH2 0x1BF JUMP JUMPDEST SWAP2 POP POP SWAP3 SWAP2 POP POP JUMP JUMPDEST PUSH2 0x24A DUP2 PUSH2 0x376 JUMP JUMPDEST DUP3 MSTORE POP POP JUMP JUMPDEST PUSH2 0x259 DUP2 PUSH2 0x382 JUMP JUMPDEST DUP3 MSTORE POP POP JUMP JUMPDEST PUSH1 0x0 PUSH1 0x20 DUP3 ADD SWAP1 POP PUSH2 0x274 PUSH1 0x0 DUP4 ADD DUP5 PUSH2 0x241 JUMP JUMPDEST SWAP3 SWAP2 POP POP JUMP JUMPDEST PUSH1 0x0 PUSH1 0x20 DUP3 ADD SWAP1 POP PUSH2 0x28F PUSH1 0x0 DUP4 ADD DUP5 PUSH2 0x250 JUMP JUMPDEST SWAP3 SWAP2 POP POP JUMP JUMPDEST PUSH1 0x0 PUSH2 0x2A0 DUP3 PUSH2 0x382 JUMP JUMPDEST SWAP2 POP PUSH2 0x2AB DUP4 PUSH2 0x382 JUMP JUMPDEST SWAP3 POP DUP3 PUSH32 0xFFFFFFFFFFFFFFFFFFFFFFFFFFFFFFFFFFFFFFFFFFFFFFFFFFFFFFFFFFFFFFFF SUB DUP3 GT ISZERO PUSH2 0x2E0 JUMPI PUSH2 0x2DF PUSH2 0x38C JUMP JUMPDEST JUMPDEST DUP3 DUP3 ADD SWAP1 POP SWAP3 SWAP2 POP POP JUMP JUMPDEST PUSH1 0x0 PUSH2 0x2F6 DUP3 PUSH2 0x382 JUMP JUMPDEST SWAP2 POP PUSH2 0x301 DUP4 PUSH2 0x382 JUMP JUMPDEST SWAP3 POP DUP3 PUSH2 0x311 JUMPI PUSH2 0x310 PUSH2 0x3BB JUMP JUMPDEST JUMPDEST DUP3 DUP3 DIV SWAP1 POP SWAP3 SWAP2 POP POP JUMP JUMPDEST PUSH1 0x0 PUSH2 0x327 DUP3 PUSH2 0x382 JUMP JUMPDEST SWAP2 POP PUSH2 0x332 DUP4 PUSH2 0x382 JUMP JUMPDEST SWAP3 POP DUP2 PUSH32 0xFFFFFFFFFFFFFFFFFFFFFFFFFFFFFFFFFFFFFFFFFFFFFFFFFFFFFFFFFFFFFFFF DIV DUP4 GT DUP3 ISZERO ISZERO AND ISZERO PUSH2 0x36B JUMPI PUSH2 0x36A PUSH2 0x38C JUMP JUMPDEST JUMPDEST DUP3 DUP3 MUL SWAP1 POP SWAP3 SWAP2 POP POP JUMP JUMPDEST PUSH1 0x0 DUP2 ISZERO ISZERO SWAP1 POP SWAP2 SWAP1 POP JUMP JUMPDEST PUSH1 0x0 DUP2 SWAP1 POP SWAP2 SWAP1 POP JUMP JUMPDEST PUSH32 0x4E487B7100000000000000000000000000000000000000000000000000000000 PUSH1 0x0 MSTORE PUSH1 0x11 PUSH1 0x4 MSTORE PUSH1 0x24 PUSH1 0x0 REVERT JUMPDEST PUSH32 0x4E487B7100000000000000000000000000000000000000000000000000000000 PUSH1 0x0 MSTORE PUSH1 0x12 PUSH1 0x4 MSTORE PUSH1 0x24 PUSH1 0x0 REVERT JUMPDEST PUSH1 0x0 DUP1 REVERT JUMPDEST PUSH2 0x3F8 DUP2 PUSH2 0x376 JUMP JUMPDEST DUP2 EQ PUSH2 0x403 JUMPI PUSH1 0x0 DUP1 REVERT JUMPDEST POP JUMP JUMPDEST PUSH2 0x40F DUP2 PUSH2 0x382 JUMP JUMPDEST DUP2 EQ PUSH2 0x41A JUMPI PUSH1 0x0 DUP1 REVERT JUMPDEST POP JUMP INVALID LOG2 PUSH5 0x6970667358 0x22 SLT KECCAK256 0xFB 0xDF PUSH13 0x5DD079C546257B756755448084 0xD2 0xE7 0xA9 0xE5 LOG4 0xF7 MULMOD PUSH32 0x27492FAA2CCB9F7B64736F6C6343000807003300000000000000000000000000 "
		},
		"gasEstimates": {
			"creation": {
				"codeDepositCost": "221400",
				"executionCost": "44475",
				"totalCost": "265875"
			},
			"external": {
				"addNewValues()": "infinite",
				"addValues()": "infinite",
				"divideCalculatorByFour(uint256)": "infinite",
				"multiplyCalculatorByFour(uint256)": "infinite",
				"remoteControlOpen(bool,bool)": "infinite"
			}
		},
		"methodIdentifiers": {
			"addNewValues()": "e581bdca",
			"addValues()": "166e7bdd",
			"divideCalculatorByFour(uint256)": "8292888e",
			"multiplyCalculatorByFour(uint256)": "c5a79f70",
			"remoteControlOpen(bool,bool)": "b93c0937"
		}
	},
	"abi": [
		{
			"inputs": [],
			"name": "addNewValues",
			"outputs": [
				{
					"internalType": "uint256",
					"name": "",
					"type": "uint256"
				}
			],
			"stateMutability": "view",
			"type": "function"
		},
		{
			"inputs": [],
			"name": "addValues",
			"outputs": [
				{
					"internalType": "uint256",
					"name": "",
					"type": "uint256"
				}
			],
			"stateMutability": "view",
			"type": "function"
		},
		{
			"inputs": [
				{
					"internalType": "uint256",
					"name": "a",
					"type": "uint256"
				}
			],
			"name": "divideCalculatorByFour",
			"outputs": [
				{
					"internalType": "uint256",
					"name": "",
					"type": "uint256"
				}
			],
			"stateMutability": "view",
			"type": "function"
		},
		{
			"inputs": [
				{
					"internalType": "uint256",
					"name": "a",
					"type": "uint256"
				}
			],
			"name": "multiplyCalculatorByFour",
			"outputs": [
				{
					"internalType": "uint256",
					"name": "",
					"type": "uint256"
				}
			],
			"stateMutability": "view",
			"type": "function"
		},
		{
			"inputs": [
				{
					"internalType": "bool",
					"name": "closedDoor",
					"type": "bool"
				},
				{
					"internalType": "bool",
					"name": "openDoor",
					"type": "bool"
				}
			],
			"name": "remoteControlOpen",
			"outputs": [
				{
					"internalType": "bool",
					"name": "",
					"type": "bool"
				}
			],
			"stateMutability": "view",
			"type": "function"
		}
	]
}